{
  "_format": "hh-sol-artifact-1",
  "contractName": "ZooMedia",
  "sourceName": "src/ZooMedia.sol",
  "abi": [
    {
      "inputs": [
        {
          "internalType": "string",
          "name": "symbol",
          "type": "string"
        },
        {
          "internalType": "string",
          "name": "name",
          "type": "string"
        },
        {
          "internalType": "address",
          "name": "marketAddress",
          "type": "address"
        }
      ],
      "stateMutability": "nonpayable",
      "type": "constructor"
    },
    {
      "anonymous": false,
      "inputs": [
        {
          "indexed": true,
          "internalType": "address",
          "name": "owner",
          "type": "address"
        },
        {
          "indexed": true,
          "internalType": "address",
          "name": "approved",
          "type": "address"
        },
        {
          "indexed": true,
          "internalType": "uint256",
          "name": "tokenId",
          "type": "uint256"
        }
      ],
      "name": "Approval",
      "type": "event"
    },
    {
      "anonymous": false,
      "inputs": [
        {
          "indexed": true,
          "internalType": "address",
          "name": "owner",
          "type": "address"
        },
        {
          "indexed": true,
          "internalType": "address",
          "name": "operator",
          "type": "address"
        },
        {
          "indexed": false,
          "internalType": "bool",
          "name": "approved",
          "type": "bool"
        }
      ],
      "name": "ApprovalForAll",
      "type": "event"
    },
    {
      "anonymous": false,
      "inputs": [
        {
          "indexed": true,
          "internalType": "address",
          "name": "previousOwner",
          "type": "address"
        },
        {
          "indexed": true,
          "internalType": "address",
          "name": "newOwner",
          "type": "address"
        }
      ],
      "name": "OwnershipTransferred",
      "type": "event"
    },
    {
      "anonymous": false,
      "inputs": [
        {
          "indexed": true,
          "internalType": "uint256",
          "name": "_tokenId",
          "type": "uint256"
        },
        {
          "indexed": false,
          "internalType": "address",
          "name": "owner",
          "type": "address"
        },
        {
          "indexed": false,
          "internalType": "string",
          "name": "_uri",
          "type": "string"
        }
      ],
      "name": "TokenMetadataURIUpdated",
      "type": "event"
    },
    {
      "anonymous": false,
      "inputs": [
        {
          "indexed": true,
          "internalType": "uint256",
          "name": "_tokenId",
          "type": "uint256"
        },
        {
          "indexed": false,
          "internalType": "address",
          "name": "owner",
          "type": "address"
        },
        {
          "indexed": false,
          "internalType": "string",
          "name": "_uri",
          "type": "string"
        }
      ],
      "name": "TokenURIUpdated",
      "type": "event"
    },
    {
      "anonymous": false,
      "inputs": [
        {
          "indexed": true,
          "internalType": "address",
          "name": "from",
          "type": "address"
        },
        {
          "indexed": true,
          "internalType": "address",
          "name": "to",
          "type": "address"
        },
        {
          "indexed": true,
          "internalType": "uint256",
          "name": "tokenId",
          "type": "uint256"
        }
      ],
      "name": "Transfer",
      "type": "event"
    },
    {
      "inputs": [],
      "name": "MINT_WITH_SIG_TYPEHASH",
      "outputs": [
        {
          "internalType": "bytes32",
          "name": "",
          "type": "bytes32"
        }
      ],
      "stateMutability": "view",
      "type": "function"
    },
    {
      "inputs": [],
      "name": "PERMIT_TYPEHASH",
      "outputs": [
        {
          "internalType": "bytes32",
          "name": "",
          "type": "bytes32"
        }
      ],
      "stateMutability": "view",
      "type": "function"
    },
    {
      "inputs": [
        {
          "internalType": "uint256",
          "name": "tokenId",
          "type": "uint256"
        },
        {
          "components": [
            {
              "internalType": "uint256",
              "name": "amount",
              "type": "uint256"
            },
            {
              "internalType": "address",
              "name": "currency",
              "type": "address"
            },
            {
              "internalType": "address",
              "name": "bidder",
              "type": "address"
            },
            {
              "internalType": "address",
              "name": "recipient",
              "type": "address"
            },
            {
              "components": [
                {
                  "internalType": "uint256",
                  "name": "value",
                  "type": "uint256"
                }
              ],
              "internalType": "struct Decimal.D256",
              "name": "sellOnShare",
              "type": "tuple"
            }
          ],
          "internalType": "struct IMarket.Bid",
          "name": "bid",
          "type": "tuple"
        }
      ],
      "name": "acceptBid",
      "outputs": [],
      "stateMutability": "nonpayable",
      "type": "function"
    },
    {
      "inputs": [],
      "name": "addDrop",
      "outputs": [
        {
          "internalType": "bool",
          "name": "",
          "type": "bool"
        }
      ],
      "stateMutability": "nonpayable",
      "type": "function"
    },
    {
      "inputs": [
        {
          "internalType": "address",
          "name": "to",
          "type": "address"
        },
        {
          "internalType": "uint256",
          "name": "tokenId",
          "type": "uint256"
        }
      ],
      "name": "approve",
      "outputs": [],
      "stateMutability": "nonpayable",
      "type": "function"
    },
    {
      "inputs": [
        {
          "internalType": "uint256",
          "name": "tokenId",
          "type": "uint256"
        },
        {
          "internalType": "address",
          "name": "recipient",
          "type": "address"
        }
      ],
      "name": "auctionTransfer",
      "outputs": [],
      "stateMutability": "nonpayable",
      "type": "function"
    },
    {
      "inputs": [
        {
          "internalType": "address",
          "name": "owner",
          "type": "address"
        }
      ],
      "name": "balanceOf",
      "outputs": [
        {
          "internalType": "uint256",
          "name": "",
          "type": "uint256"
        }
      ],
      "stateMutability": "view",
      "type": "function"
    },
    {
      "inputs": [],
      "name": "baseURI",
      "outputs": [
        {
          "internalType": "string",
          "name": "",
          "type": "string"
        }
      ],
      "stateMutability": "view",
      "type": "function"
    },
    {
      "inputs": [
        {
          "internalType": "uint256",
          "name": "tokenId",
          "type": "uint256"
        }
      ],
      "name": "burn",
      "outputs": [],
      "stateMutability": "nonpayable",
      "type": "function"
    },
    {
      "inputs": [
        {
          "internalType": "address",
          "name": "marketContractAddress",
          "type": "address"
        }
      ],
      "name": "configure",
      "outputs": [],
      "stateMutability": "nonpayable",
      "type": "function"
    },
    {
      "inputs": [
        {
          "internalType": "uint256",
          "name": "tokenId",
          "type": "uint256"
        }
      ],
      "name": "getApproved",
      "outputs": [
        {
          "internalType": "address",
          "name": "",
          "type": "address"
        }
      ],
      "stateMutability": "view",
      "type": "function"
    },
    {
      "inputs": [
        {
          "internalType": "address",
          "name": "owner",
          "type": "address"
        },
        {
          "internalType": "address",
          "name": "operator",
          "type": "address"
        }
      ],
      "name": "isApprovedForAll",
      "outputs": [
        {
          "internalType": "bool",
          "name": "",
          "type": "bool"
        }
      ],
      "stateMutability": "view",
      "type": "function"
    },
    {
      "inputs": [],
      "name": "marketContract",
      "outputs": [
        {
          "internalType": "address",
          "name": "",
          "type": "address"
        }
      ],
      "stateMutability": "view",
      "type": "function"
    },
    {
      "inputs": [
        {
          "components": [
            {
              "internalType": "string",
              "name": "tokenURI",
              "type": "string"
            },
            {
              "internalType": "string",
              "name": "metadataURI",
              "type": "string"
            },
            {
              "internalType": "bytes32",
              "name": "contentHash",
              "type": "bytes32"
            },
            {
              "internalType": "bytes32",
              "name": "metadataHash",
              "type": "bytes32"
            }
          ],
          "internalType": "struct IMedia.MediaData",
          "name": "data",
          "type": "tuple"
        },
        {
          "components": [
            {
              "components": [
                {
                  "internalType": "uint256",
                  "name": "value",
                  "type": "uint256"
                }
              ],
              "internalType": "struct Decimal.D256",
              "name": "prevOwner",
              "type": "tuple"
            },
            {
              "components": [
                {
                  "internalType": "uint256",
                  "name": "value",
                  "type": "uint256"
                }
              ],
              "internalType": "struct Decimal.D256",
              "name": "creator",
              "type": "tuple"
            },
            {
              "components": [
                {
                  "internalType": "uint256",
                  "name": "value",
                  "type": "uint256"
                }
              ],
              "internalType": "struct Decimal.D256",
              "name": "owner",
              "type": "tuple"
            }
          ],
          "internalType": "struct IMarket.BidShares",
          "name": "bidShares",
          "type": "tuple"
        }
      ],
      "name": "mint",
      "outputs": [],
      "stateMutability": "nonpayable",
      "type": "function"
    },
    {
      "inputs": [
        {
          "internalType": "address",
          "name": "creator",
          "type": "address"
        },
        {
          "components": [
            {
              "internalType": "string",
              "name": "tokenURI",
              "type": "string"
            },
            {
              "internalType": "string",
              "name": "metadataURI",
              "type": "string"
            },
            {
              "internalType": "bytes32",
              "name": "contentHash",
              "type": "bytes32"
            },
            {
              "internalType": "bytes32",
              "name": "metadataHash",
              "type": "bytes32"
            }
          ],
          "internalType": "struct IMedia.MediaData",
          "name": "data",
          "type": "tuple"
        },
        {
          "components": [
            {
              "components": [
                {
                  "internalType": "uint256",
                  "name": "value",
                  "type": "uint256"
                }
              ],
              "internalType": "struct Decimal.D256",
              "name": "prevOwner",
              "type": "tuple"
            },
            {
              "components": [
                {
                  "internalType": "uint256",
                  "name": "value",
                  "type": "uint256"
                }
              ],
              "internalType": "struct Decimal.D256",
              "name": "creator",
              "type": "tuple"
            },
            {
              "components": [
                {
                  "internalType": "uint256",
                  "name": "value",
                  "type": "uint256"
                }
              ],
              "internalType": "struct Decimal.D256",
              "name": "owner",
              "type": "tuple"
            }
          ],
          "internalType": "struct IMarket.BidShares",
          "name": "bidShares",
          "type": "tuple"
        },
        {
          "components": [
            {
              "internalType": "uint256",
              "name": "deadline",
              "type": "uint256"
            },
            {
              "internalType": "uint8",
              "name": "v",
              "type": "uint8"
            },
            {
              "internalType": "bytes32",
              "name": "r",
              "type": "bytes32"
            },
            {
              "internalType": "bytes32",
              "name": "s",
              "type": "bytes32"
            }
          ],
          "internalType": "struct IMedia.EIP712Signature",
          "name": "sig",
          "type": "tuple"
        }
      ],
      "name": "mintWithSig",
      "outputs": [],
      "stateMutability": "nonpayable",
      "type": "function"
    },
    {
      "inputs": [
        {
          "internalType": "address",
          "name": "",
          "type": "address"
        }
      ],
      "name": "mintWithSigNonces",
      "outputs": [
        {
          "internalType": "uint256",
          "name": "",
          "type": "uint256"
        }
      ],
      "stateMutability": "view",
      "type": "function"
    },
    {
      "inputs": [],
      "name": "name",
      "outputs": [
        {
          "internalType": "string",
          "name": "",
          "type": "string"
        }
      ],
      "stateMutability": "view",
      "type": "function"
    },
    {
      "inputs": [],
      "name": "owner",
      "outputs": [
        {
          "internalType": "address",
          "name": "",
          "type": "address"
        }
      ],
      "stateMutability": "view",
      "type": "function"
    },
    {
      "inputs": [
        {
          "internalType": "uint256",
          "name": "tokenId",
          "type": "uint256"
        }
      ],
      "name": "ownerOf",
      "outputs": [
        {
          "internalType": "address",
          "name": "",
          "type": "address"
        }
      ],
      "stateMutability": "view",
      "type": "function"
    },
    {
      "inputs": [
        {
          "internalType": "address",
          "name": "spender",
          "type": "address"
        },
        {
          "internalType": "uint256",
          "name": "tokenId",
          "type": "uint256"
        },
        {
          "components": [
            {
              "internalType": "uint256",
              "name": "deadline",
              "type": "uint256"
            },
            {
              "internalType": "uint8",
              "name": "v",
              "type": "uint8"
            },
            {
              "internalType": "bytes32",
              "name": "r",
              "type": "bytes32"
            },
            {
              "internalType": "bytes32",
              "name": "s",
              "type": "bytes32"
            }
          ],
          "internalType": "struct IMedia.EIP712Signature",
          "name": "sig",
          "type": "tuple"
        }
      ],
      "name": "permit",
      "outputs": [],
      "stateMutability": "nonpayable",
      "type": "function"
    },
    {
      "inputs": [
        {
          "internalType": "address",
          "name": "",
          "type": "address"
        },
        {
          "internalType": "uint256",
          "name": "",
          "type": "uint256"
        }
      ],
      "name": "permitNonces",
      "outputs": [
        {
          "internalType": "uint256",
          "name": "",
          "type": "uint256"
        }
      ],
      "stateMutability": "view",
      "type": "function"
    },
    {
      "inputs": [
        {
          "internalType": "uint256",
          "name": "",
          "type": "uint256"
        }
      ],
      "name": "previousTokenOwners",
      "outputs": [
        {
          "internalType": "address",
          "name": "",
          "type": "address"
        }
      ],
      "stateMutability": "view",
      "type": "function"
    },
    {
      "inputs": [
        {
          "internalType": "uint256",
          "name": "tokenId",
          "type": "uint256"
        }
      ],
      "name": "removeAsk",
      "outputs": [],
      "stateMutability": "nonpayable",
      "type": "function"
    },
    {
      "inputs": [
        {
          "internalType": "uint256",
          "name": "tokenId",
          "type": "uint256"
        }
      ],
      "name": "removeBid",
      "outputs": [],
      "stateMutability": "nonpayable",
      "type": "function"
    },
    {
      "inputs": [],
      "name": "renounceOwnership",
      "outputs": [],
      "stateMutability": "nonpayable",
      "type": "function"
    },
    {
      "inputs": [
        {
          "internalType": "uint256",
          "name": "tokenId",
          "type": "uint256"
        }
      ],
      "name": "revokeApproval",
      "outputs": [],
      "stateMutability": "nonpayable",
      "type": "function"
    },
    {
      "inputs": [
        {
          "internalType": "address",
          "name": "from",
          "type": "address"
        },
        {
          "internalType": "address",
          "name": "to",
          "type": "address"
        },
        {
          "internalType": "uint256",
          "name": "tokenId",
          "type": "uint256"
        }
      ],
      "name": "safeTransferFrom",
      "outputs": [],
      "stateMutability": "nonpayable",
      "type": "function"
    },
    {
      "inputs": [
        {
          "internalType": "address",
          "name": "from",
          "type": "address"
        },
        {
          "internalType": "address",
          "name": "to",
          "type": "address"
        },
        {
          "internalType": "uint256",
          "name": "tokenId",
          "type": "uint256"
        },
        {
          "internalType": "bytes",
          "name": "_data",
          "type": "bytes"
        }
      ],
      "name": "safeTransferFrom",
      "outputs": [],
      "stateMutability": "nonpayable",
      "type": "function"
    },
    {
      "inputs": [
        {
          "internalType": "address",
          "name": "operator",
          "type": "address"
        },
        {
          "internalType": "bool",
          "name": "approved",
          "type": "bool"
        }
      ],
      "name": "setApprovalForAll",
      "outputs": [],
      "stateMutability": "nonpayable",
      "type": "function"
    },
    {
      "inputs": [
        {
          "internalType": "uint256",
          "name": "tokenId",
          "type": "uint256"
        },
        {
          "components": [
            {
              "internalType": "uint256",
              "name": "amount",
              "type": "uint256"
            },
            {
              "internalType": "address",
              "name": "currency",
              "type": "address"
            }
          ],
          "internalType": "struct IMarket.Ask",
          "name": "ask",
          "type": "tuple"
        }
      ],
      "name": "setAsk",
      "outputs": [],
      "stateMutability": "nonpayable",
      "type": "function"
    },
    {
      "inputs": [
        {
          "internalType": "uint256",
          "name": "tokenId",
          "type": "uint256"
        },
        {
          "components": [
            {
              "internalType": "uint256",
              "name": "amount",
              "type": "uint256"
            },
            {
              "internalType": "address",
              "name": "currency",
              "type": "address"
            },
            {
              "internalType": "address",
              "name": "bidder",
              "type": "address"
            },
            {
              "internalType": "address",
              "name": "recipient",
              "type": "address"
            },
            {
              "components": [
                {
                  "internalType": "uint256",
                  "name": "value",
                  "type": "uint256"
                }
              ],
              "internalType": "struct Decimal.D256",
              "name": "sellOnShare",
              "type": "tuple"
            }
          ],
          "internalType": "struct IMarket.Bid",
          "name": "bid",
          "type": "tuple"
        }
      ],
      "name": "setBid",
      "outputs": [],
      "stateMutability": "nonpayable",
      "type": "function"
    },
    {
      "inputs": [
        {
          "internalType": "bytes4",
          "name": "interfaceId",
          "type": "bytes4"
        }
      ],
      "name": "supportsInterface",
      "outputs": [
        {
          "internalType": "bool",
          "name": "",
          "type": "bool"
        }
      ],
      "stateMutability": "view",
      "type": "function"
    },
    {
      "inputs": [],
      "name": "symbol",
      "outputs": [
        {
          "internalType": "string",
          "name": "",
          "type": "string"
        }
      ],
      "stateMutability": "view",
      "type": "function"
    },
    {
      "inputs": [
        {
          "internalType": "uint256",
          "name": "index",
          "type": "uint256"
        }
      ],
      "name": "tokenByIndex",
      "outputs": [
        {
          "internalType": "uint256",
          "name": "",
          "type": "uint256"
        }
      ],
      "stateMutability": "view",
      "type": "function"
    },
    {
      "inputs": [
        {
          "internalType": "uint256",
          "name": "",
          "type": "uint256"
        }
      ],
      "name": "tokenContentHashes",
      "outputs": [
        {
          "internalType": "bytes32",
          "name": "",
          "type": "bytes32"
        }
      ],
      "stateMutability": "view",
      "type": "function"
    },
    {
      "inputs": [
        {
          "internalType": "uint256",
          "name": "",
          "type": "uint256"
        }
      ],
      "name": "tokenCreators",
      "outputs": [
        {
          "internalType": "address",
          "name": "",
          "type": "address"
        }
      ],
      "stateMutability": "view",
      "type": "function"
    },
    {
      "inputs": [
        {
          "internalType": "uint256",
          "name": "",
          "type": "uint256"
        }
      ],
      "name": "tokenMetadataHashes",
      "outputs": [
        {
          "internalType": "bytes32",
          "name": "",
          "type": "bytes32"
        }
      ],
      "stateMutability": "view",
      "type": "function"
    },
    {
      "inputs": [
        {
          "internalType": "uint256",
          "name": "tokenId",
          "type": "uint256"
        }
      ],
      "name": "tokenMetadataURI",
      "outputs": [
        {
          "internalType": "string",
          "name": "",
          "type": "string"
        }
      ],
      "stateMutability": "view",
      "type": "function"
    },
    {
      "inputs": [
        {
          "internalType": "address",
          "name": "owner",
          "type": "address"
        },
        {
          "internalType": "uint256",
          "name": "index",
          "type": "uint256"
        }
      ],
      "name": "tokenOfOwnerByIndex",
      "outputs": [
        {
          "internalType": "uint256",
          "name": "",
          "type": "uint256"
        }
      ],
      "stateMutability": "view",
      "type": "function"
    },
    {
      "inputs": [
        {
          "internalType": "uint256",
          "name": "tokenId",
          "type": "uint256"
        }
      ],
      "name": "tokenURI",
      "outputs": [
        {
          "internalType": "string",
          "name": "",
          "type": "string"
        }
      ],
      "stateMutability": "view",
      "type": "function"
    },
    {
      "inputs": [],
      "name": "totalSupply",
      "outputs": [
        {
          "internalType": "uint256",
          "name": "",
          "type": "uint256"
        }
      ],
      "stateMutability": "view",
      "type": "function"
    },
    {
      "inputs": [
        {
          "internalType": "address",
          "name": "from",
          "type": "address"
        },
        {
          "internalType": "address",
          "name": "to",
          "type": "address"
        },
        {
          "internalType": "uint256",
          "name": "tokenId",
          "type": "uint256"
        }
      ],
      "name": "transferFrom",
      "outputs": [],
      "stateMutability": "nonpayable",
      "type": "function"
    },
    {
      "inputs": [
        {
          "internalType": "address",
          "name": "newOwner",
          "type": "address"
        }
      ],
      "name": "transferOwnership",
      "outputs": [],
      "stateMutability": "nonpayable",
      "type": "function"
    },
    {
      "inputs": [
        {
          "internalType": "uint256",
          "name": "tokenId",
          "type": "uint256"
        },
        {
          "internalType": "string",
          "name": "metadataURI",
          "type": "string"
        }
      ],
      "name": "updateTokenMetadataURI",
      "outputs": [],
      "stateMutability": "nonpayable",
      "type": "function"
    },
    {
      "inputs": [
        {
          "internalType": "uint256",
          "name": "tokenId",
          "type": "uint256"
        },
        {
          "internalType": "string",
          "name": "_tokenURI",
          "type": "string"
        }
      ],
      "name": "updateTokenURI",
      "outputs": [],
      "stateMutability": "nonpayable",
      "type": "function"
    }
  ],
  "bytecode": "0x60806040523480156200001157600080fd5b5060405162003fc738038062003fc7833981016040819052620000349162000324565b8282828282816007908051906020019062000051929190620001cb565b50805162000067906008906020840190620001cb565b506200007a6380ac58cd60e01b620000f5565b6200008c63780e9d6360e01b620000f5565b50506001600b55600c80546001600160a01b03191633179055620000b7632711173360e11b620000f5565b600d80546001600160a01b0319166001600160a01b039290921691909117905550620000ec9050620000e63390565b62000179565b50505062000400565b6001600160e01b03198082161415620001545760405162461bcd60e51b815260206004820152601c60248201527f4552433136353a20696e76616c696420696e7465726661636520696400000000604482015260640160405180910390fd5b6001600160e01b0319166000908152602081905260409020805460ff19166001179055565b601880546001600160a01b038381166001600160a01b0319831681179093556040519116919082907f8be0079c531659141344cd1fd0a4f28419497f9722a3daafe3b4186f6b6457e090600090a35050565b828054620001d990620003ad565b90600052602060002090601f016020900481019282620001fd576000855562000248565b82601f106200021857805160ff191683800117855562000248565b8280016001018555821562000248579182015b82811115620002485782518255916020019190600101906200022b565b50620002569291506200025a565b5090565b5b808211156200025657600081556001016200025b565b600082601f83011262000282578081fd5b81516001600160401b03808211156200029f576200029f620003ea565b604051601f8301601f19908116603f01168101908282118183101715620002ca57620002ca620003ea565b81604052838152602092508683858801011115620002e6578485fd5b8491505b83821015620003095785820183015181830184015290820190620002ea565b838211156200031a57848385830101525b9695505050505050565b60008060006060848603121562000339578283fd5b83516001600160401b038082111562000350578485fd5b6200035e8783880162000271565b9450602086015191508082111562000374578384fd5b50620003838682870162000271565b604086015190935090506001600160a01b0381168114620003a2578182fd5b809150509250925092565b600181811c90821680620003c257607f821691505b60208210811415620003e457634e487b7160e01b600052602260045260246000fd5b50919050565b634e487b7160e01b600052604160045260246000fd5b613bb780620004106000396000f3fe608060405234801561001057600080fd5b506004361061027f5760003560e01c80636c0360eb1161015c578063b1e130fc116100ce578063e0fd045f11610087578063e0fd045f146105c7578063e985e9c5146105f0578063f2fde38b1461062c578063f6b630f01461063f578063f8ccd5de14610652578063fad321971461067d57600080fd5b8063b1e130fc14610541578063b320f45914610554578063b88d4fde14610567578063ba3393991461057a578063c87b56dd1461058d578063de5236fb146105a057600080fd5b80637a7a1202116101205780637a7a1202146104c65780638da5cb5b146104d957806395d89b41146104ea5780639d8e7260146104f2578063a1794bcd1461051b578063a22cb4651461052e57600080fd5b80636c0360eb1461047d57806370a0823114610485578063715018a61461049857806375682e79146104a057806375cb2672146104b357600080fd5b806328220f35116101f557806342842e0e116101b957806342842e0e1461040b57806342966c681461041e5780634f6ccce7146104315780635bf624221461044457806362f24b70146104575780636352211e1461046a57600080fd5b806328220f35146103a357806329e614ee146103b65780632cca3237146103be5780632f745c59146103d157806330adf81f146103e457600080fd5b80630bcd899b116102475780630bcd899b1461032f5780630e2a17781461034f578063157c3df91461036257806318160ddd1461037557806318e97fd11461037d57806323b872dd1461039057600080fd5b806301ddc3b51461028457806301ffc9a7146102b757806306fdde03146102da578063081812fc146102ef578063095ea7b31461031a575b600080fd5b6102a46102923660046134f6565b60126020526000908152604090205481565b6040519081526020015b60405180910390f35b6102ca6102c536600461347a565b61069d565b60405190151581526020016102ae565b6102e26106dd565b6040516102ae91906137c9565b6103026102fd3660046134f6565b61076f565b6040516001600160a01b0390911681526020016102ae565b61032d610328366004613415565b6107fc565b005b6102a461033d36600461326b565b60166020526000908152604090205481565b61032d61035d36600461343e565b610912565b6102e26103703660046134f6565b610c10565b6102a4610cda565b61032d61038b366004613530565b610ceb565b61032d61039e3660046132b7565b610e95565b61032d6103b13660046134f6565b610ec6565b6102ca610f71565b61032d6103cc3660046134b2565b610fa1565b6102a46103df366004613415565b610fdd565b6102a47f49ecf333e5b8c95c40fdafc95c1ad136e8914a8fb55e9dc8bb01eaa83a2df9ad81565b61032d6104193660046132b7565b611006565b61032d61042c3660046134f6565b611021565b6102a461043f3660046134f6565b61112f565b61032d61045236600461361b565b611145565b61032d6104653660046135a7565b611236565b6103026104783660046134f6565b611304565b6102e261132c565b6102a461049336600461326b565b61133b565b61032d6113c7565b61032d6104ae366004613530565b6113fd565b61032d6104c136600461326b565b61158e565b61032d6104d43660046133a5565b6116c9565b6018546001600160a01b0316610302565b6102e2611934565b6103026105003660046134f6565b600e602052600090815260409020546001600160a01b031681565b600d54610302906001600160a01b031681565b61032d61053c36600461336b565b611943565b61032d61054f3660046134f6565b611a08565b61032d6105623660046134f6565b611ab7565b61032d6105753660046132f2565b611b74565b61032d61058836600461361b565b611bac565b6102e261059b3660046134f6565b611c2e565b6102a47f2952e482b8e2b192305f87374d7af45dc2eafafe4f50d26a0c02e90f2fdbe14b81565b6103026105d53660046134f6565b600f602052600090815260409020546001600160a01b031681565b6102ca6105fe366004613285565b6001600160a01b03918216600090815260066020908152604080832093909416825291909152205460ff1690565b61032d61063a36600461326b565b611cf8565b61032d61064d36600461350e565b611d93565b6102a4610660366004613415565b601560209081526000928352604080842090915290825290205481565b6102a461068b3660046134f6565b60116020526000908152604090205481565b60006301ffc9a760e01b6001600160e01b0319831614806106d757506001600160e01b0319821660009081526020819052604090205460ff165b92915050565b6060600780546106ec90613a94565b80601f016020809104026020016040519081016040528092919081815260200182805461071890613a94565b80156107655780601f1061073a57610100808354040283529160200191610765565b820191906000526020600020905b81548152906001019060200180831161074857829003601f168201915b5050505050905090565b600061077a82611e49565b6107e05760405162461bcd60e51b815260206004820152602c60248201527f4552433732313a20617070726f76656420717565727920666f72206e6f6e657860448201526b34b9ba32b73a103a37b5b2b760a11b60648201526084015b60405180910390fd5b506000908152600560205260409020546001600160a01b031690565b600061080782611304565b9050806001600160a01b0316836001600160a01b031614156108755760405162461bcd60e51b815260206004820152602160248201527f4552433732313a20617070726f76616c20746f2063757272656e74206f776e656044820152603960f91b60648201526084016107d7565b336001600160a01b0382161480610891575061089181336105fe565b6109035760405162461bcd60e51b815260206004820152603860248201527f4552433732313a20617070726f76652063616c6c6572206973206e6f74206f7760448201527f6e6572206e6f7220617070726f76656420666f7220616c6c000000000000000060648201526084016107d7565b61090d8383611e56565b505050565b6002600b5414156109355760405162461bcd60e51b81526004016107d79061396a565b6002600b558161094481611e49565b6109605760405162461bcd60e51b81526004016107d790613933565b8151158061096f575081514211155b6109b35760405162461bcd60e51b81526020600482015260156024820152741359591a584e8814195c9b5a5d08195e1c1a5c9959605a1b60448201526064016107d7565b6001600160a01b038416610a095760405162461bcd60e51b815260206004820152601c60248201527f4d656469613a207370656e6465722063616e6e6f74206265203078300000000060448201526064016107d7565b6000610a13611ec4565b90506000817f49ecf333e5b8c95c40fdafc95c1ad136e8914a8fb55e9dc8bb01eaa83a2df9ad8787601585610a4783611304565b6001600160a01b03168152602080820192909252604090810160009081208c82529092528120805491610a7983613ac9565b9091555088516040805160208101969096526001600160a01b03909416938501939093526060840191909152608083015260a082015260c00160405160208183030381529060405280519060200120604051602001610aef92919061190160f01b81526002810192909252602282015260420190565b604051602081830303815290604052805190602001209050600060018286602001518760400151886060015160405160008152602001604052604051610b51949392919093845260ff9290921660208401526040830152606082015260800190565b6020604051602081039080840390855afa158015610b73573d6000803e3d6000fd5b5050604051601f1901519150506001600160a01b03811615801590610bb15750806001600160a01b0316610ba687611304565b6001600160a01b0316145b610bf85760405162461bcd60e51b81526020600482015260186024820152771359591a584e8814da59db985d1d5c99481a5b9d985b1a5960421b60448201526064016107d7565b610c028787611e56565b50506001600b555050505050565b60608180610c1d60175490565b11610c3a5760405162461bcd60e51b81526004016107d7906137dc565b60008381526013602052604090208054610c5390613a94565b80601f0160208091040260200160405190810160405280929190818152602001828054610c7f90613a94565b8015610ccc5780601f10610ca157610100808354040283529160200191610ccc565b820191906000526020600020905b815481529060010190602001808311610caf57829003601f168201915b505050505091505b50919050565b6000610ce66002611f94565b905090565b6002600b541415610d0e5760405162461bcd60e51b81526004016107d79061396a565b6002600b553383610d1f8282611f9f565b610d3b5760405162461bcd60e51b81526004016107d790613876565b6000858152601160205260409020548590610db35760405162461bcd60e51b815260206004820152603260248201527f4d656469613a20746f6b656e20646f6573206e6f7420686176652068617368206044820152711bd98818dc99585d19590818dbdb9d195b9d60721b60648201526084016107d7565b84848080601f01602080910402602001604051908101604052809392919081815260200183838082843760009201919091525050825115159150610e0b90505760405162461bcd60e51b81526004016107d7906139a1565b610e4b8787878080601f01602080910402602001604051908101604052809392919081815260200183838082843760009201919091525061208992505050565b867f702fe2dc2dc0f68023540aa4a1e11811c0f29112f6ebf01e61b90538e4f29810338888604051610e7f93929190613789565b60405180910390a250506001600b555050505050565b610e9f3382611f9f565b610ebb5760405162461bcd60e51b81526004016107d7906138e2565b61090d838383612112565b6002600b541415610ee95760405162461bcd60e51b81526004016107d79061396a565b6002600b553381610efa8282611f9f565b610f165760405162461bcd60e51b81526004016107d790613876565b600d546040516328220f3560e01b8152600481018590526001600160a01b03909116906328220f35906024015b600060405180830381600087803b158015610f5d57600080fd5b505af1158015610c02573d6000803e3d6000fd5b6018546000906001600160a01b03163314610f9e5760405162461bcd60e51b81526004016107d7906138ad565b90565b6002600b541415610fc45760405162461bcd60e51b81526004016107d79061396a565b6002600b55610fd433838361217b565b50506001600b55565b6001600160a01b0382166000908152600160205260408120610fff9083612454565b9392505050565b61090d83838360405180602001604052806000815250611b74565b6002600b5414156110445760405162461bcd60e51b81526004016107d79061396a565b6002600b558061105381611e49565b61106f5760405162461bcd60e51b81526004016107d790613933565b338261107b8282611f9f565b6110975760405162461bcd60e51b81526004016107d790613876565b60006110a285611304565b6000868152600f60205260409020549091506001600160a01b0380831691161461111a5760405162461bcd60e51b8152602060048201526024808201527f4d656469613a206f776e6572206973206e6f742063726561746f72206f66206d6044820152636564696160e01b60648201526084016107d7565b61112385612460565b50506001600b55505050565b60008061113d600284612549565b509392505050565b6002600b5414156111685760405162461bcd60e51b81526004016107d79061396a565b6002600b558161117781611e49565b6111935760405162461bcd60e51b81526004016107d790613933565b81604001516001600160a01b0316336001600160a01b0316146112025760405162461bcd60e51b815260206004820152602160248201527f4d61726b65743a20426964646572206d757374206265206d73672073656e64656044820152603960f91b60648201526084016107d7565b600d546040516317b6b0d360e31b81526001600160a01b039091169063bdb5869890610f43908690869033906004016139fb565b6002600b5414156112595760405162461bcd60e51b81526004016107d79061396a565b6002600b55338261126a8282611f9f565b6112865760405162461bcd60e51b81526004016107d790613876565b600d5460405163062f24b760e41b8152600481018690528451602482015260208501516001600160a01b039081166044830152909116906362f24b70906064015b600060405180830381600087803b1580156112e157600080fd5b505af11580156112f5573d6000803e3d6000fd5b50506001600b55505050505050565b60006106d782604051806060016040528060298152602001613b596029913960029190612565565b6060600a80546106ec90613a94565b60006001600160a01b0382166113a65760405162461bcd60e51b815260206004820152602a60248201527f4552433732313a2062616c616e636520717565727920666f7220746865207a65604482015269726f206164647265737360b01b60648201526084016107d7565b6001600160a01b03821660009081526001602052604090206106d790612572565b6018546001600160a01b031633146113f15760405162461bcd60e51b81526004016107d7906138ad565b6113fb600061257c565b565b6002600b5414156114205760405162461bcd60e51b81526004016107d79061396a565b6002600b5533836114318282611f9f565b61144d5760405162461bcd60e51b81526004016107d790613876565b60008581526012602052604090205485906114c25760405162461bcd60e51b815260206004820152602f60248201527f4d656469613a20746f6b656e20646f6573206e6f74206861766520686173682060448201526e6f6620697473206d6574616461746160881b60648201526084016107d7565b84848080601f0160208091040260200160405190810160405280939291908181526020018383808284376000920191909152505082511515915061151a90505760405162461bcd60e51b81526004016107d7906139a1565b61155a8787878080601f0160208091040260200160405190810160405280939291908181526020018383808284376000920191909152506125ce92505050565b867fe3df41127db820c79e5b8d541a63e40e3e97b9af96f7a50bded13091b70df9ae338888604051610e7f93929190613789565b600c546001600160a01b031633146115dc5760405162461bcd60e51b815260206004820152601160248201527026b2b234b09d1027b7363c9037bbb732b960791b60448201526064016107d7565b600d546001600160a01b0316156116355760405162461bcd60e51b815260206004820152601960248201527f4d656469613a20416c726561647920636f6e666967757265640000000000000060448201526064016107d7565b600d546001600160a01b03166116a75760405162461bcd60e51b815260206004820152603160248201527f4d61726b65743a2063616e6e6f7420736574206d6564696120636f6e7472616360448201527074206173207a65726f206164647265737360781b60648201526084016107d7565b600d80546001600160a01b0319166001600160a01b0392909216919091179055565b6002600b5414156116ec5760405162461bcd60e51b81526004016107d79061396a565b6002600b5580511580611700575080514211155b61174c5760405162461bcd60e51b815260206004820152601a60248201527f4d656469613a206d696e7457697468536967206578706972656400000000000060448201526064016107d7565b6000611756611ec4565b6040808601516060870151602080880151516001600160a01b038b16600090815260169092529381208054959650909486947f2952e482b8e2b192305f87374d7af45dc2eafafe4f50d26a0c02e90f2fdbe14b949392909190876117b983613ac9565b9091555088516040805160208101979097528601949094526060850192909252608084015260a083015260c082015260e0016040516020818303038152906040528051906020012060405160200161182892919061190160f01b81526002810192909252602282015260420190565b60405160208183030381529060405280519060200120905060006001828560200151866040015187606001516040516000815260200160405260405161188a949392919093845260ff9290921660208401526040830152606082015260800190565b6020604051602081039080840390855afa1580156118ac573d6000803e3d6000fd5b5050604051601f1901519150506001600160a01b038116158015906118e25750806001600160a01b0316876001600160a01b0316145b6119295760405162461bcd60e51b81526020600482015260186024820152771359591a584e8814da59db985d1d5c99481a5b9d985b1a5960421b60448201526064016107d7565b610c0281878761217b565b6060600880546106ec90613a94565b6001600160a01b03821633141561199c5760405162461bcd60e51b815260206004820152601960248201527f4552433732313a20617070726f766520746f2063616c6c65720000000000000060448201526064016107d7565b3360008181526006602090815260408083206001600160a01b03871680855290835292819020805460ff191686151590811790915590519081529192917f17307eab39ab6107e8899845ad3d59bd9653f200f220920489ca2b5937696c31910160405180910390a35050565b6002600b541415611a2b5760405162461bcd60e51b81526004016107d79061396a565b6002600b55611a398161076f565b6001600160a01b0316336001600160a01b031614611aa45760405162461bcd60e51b815260206004820152602260248201527f4d656469613a2063616c6c6572206e6f7420617070726f766564206164647265604482015261737360f01b60648201526084016107d7565b611aaf600082611e56565b506001600b55565b6002600b541415611ada5760405162461bcd60e51b81526004016107d79061396a565b6002600b558080611aea60175490565b11611b075760405162461bcd60e51b81526004016107d7906137dc565b600d5460405163776a083560e01b8152600481018490523360248201526001600160a01b039091169063776a083590604401600060405180830381600087803b158015611b5357600080fd5b505af1158015611b67573d6000803e3d6000fd5b50506001600b5550505050565b611b7e3383611f9f565b611b9a5760405162461bcd60e51b81526004016107d7906138e2565b611ba684848484612613565b50505050565b6002600b541415611bcf5760405162461bcd60e51b81526004016107d79061396a565b6002600b553382611be08282611f9f565b611bfc5760405162461bcd60e51b81526004016107d790613876565b600d5460405163ba33939960e01b81526001600160a01b039091169063ba339399906112c790879087906004016139e7565b60608180611c3b60175490565b11611c585760405162461bcd60e51b81526004016107d7906137dc565b60008381526009602052604081208054611c7190613a94565b80601f0160208091040260200160405190810160405280929190818152602001828054611c9d90613a94565b8015611cea5780601f10611cbf57610100808354040283529160200191611cea565b820191906000526020600020905b815481529060010190602001808311611ccd57829003601f168201915b509398975050505050505050565b6018546001600160a01b03163314611d225760405162461bcd60e51b81526004016107d7906138ad565b6001600160a01b038116611d875760405162461bcd60e51b815260206004820152602660248201527f4f776e61626c653a206e6577206f776e657220697320746865207a65726f206160448201526564647265737360d01b60648201526084016107d7565b611d908161257c565b50565b600d546001600160a01b03163314611ded5760405162461bcd60e51b815260206004820152601b60248201527f4d656469613a206f6e6c79206d61726b657420636f6e7472616374000000000060448201526064016107d7565b611df682611304565b6000838152600e6020526040902080546001600160a01b0319166001600160a01b0392909216919091179055611e45611e2e83611304565b828460405180602001604052806000815250612613565b5050565b60006106d7600283612646565b600081815260056020526040902080546001600160a01b0319166001600160a01b0384169081179091558190611e8b82611304565b6001600160a01b03167f8c5be1e5ebec7d5bd14f71427d1e84f3dd0314c0f7b2291e5b200ac8c7c3b92560405160405180910390a45050565b604080518082018252600981526843727970746f5a6f6f60b81b6020918201528151808301835260018152603160f81b9082015281517f8b73c3c69bb8fe3d512ecc4cf759cc79239f7b179b0ffacaa9a75d522b39400f818301527fc546bd27cb87e09030592d50b7a6eb23f56c4c0a6444469d7593ecdf7b622945818401527fc89efdaa54c0f20c7adf612882df0950f5a951637e0307cdcb4c672f298b8bc660608201524660808201523060a0808301919091528351808303909101815260c0909101909252815191012090565b60006106d782612652565b6000611faa82611e49565b61200b5760405162461bcd60e51b815260206004820152602c60248201527f4552433732313a206f70657261746f7220717565727920666f72206e6f6e657860448201526b34b9ba32b73a103a37b5b2b760a11b60648201526084016107d7565b600061201683611304565b9050806001600160a01b0316846001600160a01b031614806120515750836001600160a01b03166120468461076f565b6001600160a01b0316145b8061208157506001600160a01b0380821660009081526006602090815260408083209388168352929052205460ff165b949350505050565b61209282611e49565b6120f35760405162461bcd60e51b815260206004820152602c60248201527f4552433732314d657461646174613a2055524920736574206f66206e6f6e657860448201526b34b9ba32b73a103a37b5b2b760a11b60648201526084016107d7565b6000828152600960209081526040909120825161090d92840190612f63565b600d546040516328220f3560e01b8152600481018390526001600160a01b03909116906328220f3590602401600060405180830381600087803b15801561215857600080fd5b505af115801561216c573d6000803e3d6000fd5b5050505061090d83838361265d565b8151805161219b5760405162461bcd60e51b81526004016107d7906139a1565b602083015180516121be5760405162461bcd60e51b81526004016107d7906139a1565b604084015161221b5760405162461bcd60e51b8152602060048201526024808201527f4d656469613a20636f6e74656e742068617368206d757374206265206e6f6e2d6044820152637a65726f60e01b60648201526084016107d7565b60408085015160009081526014602052205460ff16156122a35760405162461bcd60e51b815260206004820152603e60248201527f4d656469613a206120746f6b656e2068617320616c7265616479206265656e2060448201527f637265617465642077697468207468697320636f6e74656e742068617368000060648201526084016107d7565b60608401516123025760405162461bcd60e51b815260206004820152602560248201527f4d656469613a206d657461646174612068617368206d757374206265206e6f6e6044820152642d7a65726f60d81b60648201526084016107d7565b600061230d60175490565b905061231986826127de565b612327601780546001019055565b6123358186604001516127f8565b612343818660600151612831565b6123518186602001516125ce565b61235f818660000151612089565b6001600160a01b0386166000908152601060205260409020612381908261286a565b50604085810151600090815260146020908152828220805460ff19166001179055838252600f815282822080546001600160a01b038b81166001600160a01b03199283168117909355600e84529385902080549091169091179055600d5483516375aab41d60e11b8152600481018690528851516024820152918801515160448301529287015151606482015291169063eb55683a90608401600060405180830381600087803b15801561243457600080fd5b505af1158015612448573d6000803e3d6000fd5b50505050505050505050565b6000610fff8383612876565b6000818152600960205260408120805461247990613a94565b80601f01602080910402602001604051908101604052809291908181526020018280546124a590613a94565b80156124f25780601f106124c7576101008083540402835291602001916124f2565b820191906000526020600020905b8154815290600101906020018083116124d557829003601f168201915b50505050509050612502826128ae565b80511561252a576000828152600960209081526040909120825161252892840190612f63565b505b506000908152600e6020526040902080546001600160a01b0319169055565b60008080806125588686612968565b9097909650945050505050565b6000612081848484612993565b60006106d7825490565b601880546001600160a01b038381166001600160a01b0319831681179093556040519116919082907f8be0079c531659141344cd1fd0a4f28419497f9722a3daafe3b4186f6b6457e090600090a35050565b816125d881611e49565b6125f45760405162461bcd60e51b81526004016107d790613933565b60008381526013602090815260409091208351611ba692850190612f63565b61261e848484612112565b61262a848484846129df565b611ba65760405162461bcd60e51b81526004016107d790613824565b6000610fff8383612ab0565b60006106d782612572565b826001600160a01b031661267082611304565b6001600160a01b0316146126d85760405162461bcd60e51b815260206004820152602960248201527f4552433732313a207472616e73666572206f6620746f6b656e2074686174206960448201526839903737ba1037bbb760b91b60648201526084016107d7565b6001600160a01b03821661273a5760405162461bcd60e51b8152602060048201526024808201527f4552433732313a207472616e7366657220746f20746865207a65726f206164646044820152637265737360e01b60648201526084016107d7565b612745600082611e56565b6001600160a01b03831660009081526001602052604090206127679082612abc565b506001600160a01b038216600090815260016020526040902061278a908261286a565b5061279760028284612ac8565b5080826001600160a01b0316846001600160a01b03167fddf252ad1be2c89b69c2b068fc378daa952ba7f163c4a11628f55a4df523b3ef60405160405180910390a4505050565b611e45828260405180602001604052806000815250612ade565b8161280281611e49565b61281e5760405162461bcd60e51b81526004016107d790613933565b5060009182526011602052604090912055565b8161283b81611e49565b6128575760405162461bcd60e51b81526004016107d790613933565b5060009182526012602052604090912055565b6000610fff8383612b11565b600082600001828154811061289b57634e487b7160e01b600052603260045260246000fd5b9060005260206000200154905092915050565b60006128b982611304565b90506128c6600083611e56565b600082815260096020526040902080546128df90613a94565b1590506128fd5760008281526009602052604081206128fd91612fe7565b6001600160a01b038116600090815260016020526040902061291f9083612abc565b5061292b600283612b60565b5060405182906000906001600160a01b038416907fddf252ad1be2c89b69c2b068fc378daa952ba7f163c4a11628f55a4df523b3ef908390a45050565b600080806129768585612454565b600081815260029690960160205260409095205494959350505050565b6000828152600284016020526040812054801515806129b757506129b78585612ab0565b83906129d65760405162461bcd60e51b81526004016107d791906137c9565b50949350505050565b60006001600160a01b0384163b6129f857506001612081565b6000612a79630a85bd0160e11b33888787604051602401612a1c949392919061374c565b604051602081830303815290604052906001600160e01b0319166020820180516001600160e01b038381831617835250505050604051806060016040528060328152602001613b27603291396001600160a01b0388169190612b6c565b9050600081806020019051810190612a919190613496565b6001600160e01b031916630a85bd0160e11b1492505050949350505050565b6000610fff8383612b7b565b6000610fff8383612b93565b600061208184846001600160a01b038516612cb0565b612ae88383612ccd565b612af560008484846129df565b61090d5760405162461bcd60e51b81526004016107d790613824565b6000818152600183016020526040812054612b58575081546001818101845560008481526020808220909301849055845484825282860190935260409020919091556106d7565b5060006106d7565b6000610fff8383612de5565b60606120818484600085612e02565b60008181526001830160205260408120541515610fff565b60008181526001830160205260408120548015612ca6576000612bb7600183613a51565b8554909150600090612bcb90600190613a51565b9050818114612c4c576000866000018281548110612bf957634e487b7160e01b600052603260045260246000fd5b9060005260206000200154905080876000018481548110612c2a57634e487b7160e01b600052603260045260246000fd5b6000918252602080832090910192909255918252600188019052604090208390555b8554869080612c6b57634e487b7160e01b600052603160045260246000fd5b6001900381819060005260206000200160009055905585600101600086815260200190815260200160002060009055600193505050506106d7565b60009150506106d7565b60008281526002840160205260408120829055612081848461286a565b6001600160a01b038216612d235760405162461bcd60e51b815260206004820181905260248201527f4552433732313a206d696e7420746f20746865207a65726f206164647265737360448201526064016107d7565b612d2c81611e49565b15612d795760405162461bcd60e51b815260206004820152601c60248201527f4552433732313a20746f6b656e20616c7265616479206d696e7465640000000060448201526064016107d7565b6001600160a01b0382166000908152600160205260409020612d9b908261286a565b50612da860028284612ac8565b5060405181906001600160a01b038416906000907fddf252ad1be2c89b69c2b068fc378daa952ba7f163c4a11628f55a4df523b3ef908290a45050565b60008181526002830160205260408120819055610fff8383612abc565b606082471015612e635760405162461bcd60e51b815260206004820152602660248201527f416464726573733a20696e73756666696369656e742062616c616e636520666f6044820152651c8818d85b1b60d21b60648201526084016107d7565b843b612eb15760405162461bcd60e51b815260206004820152601d60248201527f416464726573733a2063616c6c20746f206e6f6e2d636f6e747261637400000060448201526064016107d7565b600080866001600160a01b03168587604051612ecd9190613730565b60006040518083038185875af1925050503d8060008114612f0a576040519150601f19603f3d011682016040523d82523d6000602084013e612f0f565b606091505b5091509150612f1f828286612f2a565b979650505050505050565b60608315612f39575081610fff565b825115612f495782518084602001fd5b8160405162461bcd60e51b81526004016107d791906137c9565b828054612f6f90613a94565b90600052602060002090601f016020900481019282612f915760008555612fd7565b82601f10612faa57805160ff1916838001178555612fd7565b82800160010185558215612fd7579182015b82811115612fd7578251825591602001919060010190612fbc565b50612fe392915061301d565b5090565b508054612ff390613a94565b6000825580601f10613003575050565b601f016020900490600052602060002090810190611d9091905b5b80821115612fe3576000815560010161301e565b600067ffffffffffffffff8084111561304d5761304d613afa565b604051601f8501601f19908116603f0116810190828211818310171561307557613075613afa565b8160405280935085815286868601111561308e57600080fd5b858560208301376000602087830101525050509392505050565b80356001600160a01b03811681146130bf57600080fd5b919050565b600082601f8301126130d4578081fd5b610fff83833560208501613032565b6000606082840312156130f4578081fd5b6040516060810181811067ffffffffffffffff8211171561311757613117613afa565b6040529050806131278484613154565b81526131368460208501613154565b60208201526131488460408501613154565b60408201525092915050565b600060208284031215613165578081fd5b6040516020810181811067ffffffffffffffff8211171561318857613188613afa565b6040529135825250919050565b6000608082840312156131a6578081fd5b6131ae613a28565b905081358152602082013560ff811681146131c857600080fd5b80602083015250604082013560408201526060820135606082015292915050565b6000608082840312156131fa578081fd5b613202613a28565b9050813567ffffffffffffffff8082111561321c57600080fd5b613228858386016130c4565b8352602084013591508082111561323e57600080fd5b5061324b848285016130c4565b602083015250604082013560408201526060820135606082015292915050565b60006020828403121561327c578081fd5b610fff826130a8565b60008060408385031215613297578081fd5b6132a0836130a8565b91506132ae602084016130a8565b90509250929050565b6000806000606084860312156132cb578081fd5b6132d4846130a8565b92506132e2602085016130a8565b9150604084013590509250925092565b60008060008060808587031215613307578081fd5b613310856130a8565b935061331e602086016130a8565b925060408501359150606085013567ffffffffffffffff811115613340578182fd5b8501601f81018713613350578182fd5b61335f87823560208401613032565b91505092959194509250565b6000806040838503121561337d578182fd5b613386836130a8565b91506020830135801515811461339a578182fd5b809150509250929050565b60008060008061012085870312156133bb578182fd5b6133c4856130a8565b9350602085013567ffffffffffffffff8111156133df578283fd5b6133eb878288016131e9565b9350506133fb86604087016130e3565b915061340a8660a08701613195565b905092959194509250565b60008060408385031215613427578182fd5b613430836130a8565b946020939093013593505050565b600080600060c08486031215613452578081fd5b61345b846130a8565b9250602084013591506134718560408601613195565b90509250925092565b60006020828403121561348b578081fd5b8135610fff81613b10565b6000602082840312156134a7578081fd5b8151610fff81613b10565b600080608083850312156134c4578182fd5b823567ffffffffffffffff8111156134da578283fd5b6134e6858286016131e9565b9250506132ae84602085016130e3565b600060208284031215613507578081fd5b5035919050565b60008060408385031215613520578182fd5b823591506132ae602084016130a8565b600080600060408486031215613544578081fd5b83359250602084013567ffffffffffffffff80821115613562578283fd5b818601915086601f830112613575578283fd5b813581811115613583578384fd5b876020828501011115613594578384fd5b6020830194508093505050509250925092565b60008082840360608112156135ba578283fd5b833592506040601f19820112156135cf578182fd5b506040516040810181811067ffffffffffffffff821117156135f3576135f3613afa565b80604052506020840135815261360b604085016130a8565b6020820152809150509250929050565b60008082840360c081121561362e578283fd5b8335925060a0601f1982011215613643578182fd5b5060405160a0810181811067ffffffffffffffff8211171561366757613667613afa565b80604052506020840135815261367f604085016130a8565b6020820152613690606085016130a8565b60408201526136a1608085016130a8565b60608201526136b38560a08601613154565b6080820152809150509250929050565b600081518084526136db816020860160208601613a68565b601f01601f19169290920160200192915050565b805182526020808201516001600160a01b03908116918401919091526040808301518216908401526060808301519091169083015260809081015151910152565b60008251613742818460208701613a68565b9190910192915050565b6001600160a01b038581168252841660208201526040810183905260806060820181905260009061377f908301846136c3565b9695505050505050565b6001600160a01b03841681526040602082018190528101829052818360608301376000818301606090810191909152601f909201601f1916010192915050565b602081526000610fff60208301846136c3565b60208082526028908201527f4d656469613a20746f6b656e2077697468207468617420696420646f6573206e6040820152671bdd08195e1a5cdd60c21b606082015260800190565b60208082526032908201527f4552433732313a207472616e7366657220746f206e6f6e20455243373231526560408201527131b2b4bb32b91034b6b83632b6b2b73a32b960711b606082015260800190565b6020808252601d908201527f4d656469613a204f6e6c7920617070726f766564206f72206f776e6572000000604082015260600190565b6020808252818101527f4f776e61626c653a2063616c6c6572206973206e6f7420746865206f776e6572604082015260600190565b60208082526031908201527f4552433732313a207472616e736665722063616c6c6572206973206e6f74206f6040820152701ddb995c881b9bdc88185c1c1c9bdd9959607a1b606082015260800190565b60208082526018908201527f4d656469613a206e6f6e6578697374656e7420746f6b656e0000000000000000604082015260600190565b6020808252601f908201527f5265656e7472616e637947756172643a207265656e7472616e742063616c6c00604082015260600190565b60208082526026908201527f4d656469613a2073706563696669656420757269206d757374206265206e6f6e6040820152652d656d70747960d01b606082015260800190565b82815260c08101610fff60208301846136ef565b83815260e08101613a0f60208301856136ef565b6001600160a01b039290921660c0919091015292915050565b6040516080810167ffffffffffffffff81118282101715613a4b57613a4b613afa565b60405290565b600082821015613a6357613a63613ae4565b500390565b60005b83811015613a83578181015183820152602001613a6b565b83811115611ba65750506000910152565b600181811c90821680613aa857607f821691505b60208210811415610cd457634e487b7160e01b600052602260045260246000fd5b6000600019821415613add57613add613ae4565b5060010190565b634e487b7160e01b600052601160045260246000fd5b634e487b7160e01b600052604160045260246000fd5b6001600160e01b031981168114611d9057600080fdfe4552433732313a207472616e7366657220746f206e6f6e20455243373231526563656976657220696d706c656d656e7465724552433732313a206f776e657220717565727920666f72206e6f6e6578697374656e7420746f6b656ea26469706673582212200d5680613d9314d88765dea34d7e34a09e28c5f712be3401d998195410c0786b64736f6c63430008040033",
  "linkReferences": {},
  "deployedLinkReferences": {}
}