{
  "_format": "hh-sol-artifact-1",
  "contractName": "PausableToken",
  "sourceName": "contracts/ZooToken.sol",
  "abi": [
    {
      "constant": false,
      "inputs": [
        {
          "name": "_spender",
          "type": "address"
        },
        {
          "name": "_value",
          "type": "uint256"
        }
      ],
      "name": "approve",
      "outputs": [
        {
          "name": "",
          "type": "bool"
        }
      ],
      "payable": false,
      "stateMutability": "nonpayable",
      "type": "function"
    },
    {
      "constant": true,
      "inputs": [],
      "name": "totalSupply",
      "outputs": [
        {
          "name": "",
          "type": "uint256"
        }
      ],
      "payable": false,
      "stateMutability": "view",
      "type": "function"
    },
    {
      "constant": false,
      "inputs": [
        {
          "name": "_from",
          "type": "address"
        },
        {
          "name": "_to",
          "type": "address"
        },
        {
          "name": "_value",
          "type": "uint256"
        }
      ],
      "name": "transferFrom",
      "outputs": [
        {
          "name": "",
          "type": "bool"
        }
      ],
      "payable": false,
      "stateMutability": "nonpayable",
      "type": "function"
    },
    {
      "constant": false,
      "inputs": [],
      "name": "unpause",
      "outputs": [],
      "payable": false,
      "stateMutability": "nonpayable",
      "type": "function"
    },
    {
      "constant": true,
      "inputs": [],
      "name": "paused",
      "outputs": [
        {
          "name": "",
          "type": "bool"
        }
      ],
      "payable": false,
      "stateMutability": "view",
      "type": "function"
    },
    {
      "constant": false,
      "inputs": [
        {
          "name": "_spender",
          "type": "address"
        },
        {
          "name": "_subtractedValue",
          "type": "uint256"
        }
      ],
      "name": "decreaseApproval",
      "outputs": [
        {
          "name": "success",
          "type": "bool"
        }
      ],
      "payable": false,
      "stateMutability": "nonpayable",
      "type": "function"
    },
    {
      "constant": true,
      "inputs": [
        {
          "name": "_owner",
          "type": "address"
        }
      ],
      "name": "balanceOf",
      "outputs": [
        {
          "name": "balance",
          "type": "uint256"
        }
      ],
      "payable": false,
      "stateMutability": "view",
      "type": "function"
    },
    {
      "constant": false,
      "inputs": [
        {
          "name": "listAddress",
          "type": "address"
        },
        {
          "name": "isBlackListed",
          "type": "bool"
        }
      ],
      "name": "blackListAddress",
      "outputs": [
        {
          "name": "success",
          "type": "bool"
        }
      ],
      "payable": false,
      "stateMutability": "nonpayable",
      "type": "function"
    },
    {
      "constant": false,
      "inputs": [],
      "name": "pause",
      "outputs": [],
      "payable": false,
      "stateMutability": "nonpayable",
      "type": "function"
    },
    {
      "constant": true,
      "inputs": [],
      "name": "owner",
      "outputs": [
        {
          "name": "",
          "type": "address"
        }
      ],
      "payable": false,
      "stateMutability": "view",
      "type": "function"
    },
    {
      "constant": false,
      "inputs": [
        {
          "name": "_to",
          "type": "address"
        },
        {
          "name": "_value",
          "type": "uint256"
        }
      ],
      "name": "transfer",
      "outputs": [
        {
          "name": "",
          "type": "bool"
        }
      ],
      "payable": false,
      "stateMutability": "nonpayable",
      "type": "function"
    },
    {
      "constant": false,
      "inputs": [
        {
          "name": "_spender",
          "type": "address"
        },
        {
          "name": "_addedValue",
          "type": "uint256"
        }
      ],
      "name": "increaseApproval",
      "outputs": [
        {
          "name": "success",
          "type": "bool"
        }
      ],
      "payable": false,
      "stateMutability": "nonpayable",
      "type": "function"
    },
    {
      "constant": true,
      "inputs": [
        {
          "name": "_owner",
          "type": "address"
        },
        {
          "name": "_spender",
          "type": "address"
        }
      ],
      "name": "allowance",
      "outputs": [
        {
          "name": "",
          "type": "uint256"
        }
      ],
      "payable": false,
      "stateMutability": "view",
      "type": "function"
    },
    {
      "constant": false,
      "inputs": [
        {
          "name": "newOwner",
          "type": "address"
        }
      ],
      "name": "transferOwnership",
      "outputs": [],
      "payable": false,
      "stateMutability": "nonpayable",
      "type": "function"
    },
    {
      "anonymous": false,
      "inputs": [],
      "name": "Pause",
      "type": "event"
    },
    {
      "anonymous": false,
      "inputs": [],
      "name": "Unpause",
      "type": "event"
    },
    {
      "anonymous": false,
      "inputs": [
        {
          "indexed": true,
          "name": "previousOwner",
          "type": "address"
        },
        {
          "indexed": true,
          "name": "newOwner",
          "type": "address"
        }
      ],
      "name": "OwnershipTransferred",
      "type": "event"
    },
    {
      "anonymous": false,
      "inputs": [
        {
          "indexed": true,
          "name": "blackListed",
          "type": "address"
        },
        {
          "indexed": false,
          "name": "value",
          "type": "bool"
        }
      ],
      "name": "Blacklist",
      "type": "event"
    },
    {
      "anonymous": false,
      "inputs": [
        {
          "indexed": true,
          "name": "owner",
          "type": "address"
        },
        {
          "indexed": true,
          "name": "spender",
          "type": "address"
        },
        {
          "indexed": false,
          "name": "value",
          "type": "uint256"
        }
      ],
      "name": "Approval",
      "type": "event"
    },
    {
      "anonymous": false,
      "inputs": [
        {
          "indexed": true,
          "name": "from",
          "type": "address"
        },
        {
          "indexed": true,
          "name": "to",
          "type": "address"
        },
        {
          "indexed": false,
          "name": "value",
          "type": "uint256"
        }
      ],
      "name": "Transfer",
      "type": "event"
    }
  ],
  "bytecode": "0x60806040526004805460a060020a60ff021916905534801561002057600080fd5b50610b1d806100306000396000f3006080604052600436106100cf5763ffffffff7c0100000000000000000000000000000000000000000000000000000000600035041663095ea7b381146100d457806318160ddd1461010c57806323b872dd146101335780633f4ba83a1461015d5780635c975abb14610174578063661884631461018957806370a08231146101ad578063794be707146101ce5780638456cb59146101f45780638da5cb5b14610209578063a9059cbb1461023a578063d73dd6231461025e578063dd62ed3e14610282578063f2fde38b146102a9575b600080fd5b3480156100e057600080fd5b506100f8600160a060020a03600435166024356102ca565b604080519115158252519081900360200190f35b34801561011857600080fd5b506101216102f5565b60408051918252519081900360200190f35b34801561013f57600080fd5b506100f8600160a060020a03600435811690602435166044356102fb565b34801561016957600080fd5b50610172610328565b005b34801561018057600080fd5b506100f86103a0565b34801561019557600080fd5b506100f8600160a060020a03600435166024356103b0565b3480156101b957600080fd5b50610121600160a060020a03600435166103d4565b3480156101da57600080fd5b506100f8600160a060020a036004351660243515156103ef565b34801561020057600080fd5b5061017261042a565b34801561021557600080fd5b5061021e6104a7565b60408051600160a060020a039092168252519081900360200190f35b34801561024657600080fd5b506100f8600160a060020a03600435166024356104b6565b34801561026a57600080fd5b506100f8600160a060020a03600435166024356104da565b34801561028e57600080fd5b50610121600160a060020a03600435811690602435166104fe565b3480156102b557600080fd5b50610172600160a060020a0360043516610529565b60045460009060a060020a900460ff16156102e457600080fd5b6102ee83836105be565b9392505050565b60005481565b60045460009060a060020a900460ff161561031557600080fd5b610320848484610624565b949350505050565b600454600160a060020a0316331461033f57600080fd5b60045460a060020a900460ff16151561035757600080fd5b6004805474ff0000000000000000000000000000000000000000191690556040517f7805862f689e2f13df9f062ff482ad3ad112aca9e0847911ed832e158c525b3390600090a1565b60045460a060020a900460ff1681565b60045460009060a060020a900460ff16156103ca57600080fd5b6102ee83836107b8565b600160a060020a031660009081526003602052604090205490565b60045460009060a060020a900460ff161561040957600080fd5b600454600160a060020a0316331461042057600080fd5b6102ee83836108a8565b600454600160a060020a0316331461044157600080fd5b60045460a060020a900460ff161561045857600080fd5b6004805474ff0000000000000000000000000000000000000000191660a060020a1790556040517f6985a02210a168e66602d3235cb6db0e70f92b3ba4d376a33c0f3d9434bff62590600090a1565b600454600160a060020a031681565b60045460009060a060020a900460ff16156104d057600080fd5b6102ee8383610939565b60045460009060a060020a900460ff16156104f457600080fd5b6102ee8383610a37565b600160a060020a03918216600090815260016020908152604080832093909416825291909152205490565b600454600160a060020a0316331461054057600080fd5b600160a060020a038116151561055557600080fd5b600454604051600160a060020a038084169216907f8be0079c531659141344cd1fd0a4f28419497f9722a3daafe3b4186f6b6457e090600090a36004805473ffffffffffffffffffffffffffffffffffffffff1916600160a060020a0392909216919091179055565b336000818152600160209081526040808320600160a060020a038716808552908352818420869055815186815291519394909390927f8c5be1e5ebec7d5bd14f71427d1e84f3dd0314c0f7b2291e5b200ac8c7c3b925928290030190a350600192915050565b3360009081526002602052604081205460ff161561064157600080fd5b600160a060020a038316151561065657600080fd5b600160a060020a03841660009081526003602052604090205482111561067b57600080fd5b600160a060020a03841660009081526001602090815260408083203384529091529020548211156106ab57600080fd5b600160a060020a0384166000908152600360205260409020546106d4908363ffffffff610ad016565b600160a060020a038086166000908152600360205260408082209390935590851681522054610709908363ffffffff610ae216565b600160a060020a03808516600090815260036020908152604080832094909455918716815260018252828120338252909152205461074d908363ffffffff610ad016565b600160a060020a03808616600081815260016020908152604080832033845282529182902094909455805186815290519287169391927fddf252ad1be2c89b69c2b068fc378daa952ba7f163c4a11628f55a4df523b3ef929181900390910190a35060019392505050565b336000908152600160209081526040808320600160a060020a03861684529091528120548083111561080d57336000908152600160209081526040808320600160a060020a0388168452909152812055610842565b61081d818463ffffffff610ad016565b336000908152600160209081526040808320600160a060020a03891684529091529020555b336000818152600160209081526040808320600160a060020a0389168085529083529281902054815190815290519293927f8c5be1e5ebec7d5bd14f71427d1e84f3dd0314c0f7b2291e5b200ac8c7c3b925929181900390910190a35060019392505050565b600160a060020a03821660009081526002602052604081205460ff16151582151514156108d457600080fd5b600160a060020a038316600081815260026020908152604091829020805460ff1916861515908117909155825190815291517ff7e58a63a036e3a7ef7921f83b6ae47930cf5c293dd3bfe7a857c6863409046d9281900390910190a250600192915050565b3360009081526002602052604081205460ff161561095657600080fd5b600160a060020a038316151561096b57600080fd5b3360009081526003602052604090205482111561098757600080fd5b336000908152600360205260409020546109a7908363ffffffff610ad016565b3360009081526003602052604080822092909255600160a060020a038516815220546109d9908363ffffffff610ae216565b600160a060020a0384166000818152600360209081526040918290209390935580518581529051919233927fddf252ad1be2c89b69c2b068fc378daa952ba7f163c4a11628f55a4df523b3ef9281900390910190a350600192915050565b336000908152600160209081526040808320600160a060020a0386168452909152812054610a6b908363ffffffff610ae216565b336000818152600160209081526040808320600160a060020a0389168085529083529281902085905580519485525191937f8c5be1e5ebec7d5bd14f71427d1e84f3dd0314c0f7b2291e5b200ac8c7c3b925929081900390910190a350600192915050565b600082821115610adc57fe5b50900390565b6000828201838110156102ee57fe00a165627a7a723058205f84184c2d09c0785ef3f340924dc285cd0e6f0a265cae047a50dc87a69bbfff0029",
  "linkReferences": {},
  "deployedLinkReferences": {}
}