{
  "_format": "hh-sol-artifact-1",
  "contractName": "CryptoAnimalBase",
  "sourceName": "contracts/CryptoAnimal/CryptoAnimalBase.sol",
  "abi": [
    {
      "inputs": [
        {
          "internalType": "string",
          "name": "name_",
          "type": "string"
        },
        {
          "internalType": "string",
          "name": "symbol_",
          "type": "string"
        }
      ],
      "stateMutability": "nonpayable",
      "type": "constructor"
    },
    {
      "anonymous": false,
      "inputs": [
        {
          "indexed": true,
          "internalType": "address",
          "name": "owner",
          "type": "address"
        },
        {
          "indexed": true,
          "internalType": "address",
          "name": "approved",
          "type": "address"
        },
        {
          "indexed": true,
          "internalType": "uint256",
          "name": "tokenId",
          "type": "uint256"
        }
      ],
      "name": "Approval",
      "type": "event"
    },
    {
      "anonymous": false,
      "inputs": [
        {
          "indexed": true,
          "internalType": "address",
          "name": "owner",
          "type": "address"
        },
        {
          "indexed": true,
          "internalType": "address",
          "name": "operator",
          "type": "address"
        },
        {
          "indexed": false,
          "internalType": "bool",
          "name": "approved",
          "type": "bool"
        }
      ],
      "name": "ApprovalForAll",
      "type": "event"
    },
    {
      "anonymous": false,
      "inputs": [
        {
          "indexed": true,
          "internalType": "address",
          "name": "previousOwner",
          "type": "address"
        },
        {
          "indexed": true,
          "internalType": "address",
          "name": "newOwner",
          "type": "address"
        }
      ],
      "name": "OwnershipTransferred",
      "type": "event"
    },
    {
      "anonymous": false,
      "inputs": [
        {
          "indexed": true,
          "internalType": "address",
          "name": "from",
          "type": "address"
        },
        {
          "indexed": true,
          "internalType": "address",
          "name": "to",
          "type": "address"
        },
        {
          "indexed": true,
          "internalType": "uint256",
          "name": "tokenId",
          "type": "uint256"
        }
      ],
      "name": "Transfer",
      "type": "event"
    },
    {
      "inputs": [
        {
          "internalType": "uint256",
          "name": "",
          "type": "uint256"
        }
      ],
      "name": "animals",
      "outputs": [
        {
          "internalType": "bool",
          "name": "inBreedMarket",
          "type": "bool"
        },
        {
          "internalType": "uint256",
          "name": "matronId",
          "type": "uint256"
        },
        {
          "internalType": "uint256",
          "name": "sireId",
          "type": "uint256"
        },
        {
          "internalType": "uint256",
          "name": "breedPrice",
          "type": "uint256"
        },
        {
          "internalType": "uint256",
          "name": "price",
          "type": "uint256"
        },
        {
          "internalType": "uint256",
          "name": "generation",
          "type": "uint256"
        },
        {
          "internalType": "uint256",
          "name": "breedCount",
          "type": "uint256"
        },
        {
          "internalType": "uint256",
          "name": "dna",
          "type": "uint256"
        },
        {
          "internalType": "enum MarketStatus",
          "name": "inMarket",
          "type": "uint8"
        },
        {
          "components": [
            {
              "internalType": "uint256",
              "name": "eggTime",
              "type": "uint256"
            },
            {
              "internalType": "uint256",
              "name": "hatchTime",
              "type": "uint256"
            },
            {
              "internalType": "uint256",
              "name": "lastBreedTime",
              "type": "uint256"
            }
          ],
          "internalType": "struct AnimalTime",
          "name": "time",
          "type": "tuple"
        },
        {
          "internalType": "enum Specie",
          "name": "specie",
          "type": "uint8"
        }
      ],
      "stateMutability": "view",
      "type": "function"
    },
    {
      "inputs": [
        {
          "internalType": "address",
          "name": "to",
          "type": "address"
        },
        {
          "internalType": "uint256",
          "name": "tokenId",
          "type": "uint256"
        }
      ],
      "name": "approve",
      "outputs": [],
      "stateMutability": "nonpayable",
      "type": "function"
    },
    {
      "inputs": [
        {
          "internalType": "uint256",
          "name": "",
          "type": "uint256"
        }
      ],
      "name": "auctions",
      "outputs": [
        {
          "internalType": "address",
          "name": "highestBidder",
          "type": "address"
        },
        {
          "internalType": "uint256",
          "name": "endTime",
          "type": "uint256"
        },
        {
          "internalType": "uint256",
          "name": "highestBid",
          "type": "uint256"
        },
        {
          "internalType": "bool",
          "name": "ended",
          "type": "bool"
        }
      ],
      "stateMutability": "view",
      "type": "function"
    },
    {
      "inputs": [
        {
          "internalType": "address",
          "name": "owner",
          "type": "address"
        }
      ],
      "name": "balanceOf",
      "outputs": [
        {
          "internalType": "uint256",
          "name": "",
          "type": "uint256"
        }
      ],
      "stateMutability": "view",
      "type": "function"
    },
    {
      "inputs": [
        {
          "internalType": "uint256",
          "name": "",
          "type": "uint256"
        }
      ],
      "name": "coolDowns",
      "outputs": [
        {
          "internalType": "uint256",
          "name": "",
          "type": "uint256"
        }
      ],
      "stateMutability": "view",
      "type": "function"
    },
    {
      "inputs": [],
      "name": "feePercentage",
      "outputs": [
        {
          "internalType": "uint8",
          "name": "",
          "type": "uint8"
        }
      ],
      "stateMutability": "view",
      "type": "function"
    },
    {
      "inputs": [
        {
          "internalType": "uint256",
          "name": "tokenId",
          "type": "uint256"
        }
      ],
      "name": "getApproved",
      "outputs": [
        {
          "internalType": "address",
          "name": "",
          "type": "address"
        }
      ],
      "stateMutability": "view",
      "type": "function"
    },
    {
      "inputs": [],
      "name": "getCount",
      "outputs": [
        {
          "internalType": "uint256",
          "name": "count",
          "type": "uint256"
        }
      ],
      "stateMutability": "view",
      "type": "function"
    },
    {
      "inputs": [
        {
          "internalType": "uint256",
          "name": "price",
          "type": "uint256"
        }
      ],
      "name": "getFeeOf",
      "outputs": [
        {
          "internalType": "uint256",
          "name": "",
          "type": "uint256"
        }
      ],
      "stateMutability": "view",
      "type": "function"
    },
    {
      "inputs": [],
      "name": "hatchPrice",
      "outputs": [
        {
          "internalType": "uint256",
          "name": "",
          "type": "uint256"
        }
      ],
      "stateMutability": "view",
      "type": "function"
    },
    {
      "inputs": [],
      "name": "hatchReadyTime",
      "outputs": [
        {
          "internalType": "uint256",
          "name": "",
          "type": "uint256"
        }
      ],
      "stateMutability": "view",
      "type": "function"
    },
    {
      "inputs": [
        {
          "internalType": "address",
          "name": "owner",
          "type": "address"
        },
        {
          "internalType": "address",
          "name": "operator",
          "type": "address"
        }
      ],
      "name": "isApprovedForAll",
      "outputs": [
        {
          "internalType": "bool",
          "name": "",
          "type": "bool"
        }
      ],
      "stateMutability": "view",
      "type": "function"
    },
    {
      "inputs": [],
      "name": "mktsqWallet",
      "outputs": [
        {
          "internalType": "address",
          "name": "",
          "type": "address"
        }
      ],
      "stateMutability": "view",
      "type": "function"
    },
    {
      "inputs": [],
      "name": "name",
      "outputs": [
        {
          "internalType": "string",
          "name": "",
          "type": "string"
        }
      ],
      "stateMutability": "view",
      "type": "function"
    },
    {
      "inputs": [],
      "name": "owner",
      "outputs": [
        {
          "internalType": "address",
          "name": "",
          "type": "address"
        }
      ],
      "stateMutability": "view",
      "type": "function"
    },
    {
      "inputs": [
        {
          "internalType": "uint256",
          "name": "tokenId",
          "type": "uint256"
        }
      ],
      "name": "ownerOf",
      "outputs": [
        {
          "internalType": "address",
          "name": "",
          "type": "address"
        }
      ],
      "stateMutability": "view",
      "type": "function"
    },
    {
      "inputs": [],
      "name": "renounceOwnership",
      "outputs": [],
      "stateMutability": "nonpayable",
      "type": "function"
    },
    {
      "inputs": [
        {
          "internalType": "address",
          "name": "from",
          "type": "address"
        },
        {
          "internalType": "address",
          "name": "to",
          "type": "address"
        },
        {
          "internalType": "uint256",
          "name": "tokenId",
          "type": "uint256"
        }
      ],
      "name": "safeTransferFrom",
      "outputs": [],
      "stateMutability": "nonpayable",
      "type": "function"
    },
    {
      "inputs": [
        {
          "internalType": "address",
          "name": "from",
          "type": "address"
        },
        {
          "internalType": "address",
          "name": "to",
          "type": "address"
        },
        {
          "internalType": "uint256",
          "name": "tokenId",
          "type": "uint256"
        },
        {
          "internalType": "bytes",
          "name": "_data",
          "type": "bytes"
        }
      ],
      "name": "safeTransferFrom",
      "outputs": [],
      "stateMutability": "nonpayable",
      "type": "function"
    },
    {
      "inputs": [
        {
          "internalType": "address",
          "name": "operator",
          "type": "address"
        },
        {
          "internalType": "bool",
          "name": "approved",
          "type": "bool"
        }
      ],
      "name": "setApprovalForAll",
      "outputs": [],
      "stateMutability": "nonpayable",
      "type": "function"
    },
    {
      "inputs": [
        {
          "internalType": "bytes4",
          "name": "interfaceId",
          "type": "bytes4"
        }
      ],
      "name": "supportsInterface",
      "outputs": [
        {
          "internalType": "bool",
          "name": "",
          "type": "bool"
        }
      ],
      "stateMutability": "view",
      "type": "function"
    },
    {
      "inputs": [],
      "name": "symbol",
      "outputs": [
        {
          "internalType": "string",
          "name": "",
          "type": "string"
        }
      ],
      "stateMutability": "view",
      "type": "function"
    },
    {
      "inputs": [
        {
          "internalType": "uint256",
          "name": "tokenId",
          "type": "uint256"
        }
      ],
      "name": "tokenURI",
      "outputs": [
        {
          "internalType": "string",
          "name": "",
          "type": "string"
        }
      ],
      "stateMutability": "view",
      "type": "function"
    },
    {
      "inputs": [
        {
          "internalType": "address",
          "name": "from",
          "type": "address"
        },
        {
          "internalType": "address",
          "name": "to",
          "type": "address"
        },
        {
          "internalType": "uint256",
          "name": "tokenId",
          "type": "uint256"
        }
      ],
      "name": "transferFrom",
      "outputs": [],
      "stateMutability": "nonpayable",
      "type": "function"
    },
    {
      "inputs": [
        {
          "internalType": "address",
          "name": "newOwner",
          "type": "address"
        }
      ],
      "name": "transferOwnership",
      "outputs": [],
      "stateMutability": "nonpayable",
      "type": "function"
    },
    {
      "stateMutability": "payable",
      "type": "receive"
    }
  ],
  "bytecode": "0x61012060405261384060809081526201518060a0526203f48060c05262093a8060e05262278d00610100526200003a90600790600562000152565b506201fa4060085567016345785d8a0000600955600a80546001600160a81b03191660031790553480156200006e57600080fd5b5060405162001c4138038062001c418339810160408190526200009191620002f0565b815182908290620000aa906000906020850190620001a9565b508051620000c0906001906020840190620001a9565b505050620000dd620000d7620000fc60201b60201c565b62000100565b5050600a8054610100600160a81b0319163361010002179055620003aa565b3390565b600680546001600160a01b038381166001600160a01b0319831681179093556040519116919082907f8be0079c531659141344cd1fd0a4f28419497f9722a3daafe3b4186f6b6457e090600090a35050565b82805482825590600052602060002090810192821562000197579160200282015b8281111562000197578251829062ffffff1690559160200191906001019062000173565b50620001a592915062000226565b5090565b828054620001b79062000357565b90600052602060002090601f016020900481019282620001db576000855562000197565b82601f10620001f657805160ff191683800117855562000197565b8280016001018555821562000197579182015b828111156200019757825182559160200191906001019062000209565b5b80821115620001a5576000815560010162000227565b600082601f8301126200024e578081fd5b81516001600160401b03808211156200026b576200026b62000394565b604051601f8301601f19908116603f0116810190828211818310171562000296576200029662000394565b81604052838152602092508683858801011115620002b2578485fd5b8491505b83821015620002d55785820183015181830184015290820190620002b6565b83821115620002e657848385830101525b9695505050505050565b6000806040838503121562000303578182fd5b82516001600160401b03808211156200031a578384fd5b62000328868387016200023d565b935060208501519150808211156200033e578283fd5b506200034d858286016200023d565b9150509250929050565b600181811c908216806200036c57607f821691505b602082108114156200038e57634e487b7160e01b600052602260045260246000fd5b50919050565b634e487b7160e01b600052604160045260246000fd5b61188780620003ba6000396000f3fe60806040526004361061016a5760003560e01c80638da5cb5b116100d1578063adc0dbbf1161008a578063c87b56dd11610064578063c87b56dd1461049c578063d55a5a40146104bc578063e985e9c5146104e1578063f2fde38b1461052a57600080fd5b8063adc0dbbf1461043c578063b88d4fde1461045c578063c2ed01301461047c57600080fd5b80638da5cb5b1461037157806395d89b411461038f578063998dd3ca146103a4578063a001ecdd146103db578063a22cb46514610407578063a87d942c1461042757600080fd5b806342842e0e1161012357806342842e0e1461026b5780635424cd6b1461028b578063571a26a0146102a15780636352211e1461031c57806370a082311461033c578063715018a61461035c57600080fd5b806301ffc9a71461017657806306fdde03146101ab578063081812fc146101cd578063095ea7b31461020557806318ecf3651461022757806323b872dd1461024b57600080fd5b3661017157005b600080fd5b34801561018257600080fd5b506101966101913660046114ae565b61054a565b60405190151581526020015b60405180910390f35b3480156101b757600080fd5b506101c061059c565b6040516101a29190611635565b3480156101d957600080fd5b506101ed6101e83660046114e6565b61062e565b6040516001600160a01b0390911681526020016101a2565b34801561021157600080fd5b50610225610220366004611485565b6106c8565b005b34801561023357600080fd5b5061023d60095481565b6040519081526020016101a2565b34801561025757600080fd5b5061022561026636600461133b565b6107de565b34801561027757600080fd5b5061022561028636600461133b565b61080f565b34801561029757600080fd5b5061023d60085481565b3480156102ad57600080fd5b506102f06102bc3660046114e6565b600c6020526000908152604090208054600182015460028301546003909301546001600160a01b0390921692909160ff1684565b604080516001600160a01b039095168552602085019390935291830152151560608201526080016101a2565b34801561032857600080fd5b506101ed6103373660046114e6565b61082a565b34801561034857600080fd5b5061023d6103573660046112ef565b6108a1565b34801561036857600080fd5b50610225610928565b34801561037d57600080fd5b506006546001600160a01b03166101ed565b34801561039b57600080fd5b506101c061098e565b3480156103b057600080fd5b506103c46103bf3660046114e6565b61099d565b6040516101a29b9a999897969594939291906115aa565b3480156103e757600080fd5b50600a546103f59060ff1681565b60405160ff90911681526020016101a2565b34801561041357600080fd5b5061022561042236600461144b565b610a31565b34801561043357600080fd5b50600b5461023d565b34801561044857600080fd5b5061023d6104573660046114e6565b610af6565b34801561046857600080fd5b50610225610477366004611376565b610b17565b34801561048857600080fd5b5061023d6104973660046114e6565b610b4f565b3480156104a857600080fd5b506101c06104b73660046114e6565b610b6f565b3480156104c857600080fd5b50600a546101ed9061010090046001600160a01b031681565b3480156104ed57600080fd5b506101966104fc366004611309565b6001600160a01b03918216600090815260056020908152604080832093909416825291909152205460ff1690565b34801561053657600080fd5b506102256105453660046112ef565b610c57565b60006001600160e01b031982166380ac58cd60e01b148061057b57506001600160e01b03198216635b5e139f60e01b145b8061059657506301ffc9a760e01b6001600160e01b03198316145b92915050565b6060600080546105ab90611779565b80601f01602080910402602001604051908101604052809291908181526020018280546105d790611779565b80156106245780601f106105f957610100808354040283529160200191610624565b820191906000526020600020905b81548152906001019060200180831161060757829003601f168201915b5050505050905090565b6000818152600260205260408120546001600160a01b03166106ac5760405162461bcd60e51b815260206004820152602c60248201527f4552433732313a20617070726f76656420717565727920666f72206e6f6e657860448201526b34b9ba32b73a103a37b5b2b760a11b60648201526084015b60405180910390fd5b506000908152600460205260409020546001600160a01b031690565b60006106d38261082a565b9050806001600160a01b0316836001600160a01b031614156107415760405162461bcd60e51b815260206004820152602160248201527f4552433732313a20617070726f76616c20746f2063757272656e74206f776e656044820152603960f91b60648201526084016106a3565b336001600160a01b038216148061075d575061075d81336104fc565b6107cf5760405162461bcd60e51b815260206004820152603860248201527f4552433732313a20617070726f76652063616c6c6572206973206e6f74206f7760448201527f6e6572206e6f7220617070726f76656420666f7220616c6c000000000000000060648201526084016106a3565b6107d98383610d22565b505050565b6107e83382610d90565b6108045760405162461bcd60e51b81526004016106a39061169a565b6107d9838383610e87565b6107d983838360405180602001604052806000815250610b17565b6000818152600260205260408120546001600160a01b0316806105965760405162461bcd60e51b815260206004820152602960248201527f4552433732313a206f776e657220717565727920666f72206e6f6e657869737460448201526832b73a103a37b5b2b760b91b60648201526084016106a3565b60006001600160a01b03821661090c5760405162461bcd60e51b815260206004820152602a60248201527f4552433732313a2062616c616e636520717565727920666f7220746865207a65604482015269726f206164647265737360b01b60648201526084016106a3565b506001600160a01b031660009081526003602052604090205490565b6006546001600160a01b031633146109825760405162461bcd60e51b815260206004820181905260248201527f4f776e61626c653a2063616c6c6572206973206e6f7420746865206f776e657260448201526064016106a3565b61098c6000611027565b565b6060600180546105ab90611779565b600b81815481106109ad57600080fd5b6000918252602091829020600d909102018054600182015460028301546003840154600485015460058601546006870154600788015460088901546040805160608101825260098c01548152600a8c01549c81019c909c52600b8b0154908c0152600c9099015460ff9889169b50969995989497939692959194909390811692168b565b6001600160a01b038216331415610a8a5760405162461bcd60e51b815260206004820152601960248201527f4552433732313a20617070726f766520746f2063616c6c65720000000000000060448201526064016106a3565b3360008181526005602090815260408083206001600160a01b03871680855290835292819020805460ff191686151590811790915590519081529192917f17307eab39ab6107e8899845ad3d59bd9653f200f220920489ca2b5937696c31910160405180910390a35050565b60078181548110610b0657600080fd5b600091825260209091200154905081565b610b213383610d90565b610b3d5760405162461bcd60e51b81526004016106a39061169a565b610b4984848484611079565b50505050565b600a54600090606490610b659060ff1684611717565b6105969190611703565b6000818152600260205260409020546060906001600160a01b0316610bee5760405162461bcd60e51b815260206004820152602f60248201527f4552433732314d657461646174613a2055524920717565727920666f72206e6f60448201526e3732bc34b9ba32b73a103a37b5b2b760891b60648201526084016106a3565b6000610c0560408051602081019091526000815290565b90506000815111610c255760405180602001604052806000815250610c50565b80610c2f846110ac565b604051602001610c4092919061153e565b6040516020818303038152906040525b9392505050565b6006546001600160a01b03163314610cb15760405162461bcd60e51b815260206004820181905260248201527f4f776e61626c653a2063616c6c6572206973206e6f7420746865206f776e657260448201526064016106a3565b6001600160a01b038116610d165760405162461bcd60e51b815260206004820152602660248201527f4f776e61626c653a206e6577206f776e657220697320746865207a65726f206160448201526564647265737360d01b60648201526084016106a3565b610d1f81611027565b50565b600081815260046020526040902080546001600160a01b0319166001600160a01b0384169081179091558190610d578261082a565b6001600160a01b03167f8c5be1e5ebec7d5bd14f71427d1e84f3dd0314c0f7b2291e5b200ac8c7c3b92560405160405180910390a45050565b6000818152600260205260408120546001600160a01b0316610e095760405162461bcd60e51b815260206004820152602c60248201527f4552433732313a206f70657261746f7220717565727920666f72206e6f6e657860448201526b34b9ba32b73a103a37b5b2b760a11b60648201526084016106a3565b6000610e148361082a565b9050806001600160a01b0316846001600160a01b03161480610e4f5750836001600160a01b0316610e448461062e565b6001600160a01b0316145b80610e7f57506001600160a01b0380821660009081526005602090815260408083209388168352929052205460ff165b949350505050565b826001600160a01b0316610e9a8261082a565b6001600160a01b031614610f025760405162461bcd60e51b815260206004820152602960248201527f4552433732313a207472616e73666572206f6620746f6b656e2074686174206960448201526839903737ba1037bbb760b91b60648201526084016106a3565b6001600160a01b038216610f645760405162461bcd60e51b8152602060048201526024808201527f4552433732313a207472616e7366657220746f20746865207a65726f206164646044820152637265737360e01b60648201526084016106a3565b610f6f600082610d22565b6001600160a01b0383166000908152600360205260408120805460019290610f98908490611736565b90915550506001600160a01b0382166000908152600360205260408120805460019290610fc69084906116eb565b909155505060008181526002602052604080822080546001600160a01b0319166001600160a01b0386811691821790925591518493918716917fddf252ad1be2c89b69c2b068fc378daa952ba7f163c4a11628f55a4df523b3ef91a4505050565b600680546001600160a01b038381166001600160a01b0319831681179093556040519116919082907f8be0079c531659141344cd1fd0a4f28419497f9722a3daafe3b4186f6b6457e090600090a35050565b611084848484610e87565b611090848484846111c6565b610b495760405162461bcd60e51b81526004016106a390611648565b6060816110d05750506040805180820190915260018152600360fc1b602082015290565b8160005b81156110fa57806110e4816117b4565b91506110f39050600a83611703565b91506110d4565b60008167ffffffffffffffff81111561112357634e487b7160e01b600052604160045260246000fd5b6040519080825280601f01601f19166020018201604052801561114d576020820181803683370190505b5090505b8415610e7f57611162600183611736565b915061116f600a866117cf565b61117a9060306116eb565b60f81b81838151811061119d57634e487b7160e01b600052603260045260246000fd5b60200101906001600160f81b031916908160001a9053506111bf600a86611703565b9450611151565b60006001600160a01b0384163b156112c857604051630a85bd0160e11b81526001600160a01b0385169063150b7a029061120a90339089908890889060040161156d565b602060405180830381600087803b15801561122457600080fd5b505af1925050508015611254575060408051601f3d908101601f19168201909252611251918101906114ca565b60015b6112ae573d808015611282576040519150601f19603f3d011682016040523d82523d6000602084013e611287565b606091505b5080516112a65760405162461bcd60e51b81526004016106a390611648565b805181602001fd5b6001600160e01b031916630a85bd0160e11b149050610e7f565b506001949350505050565b80356001600160a01b03811681146112ea57600080fd5b919050565b600060208284031215611300578081fd5b610c50826112d3565b6000806040838503121561131b578081fd5b611324836112d3565b9150611332602084016112d3565b90509250929050565b60008060006060848603121561134f578081fd5b611358846112d3565b9250611366602085016112d3565b9150604084013590509250925092565b6000806000806080858703121561138b578081fd5b611394856112d3565b93506113a2602086016112d3565b925060408501359150606085013567ffffffffffffffff808211156113c5578283fd5b818701915087601f8301126113d8578283fd5b8135818111156113ea576113ea611825565b604051601f8201601f19908116603f0116810190838211818310171561141257611412611825565b816040528281528a602084870101111561142a578586fd5b82602086016020830137918201602001949094529598949750929550505050565b6000806040838503121561145d578182fd5b611466836112d3565b91506020830135801515811461147a578182fd5b809150509250929050565b60008060408385031215611497578182fd5b6114a0836112d3565b946020939093013593505050565b6000602082840312156114bf578081fd5b8135610c508161183b565b6000602082840312156114db578081fd5b8151610c508161183b565b6000602082840312156114f7578081fd5b5035919050565b6000815180845261151681602086016020860161174d565b601f01601f19169290920160200192915050565b6011811061153a5761153a61180f565b9052565b6000835161155081846020880161174d565b83519083019061156481836020880161174d565b01949350505050565b6001600160a01b03858116825284166020820152604081018390526080606082018190526000906115a0908301846114fe565b9695505050505050565b60006101a0820190508c151582528b60208301528a60408301528960608301528860808301528760a08301528660c08301528560e0830152600385106115f2576115f261180f565b8461010083015283516101208301526020840151610140830152604084015161016083015261162561018083018461152a565b9c9b505050505050505050505050565b602081526000610c5060208301846114fe565b60208082526032908201527f4552433732313a207472616e7366657220746f206e6f6e20455243373231526560408201527131b2b4bb32b91034b6b83632b6b2b73a32b960711b606082015260800190565b60208082526031908201527f4552433732313a207472616e736665722063616c6c6572206973206e6f74206f6040820152701ddb995c881b9bdc88185c1c1c9bdd9959607a1b606082015260800190565b600082198211156116fe576116fe6117e3565b500190565b600082611712576117126117f9565b500490565b6000816000190483118215151615611731576117316117e3565b500290565b600082821015611748576117486117e3565b500390565b60005b83811015611768578181015183820152602001611750565b83811115610b495750506000910152565b600181811c9082168061178d57607f821691505b602082108114156117ae57634e487b7160e01b600052602260045260246000fd5b50919050565b60006000198214156117c8576117c86117e3565b5060010190565b6000826117de576117de6117f9565b500690565b634e487b7160e01b600052601160045260246000fd5b634e487b7160e01b600052601260045260246000fd5b634e487b7160e01b600052602160045260246000fd5b634e487b7160e01b600052604160045260246000fd5b6001600160e01b031981168114610d1f57600080fdfea2646970667358221220d1a2f4979efe994908773c7b3d6e820e2214ac8b09e0a4e7139152b28737f6b164736f6c63430008040033",
  "linkReferences": {},
  "deployedLinkReferences": {}
}