{
  "address": "0x4Dcb572d8cB14f07f85EDE038486b412Cf48E849",
  "abi": [
    {
      "anonymous": false,
      "inputs": [
        {
          "indexed": true,
          "internalType": "address",
          "name": "dropAddress",
          "type": "address"
        },
        {
          "indexed": false,
          "internalType": "string",
          "name": "title",
          "type": "string"
        },
        {
          "indexed": false,
          "internalType": "uint256",
          "name": "eggSupply",
          "type": "uint256"
        }
      ],
      "name": "AddDrop",
      "type": "event"
    },
    {
      "anonymous": false,
      "inputs": [
        {
          "indexed": true,
          "internalType": "address",
          "name": "from",
          "type": "address"
        },
        {
          "indexed": false,
          "internalType": "uint256",
          "name": "parentA",
          "type": "uint256"
        },
        {
          "indexed": false,
          "internalType": "uint256",
          "name": "parentB",
          "type": "uint256"
        },
        {
          "indexed": true,
          "internalType": "uint256",
          "name": "eggID",
          "type": "uint256"
        }
      ],
      "name": "Breed",
      "type": "event"
    },
    {
      "anonymous": false,
      "inputs": [
        {
          "indexed": true,
          "internalType": "address",
          "name": "from",
          "type": "address"
        },
        {
          "indexed": true,
          "internalType": "uint256",
          "name": "tokenID",
          "type": "uint256"
        }
      ],
      "name": "Burn",
      "type": "event"
    },
    {
      "anonymous": false,
      "inputs": [
        {
          "indexed": true,
          "internalType": "address",
          "name": "from",
          "type": "address"
        },
        {
          "indexed": true,
          "internalType": "uint256",
          "name": "eggID",
          "type": "uint256"
        }
      ],
      "name": "BuyEgg",
      "type": "event"
    },
    {
      "anonymous": false,
      "inputs": [
        {
          "indexed": true,
          "internalType": "address",
          "name": "from",
          "type": "address"
        },
        {
          "indexed": true,
          "internalType": "uint256",
          "name": "tokenID",
          "type": "uint256"
        },
        {
          "indexed": true,
          "internalType": "uint256",
          "name": "yields",
          "type": "uint256"
        }
      ],
      "name": "Free",
      "type": "event"
    },
    {
      "anonymous": false,
      "inputs": [
        {
          "indexed": true,
          "internalType": "address",
          "name": "from",
          "type": "address"
        },
        {
          "indexed": false,
          "internalType": "uint256",
          "name": "eggID",
          "type": "uint256"
        },
        {
          "indexed": true,
          "internalType": "uint256",
          "name": "tokenID",
          "type": "uint256"
        }
      ],
      "name": "Hatch",
      "type": "event"
    },
    {
      "anonymous": false,
      "inputs": [
        {
          "indexed": true,
          "internalType": "address",
          "name": "from",
          "type": "address"
        },
        {
          "indexed": true,
          "internalType": "uint256",
          "name": "tokenID",
          "type": "uint256"
        }
      ],
      "name": "Mint",
      "type": "event"
    },
    {
      "anonymous": false,
      "inputs": [
        {
          "indexed": true,
          "internalType": "address",
          "name": "previousOwner",
          "type": "address"
        },
        {
          "indexed": true,
          "internalType": "address",
          "name": "newOwner",
          "type": "address"
        }
      ],
      "name": "OwnershipTransferred",
      "type": "event"
    },
    {
      "anonymous": false,
      "inputs": [
        {
          "indexed": true,
          "internalType": "address",
          "name": "owner",
          "type": "address"
        },
        {
          "indexed": true,
          "internalType": "uint256",
          "name": "tokenID",
          "type": "uint256"
        },
        {
          "indexed": true,
          "internalType": "uint256",
          "name": "chainId",
          "type": "uint256"
        }
      ],
      "name": "Swap",
      "type": "event"
    },
    {
      "stateMutability": "payable",
      "type": "fallback"
    },
    {
      "inputs": [
        {
          "internalType": "address",
          "name": "dropAddress",
          "type": "address"
        }
      ],
      "name": "addDrop",
      "outputs": [
        {
          "internalType": "uint256",
          "name": "",
          "type": "uint256"
        }
      ],
      "stateMutability": "nonpayable",
      "type": "function"
    },
    {
      "inputs": [],
      "name": "bridge",
      "outputs": [
        {
          "internalType": "address",
          "name": "",
          "type": "address"
        }
      ],
      "stateMutability": "view",
      "type": "function"
    },
    {
      "inputs": [
        {
          "internalType": "uint256",
          "name": "dropID",
          "type": "uint256"
        },
        {
          "internalType": "uint256",
          "name": "quantity",
          "type": "uint256"
        }
      ],
      "name": "buyEggs",
      "outputs": [],
      "stateMutability": "nonpayable",
      "type": "function"
    },
    {
      "inputs": [
        {
          "internalType": "uint256",
          "name": "dropID",
          "type": "uint256"
        },
        {
          "internalType": "uint256",
          "name": "quantity",
          "type": "uint256"
        }
      ],
      "name": "buyEggsBNB",
      "outputs": [],
      "stateMutability": "payable",
      "type": "function"
    },
    {
      "inputs": [
        {
          "internalType": "address",
          "name": "_media",
          "type": "address"
        },
        {
          "internalType": "address",
          "name": "_zoo",
          "type": "address"
        },
        {
          "internalType": "address",
          "name": "_pair",
          "type": "address"
        },
        {
          "internalType": "address",
          "name": "_bridge",
          "type": "address"
        },
        {
          "internalType": "bool",
          "name": "_unlocked",
          "type": "bool"
        }
      ],
      "name": "configure",
      "outputs": [],
      "stateMutability": "nonpayable",
      "type": "function"
    },
    {
      "inputs": [
        {
          "internalType": "address",
          "name": "",
          "type": "address"
        }
      ],
      "name": "dropAddresses",
      "outputs": [
        {
          "internalType": "uint256",
          "name": "",
          "type": "uint256"
        }
      ],
      "stateMutability": "view",
      "type": "function"
    },
    {
      "inputs": [
        {
          "internalType": "uint256",
          "name": "",
          "type": "uint256"
        }
      ],
      "name": "drops",
      "outputs": [
        {
          "internalType": "address",
          "name": "",
          "type": "address"
        }
      ],
      "stateMutability": "view",
      "type": "function"
    },
    {
      "inputs": [
        {
          "internalType": "address",
          "name": "mediaV2",
          "type": "address"
        },
        {
          "internalType": "uint256",
          "name": "tokenID",
          "type": "uint256"
        },
        {
          "internalType": "uint256",
          "name": "dropID",
          "type": "uint256"
        }
      ],
      "name": "importEgg",
      "outputs": [
        {
          "components": [
            {
              "components": [
                {
                  "internalType": "string",
                  "name": "name",
                  "type": "string"
                },
                {
                  "internalType": "uint256",
                  "name": "probability",
                  "type": "uint256"
                },
                {
                  "internalType": "uint256",
                  "name": "yields",
                  "type": "uint256"
                },
                {
                  "internalType": "uint256",
                  "name": "boost",
                  "type": "uint256"
                }
              ],
              "internalType": "struct IZoo.Rarity",
              "name": "rarity",
              "type": "tuple"
            },
            {
              "internalType": "enum IZoo.Type",
              "name": "kind",
              "type": "uint8"
            },
            {
              "internalType": "string",
              "name": "name",
              "type": "string"
            },
            {
              "internalType": "uint256",
              "name": "id",
              "type": "uint256"
            },
            {
              "internalType": "uint256",
              "name": "timestamp",
              "type": "uint256"
            },
            {
              "internalType": "uint256",
              "name": "birthday",
              "type": "uint256"
            },
            {
              "internalType": "string",
              "name": "customName",
              "type": "string"
            },
            {
              "components": [
                {
                  "internalType": "string",
                  "name": "animalA",
                  "type": "string"
                },
                {
                  "internalType": "string",
                  "name": "animalB",
                  "type": "string"
                },
                {
                  "internalType": "uint256",
                  "name": "tokenA",
                  "type": "uint256"
                },
                {
                  "internalType": "uint256",
                  "name": "tokenB",
                  "type": "uint256"
                }
              ],
              "internalType": "struct IZoo.Parents",
              "name": "parents",
              "type": "tuple"
            },
            {
              "components": [
                {
                  "internalType": "uint256",
                  "name": "count",
                  "type": "uint256"
                },
                {
                  "internalType": "uint256",
                  "name": "timestamp",
                  "type": "uint256"
                }
              ],
              "internalType": "struct IZoo.Breed",
              "name": "breed",
              "type": "tuple"
            },
            {
              "components": [
                {
                  "internalType": "uint256",
                  "name": "eggID",
                  "type": "uint256"
                },
                {
                  "internalType": "uint256",
                  "name": "dropID",
                  "type": "uint256"
                },
                {
                  "internalType": "bool",
                  "name": "burned",
                  "type": "bool"
                },
                {
                  "internalType": "bool",
                  "name": "swapped",
                  "type": "bool"
                }
              ],
              "internalType": "struct IZoo.Meta",
              "name": "meta",
              "type": "tuple"
            },
            {
              "components": [
                {
                  "internalType": "string",
                  "name": "tokenURI",
                  "type": "string"
                },
                {
                  "internalType": "string",
                  "name": "metadataURI",
                  "type": "string"
                },
                {
                  "internalType": "bytes32",
                  "name": "contentHash",
                  "type": "bytes32"
                },
                {
                  "internalType": "bytes32",
                  "name": "metadataHash",
                  "type": "bytes32"
                }
              ],
              "internalType": "struct IMedia.MediaData",
              "name": "data",
              "type": "tuple"
            },
            {
              "components": [
                {
                  "components": [
                    {
                      "internalType": "uint256",
                      "name": "value",
                      "type": "uint256"
                    }
                  ],
                  "internalType": "struct Decimal.D256",
                  "name": "prevOwner",
                  "type": "tuple"
                },
                {
                  "components": [
                    {
                      "internalType": "uint256",
                      "name": "value",
                      "type": "uint256"
                    }
                  ],
                  "internalType": "struct Decimal.D256",
                  "name": "creator",
                  "type": "tuple"
                },
                {
                  "components": [
                    {
                      "internalType": "uint256",
                      "name": "value",
                      "type": "uint256"
                    }
                  ],
                  "internalType": "struct Decimal.D256",
                  "name": "owner",
                  "type": "tuple"
                }
              ],
              "internalType": "struct IMarket.BidShares",
              "name": "bidShares",
              "type": "tuple"
            }
          ],
          "internalType": "struct IZoo.Token",
          "name": "",
          "type": "tuple"
        }
      ],
      "stateMutability": "payable",
      "type": "function"
    },
    {
      "inputs": [],
      "name": "media",
      "outputs": [
        {
          "internalType": "contract IMedia",
          "name": "",
          "type": "address"
        }
      ],
      "stateMutability": "view",
      "type": "function"
    },
    {
      "inputs": [],
      "name": "namePrice",
      "outputs": [
        {
          "internalType": "uint256",
          "name": "",
          "type": "uint256"
        }
      ],
      "stateMutability": "view",
      "type": "function"
    },
    {
      "inputs": [],
      "name": "owner",
      "outputs": [
        {
          "internalType": "address",
          "name": "",
          "type": "address"
        }
      ],
      "stateMutability": "view",
      "type": "function"
    },
    {
      "inputs": [],
      "name": "pair",
      "outputs": [
        {
          "internalType": "contract IUniswapV2Pair",
          "name": "",
          "type": "address"
        }
      ],
      "stateMutability": "view",
      "type": "function"
    },
    {
      "inputs": [
        {
          "internalType": "address",
          "name": "owner",
          "type": "address"
        },
        {
          "components": [
            {
              "components": [
                {
                  "internalType": "string",
                  "name": "name",
                  "type": "string"
                },
                {
                  "internalType": "uint256",
                  "name": "probability",
                  "type": "uint256"
                },
                {
                  "internalType": "uint256",
                  "name": "yields",
                  "type": "uint256"
                },
                {
                  "internalType": "uint256",
                  "name": "boost",
                  "type": "uint256"
                }
              ],
              "internalType": "struct IZoo.Rarity",
              "name": "rarity",
              "type": "tuple"
            },
            {
              "internalType": "enum IZoo.Type",
              "name": "kind",
              "type": "uint8"
            },
            {
              "internalType": "string",
              "name": "name",
              "type": "string"
            },
            {
              "internalType": "uint256",
              "name": "id",
              "type": "uint256"
            },
            {
              "internalType": "uint256",
              "name": "timestamp",
              "type": "uint256"
            },
            {
              "internalType": "uint256",
              "name": "birthday",
              "type": "uint256"
            },
            {
              "internalType": "string",
              "name": "customName",
              "type": "string"
            },
            {
              "components": [
                {
                  "internalType": "string",
                  "name": "animalA",
                  "type": "string"
                },
                {
                  "internalType": "string",
                  "name": "animalB",
                  "type": "string"
                },
                {
                  "internalType": "uint256",
                  "name": "tokenA",
                  "type": "uint256"
                },
                {
                  "internalType": "uint256",
                  "name": "tokenB",
                  "type": "uint256"
                }
              ],
              "internalType": "struct IZoo.Parents",
              "name": "parents",
              "type": "tuple"
            },
            {
              "components": [
                {
                  "internalType": "uint256",
                  "name": "count",
                  "type": "uint256"
                },
                {
                  "internalType": "uint256",
                  "name": "timestamp",
                  "type": "uint256"
                }
              ],
              "internalType": "struct IZoo.Breed",
              "name": "breed",
              "type": "tuple"
            },
            {
              "components": [
                {
                  "internalType": "uint256",
                  "name": "eggID",
                  "type": "uint256"
                },
                {
                  "internalType": "uint256",
                  "name": "dropID",
                  "type": "uint256"
                },
                {
                  "internalType": "bool",
                  "name": "burned",
                  "type": "bool"
                },
                {
                  "internalType": "bool",
                  "name": "swapped",
                  "type": "bool"
                }
              ],
              "internalType": "struct IZoo.Meta",
              "name": "meta",
              "type": "tuple"
            },
            {
              "components": [
                {
                  "internalType": "string",
                  "name": "tokenURI",
                  "type": "string"
                },
                {
                  "internalType": "string",
                  "name": "metadataURI",
                  "type": "string"
                },
                {
                  "internalType": "bytes32",
                  "name": "contentHash",
                  "type": "bytes32"
                },
                {
                  "internalType": "bytes32",
                  "name": "metadataHash",
                  "type": "bytes32"
                }
              ],
              "internalType": "struct IMedia.MediaData",
              "name": "data",
              "type": "tuple"
            },
            {
              "components": [
                {
                  "components": [
                    {
                      "internalType": "uint256",
                      "name": "value",
                      "type": "uint256"
                    }
                  ],
                  "internalType": "struct Decimal.D256",
                  "name": "prevOwner",
                  "type": "tuple"
                },
                {
                  "components": [
                    {
                      "internalType": "uint256",
                      "name": "value",
                      "type": "uint256"
                    }
                  ],
                  "internalType": "struct Decimal.D256",
                  "name": "creator",
                  "type": "tuple"
                },
                {
                  "components": [
                    {
                      "internalType": "uint256",
                      "name": "value",
                      "type": "uint256"
                    }
                  ],
                  "internalType": "struct Decimal.D256",
                  "name": "owner",
                  "type": "tuple"
                }
              ],
              "internalType": "struct IMarket.BidShares",
              "name": "bidShares",
              "type": "tuple"
            }
          ],
          "internalType": "struct IZoo.Token",
          "name": "token",
          "type": "tuple"
        }
      ],
      "name": "remint",
      "outputs": [],
      "stateMutability": "nonpayable",
      "type": "function"
    },
    {
      "inputs": [],
      "name": "renounceOwnership",
      "outputs": [],
      "stateMutability": "nonpayable",
      "type": "function"
    },
    {
      "inputs": [
        {
          "internalType": "uint256",
          "name": "price",
          "type": "uint256"
        }
      ],
      "name": "setNamePrice",
      "outputs": [],
      "stateMutability": "nonpayable",
      "type": "function"
    },
    {
      "inputs": [],
      "name": "supplyBNB",
      "outputs": [
        {
          "internalType": "uint256",
          "name": "",
          "type": "uint256"
        }
      ],
      "stateMutability": "view",
      "type": "function"
    },
    {
      "inputs": [],
      "name": "supplyZOO",
      "outputs": [
        {
          "internalType": "uint256",
          "name": "",
          "type": "uint256"
        }
      ],
      "stateMutability": "view",
      "type": "function"
    },
    {
      "inputs": [
        {
          "internalType": "address",
          "name": "owner",
          "type": "address"
        },
        {
          "internalType": "uint256",
          "name": "tokenID",
          "type": "uint256"
        },
        {
          "internalType": "uint256",
          "name": "chainId",
          "type": "uint256"
        }
      ],
      "name": "swap",
      "outputs": [],
      "stateMutability": "nonpayable",
      "type": "function"
    },
    {
      "inputs": [
        {
          "internalType": "uint256",
          "name": "",
          "type": "uint256"
        }
      ],
      "name": "tokens",
      "outputs": [
        {
          "components": [
            {
              "internalType": "string",
              "name": "name",
              "type": "string"
            },
            {
              "internalType": "uint256",
              "name": "probability",
              "type": "uint256"
            },
            {
              "internalType": "uint256",
              "name": "yields",
              "type": "uint256"
            },
            {
              "internalType": "uint256",
              "name": "boost",
              "type": "uint256"
            }
          ],
          "internalType": "struct IZoo.Rarity",
          "name": "rarity",
          "type": "tuple"
        },
        {
          "internalType": "enum IZoo.Type",
          "name": "kind",
          "type": "uint8"
        },
        {
          "internalType": "string",
          "name": "name",
          "type": "string"
        },
        {
          "internalType": "uint256",
          "name": "id",
          "type": "uint256"
        },
        {
          "internalType": "uint256",
          "name": "timestamp",
          "type": "uint256"
        },
        {
          "internalType": "uint256",
          "name": "birthday",
          "type": "uint256"
        },
        {
          "internalType": "string",
          "name": "customName",
          "type": "string"
        },
        {
          "components": [
            {
              "internalType": "string",
              "name": "animalA",
              "type": "string"
            },
            {
              "internalType": "string",
              "name": "animalB",
              "type": "string"
            },
            {
              "internalType": "uint256",
              "name": "tokenA",
              "type": "uint256"
            },
            {
              "internalType": "uint256",
              "name": "tokenB",
              "type": "uint256"
            }
          ],
          "internalType": "struct IZoo.Parents",
          "name": "parents",
          "type": "tuple"
        },
        {
          "components": [
            {
              "internalType": "uint256",
              "name": "count",
              "type": "uint256"
            },
            {
              "internalType": "uint256",
              "name": "timestamp",
              "type": "uint256"
            }
          ],
          "internalType": "struct IZoo.Breed",
          "name": "breed",
          "type": "tuple"
        },
        {
          "components": [
            {
              "internalType": "uint256",
              "name": "eggID",
              "type": "uint256"
            },
            {
              "internalType": "uint256",
              "name": "dropID",
              "type": "uint256"
            },
            {
              "internalType": "bool",
              "name": "burned",
              "type": "bool"
            },
            {
              "internalType": "bool",
              "name": "swapped",
              "type": "bool"
            }
          ],
          "internalType": "struct IZoo.Meta",
          "name": "meta",
          "type": "tuple"
        },
        {
          "components": [
            {
              "internalType": "string",
              "name": "tokenURI",
              "type": "string"
            },
            {
              "internalType": "string",
              "name": "metadataURI",
              "type": "string"
            },
            {
              "internalType": "bytes32",
              "name": "contentHash",
              "type": "bytes32"
            },
            {
              "internalType": "bytes32",
              "name": "metadataHash",
              "type": "bytes32"
            }
          ],
          "internalType": "struct IMedia.MediaData",
          "name": "data",
          "type": "tuple"
        },
        {
          "components": [
            {
              "components": [
                {
                  "internalType": "uint256",
                  "name": "value",
                  "type": "uint256"
                }
              ],
              "internalType": "struct Decimal.D256",
              "name": "prevOwner",
              "type": "tuple"
            },
            {
              "components": [
                {
                  "internalType": "uint256",
                  "name": "value",
                  "type": "uint256"
                }
              ],
              "internalType": "struct Decimal.D256",
              "name": "creator",
              "type": "tuple"
            },
            {
              "components": [
                {
                  "internalType": "uint256",
                  "name": "value",
                  "type": "uint256"
                }
              ],
              "internalType": "struct Decimal.D256",
              "name": "owner",
              "type": "tuple"
            }
          ],
          "internalType": "struct IMarket.BidShares",
          "name": "bidShares",
          "type": "tuple"
        }
      ],
      "stateMutability": "view",
      "type": "function"
    },
    {
      "inputs": [
        {
          "internalType": "address",
          "name": "newOwner",
          "type": "address"
        }
      ],
      "name": "transferOwnership",
      "outputs": [],
      "stateMutability": "nonpayable",
      "type": "function"
    },
    {
      "inputs": [],
      "name": "unlocked",
      "outputs": [
        {
          "internalType": "bool",
          "name": "",
          "type": "bool"
        }
      ],
      "stateMutability": "view",
      "type": "function"
    },
    {
      "inputs": [
        {
          "internalType": "address payable",
          "name": "receiver",
          "type": "address"
        },
        {
          "internalType": "uint256",
          "name": "amount",
          "type": "uint256"
        }
      ],
      "name": "withdrawBNB",
      "outputs": [],
      "stateMutability": "nonpayable",
      "type": "function"
    },
    {
      "inputs": [
        {
          "internalType": "address",
          "name": "receiver",
          "type": "address"
        },
        {
          "internalType": "uint256",
          "name": "amount",
          "type": "uint256"
        }
      ],
      "name": "withdrawZOO",
      "outputs": [],
      "stateMutability": "nonpayable",
      "type": "function"
    },
    {
      "inputs": [],
      "name": "zoo",
      "outputs": [
        {
          "internalType": "contract IERC20",
          "name": "",
          "type": "address"
        }
      ],
      "stateMutability": "view",
      "type": "function"
    },
    {
      "inputs": [],
      "name": "zooPriceBNB",
      "outputs": [
        {
          "internalType": "uint256",
          "name": "",
          "type": "uint256"
        }
      ],
      "stateMutability": "view",
      "type": "function"
    },
    {
      "stateMutability": "payable",
      "type": "receive"
    }
  ],
  "transactionHash": "0x8fe39e5c4e0b5ee123e90b796bba3cc3fa60f50ce9f33f325c1a1ced1fdda2ac",
  "args": [],
  "solcInputHash": "ae8380b16cbf17785ac018785234318e",
  "bytecode": "0x60806040523480156200001157600080fd5b506200001d3362000023565b62000073565b600080546001600160a01b038381166001600160a01b0319831681178455604051919092169283917f8be0079c531659141344cd1fd0a4f28419497f9722a3daafe3b4186f6b6457e09190a35050565b61340c80620000836000396000f3fe6080604052600436106101275760003560e01c806312d67d57146101305780631e676a58146101595780632626f4e01461016c57806349077a4f1461018c5780634f2cabdf146101b95780634f64b2be146101f45780635eb399681461022c578063685bf0cd146102625780636a5e265014610282578063715018a6146102b3578063796851ae146102c85780637b6a8777146102dd5780638da5cb5b146102fd5780639b9e45de146103125780639f1d0f5914610327578063a8aa1b3114610347578063a97af1f214610367578063b22073b614610387578063e5a984801461039d578063e78cea92146103bd578063e8ed3358146103dd578063edc70c84146102c8578063f2fde38b146103fd578063fab81d6a1461041d578063fbc36e0a1461043d57005b3661012e57005b005b61014361013e366004612a45565b61045d565b6040516101509190613181565b60405180910390f35b61012e610167366004612ca6565b6107c1565b34801561017857600080fd5b5061012e610187366004612c76565b6109e3565b34801561019857600080fd5b506006546101ac906001600160a01b031681565b6040516101509190612eec565b3480156101c557600080fd5b506101e66101d43660046127ea565b60036020526000908152604090205481565b604051908152602001610150565b34801561020057600080fd5b5061021461020f366004612c76565b610a2a565b6040516101509c9b9a999897969594939291906130bb565b34801561023857600080fd5b506101ac610247366004612c76565b6002602052600090815260409020546001600160a01b031681565b34801561026e57600080fd5b5061012e61027d366004612ca6565b610f64565b34801561028e57600080fd5b506009546102a390600160a01b900460ff1681565b6040519015158152602001610150565b3480156102bf57600080fd5b5061012e610fbe565b3480156102d457600080fd5b506101e6610ff9565b3480156102e957600080fd5b506007546101ac906001600160a01b031681565b34801561030957600080fd5b506101ac61107f565b34801561031e57600080fd5b506101e661108e565b34801561033357600080fd5b5061012e610342366004612a45565b61113b565b34801561035357600080fd5b506008546101ac906001600160a01b031681565b34801561037357600080fd5b5061012e610382366004612822565b6111da565b34801561039357600080fd5b506101e660055481565b3480156103a957600080fd5b506101e66103b83660046127ea565b61123b565b3480156103c957600080fd5b506009546101ac906001600160a01b031681565b3480156103e957600080fd5b5061012e6103f836600461284d565b611443565b34801561040957600080fd5b5061012e6104183660046127ea565b6114da565b34801561042957600080fd5b5061012e6104383660046128bd565b61157a565b34801561044957600080fd5b5061012e610458366004612a33565b61159b565b610465612191565b61049260405180604001604052806009815260200168696d706f727445676760b81b815250858585611657565b6040516331a9108f60e11b815260048101849052849033906001600160a01b03831690636352211e9060240160206040518083038186803b1580156104d657600080fd5b505afa1580156104ea573d6000803e3d6000fd5b505050506040513d601f19601f8201168201806040525081019061050e9190612806565b6001600160a01b03161461055c5760405162461bcd60e51b815260206004820152601060248201526f139bdd081bdddb995c881bd98813919560821b60448201526064015b60405180910390fd5b604051630852cd8d60e31b8152600481018590526001600160a01b038216906342966c6890602401600060405180830381600087803b15801561059e57600080fd5b505af11580156105b2573d6000803e3d6000fd5b505050600084815260026020908152604080832054815163182f1aa960e11b815291516001600160a01b039091169450849263305e35529260048082019391829003018186803b15801561060557600080fd5b505afa158015610619573d6000803e3d6000fd5b505050506040513d601f19601f8201168201806040525081019061063d9190612c8e565b610651906903cfc82e37e9a740000061329c565b61065961108e565b61066391906132d4565b905061069b6040518060400160405280600d81526020016c7a6f6f5072696365424e42282960981b81525061069661108e565b6116a6565b6107376040518060400160405280600f81526020016e64726f702e6567675072696365282960881b815250836001600160a01b031663305e35526040518163ffffffff1660e01b815260040160206040518083038186803b1580156106ff57600080fd5b505afa158015610713573d6000803e3d6000fd5b505050506040513d601f19601f820116820180604052508101906106969190612c8e565b61076160405180604001604052806008815260200167626e62507269636560c01b815250826116a6565b61078c604051806040016040528060098152602001686d73672e76616c756560b81b815250346116a6565b803410156107ac5760405162461bcd60e51b81526004016105539061305e565b6107b685336116eb565b979650505050505050565b6107ee6040518060400160405280600a815260200169313abca2b3b3b9a1272160b11b81525083836118c5565b6000828152600260205260408120546001600160a01b03169061080f61108e565b826001600160a01b031663305e35526040518163ffffffff1660e01b815260040160206040518083038186803b15801561084857600080fd5b505afa15801561085c573d6000803e3d6000fd5b505050506040513d601f19601f820116820180604052508101906108809190612c8e565b610894906903cfc82e37e9a740000061329c565b61089e91906132b4565b90506108cb604051806040016040528060098152602001686d73672e76616c756560b81b815250346116a6565b6108f560405180604001604052806008815260200167626e62507269636560c01b815250826116a6565b6109576040518060400160405280600d81526020016c64726f702e656767507269636560981b815250836001600160a01b031663305e35526040518163ffffffff1660e01b815260040160206040518083038186803b1580156106ff57600080fd5b6109886040518060400160405280600d81526020016c7a6f6f5072696365424e42282960981b81525061069661108e565b61099283826132d4565b3410156109b15760405162461bcd60e51b81526004016105539061305e565b60005b838160ff1610156109dc576109c985336116eb565b50806109d48161335a565b9150506109b4565b5050505050565b336109ec61107f565b6001600160a01b031614610a125760405162461bcd60e51b815260040161055390613086565b610a2481670de0b6b3a764000061190c565b60055550565b600460205280600052604060002060009150905080600001604051806080016040529081600082018054610a5d9061331f565b80601f0160208091040260200160405190810160405280929190818152602001828054610a899061331f565b8015610ad65780601f10610aab57610100808354040283529160200191610ad6565b820191906000526020600020905b815481529060010190602001808311610ab957829003601f168201915b505050918352505060018201546020820152600282015460408201526003909101546060909101526004820154600583018054929360ff90921692610b1a9061331f565b80601f0160208091040260200160405190810160405280929190818152602001828054610b469061331f565b8015610b935780601f10610b6857610100808354040283529160200191610b93565b820191906000526020600020905b815481529060010190602001808311610b7657829003601f168201915b505050505090806006015490806007015490806008015490806009018054610bba9061331f565b80601f0160208091040260200160405190810160405280929190818152602001828054610be69061331f565b8015610c335780601f10610c0857610100808354040283529160200191610c33565b820191906000526020600020905b815481529060010190602001808311610c1657829003601f168201915b50505050509080600a01604051806080016040529081600082018054610c589061331f565b80601f0160208091040260200160405190810160405280929190818152602001828054610c849061331f565b8015610cd15780601f10610ca657610100808354040283529160200191610cd1565b820191906000526020600020905b815481529060010190602001808311610cb457829003601f168201915b50505050508152602001600182018054610cea9061331f565b80601f0160208091040260200160405190810160405280929190818152602001828054610d169061331f565b8015610d635780601f10610d3857610100808354040283529160200191610d63565b820191906000526020600020905b815481529060010190602001808311610d4657829003601f168201915b5050509183525050600282015460208083019190915260039092015460409182015280518082018252600e8501548152600f8501548184015281516080808201845260108701548252601187015494820194909452601286015460ff80821615158386015261010090910416151560608201528251938401909252601385018054949591949293919282908290610df99061331f565b80601f0160208091040260200160405190810160405280929190818152602001828054610e259061331f565b8015610e725780601f10610e4757610100808354040283529160200191610e72565b820191906000526020600020905b815481529060010190602001808311610e5557829003601f168201915b50505050508152602001600182018054610e8b9061331f565b80601f0160208091040260200160405190810160405280929190818152602001828054610eb79061331f565b8015610f045780601f10610ed957610100808354040283529160200191610f04565b820191906000526020600020905b815481529060010190602001808311610ee757829003601f168201915b5050509183525050600282015460208083019190915260039092015460409182015280516080810182526017850154606082019081528152815180840183526018860154815281840152815192830182526019909401548252830152908c565b610f8e604051806040016040528060078152602001666275794567677360c81b81525083836118c5565b60005b818160ff161015610fb957610fa6833361191f565b5080610fb18161335a565b915050610f91565b505050565b33610fc761107f565b6001600160a01b031614610fed5760405162461bcd60e51b815260040161055390613086565b610ff76000611c66565b565b6007546040516370a0823160e01b81526000916001600160a01b0316906370a082319061102a903090600401612eec565b60206040518083038186803b15801561104257600080fd5b505afa158015611056573d6000803e3d6000fd5b505050506040513d601f19601f8201168201806040525081019061107a9190612c8e565b905090565b6000546001600160a01b031690565b6000806000600860009054906101000a90046001600160a01b03166001600160a01b0316630902f1ac6040518163ffffffff1660e01b815260040160606040518083038186803b1580156110e157600080fd5b505afa1580156110f5573d6000803e3d6000fd5b505050506040513d601f19601f820116820180604052508101906111199190612c28565b506001600160701b03918216935016905061113481836132b4565b9250505090565b6009546001600160a01b0316331461115257600080fd5b611179604051806040016040528060048152602001630737761760e41b8152508484611cb6565b6111838383611cfd565b600082815260046020526040808220601201805461ff00191661010017905551829184916001600160a01b038716917f77f92a1b6a1a11de8ca49515ad4c1fad45632dd3442167d74b90b304a3c7a75891a4505050565b336111e361107f565b6001600160a01b0316146112095760405162461bcd60e51b815260040161055390613086565b6040516001600160a01b0383169082156108fc029083906000818181858888f1935050505061123757600080fd5b5050565b60003361124661107f565b6001600160a01b03161461126c5760405162461bcd60e51b815260040161055390613086565b6001600160a01b038216600090815260036020526040902054156112c75760405162461bcd60e51b8152602060048201526012602482015271111c9bdc08185b1c9958591e48185919195960721b6044820152606401610553565b816112d6600180546001019055565b60006112e160015490565b600081815260026020908152604080832080546001600160a01b0319166001600160a01b038a81169182179092558085526003909352818420859055815163129e754360e21b8152915194955091937f2924d682319c0da5a600d8e093bcb0fb706de4e6bb58e114c69dee5587e2ec2d9392871692634a79d50c9260048082019391829003018186803b15801561137757600080fd5b505afa15801561138b573d6000803e3d6000fd5b505050506040513d6000823e601f3d908101601f191682016040526113b39190810190612a95565b846001600160a01b031663d232b7976040518163ffffffff1660e01b815260040160206040518083038186803b1580156113ec57600080fd5b505afa158015611400573d6000803e3d6000fd5b505050506040513d601f19601f820116820180604052508101906114249190612c8e565b604051611432929190613017565b60405180910390a29150505b919050565b3361144c61107f565b6001600160a01b0316146114725760405162461bcd60e51b815260040161055390613086565b600680546001600160a01b039687166001600160a01b031991821617909155600780549587169582169590951790945560088054938616939094169290921790925560098054911515600160a01b026001600160a81b03199092169290931691909117179055565b336114e361107f565b6001600160a01b0316146115095760405162461bcd60e51b815260040161055390613086565b6001600160a01b03811661156e5760405162461bcd60e51b815260206004820152602660248201527f4f776e61626c653a206e6577206f776e657220697320746865207a65726f206160448201526564647265737360d01b6064820152608401610553565b61157781611c66565b50565b6009546001600160a01b0316331461159157600080fd5b610fb98282611dda565b336115a461107f565b6001600160a01b0316146115ca5760405162461bcd60e51b815260040161055390613086565b60075460405163a9059cbb60e01b81526001600160a01b039091169063a9059cbb906115fc9085908590600401612f24565b602060405180830381600087803b15801561161657600080fd5b505af115801561162a573d6000803e3d6000fd5b505050506040513d601f19601f8201168201806040525081019061164e9190612a79565b61123757600080fd5b6116a0848484846040516024016116719493929190612fdf565b60408051601f198184030181529190526020810180516001600160e01b031663daa394bd60e01b1790526120e0565b50505050565b61123782826040516024016116bc929190613017565b60408051601f198184030181529190526020810180516001600160e01b03166309710a9d60e41b1790526120e0565b6116f3612191565b6006546040516370a0823160e01b81526003916001600160a01b0316906370a0823190611724908690600401612eec565b60206040518083038186803b15801561173c57600080fd5b505afa158015611750573d6000803e3d6000fd5b505050506040513d601f19601f820116820180604052508101906117749190612c8e565b106117b75760405162461bcd60e51b815260206004820152601360248201527213db9b1e480cc81959d9dcc8185b1b1bddd959606a1b6044820152606401610553565b600083815260026020526040808220548151630244d47b60e11b815291516001600160a01b0390911692918391630489a8f691600480820192869290919082900301818387803b15801561180a57600080fd5b505af115801561181e573d6000803e3d6000fd5b505050506040513d6000823e601f3d908101601f191682016040526118469190810190612ac7565b90506118528482611dda565b90506118846040518060400160405280600a8152602001696d696e7465642065676760b01b81525082606001516116a6565b60608101516040516001600160a01b038616907fb6fcdc0b9a5291c95b93142b5e81d61a0b01a26b043be034e6daaa1219e7ebc190600090a3949350505050565b610fb98383836040516024016118dd93929190613039565b60408051601f198184030181529190526020810180516001600160e01b031663969cdd0360e01b1790526120e0565b600061191882846132d4565b9392505050565b611927612191565b61194f6040518060400160405280600681526020016562757945676760d01b815250846116a6565b60008381526002602090815260409182902054825163182f1aa960e11b815292516001600160a01b0390911692839263305e355292600480840193829003018186803b15801561199e57600080fd5b505afa1580156119b2573d6000803e3d6000fd5b505050506040513d601f19601f820116820180604052508101906119d69190612c8e565b6007546040516370a0823160e01b81526001600160a01b03909116906370a0823190611a06908790600401612eec565b60206040518083038186803b158015611a1e57600080fd5b505afa158015611a32573d6000803e3d6000fd5b505050506040513d601f19601f82011682018060405250810190611a569190612c8e565b1015611a955760405162461bcd60e51b815260206004820152600e60248201526d4e6f7420656e6f756768205a4f4f60901b6044820152606401610553565b611b356040518060400160405280600c81526020016b5472616e73666572205a4f4f60a01b8152508430846001600160a01b031663305e35526040518163ffffffff1660e01b815260040160206040518083038186803b158015611af857600080fd5b505afa158015611b0c573d6000803e3d6000fd5b505050506040513d601f19601f82011682018060405250810190611b309190612c8e565b612101565b600760009054906101000a90046001600160a01b03166001600160a01b03166323b872dd8430846001600160a01b031663305e35526040518163ffffffff1660e01b815260040160206040518083038186803b158015611b9457600080fd5b505afa158015611ba8573d6000803e3d6000fd5b505050506040513d601f19601f82011682018060405250810190611bcc9190612c8e565b6040516001600160e01b031960e086901b1681526001600160a01b0393841660048201529290911660248301526044820152606401602060405180830381600087803b158015611c1b57600080fd5b505af1158015611c2f573d6000803e3d6000fd5b505050506040513d601f19601f82011682018060405250810190611c539190612a79565b50611c5e84846116eb565b949350505050565b600080546001600160a01b038381166001600160a01b0319831681178455604051919092169283917f8be0079c531659141344cd1fd0a4f28419497f9722a3daafe3b4186f6b6457e09190a35050565b610fb9838383604051602401611cce93929190612fb1565b60408051601f198184030181529190526020810180516001600160e01b03166307c8121760e01b1790526120e0565b611d2460405180604001604052806004815260200163313ab93760e11b8152508383611cb6565b600654604051633477cc1b60e21b81526001600160a01b039091169063d1df306c90611d569085908590600401612f24565b600060405180830381600087803b158015611d7057600080fd5b505af1158015611d84573d6000803e3d6000fd5b505050600082815260046020526040808220601201805460ff19166001179055518392506001600160a01b038516917fcc16f5dbb4873280815c1ee09dbd06736cffcc184412cf7a71a0fdb75d397ca591a35050565b611de2612191565b611e0d604051806040016040528060048152602001631b5a5b9d60e21b81525084846040015161214a565b600654604051631dc925ff60e31b81526001600160a01b039091169063ee492ff890611e3f9086908690600401612f00565b600060405180830381600087803b158015611e5957600080fd5b505af1158015611e6d573d6000803e3d6000fd5b505050506040513d6000823e601f3d908101601f19168201604052611e959190810190612ac7565b606081015160009081526004602090815260409091208251805180519496508694929391928492611eca9284929101906122ac565b50602082015181600101556040820151816002015560608201518160030155505060208201518160040160006101000a81548160ff02191690836003811115611f2357634e487b7160e01b600052602160045260246000fd5b021790555060408201518051611f439160058401916020909101906122ac565b50606082015160068201556080820151600782015560a0820151600882015560c08201518051611f7d9160098401916020909101906122ac565b5060e082015180518051600a840191611f9b918391602001906122ac565b506020828101518051611fb492600185019201906122ac565b506040828101516002830155606092830151600390920191909155610100848101518051600e860155602090810151600f8601556101208601518051601087015580820151601187015592830151601286018054949095015161ffff1990941690151561ff0019161792151590910291909117909155610140830151805180519192601385019261204892849201906122ac565b50602082810151805161206192600185019201906122ac565b5060408281015160028301556060928301516003909201919091556101609390930151805151601784015560208101515160188401558301515160199092019190915583015190516001600160a01b038516907f0f6798a560793a54c3bcfe86a93cde1e73087d944c0ea20544137d412139688590600090a350919050565b80516a636f6e736f6c652e6c6f67602083016000808483855afa5050505050565b6116a08484848460405160240161211b9493929190612f3d565b60408051601f198184030181529190526020810180516001600160e01b0316636eb7943d60e01b1790526120e0565b610fb983838360405160240161216293929190612f73565b60408051601f198184030181529190526020810180516001600160e01b031663e0e9ad4f60e01b1790526120e0565b6040805161020081019091526060610180820190815260006101a083018190526101c083018190526101e08301528190815260200160008152602001606081526020016000815260200160008152602001600081526020016060815260200161221b6040518060800160405280606081526020016060815260200160008152602001600081525090565b815260200161223d604051806040016040528060008152602001600081525090565b815260408051608081018252600080825260208281018290529282018190526060820152910190815260200161229a6040518060800160405280606081526020016060815260200160008019168152602001600080191681525090565b81526020016122a7612330565b905290565b8280546122b89061331f565b90600052602060002090601f0160209004810192826122da5760008555612320565b82601f106122f357805160ff1916838001178555612320565b82800160010185558215612320579182015b82811115612320578251825591602001919060010190612305565b5061232c92915061235d565b5090565b6040518060600160405280612343612372565b8152602001612350612372565b81526020016122a7612372565b5b8082111561232c576000815560010161235e565b6040518060200160405280600081525090565b803561143e816133c9565b805161143e816133c9565b600082601f8301126123ab578081fd5b81356123be6123b982613275565b613245565b8181528460208386010111156123d2578283fd5b816020850160208301379081016020019190915292915050565b600082601f8301126123fc578081fd5b815161240a6123b982613275565b81815284602083860101111561241e578283fd5b611c5e8260208301602087016132f3565b600060608284031215612440578081fd5b612448613194565b90506124548383612524565b81526124638360208401612524565b60208201526124758360408401612524565b604082015292915050565b600060608284031215612491578081fd5b612499613194565b90506124a58383612547565b81526124b48360208401612547565b60208201526124758360408401612547565b6000604082840312156124d7578081fd5b6124df6131bc565b9050813581526020820135602082015292915050565b600060408284031215612506578081fd5b61250e6131bc565b9050815181526020820151602082015292915050565b600060208284031215612535578081fd5b61253d6131de565b9135825250919050565b600060208284031215612558578081fd5b6125606131de565b9151825250919050565b60006080828403121561257b578081fd5b612583613200565b905081356001600160401b038082111561259c57600080fd5b6125a88583860161239b565b835260208401359150808211156125be57600080fd5b506125cb8482850161239b565b602083015250604082013560408201526060820135606082015292915050565b6000608082840312156125fc578081fd5b612604613200565b905081516001600160401b038082111561261d57600080fd5b612629858386016123ec565b8352602084015191508082111561263f57600080fd5b5061264c848285016123ec565b602083015250604082015160408201526060820151606082015292915050565b60006080828403121561267d578081fd5b612685613200565b9050813581526020820135602082015260408201356126a3816133bb565b604082015260608201356126b6816133bb565b606082015292915050565b6000608082840312156126d2578081fd5b6126da613200565b9050815181526020820151602082015260408201516126f8816133bb565b604082015260608201516126b6816133bb565b60006080828403121561271c578081fd5b612724613200565b905081356001600160401b0381111561273c57600080fd5b6127488482850161239b565b82525060208201356020820152604082013560408201526060820135606082015292915050565b600060808284031215612780578081fd5b612788613200565b905081516001600160401b038111156127a057600080fd5b6127ac848285016123ec565b82525060208201516020820152604082015160408201526060820151606082015292915050565b80516001600160701b038116811461143e57600080fd5b6000602082840312156127fb578081fd5b8135611918816133a6565b600060208284031215612817578081fd5b8151611918816133a6565b60008060408385031215612834578081fd5b823561283f816133a6565b946020939093013593505050565b600080600080600060a08688031215612864578081fd5b853561286f816133a6565b9450602086013561287f816133a6565b9350604086013561288f816133a6565b9250606086013561289f816133a6565b915060808601356128af816133bb565b809150509295509295909350565b600080604083850312156128cf578182fd5b82356128da816133a6565b915060208301356001600160401b03808211156128f5578283fd5b908401906102408287031215612909578283fd5b612911613222565b82358281111561291f578485fd5b61292b8882860161270b565b82525061293a60208401612385565b6020820152604083013582811115612950578485fd5b61295c8882860161239b565b604083015250606083013560608201526080830135608082015260a083013560a082015260c083013582811115612991578485fd5b61299d8882860161239b565b60c08301525060e0830135828111156129b4578485fd5b6129c08882860161256a565b60e0830152506101006129d5888286016124c6565b908201526101406129e88885830161266c565b6101208301526101c084013583811115612a00578586fd5b612a0c8982870161256a565b828401525050612a20876101e0850161242f565b6101608201528093505050509250929050565b60008060408385031215612834578182fd5b600080600060608486031215612a59578081fd5b8335612a64816133a6565b95602085013595506040909401359392505050565b600060208284031215612a8a578081fd5b8151611918816133bb565b600060208284031215612aa6578081fd5b81516001600160401b03811115612abb578182fd5b611c5e848285016123ec565b600060208284031215612ad8578081fd5b81516001600160401b0380821115612aee578283fd5b908301906102408286031215612b02578283fd5b612b0a613222565b825182811115612b18578485fd5b612b248782860161276f565b825250612b3360208401612390565b6020820152604083015182811115612b49578485fd5b612b55878286016123ec565b604083015250606083015160608201526080830151608082015260a083015160a082015260c083015182811115612b8a578485fd5b612b96878286016123ec565b60c08301525060e083015182811115612bad578485fd5b612bb9878286016125eb565b60e083015250610100612bce878286016124f5565b90820152610140612be1878583016126c1565b6101208301526101c084015183811115612bf9578586fd5b612c05888287016125eb565b828401525050612c19866101e08501612480565b61016082015295945050505050565b600080600060608486031215612c3c578081fd5b612c45846127d3565b9250612c53602085016127d3565b9150604084015163ffffffff81168114612c6b578182fd5b809150509250925092565b600060208284031215612c87578081fd5b5035919050565b600060208284031215612c9f578081fd5b5051919050565b60008060408385031215612cb8578182fd5b50508035926020909101359150565b60048110612ce557634e487b7160e01b600052602160045260246000fd5b9052565b60008151808452612d018160208601602086016132f3565b601f01601f19169290920160200192915050565b8051518252602080820151519083015260409081015151910152565b6000815160808452612d466080850182612ce9565b905060208301518482036020860152612d5f8282612ce9565b91505060408301516040850152606083015160608501528091505092915050565b80518252602081015160208301526040810151151560408301526060810151151560608301525050565b6000815160808452612dbf6080850182612ce9565b90506020830151602085015260408301516040850152606083015160608501528091505092915050565b60006102408251818552612dff82860182612daa565b9150506020830151612e146020860182612cc7565b5060408301518482036040860152612e2c8282612ce9565b915050606083015160608501526080830151608085015260a083015160a085015260c083015184820360c0860152612e648282612ce9565b91505060e083015184820360e0860152612e7e8282612d31565b91505061010080840151612e9e8287018280518252602090810151910152565b5050610120830151610140612eb581870183612d80565b8401518583036101c08701529050612ecd8282612d31565b915050610160830151612ee46101e0860182612d15565b509392505050565b6001600160a01b0391909116815260200190565b6001600160a01b0383168152604060208201819052600090611c5e90830184612de9565b6001600160a01b03929092168252602082015260400190565b608081526000612f506080830187612ce9565b6001600160a01b0395861660208401529390941660408201526060015292915050565b606081526000612f866060830186612ce9565b6001600160a01b03851660208401528281036040840152612fa78185612ce9565b9695505050505050565b606081526000612fc46060830186612ce9565b6001600160a01b039490941660208301525060400152919050565b608081526000612ff26080830187612ce9565b6001600160a01b03959095166020830152506040810192909252606090910152919050565b60408152600061302a6040830185612ce9565b90508260208301529392505050565b60608152600061304c6060830186612ce9565b60208301949094525060400152919050565b6020808252600e908201526d2737ba1032b737bab3b41021272160911b604082015260600190565b6020808252818101527f4f776e61626c653a2063616c6c6572206973206e6f7420746865206f776e6572604082015260600190565b610240815260006130d061024083018f612daa565b6130dd602084018f612cc7565b82810360408401526130ef818e612ce9565b90508b60608401528a60808401528960a084015282810360c0840152613115818a612ce9565b905082810360e08401526131298189612d31565b87516101008501526020880151610120850152905061314c610140840187612d80565b8281036101c084015261315f8186612d31565b9150506131706101e0830184612d15565b9d9c50505050505050505050505050565b6020815260006119186020830184612de9565b604051606081016001600160401b03811182821017156131b6576131b6613390565b60405290565b604080519081016001600160401b03811182821017156131b6576131b6613390565b604051602081016001600160401b03811182821017156131b6576131b6613390565b604051608081016001600160401b03811182821017156131b6576131b6613390565b60405161018081016001600160401b03811182821017156131b6576131b6613390565b604051601f8201601f191681016001600160401b038111828210171561326d5761326d613390565b604052919050565b60006001600160401b0382111561328e5761328e613390565b50601f01601f191660200190565b600082198211156132af576132af61337a565b500190565b6000826132cf57634e487b7160e01b81526012600452602481fd5b500490565b60008160001904831182151516156132ee576132ee61337a565b500290565b60005b8381101561330e5781810151838201526020016132f6565b838111156116a05750506000910152565b600181811c9082168061333357607f821691505b6020821081141561335457634e487b7160e01b600052602260045260246000fd5b50919050565b600060ff821660ff8114156133715761337161337a565b60010192915050565b634e487b7160e01b600052601160045260246000fd5b634e487b7160e01b600052604160045260246000fd5b6001600160a01b038116811461157757600080fd5b801515811461157757600080fd5b6004811061157757600080fdfea26469706673582212204f4c067199c2fc1a9e57dd07908300a3111c0c3c0fafd900efa28b8c549ac68364736f6c63430008040033",
  "libraries": {},
  "devdoc": {
    "kind": "dev",
    "methods": {
      "owner()": {
        "details": "Returns the address of the current owner."
      },
      "renounceOwnership()": {
        "details": "Leaves the contract without owner. It will not be possible to call `onlyOwner` functions anymore. Can only be called by the current owner. NOTE: Renouncing ownership will leave the contract without an owner, thereby removing any functionality that is only available to the owner."
      },
      "transferOwnership(address)": {
        "details": "Transfers ownership of the contract to a new account (`newOwner`). Can only be called by the current owner."
      }
    },
    "version": 1
  },
  "userdoc": {
    "kind": "user",
    "methods": {},
    "version": 1
  },
  "storageLayout": {
    "storage": [
      {
        "astId": 1426,
        "contract": "src/ZooKeeper.sol:ZooKeeper",
        "label": "_owner",
        "offset": 0,
        "slot": "0",
        "type": "t_address"
      },
      {
        "astId": 14638,
        "contract": "src/ZooKeeper.sol:ZooKeeper",
        "label": "dropIDs",
        "offset": 0,
        "slot": "1",
        "type": "t_struct(Counter)3922_storage"
      },
      {
        "astId": 14702,
        "contract": "src/ZooKeeper.sol:ZooKeeper",
        "label": "drops",
        "offset": 0,
        "slot": "2",
        "type": "t_mapping(t_uint256,t_address)"
      },
      {
        "astId": 14706,
        "contract": "src/ZooKeeper.sol:ZooKeeper",
        "label": "dropAddresses",
        "offset": 0,
        "slot": "3",
        "type": "t_mapping(t_address,t_uint256)"
      },
      {
        "astId": 14711,
        "contract": "src/ZooKeeper.sol:ZooKeeper",
        "label": "tokens",
        "offset": 0,
        "slot": "4",
        "type": "t_mapping(t_uint256,t_struct(Token)24622_storage)"
      },
      {
        "astId": 14713,
        "contract": "src/ZooKeeper.sol:ZooKeeper",
        "label": "namePrice",
        "offset": 0,
        "slot": "5",
        "type": "t_uint256"
      },
      {
        "astId": 14716,
        "contract": "src/ZooKeeper.sol:ZooKeeper",
        "label": "media",
        "offset": 0,
        "slot": "6",
        "type": "t_contract(IMedia)24547"
      },
      {
        "astId": 14719,
        "contract": "src/ZooKeeper.sol:ZooKeeper",
        "label": "zoo",
        "offset": 0,
        "slot": "7",
        "type": "t_contract(IERC20)2278"
      },
      {
        "astId": 14722,
        "contract": "src/ZooKeeper.sol:ZooKeeper",
        "label": "pair",
        "offset": 0,
        "slot": "8",
        "type": "t_contract(IUniswapV2Pair)26393"
      },
      {
        "astId": 14724,
        "contract": "src/ZooKeeper.sol:ZooKeeper",
        "label": "bridge",
        "offset": 0,
        "slot": "9",
        "type": "t_address"
      },
      {
        "astId": 14726,
        "contract": "src/ZooKeeper.sol:ZooKeeper",
        "label": "unlocked",
        "offset": 20,
        "slot": "9",
        "type": "t_bool"
      }
    ],
    "types": {
      "t_address": {
        "encoding": "inplace",
        "label": "address",
        "numberOfBytes": "20"
      },
      "t_bool": {
        "encoding": "inplace",
        "label": "bool",
        "numberOfBytes": "1"
      },
      "t_bytes32": {
        "encoding": "inplace",
        "label": "bytes32",
        "numberOfBytes": "32"
      },
      "t_contract(IERC20)2278": {
        "encoding": "inplace",
        "label": "contract IERC20",
        "numberOfBytes": "20"
      },
      "t_contract(IMedia)24547": {
        "encoding": "inplace",
        "label": "contract IMedia",
        "numberOfBytes": "20"
      },
      "t_contract(IUniswapV2Pair)26393": {
        "encoding": "inplace",
        "label": "contract IUniswapV2Pair",
        "numberOfBytes": "20"
      },
      "t_enum(Type)24558": {
        "encoding": "inplace",
        "label": "enum IZoo.Type",
        "numberOfBytes": "1"
      },
      "t_mapping(t_address,t_uint256)": {
        "encoding": "mapping",
        "key": "t_address",
        "label": "mapping(address => uint256)",
        "numberOfBytes": "32",
        "value": "t_uint256"
      },
      "t_mapping(t_uint256,t_address)": {
        "encoding": "mapping",
        "key": "t_uint256",
        "label": "mapping(uint256 => address)",
        "numberOfBytes": "32",
        "value": "t_address"
      },
      "t_mapping(t_uint256,t_struct(Token)24622_storage)": {
        "encoding": "mapping",
        "key": "t_uint256",
        "label": "mapping(uint256 => struct IZoo.Token)",
        "numberOfBytes": "32",
        "value": "t_struct(Token)24622_storage"
      },
      "t_string_storage": {
        "encoding": "bytes",
        "label": "string",
        "numberOfBytes": "32"
      },
      "t_struct(BidShares)24035_storage": {
        "encoding": "inplace",
        "label": "struct IMarket.BidShares",
        "members": [
          {
            "astId": 24028,
            "contract": "src/ZooKeeper.sol:ZooKeeper",
            "label": "prevOwner",
            "offset": 0,
            "slot": "0",
            "type": "t_struct(D256)7699_storage"
          },
          {
            "astId": 24031,
            "contract": "src/ZooKeeper.sol:ZooKeeper",
            "label": "creator",
            "offset": 0,
            "slot": "1",
            "type": "t_struct(D256)7699_storage"
          },
          {
            "astId": 24034,
            "contract": "src/ZooKeeper.sol:ZooKeeper",
            "label": "owner",
            "offset": 0,
            "slot": "2",
            "type": "t_struct(D256)7699_storage"
          }
        ],
        "numberOfBytes": "96"
      },
      "t_struct(Breed)24572_storage": {
        "encoding": "inplace",
        "label": "struct IZoo.Breed",
        "members": [
          {
            "astId": 24569,
            "contract": "src/ZooKeeper.sol:ZooKeeper",
            "label": "count",
            "offset": 0,
            "slot": "0",
            "type": "t_uint256"
          },
          {
            "astId": 24571,
            "contract": "src/ZooKeeper.sol:ZooKeeper",
            "label": "timestamp",
            "offset": 0,
            "slot": "1",
            "type": "t_uint256"
          }
        ],
        "numberOfBytes": "64"
      },
      "t_struct(Counter)3922_storage": {
        "encoding": "inplace",
        "label": "struct Counters.Counter",
        "members": [
          {
            "astId": 3921,
            "contract": "src/ZooKeeper.sol:ZooKeeper",
            "label": "_value",
            "offset": 0,
            "slot": "0",
            "type": "t_uint256"
          }
        ],
        "numberOfBytes": "32"
      },
      "t_struct(D256)7699_storage": {
        "encoding": "inplace",
        "label": "struct Decimal.D256",
        "members": [
          {
            "astId": 7698,
            "contract": "src/ZooKeeper.sol:ZooKeeper",
            "label": "value",
            "offset": 0,
            "slot": "0",
            "type": "t_uint256"
          }
        ],
        "numberOfBytes": "32"
      },
      "t_struct(MediaData)24305_storage": {
        "encoding": "inplace",
        "label": "struct IMedia.MediaData",
        "members": [
          {
            "astId": 24298,
            "contract": "src/ZooKeeper.sol:ZooKeeper",
            "label": "tokenURI",
            "offset": 0,
            "slot": "0",
            "type": "t_string_storage"
          },
          {
            "astId": 24300,
            "contract": "src/ZooKeeper.sol:ZooKeeper",
            "label": "metadataURI",
            "offset": 0,
            "slot": "1",
            "type": "t_string_storage"
          },
          {
            "astId": 24302,
            "contract": "src/ZooKeeper.sol:ZooKeeper",
            "label": "contentHash",
            "offset": 0,
            "slot": "2",
            "type": "t_bytes32"
          },
          {
            "astId": 24304,
            "contract": "src/ZooKeeper.sol:ZooKeeper",
            "label": "metadataHash",
            "offset": 0,
            "slot": "3",
            "type": "t_bytes32"
          }
        ],
        "numberOfBytes": "128"
      },
      "t_struct(Meta)24590_storage": {
        "encoding": "inplace",
        "label": "struct IZoo.Meta",
        "members": [
          {
            "astId": 24583,
            "contract": "src/ZooKeeper.sol:ZooKeeper",
            "label": "eggID",
            "offset": 0,
            "slot": "0",
            "type": "t_uint256"
          },
          {
            "astId": 24585,
            "contract": "src/ZooKeeper.sol:ZooKeeper",
            "label": "dropID",
            "offset": 0,
            "slot": "1",
            "type": "t_uint256"
          },
          {
            "astId": 24587,
            "contract": "src/ZooKeeper.sol:ZooKeeper",
            "label": "burned",
            "offset": 0,
            "slot": "2",
            "type": "t_bool"
          },
          {
            "astId": 24589,
            "contract": "src/ZooKeeper.sol:ZooKeeper",
            "label": "swapped",
            "offset": 1,
            "slot": "2",
            "type": "t_bool"
          }
        ],
        "numberOfBytes": "96"
      },
      "t_struct(Parents)24581_storage": {
        "encoding": "inplace",
        "label": "struct IZoo.Parents",
        "members": [
          {
            "astId": 24574,
            "contract": "src/ZooKeeper.sol:ZooKeeper",
            "label": "animalA",
            "offset": 0,
            "slot": "0",
            "type": "t_string_storage"
          },
          {
            "astId": 24576,
            "contract": "src/ZooKeeper.sol:ZooKeeper",
            "label": "animalB",
            "offset": 0,
            "slot": "1",
            "type": "t_string_storage"
          },
          {
            "astId": 24578,
            "contract": "src/ZooKeeper.sol:ZooKeeper",
            "label": "tokenA",
            "offset": 0,
            "slot": "2",
            "type": "t_uint256"
          },
          {
            "astId": 24580,
            "contract": "src/ZooKeeper.sol:ZooKeeper",
            "label": "tokenB",
            "offset": 0,
            "slot": "3",
            "type": "t_uint256"
          }
        ],
        "numberOfBytes": "128"
      },
      "t_struct(Rarity)24567_storage": {
        "encoding": "inplace",
        "label": "struct IZoo.Rarity",
        "members": [
          {
            "astId": 24560,
            "contract": "src/ZooKeeper.sol:ZooKeeper",
            "label": "name",
            "offset": 0,
            "slot": "0",
            "type": "t_string_storage"
          },
          {
            "astId": 24562,
            "contract": "src/ZooKeeper.sol:ZooKeeper",
            "label": "probability",
            "offset": 0,
            "slot": "1",
            "type": "t_uint256"
          },
          {
            "astId": 24564,
            "contract": "src/ZooKeeper.sol:ZooKeeper",
            "label": "yields",
            "offset": 0,
            "slot": "2",
            "type": "t_uint256"
          },
          {
            "astId": 24566,
            "contract": "src/ZooKeeper.sol:ZooKeeper",
            "label": "boost",
            "offset": 0,
            "slot": "3",
            "type": "t_uint256"
          }
        ],
        "numberOfBytes": "128"
      },
      "t_struct(Token)24622_storage": {
        "encoding": "inplace",
        "label": "struct IZoo.Token",
        "members": [
          {
            "astId": 24593,
            "contract": "src/ZooKeeper.sol:ZooKeeper",
            "label": "rarity",
            "offset": 0,
            "slot": "0",
            "type": "t_struct(Rarity)24567_storage"
          },
          {
            "astId": 24596,
            "contract": "src/ZooKeeper.sol:ZooKeeper",
            "label": "kind",
            "offset": 0,
            "slot": "4",
            "type": "t_enum(Type)24558"
          },
          {
            "astId": 24598,
            "contract": "src/ZooKeeper.sol:ZooKeeper",
            "label": "name",
            "offset": 0,
            "slot": "5",
            "type": "t_string_storage"
          },
          {
            "astId": 24600,
            "contract": "src/ZooKeeper.sol:ZooKeeper",
            "label": "id",
            "offset": 0,
            "slot": "6",
            "type": "t_uint256"
          },
          {
            "astId": 24602,
            "contract": "src/ZooKeeper.sol:ZooKeeper",
            "label": "timestamp",
            "offset": 0,
            "slot": "7",
            "type": "t_uint256"
          },
          {
            "astId": 24604,
            "contract": "src/ZooKeeper.sol:ZooKeeper",
            "label": "birthday",
            "offset": 0,
            "slot": "8",
            "type": "t_uint256"
          },
          {
            "astId": 24606,
            "contract": "src/ZooKeeper.sol:ZooKeeper",
            "label": "customName",
            "offset": 0,
            "slot": "9",
            "type": "t_string_storage"
          },
          {
            "astId": 24609,
            "contract": "src/ZooKeeper.sol:ZooKeeper",
            "label": "parents",
            "offset": 0,
            "slot": "10",
            "type": "t_struct(Parents)24581_storage"
          },
          {
            "astId": 24612,
            "contract": "src/ZooKeeper.sol:ZooKeeper",
            "label": "breed",
            "offset": 0,
            "slot": "14",
            "type": "t_struct(Breed)24572_storage"
          },
          {
            "astId": 24615,
            "contract": "src/ZooKeeper.sol:ZooKeeper",
            "label": "meta",
            "offset": 0,
            "slot": "16",
            "type": "t_struct(Meta)24590_storage"
          },
          {
            "astId": 24618,
            "contract": "src/ZooKeeper.sol:ZooKeeper",
            "label": "data",
            "offset": 0,
            "slot": "19",
            "type": "t_struct(MediaData)24305_storage"
          },
          {
            "astId": 24621,
            "contract": "src/ZooKeeper.sol:ZooKeeper",
            "label": "bidShares",
            "offset": 0,
            "slot": "23",
            "type": "t_struct(BidShares)24035_storage"
          }
        ],
        "numberOfBytes": "832"
      },
      "t_uint256": {
        "encoding": "inplace",
        "label": "uint256",
        "numberOfBytes": "32"
      }
    }
  }
}