{
  "_format": "hh-sol-artifact-1",
  "contractName": "ZooMedia",
  "sourceName": "src/ZooMedia.sol",
  "abi": [
    {
      "inputs": [
        {
          "internalType": "string",
          "name": "symbol",
          "type": "string"
        },
        {
          "internalType": "string",
          "name": "name",
          "type": "string"
        },
        {
          "internalType": "address",
          "name": "marketAddress",
          "type": "address"
        }
      ],
      "stateMutability": "nonpayable",
      "type": "constructor"
    },
    {
      "anonymous": false,
      "inputs": [
        {
          "indexed": true,
          "internalType": "address",
          "name": "owner",
          "type": "address"
        },
        {
          "indexed": true,
          "internalType": "address",
          "name": "approved",
          "type": "address"
        },
        {
          "indexed": true,
          "internalType": "uint256",
          "name": "tokenId",
          "type": "uint256"
        }
      ],
      "name": "Approval",
      "type": "event"
    },
    {
      "anonymous": false,
      "inputs": [
        {
          "indexed": true,
          "internalType": "address",
          "name": "owner",
          "type": "address"
        },
        {
          "indexed": true,
          "internalType": "address",
          "name": "operator",
          "type": "address"
        },
        {
          "indexed": false,
          "internalType": "bool",
          "name": "approved",
          "type": "bool"
        }
      ],
      "name": "ApprovalForAll",
      "type": "event"
    },
    {
      "anonymous": false,
      "inputs": [
        {
          "indexed": true,
          "internalType": "address",
          "name": "previousOwner",
          "type": "address"
        },
        {
          "indexed": true,
          "internalType": "address",
          "name": "newOwner",
          "type": "address"
        }
      ],
      "name": "OwnershipTransferred",
      "type": "event"
    },
    {
      "anonymous": false,
      "inputs": [
        {
          "indexed": true,
          "internalType": "uint256",
          "name": "_tokenId",
          "type": "uint256"
        },
        {
          "indexed": false,
          "internalType": "address",
          "name": "owner",
          "type": "address"
        },
        {
          "indexed": false,
          "internalType": "string",
          "name": "_uri",
          "type": "string"
        }
      ],
      "name": "TokenMetadataURIUpdated",
      "type": "event"
    },
    {
      "anonymous": false,
      "inputs": [
        {
          "indexed": true,
          "internalType": "uint256",
          "name": "_tokenId",
          "type": "uint256"
        },
        {
          "indexed": false,
          "internalType": "address",
          "name": "owner",
          "type": "address"
        },
        {
          "indexed": false,
          "internalType": "string",
          "name": "_uri",
          "type": "string"
        }
      ],
      "name": "TokenURIUpdated",
      "type": "event"
    },
    {
      "anonymous": false,
      "inputs": [
        {
          "indexed": true,
          "internalType": "address",
          "name": "from",
          "type": "address"
        },
        {
          "indexed": true,
          "internalType": "address",
          "name": "to",
          "type": "address"
        },
        {
          "indexed": true,
          "internalType": "uint256",
          "name": "tokenId",
          "type": "uint256"
        }
      ],
      "name": "Transfer",
      "type": "event"
    },
    {
      "inputs": [],
      "name": "MINT_WITH_SIG_TYPEHASH",
      "outputs": [
        {
          "internalType": "bytes32",
          "name": "",
          "type": "bytes32"
        }
      ],
      "stateMutability": "view",
      "type": "function"
    },
    {
      "inputs": [],
      "name": "PERMIT_TYPEHASH",
      "outputs": [
        {
          "internalType": "bytes32",
          "name": "",
          "type": "bytes32"
        }
      ],
      "stateMutability": "view",
      "type": "function"
    },
    {
      "inputs": [
        {
          "internalType": "uint256",
          "name": "tokenId",
          "type": "uint256"
        },
        {
          "components": [
            {
              "internalType": "uint256",
              "name": "amount",
              "type": "uint256"
            },
            {
              "internalType": "address",
              "name": "currency",
              "type": "address"
            },
            {
              "internalType": "address",
              "name": "bidder",
              "type": "address"
            },
            {
              "internalType": "address",
              "name": "recipient",
              "type": "address"
            },
            {
              "components": [
                {
                  "internalType": "uint256",
                  "name": "value",
                  "type": "uint256"
                }
              ],
              "internalType": "struct Decimal.D256",
              "name": "sellOnShare",
              "type": "tuple"
            }
          ],
          "internalType": "struct IMarket.Bid",
          "name": "bid",
          "type": "tuple"
        }
      ],
      "name": "acceptBid",
      "outputs": [],
      "stateMutability": "nonpayable",
      "type": "function"
    },
    {
      "inputs": [],
      "name": "addDrop",
      "outputs": [
        {
          "internalType": "bool",
          "name": "",
          "type": "bool"
        }
      ],
      "stateMutability": "nonpayable",
      "type": "function"
    },
    {
      "inputs": [
        {
          "internalType": "address",
          "name": "to",
          "type": "address"
        },
        {
          "internalType": "uint256",
          "name": "tokenId",
          "type": "uint256"
        }
      ],
      "name": "approve",
      "outputs": [],
      "stateMutability": "nonpayable",
      "type": "function"
    },
    {
      "inputs": [
        {
          "internalType": "uint256",
          "name": "tokenId",
          "type": "uint256"
        },
        {
          "internalType": "address",
          "name": "recipient",
          "type": "address"
        }
      ],
      "name": "auctionTransfer",
      "outputs": [],
      "stateMutability": "nonpayable",
      "type": "function"
    },
    {
      "inputs": [
        {
          "internalType": "address",
          "name": "owner",
          "type": "address"
        }
      ],
      "name": "balanceOf",
      "outputs": [
        {
          "internalType": "uint256",
          "name": "",
          "type": "uint256"
        }
      ],
      "stateMutability": "view",
      "type": "function"
    },
    {
      "inputs": [],
      "name": "baseURI",
      "outputs": [
        {
          "internalType": "string",
          "name": "",
          "type": "string"
        }
      ],
      "stateMutability": "view",
      "type": "function"
    },
    {
      "inputs": [
        {
          "internalType": "uint256",
          "name": "tokenId",
          "type": "uint256"
        }
      ],
      "name": "burn",
      "outputs": [],
      "stateMutability": "nonpayable",
      "type": "function"
    },
    {
      "inputs": [],
      "name": "buyEgg",
      "outputs": [
        {
          "internalType": "uint256",
          "name": "",
          "type": "uint256"
        }
      ],
      "stateMutability": "pure",
      "type": "function"
    },
    {
      "inputs": [
        {
          "internalType": "address",
          "name": "marketContractAddress",
          "type": "address"
        }
      ],
      "name": "configure",
      "outputs": [],
      "stateMutability": "nonpayable",
      "type": "function"
    },
    {
      "inputs": [
        {
          "internalType": "uint256",
          "name": "tokenId",
          "type": "uint256"
        }
      ],
      "name": "getApproved",
      "outputs": [
        {
          "internalType": "address",
          "name": "",
          "type": "address"
        }
      ],
      "stateMutability": "view",
      "type": "function"
    },
    {
      "inputs": [],
      "name": "hatchEgg",
      "outputs": [
        {
          "internalType": "bool",
          "name": "",
          "type": "bool"
        }
      ],
      "stateMutability": "pure",
      "type": "function"
    },
    {
      "inputs": [
        {
          "internalType": "address",
          "name": "owner",
          "type": "address"
        },
        {
          "internalType": "address",
          "name": "operator",
          "type": "address"
        }
      ],
      "name": "isApprovedForAll",
      "outputs": [
        {
          "internalType": "bool",
          "name": "",
          "type": "bool"
        }
      ],
      "stateMutability": "view",
      "type": "function"
    },
    {
      "inputs": [],
      "name": "marketContract",
      "outputs": [
        {
          "internalType": "address",
          "name": "",
          "type": "address"
        }
      ],
      "stateMutability": "view",
      "type": "function"
    },
    {
      "inputs": [
        {
          "components": [
            {
              "internalType": "string",
              "name": "tokenURI",
              "type": "string"
            },
            {
              "internalType": "string",
              "name": "metadataURI",
              "type": "string"
            },
            {
              "internalType": "bytes32",
              "name": "contentHash",
              "type": "bytes32"
            },
            {
              "internalType": "bytes32",
              "name": "metadataHash",
              "type": "bytes32"
            }
          ],
          "internalType": "struct IMedia.MediaData",
          "name": "data",
          "type": "tuple"
        },
        {
          "components": [
            {
              "components": [
                {
                  "internalType": "uint256",
                  "name": "value",
                  "type": "uint256"
                }
              ],
              "internalType": "struct Decimal.D256",
              "name": "prevOwner",
              "type": "tuple"
            },
            {
              "components": [
                {
                  "internalType": "uint256",
                  "name": "value",
                  "type": "uint256"
                }
              ],
              "internalType": "struct Decimal.D256",
              "name": "creator",
              "type": "tuple"
            },
            {
              "components": [
                {
                  "internalType": "uint256",
                  "name": "value",
                  "type": "uint256"
                }
              ],
              "internalType": "struct Decimal.D256",
              "name": "owner",
              "type": "tuple"
            }
          ],
          "internalType": "struct IMarket.BidShares",
          "name": "bidShares",
          "type": "tuple"
        }
      ],
      "name": "mint",
      "outputs": [],
      "stateMutability": "nonpayable",
      "type": "function"
    },
    {
      "inputs": [
        {
          "internalType": "address",
          "name": "creator",
          "type": "address"
        },
        {
          "components": [
            {
              "internalType": "string",
              "name": "tokenURI",
              "type": "string"
            },
            {
              "internalType": "string",
              "name": "metadataURI",
              "type": "string"
            },
            {
              "internalType": "bytes32",
              "name": "contentHash",
              "type": "bytes32"
            },
            {
              "internalType": "bytes32",
              "name": "metadataHash",
              "type": "bytes32"
            }
          ],
          "internalType": "struct IMedia.MediaData",
          "name": "data",
          "type": "tuple"
        },
        {
          "components": [
            {
              "components": [
                {
                  "internalType": "uint256",
                  "name": "value",
                  "type": "uint256"
                }
              ],
              "internalType": "struct Decimal.D256",
              "name": "prevOwner",
              "type": "tuple"
            },
            {
              "components": [
                {
                  "internalType": "uint256",
                  "name": "value",
                  "type": "uint256"
                }
              ],
              "internalType": "struct Decimal.D256",
              "name": "creator",
              "type": "tuple"
            },
            {
              "components": [
                {
                  "internalType": "uint256",
                  "name": "value",
                  "type": "uint256"
                }
              ],
              "internalType": "struct Decimal.D256",
              "name": "owner",
              "type": "tuple"
            }
          ],
          "internalType": "struct IMarket.BidShares",
          "name": "bidShares",
          "type": "tuple"
        },
        {
          "components": [
            {
              "internalType": "uint256",
              "name": "deadline",
              "type": "uint256"
            },
            {
              "internalType": "uint8",
              "name": "v",
              "type": "uint8"
            },
            {
              "internalType": "bytes32",
              "name": "r",
              "type": "bytes32"
            },
            {
              "internalType": "bytes32",
              "name": "s",
              "type": "bytes32"
            }
          ],
          "internalType": "struct IMedia.EIP712Signature",
          "name": "sig",
          "type": "tuple"
        }
      ],
      "name": "mintWithSig",
      "outputs": [],
      "stateMutability": "nonpayable",
      "type": "function"
    },
    {
      "inputs": [
        {
          "internalType": "address",
          "name": "",
          "type": "address"
        }
      ],
      "name": "mintWithSigNonces",
      "outputs": [
        {
          "internalType": "uint256",
          "name": "",
          "type": "uint256"
        }
      ],
      "stateMutability": "view",
      "type": "function"
    },
    {
      "inputs": [],
      "name": "name",
      "outputs": [
        {
          "internalType": "string",
          "name": "",
          "type": "string"
        }
      ],
      "stateMutability": "view",
      "type": "function"
    },
    {
      "inputs": [],
      "name": "owner",
      "outputs": [
        {
          "internalType": "address",
          "name": "",
          "type": "address"
        }
      ],
      "stateMutability": "view",
      "type": "function"
    },
    {
      "inputs": [
        {
          "internalType": "uint256",
          "name": "tokenId",
          "type": "uint256"
        }
      ],
      "name": "ownerOf",
      "outputs": [
        {
          "internalType": "address",
          "name": "",
          "type": "address"
        }
      ],
      "stateMutability": "view",
      "type": "function"
    },
    {
      "inputs": [
        {
          "internalType": "address",
          "name": "spender",
          "type": "address"
        },
        {
          "internalType": "uint256",
          "name": "tokenId",
          "type": "uint256"
        },
        {
          "components": [
            {
              "internalType": "uint256",
              "name": "deadline",
              "type": "uint256"
            },
            {
              "internalType": "uint8",
              "name": "v",
              "type": "uint8"
            },
            {
              "internalType": "bytes32",
              "name": "r",
              "type": "bytes32"
            },
            {
              "internalType": "bytes32",
              "name": "s",
              "type": "bytes32"
            }
          ],
          "internalType": "struct IMedia.EIP712Signature",
          "name": "sig",
          "type": "tuple"
        }
      ],
      "name": "permit",
      "outputs": [],
      "stateMutability": "nonpayable",
      "type": "function"
    },
    {
      "inputs": [
        {
          "internalType": "address",
          "name": "",
          "type": "address"
        },
        {
          "internalType": "uint256",
          "name": "",
          "type": "uint256"
        }
      ],
      "name": "permitNonces",
      "outputs": [
        {
          "internalType": "uint256",
          "name": "",
          "type": "uint256"
        }
      ],
      "stateMutability": "view",
      "type": "function"
    },
    {
      "inputs": [
        {
          "internalType": "uint256",
          "name": "",
          "type": "uint256"
        }
      ],
      "name": "previousTokenOwners",
      "outputs": [
        {
          "internalType": "address",
          "name": "",
          "type": "address"
        }
      ],
      "stateMutability": "view",
      "type": "function"
    },
    {
      "inputs": [
        {
          "internalType": "uint256",
          "name": "tokenId",
          "type": "uint256"
        }
      ],
      "name": "removeAsk",
      "outputs": [],
      "stateMutability": "nonpayable",
      "type": "function"
    },
    {
      "inputs": [
        {
          "internalType": "uint256",
          "name": "tokenId",
          "type": "uint256"
        }
      ],
      "name": "removeBid",
      "outputs": [],
      "stateMutability": "nonpayable",
      "type": "function"
    },
    {
      "inputs": [],
      "name": "renounceOwnership",
      "outputs": [],
      "stateMutability": "nonpayable",
      "type": "function"
    },
    {
      "inputs": [
        {
          "internalType": "uint256",
          "name": "tokenId",
          "type": "uint256"
        }
      ],
      "name": "revokeApproval",
      "outputs": [],
      "stateMutability": "nonpayable",
      "type": "function"
    },
    {
      "inputs": [
        {
          "internalType": "address",
          "name": "from",
          "type": "address"
        },
        {
          "internalType": "address",
          "name": "to",
          "type": "address"
        },
        {
          "internalType": "uint256",
          "name": "tokenId",
          "type": "uint256"
        }
      ],
      "name": "safeTransferFrom",
      "outputs": [],
      "stateMutability": "nonpayable",
      "type": "function"
    },
    {
      "inputs": [
        {
          "internalType": "address",
          "name": "from",
          "type": "address"
        },
        {
          "internalType": "address",
          "name": "to",
          "type": "address"
        },
        {
          "internalType": "uint256",
          "name": "tokenId",
          "type": "uint256"
        },
        {
          "internalType": "bytes",
          "name": "_data",
          "type": "bytes"
        }
      ],
      "name": "safeTransferFrom",
      "outputs": [],
      "stateMutability": "nonpayable",
      "type": "function"
    },
    {
      "inputs": [
        {
          "internalType": "address",
          "name": "operator",
          "type": "address"
        },
        {
          "internalType": "bool",
          "name": "approved",
          "type": "bool"
        }
      ],
      "name": "setApprovalForAll",
      "outputs": [],
      "stateMutability": "nonpayable",
      "type": "function"
    },
    {
      "inputs": [
        {
          "internalType": "uint256",
          "name": "tokenId",
          "type": "uint256"
        },
        {
          "components": [
            {
              "internalType": "uint256",
              "name": "amount",
              "type": "uint256"
            },
            {
              "internalType": "address",
              "name": "currency",
              "type": "address"
            }
          ],
          "internalType": "struct IMarket.Ask",
          "name": "ask",
          "type": "tuple"
        }
      ],
      "name": "setAsk",
      "outputs": [],
      "stateMutability": "nonpayable",
      "type": "function"
    },
    {
      "inputs": [
        {
          "internalType": "uint256",
          "name": "tokenId",
          "type": "uint256"
        },
        {
          "components": [
            {
              "internalType": "uint256",
              "name": "amount",
              "type": "uint256"
            },
            {
              "internalType": "address",
              "name": "currency",
              "type": "address"
            },
            {
              "internalType": "address",
              "name": "bidder",
              "type": "address"
            },
            {
              "internalType": "address",
              "name": "recipient",
              "type": "address"
            },
            {
              "components": [
                {
                  "internalType": "uint256",
                  "name": "value",
                  "type": "uint256"
                }
              ],
              "internalType": "struct Decimal.D256",
              "name": "sellOnShare",
              "type": "tuple"
            }
          ],
          "internalType": "struct IMarket.Bid",
          "name": "bid",
          "type": "tuple"
        }
      ],
      "name": "setBid",
      "outputs": [],
      "stateMutability": "nonpayable",
      "type": "function"
    },
    {
      "inputs": [
        {
          "internalType": "bytes4",
          "name": "interfaceId",
          "type": "bytes4"
        }
      ],
      "name": "supportsInterface",
      "outputs": [
        {
          "internalType": "bool",
          "name": "",
          "type": "bool"
        }
      ],
      "stateMutability": "view",
      "type": "function"
    },
    {
      "inputs": [],
      "name": "symbol",
      "outputs": [
        {
          "internalType": "string",
          "name": "",
          "type": "string"
        }
      ],
      "stateMutability": "view",
      "type": "function"
    },
    {
      "inputs": [
        {
          "internalType": "uint256",
          "name": "index",
          "type": "uint256"
        }
      ],
      "name": "tokenByIndex",
      "outputs": [
        {
          "internalType": "uint256",
          "name": "",
          "type": "uint256"
        }
      ],
      "stateMutability": "view",
      "type": "function"
    },
    {
      "inputs": [
        {
          "internalType": "uint256",
          "name": "",
          "type": "uint256"
        }
      ],
      "name": "tokenContentHashes",
      "outputs": [
        {
          "internalType": "bytes32",
          "name": "",
          "type": "bytes32"
        }
      ],
      "stateMutability": "view",
      "type": "function"
    },
    {
      "inputs": [
        {
          "internalType": "uint256",
          "name": "",
          "type": "uint256"
        }
      ],
      "name": "tokenCreators",
      "outputs": [
        {
          "internalType": "address",
          "name": "",
          "type": "address"
        }
      ],
      "stateMutability": "view",
      "type": "function"
    },
    {
      "inputs": [
        {
          "internalType": "uint256",
          "name": "",
          "type": "uint256"
        }
      ],
      "name": "tokenMetadataHashes",
      "outputs": [
        {
          "internalType": "bytes32",
          "name": "",
          "type": "bytes32"
        }
      ],
      "stateMutability": "view",
      "type": "function"
    },
    {
      "inputs": [
        {
          "internalType": "uint256",
          "name": "tokenId",
          "type": "uint256"
        }
      ],
      "name": "tokenMetadataURI",
      "outputs": [
        {
          "internalType": "string",
          "name": "",
          "type": "string"
        }
      ],
      "stateMutability": "view",
      "type": "function"
    },
    {
      "inputs": [
        {
          "internalType": "address",
          "name": "owner",
          "type": "address"
        },
        {
          "internalType": "uint256",
          "name": "index",
          "type": "uint256"
        }
      ],
      "name": "tokenOfOwnerByIndex",
      "outputs": [
        {
          "internalType": "uint256",
          "name": "",
          "type": "uint256"
        }
      ],
      "stateMutability": "view",
      "type": "function"
    },
    {
      "inputs": [
        {
          "internalType": "uint256",
          "name": "tokenId",
          "type": "uint256"
        }
      ],
      "name": "tokenURI",
      "outputs": [
        {
          "internalType": "string",
          "name": "",
          "type": "string"
        }
      ],
      "stateMutability": "view",
      "type": "function"
    },
    {
      "inputs": [],
      "name": "totalSupply",
      "outputs": [
        {
          "internalType": "uint256",
          "name": "",
          "type": "uint256"
        }
      ],
      "stateMutability": "view",
      "type": "function"
    },
    {
      "inputs": [
        {
          "internalType": "address",
          "name": "from",
          "type": "address"
        },
        {
          "internalType": "address",
          "name": "to",
          "type": "address"
        },
        {
          "internalType": "uint256",
          "name": "tokenId",
          "type": "uint256"
        }
      ],
      "name": "transferFrom",
      "outputs": [],
      "stateMutability": "nonpayable",
      "type": "function"
    },
    {
      "inputs": [
        {
          "internalType": "address",
          "name": "newOwner",
          "type": "address"
        }
      ],
      "name": "transferOwnership",
      "outputs": [],
      "stateMutability": "nonpayable",
      "type": "function"
    },
    {
      "inputs": [
        {
          "internalType": "uint256",
          "name": "tokenId",
          "type": "uint256"
        },
        {
          "internalType": "string",
          "name": "metadataURI",
          "type": "string"
        }
      ],
      "name": "updateTokenMetadataURI",
      "outputs": [],
      "stateMutability": "nonpayable",
      "type": "function"
    },
    {
      "inputs": [
        {
          "internalType": "uint256",
          "name": "tokenId",
          "type": "uint256"
        },
        {
          "internalType": "string",
          "name": "_tokenURI",
          "type": "string"
        }
      ],
      "name": "updateTokenURI",
      "outputs": [],
      "stateMutability": "nonpayable",
      "type": "function"
    }
  ],
  "bytecode": "0x60806040523480156200001157600080fd5b506040516200400b3803806200400b833981016040819052620000349162000344565b8282828282816007908051906020019062000051929190620001eb565b50805162000067906008906020840190620001eb565b506200007a6380ac58cd60e01b62000115565b6200008c63780e9d6360e01b62000115565b50506001600b55600c80546001600160a01b03191633179055620000b7632711173360e11b62000115565b600d80546001600160a01b0319166001600160a01b039290921691909117905550620000ec9050620000e63390565b62000199565b600d80546001600160a01b0319166001600160a01b039290921691909117905550620004209050565b6001600160e01b03198082161415620001745760405162461bcd60e51b815260206004820152601c60248201527f4552433136353a20696e76616c696420696e7465726661636520696400000000604482015260640160405180910390fd5b6001600160e01b0319166000908152602081905260409020805460ff19166001179055565b601880546001600160a01b038381166001600160a01b0319831681179093556040519116919082907f8be0079c531659141344cd1fd0a4f28419497f9722a3daafe3b4186f6b6457e090600090a35050565b828054620001f990620003cd565b90600052602060002090601f0160209004810192826200021d576000855562000268565b82601f106200023857805160ff191683800117855562000268565b8280016001018555821562000268579182015b82811115620002685782518255916020019190600101906200024b565b50620002769291506200027a565b5090565b5b808211156200027657600081556001016200027b565b600082601f830112620002a2578081fd5b81516001600160401b0380821115620002bf57620002bf6200040a565b604051601f8301601f19908116603f01168101908282118183101715620002ea57620002ea6200040a565b8160405283815260209250868385880101111562000306578485fd5b8491505b838210156200032957858201830151818301840152908201906200030a565b838211156200033a57848385830101525b9695505050505050565b60008060006060848603121562000359578283fd5b83516001600160401b038082111562000370578485fd5b6200037e8783880162000291565b9450602086015191508082111562000394578384fd5b50620003a38682870162000291565b604086015190935090506001600160a01b0381168114620003c2578182fd5b809150509250925092565b600181811c90821680620003e257607f821691505b602082108114156200040457634e487b7160e01b600052602260045260246000fd5b50919050565b634e487b7160e01b600052604160045260246000fd5b613bdb80620004306000396000f3fe608060405234801561001057600080fd5b50600436106102955760003560e01c806370a0823111610167578063b320f459116100ce578063e0fd045f11610087578063e0fd045f146105eb578063e985e9c514610614578063f2fde38b14610650578063f6b630f014610663578063f8ccd5de14610676578063fad32197146106a157600080fd5b8063b320f45914610571578063b88d4fde14610584578063ba33939914610597578063c87b56dd146105aa578063ca9c4b33146105bd578063de5236fb146105c457600080fd5b80638da5cb5b116101205780638da5cb5b146104f657806395d89b41146105075780639d8e72601461050f578063a1794bcd14610538578063a22cb4651461054b578063b1e130fc1461055e57600080fd5b806370a082311461049b578063715018a6146104ae57806375682e79146104b657806375cb2672146104c95780637a7a1202146104dc5780637d635502146104ef57600080fd5b806328220f351161020b57806342966c68116101c457806342966c68146104345780634f6ccce7146104475780635bf624221461045a57806362f24b701461046d5780636352211e146104805780636c0360eb1461049357600080fd5b806328220f35146103b957806329e614ee146103cc5780632cca3237146103d45780632f745c59146103e757806330adf81f146103fa57806342842e0e1461042157600080fd5b80630bcd899b1161025d5780630bcd899b146103455780630e2a177814610365578063157c3df91461037857806318160ddd1461038b57806318e97fd11461039357806323b872dd146103a657600080fd5b806301ddc3b51461029a57806301ffc9a7146102cd57806306fdde03146102f0578063081812fc14610305578063095ea7b314610330575b600080fd5b6102ba6102a836600461351a565b60126020526000908152604090205481565b6040519081526020015b60405180910390f35b6102e06102db36600461349e565b6106c1565b60405190151581526020016102c4565b6102f8610701565b6040516102c491906137ed565b61031861031336600461351a565b610793565b6040516001600160a01b0390911681526020016102c4565b61034361033e366004613439565b610820565b005b6102ba61035336600461328f565b60166020526000908152604090205481565b610343610373366004613462565b610936565b6102f861038636600461351a565b610c34565b6102ba610cfe565b6103436103a1366004613554565b610d0f565b6103436103b43660046132db565b610eb9565b6103436103c736600461351a565b610eea565b6102e0610f95565b6103436103e23660046134d6565b610fc5565b6102ba6103f5366004613439565b611001565b6102ba7f49ecf333e5b8c95c40fdafc95c1ad136e8914a8fb55e9dc8bb01eaa83a2df9ad81565b61034361042f3660046132db565b61102a565b61034361044236600461351a565b611045565b6102ba61045536600461351a565b611153565b61034361046836600461363f565b611169565b61034361047b3660046135cb565b61125a565b61031861048e36600461351a565b611328565b6102f8611350565b6102ba6104a936600461328f565b61135f565b6103436113eb565b6103436104c4366004613554565b611421565b6103436104d736600461328f565b6115b2565b6103436104ea3660046133c9565b6116ed565b60006102ba565b6018546001600160a01b0316610318565b6102f8611958565b61031861051d36600461351a565b600e602052600090815260409020546001600160a01b031681565b600d54610318906001600160a01b031681565b61034361055936600461338f565b611967565b61034361056c36600461351a565b611a2c565b61034361057f36600461351a565b611adb565b610343610592366004613316565b611b98565b6103436105a536600461363f565b611bd0565b6102f86105b836600461351a565b611c52565b60016102e0565b6102ba7f2952e482b8e2b192305f87374d7af45dc2eafafe4f50d26a0c02e90f2fdbe14b81565b6103186105f936600461351a565b600f602052600090815260409020546001600160a01b031681565b6102e06106223660046132a9565b6001600160a01b03918216600090815260066020908152604080832093909416825291909152205460ff1690565b61034361065e36600461328f565b611d1c565b610343610671366004613532565b611db7565b6102ba610684366004613439565b601560209081526000928352604080842090915290825290205481565b6102ba6106af36600461351a565b60116020526000908152604090205481565b60006301ffc9a760e01b6001600160e01b0319831614806106fb57506001600160e01b0319821660009081526020819052604090205460ff165b92915050565b60606007805461071090613ab8565b80601f016020809104026020016040519081016040528092919081815260200182805461073c90613ab8565b80156107895780601f1061075e57610100808354040283529160200191610789565b820191906000526020600020905b81548152906001019060200180831161076c57829003601f168201915b5050505050905090565b600061079e82611e6d565b6108045760405162461bcd60e51b815260206004820152602c60248201527f4552433732313a20617070726f76656420717565727920666f72206e6f6e657860448201526b34b9ba32b73a103a37b5b2b760a11b60648201526084015b60405180910390fd5b506000908152600560205260409020546001600160a01b031690565b600061082b82611328565b9050806001600160a01b0316836001600160a01b031614156108995760405162461bcd60e51b815260206004820152602160248201527f4552433732313a20617070726f76616c20746f2063757272656e74206f776e656044820152603960f91b60648201526084016107fb565b336001600160a01b03821614806108b557506108b58133610622565b6109275760405162461bcd60e51b815260206004820152603860248201527f4552433732313a20617070726f76652063616c6c6572206973206e6f74206f7760448201527f6e6572206e6f7220617070726f76656420666f7220616c6c000000000000000060648201526084016107fb565b6109318383611e7a565b505050565b6002600b5414156109595760405162461bcd60e51b81526004016107fb9061398e565b6002600b558161096881611e6d565b6109845760405162461bcd60e51b81526004016107fb90613957565b81511580610993575081514211155b6109d75760405162461bcd60e51b81526020600482015260156024820152741359591a584e8814195c9b5a5d08195e1c1a5c9959605a1b60448201526064016107fb565b6001600160a01b038416610a2d5760405162461bcd60e51b815260206004820152601c60248201527f4d656469613a207370656e6465722063616e6e6f74206265203078300000000060448201526064016107fb565b6000610a37611ee8565b90506000817f49ecf333e5b8c95c40fdafc95c1ad136e8914a8fb55e9dc8bb01eaa83a2df9ad8787601585610a6b83611328565b6001600160a01b03168152602080820192909252604090810160009081208c82529092528120805491610a9d83613aed565b9091555088516040805160208101969096526001600160a01b03909416938501939093526060840191909152608083015260a082015260c00160405160208183030381529060405280519060200120604051602001610b1392919061190160f01b81526002810192909252602282015260420190565b604051602081830303815290604052805190602001209050600060018286602001518760400151886060015160405160008152602001604052604051610b75949392919093845260ff9290921660208401526040830152606082015260800190565b6020604051602081039080840390855afa158015610b97573d6000803e3d6000fd5b5050604051601f1901519150506001600160a01b03811615801590610bd55750806001600160a01b0316610bca87611328565b6001600160a01b0316145b610c1c5760405162461bcd60e51b81526020600482015260186024820152771359591a584e8814da59db985d1d5c99481a5b9d985b1a5960421b60448201526064016107fb565b610c268787611e7a565b50506001600b555050505050565b60608180610c4160175490565b11610c5e5760405162461bcd60e51b81526004016107fb90613800565b60008381526013602052604090208054610c7790613ab8565b80601f0160208091040260200160405190810160405280929190818152602001828054610ca390613ab8565b8015610cf05780601f10610cc557610100808354040283529160200191610cf0565b820191906000526020600020905b815481529060010190602001808311610cd357829003601f168201915b505050505091505b50919050565b6000610d0a6002611fb8565b905090565b6002600b541415610d325760405162461bcd60e51b81526004016107fb9061398e565b6002600b553383610d438282611fc3565b610d5f5760405162461bcd60e51b81526004016107fb9061389a565b6000858152601160205260409020548590610dd75760405162461bcd60e51b815260206004820152603260248201527f4d656469613a20746f6b656e20646f6573206e6f7420686176652068617368206044820152711bd98818dc99585d19590818dbdb9d195b9d60721b60648201526084016107fb565b84848080601f01602080910402602001604051908101604052809392919081815260200183838082843760009201919091525050825115159150610e2f90505760405162461bcd60e51b81526004016107fb906139c5565b610e6f8787878080601f0160208091040260200160405190810160405280939291908181526020018383808284376000920191909152506120ad92505050565b867f702fe2dc2dc0f68023540aa4a1e11811c0f29112f6ebf01e61b90538e4f29810338888604051610ea3939291906137ad565b60405180910390a250506001600b555050505050565b610ec33382611fc3565b610edf5760405162461bcd60e51b81526004016107fb90613906565b610931838383612136565b6002600b541415610f0d5760405162461bcd60e51b81526004016107fb9061398e565b6002600b553381610f1e8282611fc3565b610f3a5760405162461bcd60e51b81526004016107fb9061389a565b600d546040516328220f3560e01b8152600481018590526001600160a01b03909116906328220f35906024015b600060405180830381600087803b158015610f8157600080fd5b505af1158015610c26573d6000803e3d6000fd5b6018546000906001600160a01b03163314610fc25760405162461bcd60e51b81526004016107fb906138d1565b90565b6002600b541415610fe85760405162461bcd60e51b81526004016107fb9061398e565b6002600b55610ff833838361219f565b50506001600b55565b6001600160a01b03821660009081526001602052604081206110239083612478565b9392505050565b61093183838360405180602001604052806000815250611b98565b6002600b5414156110685760405162461bcd60e51b81526004016107fb9061398e565b6002600b558061107781611e6d565b6110935760405162461bcd60e51b81526004016107fb90613957565b338261109f8282611fc3565b6110bb5760405162461bcd60e51b81526004016107fb9061389a565b60006110c685611328565b6000868152600f60205260409020549091506001600160a01b0380831691161461113e5760405162461bcd60e51b8152602060048201526024808201527f4d656469613a206f776e6572206973206e6f742063726561746f72206f66206d6044820152636564696160e01b60648201526084016107fb565b61114785612484565b50506001600b55505050565b60008061116160028461256d565b509392505050565b6002600b54141561118c5760405162461bcd60e51b81526004016107fb9061398e565b6002600b558161119b81611e6d565b6111b75760405162461bcd60e51b81526004016107fb90613957565b81604001516001600160a01b0316336001600160a01b0316146112265760405162461bcd60e51b815260206004820152602160248201527f4d61726b65743a20426964646572206d757374206265206d73672073656e64656044820152603960f91b60648201526084016107fb565b600d546040516317b6b0d360e31b81526001600160a01b039091169063bdb5869890610f6790869086903390600401613a1f565b6002600b54141561127d5760405162461bcd60e51b81526004016107fb9061398e565b6002600b55338261128e8282611fc3565b6112aa5760405162461bcd60e51b81526004016107fb9061389a565b600d5460405163062f24b760e41b8152600481018690528451602482015260208501516001600160a01b039081166044830152909116906362f24b70906064015b600060405180830381600087803b15801561130557600080fd5b505af1158015611319573d6000803e3d6000fd5b50506001600b55505050505050565b60006106fb82604051806060016040528060298152602001613b7d6029913960029190612589565b6060600a805461071090613ab8565b60006001600160a01b0382166113ca5760405162461bcd60e51b815260206004820152602a60248201527f4552433732313a2062616c616e636520717565727920666f7220746865207a65604482015269726f206164647265737360b01b60648201526084016107fb565b6001600160a01b03821660009081526001602052604090206106fb90612596565b6018546001600160a01b031633146114155760405162461bcd60e51b81526004016107fb906138d1565b61141f60006125a0565b565b6002600b5414156114445760405162461bcd60e51b81526004016107fb9061398e565b6002600b5533836114558282611fc3565b6114715760405162461bcd60e51b81526004016107fb9061389a565b60008581526012602052604090205485906114e65760405162461bcd60e51b815260206004820152602f60248201527f4d656469613a20746f6b656e20646f6573206e6f74206861766520686173682060448201526e6f6620697473206d6574616461746160881b60648201526084016107fb565b84848080601f0160208091040260200160405190810160405280939291908181526020018383808284376000920191909152505082511515915061153e90505760405162461bcd60e51b81526004016107fb906139c5565b61157e8787878080601f0160208091040260200160405190810160405280939291908181526020018383808284376000920191909152506125f292505050565b867fe3df41127db820c79e5b8d541a63e40e3e97b9af96f7a50bded13091b70df9ae338888604051610ea3939291906137ad565b600c546001600160a01b031633146116005760405162461bcd60e51b815260206004820152601160248201527026b2b234b09d1027b7363c9037bbb732b960791b60448201526064016107fb565b600d546001600160a01b0316156116595760405162461bcd60e51b815260206004820152601960248201527f4d656469613a20416c726561647920636f6e666967757265640000000000000060448201526064016107fb565b600d546001600160a01b03166116cb5760405162461bcd60e51b815260206004820152603160248201527f4d61726b65743a2063616e6e6f7420736574206d6564696120636f6e7472616360448201527074206173207a65726f206164647265737360781b60648201526084016107fb565b600d80546001600160a01b0319166001600160a01b0392909216919091179055565b6002600b5414156117105760405162461bcd60e51b81526004016107fb9061398e565b6002600b5580511580611724575080514211155b6117705760405162461bcd60e51b815260206004820152601a60248201527f4d656469613a206d696e7457697468536967206578706972656400000000000060448201526064016107fb565b600061177a611ee8565b6040808601516060870151602080880151516001600160a01b038b16600090815260169092529381208054959650909486947f2952e482b8e2b192305f87374d7af45dc2eafafe4f50d26a0c02e90f2fdbe14b949392909190876117dd83613aed565b9091555088516040805160208101979097528601949094526060850192909252608084015260a083015260c082015260e0016040516020818303038152906040528051906020012060405160200161184c92919061190160f01b81526002810192909252602282015260420190565b6040516020818303038152906040528051906020012090506000600182856020015186604001518760600151604051600081526020016040526040516118ae949392919093845260ff9290921660208401526040830152606082015260800190565b6020604051602081039080840390855afa1580156118d0573d6000803e3d6000fd5b5050604051601f1901519150506001600160a01b038116158015906119065750806001600160a01b0316876001600160a01b0316145b61194d5760405162461bcd60e51b81526020600482015260186024820152771359591a584e8814da59db985d1d5c99481a5b9d985b1a5960421b60448201526064016107fb565b610c2681878761219f565b60606008805461071090613ab8565b6001600160a01b0382163314156119c05760405162461bcd60e51b815260206004820152601960248201527f4552433732313a20617070726f766520746f2063616c6c65720000000000000060448201526064016107fb565b3360008181526006602090815260408083206001600160a01b03871680855290835292819020805460ff191686151590811790915590519081529192917f17307eab39ab6107e8899845ad3d59bd9653f200f220920489ca2b5937696c31910160405180910390a35050565b6002600b541415611a4f5760405162461bcd60e51b81526004016107fb9061398e565b6002600b55611a5d81610793565b6001600160a01b0316336001600160a01b031614611ac85760405162461bcd60e51b815260206004820152602260248201527f4d656469613a2063616c6c6572206e6f7420617070726f766564206164647265604482015261737360f01b60648201526084016107fb565b611ad3600082611e7a565b506001600b55565b6002600b541415611afe5760405162461bcd60e51b81526004016107fb9061398e565b6002600b558080611b0e60175490565b11611b2b5760405162461bcd60e51b81526004016107fb90613800565b600d5460405163776a083560e01b8152600481018490523360248201526001600160a01b039091169063776a083590604401600060405180830381600087803b158015611b7757600080fd5b505af1158015611b8b573d6000803e3d6000fd5b50506001600b5550505050565b611ba23383611fc3565b611bbe5760405162461bcd60e51b81526004016107fb90613906565b611bca84848484612637565b50505050565b6002600b541415611bf35760405162461bcd60e51b81526004016107fb9061398e565b6002600b553382611c048282611fc3565b611c205760405162461bcd60e51b81526004016107fb9061389a565b600d5460405163ba33939960e01b81526001600160a01b039091169063ba339399906112eb9087908790600401613a0b565b60608180611c5f60175490565b11611c7c5760405162461bcd60e51b81526004016107fb90613800565b60008381526009602052604081208054611c9590613ab8565b80601f0160208091040260200160405190810160405280929190818152602001828054611cc190613ab8565b8015611d0e5780601f10611ce357610100808354040283529160200191611d0e565b820191906000526020600020905b815481529060010190602001808311611cf157829003601f168201915b509398975050505050505050565b6018546001600160a01b03163314611d465760405162461bcd60e51b81526004016107fb906138d1565b6001600160a01b038116611dab5760405162461bcd60e51b815260206004820152602660248201527f4f776e61626c653a206e6577206f776e657220697320746865207a65726f206160448201526564647265737360d01b60648201526084016107fb565b611db4816125a0565b50565b600d546001600160a01b03163314611e115760405162461bcd60e51b815260206004820152601b60248201527f4d656469613a206f6e6c79206d61726b657420636f6e7472616374000000000060448201526064016107fb565b611e1a82611328565b6000838152600e6020526040902080546001600160a01b0319166001600160a01b0392909216919091179055611e69611e5283611328565b828460405180602001604052806000815250612637565b5050565b60006106fb60028361266a565b600081815260056020526040902080546001600160a01b0319166001600160a01b0384169081179091558190611eaf82611328565b6001600160a01b03167f8c5be1e5ebec7d5bd14f71427d1e84f3dd0314c0f7b2291e5b200ac8c7c3b92560405160405180910390a45050565b604080518082018252600981526843727970746f5a6f6f60b81b6020918201528151808301835260018152603160f81b9082015281517f8b73c3c69bb8fe3d512ecc4cf759cc79239f7b179b0ffacaa9a75d522b39400f818301527fc546bd27cb87e09030592d50b7a6eb23f56c4c0a6444469d7593ecdf7b622945818401527fc89efdaa54c0f20c7adf612882df0950f5a951637e0307cdcb4c672f298b8bc660608201524660808201523060a0808301919091528351808303909101815260c0909101909252815191012090565b60006106fb82612676565b6000611fce82611e6d565b61202f5760405162461bcd60e51b815260206004820152602c60248201527f4552433732313a206f70657261746f7220717565727920666f72206e6f6e657860448201526b34b9ba32b73a103a37b5b2b760a11b60648201526084016107fb565b600061203a83611328565b9050806001600160a01b0316846001600160a01b031614806120755750836001600160a01b031661206a84610793565b6001600160a01b0316145b806120a557506001600160a01b0380821660009081526006602090815260408083209388168352929052205460ff165b949350505050565b6120b682611e6d565b6121175760405162461bcd60e51b815260206004820152602c60248201527f4552433732314d657461646174613a2055524920736574206f66206e6f6e657860448201526b34b9ba32b73a103a37b5b2b760a11b60648201526084016107fb565b6000828152600960209081526040909120825161093192840190612f87565b600d546040516328220f3560e01b8152600481018390526001600160a01b03909116906328220f3590602401600060405180830381600087803b15801561217c57600080fd5b505af1158015612190573d6000803e3d6000fd5b50505050610931838383612681565b815180516121bf5760405162461bcd60e51b81526004016107fb906139c5565b602083015180516121e25760405162461bcd60e51b81526004016107fb906139c5565b604084015161223f5760405162461bcd60e51b8152602060048201526024808201527f4d656469613a20636f6e74656e742068617368206d757374206265206e6f6e2d6044820152637a65726f60e01b60648201526084016107fb565b60408085015160009081526014602052205460ff16156122c75760405162461bcd60e51b815260206004820152603e60248201527f4d656469613a206120746f6b656e2068617320616c7265616479206265656e2060448201527f637265617465642077697468207468697320636f6e74656e742068617368000060648201526084016107fb565b60608401516123265760405162461bcd60e51b815260206004820152602560248201527f4d656469613a206d657461646174612068617368206d757374206265206e6f6e6044820152642d7a65726f60d81b60648201526084016107fb565b600061233160175490565b905061233d8682612802565b61234b601780546001019055565b61235981866040015161281c565b612367818660600151612855565b6123758186602001516125f2565b6123838186600001516120ad565b6001600160a01b03861660009081526010602052604090206123a5908261288e565b50604085810151600090815260146020908152828220805460ff19166001179055838252600f815282822080546001600160a01b038b81166001600160a01b03199283168117909355600e84529385902080549091169091179055600d5483516375aab41d60e11b8152600481018690528851516024820152918801515160448301529287015151606482015291169063eb55683a90608401600060405180830381600087803b15801561245857600080fd5b505af115801561246c573d6000803e3d6000fd5b50505050505050505050565b6000611023838361289a565b6000818152600960205260408120805461249d90613ab8565b80601f01602080910402602001604051908101604052809291908181526020018280546124c990613ab8565b80156125165780601f106124eb57610100808354040283529160200191612516565b820191906000526020600020905b8154815290600101906020018083116124f957829003601f168201915b50505050509050612526826128d2565b80511561254e576000828152600960209081526040909120825161254c92840190612f87565b505b506000908152600e6020526040902080546001600160a01b0319169055565b600080808061257c868661298c565b9097909650945050505050565b60006120a58484846129b7565b60006106fb825490565b601880546001600160a01b038381166001600160a01b0319831681179093556040519116919082907f8be0079c531659141344cd1fd0a4f28419497f9722a3daafe3b4186f6b6457e090600090a35050565b816125fc81611e6d565b6126185760405162461bcd60e51b81526004016107fb90613957565b60008381526013602090815260409091208351611bca92850190612f87565b612642848484612136565b61264e84848484612a03565b611bca5760405162461bcd60e51b81526004016107fb90613848565b60006110238383612ad4565b60006106fb82612596565b826001600160a01b031661269482611328565b6001600160a01b0316146126fc5760405162461bcd60e51b815260206004820152602960248201527f4552433732313a207472616e73666572206f6620746f6b656e2074686174206960448201526839903737ba1037bbb760b91b60648201526084016107fb565b6001600160a01b03821661275e5760405162461bcd60e51b8152602060048201526024808201527f4552433732313a207472616e7366657220746f20746865207a65726f206164646044820152637265737360e01b60648201526084016107fb565b612769600082611e7a565b6001600160a01b038316600090815260016020526040902061278b9082612ae0565b506001600160a01b03821660009081526001602052604090206127ae908261288e565b506127bb60028284612aec565b5080826001600160a01b0316846001600160a01b03167fddf252ad1be2c89b69c2b068fc378daa952ba7f163c4a11628f55a4df523b3ef60405160405180910390a4505050565b611e69828260405180602001604052806000815250612b02565b8161282681611e6d565b6128425760405162461bcd60e51b81526004016107fb90613957565b5060009182526011602052604090912055565b8161285f81611e6d565b61287b5760405162461bcd60e51b81526004016107fb90613957565b5060009182526012602052604090912055565b60006110238383612b35565b60008260000182815481106128bf57634e487b7160e01b600052603260045260246000fd5b9060005260206000200154905092915050565b60006128dd82611328565b90506128ea600083611e7a565b6000828152600960205260409020805461290390613ab8565b1590506129215760008281526009602052604081206129219161300b565b6001600160a01b03811660009081526001602052604090206129439083612ae0565b5061294f600283612b84565b5060405182906000906001600160a01b038416907fddf252ad1be2c89b69c2b068fc378daa952ba7f163c4a11628f55a4df523b3ef908390a45050565b6000808061299a8585612478565b600081815260029690960160205260409095205494959350505050565b6000828152600284016020526040812054801515806129db57506129db8585612ad4565b83906129fa5760405162461bcd60e51b81526004016107fb91906137ed565b50949350505050565b60006001600160a01b0384163b612a1c575060016120a5565b6000612a9d630a85bd0160e11b33888787604051602401612a409493929190613770565b604051602081830303815290604052906001600160e01b0319166020820180516001600160e01b038381831617835250505050604051806060016040528060328152602001613b4b603291396001600160a01b0388169190612b90565b9050600081806020019051810190612ab591906134ba565b6001600160e01b031916630a85bd0160e11b1492505050949350505050565b60006110238383612b9f565b60006110238383612bb7565b60006120a584846001600160a01b038516612cd4565b612b0c8383612cf1565b612b196000848484612a03565b6109315760405162461bcd60e51b81526004016107fb90613848565b6000818152600183016020526040812054612b7c575081546001818101845560008481526020808220909301849055845484825282860190935260409020919091556106fb565b5060006106fb565b60006110238383612e09565b60606120a58484600085612e26565b60008181526001830160205260408120541515611023565b60008181526001830160205260408120548015612cca576000612bdb600183613a75565b8554909150600090612bef90600190613a75565b9050818114612c70576000866000018281548110612c1d57634e487b7160e01b600052603260045260246000fd5b9060005260206000200154905080876000018481548110612c4e57634e487b7160e01b600052603260045260246000fd5b6000918252602080832090910192909255918252600188019052604090208390555b8554869080612c8f57634e487b7160e01b600052603160045260246000fd5b6001900381819060005260206000200160009055905585600101600086815260200190815260200160002060009055600193505050506106fb565b60009150506106fb565b600082815260028401602052604081208290556120a5848461288e565b6001600160a01b038216612d475760405162461bcd60e51b815260206004820181905260248201527f4552433732313a206d696e7420746f20746865207a65726f206164647265737360448201526064016107fb565b612d5081611e6d565b15612d9d5760405162461bcd60e51b815260206004820152601c60248201527f4552433732313a20746f6b656e20616c7265616479206d696e7465640000000060448201526064016107fb565b6001600160a01b0382166000908152600160205260409020612dbf908261288e565b50612dcc60028284612aec565b5060405181906001600160a01b038416906000907fddf252ad1be2c89b69c2b068fc378daa952ba7f163c4a11628f55a4df523b3ef908290a45050565b600081815260028301602052604081208190556110238383612ae0565b606082471015612e875760405162461bcd60e51b815260206004820152602660248201527f416464726573733a20696e73756666696369656e742062616c616e636520666f6044820152651c8818d85b1b60d21b60648201526084016107fb565b843b612ed55760405162461bcd60e51b815260206004820152601d60248201527f416464726573733a2063616c6c20746f206e6f6e2d636f6e747261637400000060448201526064016107fb565b600080866001600160a01b03168587604051612ef19190613754565b60006040518083038185875af1925050503d8060008114612f2e576040519150601f19603f3d011682016040523d82523d6000602084013e612f33565b606091505b5091509150612f43828286612f4e565b979650505050505050565b60608315612f5d575081611023565b825115612f6d5782518084602001fd5b8160405162461bcd60e51b81526004016107fb91906137ed565b828054612f9390613ab8565b90600052602060002090601f016020900481019282612fb55760008555612ffb565b82601f10612fce57805160ff1916838001178555612ffb565b82800160010185558215612ffb579182015b82811115612ffb578251825591602001919060010190612fe0565b50613007929150613041565b5090565b50805461301790613ab8565b6000825580601f10613027575050565b601f016020900490600052602060002090810190611db491905b5b808211156130075760008155600101613042565b600067ffffffffffffffff8084111561307157613071613b1e565b604051601f8501601f19908116603f0116810190828211818310171561309957613099613b1e565b816040528093508581528686860111156130b257600080fd5b858560208301376000602087830101525050509392505050565b80356001600160a01b03811681146130e357600080fd5b919050565b600082601f8301126130f8578081fd5b61102383833560208501613056565b600060608284031215613118578081fd5b6040516060810181811067ffffffffffffffff8211171561313b5761313b613b1e565b60405290508061314b8484613178565b815261315a8460208501613178565b602082015261316c8460408501613178565b60408201525092915050565b600060208284031215613189578081fd5b6040516020810181811067ffffffffffffffff821117156131ac576131ac613b1e565b6040529135825250919050565b6000608082840312156131ca578081fd5b6131d2613a4c565b905081358152602082013560ff811681146131ec57600080fd5b80602083015250604082013560408201526060820135606082015292915050565b60006080828403121561321e578081fd5b613226613a4c565b9050813567ffffffffffffffff8082111561324057600080fd5b61324c858386016130e8565b8352602084013591508082111561326257600080fd5b5061326f848285016130e8565b602083015250604082013560408201526060820135606082015292915050565b6000602082840312156132a0578081fd5b611023826130cc565b600080604083850312156132bb578081fd5b6132c4836130cc565b91506132d2602084016130cc565b90509250929050565b6000806000606084860312156132ef578081fd5b6132f8846130cc565b9250613306602085016130cc565b9150604084013590509250925092565b6000806000806080858703121561332b578081fd5b613334856130cc565b9350613342602086016130cc565b925060408501359150606085013567ffffffffffffffff811115613364578182fd5b8501601f81018713613374578182fd5b61338387823560208401613056565b91505092959194509250565b600080604083850312156133a1578182fd5b6133aa836130cc565b9150602083013580151581146133be578182fd5b809150509250929050565b60008060008061012085870312156133df578182fd5b6133e8856130cc565b9350602085013567ffffffffffffffff811115613403578283fd5b61340f8782880161320d565b93505061341f8660408701613107565b915061342e8660a087016131b9565b905092959194509250565b6000806040838503121561344b578182fd5b613454836130cc565b946020939093013593505050565b600080600060c08486031215613476578081fd5b61347f846130cc565b92506020840135915061349585604086016131b9565b90509250925092565b6000602082840312156134af578081fd5b813561102381613b34565b6000602082840312156134cb578081fd5b815161102381613b34565b600080608083850312156134e8578182fd5b823567ffffffffffffffff8111156134fe578283fd5b61350a8582860161320d565b9250506132d28460208501613107565b60006020828403121561352b578081fd5b5035919050565b60008060408385031215613544578182fd5b823591506132d2602084016130cc565b600080600060408486031215613568578081fd5b83359250602084013567ffffffffffffffff80821115613586578283fd5b818601915086601f830112613599578283fd5b8135818111156135a7578384fd5b8760208285010111156135b8578384fd5b6020830194508093505050509250925092565b60008082840360608112156135de578283fd5b833592506040601f19820112156135f3578182fd5b506040516040810181811067ffffffffffffffff8211171561361757613617613b1e565b80604052506020840135815261362f604085016130cc565b6020820152809150509250929050565b60008082840360c0811215613652578283fd5b8335925060a0601f1982011215613667578182fd5b5060405160a0810181811067ffffffffffffffff8211171561368b5761368b613b1e565b8060405250602084013581526136a3604085016130cc565b60208201526136b4606085016130cc565b60408201526136c5608085016130cc565b60608201526136d78560a08601613178565b6080820152809150509250929050565b600081518084526136ff816020860160208601613a8c565b601f01601f19169290920160200192915050565b805182526020808201516001600160a01b03908116918401919091526040808301518216908401526060808301519091169083015260809081015151910152565b60008251613766818460208701613a8c565b9190910192915050565b6001600160a01b03858116825284166020820152604081018390526080606082018190526000906137a3908301846136e7565b9695505050505050565b6001600160a01b03841681526040602082018190528101829052818360608301376000818301606090810191909152601f909201601f1916010192915050565b60208152600061102360208301846136e7565b60208082526028908201527f4d656469613a20746f6b656e2077697468207468617420696420646f6573206e6040820152671bdd08195e1a5cdd60c21b606082015260800190565b60208082526032908201527f4552433732313a207472616e7366657220746f206e6f6e20455243373231526560408201527131b2b4bb32b91034b6b83632b6b2b73a32b960711b606082015260800190565b6020808252601d908201527f4d656469613a204f6e6c7920617070726f766564206f72206f776e6572000000604082015260600190565b6020808252818101527f4f776e61626c653a2063616c6c6572206973206e6f7420746865206f776e6572604082015260600190565b60208082526031908201527f4552433732313a207472616e736665722063616c6c6572206973206e6f74206f6040820152701ddb995c881b9bdc88185c1c1c9bdd9959607a1b606082015260800190565b60208082526018908201527f4d656469613a206e6f6e6578697374656e7420746f6b656e0000000000000000604082015260600190565b6020808252601f908201527f5265656e7472616e637947756172643a207265656e7472616e742063616c6c00604082015260600190565b60208082526026908201527f4d656469613a2073706563696669656420757269206d757374206265206e6f6e6040820152652d656d70747960d01b606082015260800190565b82815260c081016110236020830184613713565b83815260e08101613a336020830185613713565b6001600160a01b039290921660c0919091015292915050565b6040516080810167ffffffffffffffff81118282101715613a6f57613a6f613b1e565b60405290565b600082821015613a8757613a87613b08565b500390565b60005b83811015613aa7578181015183820152602001613a8f565b83811115611bca5750506000910152565b600181811c90821680613acc57607f821691505b60208210811415610cf857634e487b7160e01b600052602260045260246000fd5b6000600019821415613b0157613b01613b08565b5060010190565b634e487b7160e01b600052601160045260246000fd5b634e487b7160e01b600052604160045260246000fd5b6001600160e01b031981168114611db457600080fdfe4552433732313a207472616e7366657220746f206e6f6e20455243373231526563656976657220696d706c656d656e7465724552433732313a206f776e657220717565727920666f72206e6f6e6578697374656e7420746f6b656ea26469706673582212205cb3f2b28d0f18d6c19805312b43b761586bb762d7c271d41e1a732986383a9164736f6c63430008040033",
  "linkReferences": {},
  "deployedLinkReferences": {}
}