{
  "_format": "hh-sol-artifact-1",
  "contractName": "Media",
  "sourceName": "src/Media.sol",
  "abi": [
    {
      "inputs": [
        {
          "internalType": "address",
          "name": "marketContractAddr",
          "type": "address"
        }
      ],
      "stateMutability": "nonpayable",
      "type": "constructor"
    },
    {
      "anonymous": false,
      "inputs": [
        {
          "indexed": true,
          "internalType": "address",
          "name": "owner",
          "type": "address"
        },
        {
          "indexed": true,
          "internalType": "address",
          "name": "approved",
          "type": "address"
        },
        {
          "indexed": true,
          "internalType": "uint256",
          "name": "tokenId",
          "type": "uint256"
        }
      ],
      "name": "Approval",
      "type": "event"
    },
    {
      "anonymous": false,
      "inputs": [
        {
          "indexed": true,
          "internalType": "address",
          "name": "owner",
          "type": "address"
        },
        {
          "indexed": true,
          "internalType": "address",
          "name": "operator",
          "type": "address"
        },
        {
          "indexed": false,
          "internalType": "bool",
          "name": "approved",
          "type": "bool"
        }
      ],
      "name": "ApprovalForAll",
      "type": "event"
    },
    {
      "anonymous": false,
      "inputs": [
        {
          "indexed": true,
          "internalType": "uint256",
          "name": "_tokenId",
          "type": "uint256"
        },
        {
          "indexed": false,
          "internalType": "address",
          "name": "owner",
          "type": "address"
        },
        {
          "indexed": false,
          "internalType": "string",
          "name": "_uri",
          "type": "string"
        }
      ],
      "name": "TokenMetadataURIUpdated",
      "type": "event"
    },
    {
      "anonymous": false,
      "inputs": [
        {
          "indexed": true,
          "internalType": "uint256",
          "name": "_tokenId",
          "type": "uint256"
        },
        {
          "indexed": false,
          "internalType": "address",
          "name": "owner",
          "type": "address"
        },
        {
          "indexed": false,
          "internalType": "string",
          "name": "_uri",
          "type": "string"
        }
      ],
      "name": "TokenURIUpdated",
      "type": "event"
    },
    {
      "anonymous": false,
      "inputs": [
        {
          "indexed": true,
          "internalType": "address",
          "name": "from",
          "type": "address"
        },
        {
          "indexed": true,
          "internalType": "address",
          "name": "to",
          "type": "address"
        },
        {
          "indexed": true,
          "internalType": "uint256",
          "name": "tokenId",
          "type": "uint256"
        }
      ],
      "name": "Transfer",
      "type": "event"
    },
    {
      "inputs": [],
      "name": "MINT_WITH_SIG_TYPEHASH",
      "outputs": [
        {
          "internalType": "bytes32",
          "name": "",
          "type": "bytes32"
        }
      ],
      "stateMutability": "view",
      "type": "function"
    },
    {
      "inputs": [],
      "name": "PERMIT_TYPEHASH",
      "outputs": [
        {
          "internalType": "bytes32",
          "name": "",
          "type": "bytes32"
        }
      ],
      "stateMutability": "view",
      "type": "function"
    },
    {
      "inputs": [
        {
          "internalType": "uint256",
          "name": "tokenId",
          "type": "uint256"
        },
        {
          "components": [
            {
              "internalType": "uint256",
              "name": "amount",
              "type": "uint256"
            },
            {
              "internalType": "address",
              "name": "currency",
              "type": "address"
            },
            {
              "internalType": "address",
              "name": "bidder",
              "type": "address"
            },
            {
              "internalType": "address",
              "name": "recipient",
              "type": "address"
            },
            {
              "components": [
                {
                  "internalType": "uint256",
                  "name": "value",
                  "type": "uint256"
                }
              ],
              "internalType": "struct Decimal.D256",
              "name": "sellOnShare",
              "type": "tuple"
            }
          ],
          "internalType": "struct IMarket.Bid",
          "name": "bid",
          "type": "tuple"
        }
      ],
      "name": "acceptBid",
      "outputs": [],
      "stateMutability": "nonpayable",
      "type": "function"
    },
    {
      "inputs": [
        {
          "internalType": "address",
          "name": "to",
          "type": "address"
        },
        {
          "internalType": "uint256",
          "name": "tokenId",
          "type": "uint256"
        }
      ],
      "name": "approve",
      "outputs": [],
      "stateMutability": "nonpayable",
      "type": "function"
    },
    {
      "inputs": [
        {
          "internalType": "uint256",
          "name": "tokenId",
          "type": "uint256"
        },
        {
          "internalType": "address",
          "name": "recipient",
          "type": "address"
        }
      ],
      "name": "auctionTransfer",
      "outputs": [],
      "stateMutability": "nonpayable",
      "type": "function"
    },
    {
      "inputs": [
        {
          "internalType": "address",
          "name": "owner",
          "type": "address"
        }
      ],
      "name": "balanceOf",
      "outputs": [
        {
          "internalType": "uint256",
          "name": "",
          "type": "uint256"
        }
      ],
      "stateMutability": "view",
      "type": "function"
    },
    {
      "inputs": [],
      "name": "baseURI",
      "outputs": [
        {
          "internalType": "string",
          "name": "",
          "type": "string"
        }
      ],
      "stateMutability": "view",
      "type": "function"
    },
    {
      "inputs": [
        {
          "internalType": "uint256",
          "name": "tokenId",
          "type": "uint256"
        }
      ],
      "name": "burn",
      "outputs": [],
      "stateMutability": "nonpayable",
      "type": "function"
    },
    {
      "inputs": [
        {
          "internalType": "uint256",
          "name": "tokenId",
          "type": "uint256"
        }
      ],
      "name": "getApproved",
      "outputs": [
        {
          "internalType": "address",
          "name": "",
          "type": "address"
        }
      ],
      "stateMutability": "view",
      "type": "function"
    },
    {
      "inputs": [
        {
          "internalType": "address",
          "name": "owner",
          "type": "address"
        },
        {
          "internalType": "address",
          "name": "operator",
          "type": "address"
        }
      ],
      "name": "isApprovedForAll",
      "outputs": [
        {
          "internalType": "bool",
          "name": "",
          "type": "bool"
        }
      ],
      "stateMutability": "view",
      "type": "function"
    },
    {
      "inputs": [],
      "name": "marketContract",
      "outputs": [
        {
          "internalType": "address",
          "name": "",
          "type": "address"
        }
      ],
      "stateMutability": "view",
      "type": "function"
    },
    {
      "inputs": [
        {
          "components": [
            {
              "internalType": "string",
              "name": "tokenURI",
              "type": "string"
            },
            {
              "internalType": "string",
              "name": "metadataURI",
              "type": "string"
            },
            {
              "internalType": "bytes32",
              "name": "contentHash",
              "type": "bytes32"
            },
            {
              "internalType": "bytes32",
              "name": "metadataHash",
              "type": "bytes32"
            }
          ],
          "internalType": "struct IMedia.MediaData",
          "name": "data",
          "type": "tuple"
        },
        {
          "components": [
            {
              "components": [
                {
                  "internalType": "uint256",
                  "name": "value",
                  "type": "uint256"
                }
              ],
              "internalType": "struct Decimal.D256",
              "name": "prevOwner",
              "type": "tuple"
            },
            {
              "components": [
                {
                  "internalType": "uint256",
                  "name": "value",
                  "type": "uint256"
                }
              ],
              "internalType": "struct Decimal.D256",
              "name": "creator",
              "type": "tuple"
            },
            {
              "components": [
                {
                  "internalType": "uint256",
                  "name": "value",
                  "type": "uint256"
                }
              ],
              "internalType": "struct Decimal.D256",
              "name": "owner",
              "type": "tuple"
            }
          ],
          "internalType": "struct IMarket.BidShares",
          "name": "bidShares",
          "type": "tuple"
        }
      ],
      "name": "mint",
      "outputs": [],
      "stateMutability": "nonpayable",
      "type": "function"
    },
    {
      "inputs": [
        {
          "internalType": "address",
          "name": "creator",
          "type": "address"
        },
        {
          "components": [
            {
              "internalType": "string",
              "name": "tokenURI",
              "type": "string"
            },
            {
              "internalType": "string",
              "name": "metadataURI",
              "type": "string"
            },
            {
              "internalType": "bytes32",
              "name": "contentHash",
              "type": "bytes32"
            },
            {
              "internalType": "bytes32",
              "name": "metadataHash",
              "type": "bytes32"
            }
          ],
          "internalType": "struct IMedia.MediaData",
          "name": "data",
          "type": "tuple"
        },
        {
          "components": [
            {
              "components": [
                {
                  "internalType": "uint256",
                  "name": "value",
                  "type": "uint256"
                }
              ],
              "internalType": "struct Decimal.D256",
              "name": "prevOwner",
              "type": "tuple"
            },
            {
              "components": [
                {
                  "internalType": "uint256",
                  "name": "value",
                  "type": "uint256"
                }
              ],
              "internalType": "struct Decimal.D256",
              "name": "creator",
              "type": "tuple"
            },
            {
              "components": [
                {
                  "internalType": "uint256",
                  "name": "value",
                  "type": "uint256"
                }
              ],
              "internalType": "struct Decimal.D256",
              "name": "owner",
              "type": "tuple"
            }
          ],
          "internalType": "struct IMarket.BidShares",
          "name": "bidShares",
          "type": "tuple"
        },
        {
          "components": [
            {
              "internalType": "uint256",
              "name": "deadline",
              "type": "uint256"
            },
            {
              "internalType": "uint8",
              "name": "v",
              "type": "uint8"
            },
            {
              "internalType": "bytes32",
              "name": "r",
              "type": "bytes32"
            },
            {
              "internalType": "bytes32",
              "name": "s",
              "type": "bytes32"
            }
          ],
          "internalType": "struct IMedia.EIP712Signature",
          "name": "sig",
          "type": "tuple"
        }
      ],
      "name": "mintWithSig",
      "outputs": [],
      "stateMutability": "nonpayable",
      "type": "function"
    },
    {
      "inputs": [
        {
          "internalType": "address",
          "name": "",
          "type": "address"
        }
      ],
      "name": "mintWithSigNonces",
      "outputs": [
        {
          "internalType": "uint256",
          "name": "",
          "type": "uint256"
        }
      ],
      "stateMutability": "view",
      "type": "function"
    },
    {
      "inputs": [],
      "name": "name",
      "outputs": [
        {
          "internalType": "string",
          "name": "",
          "type": "string"
        }
      ],
      "stateMutability": "view",
      "type": "function"
    },
    {
      "inputs": [
        {
          "internalType": "uint256",
          "name": "tokenId",
          "type": "uint256"
        }
      ],
      "name": "ownerOf",
      "outputs": [
        {
          "internalType": "address",
          "name": "",
          "type": "address"
        }
      ],
      "stateMutability": "view",
      "type": "function"
    },
    {
      "inputs": [
        {
          "internalType": "address",
          "name": "spender",
          "type": "address"
        },
        {
          "internalType": "uint256",
          "name": "tokenId",
          "type": "uint256"
        },
        {
          "components": [
            {
              "internalType": "uint256",
              "name": "deadline",
              "type": "uint256"
            },
            {
              "internalType": "uint8",
              "name": "v",
              "type": "uint8"
            },
            {
              "internalType": "bytes32",
              "name": "r",
              "type": "bytes32"
            },
            {
              "internalType": "bytes32",
              "name": "s",
              "type": "bytes32"
            }
          ],
          "internalType": "struct IMedia.EIP712Signature",
          "name": "sig",
          "type": "tuple"
        }
      ],
      "name": "permit",
      "outputs": [],
      "stateMutability": "nonpayable",
      "type": "function"
    },
    {
      "inputs": [
        {
          "internalType": "address",
          "name": "",
          "type": "address"
        },
        {
          "internalType": "uint256",
          "name": "",
          "type": "uint256"
        }
      ],
      "name": "permitNonces",
      "outputs": [
        {
          "internalType": "uint256",
          "name": "",
          "type": "uint256"
        }
      ],
      "stateMutability": "view",
      "type": "function"
    },
    {
      "inputs": [
        {
          "internalType": "uint256",
          "name": "",
          "type": "uint256"
        }
      ],
      "name": "previousTokenOwners",
      "outputs": [
        {
          "internalType": "address",
          "name": "",
          "type": "address"
        }
      ],
      "stateMutability": "view",
      "type": "function"
    },
    {
      "inputs": [
        {
          "internalType": "uint256",
          "name": "tokenId",
          "type": "uint256"
        }
      ],
      "name": "removeAsk",
      "outputs": [],
      "stateMutability": "nonpayable",
      "type": "function"
    },
    {
      "inputs": [
        {
          "internalType": "uint256",
          "name": "tokenId",
          "type": "uint256"
        }
      ],
      "name": "removeBid",
      "outputs": [],
      "stateMutability": "nonpayable",
      "type": "function"
    },
    {
      "inputs": [
        {
          "internalType": "uint256",
          "name": "tokenId",
          "type": "uint256"
        }
      ],
      "name": "revokeApproval",
      "outputs": [],
      "stateMutability": "nonpayable",
      "type": "function"
    },
    {
      "inputs": [
        {
          "internalType": "address",
          "name": "from",
          "type": "address"
        },
        {
          "internalType": "address",
          "name": "to",
          "type": "address"
        },
        {
          "internalType": "uint256",
          "name": "tokenId",
          "type": "uint256"
        }
      ],
      "name": "safeTransferFrom",
      "outputs": [],
      "stateMutability": "nonpayable",
      "type": "function"
    },
    {
      "inputs": [
        {
          "internalType": "address",
          "name": "from",
          "type": "address"
        },
        {
          "internalType": "address",
          "name": "to",
          "type": "address"
        },
        {
          "internalType": "uint256",
          "name": "tokenId",
          "type": "uint256"
        },
        {
          "internalType": "bytes",
          "name": "_data",
          "type": "bytes"
        }
      ],
      "name": "safeTransferFrom",
      "outputs": [],
      "stateMutability": "nonpayable",
      "type": "function"
    },
    {
      "inputs": [
        {
          "internalType": "address",
          "name": "operator",
          "type": "address"
        },
        {
          "internalType": "bool",
          "name": "approved",
          "type": "bool"
        }
      ],
      "name": "setApprovalForAll",
      "outputs": [],
      "stateMutability": "nonpayable",
      "type": "function"
    },
    {
      "inputs": [
        {
          "internalType": "uint256",
          "name": "tokenId",
          "type": "uint256"
        },
        {
          "components": [
            {
              "internalType": "uint256",
              "name": "amount",
              "type": "uint256"
            },
            {
              "internalType": "address",
              "name": "currency",
              "type": "address"
            }
          ],
          "internalType": "struct IMarket.Ask",
          "name": "ask",
          "type": "tuple"
        }
      ],
      "name": "setAsk",
      "outputs": [],
      "stateMutability": "nonpayable",
      "type": "function"
    },
    {
      "inputs": [
        {
          "internalType": "uint256",
          "name": "tokenId",
          "type": "uint256"
        },
        {
          "components": [
            {
              "internalType": "uint256",
              "name": "amount",
              "type": "uint256"
            },
            {
              "internalType": "address",
              "name": "currency",
              "type": "address"
            },
            {
              "internalType": "address",
              "name": "bidder",
              "type": "address"
            },
            {
              "internalType": "address",
              "name": "recipient",
              "type": "address"
            },
            {
              "components": [
                {
                  "internalType": "uint256",
                  "name": "value",
                  "type": "uint256"
                }
              ],
              "internalType": "struct Decimal.D256",
              "name": "sellOnShare",
              "type": "tuple"
            }
          ],
          "internalType": "struct IMarket.Bid",
          "name": "bid",
          "type": "tuple"
        }
      ],
      "name": "setBid",
      "outputs": [],
      "stateMutability": "nonpayable",
      "type": "function"
    },
    {
      "inputs": [
        {
          "internalType": "bytes4",
          "name": "interfaceId",
          "type": "bytes4"
        }
      ],
      "name": "supportsInterface",
      "outputs": [
        {
          "internalType": "bool",
          "name": "",
          "type": "bool"
        }
      ],
      "stateMutability": "view",
      "type": "function"
    },
    {
      "inputs": [],
      "name": "symbol",
      "outputs": [
        {
          "internalType": "string",
          "name": "",
          "type": "string"
        }
      ],
      "stateMutability": "view",
      "type": "function"
    },
    {
      "inputs": [
        {
          "internalType": "uint256",
          "name": "index",
          "type": "uint256"
        }
      ],
      "name": "tokenByIndex",
      "outputs": [
        {
          "internalType": "uint256",
          "name": "",
          "type": "uint256"
        }
      ],
      "stateMutability": "view",
      "type": "function"
    },
    {
      "inputs": [
        {
          "internalType": "uint256",
          "name": "",
          "type": "uint256"
        }
      ],
      "name": "tokenContentHashes",
      "outputs": [
        {
          "internalType": "bytes32",
          "name": "",
          "type": "bytes32"
        }
      ],
      "stateMutability": "view",
      "type": "function"
    },
    {
      "inputs": [
        {
          "internalType": "uint256",
          "name": "",
          "type": "uint256"
        }
      ],
      "name": "tokenCreators",
      "outputs": [
        {
          "internalType": "address",
          "name": "",
          "type": "address"
        }
      ],
      "stateMutability": "view",
      "type": "function"
    },
    {
      "inputs": [
        {
          "internalType": "uint256",
          "name": "",
          "type": "uint256"
        }
      ],
      "name": "tokenMetadataHashes",
      "outputs": [
        {
          "internalType": "bytes32",
          "name": "",
          "type": "bytes32"
        }
      ],
      "stateMutability": "view",
      "type": "function"
    },
    {
      "inputs": [
        {
          "internalType": "uint256",
          "name": "tokenId",
          "type": "uint256"
        }
      ],
      "name": "tokenMetadataURI",
      "outputs": [
        {
          "internalType": "string",
          "name": "",
          "type": "string"
        }
      ],
      "stateMutability": "view",
      "type": "function"
    },
    {
      "inputs": [
        {
          "internalType": "address",
          "name": "owner",
          "type": "address"
        },
        {
          "internalType": "uint256",
          "name": "index",
          "type": "uint256"
        }
      ],
      "name": "tokenOfOwnerByIndex",
      "outputs": [
        {
          "internalType": "uint256",
          "name": "",
          "type": "uint256"
        }
      ],
      "stateMutability": "view",
      "type": "function"
    },
    {
      "inputs": [
        {
          "internalType": "uint256",
          "name": "tokenId",
          "type": "uint256"
        }
      ],
      "name": "tokenURI",
      "outputs": [
        {
          "internalType": "string",
          "name": "",
          "type": "string"
        }
      ],
      "stateMutability": "view",
      "type": "function"
    },
    {
      "inputs": [],
      "name": "totalSupply",
      "outputs": [
        {
          "internalType": "uint256",
          "name": "",
          "type": "uint256"
        }
      ],
      "stateMutability": "view",
      "type": "function"
    },
    {
      "inputs": [
        {
          "internalType": "address",
          "name": "from",
          "type": "address"
        },
        {
          "internalType": "address",
          "name": "to",
          "type": "address"
        },
        {
          "internalType": "uint256",
          "name": "tokenId",
          "type": "uint256"
        }
      ],
      "name": "transferFrom",
      "outputs": [],
      "stateMutability": "nonpayable",
      "type": "function"
    },
    {
      "inputs": [
        {
          "internalType": "uint256",
          "name": "tokenId",
          "type": "uint256"
        },
        {
          "internalType": "string",
          "name": "metadataURI",
          "type": "string"
        }
      ],
      "name": "updateTokenMetadataURI",
      "outputs": [],
      "stateMutability": "nonpayable",
      "type": "function"
    },
    {
      "inputs": [
        {
          "internalType": "uint256",
          "name": "tokenId",
          "type": "uint256"
        },
        {
          "internalType": "string",
          "name": "_tokenURI",
          "type": "string"
        }
      ],
      "name": "updateTokenURI",
      "outputs": [],
      "stateMutability": "nonpayable",
      "type": "function"
    }
  ],
  "bytecode": "0x60806040523480156200001157600080fd5b5060405162003b2e38038062003b2e833981016040819052620000349162000234565b6040518060400160405280600f81526020016e10dc9e5c1d1bd69bdbd05b9a5b585b608a1b815250604051806040016040528060078152602001661693d3d053935360ca1b8152508160079080519060200190620000949291906200018e565b508051620000aa9060089060208401906200018e565b50620000bd6380ac58cd60e01b6200010a565b620000cf63780e9d6360e01b6200010a565b50506001600b55600c80546001600160a01b0319166001600160a01b03831617905562000103632711173360e11b6200010a565b50620002a1565b6001600160e01b03198082161415620001695760405162461bcd60e51b815260206004820152601c60248201527f4552433136353a20696e76616c696420696e7465726661636520696400000000604482015260640160405180910390fd5b6001600160e01b0319166000908152602081905260409020805460ff19166001179055565b8280546200019c9062000264565b90600052602060002090601f016020900481019282620001c057600085556200020b565b82601f10620001db57805160ff19168380011785556200020b565b828001600101855582156200020b579182015b828111156200020b578251825591602001919060010190620001ee565b50620002199291506200021d565b5090565b5b808211156200021957600081556001016200021e565b60006020828403121562000246578081fd5b81516001600160a01b03811681146200025d578182fd5b9392505050565b600181811c908216806200027957607f821691505b602082108114156200029b57634e487b7160e01b600052602260045260246000fd5b50919050565b61387d80620002b16000396000f3fe608060405234801561001057600080fd5b50600436106102485760003560e01c80636352211e1161013b578063b320f459116100b8578063e0fd045f1161007c578063e0fd045f1461055c578063e985e9c514610585578063f6b630f0146105c1578063f8ccd5de146105d4578063fad32197146105ff57600080fd5b8063b320f459146104e9578063b88d4fde146104fc578063ba3393991461050f578063c87b56dd14610522578063de5236fb1461053557600080fd5b806395d89b41116100ff57806395d89b411461047f5780639d8e726014610487578063a1794bcd146104b0578063a22cb465146104c3578063b1e130fc146104d657600080fd5b80636352211e1461042b5780636c0360eb1461043e57806370a082311461044657806375682e79146104595780637a7a12021461046c57600080fd5b806323b872dd116101c957806342842e0e1161018d57806342842e0e146103cc57806342966c68146103df5780634f6ccce7146103f25780635bf624221461040557806362f24b701461041857600080fd5b806323b872dd1461035957806328220f351461036c5780632cca32371461037f5780632f745c591461039257806330adf81f146103a557600080fd5b80630bcd899b116102105780630bcd899b146102f85780630e2a177814610318578063157c3df91461032b57806318160ddd1461033e57806318e97fd11461034657600080fd5b806301ddc3b51461024d57806301ffc9a71461028057806306fdde03146102a3578063081812fc146102b8578063095ea7b3146102e3575b600080fd5b61026d61025b3660046131f1565b60116020526000908152604090205481565b6040519081526020015b60405180910390f35b61029361028e366004613175565b61061f565b6040519015158152602001610277565b6102ab61065f565b60405161027791906134c4565b6102cb6102c63660046131f1565b6106f1565b6040516001600160a01b039091168152602001610277565b6102f66102f1366004613110565b61077e565b005b61026d610306366004612f66565b60156020526000908152604090205481565b6102f6610326366004613139565b610894565b6102ab6103393660046131f1565b610b92565b61026d610c5c565b6102f661035436600461322b565b610c6d565b6102f6610367366004612fb2565b610e17565b6102f661037a3660046131f1565b610e48565b6102f661038d3660046131ad565b610ef3565b61026d6103a0366004613110565b610f2f565b61026d7f49ecf333e5b8c95c40fdafc95c1ad136e8914a8fb55e9dc8bb01eaa83a2df9ad81565b6102f66103da366004612fb2565b610f58565b6102f66103ed3660046131f1565b610f73565b61026d6104003660046131f1565b611081565b6102f6610413366004613316565b611097565b6102f66104263660046132a2565b611188565b6102cb6104393660046131f1565b611256565b6102ab61127e565b61026d610454366004612f66565b61128d565b6102f661046736600461322b565b611319565b6102f661047a3660046130a0565b6114aa565b6102ab611715565b6102cb6104953660046131f1565b600d602052600090815260409020546001600160a01b031681565b600c546102cb906001600160a01b031681565b6102f66104d1366004613066565b611724565b6102f66104e43660046131f1565b6117e9565b6102f66104f73660046131f1565b611898565b6102f661050a366004612fed565b611955565b6102f661051d366004613316565b61198d565b6102ab6105303660046131f1565b611a0f565b61026d7f2952e482b8e2b192305f87374d7af45dc2eafafe4f50d26a0c02e90f2fdbe14b81565b6102cb61056a3660046131f1565b600e602052600090815260409020546001600160a01b031681565b610293610593366004612f80565b6001600160a01b03918216600090815260066020908152604080832093909416825291909152205460ff1690565b6102f66105cf366004613209565b611ad9565b61026d6105e2366004613110565b601460209081526000928352604080842090915290825290205481565b61026d61060d3660046131f1565b60106020526000908152604090205481565b60006301ffc9a760e01b6001600160e01b03198316148061065957506001600160e01b0319821660009081526020819052604090205460ff165b92915050565b60606007805461066e9061375a565b80601f016020809104026020016040519081016040528092919081815260200182805461069a9061375a565b80156106e75780601f106106bc576101008083540402835291602001916106e7565b820191906000526020600020905b8154815290600101906020018083116106ca57829003601f168201915b5050505050905090565b60006106fc82611b8f565b6107625760405162461bcd60e51b815260206004820152602c60248201527f4552433732313a20617070726f76656420717565727920666f72206e6f6e657860448201526b34b9ba32b73a103a37b5b2b760a11b60648201526084015b60405180910390fd5b506000908152600560205260409020546001600160a01b031690565b600061078982611256565b9050806001600160a01b0316836001600160a01b031614156107f75760405162461bcd60e51b815260206004820152602160248201527f4552433732313a20617070726f76616c20746f2063757272656e74206f776e656044820152603960f91b6064820152608401610759565b336001600160a01b038216148061081357506108138133610593565b6108855760405162461bcd60e51b815260206004820152603860248201527f4552433732313a20617070726f76652063616c6c6572206973206e6f74206f7760448201527f6e6572206e6f7220617070726f76656420666f7220616c6c00000000000000006064820152608401610759565b61088f8383611b9c565b505050565b6002600b5414156108b75760405162461bcd60e51b815260040161075990613630565b6002600b55816108c681611b8f565b6108e25760405162461bcd60e51b8152600401610759906135f9565b815115806108f1575081514211155b6109355760405162461bcd60e51b81526020600482015260156024820152741359591a584e8814195c9b5a5d08195e1c1a5c9959605a1b6044820152606401610759565b6001600160a01b03841661098b5760405162461bcd60e51b815260206004820152601c60248201527f4d656469613a207370656e6465722063616e6e6f7420626520307830000000006044820152606401610759565b6000610995611c0a565b90506000817f49ecf333e5b8c95c40fdafc95c1ad136e8914a8fb55e9dc8bb01eaa83a2df9ad87876014856109c983611256565b6001600160a01b03168152602080820192909252604090810160009081208c825290925281208054916109fb8361378f565b9091555088516040805160208101969096526001600160a01b03909416938501939093526060840191909152608083015260a082015260c00160405160208183030381529060405280519060200120604051602001610a7192919061190160f01b81526002810192909252602282015260420190565b604051602081830303815290604052805190602001209050600060018286602001518760400151886060015160405160008152602001604052604051610ad3949392919093845260ff9290921660208401526040830152606082015260800190565b6020604051602081039080840390855afa158015610af5573d6000803e3d6000fd5b5050604051601f1901519150506001600160a01b03811615801590610b335750806001600160a01b0316610b2887611256565b6001600160a01b0316145b610b7a5760405162461bcd60e51b81526020600482015260186024820152771359591a584e8814da59db985d1d5c99481a5b9d985b1a5960421b6044820152606401610759565b610b848787611b9c565b50506001600b555050505050565b60608180610b9f60165490565b11610bbc5760405162461bcd60e51b8152600401610759906134d7565b60008381526012602052604090208054610bd59061375a565b80601f0160208091040260200160405190810160405280929190818152602001828054610c019061375a565b8015610c4e5780601f10610c2357610100808354040283529160200191610c4e565b820191906000526020600020905b815481529060010190602001808311610c3157829003601f168201915b505050505091505b50919050565b6000610c686002611cda565b905090565b6002600b541415610c905760405162461bcd60e51b815260040161075990613630565b6002600b553383610ca18282611ce5565b610cbd5760405162461bcd60e51b815260040161075990613571565b6000858152601060205260409020548590610d355760405162461bcd60e51b815260206004820152603260248201527f4d656469613a20746f6b656e20646f6573206e6f7420686176652068617368206044820152711bd98818dc99585d19590818dbdb9d195b9d60721b6064820152608401610759565b84848080601f01602080910402602001604051908101604052809392919081815260200183838082843760009201919091525050825115159150610d8d90505760405162461bcd60e51b815260040161075990613667565b610dcd8787878080601f016020809104026020016040519081016040528093929190818152602001838380828437600092019190915250611dcf92505050565b867f702fe2dc2dc0f68023540aa4a1e11811c0f29112f6ebf01e61b90538e4f29810338888604051610e0193929190613484565b60405180910390a250506001600b555050505050565b610e213382611ce5565b610e3d5760405162461bcd60e51b8152600401610759906135a8565b61088f838383611e58565b6002600b541415610e6b5760405162461bcd60e51b815260040161075990613630565b6002600b553381610e7c8282611ce5565b610e985760405162461bcd60e51b815260040161075990613571565b600c546040516328220f3560e01b8152600481018590526001600160a01b03909116906328220f35906024015b600060405180830381600087803b158015610edf57600080fd5b505af1158015610b84573d6000803e3d6000fd5b6002600b541415610f165760405162461bcd60e51b815260040161075990613630565b6002600b55610f26338383611ec1565b50506001600b55565b6001600160a01b0382166000908152600160205260408120610f51908361219a565b9392505050565b61088f83838360405180602001604052806000815250611955565b6002600b541415610f965760405162461bcd60e51b815260040161075990613630565b6002600b5580610fa581611b8f565b610fc15760405162461bcd60e51b8152600401610759906135f9565b3382610fcd8282611ce5565b610fe95760405162461bcd60e51b815260040161075990613571565b6000610ff485611256565b6000868152600e60205260409020549091506001600160a01b0380831691161461106c5760405162461bcd60e51b8152602060048201526024808201527f4d656469613a206f776e6572206973206e6f742063726561746f72206f66206d6044820152636564696160e01b6064820152608401610759565b611075856121a6565b50506001600b55505050565b60008061108f60028461228f565b509392505050565b6002600b5414156110ba5760405162461bcd60e51b815260040161075990613630565b6002600b55816110c981611b8f565b6110e55760405162461bcd60e51b8152600401610759906135f9565b81604001516001600160a01b0316336001600160a01b0316146111545760405162461bcd60e51b815260206004820152602160248201527f4d61726b65743a20426964646572206d757374206265206d73672073656e64656044820152603960f91b6064820152608401610759565b600c546040516317b6b0d360e31b81526001600160a01b039091169063bdb5869890610ec5908690869033906004016136c1565b6002600b5414156111ab5760405162461bcd60e51b815260040161075990613630565b6002600b5533826111bc8282611ce5565b6111d85760405162461bcd60e51b815260040161075990613571565b600c5460405163062f24b760e41b8152600481018690528451602482015260208501516001600160a01b039081166044830152909116906362f24b70906064015b600060405180830381600087803b15801561123357600080fd5b505af1158015611247573d6000803e3d6000fd5b50506001600b55505050505050565b60006106598260405180606001604052806029815260200161381f60299139600291906122ab565b6060600a805461066e9061375a565b60006001600160a01b0382166112f85760405162461bcd60e51b815260206004820152602a60248201527f4552433732313a2062616c616e636520717565727920666f7220746865207a65604482015269726f206164647265737360b01b6064820152608401610759565b6001600160a01b0382166000908152600160205260409020610659906122b8565b6002600b54141561133c5760405162461bcd60e51b815260040161075990613630565b6002600b55338361134d8282611ce5565b6113695760405162461bcd60e51b815260040161075990613571565b60008581526011602052604090205485906113de5760405162461bcd60e51b815260206004820152602f60248201527f4d656469613a20746f6b656e20646f6573206e6f74206861766520686173682060448201526e6f6620697473206d6574616461746160881b6064820152608401610759565b84848080601f0160208091040260200160405190810160405280939291908181526020018383808284376000920191909152505082511515915061143690505760405162461bcd60e51b815260040161075990613667565b6114768787878080601f0160208091040260200160405190810160405280939291908181526020018383808284376000920191909152506122c292505050565b867fe3df41127db820c79e5b8d541a63e40e3e97b9af96f7a50bded13091b70df9ae338888604051610e0193929190613484565b6002600b5414156114cd5760405162461bcd60e51b815260040161075990613630565b6002600b55805115806114e1575080514211155b61152d5760405162461bcd60e51b815260206004820152601a60248201527f4d656469613a206d696e745769746853696720657870697265640000000000006044820152606401610759565b6000611537611c0a565b6040808601516060870151602080880151516001600160a01b038b16600090815260159092529381208054959650909486947f2952e482b8e2b192305f87374d7af45dc2eafafe4f50d26a0c02e90f2fdbe14b9493929091908761159a8361378f565b9091555088516040805160208101979097528601949094526060850192909252608084015260a083015260c082015260e0016040516020818303038152906040528051906020012060405160200161160992919061190160f01b81526002810192909252602282015260420190565b60405160208183030381529060405280519060200120905060006001828560200151866040015187606001516040516000815260200160405260405161166b949392919093845260ff9290921660208401526040830152606082015260800190565b6020604051602081039080840390855afa15801561168d573d6000803e3d6000fd5b5050604051601f1901519150506001600160a01b038116158015906116c35750806001600160a01b0316876001600160a01b0316145b61170a5760405162461bcd60e51b81526020600482015260186024820152771359591a584e8814da59db985d1d5c99481a5b9d985b1a5960421b6044820152606401610759565b610b84818787611ec1565b60606008805461066e9061375a565b6001600160a01b03821633141561177d5760405162461bcd60e51b815260206004820152601960248201527f4552433732313a20617070726f766520746f2063616c6c6572000000000000006044820152606401610759565b3360008181526006602090815260408083206001600160a01b03871680855290835292819020805460ff191686151590811790915590519081529192917f17307eab39ab6107e8899845ad3d59bd9653f200f220920489ca2b5937696c31910160405180910390a35050565b6002600b54141561180c5760405162461bcd60e51b815260040161075990613630565b6002600b5561181a816106f1565b6001600160a01b0316336001600160a01b0316146118855760405162461bcd60e51b815260206004820152602260248201527f4d656469613a2063616c6c6572206e6f7420617070726f766564206164647265604482015261737360f01b6064820152608401610759565b611890600082611b9c565b506001600b55565b6002600b5414156118bb5760405162461bcd60e51b815260040161075990613630565b6002600b5580806118cb60165490565b116118e85760405162461bcd60e51b8152600401610759906134d7565b600c5460405163776a083560e01b8152600481018490523360248201526001600160a01b039091169063776a083590604401600060405180830381600087803b15801561193457600080fd5b505af1158015611948573d6000803e3d6000fd5b50506001600b5550505050565b61195f3383611ce5565b61197b5760405162461bcd60e51b8152600401610759906135a8565b61198784848484612307565b50505050565b6002600b5414156119b05760405162461bcd60e51b815260040161075990613630565b6002600b5533826119c18282611ce5565b6119dd5760405162461bcd60e51b815260040161075990613571565b600c5460405163ba33939960e01b81526001600160a01b039091169063ba3393999061121990879087906004016136ad565b60608180611a1c60165490565b11611a395760405162461bcd60e51b8152600401610759906134d7565b60008381526009602052604081208054611a529061375a565b80601f0160208091040260200160405190810160405280929190818152602001828054611a7e9061375a565b8015611acb5780601f10611aa057610100808354040283529160200191611acb565b820191906000526020600020905b815481529060010190602001808311611aae57829003601f168201915b509398975050505050505050565b600c546001600160a01b03163314611b335760405162461bcd60e51b815260206004820152601b60248201527f4d656469613a206f6e6c79206d61726b657420636f6e747261637400000000006044820152606401610759565b611b3c82611256565b6000838152600d6020526040902080546001600160a01b0319166001600160a01b0392909216919091179055611b8b611b7483611256565b828460405180602001604052806000815250612307565b5050565b600061065960028361233a565b600081815260056020526040902080546001600160a01b0319166001600160a01b0384169081179091558190611bd182611256565b6001600160a01b03167f8c5be1e5ebec7d5bd14f71427d1e84f3dd0314c0f7b2291e5b200ac8c7c3b92560405160405180910390a45050565b604080518082018252600981526843727970746f5a6f6f60b81b6020918201528151808301835260018152603160f81b9082015281517f8b73c3c69bb8fe3d512ecc4cf759cc79239f7b179b0ffacaa9a75d522b39400f818301527fc546bd27cb87e09030592d50b7a6eb23f56c4c0a6444469d7593ecdf7b622945818401527fc89efdaa54c0f20c7adf612882df0950f5a951637e0307cdcb4c672f298b8bc660608201524660808201523060a0808301919091528351808303909101815260c0909101909252815191012090565b600061065982612346565b6000611cf082611b8f565b611d515760405162461bcd60e51b815260206004820152602c60248201527f4552433732313a206f70657261746f7220717565727920666f72206e6f6e657860448201526b34b9ba32b73a103a37b5b2b760a11b6064820152608401610759565b6000611d5c83611256565b9050806001600160a01b0316846001600160a01b03161480611d975750836001600160a01b0316611d8c846106f1565b6001600160a01b0316145b80611dc757506001600160a01b0380821660009081526006602090815260408083209388168352929052205460ff165b949350505050565b611dd882611b8f565b611e395760405162461bcd60e51b815260206004820152602c60248201527f4552433732314d657461646174613a2055524920736574206f66206e6f6e657860448201526b34b9ba32b73a103a37b5b2b760a11b6064820152608401610759565b6000828152600960209081526040909120825161088f92840190612c57565b600c546040516328220f3560e01b8152600481018390526001600160a01b03909116906328220f3590602401600060405180830381600087803b158015611e9e57600080fd5b505af1158015611eb2573d6000803e3d6000fd5b5050505061088f838383612351565b81518051611ee15760405162461bcd60e51b815260040161075990613667565b60208301518051611f045760405162461bcd60e51b815260040161075990613667565b6040840151611f615760405162461bcd60e51b8152602060048201526024808201527f4d656469613a20636f6e74656e742068617368206d757374206265206e6f6e2d6044820152637a65726f60e01b6064820152608401610759565b60408085015160009081526013602052205460ff1615611fe95760405162461bcd60e51b815260206004820152603e60248201527f4d656469613a206120746f6b656e2068617320616c7265616479206265656e2060448201527f637265617465642077697468207468697320636f6e74656e74206861736800006064820152608401610759565b60608401516120485760405162461bcd60e51b815260206004820152602560248201527f4d656469613a206d657461646174612068617368206d757374206265206e6f6e6044820152642d7a65726f60d81b6064820152608401610759565b600061205360165490565b905061205f86826124d2565b61206d601680546001019055565b61207b8186604001516124ec565b612089818660600151612525565b6120978186602001516122c2565b6120a5818660000151611dcf565b6001600160a01b0386166000908152600f602052604090206120c7908261255e565b50604085810151600090815260136020908152828220805460ff19166001179055838252600e815282822080546001600160a01b038b81166001600160a01b03199283168117909355600d84529385902080549091169091179055600c5483516375aab41d60e11b8152600481018690528851516024820152918801515160448301529287015151606482015291169063eb55683a90608401600060405180830381600087803b15801561217a57600080fd5b505af115801561218e573d6000803e3d6000fd5b50505050505050505050565b6000610f51838361256a565b600081815260096020526040812080546121bf9061375a565b80601f01602080910402602001604051908101604052809291908181526020018280546121eb9061375a565b80156122385780601f1061220d57610100808354040283529160200191612238565b820191906000526020600020905b81548152906001019060200180831161221b57829003601f168201915b50505050509050612248826125a2565b805115612270576000828152600960209081526040909120825161226e92840190612c57565b505b506000908152600d6020526040902080546001600160a01b0319169055565b600080808061229e868661265c565b9097909650945050505050565b6000611dc7848484612687565b6000610659825490565b816122cc81611b8f565b6122e85760405162461bcd60e51b8152600401610759906135f9565b6000838152601260209081526040909120835161198792850190612c57565b612312848484611e58565b61231e848484846126d3565b6119875760405162461bcd60e51b81526004016107599061351f565b6000610f5183836127a4565b6000610659826122b8565b826001600160a01b031661236482611256565b6001600160a01b0316146123cc5760405162461bcd60e51b815260206004820152602960248201527f4552433732313a207472616e73666572206f6620746f6b656e2074686174206960448201526839903737ba1037bbb760b91b6064820152608401610759565b6001600160a01b03821661242e5760405162461bcd60e51b8152602060048201526024808201527f4552433732313a207472616e7366657220746f20746865207a65726f206164646044820152637265737360e01b6064820152608401610759565b612439600082611b9c565b6001600160a01b038316600090815260016020526040902061245b90826127b0565b506001600160a01b038216600090815260016020526040902061247e908261255e565b5061248b600282846127bc565b5080826001600160a01b0316846001600160a01b03167fddf252ad1be2c89b69c2b068fc378daa952ba7f163c4a11628f55a4df523b3ef60405160405180910390a4505050565b611b8b8282604051806020016040528060008152506127d2565b816124f681611b8f565b6125125760405162461bcd60e51b8152600401610759906135f9565b5060009182526010602052604090912055565b8161252f81611b8f565b61254b5760405162461bcd60e51b8152600401610759906135f9565b5060009182526011602052604090912055565b6000610f518383612805565b600082600001828154811061258f57634e487b7160e01b600052603260045260246000fd5b9060005260206000200154905092915050565b60006125ad82611256565b90506125ba600083611b9c565b600082815260096020526040902080546125d39061375a565b1590506125f15760008281526009602052604081206125f191612cdb565b6001600160a01b038116600090815260016020526040902061261390836127b0565b5061261f600283612854565b5060405182906000906001600160a01b038416907fddf252ad1be2c89b69c2b068fc378daa952ba7f163c4a11628f55a4df523b3ef908390a45050565b6000808061266a858561219a565b600081815260029690960160205260409095205494959350505050565b6000828152600284016020526040812054801515806126ab57506126ab85856127a4565b83906126ca5760405162461bcd60e51b815260040161075991906134c4565b50949350505050565b60006001600160a01b0384163b6126ec57506001611dc7565b600061276d630a85bd0160e11b338887876040516024016127109493929190613447565b604051602081830303815290604052906001600160e01b0319166020820180516001600160e01b0383818316178352505050506040518060600160405280603281526020016137ed603291396001600160a01b0388169190612860565b90506000818060200190518101906127859190613191565b6001600160e01b031916630a85bd0160e11b1492505050949350505050565b6000610f51838361286f565b6000610f518383612887565b6000611dc784846001600160a01b0385166129a4565b6127dc83836129c1565b6127e960008484846126d3565b61088f5760405162461bcd60e51b81526004016107599061351f565b600081815260018301602052604081205461284c57508154600181810184556000848152602080822090930184905584548482528286019093526040902091909155610659565b506000610659565b6000610f518383612ad9565b6060611dc78484600085612af6565b60008181526001830160205260408120541515610f51565b6000818152600183016020526040812054801561299a5760006128ab600183613717565b85549091506000906128bf90600190613717565b90508181146129405760008660000182815481106128ed57634e487b7160e01b600052603260045260246000fd5b906000526020600020015490508087600001848154811061291e57634e487b7160e01b600052603260045260246000fd5b6000918252602080832090910192909255918252600188019052604090208390555b855486908061295f57634e487b7160e01b600052603160045260246000fd5b600190038181906000526020600020016000905590558560010160008681526020019081526020016000206000905560019350505050610659565b6000915050610659565b60008281526002840160205260408120829055611dc7848461255e565b6001600160a01b038216612a175760405162461bcd60e51b815260206004820181905260248201527f4552433732313a206d696e7420746f20746865207a65726f20616464726573736044820152606401610759565b612a2081611b8f565b15612a6d5760405162461bcd60e51b815260206004820152601c60248201527f4552433732313a20746f6b656e20616c7265616479206d696e746564000000006044820152606401610759565b6001600160a01b0382166000908152600160205260409020612a8f908261255e565b50612a9c600282846127bc565b5060405181906001600160a01b038416906000907fddf252ad1be2c89b69c2b068fc378daa952ba7f163c4a11628f55a4df523b3ef908290a45050565b60008181526002830160205260408120819055610f5183836127b0565b606082471015612b575760405162461bcd60e51b815260206004820152602660248201527f416464726573733a20696e73756666696369656e742062616c616e636520666f6044820152651c8818d85b1b60d21b6064820152608401610759565b843b612ba55760405162461bcd60e51b815260206004820152601d60248201527f416464726573733a2063616c6c20746f206e6f6e2d636f6e74726163740000006044820152606401610759565b600080866001600160a01b03168587604051612bc1919061342b565b60006040518083038185875af1925050503d8060008114612bfe576040519150601f19603f3d011682016040523d82523d6000602084013e612c03565b606091505b5091509150612c13828286612c1e565b979650505050505050565b60608315612c2d575081610f51565b825115612c3d5782518084602001fd5b8160405162461bcd60e51b815260040161075991906134c4565b828054612c639061375a565b90600052602060002090601f016020900481019282612c855760008555612ccb565b82601f10612c9e57805160ff1916838001178555612ccb565b82800160010185558215612ccb579182015b82811115612ccb578251825591602001919060010190612cb0565b50612cd7929150612d18565b5090565b508054612ce79061375a565b6000825580601f10612cf7575050565b601f016020900490600052602060002090810190612d159190612d18565b50565b5b80821115612cd75760008155600101612d19565b600067ffffffffffffffff80841115612d4857612d486137c0565b604051601f8501601f19908116603f01168101908282118183101715612d7057612d706137c0565b81604052809350858152868686011115612d8957600080fd5b858560208301376000602087830101525050509392505050565b80356001600160a01b0381168114612dba57600080fd5b919050565b600082601f830112612dcf578081fd5b610f5183833560208501612d2d565b600060608284031215612def578081fd5b6040516060810181811067ffffffffffffffff82111715612e1257612e126137c0565b604052905080612e228484612e4f565b8152612e318460208501612e4f565b6020820152612e438460408501612e4f565b60408201525092915050565b600060208284031215612e60578081fd5b6040516020810181811067ffffffffffffffff82111715612e8357612e836137c0565b6040529135825250919050565b600060808284031215612ea1578081fd5b612ea96136ee565b905081358152602082013560ff81168114612ec357600080fd5b80602083015250604082013560408201526060820135606082015292915050565b600060808284031215612ef5578081fd5b612efd6136ee565b9050813567ffffffffffffffff80821115612f1757600080fd5b612f2385838601612dbf565b83526020840135915080821115612f3957600080fd5b50612f4684828501612dbf565b602083015250604082013560408201526060820135606082015292915050565b600060208284031215612f77578081fd5b610f5182612da3565b60008060408385031215612f92578081fd5b612f9b83612da3565b9150612fa960208401612da3565b90509250929050565b600080600060608486031215612fc6578081fd5b612fcf84612da3565b9250612fdd60208501612da3565b9150604084013590509250925092565b60008060008060808587031215613002578081fd5b61300b85612da3565b935061301960208601612da3565b925060408501359150606085013567ffffffffffffffff81111561303b578182fd5b8501601f8101871361304b578182fd5b61305a87823560208401612d2d565b91505092959194509250565b60008060408385031215613078578182fd5b61308183612da3565b915060208301358015158114613095578182fd5b809150509250929050565b60008060008061012085870312156130b6578182fd5b6130bf85612da3565b9350602085013567ffffffffffffffff8111156130da578283fd5b6130e687828801612ee4565b9350506130f68660408701612dde565b91506131058660a08701612e90565b905092959194509250565b60008060408385031215613122578182fd5b61312b83612da3565b946020939093013593505050565b600080600060c0848603121561314d578081fd5b61315684612da3565b92506020840135915061316c8560408601612e90565b90509250925092565b600060208284031215613186578081fd5b8135610f51816137d6565b6000602082840312156131a2578081fd5b8151610f51816137d6565b600080608083850312156131bf578182fd5b823567ffffffffffffffff8111156131d5578283fd5b6131e185828601612ee4565b925050612fa98460208501612dde565b600060208284031215613202578081fd5b5035919050565b6000806040838503121561321b578182fd5b82359150612fa960208401612da3565b60008060006040848603121561323f578081fd5b83359250602084013567ffffffffffffffff8082111561325d578283fd5b818601915086601f830112613270578283fd5b81358181111561327e578384fd5b87602082850101111561328f578384fd5b6020830194508093505050509250925092565b60008082840360608112156132b5578283fd5b833592506040601f19820112156132ca578182fd5b506040516040810181811067ffffffffffffffff821117156132ee576132ee6137c0565b80604052506020840135815261330660408501612da3565b6020820152809150509250929050565b60008082840360c0811215613329578283fd5b8335925060a0601f198201121561333e578182fd5b5060405160a0810181811067ffffffffffffffff82111715613362576133626137c0565b80604052506020840135815261337a60408501612da3565b602082015261338b60608501612da3565b604082015261339c60808501612da3565b60608201526133ae8560a08601612e4f565b6080820152809150509250929050565b600081518084526133d681602086016020860161372e565b601f01601f19169290920160200192915050565b805182526020808201516001600160a01b03908116918401919091526040808301518216908401526060808301519091169083015260809081015151910152565b6000825161343d81846020870161372e565b9190910192915050565b6001600160a01b038581168252841660208201526040810183905260806060820181905260009061347a908301846133be565b9695505050505050565b6001600160a01b03841681526040602082018190528101829052818360608301376000818301606090810191909152601f909201601f1916010192915050565b602081526000610f5160208301846133be565b60208082526028908201527f4d656469613a20746f6b656e2077697468207468617420696420646f6573206e6040820152671bdd08195e1a5cdd60c21b606082015260800190565b60208082526032908201527f4552433732313a207472616e7366657220746f206e6f6e20455243373231526560408201527131b2b4bb32b91034b6b83632b6b2b73a32b960711b606082015260800190565b6020808252601d908201527f4d656469613a204f6e6c7920617070726f766564206f72206f776e6572000000604082015260600190565b60208082526031908201527f4552433732313a207472616e736665722063616c6c6572206973206e6f74206f6040820152701ddb995c881b9bdc88185c1c1c9bdd9959607a1b606082015260800190565b60208082526018908201527f4d656469613a206e6f6e6578697374656e7420746f6b656e0000000000000000604082015260600190565b6020808252601f908201527f5265656e7472616e637947756172643a207265656e7472616e742063616c6c00604082015260600190565b60208082526026908201527f4d656469613a2073706563696669656420757269206d757374206265206e6f6e6040820152652d656d70747960d01b606082015260800190565b82815260c08101610f5160208301846133ea565b83815260e081016136d560208301856133ea565b6001600160a01b039290921660c0919091015292915050565b6040516080810167ffffffffffffffff81118282101715613711576137116137c0565b60405290565b600082821015613729576137296137aa565b500390565b60005b83811015613749578181015183820152602001613731565b838111156119875750506000910152565b600181811c9082168061376e57607f821691505b60208210811415610c5657634e487b7160e01b600052602260045260246000fd5b60006000198214156137a3576137a36137aa565b5060010190565b634e487b7160e01b600052601160045260246000fd5b634e487b7160e01b600052604160045260246000fd5b6001600160e01b031981168114612d1557600080fdfe4552433732313a207472616e7366657220746f206e6f6e20455243373231526563656976657220696d706c656d656e7465724552433732313a206f776e657220717565727920666f72206e6f6e6578697374656e7420746f6b656ea2646970667358221220590444585eb9791124c9184978e6f11ca4f59c4535007428ef115abf3b64ea2164736f6c63430008040033",
  "linkReferences": {},
  "deployedLinkReferences": {}
}