{
  "src/Random.sol": {
    "Random": {
      "abi": [
        {
          "inputs": [],
          "stateMutability": "nonpayable",
          "type": "constructor"
        },
        {
          "anonymous": false,
          "inputs": [
            {
              "indexed": false,
              "internalType": "address",
              "name": "sender",
              "type": "address"
            },
            {
              "indexed": false,
              "internalType": "bytes32",
              "name": "dataHash",
              "type": "bytes32"
            },
            {
              "indexed": false,
              "internalType": "uint64",
              "name": "block",
              "type": "uint64"
            }
          ],
          "name": "CommitHash",
          "type": "event"
        },
        {
          "anonymous": false,
          "inputs": [
            {
              "indexed": false,
              "internalType": "address",
              "name": "sender",
              "type": "address"
            },
            {
              "indexed": false,
              "internalType": "bytes32",
              "name": "answer",
              "type": "bytes32"
            },
            {
              "indexed": false,
              "internalType": "bytes32",
              "name": "salt",
              "type": "bytes32"
            }
          ],
          "name": "RevealAnswer",
          "type": "event"
        },
        {
          "anonymous": false,
          "inputs": [
            {
              "indexed": false,
              "internalType": "address",
              "name": "sender",
              "type": "address"
            },
            {
              "indexed": false,
              "internalType": "bytes32",
              "name": "revealHash",
              "type": "bytes32"
            },
            {
              "indexed": false,
              "internalType": "uint8",
              "name": "random",
              "type": "uint8"
            }
          ],
          "name": "RevealHash",
          "type": "event"
        },
        {
          "inputs": [
            {
              "internalType": "bytes32",
              "name": "dataHash",
              "type": "bytes32"
            }
          ],
          "name": "commit",
          "outputs": [],
          "stateMutability": "nonpayable",
          "type": "function"
        },
        {
          "inputs": [
            {
              "internalType": "address",
              "name": "",
              "type": "address"
            }
          ],
          "name": "commits",
          "outputs": [
            {
              "internalType": "bytes32",
              "name": "commit",
              "type": "bytes32"
            },
            {
              "internalType": "uint64",
              "name": "block",
              "type": "uint64"
            },
            {
              "internalType": "bool",
              "name": "revealed",
              "type": "bool"
            }
          ],
          "stateMutability": "view",
          "type": "function"
        },
        {
          "inputs": [
            {
              "internalType": "bytes32",
              "name": "data",
              "type": "bytes32"
            }
          ],
          "name": "getHash",
          "outputs": [
            {
              "internalType": "bytes32",
              "name": "",
              "type": "bytes32"
            }
          ],
          "stateMutability": "view",
          "type": "function"
        },
        {
          "inputs": [
            {
              "internalType": "bytes32",
              "name": "data",
              "type": "bytes32"
            },
            {
              "internalType": "bytes32",
              "name": "salt",
              "type": "bytes32"
            }
          ],
          "name": "getSaltedHash",
          "outputs": [
            {
              "internalType": "bytes32",
              "name": "",
              "type": "bytes32"
            }
          ],
          "stateMutability": "view",
          "type": "function"
        },
        {
          "inputs": [],
          "name": "max",
          "outputs": [
            {
              "internalType": "uint8",
              "name": "",
              "type": "uint8"
            }
          ],
          "stateMutability": "view",
          "type": "function"
        },
        {
          "inputs": [
            {
              "internalType": "bytes32",
              "name": "revealHash",
              "type": "bytes32"
            }
          ],
          "name": "reveal",
          "outputs": [],
          "stateMutability": "nonpayable",
          "type": "function"
        },
        {
          "inputs": [
            {
              "internalType": "bytes32",
              "name": "answer",
              "type": "bytes32"
            },
            {
              "internalType": "bytes32",
              "name": "salt",
              "type": "bytes32"
            }
          ],
          "name": "revealAnswer",
          "outputs": [],
          "stateMutability": "nonpayable",
          "type": "function"
        }
      ],
      "devdoc": {
        "kind": "dev",
        "methods": {},
        "version": 1
      },
      "evm": {
        "bytecode": {
          "linkReferences": {},
          "object": "60806040526000805460ff1916606417905534801561001d57600080fd5b506107e98061002d6000396000f3fe608060405234801561001057600080fd5b506004361061007d5760003560e01c80637b43a8e61161005b5780637b43a8e6146100dc5780638dddbf361461013f578063de8e903314610152578063f14fcbc81461016557600080fd5b80633cf5040a146100825780636ac5db19146100a8578063701fd0f1146100c7575b600080fd5b610095610090366004610722565b610178565b6040519081526020015b60405180910390f35b6000546100b59060ff1681565b60405160ff909116815260200161009f565b6100da6100d5366004610722565b6101bd565b005b6101196100ea3660046106f4565b6001602081905260009182526040909120805491015467ffffffffffffffff811690600160401b900460ff1683565b6040805193845267ffffffffffffffff909216602084015215159082015260600161009f565b61009561014d36600461073a565b6104c7565b6100da61016036600461073a565b610514565b6100da610173366004610722565b61067d565b6040516bffffffffffffffffffffffff193060601b16602082015260348101829052600090605401604051602081830303815290604052805190602001209050919050565b3360009081526001602081905260409091200154600160401b900460ff161561023c5760405162461bcd60e51b815260206004820152602660248201527f436f6d6d697452657665616c3a3a72657665616c3a20416c72656164792072656044820152651d99585b195960d21b60648201526084015b60405180910390fd5b336000908152600160208190526040909120908101805460ff60401b1916600160401b1790555461026c82610178565b146102df5760405162461bcd60e51b815260206004820152603960248201527f436f6d6d697452657665616c3a3a72657665616c3a2052657665616c6564206860448201527f61736820646f6573206e6f74206d6174636820636f6d6d6974000000000000006064820152608401610233565b336000908152600160208190526040909120015467ffffffffffffffff90811643909116116103815760405162461bcd60e51b815260206004820152604260248201527f436f6d6d697452657665616c3a3a72657665616c3a2052657665616c20616e6460448201527f20636f6d6d69742068617070656e6564206f6e207468652073616d6520626c6f606482015261636b60f01b608482015260a401610233565b33600090815260016020819052604090912001546103aa9067ffffffffffffffff1660fa61075b565b67ffffffffffffffff164367ffffffffffffffff16111561041d5760405162461bcd60e51b815260206004820152602760248201527f436f6d6d697452657665616c3a3a72657665616c3a2052657665616c656420746044820152666f6f206c61746560c81b6064820152608401610233565b33600090815260016020818152604080842090920154825167ffffffffffffffff909116408183018190528184018690528351808303850181526060909201909352805191012082549192909182919061047a9060ff1683610793565b604080513381526020810188905260ff83168183015290519192507f8265058f07599e98b8c38fb966d3c8c0e96c7bee83f2e0021399e00fac8b45ed919081900360600190a15050505050565b6040516bffffffffffffffffffffffff193060601b166020820152603481018390526054810182905260009060740160405160208183030381529060405280519060200120905092915050565b3360009081526001602081905260409091200154600160401b900460ff16156105945760405162461bcd60e51b815260206004820152602c60248201527f436f6d6d697452657665616c3a3a72657665616c416e737765723a20416c726560448201526b18591e481c995d99585b195960a21b6064820152608401610233565b336000908152600160208190526040909120908101805460ff60401b1916600160401b179055546105c583836104c7565b146106385760405162461bcd60e51b815260206004820152603f60248201527f436f6d6d697452657665616c3a3a72657665616c416e737765723a205265766560448201527f616c6564206861736820646f6573206e6f74206d6174636820636f6d6d6974006064820152608401610233565b60408051338152602081018490529081018290527f8bed02c4d61e56ed1d90657e7a0ba48f15cca20fcc2899d7235221b2cb0423a69060600160405180910390a15050565b33600081815260016020818152604092839020858155909101805468ffffffffffffffffff191667ffffffffffffffff43169081179091558251938452908301849052908201527f3c1a1f8f38335b17f751c6da4ba7d1865f26b3997535176f5080de9fad8916039060600160405180910390a150565b600060208284031215610705578081fd5b81356001600160a01b038116811461071b578182fd5b9392505050565b600060208284031215610733578081fd5b5035919050565b6000806040838503121561074c578081fd5b50508035926020909101359150565b600067ffffffffffffffff80831681851680830382111561078a57634e487b7160e01b84526011600452602484fd5b01949350505050565b6000826107ae57634e487b7160e01b81526012600452602481fd5b50069056fea264697066735822122064f20a46d8b9d49a8408e060de35aa06c49a357eeb48c0bcb9ca06802662feec64736f6c63430008040033",
          "opcodes": "PUSH1 0x80 PUSH1 0x40 MSTORE PUSH1 0x0 DUP1 SLOAD PUSH1 0xFF NOT AND PUSH1 0x64 OR SWAP1 SSTORE CALLVALUE DUP1 ISZERO PUSH2 0x1D JUMPI PUSH1 0x0 DUP1 REVERT JUMPDEST POP PUSH2 0x7E9 DUP1 PUSH2 0x2D PUSH1 0x0 CODECOPY PUSH1 0x0 RETURN INVALID PUSH1 0x80 PUSH1 0x40 MSTORE CALLVALUE DUP1 ISZERO PUSH2 0x10 JUMPI PUSH1 0x0 DUP1 REVERT JUMPDEST POP PUSH1 0x4 CALLDATASIZE LT PUSH2 0x7D JUMPI PUSH1 0x0 CALLDATALOAD PUSH1 0xE0 SHR DUP1 PUSH4 0x7B43A8E6 GT PUSH2 0x5B JUMPI DUP1 PUSH4 0x7B43A8E6 EQ PUSH2 0xDC JUMPI DUP1 PUSH4 0x8DDDBF36 EQ PUSH2 0x13F JUMPI DUP1 PUSH4 0xDE8E9033 EQ PUSH2 0x152 JUMPI DUP1 PUSH4 0xF14FCBC8 EQ PUSH2 0x165 JUMPI PUSH1 0x0 DUP1 REVERT JUMPDEST DUP1 PUSH4 0x3CF5040A EQ PUSH2 0x82 JUMPI DUP1 PUSH4 0x6AC5DB19 EQ PUSH2 0xA8 JUMPI DUP1 PUSH4 0x701FD0F1 EQ PUSH2 0xC7 JUMPI JUMPDEST PUSH1 0x0 DUP1 REVERT JUMPDEST PUSH2 0x95 PUSH2 0x90 CALLDATASIZE PUSH1 0x4 PUSH2 0x722 JUMP JUMPDEST PUSH2 0x178 JUMP JUMPDEST PUSH1 0x40 MLOAD SWAP1 DUP2 MSTORE PUSH1 0x20 ADD JUMPDEST PUSH1 0x40 MLOAD DUP1 SWAP2 SUB SWAP1 RETURN JUMPDEST PUSH1 0x0 SLOAD PUSH2 0xB5 SWAP1 PUSH1 0xFF AND DUP2 JUMP JUMPDEST PUSH1 0x40 MLOAD PUSH1 0xFF SWAP1 SWAP2 AND DUP2 MSTORE PUSH1 0x20 ADD PUSH2 0x9F JUMP JUMPDEST PUSH2 0xDA PUSH2 0xD5 CALLDATASIZE PUSH1 0x4 PUSH2 0x722 JUMP JUMPDEST PUSH2 0x1BD JUMP JUMPDEST STOP JUMPDEST PUSH2 0x119 PUSH2 0xEA CALLDATASIZE PUSH1 0x4 PUSH2 0x6F4 JUMP JUMPDEST PUSH1 0x1 PUSH1 0x20 DUP2 SWAP1 MSTORE PUSH1 0x0 SWAP2 DUP3 MSTORE PUSH1 0x40 SWAP1 SWAP2 KECCAK256 DUP1 SLOAD SWAP2 ADD SLOAD PUSH8 0xFFFFFFFFFFFFFFFF DUP2 AND SWAP1 PUSH1 0x1 PUSH1 0x40 SHL SWAP1 DIV PUSH1 0xFF AND DUP4 JUMP JUMPDEST PUSH1 0x40 DUP1 MLOAD SWAP4 DUP5 MSTORE PUSH8 0xFFFFFFFFFFFFFFFF SWAP1 SWAP3 AND PUSH1 0x20 DUP5 ADD MSTORE ISZERO ISZERO SWAP1 DUP3 ADD MSTORE PUSH1 0x60 ADD PUSH2 0x9F JUMP JUMPDEST PUSH2 0x95 PUSH2 0x14D CALLDATASIZE PUSH1 0x4 PUSH2 0x73A JUMP JUMPDEST PUSH2 0x4C7 JUMP JUMPDEST PUSH2 0xDA PUSH2 0x160 CALLDATASIZE PUSH1 0x4 PUSH2 0x73A JUMP JUMPDEST PUSH2 0x514 JUMP JUMPDEST PUSH2 0xDA PUSH2 0x173 CALLDATASIZE PUSH1 0x4 PUSH2 0x722 JUMP JUMPDEST PUSH2 0x67D JUMP JUMPDEST PUSH1 0x40 MLOAD PUSH12 0xFFFFFFFFFFFFFFFFFFFFFFFF NOT ADDRESS PUSH1 0x60 SHL AND PUSH1 0x20 DUP3 ADD MSTORE PUSH1 0x34 DUP2 ADD DUP3 SWAP1 MSTORE PUSH1 0x0 SWAP1 PUSH1 0x54 ADD PUSH1 0x40 MLOAD PUSH1 0x20 DUP2 DUP4 SUB SUB DUP2 MSTORE SWAP1 PUSH1 0x40 MSTORE DUP1 MLOAD SWAP1 PUSH1 0x20 ADD KECCAK256 SWAP1 POP SWAP2 SWAP1 POP JUMP JUMPDEST CALLER PUSH1 0x0 SWAP1 DUP2 MSTORE PUSH1 0x1 PUSH1 0x20 DUP2 SWAP1 MSTORE PUSH1 0x40 SWAP1 SWAP2 KECCAK256 ADD SLOAD PUSH1 0x1 PUSH1 0x40 SHL SWAP1 DIV PUSH1 0xFF AND ISZERO PUSH2 0x23C JUMPI PUSH1 0x40 MLOAD PUSH3 0x461BCD PUSH1 0xE5 SHL DUP2 MSTORE PUSH1 0x20 PUSH1 0x4 DUP3 ADD MSTORE PUSH1 0x26 PUSH1 0x24 DUP3 ADD MSTORE PUSH32 0x436F6D6D697452657665616C3A3A72657665616C3A20416C7265616479207265 PUSH1 0x44 DUP3 ADD MSTORE PUSH6 0x1D99585B1959 PUSH1 0xD2 SHL PUSH1 0x64 DUP3 ADD MSTORE PUSH1 0x84 ADD JUMPDEST PUSH1 0x40 MLOAD DUP1 SWAP2 SUB SWAP1 REVERT JUMPDEST CALLER PUSH1 0x0 SWAP1 DUP2 MSTORE PUSH1 0x1 PUSH1 0x20 DUP2 SWAP1 MSTORE PUSH1 0x40 SWAP1 SWAP2 KECCAK256 SWAP1 DUP2 ADD DUP1 SLOAD PUSH1 0xFF PUSH1 0x40 SHL NOT AND PUSH1 0x1 PUSH1 0x40 SHL OR SWAP1 SSTORE SLOAD PUSH2 0x26C DUP3 PUSH2 0x178 JUMP JUMPDEST EQ PUSH2 0x2DF JUMPI PUSH1 0x40 MLOAD PUSH3 0x461BCD PUSH1 0xE5 SHL DUP2 MSTORE PUSH1 0x20 PUSH1 0x4 DUP3 ADD MSTORE PUSH1 0x39 PUSH1 0x24 DUP3 ADD MSTORE PUSH32 0x436F6D6D697452657665616C3A3A72657665616C3A2052657665616C65642068 PUSH1 0x44 DUP3 ADD MSTORE PUSH32 0x61736820646F6573206E6F74206D6174636820636F6D6D697400000000000000 PUSH1 0x64 DUP3 ADD MSTORE PUSH1 0x84 ADD PUSH2 0x233 JUMP JUMPDEST CALLER PUSH1 0x0 SWAP1 DUP2 MSTORE PUSH1 0x1 PUSH1 0x20 DUP2 SWAP1 MSTORE PUSH1 0x40 SWAP1 SWAP2 KECCAK256 ADD SLOAD PUSH8 0xFFFFFFFFFFFFFFFF SWAP1 DUP2 AND NUMBER SWAP1 SWAP2 AND GT PUSH2 0x381 JUMPI PUSH1 0x40 MLOAD PUSH3 0x461BCD PUSH1 0xE5 SHL DUP2 MSTORE PUSH1 0x20 PUSH1 0x4 DUP3 ADD MSTORE PUSH1 0x42 PUSH1 0x24 DUP3 ADD MSTORE PUSH32 0x436F6D6D697452657665616C3A3A72657665616C3A2052657665616C20616E64 PUSH1 0x44 DUP3 ADD MSTORE PUSH32 0x20636F6D6D69742068617070656E6564206F6E207468652073616D6520626C6F PUSH1 0x64 DUP3 ADD MSTORE PUSH2 0x636B PUSH1 0xF0 SHL PUSH1 0x84 DUP3 ADD MSTORE PUSH1 0xA4 ADD PUSH2 0x233 JUMP JUMPDEST CALLER PUSH1 0x0 SWAP1 DUP2 MSTORE PUSH1 0x1 PUSH1 0x20 DUP2 SWAP1 MSTORE PUSH1 0x40 SWAP1 SWAP2 KECCAK256 ADD SLOAD PUSH2 0x3AA SWAP1 PUSH8 0xFFFFFFFFFFFFFFFF AND PUSH1 0xFA PUSH2 0x75B JUMP JUMPDEST PUSH8 0xFFFFFFFFFFFFFFFF AND NUMBER PUSH8 0xFFFFFFFFFFFFFFFF AND GT ISZERO PUSH2 0x41D JUMPI PUSH1 0x40 MLOAD PUSH3 0x461BCD PUSH1 0xE5 SHL DUP2 MSTORE PUSH1 0x20 PUSH1 0x4 DUP3 ADD MSTORE PUSH1 0x27 PUSH1 0x24 DUP3 ADD MSTORE PUSH32 0x436F6D6D697452657665616C3A3A72657665616C3A2052657665616C65642074 PUSH1 0x44 DUP3 ADD MSTORE PUSH7 0x6F6F206C617465 PUSH1 0xC8 SHL PUSH1 0x64 DUP3 ADD MSTORE PUSH1 0x84 ADD PUSH2 0x233 JUMP JUMPDEST CALLER PUSH1 0x0 SWAP1 DUP2 MSTORE PUSH1 0x1 PUSH1 0x20 DUP2 DUP2 MSTORE PUSH1 0x40 DUP1 DUP5 KECCAK256 SWAP1 SWAP3 ADD SLOAD DUP3 MLOAD PUSH8 0xFFFFFFFFFFFFFFFF SWAP1 SWAP2 AND BLOCKHASH DUP2 DUP4 ADD DUP2 SWAP1 MSTORE DUP2 DUP5 ADD DUP7 SWAP1 MSTORE DUP4 MLOAD DUP1 DUP4 SUB DUP6 ADD DUP2 MSTORE PUSH1 0x60 SWAP1 SWAP3 ADD SWAP1 SWAP4 MSTORE DUP1 MLOAD SWAP2 ADD KECCAK256 DUP3 SLOAD SWAP2 SWAP3 SWAP1 SWAP2 DUP3 SWAP2 SWAP1 PUSH2 0x47A SWAP1 PUSH1 0xFF AND DUP4 PUSH2 0x793 JUMP JUMPDEST PUSH1 0x40 DUP1 MLOAD CALLER DUP2 MSTORE PUSH1 0x20 DUP2 ADD DUP9 SWAP1 MSTORE PUSH1 0xFF DUP4 AND DUP2 DUP4 ADD MSTORE SWAP1 MLOAD SWAP2 SWAP3 POP PUSH32 0x8265058F07599E98B8C38FB966D3C8C0E96C7BEE83F2E0021399E00FAC8B45ED SWAP2 SWAP1 DUP2 SWAP1 SUB PUSH1 0x60 ADD SWAP1 LOG1 POP POP POP POP POP JUMP JUMPDEST PUSH1 0x40 MLOAD PUSH12 0xFFFFFFFFFFFFFFFFFFFFFFFF NOT ADDRESS PUSH1 0x60 SHL AND PUSH1 0x20 DUP3 ADD MSTORE PUSH1 0x34 DUP2 ADD DUP4 SWAP1 MSTORE PUSH1 0x54 DUP2 ADD DUP3 SWAP1 MSTORE PUSH1 0x0 SWAP1 PUSH1 0x74 ADD PUSH1 0x40 MLOAD PUSH1 0x20 DUP2 DUP4 SUB SUB DUP2 MSTORE SWAP1 PUSH1 0x40 MSTORE DUP1 MLOAD SWAP1 PUSH1 0x20 ADD KECCAK256 SWAP1 POP SWAP3 SWAP2 POP POP JUMP JUMPDEST CALLER PUSH1 0x0 SWAP1 DUP2 MSTORE PUSH1 0x1 PUSH1 0x20 DUP2 SWAP1 MSTORE PUSH1 0x40 SWAP1 SWAP2 KECCAK256 ADD SLOAD PUSH1 0x1 PUSH1 0x40 SHL SWAP1 DIV PUSH1 0xFF AND ISZERO PUSH2 0x594 JUMPI PUSH1 0x40 MLOAD PUSH3 0x461BCD PUSH1 0xE5 SHL DUP2 MSTORE PUSH1 0x20 PUSH1 0x4 DUP3 ADD MSTORE PUSH1 0x2C PUSH1 0x24 DUP3 ADD MSTORE PUSH32 0x436F6D6D697452657665616C3A3A72657665616C416E737765723A20416C7265 PUSH1 0x44 DUP3 ADD MSTORE PUSH12 0x18591E481C995D99585B1959 PUSH1 0xA2 SHL PUSH1 0x64 DUP3 ADD MSTORE PUSH1 0x84 ADD PUSH2 0x233 JUMP JUMPDEST CALLER PUSH1 0x0 SWAP1 DUP2 MSTORE PUSH1 0x1 PUSH1 0x20 DUP2 SWAP1 MSTORE PUSH1 0x40 SWAP1 SWAP2 KECCAK256 SWAP1 DUP2 ADD DUP1 SLOAD PUSH1 0xFF PUSH1 0x40 SHL NOT AND PUSH1 0x1 PUSH1 0x40 SHL OR SWAP1 SSTORE SLOAD PUSH2 0x5C5 DUP4 DUP4 PUSH2 0x4C7 JUMP JUMPDEST EQ PUSH2 0x638 JUMPI PUSH1 0x40 MLOAD PUSH3 0x461BCD PUSH1 0xE5 SHL DUP2 MSTORE PUSH1 0x20 PUSH1 0x4 DUP3 ADD MSTORE PUSH1 0x3F PUSH1 0x24 DUP3 ADD MSTORE PUSH32 0x436F6D6D697452657665616C3A3A72657665616C416E737765723A2052657665 PUSH1 0x44 DUP3 ADD MSTORE PUSH32 0x616C6564206861736820646F6573206E6F74206D6174636820636F6D6D697400 PUSH1 0x64 DUP3 ADD MSTORE PUSH1 0x84 ADD PUSH2 0x233 JUMP JUMPDEST PUSH1 0x40 DUP1 MLOAD CALLER DUP2 MSTORE PUSH1 0x20 DUP2 ADD DUP5 SWAP1 MSTORE SWAP1 DUP2 ADD DUP3 SWAP1 MSTORE PUSH32 0x8BED02C4D61E56ED1D90657E7A0BA48F15CCA20FCC2899D7235221B2CB0423A6 SWAP1 PUSH1 0x60 ADD PUSH1 0x40 MLOAD DUP1 SWAP2 SUB SWAP1 LOG1 POP POP JUMP JUMPDEST CALLER PUSH1 0x0 DUP2 DUP2 MSTORE PUSH1 0x1 PUSH1 0x20 DUP2 DUP2 MSTORE PUSH1 0x40 SWAP3 DUP4 SWAP1 KECCAK256 DUP6 DUP2 SSTORE SWAP1 SWAP2 ADD DUP1 SLOAD PUSH9 0xFFFFFFFFFFFFFFFFFF NOT AND PUSH8 0xFFFFFFFFFFFFFFFF NUMBER AND SWAP1 DUP2 OR SWAP1 SWAP2 SSTORE DUP3 MLOAD SWAP4 DUP5 MSTORE SWAP1 DUP4 ADD DUP5 SWAP1 MSTORE SWAP1 DUP3 ADD MSTORE PUSH32 0x3C1A1F8F38335B17F751C6DA4BA7D1865F26B3997535176F5080DE9FAD891603 SWAP1 PUSH1 0x60 ADD PUSH1 0x40 MLOAD DUP1 SWAP2 SUB SWAP1 LOG1 POP JUMP JUMPDEST PUSH1 0x0 PUSH1 0x20 DUP3 DUP5 SUB SLT ISZERO PUSH2 0x705 JUMPI DUP1 DUP2 REVERT JUMPDEST DUP2 CALLDATALOAD PUSH1 0x1 PUSH1 0x1 PUSH1 0xA0 SHL SUB DUP2 AND DUP2 EQ PUSH2 0x71B JUMPI DUP2 DUP3 REVERT JUMPDEST SWAP4 SWAP3 POP POP POP JUMP JUMPDEST PUSH1 0x0 PUSH1 0x20 DUP3 DUP5 SUB SLT ISZERO PUSH2 0x733 JUMPI DUP1 DUP2 REVERT JUMPDEST POP CALLDATALOAD SWAP2 SWAP1 POP JUMP JUMPDEST PUSH1 0x0 DUP1 PUSH1 0x40 DUP4 DUP6 SUB SLT ISZERO PUSH2 0x74C JUMPI DUP1 DUP2 REVERT JUMPDEST POP POP DUP1 CALLDATALOAD SWAP3 PUSH1 0x20 SWAP1 SWAP2 ADD CALLDATALOAD SWAP2 POP JUMP JUMPDEST PUSH1 0x0 PUSH8 0xFFFFFFFFFFFFFFFF DUP1 DUP4 AND DUP2 DUP6 AND DUP1 DUP4 SUB DUP3 GT ISZERO PUSH2 0x78A JUMPI PUSH4 0x4E487B71 PUSH1 0xE0 SHL DUP5 MSTORE PUSH1 0x11 PUSH1 0x4 MSTORE PUSH1 0x24 DUP5 REVERT JUMPDEST ADD SWAP5 SWAP4 POP POP POP POP JUMP JUMPDEST PUSH1 0x0 DUP3 PUSH2 0x7AE JUMPI PUSH4 0x4E487B71 PUSH1 0xE0 SHL DUP2 MSTORE PUSH1 0x12 PUSH1 0x4 MSTORE PUSH1 0x24 DUP2 REVERT JUMPDEST POP MOD SWAP1 JUMP INVALID LOG2 PUSH5 0x6970667358 0x22 SLT KECCAK256 PUSH5 0xF20A46D8B9 0xD4 SWAP11 DUP5 ADDMOD 0xE0 PUSH1 0xDE CALLDATALOAD 0xAA MOD 0xC4 SWAP11 CALLDATALOAD PUSH31 0xEB48C0BCB9CA06802662FEEC64736F6C634300080400330000000000000000 "
        },
        "gasEstimates": {
          "creation": {
            "codeDepositCost": "405000",
            "executionCost": "21267",
            "totalCost": "426267"
          },
          "external": {
            "commit(bytes32)": "42827",
            "commits(address)": "2088",
            "getHash(bytes32)": "448",
            "getSaltedHash(bytes32,bytes32)": "521",
            "max()": "1036",
            "reveal(bytes32)": "28685",
            "revealAnswer(bytes32,bytes32)": "24806"
          }
        },
        "methodIdentifiers": {
          "commit(bytes32)": "f14fcbc8",
          "commits(address)": "7b43a8e6",
          "getHash(bytes32)": "3cf5040a",
          "getSaltedHash(bytes32,bytes32)": "8dddbf36",
          "max()": "6ac5db19",
          "reveal(bytes32)": "701fd0f1",
          "revealAnswer(bytes32,bytes32)": "de8e9033"
        }
      },
      "storageLayout": {
        "storage": [
          {
            "astId": 4,
            "contract": "src/Random.sol:Random",
            "label": "max",
            "offset": 0,
            "slot": "0",
            "type": "t_uint8"
          },
          {
            "astId": 20,
            "contract": "src/Random.sol:Random",
            "label": "commits",
            "offset": 0,
            "slot": "1",
            "type": "t_mapping(t_address,t_struct(Commit)15_storage)"
          }
        ],
        "types": {
          "t_address": {
            "encoding": "inplace",
            "label": "address",
            "numberOfBytes": "20"
          },
          "t_bool": {
            "encoding": "inplace",
            "label": "bool",
            "numberOfBytes": "1"
          },
          "t_bytes32": {
            "encoding": "inplace",
            "label": "bytes32",
            "numberOfBytes": "32"
          },
          "t_mapping(t_address,t_struct(Commit)15_storage)": {
            "encoding": "mapping",
            "key": "t_address",
            "label": "mapping(address => struct Random.Commit)",
            "numberOfBytes": "32",
            "value": "t_struct(Commit)15_storage"
          },
          "t_struct(Commit)15_storage": {
            "encoding": "inplace",
            "label": "struct Random.Commit",
            "members": [
              {
                "astId": 10,
                "contract": "src/Random.sol:Random",
                "label": "commit",
                "offset": 0,
                "slot": "0",
                "type": "t_bytes32"
              },
              {
                "astId": 12,
                "contract": "src/Random.sol:Random",
                "label": "block",
                "offset": 0,
                "slot": "1",
                "type": "t_uint64"
              },
              {
                "astId": 14,
                "contract": "src/Random.sol:Random",
                "label": "revealed",
                "offset": 8,
                "slot": "1",
                "type": "t_bool"
              }
            ],
            "numberOfBytes": "64"
          },
          "t_uint64": {
            "encoding": "inplace",
            "label": "uint64",
            "numberOfBytes": "8"
          },
          "t_uint8": {
            "encoding": "inplace",
            "label": "uint8",
            "numberOfBytes": "1"
          }
        }
      },
      "userdoc": {
        "kind": "user",
        "methods": {},
        "version": 1
      }
    }
  }
}