{
  "address": "0xfAb3ebFA746c538457C11c8A5b913CCf78755D31",
  "abi": [
    {
      "inputs": [],
      "stateMutability": "nonpayable",
      "type": "constructor"
    },
    {
      "anonymous": false,
      "inputs": [
        {
          "indexed": true,
          "internalType": "address",
          "name": "owner",
          "type": "address"
        },
        {
          "indexed": true,
          "internalType": "address",
          "name": "spender",
          "type": "address"
        },
        {
          "indexed": false,
          "internalType": "uint256",
          "name": "value",
          "type": "uint256"
        }
      ],
      "name": "Approval",
      "type": "event"
    },
    {
      "anonymous": false,
      "inputs": [
        {
          "indexed": true,
          "internalType": "address",
          "name": "previousOwner",
          "type": "address"
        },
        {
          "indexed": true,
          "internalType": "address",
          "name": "newOwner",
          "type": "address"
        }
      ],
      "name": "OwnershipTransferred",
      "type": "event"
    },
    {
      "anonymous": false,
      "inputs": [
        {
          "indexed": false,
          "internalType": "address",
          "name": "account",
          "type": "address"
        }
      ],
      "name": "Paused",
      "type": "event"
    },
    {
      "anonymous": false,
      "inputs": [
        {
          "indexed": true,
          "internalType": "bytes32",
          "name": "role",
          "type": "bytes32"
        },
        {
          "indexed": true,
          "internalType": "bytes32",
          "name": "previousAdminRole",
          "type": "bytes32"
        },
        {
          "indexed": true,
          "internalType": "bytes32",
          "name": "newAdminRole",
          "type": "bytes32"
        }
      ],
      "name": "RoleAdminChanged",
      "type": "event"
    },
    {
      "anonymous": false,
      "inputs": [
        {
          "indexed": true,
          "internalType": "bytes32",
          "name": "role",
          "type": "bytes32"
        },
        {
          "indexed": true,
          "internalType": "address",
          "name": "account",
          "type": "address"
        },
        {
          "indexed": true,
          "internalType": "address",
          "name": "sender",
          "type": "address"
        }
      ],
      "name": "RoleGranted",
      "type": "event"
    },
    {
      "anonymous": false,
      "inputs": [
        {
          "indexed": true,
          "internalType": "bytes32",
          "name": "role",
          "type": "bytes32"
        },
        {
          "indexed": true,
          "internalType": "address",
          "name": "account",
          "type": "address"
        },
        {
          "indexed": true,
          "internalType": "address",
          "name": "sender",
          "type": "address"
        }
      ],
      "name": "RoleRevoked",
      "type": "event"
    },
    {
      "anonymous": false,
      "inputs": [
        {
          "indexed": true,
          "internalType": "address",
          "name": "from",
          "type": "address"
        },
        {
          "indexed": true,
          "internalType": "address",
          "name": "to",
          "type": "address"
        },
        {
          "indexed": false,
          "internalType": "uint256",
          "name": "value",
          "type": "uint256"
        }
      ],
      "name": "Transfer",
      "type": "event"
    },
    {
      "anonymous": false,
      "inputs": [
        {
          "indexed": false,
          "internalType": "address",
          "name": "account",
          "type": "address"
        }
      ],
      "name": "Unpaused",
      "type": "event"
    },
    {
      "inputs": [],
      "name": "BLACKLIST",
      "outputs": [
        {
          "internalType": "bytes32",
          "name": "",
          "type": "bytes32"
        }
      ],
      "stateMutability": "view",
      "type": "function"
    },
    {
      "inputs": [],
      "name": "DEFAULT_ADMIN_ROLE",
      "outputs": [
        {
          "internalType": "bytes32",
          "name": "",
          "type": "bytes32"
        }
      ],
      "stateMutability": "view",
      "type": "function"
    },
    {
      "inputs": [
        {
          "internalType": "address[]",
          "name": "addresses",
          "type": "address[]"
        },
        {
          "internalType": "uint256[]",
          "name": "amounts",
          "type": "uint256[]"
        }
      ],
      "name": "airdrop",
      "outputs": [
        {
          "internalType": "uint256",
          "name": "",
          "type": "uint256"
        }
      ],
      "stateMutability": "nonpayable",
      "type": "function"
    },
    {
      "inputs": [],
      "name": "airdropDone",
      "outputs": [],
      "stateMutability": "nonpayable",
      "type": "function"
    },
    {
      "inputs": [
        {
          "internalType": "address",
          "name": "owner",
          "type": "address"
        },
        {
          "internalType": "address",
          "name": "spender",
          "type": "address"
        }
      ],
      "name": "allowance",
      "outputs": [
        {
          "internalType": "uint256",
          "name": "",
          "type": "uint256"
        }
      ],
      "stateMutability": "view",
      "type": "function"
    },
    {
      "inputs": [
        {
          "internalType": "address",
          "name": "spender",
          "type": "address"
        },
        {
          "internalType": "uint256",
          "name": "amount",
          "type": "uint256"
        }
      ],
      "name": "approve",
      "outputs": [
        {
          "internalType": "bool",
          "name": "",
          "type": "bool"
        }
      ],
      "stateMutability": "nonpayable",
      "type": "function"
    },
    {
      "inputs": [
        {
          "internalType": "address",
          "name": "account",
          "type": "address"
        }
      ],
      "name": "balanceOf",
      "outputs": [
        {
          "internalType": "uint256",
          "name": "",
          "type": "uint256"
        }
      ],
      "stateMutability": "view",
      "type": "function"
    },
    {
      "inputs": [
        {
          "internalType": "address",
          "name": "_addr",
          "type": "address"
        }
      ],
      "name": "blacklistAddress",
      "outputs": [],
      "stateMutability": "nonpayable",
      "type": "function"
    },
    {
      "inputs": [],
      "name": "bridge",
      "outputs": [
        {
          "internalType": "address",
          "name": "",
          "type": "address"
        }
      ],
      "stateMutability": "view",
      "type": "function"
    },
    {
      "inputs": [
        {
          "internalType": "address",
          "name": "account",
          "type": "address"
        },
        {
          "internalType": "uint256",
          "name": "amount",
          "type": "uint256"
        }
      ],
      "name": "bridgeBurn",
      "outputs": [],
      "stateMutability": "nonpayable",
      "type": "function"
    },
    {
      "inputs": [
        {
          "internalType": "address",
          "name": "to",
          "type": "address"
        },
        {
          "internalType": "uint256",
          "name": "value",
          "type": "uint256"
        }
      ],
      "name": "bridgeMint",
      "outputs": [],
      "stateMutability": "nonpayable",
      "type": "function"
    },
    {
      "inputs": [
        {
          "internalType": "uint256",
          "name": "amount",
          "type": "uint256"
        }
      ],
      "name": "burn",
      "outputs": [],
      "stateMutability": "nonpayable",
      "type": "function"
    },
    {
      "inputs": [
        {
          "internalType": "address",
          "name": "account",
          "type": "address"
        },
        {
          "internalType": "uint256",
          "name": "amount",
          "type": "uint256"
        }
      ],
      "name": "burnFrom",
      "outputs": [],
      "stateMutability": "nonpayable",
      "type": "function"
    },
    {
      "inputs": [
        {
          "internalType": "address",
          "name": "_bridge",
          "type": "address"
        }
      ],
      "name": "configure",
      "outputs": [],
      "stateMutability": "nonpayable",
      "type": "function"
    },
    {
      "inputs": [],
      "name": "decimals",
      "outputs": [
        {
          "internalType": "uint8",
          "name": "",
          "type": "uint8"
        }
      ],
      "stateMutability": "view",
      "type": "function"
    },
    {
      "inputs": [
        {
          "internalType": "address",
          "name": "spender",
          "type": "address"
        },
        {
          "internalType": "uint256",
          "name": "subtractedValue",
          "type": "uint256"
        }
      ],
      "name": "decreaseAllowance",
      "outputs": [
        {
          "internalType": "bool",
          "name": "",
          "type": "bool"
        }
      ],
      "stateMutability": "nonpayable",
      "type": "function"
    },
    {
      "inputs": [
        {
          "internalType": "bytes32",
          "name": "role",
          "type": "bytes32"
        }
      ],
      "name": "getRoleAdmin",
      "outputs": [
        {
          "internalType": "bytes32",
          "name": "",
          "type": "bytes32"
        }
      ],
      "stateMutability": "view",
      "type": "function"
    },
    {
      "inputs": [
        {
          "internalType": "bytes32",
          "name": "role",
          "type": "bytes32"
        },
        {
          "internalType": "address",
          "name": "account",
          "type": "address"
        }
      ],
      "name": "grantRole",
      "outputs": [],
      "stateMutability": "nonpayable",
      "type": "function"
    },
    {
      "inputs": [
        {
          "internalType": "bytes32",
          "name": "role",
          "type": "bytes32"
        },
        {
          "internalType": "address",
          "name": "account",
          "type": "address"
        }
      ],
      "name": "hasRole",
      "outputs": [
        {
          "internalType": "bool",
          "name": "",
          "type": "bool"
        }
      ],
      "stateMutability": "view",
      "type": "function"
    },
    {
      "inputs": [
        {
          "internalType": "address",
          "name": "spender",
          "type": "address"
        },
        {
          "internalType": "uint256",
          "name": "addedValue",
          "type": "uint256"
        }
      ],
      "name": "increaseAllowance",
      "outputs": [
        {
          "internalType": "bool",
          "name": "",
          "type": "bool"
        }
      ],
      "stateMutability": "nonpayable",
      "type": "function"
    },
    {
      "inputs": [
        {
          "internalType": "address",
          "name": "_addr",
          "type": "address"
        }
      ],
      "name": "isBlacklisted",
      "outputs": [
        {
          "internalType": "bool",
          "name": "",
          "type": "bool"
        }
      ],
      "stateMutability": "view",
      "type": "function"
    },
    {
      "inputs": [
        {
          "internalType": "address",
          "name": "to",
          "type": "address"
        },
        {
          "internalType": "uint256",
          "name": "value",
          "type": "uint256"
        }
      ],
      "name": "mint",
      "outputs": [],
      "stateMutability": "nonpayable",
      "type": "function"
    },
    {
      "inputs": [],
      "name": "name",
      "outputs": [
        {
          "internalType": "string",
          "name": "",
          "type": "string"
        }
      ],
      "stateMutability": "view",
      "type": "function"
    },
    {
      "inputs": [],
      "name": "owner",
      "outputs": [
        {
          "internalType": "address",
          "name": "",
          "type": "address"
        }
      ],
      "stateMutability": "view",
      "type": "function"
    },
    {
      "inputs": [],
      "name": "pause",
      "outputs": [],
      "stateMutability": "nonpayable",
      "type": "function"
    },
    {
      "inputs": [],
      "name": "paused",
      "outputs": [
        {
          "internalType": "bool",
          "name": "",
          "type": "bool"
        }
      ],
      "stateMutability": "view",
      "type": "function"
    },
    {
      "inputs": [],
      "name": "renounceOwnership",
      "outputs": [],
      "stateMutability": "nonpayable",
      "type": "function"
    },
    {
      "inputs": [
        {
          "internalType": "bytes32",
          "name": "role",
          "type": "bytes32"
        },
        {
          "internalType": "address",
          "name": "account",
          "type": "address"
        }
      ],
      "name": "renounceRole",
      "outputs": [],
      "stateMutability": "nonpayable",
      "type": "function"
    },
    {
      "inputs": [
        {
          "internalType": "bytes32",
          "name": "role",
          "type": "bytes32"
        },
        {
          "internalType": "address",
          "name": "account",
          "type": "address"
        }
      ],
      "name": "revokeRole",
      "outputs": [],
      "stateMutability": "nonpayable",
      "type": "function"
    },
    {
      "inputs": [
        {
          "internalType": "bytes4",
          "name": "interfaceId",
          "type": "bytes4"
        }
      ],
      "name": "supportsInterface",
      "outputs": [
        {
          "internalType": "bool",
          "name": "",
          "type": "bool"
        }
      ],
      "stateMutability": "view",
      "type": "function"
    },
    {
      "inputs": [],
      "name": "symbol",
      "outputs": [
        {
          "internalType": "string",
          "name": "",
          "type": "string"
        }
      ],
      "stateMutability": "view",
      "type": "function"
    },
    {
      "inputs": [],
      "name": "totalSupply",
      "outputs": [
        {
          "internalType": "uint256",
          "name": "",
          "type": "uint256"
        }
      ],
      "stateMutability": "view",
      "type": "function"
    },
    {
      "inputs": [
        {
          "internalType": "address",
          "name": "_to",
          "type": "address"
        },
        {
          "internalType": "uint256",
          "name": "_value",
          "type": "uint256"
        }
      ],
      "name": "transfer",
      "outputs": [
        {
          "internalType": "bool",
          "name": "",
          "type": "bool"
        }
      ],
      "stateMutability": "nonpayable",
      "type": "function"
    },
    {
      "inputs": [
        {
          "internalType": "address",
          "name": "_from",
          "type": "address"
        },
        {
          "internalType": "address",
          "name": "_to",
          "type": "address"
        },
        {
          "internalType": "uint256",
          "name": "_value",
          "type": "uint256"
        }
      ],
      "name": "transferFrom",
      "outputs": [
        {
          "internalType": "bool",
          "name": "",
          "type": "bool"
        }
      ],
      "stateMutability": "nonpayable",
      "type": "function"
    },
    {
      "inputs": [
        {
          "internalType": "address",
          "name": "newOwner",
          "type": "address"
        }
      ],
      "name": "transferOwnership",
      "outputs": [],
      "stateMutability": "nonpayable",
      "type": "function"
    },
    {
      "inputs": [],
      "name": "unpause",
      "outputs": [],
      "stateMutability": "nonpayable",
      "type": "function"
    }
  ],
  "transactionHash": "0x42b0f418eb9bbfb8c1843c97fa42122a6ce296cd83013bc35c50490e2891bf55",
  "args": [],
  "numDeployments": 1,
  "solcInputHash": "facd239851f48a33d4d7081ae00147a7",
  "bytecode": "0x60806040523480156200001157600080fd5b50604051806040016040528060038152602001625a4f4f60e81b815250604051806040016040528060038152602001625a4f4f60e81b815250816003908051906020019062000062929190620001b1565b50805162000078906004906020840190620001b1565b50506005805460ff19169055506200009033620000a3565b6200009d600033620000fd565b62000294565b600580546001600160a01b03838116610100818102610100600160a81b031985161790945560405193909204169182907f8be0079c531659141344cd1fd0a4f28419497f9722a3daafe3b4186f6b6457e090600090a35050565b6200010982826200010d565b5050565b60008281526006602090815260408083206001600160a01b038516845290915290205460ff16620001095760008281526006602090815260408083206001600160a01b03851684529091529020805460ff191660011790556200016d3390565b6001600160a01b0316816001600160a01b0316837f2f8788117e7eff1d82e926ec794901d17c78024a50270940304540a733656f0d60405160405180910390a45050565b828054620001bf9062000257565b90600052602060002090601f016020900481019282620001e357600085556200022e565b82601f10620001fe57805160ff19168380011785556200022e565b828001600101855582156200022e579182015b828111156200022e57825182559160200191906001019062000211565b506200023c92915062000240565b5090565b5b808211156200023c576000815560010162000241565b600181811c908216806200026c57607f821691505b602082108114156200028e57634e487b7160e01b600052602260045260246000fd5b50919050565b61201180620002a46000396000f3fe608060405234801561001057600080fd5b506004361061025c5760003560e01c806374f4f54711610145578063a457c2d7116100bd578063dd62ed3e1161008c578063f2fde38b11610071578063f2fde38b1461053b578063f3290d751461054e578063fe575a871461056157600080fd5b8063dd62ed3e146104ef578063e78cea921461052857600080fd5b8063a457c2d71461048f578063a9059cbb146104a2578063c8b0cf68146104b5578063d547741f146104dc57600080fd5b80638c2a993e1161011457806391d14854116100f957806391d148541461044657806395d89b411461047f578063a217fddf1461048757600080fd5b80638c2a993e146104095780638da5cb5b1461041c57600080fd5b806374f4f547146103c857806375cb2672146103db57806379cc6790146103ee5780638456cb591461040157600080fd5b806339509351116101d85780634ca64b5d116101a7578063672434821161018c578063672434821461038457806370a0823114610397578063715018a6146103c057600080fd5b80634ca64b5d146103715780635c975abb1461037957600080fd5b806339509351146103305780633f4ba83a1461034357806340c10f191461034b57806342966c681461035e57600080fd5b806323b872dd1161022f5780632f2ff15d116102145780632f2ff15d146102f9578063313ce5671461030e57806336568abe1461031d57600080fd5b806323b872dd146102c3578063248a9ca3146102d657600080fd5b806301ffc9a71461026157806306fdde0314610289578063095ea7b31461029e57806318160ddd146102b1575b600080fd5b61027461026f366004611d96565b610574565b60405190151581526020015b60405180910390f35b61029161060d565b6040516102809190611e57565b6102746102ac366004611c72565b61069f565b6002545b604051908152602001610280565b6102746102d1366004611c37565b6106b7565b6102b56102e4366004611d5c565b60009081526006602052604090206001015490565b61030c610307366004611d74565b6106ef565b005b60405160128152602001610280565b61030c61032b366004611d74565b610719565b61027461033e366004611c72565b6107aa565b61030c6107e9565b61030c610359366004611c72565b610803565b61030c61036c366004611d5c565b61088b565b61030c610898565b60055460ff16610274565b6102b5610392366004611c9b565b6108a6565b6102b56103a5366004611beb565b6001600160a01b031660009081526020819052604090205490565b61030c610b6f565b61030c6103d6366004611c72565b610b81565b61030c6103e9366004611beb565b610bf8565b61030c6103fc366004611c72565b610c3a565b61030c610c45565b61030c610417366004611c72565b610c5d565b60055461010090046001600160a01b03165b6040516001600160a01b039091168152602001610280565b610274610454366004611d74565b60009182526006602090815260408084206001600160a01b0393909316845291905290205460ff1690565b610291610cbf565b6102b5600081565b61027461049d366004611c72565b610cce565b6102746104b0366004611c72565b610d83565b6102b57fc88ef414e1d5ad1d458fdfa42b508737177470135860c2a2ce45583ce28f207c81565b61030c6104ea366004611d74565b610db0565b6102b56104fd366004611c05565b6001600160a01b03918216600090815260016020908152604080832093909416825291909152205490565b60075461042e906001600160a01b031681565b61030c610549366004611beb565b610dd5565b61030c61055c366004611beb565b610e62565b61027461056f366004611beb565b610e94565b60007fffffffff0000000000000000000000000000000000000000000000000000000082167f7965db0b00000000000000000000000000000000000000000000000000000000148061060757507f01ffc9a7000000000000000000000000000000000000000000000000000000007fffffffff000000000000000000000000000000000000000000000000000000008316145b92915050565b60606003805461061c90611f59565b80601f016020809104026020016040519081016040528092919081815260200182805461064890611f59565b80156106955780601f1061066a57610100808354040283529160200191610695565b820191906000526020600020905b81548152906001019060200180831161067857829003601f168201915b5050505050905090565b6000336106ad818585610ed4565b5060019392505050565b60006106c161102c565b6106ca8361107f565b6106d38461107f565b6106dc3361107f565b6106e7848484611107565b949350505050565b60008281526006602052604090206001015461070a81611120565b610714838361112a565b505050565b6001600160a01b038116331461079c5760405162461bcd60e51b815260206004820152602f60248201527f416363657373436f6e74726f6c3a2063616e206f6e6c792072656e6f756e636560448201527f20726f6c657320666f722073656c66000000000000000000000000000000000060648201526084015b60405180910390fd5b6107a682826111cc565b5050565b3360008181526001602090815260408083206001600160a01b03871684529091528120549091906106ad90829086906107e4908790611edf565b610ed4565b6107f161124f565b6107f96112af565b610801611301565b565b61080b61124f565b600854156108815760405162461bcd60e51b815260206004820152603160248201527f41697264726f702063616e6e6f742062652072756e20616761696e206166746560448201527f72206265696e6720636f6d706c657465640000000000000000000000000000006064820152608401610793565b6107a68282611353565b6108953382611412565b50565b6108a061124f565b42600855565b60006108b061124f565b600854156109265760405162461bcd60e51b815260206004820152603160248201527f41697264726f702063616e6e6f742062652072756e20616761696e206166746560448201527f72206265696e6720636f6d706c657465640000000000000000000000000000006064820152608401610793565b60008351118015610938575081518351145b6109aa5760405162461bcd60e51b815260206004820152602d60248201527f61646472657373657320616e6420616d6f756e7473206d75737420626520657160448201527f75616c20696e206c656e677468000000000000000000000000000000000000006064820152608401610793565b60005b8351811015610aef5760006001600160a01b03168482815181106109e157634e487b7160e01b600052603260045260246000fd5b60200260200101516001600160a01b03161415610a405760405162461bcd60e51b815260206004820152601a60248201527f416e206164647265737320697320657175616c20746f203078300000000000006044820152606401610793565b6000838281518110610a6257634e487b7160e01b600052603260045260246000fd5b602002602001015111610add5760405162461bcd60e51b815260206004820152602160248201527f41207a65726f20616d6f756e74206973206265696e67207472616e736665726560448201527f64000000000000000000000000000000000000000000000000000000000000006064820152608401610793565b80610ae781611f94565b9150506109ad565b5060005b8351811015610b6657610b54848281518110610b1f57634e487b7160e01b600052603260045260246000fd5b6020026020010151848381518110610b4757634e487b7160e01b600052603260045260246000fd5b6020026020010151611353565b80610b5e81611f94565b915050610af3565b50509051919050565b610b7761124f565b610801600061157b565b610b8961102c565b6007546001600160a01b03163314610be35760405162461bcd60e51b815260206004820152601860248201527f43616c6c6572206973206e6f74207468652062726964676500000000000000006044820152606401610793565b610bee823383610ed4565b6107a68282611412565b610c0061124f565b600780547fffffffffffffffffffffffff0000000000000000000000000000000000000000166001600160a01b0392909216919091179055565b610bee8233836115ec565b610c4d61124f565b610c5561102c565b61080161167e565b610c6561102c565b6007546001600160a01b031633146108815760405162461bcd60e51b815260206004820152601860248201527f43616c6c6572206973206e6f74207468652062726964676500000000000000006044820152606401610793565b60606004805461061c90611f59565b3360008181526001602090815260408083206001600160a01b038716845290915281205490919083811015610d6b5760405162461bcd60e51b815260206004820152602560248201527f45524332303a2064656372656173656420616c6c6f77616e63652062656c6f7760448201527f207a65726f0000000000000000000000000000000000000000000000000000006064820152608401610793565b610d788286868403610ed4565b506001949350505050565b6000610d8d61102c565b610d968361107f565b610d9f3361107f565b610da983836116bb565b9392505050565b600082815260066020526040902060010154610dcb81611120565b61071483836111cc565b610ddd61124f565b6001600160a01b038116610e595760405162461bcd60e51b815260206004820152602660248201527f4f776e61626c653a206e6577206f776e657220697320746865207a65726f206160448201527f64647265737300000000000000000000000000000000000000000000000000006064820152608401610793565b6108958161157b565b610e6a61124f565b6108957fc88ef414e1d5ad1d458fdfa42b508737177470135860c2a2ce45583ce28f207c826106ef565b6001600160a01b03811660009081527fe8ec247b9374476d5c62eca71d3b504ae5d5841dd846860dfe6603a5c57fe116602052604081205460ff16610607565b6001600160a01b038316610f4f5760405162461bcd60e51b8152602060048201526024808201527f45524332303a20617070726f76652066726f6d20746865207a65726f2061646460448201527f72657373000000000000000000000000000000000000000000000000000000006064820152608401610793565b6001600160a01b038216610fcb5760405162461bcd60e51b815260206004820152602260248201527f45524332303a20617070726f766520746f20746865207a65726f20616464726560448201527f73730000000000000000000000000000000000000000000000000000000000006064820152608401610793565b6001600160a01b0383811660008181526001602090815260408083209487168084529482529182902085905590518481527f8c5be1e5ebec7d5bd14f71427d1e84f3dd0314c0f7b2291e5b200ac8c7c3b925910160405180910390a3505050565b60055460ff16156108015760405162461bcd60e51b815260206004820152601060248201527f5061757361626c653a20706175736564000000000000000000000000000000006044820152606401610793565b6001600160a01b03811660009081527fe8ec247b9374476d5c62eca71d3b504ae5d5841dd846860dfe6603a5c57fe116602052604090205460ff16156108955760405162461bcd60e51b815260206004820152601760248201527f41646472657373206973206f6e20626c61636b6c6973740000000000000000006044820152606401610793565b6000336111158582856115ec565b610d788585856116c5565b61089581336118b2565b60008281526006602090815260408083206001600160a01b038516845290915290205460ff166107a65760008281526006602090815260408083206001600160a01b03851684529091529020805460ff191660011790556111883390565b6001600160a01b0316816001600160a01b0316837f2f8788117e7eff1d82e926ec794901d17c78024a50270940304540a733656f0d60405160405180910390a45050565b60008281526006602090815260408083206001600160a01b038516845290915290205460ff16156107a65760008281526006602090815260408083206001600160a01b0385168085529252808320805460ff1916905551339285917ff6391f5c32d9c69d2a47ea670b442974b53935d1edc7fd64eb21e047a839171b9190a45050565b6005546001600160a01b036101009091041633146108015760405162461bcd60e51b815260206004820181905260248201527f4f776e61626c653a2063616c6c6572206973206e6f7420746865206f776e65726044820152606401610793565b60055460ff166108015760405162461bcd60e51b815260206004820152601460248201527f5061757361626c653a206e6f74207061757365640000000000000000000000006044820152606401610793565b6113096112af565b6005805460ff191690557f5db9ee0a495bf2e6ff9c91a7834c1ba4fdd244a5e8aa4e537bd38aeae4b073aa335b6040516001600160a01b03909116815260200160405180910390a1565b6001600160a01b0382166113a95760405162461bcd60e51b815260206004820152601f60248201527f45524332303a206d696e7420746f20746865207a65726f2061646472657373006044820152606401610793565b80600260008282546113bb9190611edf565b90915550506001600160a01b038216600081815260208181526040808320805486019055518481527fddf252ad1be2c89b69c2b068fc378daa952ba7f163c4a11628f55a4df523b3ef910160405180910390a35050565b6001600160a01b03821661148e5760405162461bcd60e51b815260206004820152602160248201527f45524332303a206275726e2066726f6d20746865207a65726f2061646472657360448201527f73000000000000000000000000000000000000000000000000000000000000006064820152608401610793565b6001600160a01b0382166000908152602081905260409020548181101561151d5760405162461bcd60e51b815260206004820152602260248201527f45524332303a206275726e20616d6f756e7420657863656564732062616c616e60448201527f63650000000000000000000000000000000000000000000000000000000000006064820152608401610793565b6001600160a01b0383166000818152602081815260408083208686039055600280548790039055518581529192917fddf252ad1be2c89b69c2b068fc378daa952ba7f163c4a11628f55a4df523b3ef910160405180910390a3505050565b600580546001600160a01b038381166101008181027fffffffffffffffffffffff0000000000000000000000000000000000000000ff85161790945560405193909204169182907f8be0079c531659141344cd1fd0a4f28419497f9722a3daafe3b4186f6b6457e090600090a35050565b6001600160a01b038381166000908152600160209081526040808320938616835292905220546000198114611678578181101561166b5760405162461bcd60e51b815260206004820152601d60248201527f45524332303a20696e73756666696369656e7420616c6c6f77616e63650000006044820152606401610793565b6116788484848403610ed4565b50505050565b61168661102c565b6005805460ff191660011790557f62e78cea01bee320cd4e420270b5ea74000d11b0c9f74754ebdbfc544b05a2586113363390565b6000336106ad8185855b6001600160a01b0383166117415760405162461bcd60e51b815260206004820152602560248201527f45524332303a207472616e736665722066726f6d20746865207a65726f20616460448201527f64726573730000000000000000000000000000000000000000000000000000006064820152608401610793565b6001600160a01b0382166117bd5760405162461bcd60e51b815260206004820152602360248201527f45524332303a207472616e7366657220746f20746865207a65726f206164647260448201527f65737300000000000000000000000000000000000000000000000000000000006064820152608401610793565b6001600160a01b0383166000908152602081905260409020548181101561184c5760405162461bcd60e51b815260206004820152602660248201527f45524332303a207472616e7366657220616d6f756e742065786365656473206260448201527f616c616e636500000000000000000000000000000000000000000000000000006064820152608401610793565b6001600160a01b03848116600081815260208181526040808320878703905593871680835291849020805487019055925185815290927fddf252ad1be2c89b69c2b068fc378daa952ba7f163c4a11628f55a4df523b3ef910160405180910390a3611678565b60008281526006602090815260408083206001600160a01b038516845290915290205460ff166107a6576118e581611927565b6118f0836020611939565b604051602001611901929190611dd6565b60408051601f198184030181529082905262461bcd60e51b825261079391600401611e57565b60606106076001600160a01b03831660145b60606000611948836002611ef7565b611953906002611edf565b67ffffffffffffffff81111561197957634e487b7160e01b600052604160045260246000fd5b6040519080825280601f01601f1916602001820160405280156119a3576020820181803683370190505b5090507f3000000000000000000000000000000000000000000000000000000000000000816000815181106119e857634e487b7160e01b600052603260045260246000fd5b60200101906001600160f81b031916908160001a9053507f780000000000000000000000000000000000000000000000000000000000000081600181518110611a4157634e487b7160e01b600052603260045260246000fd5b60200101906001600160f81b031916908160001a9053506000611a65846002611ef7565b611a70906001611edf565b90505b6001811115611b11577f303132333435363738396162636465660000000000000000000000000000000085600f1660108110611abf57634e487b7160e01b600052603260045260246000fd5b1a60f81b828281518110611ae357634e487b7160e01b600052603260045260246000fd5b60200101906001600160f81b031916908160001a90535060049490941c93611b0a81611f42565b9050611a73565b508315610da95760405162461bcd60e51b815260206004820181905260248201527f537472696e67733a20686578206c656e67746820696e73756666696369656e746044820152606401610793565b80356001600160a01b0381168114611b7757600080fd5b919050565b600082601f830112611b8c578081fd5b81356020611ba1611b9c83611ebb565b611e8a565b80838252828201915082860187848660051b8901011115611bc0578586fd5b855b85811015611bde57813584529284019290840190600101611bc2565b5090979650505050505050565b600060208284031215611bfc578081fd5b610da982611b60565b60008060408385031215611c17578081fd5b611c2083611b60565b9150611c2e60208401611b60565b90509250929050565b600080600060608486031215611c4b578081fd5b611c5484611b60565b9250611c6260208501611b60565b9150604084013590509250925092565b60008060408385031215611c84578182fd5b611c8d83611b60565b946020939093013593505050565b60008060408385031215611cad578182fd5b823567ffffffffffffffff80821115611cc4578384fd5b818501915085601f830112611cd7578384fd5b81356020611ce7611b9c83611ebb565b8083825282820191508286018a848660051b8901011115611d06578889fd5b8896505b84871015611d2f57611d1b81611b60565b835260019690960195918301918301611d0a565b5096505086013592505080821115611d45578283fd5b50611d5285828601611b7c565b9150509250929050565b600060208284031215611d6d578081fd5b5035919050565b60008060408385031215611d86578182fd5b82359150611c2e60208401611b60565b600060208284031215611da7578081fd5b81357fffffffff0000000000000000000000000000000000000000000000000000000081168114610da9578182fd5b7f416363657373436f6e74726f6c3a206163636f756e7420000000000000000000815260008351611e0e816017850160208801611f16565b7f206973206d697373696e6720726f6c65200000000000000000000000000000006017918401918201528351611e4b816028840160208801611f16565b01602801949350505050565b6020815260008251806020840152611e76816040850160208701611f16565b601f01601f19169190910160400192915050565b604051601f8201601f1916810167ffffffffffffffff81118282101715611eb357611eb3611fc5565b604052919050565b600067ffffffffffffffff821115611ed557611ed5611fc5565b5060051b60200190565b60008219821115611ef257611ef2611faf565b500190565b6000816000190483118215151615611f1157611f11611faf565b500290565b60005b83811015611f31578181015183820152602001611f19565b838111156116785750506000910152565b600081611f5157611f51611faf565b506000190190565b600181811c90821680611f6d57607f821691505b60208210811415611f8e57634e487b7160e01b600052602260045260246000fd5b50919050565b6000600019821415611fa857611fa8611faf565b5060010190565b634e487b7160e01b600052601160045260246000fd5b634e487b7160e01b600052604160045260246000fdfea26469706673582212206acf577d7d3d041df37d85559a4fbe7a2f3296d7eb4ece13b9ca0cccb1b1331764736f6c63430008040033",
  "libraries": {},
  "devdoc": {
    "kind": "dev",
    "methods": {
      "allowance(address,address)": {
        "details": "See {IERC20-allowance}."
      },
      "approve(address,uint256)": {
        "details": "See {IERC20-approve}. NOTE: If `amount` is the maximum `uint256`, the allowance is not updated on `transferFrom`. This is semantically equivalent to an infinite approval. Requirements: - `spender` cannot be the zero address."
      },
      "balanceOf(address)": {
        "details": "See {IERC20-balanceOf}."
      },
      "burn(uint256)": {
        "details": "Destroys `amount` tokens from the caller. See {ERC20-_burn}."
      },
      "burnFrom(address,uint256)": {
        "details": "Destroys `amount` tokens from `account`, deducting from the caller's allowance. See {ERC20-_burn} and {ERC20-allowance}. Requirements: - the caller must have allowance for ``accounts``'s tokens of at least `amount`."
      },
      "decimals()": {
        "details": "Returns the number of decimals used to get its user representation. For example, if `decimals` equals `2`, a balance of `505` tokens should be displayed to a user as `5.05` (`505 / 10 ** 2`). Tokens usually opt for a value of 18, imitating the relationship between Ether and Wei. This is the value {ERC20} uses, unless this function is overridden; NOTE: This information is only used for _display_ purposes: it in no way affects any of the arithmetic of the contract, including {IERC20-balanceOf} and {IERC20-transfer}."
      },
      "decreaseAllowance(address,uint256)": {
        "details": "Atomically decreases the allowance granted to `spender` by the caller. This is an alternative to {approve} that can be used as a mitigation for problems described in {IERC20-approve}. Emits an {Approval} event indicating the updated allowance. Requirements: - `spender` cannot be the zero address. - `spender` must have allowance for the caller of at least `subtractedValue`."
      },
      "getRoleAdmin(bytes32)": {
        "details": "Returns the admin role that controls `role`. See {grantRole} and {revokeRole}. To change a role's admin, use {_setRoleAdmin}."
      },
      "grantRole(bytes32,address)": {
        "details": "Grants `role` to `account`. If `account` had not been already granted `role`, emits a {RoleGranted} event. Requirements: - the caller must have ``role``'s admin role. May emit a {RoleGranted} event."
      },
      "hasRole(bytes32,address)": {
        "details": "Returns `true` if `account` has been granted `role`."
      },
      "increaseAllowance(address,uint256)": {
        "details": "Atomically increases the allowance granted to `spender` by the caller. This is an alternative to {approve} that can be used as a mitigation for problems described in {IERC20-approve}. Emits an {Approval} event indicating the updated allowance. Requirements: - `spender` cannot be the zero address."
      },
      "name()": {
        "details": "Returns the name of the token."
      },
      "owner()": {
        "details": "Returns the address of the current owner."
      },
      "paused()": {
        "details": "Returns true if the contract is paused, and false otherwise."
      },
      "renounceOwnership()": {
        "details": "Leaves the contract without owner. It will not be possible to call `onlyOwner` functions anymore. Can only be called by the current owner. NOTE: Renouncing ownership will leave the contract without an owner, thereby removing any functionality that is only available to the owner."
      },
      "renounceRole(bytes32,address)": {
        "details": "Revokes `role` from the calling account. Roles are often managed via {grantRole} and {revokeRole}: this function's purpose is to provide a mechanism for accounts to lose their privileges if they are compromised (such as when a trusted device is misplaced). If the calling account had been revoked `role`, emits a {RoleRevoked} event. Requirements: - the caller must be `account`. May emit a {RoleRevoked} event."
      },
      "revokeRole(bytes32,address)": {
        "details": "Revokes `role` from `account`. If `account` had been granted `role`, emits a {RoleRevoked} event. Requirements: - the caller must have ``role``'s admin role. May emit a {RoleRevoked} event."
      },
      "supportsInterface(bytes4)": {
        "details": "See {IERC165-supportsInterface}."
      },
      "symbol()": {
        "details": "Returns the symbol of the token, usually a shorter version of the name."
      },
      "totalSupply()": {
        "details": "See {IERC20-totalSupply}."
      },
      "transferOwnership(address)": {
        "details": "Transfers ownership of the contract to a new account (`newOwner`). Can only be called by the current owner."
      }
    },
    "version": 1
  },
  "userdoc": {
    "kind": "user",
    "methods": {},
    "version": 1
  },
  "storageLayout": {
    "storage": [
      {
        "astId": 1973,
        "contract": "src/ZOO.sol:ZOO",
        "label": "_balances",
        "offset": 0,
        "slot": "0",
        "type": "t_mapping(t_address,t_uint256)"
      },
      {
        "astId": 1979,
        "contract": "src/ZOO.sol:ZOO",
        "label": "_allowances",
        "offset": 0,
        "slot": "1",
        "type": "t_mapping(t_address,t_mapping(t_address,t_uint256))"
      },
      {
        "astId": 1981,
        "contract": "src/ZOO.sol:ZOO",
        "label": "_totalSupply",
        "offset": 0,
        "slot": "2",
        "type": "t_uint256"
      },
      {
        "astId": 1983,
        "contract": "src/ZOO.sol:ZOO",
        "label": "_name",
        "offset": 0,
        "slot": "3",
        "type": "t_string_storage"
      },
      {
        "astId": 1985,
        "contract": "src/ZOO.sol:ZOO",
        "label": "_symbol",
        "offset": 0,
        "slot": "4",
        "type": "t_string_storage"
      },
      {
        "astId": 1738,
        "contract": "src/ZOO.sol:ZOO",
        "label": "_paused",
        "offset": 0,
        "slot": "5",
        "type": "t_bool"
      },
      {
        "astId": 1615,
        "contract": "src/ZOO.sol:ZOO",
        "label": "_owner",
        "offset": 1,
        "slot": "5",
        "type": "t_address"
      },
      {
        "astId": 1243,
        "contract": "src/ZOO.sol:ZOO",
        "label": "_roles",
        "offset": 0,
        "slot": "6",
        "type": "t_mapping(t_bytes32,t_struct(RoleData)1238_storage)"
      },
      {
        "astId": 18771,
        "contract": "src/ZOO.sol:ZOO",
        "label": "bridge",
        "offset": 0,
        "slot": "7",
        "type": "t_address"
      },
      {
        "astId": 18773,
        "contract": "src/ZOO.sol:ZOO",
        "label": "airdropEnd",
        "offset": 0,
        "slot": "8",
        "type": "t_uint256"
      }
    ],
    "types": {
      "t_address": {
        "encoding": "inplace",
        "label": "address",
        "numberOfBytes": "20"
      },
      "t_bool": {
        "encoding": "inplace",
        "label": "bool",
        "numberOfBytes": "1"
      },
      "t_bytes32": {
        "encoding": "inplace",
        "label": "bytes32",
        "numberOfBytes": "32"
      },
      "t_mapping(t_address,t_bool)": {
        "encoding": "mapping",
        "key": "t_address",
        "label": "mapping(address => bool)",
        "numberOfBytes": "32",
        "value": "t_bool"
      },
      "t_mapping(t_address,t_mapping(t_address,t_uint256))": {
        "encoding": "mapping",
        "key": "t_address",
        "label": "mapping(address => mapping(address => uint256))",
        "numberOfBytes": "32",
        "value": "t_mapping(t_address,t_uint256)"
      },
      "t_mapping(t_address,t_uint256)": {
        "encoding": "mapping",
        "key": "t_address",
        "label": "mapping(address => uint256)",
        "numberOfBytes": "32",
        "value": "t_uint256"
      },
      "t_mapping(t_bytes32,t_struct(RoleData)1238_storage)": {
        "encoding": "mapping",
        "key": "t_bytes32",
        "label": "mapping(bytes32 => struct AccessControl.RoleData)",
        "numberOfBytes": "32",
        "value": "t_struct(RoleData)1238_storage"
      },
      "t_string_storage": {
        "encoding": "bytes",
        "label": "string",
        "numberOfBytes": "32"
      },
      "t_struct(RoleData)1238_storage": {
        "encoding": "inplace",
        "label": "struct AccessControl.RoleData",
        "members": [
          {
            "astId": 1235,
            "contract": "src/ZOO.sol:ZOO",
            "label": "members",
            "offset": 0,
            "slot": "0",
            "type": "t_mapping(t_address,t_bool)"
          },
          {
            "astId": 1237,
            "contract": "src/ZOO.sol:ZOO",
            "label": "adminRole",
            "offset": 0,
            "slot": "1",
            "type": "t_bytes32"
          }
        ],
        "numberOfBytes": "64"
      },
      "t_uint256": {
        "encoding": "inplace",
        "label": "uint256",
        "numberOfBytes": "32"
      }
    }
  }
}