{
  "_format": "hh-sol-artifact-1",
  "contractName": "ZooMedia",
  "sourceName": "src/CryptoZoo.sol",
  "abi": [
    {
      "inputs": [],
      "stateMutability": "nonpayable",
      "type": "constructor"
    },
    {
      "anonymous": false,
      "inputs": [
        {
          "indexed": true,
          "internalType": "address",
          "name": "owner",
          "type": "address"
        },
        {
          "indexed": true,
          "internalType": "address",
          "name": "approved",
          "type": "address"
        },
        {
          "indexed": true,
          "internalType": "uint256",
          "name": "tokenId",
          "type": "uint256"
        }
      ],
      "name": "Approval",
      "type": "event"
    },
    {
      "anonymous": false,
      "inputs": [
        {
          "indexed": true,
          "internalType": "address",
          "name": "owner",
          "type": "address"
        },
        {
          "indexed": true,
          "internalType": "address",
          "name": "operator",
          "type": "address"
        },
        {
          "indexed": false,
          "internalType": "bool",
          "name": "approved",
          "type": "bool"
        }
      ],
      "name": "ApprovalForAll",
      "type": "event"
    },
    {
      "anonymous": false,
      "inputs": [
        {
          "indexed": true,
          "internalType": "address",
          "name": "previousOwner",
          "type": "address"
        },
        {
          "indexed": true,
          "internalType": "address",
          "name": "newOwner",
          "type": "address"
        }
      ],
      "name": "OwnershipTransferred",
      "type": "event"
    },
    {
      "anonymous": false,
      "inputs": [
        {
          "indexed": true,
          "internalType": "uint256",
          "name": "_tokenId",
          "type": "uint256"
        },
        {
          "indexed": false,
          "internalType": "address",
          "name": "owner",
          "type": "address"
        },
        {
          "indexed": false,
          "internalType": "string",
          "name": "_uri",
          "type": "string"
        }
      ],
      "name": "TokenMetadataURIUpdated",
      "type": "event"
    },
    {
      "anonymous": false,
      "inputs": [
        {
          "indexed": true,
          "internalType": "uint256",
          "name": "_tokenId",
          "type": "uint256"
        },
        {
          "indexed": false,
          "internalType": "address",
          "name": "owner",
          "type": "address"
        },
        {
          "indexed": false,
          "internalType": "string",
          "name": "_uri",
          "type": "string"
        }
      ],
      "name": "TokenURIUpdated",
      "type": "event"
    },
    {
      "anonymous": false,
      "inputs": [
        {
          "indexed": true,
          "internalType": "address",
          "name": "from",
          "type": "address"
        },
        {
          "indexed": true,
          "internalType": "address",
          "name": "to",
          "type": "address"
        },
        {
          "indexed": true,
          "internalType": "uint256",
          "name": "tokenId",
          "type": "uint256"
        }
      ],
      "name": "Transfer",
      "type": "event"
    },
    {
      "inputs": [],
      "name": "MINT_WITH_SIG_TYPEHASH",
      "outputs": [
        {
          "internalType": "bytes32",
          "name": "",
          "type": "bytes32"
        }
      ],
      "stateMutability": "view",
      "type": "function"
    },
    {
      "inputs": [],
      "name": "PERMIT_TYPEHASH",
      "outputs": [
        {
          "internalType": "bytes32",
          "name": "",
          "type": "bytes32"
        }
      ],
      "stateMutability": "view",
      "type": "function"
    },
    {
      "inputs": [
        {
          "internalType": "uint256",
          "name": "tokenId",
          "type": "uint256"
        },
        {
          "components": [
            {
              "internalType": "uint256",
              "name": "amount",
              "type": "uint256"
            },
            {
              "internalType": "address",
              "name": "currency",
              "type": "address"
            },
            {
              "internalType": "address",
              "name": "bidder",
              "type": "address"
            },
            {
              "internalType": "address",
              "name": "recipient",
              "type": "address"
            },
            {
              "components": [
                {
                  "internalType": "uint256",
                  "name": "value",
                  "type": "uint256"
                }
              ],
              "internalType": "struct Decimal.D256",
              "name": "sellOnShare",
              "type": "tuple"
            }
          ],
          "internalType": "struct IMarket.Bid",
          "name": "bid",
          "type": "tuple"
        }
      ],
      "name": "acceptBid",
      "outputs": [],
      "stateMutability": "nonpayable",
      "type": "function"
    },
    {
      "inputs": [
        {
          "internalType": "address",
          "name": "to",
          "type": "address"
        },
        {
          "internalType": "uint256",
          "name": "tokenId",
          "type": "uint256"
        }
      ],
      "name": "approve",
      "outputs": [],
      "stateMutability": "nonpayable",
      "type": "function"
    },
    {
      "inputs": [
        {
          "internalType": "uint256",
          "name": "tokenId",
          "type": "uint256"
        },
        {
          "internalType": "address",
          "name": "recipient",
          "type": "address"
        }
      ],
      "name": "auctionTransfer",
      "outputs": [],
      "stateMutability": "nonpayable",
      "type": "function"
    },
    {
      "inputs": [
        {
          "internalType": "address",
          "name": "owner",
          "type": "address"
        }
      ],
      "name": "balanceOf",
      "outputs": [
        {
          "internalType": "uint256",
          "name": "",
          "type": "uint256"
        }
      ],
      "stateMutability": "view",
      "type": "function"
    },
    {
      "inputs": [],
      "name": "baseURI",
      "outputs": [
        {
          "internalType": "string",
          "name": "",
          "type": "string"
        }
      ],
      "stateMutability": "view",
      "type": "function"
    },
    {
      "inputs": [
        {
          "internalType": "uint256",
          "name": "tokenId",
          "type": "uint256"
        }
      ],
      "name": "burn",
      "outputs": [],
      "stateMutability": "nonpayable",
      "type": "function"
    },
    {
      "inputs": [],
      "name": "buyEgg",
      "outputs": [
        {
          "internalType": "uint256",
          "name": "",
          "type": "uint256"
        }
      ],
      "stateMutability": "pure",
      "type": "function"
    },
    {
      "inputs": [
        {
          "internalType": "address",
          "name": "marketContractAddress",
          "type": "address"
        }
      ],
      "name": "configure",
      "outputs": [],
      "stateMutability": "nonpayable",
      "type": "function"
    },
    {
      "inputs": [
        {
          "internalType": "uint256",
          "name": "tokenId",
          "type": "uint256"
        }
      ],
      "name": "getApproved",
      "outputs": [
        {
          "internalType": "address",
          "name": "",
          "type": "address"
        }
      ],
      "stateMutability": "view",
      "type": "function"
    },
    {
      "inputs": [],
      "name": "hatchEgg",
      "outputs": [
        {
          "internalType": "bool",
          "name": "",
          "type": "bool"
        }
      ],
      "stateMutability": "pure",
      "type": "function"
    },
    {
      "inputs": [
        {
          "internalType": "address",
          "name": "owner",
          "type": "address"
        },
        {
          "internalType": "address",
          "name": "operator",
          "type": "address"
        }
      ],
      "name": "isApprovedForAll",
      "outputs": [
        {
          "internalType": "bool",
          "name": "",
          "type": "bool"
        }
      ],
      "stateMutability": "view",
      "type": "function"
    },
    {
      "inputs": [],
      "name": "marketContract",
      "outputs": [
        {
          "internalType": "address",
          "name": "",
          "type": "address"
        }
      ],
      "stateMutability": "view",
      "type": "function"
    },
    {
      "inputs": [
        {
          "components": [
            {
              "internalType": "string",
              "name": "tokenURI",
              "type": "string"
            },
            {
              "internalType": "string",
              "name": "metadataURI",
              "type": "string"
            },
            {
              "internalType": "bytes32",
              "name": "contentHash",
              "type": "bytes32"
            },
            {
              "internalType": "bytes32",
              "name": "metadataHash",
              "type": "bytes32"
            }
          ],
          "internalType": "struct IMedia.MediaData",
          "name": "data",
          "type": "tuple"
        },
        {
          "components": [
            {
              "components": [
                {
                  "internalType": "uint256",
                  "name": "value",
                  "type": "uint256"
                }
              ],
              "internalType": "struct Decimal.D256",
              "name": "prevOwner",
              "type": "tuple"
            },
            {
              "components": [
                {
                  "internalType": "uint256",
                  "name": "value",
                  "type": "uint256"
                }
              ],
              "internalType": "struct Decimal.D256",
              "name": "creator",
              "type": "tuple"
            },
            {
              "components": [
                {
                  "internalType": "uint256",
                  "name": "value",
                  "type": "uint256"
                }
              ],
              "internalType": "struct Decimal.D256",
              "name": "owner",
              "type": "tuple"
            }
          ],
          "internalType": "struct IMarket.BidShares",
          "name": "bidShares",
          "type": "tuple"
        }
      ],
      "name": "mint",
      "outputs": [],
      "stateMutability": "nonpayable",
      "type": "function"
    },
    {
      "inputs": [
        {
          "internalType": "address",
          "name": "creator",
          "type": "address"
        },
        {
          "components": [
            {
              "internalType": "string",
              "name": "tokenURI",
              "type": "string"
            },
            {
              "internalType": "string",
              "name": "metadataURI",
              "type": "string"
            },
            {
              "internalType": "bytes32",
              "name": "contentHash",
              "type": "bytes32"
            },
            {
              "internalType": "bytes32",
              "name": "metadataHash",
              "type": "bytes32"
            }
          ],
          "internalType": "struct IMedia.MediaData",
          "name": "data",
          "type": "tuple"
        },
        {
          "components": [
            {
              "components": [
                {
                  "internalType": "uint256",
                  "name": "value",
                  "type": "uint256"
                }
              ],
              "internalType": "struct Decimal.D256",
              "name": "prevOwner",
              "type": "tuple"
            },
            {
              "components": [
                {
                  "internalType": "uint256",
                  "name": "value",
                  "type": "uint256"
                }
              ],
              "internalType": "struct Decimal.D256",
              "name": "creator",
              "type": "tuple"
            },
            {
              "components": [
                {
                  "internalType": "uint256",
                  "name": "value",
                  "type": "uint256"
                }
              ],
              "internalType": "struct Decimal.D256",
              "name": "owner",
              "type": "tuple"
            }
          ],
          "internalType": "struct IMarket.BidShares",
          "name": "bidShares",
          "type": "tuple"
        },
        {
          "components": [
            {
              "internalType": "uint256",
              "name": "deadline",
              "type": "uint256"
            },
            {
              "internalType": "uint8",
              "name": "v",
              "type": "uint8"
            },
            {
              "internalType": "bytes32",
              "name": "r",
              "type": "bytes32"
            },
            {
              "internalType": "bytes32",
              "name": "s",
              "type": "bytes32"
            }
          ],
          "internalType": "struct IMedia.EIP712Signature",
          "name": "sig",
          "type": "tuple"
        }
      ],
      "name": "mintWithSig",
      "outputs": [],
      "stateMutability": "nonpayable",
      "type": "function"
    },
    {
      "inputs": [
        {
          "internalType": "address",
          "name": "",
          "type": "address"
        }
      ],
      "name": "mintWithSigNonces",
      "outputs": [
        {
          "internalType": "uint256",
          "name": "",
          "type": "uint256"
        }
      ],
      "stateMutability": "view",
      "type": "function"
    },
    {
      "inputs": [],
      "name": "name",
      "outputs": [
        {
          "internalType": "string",
          "name": "",
          "type": "string"
        }
      ],
      "stateMutability": "view",
      "type": "function"
    },
    {
      "inputs": [],
      "name": "owner",
      "outputs": [
        {
          "internalType": "address",
          "name": "",
          "type": "address"
        }
      ],
      "stateMutability": "view",
      "type": "function"
    },
    {
      "inputs": [
        {
          "internalType": "uint256",
          "name": "tokenId",
          "type": "uint256"
        }
      ],
      "name": "ownerOf",
      "outputs": [
        {
          "internalType": "address",
          "name": "",
          "type": "address"
        }
      ],
      "stateMutability": "view",
      "type": "function"
    },
    {
      "inputs": [
        {
          "internalType": "address",
          "name": "spender",
          "type": "address"
        },
        {
          "internalType": "uint256",
          "name": "tokenId",
          "type": "uint256"
        },
        {
          "components": [
            {
              "internalType": "uint256",
              "name": "deadline",
              "type": "uint256"
            },
            {
              "internalType": "uint8",
              "name": "v",
              "type": "uint8"
            },
            {
              "internalType": "bytes32",
              "name": "r",
              "type": "bytes32"
            },
            {
              "internalType": "bytes32",
              "name": "s",
              "type": "bytes32"
            }
          ],
          "internalType": "struct IMedia.EIP712Signature",
          "name": "sig",
          "type": "tuple"
        }
      ],
      "name": "permit",
      "outputs": [],
      "stateMutability": "nonpayable",
      "type": "function"
    },
    {
      "inputs": [
        {
          "internalType": "address",
          "name": "",
          "type": "address"
        },
        {
          "internalType": "uint256",
          "name": "",
          "type": "uint256"
        }
      ],
      "name": "permitNonces",
      "outputs": [
        {
          "internalType": "uint256",
          "name": "",
          "type": "uint256"
        }
      ],
      "stateMutability": "view",
      "type": "function"
    },
    {
      "inputs": [
        {
          "internalType": "uint256",
          "name": "",
          "type": "uint256"
        }
      ],
      "name": "previousTokenOwners",
      "outputs": [
        {
          "internalType": "address",
          "name": "",
          "type": "address"
        }
      ],
      "stateMutability": "view",
      "type": "function"
    },
    {
      "inputs": [
        {
          "internalType": "uint256",
          "name": "tokenId",
          "type": "uint256"
        }
      ],
      "name": "removeAsk",
      "outputs": [],
      "stateMutability": "nonpayable",
      "type": "function"
    },
    {
      "inputs": [
        {
          "internalType": "uint256",
          "name": "tokenId",
          "type": "uint256"
        }
      ],
      "name": "removeBid",
      "outputs": [],
      "stateMutability": "nonpayable",
      "type": "function"
    },
    {
      "inputs": [],
      "name": "renounceOwnership",
      "outputs": [],
      "stateMutability": "nonpayable",
      "type": "function"
    },
    {
      "inputs": [
        {
          "internalType": "uint256",
          "name": "tokenId",
          "type": "uint256"
        }
      ],
      "name": "revokeApproval",
      "outputs": [],
      "stateMutability": "nonpayable",
      "type": "function"
    },
    {
      "inputs": [
        {
          "internalType": "address",
          "name": "from",
          "type": "address"
        },
        {
          "internalType": "address",
          "name": "to",
          "type": "address"
        },
        {
          "internalType": "uint256",
          "name": "tokenId",
          "type": "uint256"
        }
      ],
      "name": "safeTransferFrom",
      "outputs": [],
      "stateMutability": "nonpayable",
      "type": "function"
    },
    {
      "inputs": [
        {
          "internalType": "address",
          "name": "from",
          "type": "address"
        },
        {
          "internalType": "address",
          "name": "to",
          "type": "address"
        },
        {
          "internalType": "uint256",
          "name": "tokenId",
          "type": "uint256"
        },
        {
          "internalType": "bytes",
          "name": "_data",
          "type": "bytes"
        }
      ],
      "name": "safeTransferFrom",
      "outputs": [],
      "stateMutability": "nonpayable",
      "type": "function"
    },
    {
      "inputs": [
        {
          "internalType": "address",
          "name": "operator",
          "type": "address"
        },
        {
          "internalType": "bool",
          "name": "approved",
          "type": "bool"
        }
      ],
      "name": "setApprovalForAll",
      "outputs": [],
      "stateMutability": "nonpayable",
      "type": "function"
    },
    {
      "inputs": [
        {
          "internalType": "uint256",
          "name": "tokenId",
          "type": "uint256"
        },
        {
          "components": [
            {
              "internalType": "uint256",
              "name": "amount",
              "type": "uint256"
            },
            {
              "internalType": "address",
              "name": "currency",
              "type": "address"
            }
          ],
          "internalType": "struct IMarket.Ask",
          "name": "ask",
          "type": "tuple"
        }
      ],
      "name": "setAsk",
      "outputs": [],
      "stateMutability": "nonpayable",
      "type": "function"
    },
    {
      "inputs": [
        {
          "internalType": "uint256",
          "name": "tokenId",
          "type": "uint256"
        },
        {
          "components": [
            {
              "internalType": "uint256",
              "name": "amount",
              "type": "uint256"
            },
            {
              "internalType": "address",
              "name": "currency",
              "type": "address"
            },
            {
              "internalType": "address",
              "name": "bidder",
              "type": "address"
            },
            {
              "internalType": "address",
              "name": "recipient",
              "type": "address"
            },
            {
              "components": [
                {
                  "internalType": "uint256",
                  "name": "value",
                  "type": "uint256"
                }
              ],
              "internalType": "struct Decimal.D256",
              "name": "sellOnShare",
              "type": "tuple"
            }
          ],
          "internalType": "struct IMarket.Bid",
          "name": "bid",
          "type": "tuple"
        }
      ],
      "name": "setBid",
      "outputs": [],
      "stateMutability": "nonpayable",
      "type": "function"
    },
    {
      "inputs": [
        {
          "internalType": "bytes4",
          "name": "interfaceId",
          "type": "bytes4"
        }
      ],
      "name": "supportsInterface",
      "outputs": [
        {
          "internalType": "bool",
          "name": "",
          "type": "bool"
        }
      ],
      "stateMutability": "view",
      "type": "function"
    },
    {
      "inputs": [],
      "name": "symbol",
      "outputs": [
        {
          "internalType": "string",
          "name": "",
          "type": "string"
        }
      ],
      "stateMutability": "view",
      "type": "function"
    },
    {
      "inputs": [
        {
          "internalType": "uint256",
          "name": "index",
          "type": "uint256"
        }
      ],
      "name": "tokenByIndex",
      "outputs": [
        {
          "internalType": "uint256",
          "name": "",
          "type": "uint256"
        }
      ],
      "stateMutability": "view",
      "type": "function"
    },
    {
      "inputs": [
        {
          "internalType": "uint256",
          "name": "",
          "type": "uint256"
        }
      ],
      "name": "tokenContentHashes",
      "outputs": [
        {
          "internalType": "bytes32",
          "name": "",
          "type": "bytes32"
        }
      ],
      "stateMutability": "view",
      "type": "function"
    },
    {
      "inputs": [
        {
          "internalType": "uint256",
          "name": "",
          "type": "uint256"
        }
      ],
      "name": "tokenCreators",
      "outputs": [
        {
          "internalType": "address",
          "name": "",
          "type": "address"
        }
      ],
      "stateMutability": "view",
      "type": "function"
    },
    {
      "inputs": [
        {
          "internalType": "uint256",
          "name": "",
          "type": "uint256"
        }
      ],
      "name": "tokenMetadataHashes",
      "outputs": [
        {
          "internalType": "bytes32",
          "name": "",
          "type": "bytes32"
        }
      ],
      "stateMutability": "view",
      "type": "function"
    },
    {
      "inputs": [
        {
          "internalType": "uint256",
          "name": "tokenId",
          "type": "uint256"
        }
      ],
      "name": "tokenMetadataURI",
      "outputs": [
        {
          "internalType": "string",
          "name": "",
          "type": "string"
        }
      ],
      "stateMutability": "view",
      "type": "function"
    },
    {
      "inputs": [
        {
          "internalType": "address",
          "name": "owner",
          "type": "address"
        },
        {
          "internalType": "uint256",
          "name": "index",
          "type": "uint256"
        }
      ],
      "name": "tokenOfOwnerByIndex",
      "outputs": [
        {
          "internalType": "uint256",
          "name": "",
          "type": "uint256"
        }
      ],
      "stateMutability": "view",
      "type": "function"
    },
    {
      "inputs": [
        {
          "internalType": "uint256",
          "name": "tokenId",
          "type": "uint256"
        }
      ],
      "name": "tokenURI",
      "outputs": [
        {
          "internalType": "string",
          "name": "",
          "type": "string"
        }
      ],
      "stateMutability": "view",
      "type": "function"
    },
    {
      "inputs": [],
      "name": "totalSupply",
      "outputs": [
        {
          "internalType": "uint256",
          "name": "",
          "type": "uint256"
        }
      ],
      "stateMutability": "view",
      "type": "function"
    },
    {
      "inputs": [
        {
          "internalType": "address",
          "name": "from",
          "type": "address"
        },
        {
          "internalType": "address",
          "name": "to",
          "type": "address"
        },
        {
          "internalType": "uint256",
          "name": "tokenId",
          "type": "uint256"
        }
      ],
      "name": "transferFrom",
      "outputs": [],
      "stateMutability": "nonpayable",
      "type": "function"
    },
    {
      "inputs": [
        {
          "internalType": "address",
          "name": "newOwner",
          "type": "address"
        }
      ],
      "name": "transferOwnership",
      "outputs": [],
      "stateMutability": "nonpayable",
      "type": "function"
    },
    {
      "inputs": [
        {
          "internalType": "uint256",
          "name": "tokenId",
          "type": "uint256"
        },
        {
          "internalType": "string",
          "name": "metadataURI",
          "type": "string"
        }
      ],
      "name": "updateTokenMetadataURI",
      "outputs": [],
      "stateMutability": "nonpayable",
      "type": "function"
    },
    {
      "inputs": [
        {
          "internalType": "uint256",
          "name": "tokenId",
          "type": "uint256"
        },
        {
          "internalType": "string",
          "name": "_tokenURI",
          "type": "string"
        }
      ],
      "name": "updateTokenURI",
      "outputs": [],
      "stateMutability": "nonpayable",
      "type": "function"
    }
  ],
  "bytecode": "0x60806040523480156200001157600080fd5b50604080518082018252600981526843727970746f5a6f6f60b81b6020808301918252835180850190945260048452631053935360e21b908401528151919291839183916200006391600791620001b3565b50805162000079906008906020840190620001b3565b506200008c6380ac58cd60e01b620000dd565b6200009e63780e9d6360e01b620000dd565b50506001600b55600c80546001600160a01b03191633179055620000c9632711173360e11b620000dd565b50620000d790503362000161565b62000296565b6001600160e01b031980821614156200013c5760405162461bcd60e51b815260206004820152601c60248201527f4552433136353a20696e76616c696420696e7465726661636520696400000000604482015260640160405180910390fd5b6001600160e01b0319166000908152602081905260409020805460ff19166001179055565b601880546001600160a01b038381166001600160a01b0319831681179093556040519116919082907f8be0079c531659141344cd1fd0a4f28419497f9722a3daafe3b4186f6b6457e090600090a35050565b828054620001c19062000259565b90600052602060002090601f016020900481019282620001e5576000855562000230565b82601f106200020057805160ff191683800117855562000230565b8280016001018555821562000230579182015b828111156200023057825182559160200191906001019062000213565b506200023e92915062000242565b5090565b5b808211156200023e576000815560010162000243565b600181811c908216806200026e57607f821691505b602082108114156200029057634e487b7160e01b600052602260045260246000fd5b50919050565b613bc380620002a66000396000f3fe608060405234801561001057600080fd5b506004361061028a5760003560e01c8063715018a61161015c578063b320f459116100ce578063e0fd045f11610087578063e0fd045f146105d8578063e985e9c514610601578063f2fde38b1461063d578063f6b630f014610650578063f8ccd5de14610663578063fad321971461068e57600080fd5b8063b320f4591461055e578063b88d4fde14610571578063ba33939914610584578063c87b56dd14610597578063ca9c4b33146105aa578063de5236fb146105b157600080fd5b80638da5cb5b116101205780638da5cb5b146104e357806395d89b41146104f45780639d8e7260146104fc578063a1794bcd14610525578063a22cb46514610538578063b1e130fc1461054b57600080fd5b8063715018a61461049b57806375682e79146104a357806375cb2672146104b65780637a7a1202146104c95780637d635502146104dc57600080fd5b806328220f35116102005780634f6ccce7116101b95780634f6ccce7146104345780635bf624221461044757806362f24b701461045a5780636352211e1461046d5780636c0360eb1461048057806370a082311461048857600080fd5b806328220f35146103ae5780632cca3237146103c15780632f745c59146103d457806330adf81f146103e757806342842e0e1461040e57806342966c681461042157600080fd5b80630bcd899b116102525780630bcd899b1461033a5780630e2a17781461035a578063157c3df91461036d57806318160ddd1461038057806318e97fd11461038857806323b872dd1461039b57600080fd5b806301ddc3b51461028f57806301ffc9a7146102c257806306fdde03146102e5578063081812fc146102fa578063095ea7b314610325575b600080fd5b6102af61029d366004613537565b60126020526000908152604090205481565b6040519081526020015b60405180910390f35b6102d56102d03660046134bb565b6106ae565b60405190151581526020016102b9565b6102ed6106ee565b6040516102b9919061380a565b61030d610308366004613537565b610780565b6040516001600160a01b0390911681526020016102b9565b610338610333366004613456565b61080d565b005b6102af6103483660046132ac565b60166020526000908152604090205481565b61033861036836600461347f565b610923565b6102ed61037b366004613537565b610c21565b6102af610ceb565b610338610396366004613571565b610cfc565b6103386103a93660046132f8565b610ea6565b6103386103bc366004613537565b610ed7565b6103386103cf3660046134f3565b610f82565b6102af6103e2366004613456565b610fbe565b6102af7f49ecf333e5b8c95c40fdafc95c1ad136e8914a8fb55e9dc8bb01eaa83a2df9ad81565b61033861041c3660046132f8565b610fe7565b61033861042f366004613537565b611002565b6102af610442366004613537565b611110565b61033861045536600461365c565b611126565b6103386104683660046135e8565b611217565b61030d61047b366004613537565b6112e5565b6102ed61130d565b6102af6104963660046132ac565b61131c565b6103386113a8565b6103386104b1366004613571565b61140e565b6103386104c43660046132ac565b61159f565b6103386104d73660046133e6565b6116da565b60006102af565b6018546001600160a01b031661030d565b6102ed611945565b61030d61050a366004613537565b600e602052600090815260409020546001600160a01b031681565b600d5461030d906001600160a01b031681565b6103386105463660046133ac565b611954565b610338610559366004613537565b611a19565b61033861056c366004613537565b611ac8565b61033861057f366004613333565b611b85565b61033861059236600461365c565b611bbd565b6102ed6105a5366004613537565b611c3f565b60016102d5565b6102af7f2952e482b8e2b192305f87374d7af45dc2eafafe4f50d26a0c02e90f2fdbe14b81565b61030d6105e6366004613537565b600f602052600090815260409020546001600160a01b031681565b6102d561060f3660046132c6565b6001600160a01b03918216600090815260066020908152604080832093909416825291909152205460ff1690565b61033861064b3660046132ac565b611d09565b61033861065e36600461354f565b611dd4565b6102af610671366004613456565b601560209081526000928352604080842090915290825290205481565b6102af61069c366004613537565b60116020526000908152604090205481565b60006301ffc9a760e01b6001600160e01b0319831614806106e857506001600160e01b0319821660009081526020819052604090205460ff165b92915050565b6060600780546106fd90613aa0565b80601f016020809104026020016040519081016040528092919081815260200182805461072990613aa0565b80156107765780601f1061074b57610100808354040283529160200191610776565b820191906000526020600020905b81548152906001019060200180831161075957829003601f168201915b5050505050905090565b600061078b82611e8a565b6107f15760405162461bcd60e51b815260206004820152602c60248201527f4552433732313a20617070726f76656420717565727920666f72206e6f6e657860448201526b34b9ba32b73a103a37b5b2b760a11b60648201526084015b60405180910390fd5b506000908152600560205260409020546001600160a01b031690565b6000610818826112e5565b9050806001600160a01b0316836001600160a01b031614156108865760405162461bcd60e51b815260206004820152602160248201527f4552433732313a20617070726f76616c20746f2063757272656e74206f776e656044820152603960f91b60648201526084016107e8565b336001600160a01b03821614806108a257506108a2813361060f565b6109145760405162461bcd60e51b815260206004820152603860248201527f4552433732313a20617070726f76652063616c6c6572206973206e6f74206f7760448201527f6e6572206e6f7220617070726f76656420666f7220616c6c000000000000000060648201526084016107e8565b61091e8383611e97565b505050565b6002600b5414156109465760405162461bcd60e51b81526004016107e890613976565b6002600b558161095581611e8a565b6109715760405162461bcd60e51b81526004016107e89061393f565b81511580610980575081514211155b6109c45760405162461bcd60e51b81526020600482015260156024820152741359591a584e8814195c9b5a5d08195e1c1a5c9959605a1b60448201526064016107e8565b6001600160a01b038416610a1a5760405162461bcd60e51b815260206004820152601c60248201527f4d656469613a207370656e6465722063616e6e6f74206265203078300000000060448201526064016107e8565b6000610a24611f05565b90506000817f49ecf333e5b8c95c40fdafc95c1ad136e8914a8fb55e9dc8bb01eaa83a2df9ad8787601585610a58836112e5565b6001600160a01b03168152602080820192909252604090810160009081208c82529092528120805491610a8a83613ad5565b9091555088516040805160208101969096526001600160a01b03909416938501939093526060840191909152608083015260a082015260c00160405160208183030381529060405280519060200120604051602001610b0092919061190160f01b81526002810192909252602282015260420190565b604051602081830303815290604052805190602001209050600060018286602001518760400151886060015160405160008152602001604052604051610b62949392919093845260ff9290921660208401526040830152606082015260800190565b6020604051602081039080840390855afa158015610b84573d6000803e3d6000fd5b5050604051601f1901519150506001600160a01b03811615801590610bc25750806001600160a01b0316610bb7876112e5565b6001600160a01b0316145b610c095760405162461bcd60e51b81526020600482015260186024820152771359591a584e8814da59db985d1d5c99481a5b9d985b1a5960421b60448201526064016107e8565b610c138787611e97565b50506001600b555050505050565b60608180610c2e60175490565b11610c4b5760405162461bcd60e51b81526004016107e89061381d565b60008381526013602052604090208054610c6490613aa0565b80601f0160208091040260200160405190810160405280929190818152602001828054610c9090613aa0565b8015610cdd5780601f10610cb257610100808354040283529160200191610cdd565b820191906000526020600020905b815481529060010190602001808311610cc057829003601f168201915b505050505091505b50919050565b6000610cf76002611fd5565b905090565b6002600b541415610d1f5760405162461bcd60e51b81526004016107e890613976565b6002600b553383610d308282611fe0565b610d4c5760405162461bcd60e51b81526004016107e8906138b7565b6000858152601160205260409020548590610dc45760405162461bcd60e51b815260206004820152603260248201527f4d656469613a20746f6b656e20646f6573206e6f7420686176652068617368206044820152711bd98818dc99585d19590818dbdb9d195b9d60721b60648201526084016107e8565b84848080601f01602080910402602001604051908101604052809392919081815260200183838082843760009201919091525050825115159150610e1c90505760405162461bcd60e51b81526004016107e8906139ad565b610e5c8787878080601f0160208091040260200160405190810160405280939291908181526020018383808284376000920191909152506120ca92505050565b867f702fe2dc2dc0f68023540aa4a1e11811c0f29112f6ebf01e61b90538e4f29810338888604051610e90939291906137ca565b60405180910390a250506001600b555050505050565b610eb03382611fe0565b610ecc5760405162461bcd60e51b81526004016107e8906138ee565b61091e838383612153565b6002600b541415610efa5760405162461bcd60e51b81526004016107e890613976565b6002600b553381610f0b8282611fe0565b610f275760405162461bcd60e51b81526004016107e8906138b7565b600d546040516328220f3560e01b8152600481018590526001600160a01b03909116906328220f35906024015b600060405180830381600087803b158015610f6e57600080fd5b505af1158015610c13573d6000803e3d6000fd5b6002600b541415610fa55760405162461bcd60e51b81526004016107e890613976565b6002600b55610fb53383836121bc565b50506001600b55565b6001600160a01b0382166000908152600160205260408120610fe09083612495565b9392505050565b61091e83838360405180602001604052806000815250611b85565b6002600b5414156110255760405162461bcd60e51b81526004016107e890613976565b6002600b558061103481611e8a565b6110505760405162461bcd60e51b81526004016107e89061393f565b338261105c8282611fe0565b6110785760405162461bcd60e51b81526004016107e8906138b7565b6000611083856112e5565b6000868152600f60205260409020549091506001600160a01b038083169116146110fb5760405162461bcd60e51b8152602060048201526024808201527f4d656469613a206f776e6572206973206e6f742063726561746f72206f66206d6044820152636564696160e01b60648201526084016107e8565b611104856124a1565b50506001600b55505050565b60008061111e60028461258a565b509392505050565b6002600b5414156111495760405162461bcd60e51b81526004016107e890613976565b6002600b558161115881611e8a565b6111745760405162461bcd60e51b81526004016107e89061393f565b81604001516001600160a01b0316336001600160a01b0316146111e35760405162461bcd60e51b815260206004820152602160248201527f4d61726b65743a20426964646572206d757374206265206d73672073656e64656044820152603960f91b60648201526084016107e8565b600d546040516317b6b0d360e31b81526001600160a01b039091169063bdb5869890610f5490869086903390600401613a07565b6002600b54141561123a5760405162461bcd60e51b81526004016107e890613976565b6002600b55338261124b8282611fe0565b6112675760405162461bcd60e51b81526004016107e8906138b7565b600d5460405163062f24b760e41b8152600481018690528451602482015260208501516001600160a01b039081166044830152909116906362f24b70906064015b600060405180830381600087803b1580156112c257600080fd5b505af11580156112d6573d6000803e3d6000fd5b50506001600b55505050505050565b60006106e882604051806060016040528060298152602001613b6560299139600291906125a6565b6060600a80546106fd90613aa0565b60006001600160a01b0382166113875760405162461bcd60e51b815260206004820152602a60248201527f4552433732313a2062616c616e636520717565727920666f7220746865207a65604482015269726f206164647265737360b01b60648201526084016107e8565b6001600160a01b03821660009081526001602052604090206106e8906125b3565b6018546001600160a01b031633146114025760405162461bcd60e51b815260206004820181905260248201527f4f776e61626c653a2063616c6c6572206973206e6f7420746865206f776e657260448201526064016107e8565b61140c60006125bd565b565b6002600b5414156114315760405162461bcd60e51b81526004016107e890613976565b6002600b5533836114428282611fe0565b61145e5760405162461bcd60e51b81526004016107e8906138b7565b60008581526012602052604090205485906114d35760405162461bcd60e51b815260206004820152602f60248201527f4d656469613a20746f6b656e20646f6573206e6f74206861766520686173682060448201526e6f6620697473206d6574616461746160881b60648201526084016107e8565b84848080601f0160208091040260200160405190810160405280939291908181526020018383808284376000920191909152505082511515915061152b90505760405162461bcd60e51b81526004016107e8906139ad565b61156b8787878080601f01602080910402602001604051908101604052809392919081815260200183838082843760009201919091525061260f92505050565b867fe3df41127db820c79e5b8d541a63e40e3e97b9af96f7a50bded13091b70df9ae338888604051610e90939291906137ca565b600c546001600160a01b031633146115ed5760405162461bcd60e51b815260206004820152601160248201527026b2b234b09d1027b7363c9037bbb732b960791b60448201526064016107e8565b600d546001600160a01b0316156116465760405162461bcd60e51b815260206004820152601960248201527f4d656469613a20416c726561647920636f6e666967757265640000000000000060448201526064016107e8565b600d546001600160a01b03166116b85760405162461bcd60e51b815260206004820152603160248201527f4d61726b65743a2063616e6e6f7420736574206d6564696120636f6e7472616360448201527074206173207a65726f206164647265737360781b60648201526084016107e8565b600d80546001600160a01b0319166001600160a01b0392909216919091179055565b6002600b5414156116fd5760405162461bcd60e51b81526004016107e890613976565b6002600b5580511580611711575080514211155b61175d5760405162461bcd60e51b815260206004820152601a60248201527f4d656469613a206d696e7457697468536967206578706972656400000000000060448201526064016107e8565b6000611767611f05565b6040808601516060870151602080880151516001600160a01b038b16600090815260169092529381208054959650909486947f2952e482b8e2b192305f87374d7af45dc2eafafe4f50d26a0c02e90f2fdbe14b949392909190876117ca83613ad5565b9091555088516040805160208101979097528601949094526060850192909252608084015260a083015260c082015260e0016040516020818303038152906040528051906020012060405160200161183992919061190160f01b81526002810192909252602282015260420190565b60405160208183030381529060405280519060200120905060006001828560200151866040015187606001516040516000815260200160405260405161189b949392919093845260ff9290921660208401526040830152606082015260800190565b6020604051602081039080840390855afa1580156118bd573d6000803e3d6000fd5b5050604051601f1901519150506001600160a01b038116158015906118f35750806001600160a01b0316876001600160a01b0316145b61193a5760405162461bcd60e51b81526020600482015260186024820152771359591a584e8814da59db985d1d5c99481a5b9d985b1a5960421b60448201526064016107e8565b610c138187876121bc565b6060600880546106fd90613aa0565b6001600160a01b0382163314156119ad5760405162461bcd60e51b815260206004820152601960248201527f4552433732313a20617070726f766520746f2063616c6c65720000000000000060448201526064016107e8565b3360008181526006602090815260408083206001600160a01b03871680855290835292819020805460ff191686151590811790915590519081529192917f17307eab39ab6107e8899845ad3d59bd9653f200f220920489ca2b5937696c31910160405180910390a35050565b6002600b541415611a3c5760405162461bcd60e51b81526004016107e890613976565b6002600b55611a4a81610780565b6001600160a01b0316336001600160a01b031614611ab55760405162461bcd60e51b815260206004820152602260248201527f4d656469613a2063616c6c6572206e6f7420617070726f766564206164647265604482015261737360f01b60648201526084016107e8565b611ac0600082611e97565b506001600b55565b6002600b541415611aeb5760405162461bcd60e51b81526004016107e890613976565b6002600b558080611afb60175490565b11611b185760405162461bcd60e51b81526004016107e89061381d565b600d5460405163776a083560e01b8152600481018490523360248201526001600160a01b039091169063776a083590604401600060405180830381600087803b158015611b6457600080fd5b505af1158015611b78573d6000803e3d6000fd5b50506001600b5550505050565b611b8f3383611fe0565b611bab5760405162461bcd60e51b81526004016107e8906138ee565b611bb784848484612654565b50505050565b6002600b541415611be05760405162461bcd60e51b81526004016107e890613976565b6002600b553382611bf18282611fe0565b611c0d5760405162461bcd60e51b81526004016107e8906138b7565b600d5460405163ba33939960e01b81526001600160a01b039091169063ba339399906112a890879087906004016139f3565b60608180611c4c60175490565b11611c695760405162461bcd60e51b81526004016107e89061381d565b60008381526009602052604081208054611c8290613aa0565b80601f0160208091040260200160405190810160405280929190818152602001828054611cae90613aa0565b8015611cfb5780601f10611cd057610100808354040283529160200191611cfb565b820191906000526020600020905b815481529060010190602001808311611cde57829003601f168201915b509398975050505050505050565b6018546001600160a01b03163314611d635760405162461bcd60e51b815260206004820181905260248201527f4f776e61626c653a2063616c6c6572206973206e6f7420746865206f776e657260448201526064016107e8565b6001600160a01b038116611dc85760405162461bcd60e51b815260206004820152602660248201527f4f776e61626c653a206e6577206f776e657220697320746865207a65726f206160448201526564647265737360d01b60648201526084016107e8565b611dd1816125bd565b50565b600d546001600160a01b03163314611e2e5760405162461bcd60e51b815260206004820152601b60248201527f4d656469613a206f6e6c79206d61726b657420636f6e7472616374000000000060448201526064016107e8565b611e37826112e5565b6000838152600e6020526040902080546001600160a01b0319166001600160a01b0392909216919091179055611e86611e6f836112e5565b828460405180602001604052806000815250612654565b5050565b60006106e8600283612687565b600081815260056020526040902080546001600160a01b0319166001600160a01b0384169081179091558190611ecc826112e5565b6001600160a01b03167f8c5be1e5ebec7d5bd14f71427d1e84f3dd0314c0f7b2291e5b200ac8c7c3b92560405160405180910390a45050565b604080518082018252600981526843727970746f5a6f6f60b81b6020918201528151808301835260018152603160f81b9082015281517f8b73c3c69bb8fe3d512ecc4cf759cc79239f7b179b0ffacaa9a75d522b39400f818301527fc546bd27cb87e09030592d50b7a6eb23f56c4c0a6444469d7593ecdf7b622945818401527fc89efdaa54c0f20c7adf612882df0950f5a951637e0307cdcb4c672f298b8bc660608201524660808201523060a0808301919091528351808303909101815260c0909101909252815191012090565b60006106e882612693565b6000611feb82611e8a565b61204c5760405162461bcd60e51b815260206004820152602c60248201527f4552433732313a206f70657261746f7220717565727920666f72206e6f6e657860448201526b34b9ba32b73a103a37b5b2b760a11b60648201526084016107e8565b6000612057836112e5565b9050806001600160a01b0316846001600160a01b031614806120925750836001600160a01b031661208784610780565b6001600160a01b0316145b806120c257506001600160a01b0380821660009081526006602090815260408083209388168352929052205460ff165b949350505050565b6120d382611e8a565b6121345760405162461bcd60e51b815260206004820152602c60248201527f4552433732314d657461646174613a2055524920736574206f66206e6f6e657860448201526b34b9ba32b73a103a37b5b2b760a11b60648201526084016107e8565b6000828152600960209081526040909120825161091e92840190612fa4565b600d546040516328220f3560e01b8152600481018390526001600160a01b03909116906328220f3590602401600060405180830381600087803b15801561219957600080fd5b505af11580156121ad573d6000803e3d6000fd5b5050505061091e83838361269e565b815180516121dc5760405162461bcd60e51b81526004016107e8906139ad565b602083015180516121ff5760405162461bcd60e51b81526004016107e8906139ad565b604084015161225c5760405162461bcd60e51b8152602060048201526024808201527f4d656469613a20636f6e74656e742068617368206d757374206265206e6f6e2d6044820152637a65726f60e01b60648201526084016107e8565b60408085015160009081526014602052205460ff16156122e45760405162461bcd60e51b815260206004820152603e60248201527f4d656469613a206120746f6b656e2068617320616c7265616479206265656e2060448201527f637265617465642077697468207468697320636f6e74656e742068617368000060648201526084016107e8565b60608401516123435760405162461bcd60e51b815260206004820152602560248201527f4d656469613a206d657461646174612068617368206d757374206265206e6f6e6044820152642d7a65726f60d81b60648201526084016107e8565b600061234e60175490565b905061235a868261281f565b612368601780546001019055565b612376818660400151612839565b612384818660600151612872565b61239281866020015161260f565b6123a08186600001516120ca565b6001600160a01b03861660009081526010602052604090206123c290826128ab565b50604085810151600090815260146020908152828220805460ff19166001179055838252600f815282822080546001600160a01b038b81166001600160a01b03199283168117909355600e84529385902080549091169091179055600d5483516375aab41d60e11b8152600481018690528851516024820152918801515160448301529287015151606482015291169063eb55683a90608401600060405180830381600087803b15801561247557600080fd5b505af1158015612489573d6000803e3d6000fd5b50505050505050505050565b6000610fe083836128b7565b600081815260096020526040812080546124ba90613aa0565b80601f01602080910402602001604051908101604052809291908181526020018280546124e690613aa0565b80156125335780601f1061250857610100808354040283529160200191612533565b820191906000526020600020905b81548152906001019060200180831161251657829003601f168201915b50505050509050612543826128ef565b80511561256b576000828152600960209081526040909120825161256992840190612fa4565b505b506000908152600e6020526040902080546001600160a01b0319169055565b600080808061259986866129a9565b9097909650945050505050565b60006120c28484846129d4565b60006106e8825490565b601880546001600160a01b038381166001600160a01b0319831681179093556040519116919082907f8be0079c531659141344cd1fd0a4f28419497f9722a3daafe3b4186f6b6457e090600090a35050565b8161261981611e8a565b6126355760405162461bcd60e51b81526004016107e89061393f565b60008381526013602090815260409091208351611bb792850190612fa4565b61265f848484612153565b61266b84848484612a20565b611bb75760405162461bcd60e51b81526004016107e890613865565b6000610fe08383612af1565b60006106e8826125b3565b826001600160a01b03166126b1826112e5565b6001600160a01b0316146127195760405162461bcd60e51b815260206004820152602960248201527f4552433732313a207472616e73666572206f6620746f6b656e2074686174206960448201526839903737ba1037bbb760b91b60648201526084016107e8565b6001600160a01b03821661277b5760405162461bcd60e51b8152602060048201526024808201527f4552433732313a207472616e7366657220746f20746865207a65726f206164646044820152637265737360e01b60648201526084016107e8565b612786600082611e97565b6001600160a01b03831660009081526001602052604090206127a89082612afd565b506001600160a01b03821660009081526001602052604090206127cb90826128ab565b506127d860028284612b09565b5080826001600160a01b0316846001600160a01b03167fddf252ad1be2c89b69c2b068fc378daa952ba7f163c4a11628f55a4df523b3ef60405160405180910390a4505050565b611e86828260405180602001604052806000815250612b1f565b8161284381611e8a565b61285f5760405162461bcd60e51b81526004016107e89061393f565b5060009182526011602052604090912055565b8161287c81611e8a565b6128985760405162461bcd60e51b81526004016107e89061393f565b5060009182526012602052604090912055565b6000610fe08383612b52565b60008260000182815481106128dc57634e487b7160e01b600052603260045260246000fd5b9060005260206000200154905092915050565b60006128fa826112e5565b9050612907600083611e97565b6000828152600960205260409020805461292090613aa0565b15905061293e57600082815260096020526040812061293e91613028565b6001600160a01b03811660009081526001602052604090206129609083612afd565b5061296c600283612ba1565b5060405182906000906001600160a01b038416907fddf252ad1be2c89b69c2b068fc378daa952ba7f163c4a11628f55a4df523b3ef908390a45050565b600080806129b78585612495565b600081815260029690960160205260409095205494959350505050565b6000828152600284016020526040812054801515806129f857506129f88585612af1565b8390612a175760405162461bcd60e51b81526004016107e8919061380a565b50949350505050565b60006001600160a01b0384163b612a39575060016120c2565b6000612aba630a85bd0160e11b33888787604051602401612a5d949392919061378d565b604051602081830303815290604052906001600160e01b0319166020820180516001600160e01b038381831617835250505050604051806060016040528060328152602001613b33603291396001600160a01b0388169190612bad565b9050600081806020019051810190612ad291906134d7565b6001600160e01b031916630a85bd0160e11b1492505050949350505050565b6000610fe08383612bbc565b6000610fe08383612bd4565b60006120c284846001600160a01b038516612cf1565b612b298383612d0e565b612b366000848484612a20565b61091e5760405162461bcd60e51b81526004016107e890613865565b6000818152600183016020526040812054612b99575081546001818101845560008481526020808220909301849055845484825282860190935260409020919091556106e8565b5060006106e8565b6000610fe08383612e26565b60606120c28484600085612e43565b60008181526001830160205260408120541515610fe0565b60008181526001830160205260408120548015612ce7576000612bf8600183613a5d565b8554909150600090612c0c90600190613a5d565b9050818114612c8d576000866000018281548110612c3a57634e487b7160e01b600052603260045260246000fd5b9060005260206000200154905080876000018481548110612c6b57634e487b7160e01b600052603260045260246000fd5b6000918252602080832090910192909255918252600188019052604090208390555b8554869080612cac57634e487b7160e01b600052603160045260246000fd5b6001900381819060005260206000200160009055905585600101600086815260200190815260200160002060009055600193505050506106e8565b60009150506106e8565b600082815260028401602052604081208290556120c284846128ab565b6001600160a01b038216612d645760405162461bcd60e51b815260206004820181905260248201527f4552433732313a206d696e7420746f20746865207a65726f206164647265737360448201526064016107e8565b612d6d81611e8a565b15612dba5760405162461bcd60e51b815260206004820152601c60248201527f4552433732313a20746f6b656e20616c7265616479206d696e7465640000000060448201526064016107e8565b6001600160a01b0382166000908152600160205260409020612ddc90826128ab565b50612de960028284612b09565b5060405181906001600160a01b038416906000907fddf252ad1be2c89b69c2b068fc378daa952ba7f163c4a11628f55a4df523b3ef908290a45050565b60008181526002830160205260408120819055610fe08383612afd565b606082471015612ea45760405162461bcd60e51b815260206004820152602660248201527f416464726573733a20696e73756666696369656e742062616c616e636520666f6044820152651c8818d85b1b60d21b60648201526084016107e8565b843b612ef25760405162461bcd60e51b815260206004820152601d60248201527f416464726573733a2063616c6c20746f206e6f6e2d636f6e747261637400000060448201526064016107e8565b600080866001600160a01b03168587604051612f0e9190613771565b60006040518083038185875af1925050503d8060008114612f4b576040519150601f19603f3d011682016040523d82523d6000602084013e612f50565b606091505b5091509150612f60828286612f6b565b979650505050505050565b60608315612f7a575081610fe0565b825115612f8a5782518084602001fd5b8160405162461bcd60e51b81526004016107e8919061380a565b828054612fb090613aa0565b90600052602060002090601f016020900481019282612fd25760008555613018565b82601f10612feb57805160ff1916838001178555613018565b82800160010185558215613018579182015b82811115613018578251825591602001919060010190612ffd565b5061302492915061305e565b5090565b50805461303490613aa0565b6000825580601f10613044575050565b601f016020900490600052602060002090810190611dd191905b5b80821115613024576000815560010161305f565b600067ffffffffffffffff8084111561308e5761308e613b06565b604051601f8501601f19908116603f011681019082821181831017156130b6576130b6613b06565b816040528093508581528686860111156130cf57600080fd5b858560208301376000602087830101525050509392505050565b80356001600160a01b038116811461310057600080fd5b919050565b600082601f830112613115578081fd5b610fe083833560208501613073565b600060608284031215613135578081fd5b6040516060810181811067ffffffffffffffff8211171561315857613158613b06565b6040529050806131688484613195565b81526131778460208501613195565b60208201526131898460408501613195565b60408201525092915050565b6000602082840312156131a6578081fd5b6040516020810181811067ffffffffffffffff821117156131c9576131c9613b06565b6040529135825250919050565b6000608082840312156131e7578081fd5b6131ef613a34565b905081358152602082013560ff8116811461320957600080fd5b80602083015250604082013560408201526060820135606082015292915050565b60006080828403121561323b578081fd5b613243613a34565b9050813567ffffffffffffffff8082111561325d57600080fd5b61326985838601613105565b8352602084013591508082111561327f57600080fd5b5061328c84828501613105565b602083015250604082013560408201526060820135606082015292915050565b6000602082840312156132bd578081fd5b610fe0826130e9565b600080604083850312156132d8578081fd5b6132e1836130e9565b91506132ef602084016130e9565b90509250929050565b60008060006060848603121561330c578081fd5b613315846130e9565b9250613323602085016130e9565b9150604084013590509250925092565b60008060008060808587031215613348578081fd5b613351856130e9565b935061335f602086016130e9565b925060408501359150606085013567ffffffffffffffff811115613381578182fd5b8501601f81018713613391578182fd5b6133a087823560208401613073565b91505092959194509250565b600080604083850312156133be578182fd5b6133c7836130e9565b9150602083013580151581146133db578182fd5b809150509250929050565b60008060008061012085870312156133fc578182fd5b613405856130e9565b9350602085013567ffffffffffffffff811115613420578283fd5b61342c8782880161322a565b93505061343c8660408701613124565b915061344b8660a087016131d6565b905092959194509250565b60008060408385031215613468578182fd5b613471836130e9565b946020939093013593505050565b600080600060c08486031215613493578081fd5b61349c846130e9565b9250602084013591506134b285604086016131d6565b90509250925092565b6000602082840312156134cc578081fd5b8135610fe081613b1c565b6000602082840312156134e8578081fd5b8151610fe081613b1c565b60008060808385031215613505578182fd5b823567ffffffffffffffff81111561351b578283fd5b6135278582860161322a565b9250506132ef8460208501613124565b600060208284031215613548578081fd5b5035919050565b60008060408385031215613561578182fd5b823591506132ef602084016130e9565b600080600060408486031215613585578081fd5b83359250602084013567ffffffffffffffff808211156135a3578283fd5b818601915086601f8301126135b6578283fd5b8135818111156135c4578384fd5b8760208285010111156135d5578384fd5b6020830194508093505050509250925092565b60008082840360608112156135fb578283fd5b833592506040601f1982011215613610578182fd5b506040516040810181811067ffffffffffffffff8211171561363457613634613b06565b80604052506020840135815261364c604085016130e9565b6020820152809150509250929050565b60008082840360c081121561366f578283fd5b8335925060a0601f1982011215613684578182fd5b5060405160a0810181811067ffffffffffffffff821117156136a8576136a8613b06565b8060405250602084013581526136c0604085016130e9565b60208201526136d1606085016130e9565b60408201526136e2608085016130e9565b60608201526136f48560a08601613195565b6080820152809150509250929050565b6000815180845261371c816020860160208601613a74565b601f01601f19169290920160200192915050565b805182526020808201516001600160a01b03908116918401919091526040808301518216908401526060808301519091169083015260809081015151910152565b60008251613783818460208701613a74565b9190910192915050565b6001600160a01b03858116825284166020820152604081018390526080606082018190526000906137c090830184613704565b9695505050505050565b6001600160a01b03841681526040602082018190528101829052818360608301376000818301606090810191909152601f909201601f1916010192915050565b602081526000610fe06020830184613704565b60208082526028908201527f4d656469613a20746f6b656e2077697468207468617420696420646f6573206e6040820152671bdd08195e1a5cdd60c21b606082015260800190565b60208082526032908201527f4552433732313a207472616e7366657220746f206e6f6e20455243373231526560408201527131b2b4bb32b91034b6b83632b6b2b73a32b960711b606082015260800190565b6020808252601d908201527f4d656469613a204f6e6c7920617070726f766564206f72206f776e6572000000604082015260600190565b60208082526031908201527f4552433732313a207472616e736665722063616c6c6572206973206e6f74206f6040820152701ddb995c881b9bdc88185c1c1c9bdd9959607a1b606082015260800190565b60208082526018908201527f4d656469613a206e6f6e6578697374656e7420746f6b656e0000000000000000604082015260600190565b6020808252601f908201527f5265656e7472616e637947756172643a207265656e7472616e742063616c6c00604082015260600190565b60208082526026908201527f4d656469613a2073706563696669656420757269206d757374206265206e6f6e6040820152652d656d70747960d01b606082015260800190565b82815260c08101610fe06020830184613730565b83815260e08101613a1b6020830185613730565b6001600160a01b039290921660c0919091015292915050565b6040516080810167ffffffffffffffff81118282101715613a5757613a57613b06565b60405290565b600082821015613a6f57613a6f613af0565b500390565b60005b83811015613a8f578181015183820152602001613a77565b83811115611bb75750506000910152565b600181811c90821680613ab457607f821691505b60208210811415610ce557634e487b7160e01b600052602260045260246000fd5b6000600019821415613ae957613ae9613af0565b5060010190565b634e487b7160e01b600052601160045260246000fd5b634e487b7160e01b600052604160045260246000fd5b6001600160e01b031981168114611dd157600080fdfe4552433732313a207472616e7366657220746f206e6f6e20455243373231526563656976657220696d706c656d656e7465724552433732313a206f776e657220717565727920666f72206e6f6e6578697374656e7420746f6b656ea264697066735822122028ef9b4580015eb06bf9f6180f7954c79ca250498274f3958cc494ecaeff23c864736f6c63430008040033",
  "linkReferences": {},
  "deployedLinkReferences": {}
}