{
  "_format": "hh-sol-artifact-1",
  "contractName": "ZooMarket",
  "sourceName": "src/CryptoZoo.sol",
  "abi": [
    {
      "anonymous": false,
      "inputs": [
        {
          "indexed": true,
          "internalType": "uint256",
          "name": "tokenId",
          "type": "uint256"
        },
        {
          "components": [
            {
              "internalType": "uint256",
              "name": "amount",
              "type": "uint256"
            },
            {
              "internalType": "address",
              "name": "currency",
              "type": "address"
            }
          ],
          "indexed": false,
          "internalType": "struct IMarket.Ask",
          "name": "ask",
          "type": "tuple"
        }
      ],
      "name": "AskCreated",
      "type": "event"
    },
    {
      "anonymous": false,
      "inputs": [
        {
          "indexed": true,
          "internalType": "uint256",
          "name": "tokenId",
          "type": "uint256"
        },
        {
          "components": [
            {
              "internalType": "uint256",
              "name": "amount",
              "type": "uint256"
            },
            {
              "internalType": "address",
              "name": "currency",
              "type": "address"
            }
          ],
          "indexed": false,
          "internalType": "struct IMarket.Ask",
          "name": "ask",
          "type": "tuple"
        }
      ],
      "name": "AskRemoved",
      "type": "event"
    },
    {
      "anonymous": false,
      "inputs": [
        {
          "indexed": true,
          "internalType": "uint256",
          "name": "tokenId",
          "type": "uint256"
        },
        {
          "components": [
            {
              "internalType": "uint256",
              "name": "amount",
              "type": "uint256"
            },
            {
              "internalType": "address",
              "name": "currency",
              "type": "address"
            },
            {
              "internalType": "address",
              "name": "bidder",
              "type": "address"
            },
            {
              "internalType": "address",
              "name": "recipient",
              "type": "address"
            },
            {
              "components": [
                {
                  "internalType": "uint256",
                  "name": "value",
                  "type": "uint256"
                }
              ],
              "internalType": "struct Decimal.D256",
              "name": "sellOnShare",
              "type": "tuple"
            }
          ],
          "indexed": false,
          "internalType": "struct IMarket.Bid",
          "name": "bid",
          "type": "tuple"
        }
      ],
      "name": "BidCreated",
      "type": "event"
    },
    {
      "anonymous": false,
      "inputs": [
        {
          "indexed": true,
          "internalType": "uint256",
          "name": "tokenId",
          "type": "uint256"
        },
        {
          "components": [
            {
              "internalType": "uint256",
              "name": "amount",
              "type": "uint256"
            },
            {
              "internalType": "address",
              "name": "currency",
              "type": "address"
            },
            {
              "internalType": "address",
              "name": "bidder",
              "type": "address"
            },
            {
              "internalType": "address",
              "name": "recipient",
              "type": "address"
            },
            {
              "components": [
                {
                  "internalType": "uint256",
                  "name": "value",
                  "type": "uint256"
                }
              ],
              "internalType": "struct Decimal.D256",
              "name": "sellOnShare",
              "type": "tuple"
            }
          ],
          "indexed": false,
          "internalType": "struct IMarket.Bid",
          "name": "bid",
          "type": "tuple"
        }
      ],
      "name": "BidFinalized",
      "type": "event"
    },
    {
      "anonymous": false,
      "inputs": [
        {
          "indexed": true,
          "internalType": "uint256",
          "name": "tokenId",
          "type": "uint256"
        },
        {
          "components": [
            {
              "internalType": "uint256",
              "name": "amount",
              "type": "uint256"
            },
            {
              "internalType": "address",
              "name": "currency",
              "type": "address"
            },
            {
              "internalType": "address",
              "name": "bidder",
              "type": "address"
            },
            {
              "internalType": "address",
              "name": "recipient",
              "type": "address"
            },
            {
              "components": [
                {
                  "internalType": "uint256",
                  "name": "value",
                  "type": "uint256"
                }
              ],
              "internalType": "struct Decimal.D256",
              "name": "sellOnShare",
              "type": "tuple"
            }
          ],
          "indexed": false,
          "internalType": "struct IMarket.Bid",
          "name": "bid",
          "type": "tuple"
        }
      ],
      "name": "BidRemoved",
      "type": "event"
    },
    {
      "anonymous": false,
      "inputs": [
        {
          "indexed": true,
          "internalType": "uint256",
          "name": "tokenId",
          "type": "uint256"
        },
        {
          "components": [
            {
              "components": [
                {
                  "internalType": "uint256",
                  "name": "value",
                  "type": "uint256"
                }
              ],
              "internalType": "struct Decimal.D256",
              "name": "prevOwner",
              "type": "tuple"
            },
            {
              "components": [
                {
                  "internalType": "uint256",
                  "name": "value",
                  "type": "uint256"
                }
              ],
              "internalType": "struct Decimal.D256",
              "name": "creator",
              "type": "tuple"
            },
            {
              "components": [
                {
                  "internalType": "uint256",
                  "name": "value",
                  "type": "uint256"
                }
              ],
              "internalType": "struct Decimal.D256",
              "name": "owner",
              "type": "tuple"
            }
          ],
          "indexed": false,
          "internalType": "struct IMarket.BidShares",
          "name": "bidShares",
          "type": "tuple"
        }
      ],
      "name": "BidShareUpdated",
      "type": "event"
    },
    {
      "anonymous": false,
      "inputs": [
        {
          "indexed": true,
          "internalType": "address",
          "name": "previousOwner",
          "type": "address"
        },
        {
          "indexed": true,
          "internalType": "address",
          "name": "newOwner",
          "type": "address"
        }
      ],
      "name": "OwnershipTransferred",
      "type": "event"
    },
    {
      "inputs": [
        {
          "internalType": "uint256",
          "name": "tokenId",
          "type": "uint256"
        },
        {
          "components": [
            {
              "internalType": "uint256",
              "name": "amount",
              "type": "uint256"
            },
            {
              "internalType": "address",
              "name": "currency",
              "type": "address"
            },
            {
              "internalType": "address",
              "name": "bidder",
              "type": "address"
            },
            {
              "internalType": "address",
              "name": "recipient",
              "type": "address"
            },
            {
              "components": [
                {
                  "internalType": "uint256",
                  "name": "value",
                  "type": "uint256"
                }
              ],
              "internalType": "struct Decimal.D256",
              "name": "sellOnShare",
              "type": "tuple"
            }
          ],
          "internalType": "struct IMarket.Bid",
          "name": "expectedBid",
          "type": "tuple"
        }
      ],
      "name": "acceptBid",
      "outputs": [],
      "stateMutability": "nonpayable",
      "type": "function"
    },
    {
      "inputs": [
        {
          "internalType": "uint256",
          "name": "tokenId",
          "type": "uint256"
        },
        {
          "internalType": "address",
          "name": "bidder",
          "type": "address"
        }
      ],
      "name": "bidForTokenBidder",
      "outputs": [
        {
          "components": [
            {
              "internalType": "uint256",
              "name": "amount",
              "type": "uint256"
            },
            {
              "internalType": "address",
              "name": "currency",
              "type": "address"
            },
            {
              "internalType": "address",
              "name": "bidder",
              "type": "address"
            },
            {
              "internalType": "address",
              "name": "recipient",
              "type": "address"
            },
            {
              "components": [
                {
                  "internalType": "uint256",
                  "name": "value",
                  "type": "uint256"
                }
              ],
              "internalType": "struct Decimal.D256",
              "name": "sellOnShare",
              "type": "tuple"
            }
          ],
          "internalType": "struct IMarket.Bid",
          "name": "",
          "type": "tuple"
        }
      ],
      "stateMutability": "view",
      "type": "function"
    },
    {
      "inputs": [
        {
          "internalType": "uint256",
          "name": "tokenId",
          "type": "uint256"
        }
      ],
      "name": "bidSharesForToken",
      "outputs": [
        {
          "components": [
            {
              "components": [
                {
                  "internalType": "uint256",
                  "name": "value",
                  "type": "uint256"
                }
              ],
              "internalType": "struct Decimal.D256",
              "name": "prevOwner",
              "type": "tuple"
            },
            {
              "components": [
                {
                  "internalType": "uint256",
                  "name": "value",
                  "type": "uint256"
                }
              ],
              "internalType": "struct Decimal.D256",
              "name": "creator",
              "type": "tuple"
            },
            {
              "components": [
                {
                  "internalType": "uint256",
                  "name": "value",
                  "type": "uint256"
                }
              ],
              "internalType": "struct Decimal.D256",
              "name": "owner",
              "type": "tuple"
            }
          ],
          "internalType": "struct IMarket.BidShares",
          "name": "",
          "type": "tuple"
        }
      ],
      "stateMutability": "view",
      "type": "function"
    },
    {
      "inputs": [
        {
          "internalType": "address",
          "name": "mediaContractAddress",
          "type": "address"
        }
      ],
      "name": "configure",
      "outputs": [],
      "stateMutability": "nonpayable",
      "type": "function"
    },
    {
      "inputs": [
        {
          "internalType": "uint256",
          "name": "tokenId",
          "type": "uint256"
        }
      ],
      "name": "currentAskForToken",
      "outputs": [
        {
          "components": [
            {
              "internalType": "uint256",
              "name": "amount",
              "type": "uint256"
            },
            {
              "internalType": "address",
              "name": "currency",
              "type": "address"
            }
          ],
          "internalType": "struct IMarket.Ask",
          "name": "",
          "type": "tuple"
        }
      ],
      "stateMutability": "view",
      "type": "function"
    },
    {
      "inputs": [
        {
          "internalType": "uint256",
          "name": "tokenId",
          "type": "uint256"
        },
        {
          "internalType": "uint256",
          "name": "bidAmount",
          "type": "uint256"
        }
      ],
      "name": "isValidBid",
      "outputs": [
        {
          "internalType": "bool",
          "name": "",
          "type": "bool"
        }
      ],
      "stateMutability": "view",
      "type": "function"
    },
    {
      "inputs": [
        {
          "components": [
            {
              "components": [
                {
                  "internalType": "uint256",
                  "name": "value",
                  "type": "uint256"
                }
              ],
              "internalType": "struct Decimal.D256",
              "name": "prevOwner",
              "type": "tuple"
            },
            {
              "components": [
                {
                  "internalType": "uint256",
                  "name": "value",
                  "type": "uint256"
                }
              ],
              "internalType": "struct Decimal.D256",
              "name": "creator",
              "type": "tuple"
            },
            {
              "components": [
                {
                  "internalType": "uint256",
                  "name": "value",
                  "type": "uint256"
                }
              ],
              "internalType": "struct Decimal.D256",
              "name": "owner",
              "type": "tuple"
            }
          ],
          "internalType": "struct IMarket.BidShares",
          "name": "bidShares",
          "type": "tuple"
        }
      ],
      "name": "isValidBidShares",
      "outputs": [
        {
          "internalType": "bool",
          "name": "",
          "type": "bool"
        }
      ],
      "stateMutability": "pure",
      "type": "function"
    },
    {
      "inputs": [],
      "name": "mediaContract",
      "outputs": [
        {
          "internalType": "address",
          "name": "",
          "type": "address"
        }
      ],
      "stateMutability": "view",
      "type": "function"
    },
    {
      "inputs": [],
      "name": "owner",
      "outputs": [
        {
          "internalType": "address",
          "name": "",
          "type": "address"
        }
      ],
      "stateMutability": "view",
      "type": "function"
    },
    {
      "inputs": [
        {
          "internalType": "uint256",
          "name": "tokenId",
          "type": "uint256"
        }
      ],
      "name": "removeAsk",
      "outputs": [],
      "stateMutability": "nonpayable",
      "type": "function"
    },
    {
      "inputs": [
        {
          "internalType": "uint256",
          "name": "tokenId",
          "type": "uint256"
        },
        {
          "internalType": "address",
          "name": "bidder",
          "type": "address"
        }
      ],
      "name": "removeBid",
      "outputs": [],
      "stateMutability": "nonpayable",
      "type": "function"
    },
    {
      "inputs": [],
      "name": "renounceOwnership",
      "outputs": [],
      "stateMutability": "nonpayable",
      "type": "function"
    },
    {
      "inputs": [
        {
          "internalType": "uint256",
          "name": "tokenId",
          "type": "uint256"
        },
        {
          "components": [
            {
              "internalType": "uint256",
              "name": "amount",
              "type": "uint256"
            },
            {
              "internalType": "address",
              "name": "currency",
              "type": "address"
            }
          ],
          "internalType": "struct IMarket.Ask",
          "name": "ask",
          "type": "tuple"
        }
      ],
      "name": "setAsk",
      "outputs": [],
      "stateMutability": "nonpayable",
      "type": "function"
    },
    {
      "inputs": [
        {
          "internalType": "uint256",
          "name": "tokenId",
          "type": "uint256"
        },
        {
          "components": [
            {
              "internalType": "uint256",
              "name": "amount",
              "type": "uint256"
            },
            {
              "internalType": "address",
              "name": "currency",
              "type": "address"
            },
            {
              "internalType": "address",
              "name": "bidder",
              "type": "address"
            },
            {
              "internalType": "address",
              "name": "recipient",
              "type": "address"
            },
            {
              "components": [
                {
                  "internalType": "uint256",
                  "name": "value",
                  "type": "uint256"
                }
              ],
              "internalType": "struct Decimal.D256",
              "name": "sellOnShare",
              "type": "tuple"
            }
          ],
          "internalType": "struct IMarket.Bid",
          "name": "bid",
          "type": "tuple"
        },
        {
          "internalType": "address",
          "name": "spender",
          "type": "address"
        }
      ],
      "name": "setBid",
      "outputs": [],
      "stateMutability": "nonpayable",
      "type": "function"
    },
    {
      "inputs": [
        {
          "internalType": "uint256",
          "name": "tokenId",
          "type": "uint256"
        },
        {
          "components": [
            {
              "components": [
                {
                  "internalType": "uint256",
                  "name": "value",
                  "type": "uint256"
                }
              ],
              "internalType": "struct Decimal.D256",
              "name": "prevOwner",
              "type": "tuple"
            },
            {
              "components": [
                {
                  "internalType": "uint256",
                  "name": "value",
                  "type": "uint256"
                }
              ],
              "internalType": "struct Decimal.D256",
              "name": "creator",
              "type": "tuple"
            },
            {
              "components": [
                {
                  "internalType": "uint256",
                  "name": "value",
                  "type": "uint256"
                }
              ],
              "internalType": "struct Decimal.D256",
              "name": "owner",
              "type": "tuple"
            }
          ],
          "internalType": "struct IMarket.BidShares",
          "name": "bidShares",
          "type": "tuple"
        }
      ],
      "name": "setBidShares",
      "outputs": [],
      "stateMutability": "nonpayable",
      "type": "function"
    },
    {
      "inputs": [
        {
          "components": [
            {
              "internalType": "uint256",
              "name": "value",
              "type": "uint256"
            }
          ],
          "internalType": "struct Decimal.D256",
          "name": "sharePercentage",
          "type": "tuple"
        },
        {
          "internalType": "uint256",
          "name": "amount",
          "type": "uint256"
        }
      ],
      "name": "splitShare",
      "outputs": [
        {
          "internalType": "uint256",
          "name": "",
          "type": "uint256"
        }
      ],
      "stateMutability": "pure",
      "type": "function"
    },
    {
      "inputs": [
        {
          "internalType": "address",
          "name": "newOwner",
          "type": "address"
        }
      ],
      "name": "transferOwnership",
      "outputs": [],
      "stateMutability": "nonpayable",
      "type": "function"
    }
  ],
  "bytecode": "0x608060405234801561001057600080fd5b50600180546001600160a01b0319163317905561003261002d3390565b610037565b610089565b600580546001600160a01b038381166001600160a01b0319831681179093556040519116919082907f8be0079c531659141344cd1fd0a4f28419497f9722a3daafe3b4186f6b6457e090600090a35050565b61214a806100986000396000f3fe608060405234801561001057600080fd5b506004361061010b5760003560e01c8063776a0835116100a2578063ba33939911610071578063ba33939914610297578063bdb58698146102aa578063eb55683a146102bd578063f2fde38b146102d0578063f9ce0582146102e357600080fd5b8063776a0835146102325780638da5cb5b14610245578063ad827dc414610256578063b920c1231461027657600080fd5b8063578064f6116100de578063578064f61461018b57806362f24b7014610204578063715018a61461021757806375cb26721461021f57600080fd5b806302e8fe131461011057806328220f3514610138578063360636eb1461014d5780634e21f9c014610160575b600080fd5b61012361011e366004611e74565b61031b565b60405190151581526020015b60405180910390f35b61014b610146366004611c6d565b6103dc565b005b61012361015b366004611c28565b61048d565b600054610173906001600160a01b031681565b6040516001600160a01b03909116815260200161012f565b6101e0610199366004611c6d565b604080518082019091526000808252602082015250600090815260046020908152604091829020825180840190935280548352600101546001600160a01b03169082015290565b60408051825181526020928301516001600160a01b0316928101929092520161012f565b61014b610212366004611ccc565b6104cb565b61014b6105dc565b61014b61022d366004611bd0565b610642565b61014b610240366004611c9d565b61077c565b6005546001600160a01b0316610173565b610269610264366004611c9d565b610916565b60405161012f9190611f1b565b610289610284366004611c43565b6109be565b60405190815260200161012f565b61014b6102a5366004611d78565b6109dc565b61014b6102b8366004611dae565b610c20565b61014b6102cb366004611d4c565b61117f565b61014b6102de366004611bd0565b611287565b6102f66102f1366004611c6d565b611352565b604080518251518152602080840151519082015291810151519082015260600161012f565b60008061032784611352565b90506103328161048d565b61038f5760405162461bcd60e51b8152602060048201526024808201527f4d61726b65743a20496e76616c6964206269642073686172657320666f72207460448201526337b5b2b760e11b60648201526084015b60405180910390fd5b82158015906103d257506103cf6103aa8260400151856109be565b6103c96103bb8460000151876109be565b6103c98560200151886109be565b906113dd565b83145b9150505b92915050565b6000546001600160a01b031633146104065760405162461bcd60e51b815260040161038690611ee4565b807fbf58f6d6c7d7c6efc69e7444efa93ed26d7cdc0e82e12a37df96f36a367561df600460008481526020019081526020016000206040516104619190815481526001909101546001600160a01b0316602082015260400190565b60405180910390a2600090815260046020526040812090815560010180546001600160a01b0319169055565b60006104a661049e6012600a611fdf565b6064906113e9565b8251516040840151516020850151516104c492916103c991906113dd565b1492915050565b6000546001600160a01b031633146104f55760405162461bcd60e51b815260040161038690611ee4565b61050382826000015161031b565b61055f5760405162461bcd60e51b815260206004820152602760248201527f4d61726b65743a2041736b20696e76616c696420666f722073686172652073706044820152666c697474696e6760c81b6064820152608401610386565b60008281526004602090815260409182902083518082558483018051600190930180546001600160a01b0319166001600160a01b039485161790558451918252519091169181019190915283917ff7347cb9e91d8cbe995b51920ba5f92cbf84a9e09cbed3cd7a739fef4d1d07cf91015b60405180910390a25050565b6005546001600160a01b031633146106365760405162461bcd60e51b815260206004820181905260248201527f4f776e61626c653a2063616c6c6572206973206e6f7420746865206f776e65726044820152606401610386565b61064060006113f5565b565b6001546001600160a01b031633146106915760405162461bcd60e51b815260206004820152601260248201527126b0b935b2ba1d1027b7363c9037bbb732b960711b6044820152606401610386565b6000546001600160a01b0316156106ea5760405162461bcd60e51b815260206004820152601a60248201527f4d61726b65743a20416c726561647920636f6e666967757265640000000000006044820152606401610386565b6001600160a01b03811661075a5760405162461bcd60e51b815260206004820152603160248201527f4d61726b65743a2063616e6e6f7420736574206d6564696120636f6e7472616360448201527074206173207a65726f206164647265737360781b6064820152608401610386565b600080546001600160a01b0319166001600160a01b0392909216919091179055565b6000546001600160a01b031633146107a65760405162461bcd60e51b815260040161038690611ee4565b60008281526002602090815260408083206001600160a01b0380861685529252909120805460018201549192909116816108305760405162461bcd60e51b815260206004820152602560248201527f4d61726b65743a2063616e6e6f742072656d6f76652062696420616d6f756e746044820152640206f6620360dc1b6064820152608401610386565b6000819050857fcbebd567b8a5c57f63ec61dc46746aab28daff6bdd1f4a6a0a305c17fa5465c9856040516108a191908154815260018201546001600160a01b0390811660208301526002830154811660408301526003830154166060820152600490910154608082015260a00190565b60405180910390a260008681526002602081815260408084206001600160a01b03808b168652925283208381556001810180546001600160a01b031990811690915592810180548416905560038101805490931690925560049091019190915561090e9082168685611447565b505050505050565b6109506040805160a08101825260008082526020808301829052828401829052606083018290528351908101909352825290608082015290565b5060009182526002602081815260408085206001600160a01b039485168652825293849020845160a081018652815481526001820154851681840152928101548416838601526003810154909316606083015283519081019093526004909101548252608081019190915290565b60006109d560646109cf84866114aa565b906114c6565b9392505050565b6000546001600160a01b03163314610a065760405162461bcd60e51b815260040161038690611ee4565b600082815260026020526040808220908290610a289060608601908601611bd0565b6001600160a01b0390811682526020808301939093526040918201600020825160a0810184528154815260018201548316818601526002820154831681850152600382015490921660608301528251938401909252600490910154825260808101919091528051909150610ade5760405162461bcd60e51b815260206004820152601e60248201527f4d61726b65743a2063616e6e6f742061636365707420626964206f66203000006044820152606401610386565b80518235148015610b135750610afa6040830160208401611bd0565b6001600160a01b031681602001516001600160a01b0316145b8015610b2757506080818101515190830135145b8015610b575750610b3e6080830160608401611bd0565b6001600160a01b031681606001516001600160a01b0316145b610ba35760405162461bcd60e51b815260206004820152601d60248201527f4d61726b65743a20556e65787065637465642062696420666f756e642e0000006044820152606401610386565b610bb183826000015161031b565b610c0d5760405162461bcd60e51b815260206004820152602760248201527f4d61726b65743a2042696420696e76616c696420666f722073686172652073706044820152666c697474696e6760c81b6064820152608401610386565b610c1b8382604001516114d2565b505050565b6000546001600160a01b03163314610c4a5760405162461bcd60e51b815260040161038690611ee4565b6000838152600360209081526040918290208251608081018452815460608201908152815283518084018552600183015481528184015283519283018452600290910154825291820152610ca361049e6012600a611fdf565b608084015151602083015151610cb8916113dd565b1115610d1e5760405162461bcd60e51b815260206004820152602f60248201527f4d61726b65743a2053656c6c206f6e2066656520696e76616c696420666f722060448201526e73686172652073706c697474696e6760881b6064820152608401610386565b60408301516001600160a01b0316610d835760405162461bcd60e51b815260206004820152602260248201527f4d61726b65743a206269646465722063616e6e6f742062652030206164647265604482015261737360f01b6064820152608401610386565b8251610dd15760405162461bcd60e51b815260206004820152601e60248201527f4d61726b65743a2063616e6e6f742062696420616d6f756e74206f66203000006044820152606401610386565b60208301516001600160a01b0316610e3c5760405162461bcd60e51b815260206004820152602860248201527f4d61726b65743a206269642063757272656e63792063616e6e6f742062652030604482015267206164647265737360c01b6064820152608401610386565b60608301516001600160a01b0316610ea85760405162461bcd60e51b815260206004820152602960248201527f4d61726b65743a2062696420726563697069656e742063616e6e6f742062652060448201526830206164647265737360b81b6064820152608401610386565b6000848152600260209081526040808320868201516001600160a01b031684529091529020805415610ee257610ee285856040015161077c565b60208401516040516370a0823160e01b81523060048201526000906001600160a01b038316906370a082319060240160206040518083038186803b158015610f2957600080fd5b505afa158015610f3d573d6000803e3d6000fd5b505050506040513d601f19601f82011682018060405250810190610f619190611c85565b8651909150610f7e906001600160a01b03841690879030906118b7565b6040516370a0823160e01b81523060048201526000906001600160a01b038416906370a082319060240160206040518083038186803b158015610fc057600080fd5b505afa158015610fd4573d6000803e3d6000fd5b505050506040513d601f19601f82011682018060405250810190610ff89190611c85565b90506040518060a0016040528061101884846118f590919063ffffffff16565b81526020898101516001600160a01b03908116828401526040808c0180518316828601526060808e01518416818701526080808f01519681019690965260008f8152600280875284822093518616825292865283902087518155948701516001860180549186166001600160a01b031992831617905587840151928601805493861693821693909317909255860151600385018054919094169116179091559290910151516004909101555188907f327bc9021bfbee403a11b13dd6c819999006aff090cc129f07e9f2840af38dd5906110f3908a90611f1b565b60405180910390a26000888152600460205260409020600101546001600160a01b0316158015906111475750600088815260046020908152604090912060010154908801516001600160a01b039081169116145b80156111625750600088815260046020526040902054875110155b15611175576111758888604001516114d2565b5050505050505050565b6000546001600160a01b031633146111a95760405162461bcd60e51b815260040161038690611ee4565b6111b28161048d565b6112125760405162461bcd60e51b815260206004820152602b60248201527f4d61726b65743a20496e76616c696420626964207368617265732c206d75737460448201526a02073756d20746f203130360ac1b6064820152608401610386565b6000828152600360209081526040918290208351518082558483018051516001840155858501805151600290940193909355845191825251519281019290925251519181019190915282907fdb88d4e96cb8697aaee5e575ee5f460817709a1dfcfbf7ba15192e90b5c86f9f906060016105d0565b6005546001600160a01b031633146112e15760405162461bcd60e51b815260206004820181905260248201527f4f776e61626c653a2063616c6c6572206973206e6f7420746865206f776e65726044820152606401610386565b6001600160a01b0381166113465760405162461bcd60e51b815260206004820152602660248201527f4f776e61626c653a206e6577206f776e657220697320746865207a65726f206160448201526564647265737360d01b6064820152608401610386565b61134f816113f5565b50565b61138f6040805160808101825260006060820181815282528251602080820185528282528084019190915283519081018452908152909182015290565b50600090815260036020908152604091829020825160808101845281546060820190815281528351808401855260018301548152818401528351928301845260029091015482529182015290565b60006109d58284611f64565b60006109d58284612087565b600580546001600160a01b038381166001600160a01b0319831681179093556040519116919082907f8be0079c531659141344cd1fd0a4f28419497f9722a3daafe3b4186f6b6457e090600090a35050565b6040516001600160a01b038316602482015260448101829052610c1b90849063a9059cbb60e01b906064015b60408051601f198184030181529190526020810180516001600160e01b03166001600160e01b031990931692909217909152611901565b80516000906109d59084906114c16012600a611fdf565b6119d3565b60006109d58284611f7c565b60008281526002602081815260408084206001600160a01b038681168652908352818520825160a0810184528154815260018201548316818601908152958201548316818501526003808301548416606083015284518087018652600493840154815260808301528988529094528286209451955492516331a9108f60e11b81529081018890529294926115ec9290911690636352211e9060240160206040518083038186803b15801561158557600080fd5b505afa158015611599573d6000803e3d6000fd5b505050506040513d601f19601f820116820180604052508101906115bd9190611bec565b60408051602081019091526002850154815285516115db91906109be565b6001600160a01b0384169190611447565b60005460405163e0fd045f60e01b815260048101879052611688916001600160a01b03169063e0fd045f9060240160206040518083038186803b15801561163257600080fd5b505afa158015611646573d6000803e3d6000fd5b505050506040513d601f19601f8201168201806040525081019061166a9190611bec565b60408051602081019091526001850154815285516115db91906109be565b6000546040516304ec739360e51b815260048101879052611721916001600160a01b031690639d8e72609060240160206040518083038186803b1580156116ce57600080fd5b505afa1580156116e2573d6000803e3d6000fd5b505050506040513d601f19601f820116820180604052508101906117069190611bec565b60408051602081019091528454815285516115db91906109be565b6000546060840151604051630f6b630f60e41b8152600481018890526001600160a01b03918216602482015291169063f6b630f090604401600060405180830381600087803b15801561177357600080fd5b505af1158015611787573d6000803e3d6000fd5b5050604080516020808201835260808801515160008b81526003909252929020600101549093508392506117cd91906117c7908161049e6012600a611fdf565b906118f5565b905251600283810191825560808501515184556000878152602082815260408083206001600160a01b038a1684528252808320838155600180820180546001600160a01b0319908116909155958201805487169055600382018054909616909555600401929092558151865481529286015490830152915481830152905186917fdb88d4e96cb8697aaee5e575ee5f460817709a1dfcfbf7ba15192e90b5c86f9f919081900360600190a2847fb6ef177c7a6f32b283a49b5e0463a39240cdaa278028dfb219480d050e8ee54c846040516118a89190611f1b565b60405180910390a25050505050565b6040516001600160a01b03808516602483015283166044820152606481018290526118ef9085906323b872dd60e01b90608401611473565b50505050565b60006109d582846120a6565b6000611956826040518060400160405280602081526020017f5361666545524332303a206c6f772d6c6576656c2063616c6c206661696c6564815250856001600160a01b03166119eb9092919063ffffffff16565b805190915015610c1b57808060200190518101906119749190611c08565b610c1b5760405162461bcd60e51b815260206004820152602a60248201527f5361666545524332303a204552433230206f7065726174696f6e20646964206e6044820152691bdd081cdd58d8d9595960b21b6064820152608401610386565b60006119e3826109cf86866113e9565b949350505050565b60606119e3848460008585843b611a445760405162461bcd60e51b815260206004820152601d60248201527f416464726573733a2063616c6c20746f206e6f6e2d636f6e74726163740000006044820152606401610386565b600080866001600160a01b03168587604051611a609190611e95565b60006040518083038185875af1925050503d8060008114611a9d576040519150601f19603f3d011682016040523d82523d6000602084013e611aa2565b606091505b5091509150611ab2828286611abd565b979650505050505050565b60608315611acc5750816109d5565b825115611adc5782518084602001fd5b8160405162461bcd60e51b81526004016103869190611eb1565b8035611b01816120ff565b919050565b600060608284031215611b17578081fd5b6040516060810181811067ffffffffffffffff82111715611b4657634e487b7160e01b83526041600452602483fd5b604052905080611b568484611b83565b8152611b658460208501611b83565b6020820152611b778460408501611b83565b60408201525092915050565b600060208284031215611b94578081fd5b6040516020810181811067ffffffffffffffff82111715611bc357634e487b7160e01b83526041600452602483fd5b6040529135825250919050565b600060208284031215611be1578081fd5b81356109d5816120ff565b600060208284031215611bfd578081fd5b81516109d5816120ff565b600060208284031215611c19578081fd5b815180151581146109d5578182fd5b600060608284031215611c39578081fd5b6109d58383611b06565b60008060408385031215611c55578081fd5b611c5f8484611b83565b946020939093013593505050565b600060208284031215611c7e578081fd5b5035919050565b600060208284031215611c96578081fd5b5051919050565b60008060408385031215611caf578182fd5b823591506020830135611cc1816120ff565b809150509250929050565b6000808284036060811215611cdf578283fd5b833592506040601f1982011215611cf4578182fd5b506040516040810181811067ffffffffffffffff82111715611d2457634e487b7160e01b83526041600452602483fd5b604090815260208501358252840135611d3c816120ff565b6020820152919491935090915050565b60008060808385031215611d5e578182fd5b82359150611d6f8460208501611b06565b90509250929050565b60008082840360c0811215611d8b578283fd5b8335925060a0601f1982011215611da0578182fd5b506020830190509250929050565b600080600083850360e0811215611dc3578182fd5b8435935060a0601f1982011215611dd8578182fd5b5060405160a0810181811067ffffffffffffffff82111715611e0857634e487b7160e01b83526041600452602483fd5b604090815260208601358252850135611e20816120ff565b60208201526060850135611e33816120ff565b60408201526080850135611e46816120ff565b6060820152611e588660a08701611b83565b60808201529150611e6b60c08501611af6565b90509250925092565b60008060408385031215611e86578182fd5b50508035926020909101359150565b60008251611ea78184602087016120bd565b9190910192915050565b6020815260008251806020840152611ed08160408501602087016120bd565b601f01601f19169190910160400192915050565b6020808252601b908201527f4d61726b65743a204f6e6c79206d6564696120636f6e74726163740000000000604082015260600190565b815181526020808301516001600160a01b039081169183019190915260408084015182169083015260608084015190911690820152608091820151519181019190915260a00190565b60008219821115611f7757611f776120e9565b500190565b600082611f9757634e487b7160e01b81526012600452602481fd5b500490565b600181815b80851115611fd7578160001904821115611fbd57611fbd6120e9565b80851615611fca57918102915b93841c9390800290611fa1565b509250929050565b60006109d58383600082611ff5575060016103d6565b81612002575060006103d6565b816001811461201857600281146120225761203e565b60019150506103d6565b60ff841115612033576120336120e9565b50506001821b6103d6565b5060208310610133831016604e8410600b8410161715612061575081810a6103d6565b61206b8383611f9c565b806000190482111561207f5761207f6120e9565b029392505050565b60008160001904831182151516156120a1576120a16120e9565b500290565b6000828210156120b8576120b86120e9565b500390565b60005b838110156120d85781810151838201526020016120c0565b838111156118ef5750506000910152565b634e487b7160e01b600052601160045260246000fd5b6001600160a01b038116811461134f57600080fdfea26469706673582212208ce18d6f9e593081e415fca95a8378d6ba7883a00f11390c482ef40c5176e3d964736f6c63430008040033",
  "linkReferences": {},
  "deployedLinkReferences": {}
}