{
  "_format": "hh-sol-artifact-1",
  "contractName": "AuctionHouse",
  "sourceName": "src/AuctionHouse.sol",
  "abi": [
    {
      "inputs": [
        {
          "internalType": "address",
          "name": "_zoo",
          "type": "address"
        },
        {
          "internalType": "address",
          "name": "_weth",
          "type": "address"
        }
      ],
      "stateMutability": "nonpayable",
      "type": "constructor"
    },
    {
      "anonymous": false,
      "inputs": [
        {
          "indexed": true,
          "internalType": "uint256",
          "name": "auctionId",
          "type": "uint256"
        },
        {
          "indexed": true,
          "internalType": "uint256",
          "name": "tokenId",
          "type": "uint256"
        },
        {
          "indexed": true,
          "internalType": "address",
          "name": "tokenContract",
          "type": "address"
        },
        {
          "indexed": false,
          "internalType": "bool",
          "name": "approved",
          "type": "bool"
        }
      ],
      "name": "AuctionApprovalUpdated",
      "type": "event"
    },
    {
      "anonymous": false,
      "inputs": [
        {
          "indexed": true,
          "internalType": "uint256",
          "name": "auctionId",
          "type": "uint256"
        },
        {
          "indexed": true,
          "internalType": "uint256",
          "name": "tokenId",
          "type": "uint256"
        },
        {
          "indexed": true,
          "internalType": "address",
          "name": "tokenContract",
          "type": "address"
        },
        {
          "indexed": false,
          "internalType": "address",
          "name": "sender",
          "type": "address"
        },
        {
          "indexed": false,
          "internalType": "uint256",
          "name": "value",
          "type": "uint256"
        },
        {
          "indexed": false,
          "internalType": "bool",
          "name": "firstBid",
          "type": "bool"
        },
        {
          "indexed": false,
          "internalType": "bool",
          "name": "extended",
          "type": "bool"
        }
      ],
      "name": "AuctionBid",
      "type": "event"
    },
    {
      "anonymous": false,
      "inputs": [
        {
          "indexed": true,
          "internalType": "uint256",
          "name": "auctionId",
          "type": "uint256"
        },
        {
          "indexed": true,
          "internalType": "uint256",
          "name": "tokenId",
          "type": "uint256"
        },
        {
          "indexed": true,
          "internalType": "address",
          "name": "tokenContract",
          "type": "address"
        },
        {
          "indexed": false,
          "internalType": "address",
          "name": "tokenOwner",
          "type": "address"
        }
      ],
      "name": "AuctionCanceled",
      "type": "event"
    },
    {
      "anonymous": false,
      "inputs": [
        {
          "indexed": true,
          "internalType": "uint256",
          "name": "auctionId",
          "type": "uint256"
        },
        {
          "indexed": true,
          "internalType": "uint256",
          "name": "tokenId",
          "type": "uint256"
        },
        {
          "indexed": true,
          "internalType": "address",
          "name": "tokenContract",
          "type": "address"
        },
        {
          "indexed": false,
          "internalType": "uint256",
          "name": "duration",
          "type": "uint256"
        },
        {
          "indexed": false,
          "internalType": "uint256",
          "name": "reservePrice",
          "type": "uint256"
        },
        {
          "indexed": false,
          "internalType": "address",
          "name": "tokenOwner",
          "type": "address"
        },
        {
          "indexed": false,
          "internalType": "address",
          "name": "curator",
          "type": "address"
        },
        {
          "indexed": false,
          "internalType": "uint8",
          "name": "curatorFeePercentage",
          "type": "uint8"
        },
        {
          "indexed": false,
          "internalType": "address",
          "name": "auctionCurrency",
          "type": "address"
        }
      ],
      "name": "AuctionCreated",
      "type": "event"
    },
    {
      "anonymous": false,
      "inputs": [
        {
          "indexed": true,
          "internalType": "uint256",
          "name": "auctionId",
          "type": "uint256"
        },
        {
          "indexed": true,
          "internalType": "uint256",
          "name": "tokenId",
          "type": "uint256"
        },
        {
          "indexed": true,
          "internalType": "address",
          "name": "tokenContract",
          "type": "address"
        },
        {
          "indexed": false,
          "internalType": "uint256",
          "name": "duration",
          "type": "uint256"
        }
      ],
      "name": "AuctionDurationExtended",
      "type": "event"
    },
    {
      "anonymous": false,
      "inputs": [
        {
          "indexed": true,
          "internalType": "uint256",
          "name": "auctionId",
          "type": "uint256"
        },
        {
          "indexed": true,
          "internalType": "uint256",
          "name": "tokenId",
          "type": "uint256"
        },
        {
          "indexed": true,
          "internalType": "address",
          "name": "tokenContract",
          "type": "address"
        },
        {
          "indexed": false,
          "internalType": "address",
          "name": "tokenOwner",
          "type": "address"
        },
        {
          "indexed": false,
          "internalType": "address",
          "name": "curator",
          "type": "address"
        },
        {
          "indexed": false,
          "internalType": "address",
          "name": "winner",
          "type": "address"
        },
        {
          "indexed": false,
          "internalType": "uint256",
          "name": "amount",
          "type": "uint256"
        },
        {
          "indexed": false,
          "internalType": "uint256",
          "name": "curatorFee",
          "type": "uint256"
        },
        {
          "indexed": false,
          "internalType": "address",
          "name": "auctionCurrency",
          "type": "address"
        }
      ],
      "name": "AuctionEnded",
      "type": "event"
    },
    {
      "anonymous": false,
      "inputs": [
        {
          "indexed": true,
          "internalType": "uint256",
          "name": "auctionId",
          "type": "uint256"
        },
        {
          "indexed": true,
          "internalType": "uint256",
          "name": "tokenId",
          "type": "uint256"
        },
        {
          "indexed": true,
          "internalType": "address",
          "name": "tokenContract",
          "type": "address"
        },
        {
          "indexed": false,
          "internalType": "uint256",
          "name": "reservePrice",
          "type": "uint256"
        }
      ],
      "name": "AuctionReservePriceUpdated",
      "type": "event"
    },
    {
      "stateMutability": "payable",
      "type": "fallback"
    },
    {
      "inputs": [
        {
          "internalType": "uint256",
          "name": "",
          "type": "uint256"
        }
      ],
      "name": "auctions",
      "outputs": [
        {
          "internalType": "uint256",
          "name": "tokenId",
          "type": "uint256"
        },
        {
          "internalType": "address",
          "name": "tokenContract",
          "type": "address"
        },
        {
          "internalType": "bool",
          "name": "approved",
          "type": "bool"
        },
        {
          "internalType": "uint256",
          "name": "amount",
          "type": "uint256"
        },
        {
          "internalType": "uint256",
          "name": "duration",
          "type": "uint256"
        },
        {
          "internalType": "uint256",
          "name": "firstBidTime",
          "type": "uint256"
        },
        {
          "internalType": "uint256",
          "name": "reservePrice",
          "type": "uint256"
        },
        {
          "internalType": "uint8",
          "name": "curatorFeePercentage",
          "type": "uint8"
        },
        {
          "internalType": "address",
          "name": "tokenOwner",
          "type": "address"
        },
        {
          "internalType": "address payable",
          "name": "bidder",
          "type": "address"
        },
        {
          "internalType": "address payable",
          "name": "curator",
          "type": "address"
        },
        {
          "internalType": "address",
          "name": "auctionCurrency",
          "type": "address"
        }
      ],
      "stateMutability": "view",
      "type": "function"
    },
    {
      "inputs": [
        {
          "internalType": "uint256",
          "name": "auctionId",
          "type": "uint256"
        }
      ],
      "name": "cancelAuction",
      "outputs": [],
      "stateMutability": "nonpayable",
      "type": "function"
    },
    {
      "inputs": [
        {
          "internalType": "uint256",
          "name": "tokenId",
          "type": "uint256"
        },
        {
          "internalType": "address",
          "name": "tokenContract",
          "type": "address"
        },
        {
          "internalType": "uint256",
          "name": "duration",
          "type": "uint256"
        },
        {
          "internalType": "uint256",
          "name": "reservePrice",
          "type": "uint256"
        },
        {
          "internalType": "address payable",
          "name": "curator",
          "type": "address"
        },
        {
          "internalType": "uint8",
          "name": "curatorFeePercentage",
          "type": "uint8"
        },
        {
          "internalType": "address",
          "name": "auctionCurrency",
          "type": "address"
        }
      ],
      "name": "createAuction",
      "outputs": [
        {
          "internalType": "uint256",
          "name": "",
          "type": "uint256"
        }
      ],
      "stateMutability": "nonpayable",
      "type": "function"
    },
    {
      "inputs": [
        {
          "internalType": "uint256",
          "name": "auctionId",
          "type": "uint256"
        },
        {
          "internalType": "uint256",
          "name": "amount",
          "type": "uint256"
        }
      ],
      "name": "createBid",
      "outputs": [],
      "stateMutability": "payable",
      "type": "function"
    },
    {
      "inputs": [
        {
          "internalType": "uint256",
          "name": "auctionId",
          "type": "uint256"
        }
      ],
      "name": "endAuction",
      "outputs": [],
      "stateMutability": "nonpayable",
      "type": "function"
    },
    {
      "inputs": [],
      "name": "minBidIncrementPercentage",
      "outputs": [
        {
          "internalType": "uint8",
          "name": "",
          "type": "uint8"
        }
      ],
      "stateMutability": "view",
      "type": "function"
    },
    {
      "inputs": [
        {
          "internalType": "uint256",
          "name": "auctionId",
          "type": "uint256"
        },
        {
          "internalType": "bool",
          "name": "approved",
          "type": "bool"
        }
      ],
      "name": "setAuctionApproval",
      "outputs": [],
      "stateMutability": "nonpayable",
      "type": "function"
    },
    {
      "inputs": [
        {
          "internalType": "uint256",
          "name": "auctionId",
          "type": "uint256"
        },
        {
          "internalType": "uint256",
          "name": "reservePrice",
          "type": "uint256"
        }
      ],
      "name": "setAuctionReservePrice",
      "outputs": [],
      "stateMutability": "nonpayable",
      "type": "function"
    },
    {
      "inputs": [],
      "name": "timeBuffer",
      "outputs": [
        {
          "internalType": "uint256",
          "name": "",
          "type": "uint256"
        }
      ],
      "stateMutability": "view",
      "type": "function"
    },
    {
      "inputs": [],
      "name": "wethAddress",
      "outputs": [
        {
          "internalType": "address",
          "name": "",
          "type": "address"
        }
      ],
      "stateMutability": "view",
      "type": "function"
    },
    {
      "inputs": [],
      "name": "zoo",
      "outputs": [
        {
          "internalType": "address",
          "name": "",
          "type": "address"
        }
      ],
      "stateMutability": "view",
      "type": "function"
    },
    {
      "stateMutability": "payable",
      "type": "receive"
    }
  ],
  "bytecode": "0x60806040523480156200001157600080fd5b5060405162002a8d38038062002a8d83398101604081905262000034916200017b565b60016000556040516301ffc9a760e01b81526380ac58cd60e01b60048201526001600160a01b038316906301ffc9a79060240160206040518083038186803b1580156200008057600080fd5b505afa15801562000095573d6000803e3d6000fd5b505050506040513d601f19601f82011682018060405250810190620000bb9190620001b2565b6200010c5760405162461bcd60e51b815260206004820152601d60248201527f446f65736e277420737570706f7274204e465420696e74657266616365000000604482015260640160405180910390fd5b60028054600380546001600160a01b039485166001600160a01b031990911617905561038460015560ff199290931661010002919091166001600160a81b0319909216919091176005179055620001db565b80516001600160a01b03811681146200017657600080fd5b919050565b600080604083850312156200018e578182fd5b62000199836200015e565b9150620001a9602084016200015e565b90509250929050565b600060208284031215620001c4578081fd5b81518015158114620001d4578182fd5b9392505050565b6128a280620001eb6000396000f3fe60806040526004361061009a5760003560e01c806396b5a7551161006157806396b5a75514610255578063973ddb4a14610275578063b296024d14610295578063b7751c71146102c1578063b9a2de3a146102d4578063ec91f2a4146102f457005b80634f0e0ef3146100a3578063571a26a0146100e05780636f8a41e1146101e257806375e9249f146102025780637b6a87771461023057005b366100a157005b005b3480156100af57600080fd5b506003546100c3906001600160a01b031681565b6040516001600160a01b0390911681526020015b60405180910390f35b3480156100ec57600080fd5b506101716100fb366004612570565b6004602081905260009182526040909120805460018201546002830154600384015494840154600585015460068601546007870154600888015460099098015496986001600160a01b038088169960ff600160a01b9099048916999798929792851694610100900482169382169290821691168c565b604080519c8d526001600160a01b039b8c1660208e0152991515998c019990995260608b019790975260808a019590955260a089019390935260c088019190915260ff1660e087015284166101008601528316610120850152821661014084015216610160820152610180016100d7565b3480156101ee57600080fd5b506100a16101fd36600461264e565b61030a565b34801561020e57600080fd5b5061022261021d3660046125a0565b61049e565b6040519081526020016100d7565b34801561023c57600080fd5b506002546100c39061010090046001600160a01b031681565b34801561026157600080fd5b506100a1610270366004612570565b610ac6565b34801561028157600080fd5b506100a161029036600461261f565b610c41565b3480156102a157600080fd5b506002546102af9060ff1681565b60405160ff90911681526020016100d7565b6100a16102cf36600461264e565b610d3f565b3480156102e057600080fd5b506100a16102ef366004612570565b61136a565b34801561030057600080fd5b5061022260015481565b8161031481611809565b6103395760405162461bcd60e51b8152600401610330906126e2565b60405180910390fd5b6000838152600460205260409020600801546001600160a01b031633148061037f575060008381526004602052604090206006015461010090046001600160a01b031633145b6103da5760405162461bcd60e51b815260206004820152602660248201527f4d7573742062652061756374696f6e2063757261746f72206f7220746f6b656e6044820152651037bbb732b960d11b6064820152608401610330565b600083815260046020819052604090912001541561043a5760405162461bcd60e51b815260206004820152601b60248201527f41756374696f6e2068617320616c7265616479207374617274656400000000006044820152606401610330565b600083815260046020908152604091829020600581018590556001810154905492518581526001600160a01b03909116929186917f01e6a465ec1edd582d333147c7b7edf5998164f2cf2269dcb9c93d46c67bd317910160405180910390a4505050565b6000600260005414156104c35760405162461bcd60e51b815260040161033090612711565b60026000556040516301ffc9a760e01b81526380ac58cd60e01b60048201526001600160a01b038816906301ffc9a79060240160206040518083038186803b15801561050e57600080fd5b505afa158015610522573d6000803e3d6000fd5b505050506040513d601f19601f820116820180604052508101906105469190612554565b6105aa5760405162461bcd60e51b815260206004820152602f60248201527f746f6b656e436f6e747261637420646f6573206e6f7420737570706f7274204560448201526e524337323120696e7465726661636560881b6064820152608401610330565b60648360ff16106106105760405162461bcd60e51b815260206004820152602a60248201527f63757261746f7246656550657263656e74616765206d757374206265206c6573604482015269073207468616e203130360b41b6064820152608401610330565b6040516331a9108f60e11b8152600481018990526000906001600160a01b03891690636352211e9060240160206040518083038186803b15801561065357600080fd5b505afa158015610667573d6000803e3d6000fd5b505050506040513d601f19601f8201168201806040525081019061068b9190612538565b60405163020604bf60e21b8152600481018b90529091506001600160a01b0389169063081812fc9060240160206040518083038186803b1580156106ce57600080fd5b505afa1580156106e2573d6000803e3d6000fd5b505050506040513d601f19601f820116820180604052508101906107069190612538565b6001600160a01b0316336001600160a01b0316148061072d5750336001600160a01b038216145b61078f5760405162461bcd60e51b815260206004820152602d60248201527f43616c6c6572206d75737420626520617070726f766564206f72206f776e657260448201526c08199bdc881d1bdad95b881a59609a1b6064820152608401610330565b600061079a60055490565b90506040518061018001604052808b81526020018a6001600160a01b0316815260200160001515815260200160008152602001898152602001600081526020018881526020018660ff168152602001836001600160a01b0316815260200160006001600160a01b03168152602001876001600160a01b03168152602001856001600160a01b0316815250600460008381526020019081526020016000206000820151816000015560208201518160010160006101000a8154816001600160a01b0302191690836001600160a01b0316021790555060408201518160010160146101000a81548160ff021916908315150217905550606082015181600201556080820151816003015560a0820151816004015560c0820151816005015560e08201518160060160006101000a81548160ff021916908360ff1602179055506101008201518160060160016101000a8154816001600160a01b0302191690836001600160a01b031602179055506101208201518160070160006101000a8154816001600160a01b0302191690836001600160a01b031602179055506101408201518160080160006101000a8154816001600160a01b0302191690836001600160a01b031602179055506101608201518160090160006101000a8154816001600160a01b0302191690836001600160a01b03160217905550905050886001600160a01b03166323b872dd83308d6040518463ffffffff1660e01b81526004016109c29392919061268b565b600060405180830381600087803b1580156109dc57600080fd5b505af11580156109f0573d6000803e3d6000fd5b50505050610a02600580546001019055565b60408051898152602081018990526001600160a01b0384811682840152888116606083015260ff8816608083015286811660a08301529151918b16918c9184917f38c0b9047bd28fac9f420b967f6caf4a6260ba09d18940a9a502578a480c09009181900360c00190a46000818152600460205260409020600801546001600160a01b03161580610aa45750816001600160a01b0316866001600160a01b0316145b15610ab457610ab481600161182e565b60016000559998505050505050505050565b60026000541415610ae95760405162461bcd60e51b815260040161033090612711565b600260005580610af881611809565b610b145760405162461bcd60e51b8152600401610330906126e2565b60008281526004602052604090206006015461010090046001600160a01b0316331480610b5a57506000828152600460205260409020600801546001600160a01b031633145b610bbf5760405162461bcd60e51b815260206004820152603060248201527f43616e206f6e6c792062652063616c6c65642062792061756374696f6e20637260448201526f32b0ba37b91037b91031bab930ba37b960811b6064820152608401610330565b6000828152600460208190526040909120015415610c2f5760405162461bcd60e51b815260206004820152602760248201527f43616e27742063616e63656c20616e2061756374696f6e206f6e63652069742760448201526639903132b3bab760c91b6064820152608401610330565b610c38826118af565b50506001600055565b81610c4b81611809565b610c675760405162461bcd60e51b8152600401610330906126e2565b6000838152600460205260409020600801546001600160a01b03163314610cd05760405162461bcd60e51b815260206004820152601760248201527f4d7573742062652061756374696f6e2063757261746f720000000000000000006044820152606401610330565b6000838152600460208190526040909120015415610d305760405162461bcd60e51b815260206004820152601b60248201527f41756374696f6e2068617320616c7265616479207374617274656400000000006044820152606401610330565b610d3a838361182e565b505050565b81610d4981611809565b610d655760405162461bcd60e51b8152600401610330906126e2565b60026000541415610d885760405162461bcd60e51b815260040161033090612711565b6002600090815583815260046020526040902060078101546001909101546001600160a01b0390911690600160a01b900460ff16610e145760405162461bcd60e51b815260206004820152602360248201527f41756374696f6e206d75737420626520617070726f76656420627920637572616044820152623a37b960e91b6064820152608401610330565b600084815260046020819052604090912001541580610e53575060008481526004602081905260409091206003810154910154610e5091611a0b565b42105b610e915760405162461bcd60e51b815260206004820152600f60248201526e105d58dd1a5bdb88195e1c1a5c9959608a1b6044820152606401610330565b600084815260046020526040902060050154831015610ef25760405162461bcd60e51b815260206004820152601f60248201527f4d7573742073656e64206174206c6561737420726573657276655072696365006044820152606401610330565b60028054600086815260046020526040902090910154610f3e91610f2691606491610f20919060ff16611a1e565b90611a2a565b60008681526004602052604090206002015490611a0b565b831015610fb5576040805162461bcd60e51b81526020600482015260248101919091527f4d7573742073656e64206d6f7265207468616e206c617374206269642062792060448201527f6d696e426964496e6372656d656e7450657263656e7461676520616d6f756e746064820152608401610330565b6002546000858152600460205260409020600101546001600160a01b0390811661010090920416141561114957600260019054906101000a90046001600160a01b03166001600160a01b031663a1794bcd6040518163ffffffff1660e01b8152600401602060405180830381600087803b15801561103257600080fd5b505af1158015611046573d6000803e3d6000fd5b505050506040513d601f19601f8201168201806040525081019061106a9190612538565b6000858152600460208190526040918290205491516302e8fe1360e01b815290810191909152602481018590526001600160a01b0391909116906302e8fe139060440160206040518083038186803b1580156110c557600080fd5b505afa1580156110d9573d6000803e3d6000fd5b505050506040513d601f19601f820116820180604052508101906110fd9190612554565b6111495760405162461bcd60e51b815260206004820152601f60248201527f42696420696e76616c696420666f722073686172652073706c697474696e67006044820152606401610330565b6000848152600460208190526040909120015461117a576000848152600460208190526040909120429101556111b6565b6001600160a01b038116156111b657600084815260046020526040902060028101546009909101546111b69183916001600160a01b0316611a36565b6000848152600460205260409020600901546111dc9084906001600160a01b0316611b46565b60008481526004602081905260408220600281018690556007810180546001600160a01b031916331790556001546003820154919092015461122991429161122391611a0b565b90611db6565b1015611288576000858152600460208190526040909120600381015491015461127090611269906112609042906112239086611a0b565b60015490611db6565b8290611a0b565b60008781526004602052604090206003015550600190505b6000858152600460209081526040918290206001810154905483513381529283018890526001600160a01b03868116159484019490945284151560608401529216919087907fda6b779568630ce5e5658b317174df474d5b335541ed9471bd8424a017f3be6d9060800160405180910390a4801561135e576000858152600460209081526040918290206001810154815460039092015493519384526001600160a01b031692909188917f55cf2b31608fbe49fa31cd0285b6b6cce46f56d26c8c59980a2af5a0ffbdd5db910160405180910390a45b50506001600055505050565b8061137481611809565b6113905760405162461bcd60e51b8152600401610330906126e2565b600260005414156113b35760405162461bcd60e51b815260040161033090612711565b60026000908155828152600460208190526040909120015461140e5760405162461bcd60e51b815260206004820152601460248201527320bab1ba34b7b7103430b9b713ba103132b3bab760611b6044820152606401610330565b6000828152600460208190526040909120600381015491015461143091611a0b565b42101561147f5760405162461bcd60e51b815260206004820152601860248201527f41756374696f6e206861736e277420636f6d706c6574656400000000000000006044820152606401610330565b6000828152600460205260408120600901546001600160a01b0316156114bf576000838152600460205260409020600901546001600160a01b03166114cc565b6003546001600160a01b03165b6000848152600460205260408120600280820154905460019092015493945091926001600160a01b039081166101009092041614156115725760008061151187611dc2565b9350915082905060018215151461156b57600087815260046020526040902060078101546002820154600990920154611558926001600160a01b0392831692909116611a36565b611561876118af565b5050505050610c38565b5050611632565b6000858152600460208190526040918290206001810154600782015491549351632142170760e11b81526001600160a01b03918216946342842e0e946115bc94309416920161268b565b600060405180830381600087803b1580156115d657600080fd5b505af19250505080156115e7575060015b61163257600085815260046020526040902060078101546002820154600990920154611621926001600160a01b0392831692909116611a36565b61162a856118af565b505050610c38565b6000858152600460205260409020600801546001600160a01b0316156116b95760008581526004602052604090206006015461167990606490610f2090849060ff16611a1e565b91506116858183611db6565b600086815260046020526040902060088101546009909101549192506116b9916001600160a01b0391821691859116611a36565b600085815260046020526040902060068101546009909101546116ef916001600160a01b03610100909104811691849116611a36565b600085815260046020908152604091829020600181015481546006830154600884015460079094015486516001600160a01b03610100909304831681529482169585019590955293841683860152606083018690526080830187905287841660a084015293519216929188917f4f35fb3ea0081b3ccbe8df613cab0f9e1694d50a025e0aa09b88a86a3d07c2de919081900360c00190a45050506000918252506004602081905260408220828155600180820180546001600160a81b03199081169091556002830185905560038301859055928201849055600582018490556006820180549093169092556007810180546001600160a01b0319908116909155600882018054821690556009909101805490911690559055565b60009081526004602052604090206006015461010090046001600160a01b0316151590565b60008281526004602052604090819020600181018054841515600160a01b0260ff60a01b1982168117909255915492516001600160a01b039182169190921617919084907fec35d321ab4972475f131e184c0c0fe52c5a58a29d74f7db2969af2f6dd93a1f906118a390861515815260200190565b60405180910390a45050565b6000818152600460208190526040918290206006810154600182015491549351632142170760e11b81526101009091046001600160a01b03908116949216926342842e0e926119039230928792910161268b565b600060405180830381600087803b15801561191d57600080fd5b505af1158015611931573d6000803e3d6000fd5b5050506000838152600460209081526040918290206001810154905492516001600160a01b038681168252909116935085917f6091afcbe8514686c43b167ca4f1b03e24446d29d8490d496e438f8a2c763439910160405180910390a450600090815260046020819052604082208281556001810180546001600160a81b03199081169091556002820184905560038201849055918101839055600581019290925560068201805490911690556007810180546001600160a01b031990811690915560088201805482169055600990910180549091169055565b6000611a178284612796565b9392505050565b6000611a1782846127ce565b6000611a1782846127ae565b6001600160a01b038116611b3257600354604051632e1a7d4d60e01b8152600481018490526001600160a01b0390911690632e1a7d4d90602401600060405180830381600087803b158015611a8a57600080fd5b505af1158015611a9e573d6000803e3d6000fd5b50505050611aac83836121ed565b610d3a57600360009054906101000a90046001600160a01b03166001600160a01b031663d0e30db0836040518263ffffffff1660e01b81526004016000604051808303818588803b158015611b0057600080fd5b505af1158015611b14573d6000803e3d6000fd5b5050600354610d3a93506001600160a01b0316915085905084612264565b610d3a6001600160a01b0382168484612264565b6001600160a01b038116611c2b57813414611bbe5760405162461bcd60e51b815260206004820152603260248201527f53656e74204554482056616c756520646f6573206e6f74206d617463682073706044820152711958da599a595908189a5908185b5bdd5b9d60721b6064820152608401610330565b600360009054906101000a90046001600160a01b03166001600160a01b031663d0e30db0836040518263ffffffff1660e01b81526004016000604051808303818588803b158015611c0e57600080fd5b505af1158015611c22573d6000803e3d6000fd5b50505050505050565b6040516370a0823160e01b815230600482015281906000906001600160a01b038316906370a082319060240160206040518083038186803b158015611c6f57600080fd5b505afa158015611c83573d6000803e3d6000fd5b505050506040513d601f19601f82011682018060405250810190611ca79190612588565b9050611cbe6001600160a01b0383163330876122c7565b6040516370a0823160e01b81523060048201526000906001600160a01b038416906370a082319060240160206040518083038186803b158015611d0057600080fd5b505afa158015611d14573d6000803e3d6000fd5b505050506040513d601f19601f82011682018060405250810190611d389190612588565b905080611d458387611a0b565b14611daf5760405162461bcd60e51b815260206004820152603460248201527f546f6b656e207472616e736665722063616c6c20646964206e6f74207472616e6044820152731cd9995c88195e1c1958dd195908185b5bdd5b9d60621b6064820152608401610330565b5050505050565b6000611a1782846127ed565b600081815260046020526040812060090154819081906001600160a01b031615611e06576000848152600460205260409020600901546001600160a01b0316611e13565b6003546001600160a01b03165b6040805160a08101825260008781526004602081815284832060028082015486526001600160a01b0380891684880181905230888a01528d8752858552600790930154811660608801528751808501895286815260808801529054875163a1794bcd60e01b815297519899509597919663095ea7b39661010090049091169463a1794bcd948281019493928390030190829087803b158015611eb457600080fd5b505af1158015611ec8573d6000803e3d6000fd5b505050506040513d601f19601f82011682018060405250810190611eec9190612538565b835160405160e084901b6001600160e01b03191681526001600160a01b0390921660048301526024820152604401602060405180830381600087803b158015611f3457600080fd5b505af1158015611f48573d6000803e3d6000fd5b505050506040513d601f19601f82011682018060405250810190611f6c9190612554565b50600254600086815260046020819052604091829020549151632dfb121160e11b81526101009093046001600160a01b031692635bf6242292611fb3929091869101612748565b600060405180830381600087803b158015611fcd57600080fd5b505af1158015611fe1573d6000803e3d6000fd5b50506040516370a0823160e01b8152306004820152600092506001600160a01b03851691506370a082319060240160206040518083038186803b15801561202757600080fd5b505afa15801561203b573d6000803e3d6000fd5b505050506040513d601f19601f8201168201806040525081019061205f9190612588565b60025460008881526004602081905260409182902054915163ba33939960e01b81529394506101009092046001600160a01b03169263ba339399926120a79291879101612748565b600060405180830381600087803b1580156120c157600080fd5b505af19250505080156120d2575060015b6121585760025460008781526004602081905260409182902054915163b320f45960e01b8152908101919091526101009091046001600160a01b03169063b320f45990602401600060405180830381600087803b15801561213257600080fd5b505af1158015612146573d6000803e3d6000fd5b506000998a9950975050505050505050565b6040516370a0823160e01b81523060048201526000906001600160a01b038516906370a082319060240160206040518083038186803b15801561219a57600080fd5b505afa1580156121ae573d6000803e3d6000fd5b505050506040513d601f19601f820116820180604052508101906121d29190612588565b905060016121e08284611db6565b9550955050505050915091565b60408051600080825260208201928390529182916001600160a01b0386169185916122179161266f565b60006040518083038185875af1925050503d8060008114612254576040519150601f19603f3d011682016040523d82523d6000602084013e612259565b606091505b509095945050505050565b6040516001600160a01b038316602482015260448101829052610d3a90849063a9059cbb60e01b906064015b60408051601f198184030181529190526020810180516001600160e01b03166001600160e01b0319909316929092179091526122ee565b6122e8846323b872dd60e01b8585856040516024016122909392919061268b565b50505050565b6000612343826040518060400160405280602081526020017f5361666545524332303a206c6f772d6c6576656c2063616c6c206661696c6564815250856001600160a01b03166123c09092919063ffffffff16565b805190915015610d3a57808060200190518101906123619190612554565b610d3a5760405162461bcd60e51b815260206004820152602a60248201527f5361666545524332303a204552433230206f7065726174696f6e20646964206e6044820152691bdd081cdd58d8d9595960b21b6064820152608401610330565b60606123cf84846000856123d7565b949350505050565b6060824710156124385760405162461bcd60e51b815260206004820152602660248201527f416464726573733a20696e73756666696369656e742062616c616e636520666f6044820152651c8818d85b1b60d21b6064820152608401610330565b843b6124865760405162461bcd60e51b815260206004820152601d60248201527f416464726573733a2063616c6c20746f206e6f6e2d636f6e74726163740000006044820152606401610330565b600080866001600160a01b031685876040516124a2919061266f565b60006040518083038185875af1925050503d80600081146124df576040519150601f19603f3d011682016040523d82523d6000602084013e6124e4565b606091505b50915091506124f48282866124ff565b979650505050505050565b6060831561250e575081611a17565b82511561251e5782518084602001fd5b8160405162461bcd60e51b815260040161033091906126af565b600060208284031215612549578081fd5b8151611a1781612846565b600060208284031215612565578081fd5b8151611a178161285e565b600060208284031215612581578081fd5b5035919050565b600060208284031215612599578081fd5b5051919050565b600080600080600080600060e0888a0312156125ba578283fd5b8735965060208801356125cc81612846565b9550604088013594506060880135935060808801356125ea81612846565b925060a088013560ff811681146125ff578283fd5b915060c088013561260f81612846565b8091505092959891949750929550565b60008060408385031215612631578182fd5b8235915060208301356126438161285e565b809150509250929050565b60008060408385031215612660578182fd5b50508035926020909101359150565b60008251612681818460208701612804565b9190910192915050565b6001600160a01b039384168152919092166020820152604081019190915260600190565b60208152600082518060208401526126ce816040850160208701612804565b601f01601f19169190910160400192915050565b602080825260159082015274105d58dd1a5bdb88191bd95cdb89dd08195e1a5cdd605a1b604082015260600190565b6020808252601f908201527f5265656e7472616e637947756172643a207265656e7472616e742063616c6c00604082015260600190565b91825280516020808401919091528101516001600160a01b0390811660408085019190915282015181166060808501919091528201511660808084019190915201515160a082015260c00190565b600082198211156127a9576127a9612830565b500190565b6000826127c957634e487b7160e01b81526012600452602481fd5b500490565b60008160001904831182151516156127e8576127e8612830565b500290565b6000828210156127ff576127ff612830565b500390565b60005b8381101561281f578181015183820152602001612807565b838111156122e85750506000910152565b634e487b7160e01b600052601160045260246000fd5b6001600160a01b038116811461285b57600080fd5b50565b801515811461285b57600080fdfea2646970667358221220277c56ab2cfe093692d5993264edfd697b52132db8a728a22b11202d8f0d341e64736f6c63430008040033",
  "linkReferences": {},
  "deployedLinkReferences": {}
}