{
  "address": "0xb3C26aAFa12DeBE5EcFd5dA4D71E9910586dDAF7",
  "abi": [
    {
      "inputs": [],
      "stateMutability": "nonpayable",
      "type": "constructor"
    },
    {
      "anonymous": false,
      "inputs": [
        {
          "indexed": false,
          "internalType": "uint256",
          "name": "chainID",
          "type": "uint256"
        },
        {
          "indexed": false,
          "internalType": "address",
          "name": "tokenAddress",
          "type": "address"
        }
      ],
      "name": "AddToken",
      "type": "event"
    },
    {
      "anonymous": false,
      "inputs": [
        {
          "indexed": false,
          "internalType": "uint256",
          "name": "chainID",
          "type": "uint256"
        },
        {
          "indexed": false,
          "internalType": "address",
          "name": "tokenAddress",
          "type": "address"
        },
        {
          "indexed": false,
          "internalType": "address",
          "name": "from",
          "type": "address"
        },
        {
          "indexed": false,
          "internalType": "uint256",
          "name": "amount",
          "type": "uint256"
        }
      ],
      "name": "Burn",
      "type": "event"
    },
    {
      "anonymous": false,
      "inputs": [
        {
          "indexed": false,
          "internalType": "uint256",
          "name": "chainID",
          "type": "uint256"
        },
        {
          "indexed": false,
          "internalType": "address",
          "name": "tokenAddress",
          "type": "address"
        },
        {
          "indexed": false,
          "internalType": "address",
          "name": "to",
          "type": "address"
        },
        {
          "indexed": false,
          "internalType": "uint256",
          "name": "amount",
          "type": "uint256"
        }
      ],
      "name": "Mint",
      "type": "event"
    },
    {
      "anonymous": false,
      "inputs": [
        {
          "indexed": true,
          "internalType": "address",
          "name": "previousOwner",
          "type": "address"
        },
        {
          "indexed": true,
          "internalType": "address",
          "name": "newOwner",
          "type": "address"
        }
      ],
      "name": "OwnershipTransferred",
      "type": "event"
    },
    {
      "anonymous": false,
      "inputs": [
        {
          "indexed": false,
          "internalType": "uint256",
          "name": "chainID",
          "type": "uint256"
        },
        {
          "indexed": false,
          "internalType": "address",
          "name": "tokenAddress",
          "type": "address"
        }
      ],
      "name": "RemoveToken",
      "type": "event"
    },
    {
      "anonymous": false,
      "inputs": [
        {
          "indexed": false,
          "internalType": "uint256",
          "name": "tokenA",
          "type": "uint256"
        },
        {
          "indexed": false,
          "internalType": "uint256",
          "name": "tokenB",
          "type": "uint256"
        },
        {
          "indexed": false,
          "internalType": "uint256",
          "name": "txID",
          "type": "uint256"
        },
        {
          "indexed": false,
          "internalType": "address",
          "name": "sender",
          "type": "address"
        },
        {
          "indexed": false,
          "internalType": "address",
          "name": "recipient",
          "type": "address"
        },
        {
          "indexed": false,
          "internalType": "uint256",
          "name": "amount",
          "type": "uint256"
        }
      ],
      "name": "Swap",
      "type": "event"
    },
    {
      "inputs": [
        {
          "components": [
            {
              "internalType": "enum Bridge.Type",
              "name": "kind",
              "type": "uint8"
            },
            {
              "internalType": "uint256",
              "name": "id",
              "type": "uint256"
            },
            {
              "internalType": "uint256",
              "name": "chainID",
              "type": "uint256"
            },
            {
              "internalType": "address",
              "name": "tokenAddress",
              "type": "address"
            },
            {
              "internalType": "bool",
              "name": "enabled",
              "type": "bool"
            }
          ],
          "internalType": "struct Bridge.Token",
          "name": "token",
          "type": "tuple"
        },
        {
          "internalType": "address",
          "name": "owner",
          "type": "address"
        },
        {
          "internalType": "uint256",
          "name": "amount",
          "type": "uint256"
        }
      ],
      "name": "mint",
      "outputs": [],
      "stateMutability": "nonpayable",
      "type": "function"
    },
    {
      "inputs": [],
      "name": "owner",
      "outputs": [
        {
          "internalType": "address",
          "name": "",
          "type": "address"
        }
      ],
      "stateMutability": "view",
      "type": "function"
    },
    {
      "inputs": [],
      "name": "renounceOwnership",
      "outputs": [],
      "stateMutability": "nonpayable",
      "type": "function"
    },
    {
      "inputs": [
        {
          "components": [
            {
              "internalType": "enum Bridge.Type",
              "name": "kind",
              "type": "uint8"
            },
            {
              "internalType": "uint256",
              "name": "id",
              "type": "uint256"
            },
            {
              "internalType": "uint256",
              "name": "chainID",
              "type": "uint256"
            },
            {
              "internalType": "address",
              "name": "tokenAddress",
              "type": "address"
            },
            {
              "internalType": "bool",
              "name": "enabled",
              "type": "bool"
            }
          ],
          "internalType": "struct Bridge.Token",
          "name": "token",
          "type": "tuple"
        }
      ],
      "name": "setToken",
      "outputs": [],
      "stateMutability": "nonpayable",
      "type": "function"
    },
    {
      "inputs": [
        {
          "components": [
            {
              "internalType": "enum Bridge.Type",
              "name": "kind",
              "type": "uint8"
            },
            {
              "internalType": "uint256",
              "name": "id",
              "type": "uint256"
            },
            {
              "internalType": "uint256",
              "name": "chainID",
              "type": "uint256"
            },
            {
              "internalType": "address",
              "name": "tokenAddress",
              "type": "address"
            },
            {
              "internalType": "bool",
              "name": "enabled",
              "type": "bool"
            }
          ],
          "internalType": "struct Bridge.Token",
          "name": "tokenA",
          "type": "tuple"
        },
        {
          "components": [
            {
              "internalType": "enum Bridge.Type",
              "name": "kind",
              "type": "uint8"
            },
            {
              "internalType": "uint256",
              "name": "id",
              "type": "uint256"
            },
            {
              "internalType": "uint256",
              "name": "chainID",
              "type": "uint256"
            },
            {
              "internalType": "address",
              "name": "tokenAddress",
              "type": "address"
            },
            {
              "internalType": "bool",
              "name": "enabled",
              "type": "bool"
            }
          ],
          "internalType": "struct Bridge.Token",
          "name": "tokenB",
          "type": "tuple"
        },
        {
          "internalType": "address",
          "name": "recipient",
          "type": "address"
        },
        {
          "internalType": "uint256",
          "name": "amount",
          "type": "uint256"
        },
        {
          "internalType": "uint256",
          "name": "nonce",
          "type": "uint256"
        }
      ],
      "name": "swap",
      "outputs": [],
      "stateMutability": "nonpayable",
      "type": "function"
    },
    {
      "inputs": [
        {
          "internalType": "uint256",
          "name": "",
          "type": "uint256"
        }
      ],
      "name": "tokens",
      "outputs": [
        {
          "internalType": "enum Bridge.Type",
          "name": "kind",
          "type": "uint8"
        },
        {
          "internalType": "uint256",
          "name": "id",
          "type": "uint256"
        },
        {
          "internalType": "uint256",
          "name": "chainID",
          "type": "uint256"
        },
        {
          "internalType": "address",
          "name": "tokenAddress",
          "type": "address"
        },
        {
          "internalType": "bool",
          "name": "enabled",
          "type": "bool"
        }
      ],
      "stateMutability": "view",
      "type": "function"
    },
    {
      "inputs": [
        {
          "internalType": "uint256",
          "name": "",
          "type": "uint256"
        }
      ],
      "name": "transactions",
      "outputs": [
        {
          "internalType": "uint256",
          "name": "id",
          "type": "uint256"
        },
        {
          "components": [
            {
              "internalType": "enum Bridge.Type",
              "name": "kind",
              "type": "uint8"
            },
            {
              "internalType": "uint256",
              "name": "id",
              "type": "uint256"
            },
            {
              "internalType": "uint256",
              "name": "chainID",
              "type": "uint256"
            },
            {
              "internalType": "address",
              "name": "tokenAddress",
              "type": "address"
            },
            {
              "internalType": "bool",
              "name": "enabled",
              "type": "bool"
            }
          ],
          "internalType": "struct Bridge.Token",
          "name": "tokenA",
          "type": "tuple"
        },
        {
          "components": [
            {
              "internalType": "enum Bridge.Type",
              "name": "kind",
              "type": "uint8"
            },
            {
              "internalType": "uint256",
              "name": "id",
              "type": "uint256"
            },
            {
              "internalType": "uint256",
              "name": "chainID",
              "type": "uint256"
            },
            {
              "internalType": "address",
              "name": "tokenAddress",
              "type": "address"
            },
            {
              "internalType": "bool",
              "name": "enabled",
              "type": "bool"
            }
          ],
          "internalType": "struct Bridge.Token",
          "name": "tokenB",
          "type": "tuple"
        },
        {
          "internalType": "address",
          "name": "sender",
          "type": "address"
        },
        {
          "internalType": "address",
          "name": "recipient",
          "type": "address"
        },
        {
          "internalType": "uint256",
          "name": "amount",
          "type": "uint256"
        },
        {
          "internalType": "uint256",
          "name": "nonce",
          "type": "uint256"
        }
      ],
      "stateMutability": "view",
      "type": "function"
    },
    {
      "inputs": [
        {
          "internalType": "address",
          "name": "newOwner",
          "type": "address"
        }
      ],
      "name": "transferOwnership",
      "outputs": [],
      "stateMutability": "nonpayable",
      "type": "function"
    }
  ],
  "transactionHash": "0x523de6e7d51da818fdc1b51655251a48a877a20b98802cef57662a5b0dfd8d23",
  "args": [],
  "solcInputHash": "8d45e1fa12257b66c9c8655ff9092a59",
  "bytecode": "0x608060405234801561001057600080fd5b5061001a3361001f565b61006f565b600080546001600160a01b038381166001600160a01b0319831681178455604051919092169283917f8be0079c531659141344cd1fd0a4f28419497f9722a3daafe3b4186f6b6457e09190a35050565b6111648061007e6000396000f3fe608060405234801561001057600080fd5b50600436106100785760003560e01c8063095685511461007d5780634f64b2be14610092578063715018a6146100fb5780638da5cb5b146101035780639ace38c214610123578063ac18188b14610149578063acbb09b51461015c578063f2fde38b1461016f575b600080fd5b61009061008b366004610e7f565b610182565b005b6100e16100a0366004610f15565b6001602081905260009182526040909120805491810154600282015460039092015460ff938416939192916001600160a01b03821691600160a01b90041685565b6040516100f2959493929190610fb4565b60405180910390f35b610090610300565b61010b61033b565b6040516001600160a01b0390911681526020016100f2565b610136610131366004610f15565b61034a565b6040516100f297969594939291906110d7565b610090610157366004610e64565b6104b2565b61009061016a366004610ebb565b6106b7565b61009061017d366004610e43565b6109b8565b3361018b61033b565b6001600160a01b0316146101ba5760405162461bcd60e51b81526004016101b190611066565b60405180910390fd5b6001600160a01b0382166101cd57600080fd5b600081116101da57600080fd5b6101e78360400151610a55565b6102285760405162461bcd60e51b81526020600482015260126024820152712a37b5b2b7103737ba1037b71031b430b4b760711b60448201526064016101b1565b60008351600181111561024b57634e487b7160e01b600052602160045260246000fd5b14156102b65782606001516001600160a01b03166340c10f1983836040518363ffffffff1660e01b8152600401610283929190610f9b565b600060405180830381600087803b15801561029d57600080fd5b505af11580156102b1573d6000803e3d6000fd5b505050505b7fb66f36adcd2842ffc78e065c5c17da32d054e8707147ce7fcc96a04e4c34f0238360400151846060015184846040516102f394939291906110b2565b60405180910390a1505050565b3361030961033b565b6001600160a01b03161461032f5760405162461bcd60e51b81526004016101b190611066565b6103396000610ab1565b565b6000546001600160a01b031690565b600260205260009081526040908190208054825160a08101909352600180830180549294929091839160ff169081111561039457634e487b7160e01b600052602160045260246000fd5b60018111156103b357634e487b7160e01b600052602160045260246000fd5b8152600182810154602083015260028301546040808401919091526003909301546001600160a01b038116606084015260ff600160a01b90910481161515608090930192909252825160a081019093526005850180549495949092849291169081111561043057634e487b7160e01b600052602160045260246000fd5b600181111561044f57634e487b7160e01b600052602160045260246000fd5b815260018201546020820152600282015460408201526003909101546001600160a01b038082166060840152600160a01b90910460ff1615156080909201919091526009830154600a840154600b850154600c9095015493949183169392169187565b336104bb61033b565b6001600160a01b0316146104e15760405162461bcd60e51b81526004016101b190611066565b60608101516001600160a01b031661053b5760405162461bcd60e51b815260206004820152601e60248201527f546f6b656e2061646472657373206d757374206e6f74206265207a65726f000060448201526064016101b1565b60408101516105885760405162461bcd60e51b8152602060048201526019602482015278436861696e204944206d757374206e6f74206265207a65726f60381b60448201526064016101b1565b61059181610b01565b602080830182905260009182526001908190526040909120825181548493839160ff19169083818111156105d557634e487b7160e01b600052602160045260246000fd5b021790555060208201516001820155604082015160028201556060820151600390910180546080909301511515600160a01b026001600160a81b03199093166001600160a01b039092169190911791909117905561063281610b52565b1561067b577f374195d639167721eee596157426d922ffedad376d1ec774751088e8de1dcd0d8160400151826060015160405161067092919061109b565b60405180910390a150565b7fcadf6fd3968e653eef0f298763a80925d054059a599c46fadf9d319d9653bd868160400151826060015160405161067092919061109b565b50565b6106c48560400151610a55565b806106d957506106d78460400151610a55565b155b61071e5760405162461bcd60e51b815260206004820152601660248201527504e6f7420746f6b656e732077652063616e20737761760541b60448201526064016101b1565b61072785610b52565b6107715760405162461bcd60e51b815260206004820152601b60248201527a14ddd85c08199c9bdb481d1bdad95b881b9bdd08195b98589b1959602a1b60448201526064016101b1565b61077a84610b52565b6107c25760405162461bcd60e51b815260206004820152601960248201527814ddd85c081d1bc81d1bdad95b881b9bdd08195b98589b1959603a1b60448201526064016101b1565b600082116108125760405162461bcd60e51b815260206004820181905260248201527f416d6f756e74206d7573742062652067726561746572207468616e207a65726f60448201526064016101b1565b6001600160a01b0383166108745760405162461bcd60e51b8152602060048201526024808201527f526563697069656e742073686f756c64206e6f74206265207a65726f206164646044820152637265737360e01b60648201526084016101b1565b6040805160e08101825260008152602081018790529081018590523360608201526001600160a01b038416608082015260a0810183905260c081018290526108bb81610b85565b8082526000908152600260205260409020600c01548214156109145760405162461bcd60e51b8152602060048201526012602482015271139bdb98d948185b1c9958591e481d5cd95960721b60448201526064016101b1565b7f150d50a7997d1961bb2764beb7de1b31d73eaac5d6633546cf3ecf3c0704ab1061093e87610b01565b61094787610b01565b8351604080519384526020840192909252908201523360608201526001600160a01b038616608082015260a0810185905260c00160405180910390a16109908660400151610a55565b156109a5576109a0863385610bec565b6109b0565b6109b0853385610182565b505050505050565b336109c161033b565b6001600160a01b0316146109e75760405162461bcd60e51b81526004016101b190611066565b6001600160a01b038116610a4c5760405162461bcd60e51b815260206004820152602660248201527f4f776e61626c653a206e6577206f776e657220697320746865207a65726f206160448201526564647265737360d01b60648201526084016101b1565b6106b481610ab1565b600081604051602001610a6a91815260200190565b6040516020818303038152906040528051906020012046604051602001610a9391815260200190565b60405160208183030381529060405280519060200120149050919050565b600080546001600160a01b038381166001600160a01b0319831681178455604051919092169283917f8be0079c531659141344cd1fd0a4f28419497f9722a3daafe3b4186f6b6457e09190a35050565b600081604001518260600151604051602001610b3492919091825260601b6001600160601b031916602082015260340190565b60408051601f19818403018152919052805160209091012092915050565b600060016000610b6184610b01565b8152602081019190915260400160002060030154600160a01b900460ff1692915050565b602081810151810151604080840151830151606080860151608087015160a088015160c0890151865198890197909752948701939093526001600160601b031990821b81168683015291901b166074840152608883015260a882015260009060c801610b34565b610c1860405180604001604052806004815260200163313ab93760e11b81525084606001518484610d11565b600083516001811115610c3b57634e487b7160e01b600052602160045260246000fd5b1415610caa5782606001516001600160a01b03166379cc679083836040518363ffffffff1660e01b8152600401610c73929190610f9b565b600060405180830381600087803b158015610c8d57600080fd5b505af1158015610ca1573d6000803e3d6000fd5b50505050610cd0565b600183516001811115610ccd57634e487b7160e01b600052602160045260246000fd5b50505b7fde7a984b98c6d8af03bf51aeb308b3046cfc15f57adb776b4c454c179d1eaeb8836040015184606001518486602001516040516102f394939291906110b2565b610d5a84848484604051602401610d2b9493929190610ff0565b60408051601f198184030181529190526020810180516001600160e01b0316636eb7943d60e01b179052610d60565b50505050565b80516a636f6e736f6c652e6c6f67602083016000808483855afa5050505050565b80356001600160a01b0381168114610d9857600080fd5b919050565b80358015158114610d9857600080fd5b600060a08284031215610dbe578081fd5b60405160a0810181811067ffffffffffffffff82111715610ded57634e487b7160e01b83526041600452602483fd5b604052905080823560028110610e0257600080fd5b808252506020830135602082015260408301356040820152610e2660608401610d81565b6060820152610e3760808401610d9d565b60808201525092915050565b600060208284031215610e54578081fd5b610e5d82610d81565b9392505050565b600060a08284031215610e75578081fd5b610e5d8383610dad565b600080600060e08486031215610e93578182fd5b610e9d8585610dad565b9250610eab60a08501610d81565b915060c084013590509250925092565b60008060008060006101a08688031215610ed3578081fd5b610edd8787610dad565b9450610eec8760a08801610dad565b9350610efb6101408701610d81565b949793965093946101608101359450610180013592915050565b600060208284031215610f26578081fd5b5035919050565b6001600160a01b03169052565b60028110610f5857634e487b7160e01b600052602160045260246000fd5b9052565b610f67828251610f3a565b60208181015190830152604080820151908301526060808201516001600160a01b0316908301526080908101511515910152565b6001600160a01b03929092168252602082015260400190565b60a08101610fc28288610f3a565b602082019590955260408101939093526001600160a01b039190911660608301521515608090910152919050565b6080815260008551806080840152815b8181101561101d57602081890181015160a0868401015201611000565b8181111561102e578260a083860101525b50601f01601f1916820160a001905061104a6020830186610f2d565b6110576040830185610f2d565b82606083015295945050505050565b6020808252818101527f4f776e61626c653a2063616c6c6572206973206e6f7420746865206f776e6572604082015260600190565b9182526001600160a01b0316602082015260400190565b9384526001600160a01b03928316602085015291166040830152606082015260800190565b8781526101e081016110ec6020830189610f5c565b6110f960c0830188610f5c565b6001600160a01b03958616610160830152939094166101808501526101a08401919091526101c090920191909152939250505056fea26469706673582212202dca6ad375ed4e8104e5e95010b5229e3bc23e7a1b65a4406816602fa8f9118064736f6c63430008040033",
  "devdoc": {
    "kind": "dev",
    "methods": {
      "owner()": {
        "details": "Returns the address of the current owner."
      },
      "renounceOwnership()": {
        "details": "Leaves the contract without owner. It will not be possible to call `onlyOwner` functions anymore. Can only be called by the current owner. NOTE: Renouncing ownership will leave the contract without an owner, thereby removing any functionality that is only available to the owner."
      },
      "transferOwnership(address)": {
        "details": "Transfers ownership of the contract to a new account (`newOwner`). Can only be called by the current owner."
      }
    },
    "version": 1
  },
  "userdoc": {
    "kind": "user",
    "methods": {},
    "version": 1
  },
  "storageLayout": {
    "storage": [
      {
        "astId": 387,
        "contract": "src/Bridge.sol:Bridge",
        "label": "_owner",
        "offset": 0,
        "slot": "0",
        "type": "t_address"
      },
      {
        "astId": 5933,
        "contract": "src/Bridge.sol:Bridge",
        "label": "tokens",
        "offset": 0,
        "slot": "1",
        "type": "t_mapping(t_uint256,t_struct(Token)5911_storage)"
      },
      {
        "astId": 5938,
        "contract": "src/Bridge.sol:Bridge",
        "label": "transactions",
        "offset": 0,
        "slot": "2",
        "type": "t_mapping(t_uint256,t_struct(Transaction)5928_storage)"
      }
    ],
    "types": {
      "t_address": {
        "encoding": "inplace",
        "label": "address",
        "numberOfBytes": "20"
      },
      "t_bool": {
        "encoding": "inplace",
        "label": "bool",
        "numberOfBytes": "1"
      },
      "t_enum(Type)5899": {
        "encoding": "inplace",
        "label": "enum Bridge.Type",
        "numberOfBytes": "1"
      },
      "t_mapping(t_uint256,t_struct(Token)5911_storage)": {
        "encoding": "mapping",
        "key": "t_uint256",
        "label": "mapping(uint256 => struct Bridge.Token)",
        "numberOfBytes": "32",
        "value": "t_struct(Token)5911_storage"
      },
      "t_mapping(t_uint256,t_struct(Transaction)5928_storage)": {
        "encoding": "mapping",
        "key": "t_uint256",
        "label": "mapping(uint256 => struct Bridge.Transaction)",
        "numberOfBytes": "32",
        "value": "t_struct(Transaction)5928_storage"
      },
      "t_struct(Token)5911_storage": {
        "encoding": "inplace",
        "label": "struct Bridge.Token",
        "members": [
          {
            "astId": 5902,
            "contract": "src/Bridge.sol:Bridge",
            "label": "kind",
            "offset": 0,
            "slot": "0",
            "type": "t_enum(Type)5899"
          },
          {
            "astId": 5904,
            "contract": "src/Bridge.sol:Bridge",
            "label": "id",
            "offset": 0,
            "slot": "1",
            "type": "t_uint256"
          },
          {
            "astId": 5906,
            "contract": "src/Bridge.sol:Bridge",
            "label": "chainID",
            "offset": 0,
            "slot": "2",
            "type": "t_uint256"
          },
          {
            "astId": 5908,
            "contract": "src/Bridge.sol:Bridge",
            "label": "tokenAddress",
            "offset": 0,
            "slot": "3",
            "type": "t_address"
          },
          {
            "astId": 5910,
            "contract": "src/Bridge.sol:Bridge",
            "label": "enabled",
            "offset": 20,
            "slot": "3",
            "type": "t_bool"
          }
        ],
        "numberOfBytes": "128"
      },
      "t_struct(Transaction)5928_storage": {
        "encoding": "inplace",
        "label": "struct Bridge.Transaction",
        "members": [
          {
            "astId": 5913,
            "contract": "src/Bridge.sol:Bridge",
            "label": "id",
            "offset": 0,
            "slot": "0",
            "type": "t_uint256"
          },
          {
            "astId": 5916,
            "contract": "src/Bridge.sol:Bridge",
            "label": "tokenA",
            "offset": 0,
            "slot": "1",
            "type": "t_struct(Token)5911_storage"
          },
          {
            "astId": 5919,
            "contract": "src/Bridge.sol:Bridge",
            "label": "tokenB",
            "offset": 0,
            "slot": "5",
            "type": "t_struct(Token)5911_storage"
          },
          {
            "astId": 5921,
            "contract": "src/Bridge.sol:Bridge",
            "label": "sender",
            "offset": 0,
            "slot": "9",
            "type": "t_address"
          },
          {
            "astId": 5923,
            "contract": "src/Bridge.sol:Bridge",
            "label": "recipient",
            "offset": 0,
            "slot": "10",
            "type": "t_address"
          },
          {
            "astId": 5925,
            "contract": "src/Bridge.sol:Bridge",
            "label": "amount",
            "offset": 0,
            "slot": "11",
            "type": "t_uint256"
          },
          {
            "astId": 5927,
            "contract": "src/Bridge.sol:Bridge",
            "label": "nonce",
            "offset": 0,
            "slot": "12",
            "type": "t_uint256"
          }
        ],
        "numberOfBytes": "416"
      },
      "t_uint256": {
        "encoding": "inplace",
        "label": "uint256",
        "numberOfBytes": "32"
      }
    }
  }
}