{
  "address": "0x383Be063b0231e1e349cd0A72cF8355098723ec6",
  "abi": [
    {
      "inputs": [
        {
          "internalType": "string",
          "name": "tokenSymbol",
          "type": "string"
        },
        {
          "internalType": "string",
          "name": "tokenName",
          "type": "string"
        },
        {
          "internalType": "string",
          "name": "sharesSymbol",
          "type": "string"
        },
        {
          "internalType": "string",
          "name": "sharesName",
          "type": "string"
        },
        {
          "internalType": "address",
          "name": "initialOperator",
          "type": "address"
        }
      ],
      "stateMutability": "nonpayable",
      "type": "constructor"
    },
    {
      "anonymous": false,
      "inputs": [
        {
          "indexed": true,
          "internalType": "address",
          "name": "_owner",
          "type": "address"
        },
        {
          "indexed": true,
          "internalType": "address",
          "name": "_spender",
          "type": "address"
        },
        {
          "indexed": false,
          "internalType": "uint256",
          "name": "_value",
          "type": "uint256"
        }
      ],
      "name": "Approval",
      "type": "event"
    },
    {
      "anonymous": false,
      "inputs": [
        {
          "indexed": true,
          "internalType": "bytes32",
          "name": "txHash",
          "type": "bytes32"
        },
        {
          "indexed": true,
          "internalType": "address",
          "name": "target",
          "type": "address"
        },
        {
          "indexed": false,
          "internalType": "uint256",
          "name": "value",
          "type": "uint256"
        },
        {
          "indexed": false,
          "internalType": "bytes",
          "name": "data",
          "type": "bytes"
        }
      ],
      "name": "CancelTransaction",
      "type": "event"
    },
    {
      "anonymous": false,
      "inputs": [
        {
          "indexed": true,
          "internalType": "bytes32",
          "name": "txHash",
          "type": "bytes32"
        },
        {
          "indexed": true,
          "internalType": "address",
          "name": "target",
          "type": "address"
        },
        {
          "indexed": false,
          "internalType": "uint256",
          "name": "value",
          "type": "uint256"
        },
        {
          "indexed": false,
          "internalType": "bytes",
          "name": "data",
          "type": "bytes"
        }
      ],
      "name": "ExecuteTransaction",
      "type": "event"
    },
    {
      "anonymous": false,
      "inputs": [
        {
          "indexed": true,
          "internalType": "bytes32",
          "name": "txHash",
          "type": "bytes32"
        },
        {
          "indexed": true,
          "internalType": "address",
          "name": "target",
          "type": "address"
        },
        {
          "indexed": false,
          "internalType": "uint256",
          "name": "value",
          "type": "uint256"
        },
        {
          "indexed": false,
          "internalType": "bytes",
          "name": "data",
          "type": "bytes"
        },
        {
          "indexed": false,
          "internalType": "uint256",
          "name": "eta",
          "type": "uint256"
        }
      ],
      "name": "QueueTransaction",
      "type": "event"
    },
    {
      "anonymous": false,
      "inputs": [
        {
          "indexed": true,
          "internalType": "address",
          "name": "_from",
          "type": "address"
        },
        {
          "indexed": true,
          "internalType": "address",
          "name": "_to",
          "type": "address"
        },
        {
          "indexed": false,
          "internalType": "uint256",
          "name": "_value",
          "type": "uint256"
        }
      ],
      "name": "Transfer",
      "type": "event"
    },
    {
      "inputs": [],
      "name": "DELAY",
      "outputs": [
        {
          "internalType": "uint256",
          "name": "",
          "type": "uint256"
        }
      ],
      "stateMutability": "view",
      "type": "function"
    },
    {
      "inputs": [],
      "name": "DOMAIN_SEPARATOR",
      "outputs": [
        {
          "internalType": "bytes32",
          "name": "",
          "type": "bytes32"
        }
      ],
      "stateMutability": "view",
      "type": "function"
    },
    {
      "inputs": [],
      "name": "GRACE_PERIOD",
      "outputs": [
        {
          "internalType": "uint256",
          "name": "",
          "type": "uint256"
        }
      ],
      "stateMutability": "view",
      "type": "function"
    },
    {
      "inputs": [
        {
          "internalType": "address",
          "name": "",
          "type": "address"
        },
        {
          "internalType": "address",
          "name": "",
          "type": "address"
        }
      ],
      "name": "allowance",
      "outputs": [
        {
          "internalType": "uint256",
          "name": "",
          "type": "uint256"
        }
      ],
      "stateMutability": "view",
      "type": "function"
    },
    {
      "inputs": [
        {
          "internalType": "address",
          "name": "spender",
          "type": "address"
        },
        {
          "internalType": "uint256",
          "name": "amount",
          "type": "uint256"
        }
      ],
      "name": "approve",
      "outputs": [
        {
          "internalType": "bool",
          "name": "",
          "type": "bool"
        }
      ],
      "stateMutability": "nonpayable",
      "type": "function"
    },
    {
      "inputs": [
        {
          "internalType": "address",
          "name": "user",
          "type": "address"
        }
      ],
      "name": "balanceOf",
      "outputs": [
        {
          "internalType": "uint256",
          "name": "balance",
          "type": "uint256"
        }
      ],
      "stateMutability": "view",
      "type": "function"
    },
    {
      "inputs": [
        {
          "internalType": "address",
          "name": "to",
          "type": "address"
        },
        {
          "internalType": "uint256",
          "name": "shares",
          "type": "uint256"
        }
      ],
      "name": "burn",
      "outputs": [
        {
          "internalType": "bool",
          "name": "",
          "type": "bool"
        }
      ],
      "stateMutability": "nonpayable",
      "type": "function"
    },
    {
      "inputs": [
        {
          "internalType": "address",
          "name": "from",
          "type": "address"
        },
        {
          "internalType": "address",
          "name": "to",
          "type": "address"
        },
        {
          "internalType": "uint256",
          "name": "shares",
          "type": "uint256"
        }
      ],
      "name": "burnFrom",
      "outputs": [
        {
          "internalType": "bool",
          "name": "",
          "type": "bool"
        }
      ],
      "stateMutability": "nonpayable",
      "type": "function"
    },
    {
      "inputs": [
        {
          "internalType": "address",
          "name": "target",
          "type": "address"
        },
        {
          "internalType": "uint256",
          "name": "value",
          "type": "uint256"
        },
        {
          "internalType": "bytes",
          "name": "data",
          "type": "bytes"
        }
      ],
      "name": "cancelTransaction",
      "outputs": [],
      "stateMutability": "nonpayable",
      "type": "function"
    },
    {
      "inputs": [],
      "name": "decimals",
      "outputs": [
        {
          "internalType": "uint8",
          "name": "",
          "type": "uint8"
        }
      ],
      "stateMutability": "view",
      "type": "function"
    },
    {
      "inputs": [
        {
          "internalType": "address",
          "name": "target",
          "type": "address"
        },
        {
          "internalType": "uint256",
          "name": "value",
          "type": "uint256"
        },
        {
          "internalType": "bytes",
          "name": "data",
          "type": "bytes"
        }
      ],
      "name": "executeTransaction",
      "outputs": [
        {
          "internalType": "bytes",
          "name": "",
          "type": "bytes"
        }
      ],
      "stateMutability": "payable",
      "type": "function"
    },
    {
      "inputs": [
        {
          "internalType": "uint256",
          "name": "amount",
          "type": "uint256"
        },
        {
          "internalType": "address",
          "name": "operatorVote",
          "type": "address"
        }
      ],
      "name": "mint",
      "outputs": [
        {
          "internalType": "bool",
          "name": "",
          "type": "bool"
        }
      ],
      "stateMutability": "nonpayable",
      "type": "function"
    },
    {
      "inputs": [],
      "name": "name",
      "outputs": [
        {
          "internalType": "string",
          "name": "",
          "type": "string"
        }
      ],
      "stateMutability": "view",
      "type": "function"
    },
    {
      "inputs": [
        {
          "internalType": "address",
          "name": "",
          "type": "address"
        }
      ],
      "name": "nonces",
      "outputs": [
        {
          "internalType": "uint256",
          "name": "",
          "type": "uint256"
        }
      ],
      "stateMutability": "view",
      "type": "function"
    },
    {
      "inputs": [],
      "name": "operator",
      "outputs": [
        {
          "internalType": "address",
          "name": "",
          "type": "address"
        }
      ],
      "stateMutability": "view",
      "type": "function"
    },
    {
      "inputs": [
        {
          "internalType": "address",
          "name": "owner_",
          "type": "address"
        },
        {
          "internalType": "address",
          "name": "spender",
          "type": "address"
        },
        {
          "internalType": "uint256",
          "name": "value",
          "type": "uint256"
        },
        {
          "internalType": "uint256",
          "name": "deadline",
          "type": "uint256"
        },
        {
          "internalType": "uint8",
          "name": "v",
          "type": "uint8"
        },
        {
          "internalType": "bytes32",
          "name": "r",
          "type": "bytes32"
        },
        {
          "internalType": "bytes32",
          "name": "s",
          "type": "bytes32"
        }
      ],
      "name": "permit",
      "outputs": [],
      "stateMutability": "nonpayable",
      "type": "function"
    },
    {
      "inputs": [
        {
          "internalType": "address",
          "name": "target",
          "type": "address"
        },
        {
          "internalType": "uint256",
          "name": "value",
          "type": "uint256"
        },
        {
          "internalType": "bytes",
          "name": "data",
          "type": "bytes"
        }
      ],
      "name": "queueTransaction",
      "outputs": [
        {
          "internalType": "bytes32",
          "name": "",
          "type": "bytes32"
        }
      ],
      "stateMutability": "nonpayable",
      "type": "function"
    },
    {
      "inputs": [
        {
          "internalType": "bytes32",
          "name": "",
          "type": "bytes32"
        }
      ],
      "name": "queuedTransactions",
      "outputs": [
        {
          "internalType": "uint256",
          "name": "",
          "type": "uint256"
        }
      ],
      "stateMutability": "view",
      "type": "function"
    },
    {
      "inputs": [
        {
          "internalType": "address",
          "name": "newOperator",
          "type": "address"
        }
      ],
      "name": "setOperator",
      "outputs": [],
      "stateMutability": "nonpayable",
      "type": "function"
    },
    {
      "inputs": [],
      "name": "symbol",
      "outputs": [
        {
          "internalType": "string",
          "name": "",
          "type": "string"
        }
      ],
      "stateMutability": "view",
      "type": "function"
    },
    {
      "inputs": [],
      "name": "token",
      "outputs": [
        {
          "internalType": "contract GoveranceToken",
          "name": "",
          "type": "address"
        }
      ],
      "stateMutability": "view",
      "type": "function"
    },
    {
      "inputs": [],
      "name": "totalSupply",
      "outputs": [
        {
          "internalType": "uint256",
          "name": "",
          "type": "uint256"
        }
      ],
      "stateMutability": "view",
      "type": "function"
    },
    {
      "inputs": [
        {
          "internalType": "address",
          "name": "to",
          "type": "address"
        },
        {
          "internalType": "uint256",
          "name": "shares",
          "type": "uint256"
        }
      ],
      "name": "transfer",
      "outputs": [
        {
          "internalType": "bool",
          "name": "",
          "type": "bool"
        }
      ],
      "stateMutability": "nonpayable",
      "type": "function"
    },
    {
      "inputs": [
        {
          "internalType": "address",
          "name": "from",
          "type": "address"
        },
        {
          "internalType": "address",
          "name": "to",
          "type": "address"
        },
        {
          "internalType": "uint256",
          "name": "shares",
          "type": "uint256"
        }
      ],
      "name": "transferFrom",
      "outputs": [
        {
          "internalType": "bool",
          "name": "",
          "type": "bool"
        }
      ],
      "stateMutability": "nonpayable",
      "type": "function"
    },
    {
      "inputs": [
        {
          "internalType": "address",
          "name": "",
          "type": "address"
        }
      ],
      "name": "users",
      "outputs": [
        {
          "internalType": "uint128",
          "name": "balance",
          "type": "uint128"
        },
        {
          "internalType": "uint128",
          "name": "lockedUntil",
          "type": "uint128"
        }
      ],
      "stateMutability": "view",
      "type": "function"
    }
  ],
  "transactionHash": "0xc33568497d11bc29b7e5cddcaecae588ac280aeb6971d2aaf373e3642ebb79ed",
  "args": [
    "GOO",
    "GoveranceToken",
    "DAO",
    "DAO",
    "0x959FD7Ef9089B7142B6B908Dc3A8af7Aa8ff0FA1"
  ],
  "solcInputHash": "634ff36a7a054db631410867677de67f",
  "bytecode": "0x60e06040523480156200001157600080fd5b50604051620061623803806200616283398101604081905262000034916200026e565b4660a08190526200004581620000ed565b60805250604051859085906200005b9062000143565b6200006892919062000392565b604051809103906000f08015801562000085573d6000803e3d6000fd5b5060601b6001600160601b03191660c0528251620000ab90600090602086019062000151565b508151620000c190600190602085019062000151565b50600380546001600160a01b0319166001600160a01b039290921691909117905550620003f792505050565b60007f47e79534a245952e8b16893a336b85a3d9ea9fa8c573f3d803afb92a794692188230604051602001620001269392919062000373565b604051602081830303815290604052805190602001209050919050565b613ef0806200227283390190565b828054600181600116156101000203166002900490600052602060002090601f016020900481019282601f106200019457805160ff1916838001178555620001c4565b82800160010185558215620001c4579182015b82811115620001c4578251825591602001919060010190620001a7565b50620001d2929150620001d6565b5090565b5b80821115620001d25760008155600101620001d7565b600082601f830112620001fe578081fd5b81516001600160401b038082111562000215578283fd5b604051601f8301601f19168101602001828111828210171562000236578485fd5b6040528281529250828483016020018610156200025257600080fd5b62000265836020830160208801620003c4565b50505092915050565b600080600080600060a0868803121562000286578081fd5b85516001600160401b03808211156200029d578283fd5b620002ab89838a01620001ed565b96506020880151915080821115620002c1578283fd5b620002cf89838a01620001ed565b95506040880151915080821115620002e5578283fd5b620002f389838a01620001ed565b9450606088015191508082111562000309578283fd5b506200031888828901620001ed565b608088015190935090506001600160a01b038116811462000337578182fd5b809150509295509295909350565b600081518084526200035f816020860160208601620003c4565b601f01601f19169290920160200192915050565b92835260208301919091526001600160a01b0316604082015260600190565b600060408252620003a7604083018562000345565b8281036020840152620003bb818562000345565b95945050505050565b60005b83811015620003e1578181015183820152602001620003c7565b83811115620003f1576000848401525b50505050565b60805160a05160c05160601c611e376200043b600039806109455280610a9b5280610fb9528061140252806115345250806112e45250806113195250611e376000f3fe6080604052600436106101665760003560e01c806394bf804d116100d1578063c1a287e21161008a578063e37c9fd511610064578063e37c9fd514610400578063ec60bcf314610420578063f2b0653714610440578063fc0c546a1461046057610166565b8063c1a287e2146103ab578063d505accf146103c0578063dd62ed3e146103e057610166565b806394bf804d146102e657806395d89b41146103065780639dc29fac1461031b578063a87430ba1461033b578063a9059cbb14610369578063b3ab15fb1461038957610166565b80633f579f42116101235780633f579f421461023c578063570ca7351461024f57806369b411701461027157806370a08231146102865780637ecebe00146102a657806380b3b099146102c657610166565b806306fdde031461016b578063095ea7b31461019657806318160ddd146101c357806323b872dd146101e5578063313ce567146102055780633644e51514610227575b600080fd5b34801561017757600080fd5b50610180610475565b60405161018d9190611abf565b60405180910390f35b3480156101a257600080fd5b506101b66101b1366004611803565b610502565b60405161018d9190611a3a565b3480156101cf57600080fd5b506101d861056d565b60405161018d9190611a45565b3480156101f157600080fd5b506101b6610200366004611750565b610573565b34801561021157600080fd5b5061021a610594565b60405161018d9190611d7b565b34801561023357600080fd5b506101d8610599565b61018061024a36600461182d565b6105a8565b34801561025b57600080fd5b50610264610783565b60405161018d91906119b9565b34801561027d57600080fd5b506101d8610792565b34801561029257600080fd5b506101d86102a13660046116fa565b610799565b3480156102b257600080fd5b506101d86102c13660046116fa565b6107bd565b3480156102d257600080fd5b506101d86102e136600461182d565b6107cf565b3480156102f257600080fd5b506101b6610301366004611927565b6108d5565b34801561031257600080fd5b50610180610b71565b34801561032757600080fd5b506101b6610336366004611803565b610bcc565b34801561034757600080fd5b5061035b6103563660046116fa565b610be2565b60405161018d929190611d17565b34801561037557600080fd5b506101b6610384366004611803565b610c08565b34801561039557600080fd5b506103a96103a43660046116fa565b610c15565b005b3480156103b757600080fd5b506101d8610d16565b3480156103cc57600080fd5b506103a96103db366004611790565b610d1d565b3480156103ec57600080fd5b506101d86103fb36600461171c565b610ebe565b34801561040c57600080fd5b506103a961041b36600461182d565b610edb565b34801561042c57600080fd5b506101b661043b366004611750565b610f8e565b34801561044c57600080fd5b506101d861045b3660046118f7565b610fa5565b34801561046c57600080fd5b50610264610fb7565b60018054604080516020600284861615610100026000190190941693909304601f810184900484028201840190925281815292918301828280156104fa5780601f106104cf576101008083540402835291602001916104fa565b820191906000526020600020905b8154815290600101906020018083116104dd57829003601f168201915b505050505081565b3360008181526007602090815260408083206001600160a01b038716808552925280832085905551919290917f8c5be1e5ebec7d5bd14f71427d1e84f3dd0314c0f7b2291e5b200ac8c7c3b9259061055b908690611a45565b60405180910390a35060015b92915050565b60025481565b600061057f8483610fdb565b61058a84848461106d565b5060019392505050565b601281565b60006105a36112df565b905090565b6003546060906001600160a01b031633146105de5760405162461bcd60e51b81526004016105d590611c61565b60405180910390fd5b600280546003546001600160a01b0316600090815260056020526040902054909190041161061e5760405162461bcd60e51b81526004016105d590611b01565b600084848460405160200161063593929190611a0a565b60408051601f1981840301815291815281516020928301206000818152600b9093529120549091504281111561067d5760405162461bcd60e51b81526004016105d590611c16565b6212750081014211156106a25760405162461bcd60e51b81526004016105d590611bbd565b6000828152600b6020526040808220829055516060906001600160a01b0389169088906106d0908990611976565b60006040518083038185875af1925050503d806000811461070d576040519150601f19603f3d011682016040523d82523d6000602084013e610712565b606091505b5091509150816107345760405162461bcd60e51b81526004016105d590611c39565b876001600160a01b0316847f71f2f703ef5605f99bb79556066217af28b9d991b829c9f4255e1abdf873fb4a8989604051610770929190611d31565b60405180910390a3979650505050505050565b6003546001600160a01b031681565b6202a30081565b6001600160a01b03166000908152600660205260409020546001600160801b031690565b60086020526000908152604090205481565b6003546000906001600160a01b031633146107fc5760405162461bcd60e51b81526004016105d590611c61565b600280546003546001600160a01b0316600090815260056020526040902054909190041161083c5760405162461bcd60e51b81526004016105d590611b01565b600084848460405160200161085393929190611a0a565b60408051601f1981840301815282825280516020918201206000818152600b909252919020426202a3000190819055909250906001600160a01b0387169083907f9ffdf0c63c8eec344b500e806ac1d1d37308fdf141a29d10cdd82c069aec6e48906108c490899089908790611d52565b60405180910390a350949350505050565b6000336108f45760405162461bcd60e51b81526004016105d590611b97565b6108fc6116cc565b503360009081526006602090815260408083208151808301835290546001600160801b038082168352600160801b9091041692810192909252516370a0823160e01b81529091907f00000000000000000000000000000000000000000000000000000000000000006001600160a01b0316906370a08231906109829030906004016119b9565b60206040518083038186803b15801561099a57600080fd5b505afa1580156109ae573d6000803e3d6000fd5b505050506040513d601f19601f820116820180604052508101906109d2919061190f565b905060006002546000146109f357816002548702816109ed57fe5b046109f5565b855b9050610a008161133f565b8351016001600160801b03168352610a1c42620151800161133f565b6001600160801b0390811660208086019182523360008181526006835260408082208951815496518816600160801b029088166001600160801b0319909716969096179096169490941790945560028054860190556001600160a01b03898116855260059092529282902080548501905590516323b872dd60e01b81527f0000000000000000000000000000000000000000000000000000000000000000909116916323b872dd91610ad5919030908b906004016119cd565b602060405180830381600087803b158015610aef57600080fd5b505af1158015610b03573d6000803e3d6000fd5b505050506040513d601f19601f82011682018060405250810190610b2791906118d7565b5060405133906000907fddf252ad1be2c89b69c2b068fc378daa952ba7f163c4a11628f55a4df523b3ef90610b5d908590611a45565b60405180910390a350600195945050505050565b6000805460408051602060026001851615610100026000190190941693909304601f810184900484028201840190925281815292918301828280156104fa5780601f106104cf576101008083540402835291602001916104fa565b6000610bd933848461136c565b50600192915050565b6006602052600090815260409020546001600160801b0380821691600160801b90041682565b6000610bd933848461106d565b6009546001600160a01b03828116911614610c9157600280546001600160a01b0383166000908152600560205260409020549091900411610c685760405162461bcd60e51b81526004016105d590611b01565b600980546001600160a01b0319166001600160a01b0383161790554262093a8001600a55610d13565b600280546001600160a01b038316600090815260056020526040902054909190041115610cfd57600a54421015610cda5760405162461bcd60e51b81526004016105d590611cf2565b600954600380546001600160a01b0319166001600160a01b039092169190911790555b600980546001600160a01b03191690556000600a555b50565b6212750081565b6001600160a01b038716610d435760405162461bcd60e51b81526004016105d590611cad565b834210610d625760405162461bcd60e51b81526004016105d590611cd1565b6001600160a01b0387166000818152600860209081526040918290208054600181810190925592519092610de092610dc5927f6e71edae12b1b97f4d1f60370fef10105fa2faae0126114a169c64845d6126c9928e928e928e92918e9101611a4e565b60405160208183030381529060405280519060200120611611565b85858560405160008152602001604052604051610e009493929190611aa1565b6020604051602081039080840390855afa158015610e22573d6000803e3d6000fd5b505050602060405103516001600160a01b031614610e525760405162461bcd60e51b81526004016105d590611c88565b6001600160a01b038088166000818152600760209081526040808320948b168084529490915290819020889055517f8c5be1e5ebec7d5bd14f71427d1e84f3dd0314c0f7b2291e5b200ac8c7c3b92590610ead908990611a45565b60405180910390a350505050505050565b600760209081526000928352604080842090915290825290205481565b6003546001600160a01b03163314610f055760405162461bcd60e51b81526004016105d590611c61565b6000838383604051602001610f1c93929190611a0a565b60408051601f1981840301815282825280516020918201206000818152600b9092529181205591506001600160a01b0385169082907f7666fc3824e27fff7f62adc190adf39d59915b1634803f46f6002f5a071de7f790610f809087908790611d31565b60405180910390a350505050565b6000610f9a8483610fdb565b61058a84848461136c565b600b6020526000908152604090205481565b7f000000000000000000000000000000000000000000000000000000000000000081565b336001600160a01b0383161415610ff157611069565b6001600160a01b03821660009081526007602090815260408083203384529091529020546000198114611067578181101561103e5760405162461bcd60e51b81526004016105d590611b4b565b6001600160a01b0383166000908152600760209081526040808320338452909152902082820390555b505b5050565b6110756116cc565b506001600160a01b0383166000908152600660209081526040918290208251808401909352546001600160801b038082168452600160801b909104169082018190524210156110d65760405162461bcd60e51b81526004016105d590611b2b565b811561129c5780516001600160801b03168211156111065760405162461bcd60e51b81526004016105d590611b72565b826001600160a01b0316846001600160a01b03161461129c576001600160a01b0383166111455760405162461bcd60e51b81526004016105d590611b97565b61114d6116cc565b506001600160a01b0380841660008181526006602090815260408083208151808301835290546001600160801b038082168352600160801b90910481168285015294845260049092528083205489861684529083205482519295918216949116929116158015906111c557506001600160a01b038316155b6111cf57816111d1565b825b90506111dc8661133f565b85516001600160a01b038a16600090815260066020526040902080546001600160801b031916929091036001600160801b031691909117905561121e8661133f565b93516001600160a01b03888116600081815260066020908152604080832080546001600160801b03191696909a016001600160801b03169590951790985594821685526005875282852080548a900390559216808452818420805489019055918352600490945292902080546001600160a01b031916909217909155505b826001600160a01b0316846001600160a01b03167fddf252ad1be2c89b69c2b068fc378daa952ba7f163c4a11628f55a4df523b3ef84604051610f809190611a45565b6000467f000000000000000000000000000000000000000000000000000000000000000081146113175761131281611666565b611339565b7f00000000000000000000000000000000000000000000000000000000000000005b91505090565b60006001600160801b038211156113685760405162461bcd60e51b81526004016105d590611bdf565b5090565b6001600160a01b0382166113925760405162461bcd60e51b81526004016105d590611b97565b61139a6116cc565b506001600160a01b0383166000908152600660209081526040918290208251808401909352546001600160801b038082168452600160801b909104169082018190524210156113fb5760405162461bcd60e51b81526004016105d590611b2b565b60006002547f00000000000000000000000000000000000000000000000000000000000000006001600160a01b03166370a08231306040518263ffffffff1660e01b815260040161144c91906119b9565b60206040518083038186803b15801561146457600080fd5b505afa158015611478573d6000803e3d6000fd5b505050506040513d601f19601f8201168201806040525081019061149c919061190f565b8402816114a557fe5b0490506114c56114b48461133f565b83516001600160801b03169061169d565b6001600160a01b03868116600090815260066020908152604080832080546001600160801b0319166001600160801b0396909616959095179094556002805488900390556004808252848320548416835260059091529083902080548790039055915163a9059cbb60e01b81527f00000000000000000000000000000000000000000000000000000000000000009091169163a9059cbb9161156b9188918691016119f1565b602060405180830381600087803b15801561158557600080fd5b505af1158015611599573d6000803e3d6000fd5b505050506040513d601f19601f820116820180604052508101906115bd91906118d7565b5060006001600160a01b0316856001600160a01b03167fddf252ad1be2c89b69c2b068fc378daa952ba7f163c4a11628f55a4df523b3ef856040516116029190611a45565b60405180910390a35050505050565b600060405180604001604052806002815260200161190160f01b8152506116366112df565b8360405160200161164993929190611992565b604051602081830303815290604052805190602001209050919050565b60007f47e79534a245952e8b16893a336b85a3d9ea9fa8c573f3d803afb92a79469218823060405160200161164993929190611a82565b8082036001600160801b0380841690821611156105675760405162461bcd60e51b81526004016105d590611ad2565b604080518082019091526000808252602082015290565b80356001600160a01b038116811461056757600080fd5b60006020828403121561170b578081fd5b61171583836116e3565b9392505050565b6000806040838503121561172e578081fd5b61173884846116e3565b915061174784602085016116e3565b90509250929050565b600080600060608486031215611764578081fd5b833561176f81611dec565b9250602084013561177f81611dec565b929592945050506040919091013590565b600080600080600080600060e0888a0312156117aa578283fd5b6117b489896116e3565b96506117c38960208a016116e3565b95506040880135945060608801359350608088013560ff811681146117e6578384fd5b9699959850939692959460a0840135945060c09093013592915050565b60008060408385031215611815578182fd5b61181f84846116e3565b946020939093013593505050565b600080600060608486031215611841578283fd5b833561184c81611dec565b925060208401359150604084013567ffffffffffffffff8082111561186f578283fd5b818601915086601f830112611882578283fd5b813581811115611890578384fd5b6118a3601f8201601f1916602001611d89565b91508082528760208285010111156118b9578384fd5b6118ca816020840160208601611db0565b5080925050509250925092565b6000602082840312156118e8578081fd5b81518015158114611715578182fd5b600060208284031215611908578081fd5b5035919050565b600060208284031215611920578081fd5b5051919050565b60008060408385031215611939578182fd5b8235915061174784602085016116e3565b60008151808452611962816020860160208601611dbc565b601f01601f19169290920160200192915050565b60008251611988818460208701611dbc565b9190910192915050565b600084516119a4818460208901611dbc565b91909101928352506020820152604001919050565b6001600160a01b0391909116815260200190565b6001600160a01b039384168152919092166020820152604081019190915260600190565b6001600160a01b03929092168252602082015260400190565b600060018060a01b038516825283602083015260606040830152611a31606083018461194a565b95945050505050565b901515815260200190565b90815260200190565b9586526001600160a01b0394851660208701529290931660408501526060840152608083019190915260a082015260c00190565b92835260208301919091526001600160a01b0316604082015260600190565b93845260ff9290921660208401526040830152606082015260800190565b600060208252611715602083018461194a565b602080825260159082015274426f72696e674d6174683a20556e646572666c6f7760581b604082015260600190565b60208082526010908201526f4e6f7420656e6f75676820766f74657360801b604082015260600190565b602080825260069082015265131bd8dad95960d21b604082015260600190565b6020808252600d908201526c4c6f7720616c6c6f77616e636560981b604082015260600190565b6020808252600b908201526a4c6f772062616c616e636560a81b604082015260600190565b6020808252600c908201526b5a65726f206164647265737360a01b604082015260600190565b6020808252600890820152675478207374616c6560c01b604082015260600190565b6020808252601c908201527f426f72696e674d6174683a2075696e74313238204f766572666c6f7700000000604082015260600190565b602080825260099082015268546f6f206561726c7960b81b604082015260600190565b6020808252600e908201526d0a8f040e4caeccae4e8cac84074560931b604082015260600190565b6020808252600d908201526c4f70657261746f72206f6e6c7960981b604082015260600190565b6020808252600b908201526a496e76616c69642053696760a81b604082015260600190565b6020808252600a90820152692d32b9379037bbb732b960b11b604082015260600190565b602080825260079082015266115e1c1a5c995960ca1b604082015260600190565b6020808252600b908201526a2bb0b4ba103637b733b2b960a91b604082015260600190565b6001600160801b0392831681529116602082015260400190565b600083825260406020830152611d4a604083018461194a565b949350505050565b600084825260606020830152611d6b606083018561194a565b9050826040830152949350505050565b60ff91909116815260200190565b60405181810167ffffffffffffffff81118282101715611da857600080fd5b604052919050565b82818337506000910152565b60005b83811015611dd7578181015183820152602001611dbf565b83811115611de6576000848401525b50505050565b6001600160a01b0381168114610d1357600080fdfea26469706673582212202c99ec7aa1fd5517e394e3a4e59b60a47b1df82262b3148f5676da1251044a8264736f6c634300060c00336101006040523480156200001257600080fd5b5060405162003ef038038062003ef0833981016040819052620000359162000279565b4660a08190526200004681620000e0565b6080525081516200005f90600390602085019062000136565b5080516200007590600490602084019062000136565b503360601b60c0524260e052306000818152602081905260408082206a52b7d2dcc80cd2e40000009081905590517fddf252ad1be2c89b69c2b068fc378daa952ba7f163c4a11628f55a4df523b3ef91620000d091620002ff565b60405180910390a3505062000308565b60007f47e79534a245952e8b16893a336b85a3d9ea9fa8c573f3d803afb92a7946921882306040516020016200011993929190620002e0565b604051602081830303815290604052805190602001209050919050565b828054600181600116156101000203166002900490600052602060002090601f016020900481019282601f106200017957805160ff1916838001178555620001a9565b82800160010185558215620001a9579182015b82811115620001a95782518255916020019190600101906200018c565b50620001b7929150620001bb565b5090565b5b80821115620001b75760008155600101620001bc565b600082601f830112620001e3578081fd5b81516001600160401b0380821115620001fa578283fd5b6040516020601f8401601f19168201810183811183821017156200021c578586fd5b806040525081945083825286818588010111156200023957600080fd5b600092505b838310156200025d57858301810151828401820152918201916200023e565b838311156200026f5760008185840101525b5050505092915050565b600080604083850312156200028c578182fd5b82516001600160401b0380821115620002a3578384fd5b620002b186838701620001d2565b93506020850151915080821115620002c7578283fd5b50620002d685828601620001d2565b9150509250929050565b92835260208301919091526001600160a01b0316604082015260600190565b90815260200190565b60805160a05160c05160601c60e051613b8c6200036460003980610ca152806117c25280611b2952806123e9525080610d505280610fe452806114a85280611c46528061252f525080612b55525080612b8a5250613b8c6000f3fe6080604052600436106102675760003560e01c806370a0823111610144578063b763e7c4116100b6578063da3e24f91161007a578063da3e24f914610713578063dd62ed3e14610728578063df7d8a6f14610748578063e4bdaa6114610768578063f624d2c51461077b578063ffcd42631461079b57610267565b8063b763e7c414610680578063c346253d146106a0578063d1abb907146106c0578063d2423b51146106e0578063d505accf146106f357610267565b8063899519be11610108578063899519be146105c85780638dbdbe6d146105e857806393f1a40b1461060857806395d89b4114610636578063a035b1fe1461064b578063a9059cbb1461066057610267565b806370a082311461053e57806378e979251461055e5780637c516e94146105735780637cd07e47146105935780637ecebe00146105a857610267565b80632234be60116101dd5780633644e515116101a15780633644e5151461047a5780633c634f421461048f5780634162169f146104af57806351eb05a6146104d157806357a5b58c146104fe5780636e7d40191461051e57610267565b80632234be60146103d857806323b872dd146103f857806323cf3118146104185780632f940c7014610438578063313ce5671461045857610267565b80631526fe271161022f5780631526fe271461032a57806315c11e841461035957806317caf6f11461037957806318160ddd1461038e57806318fccc76146103a35780631a1cb01f146103c357610267565b806306575c891461026c57806306fdde0314610297578063081e3eda146102b9578063095ea7b3146102db5780630ad58d2f14610308575b600080fd5b34801561027857600080fd5b506102816107bb565b60405161028e91906139fc565b60405180910390f35b3480156102a357600080fd5b506102ac6107c5565b60405161028e91906134e4565b3480156102c557600080fd5b506102ce610853565b60405161028e919061346a565b3480156102e757600080fd5b506102fb6102f6366004613049565b610859565b60405161028e919061345f565b34801561031457600080fd5b50610328610323366004613301565b6108c4565b005b34801561033657600080fd5b5061034a610345366004613277565b610a54565b60405161028e939291906139d2565b34801561036557600080fd5b506102ce610374366004613016565b610a96565b34801561038557600080fd5b506102ce610ab3565b34801561039a57600080fd5b506102ce610ab9565b3480156103af57600080fd5b506103286103be3660046132a7565b610ac8565b3480156103cf57600080fd5b506102ce610c99565b3480156103e457600080fd5b506102fb6103f3366004612ef8565b610d4c565b34801561040457600080fd5b506102fb610413366004612f68565b610e7a565b34801561042457600080fd5b50610328610433366004612ef8565b610fe2565b34801561044457600080fd5b506103286104533660046132a7565b6110c5565b34801561046457600080fd5b5061046d6111e6565b60405161028e9190613a82565b34801561048657600080fd5b506102ce6111eb565b34801561049b57600080fd5b506103286104aa366004613277565b6111fa565b3480156104bb57600080fd5b506104c46114a6565b60405161028e91906133cd565b3480156104dd57600080fd5b506104f16104ec366004613277565b6114ca565b60405161028e9190613999565b34801561050a57600080fd5b506103286105193660046130c8565b611751565b34801561052a57600080fd5b506104c4610539366004613277565b611787565b34801561054a57600080fd5b506102ce610559366004612ef8565b6117ae565b34801561056a57600080fd5b506102ce6117c0565b34801561057f57600080fd5b5061032861058e366004613123565b6117e4565b34801561059f57600080fd5b506104c4611858565b3480156105b457600080fd5b506102ce6105c3366004612ef8565b611867565b3480156105d457600080fd5b506102ce6105e3366004613277565b611879565b3480156105f457600080fd5b50610328610603366004613301565b611905565b34801561061457600080fd5b506106286106233660046132a7565b611a90565b60405161028e929190613a4a565b34801561064257600080fd5b506102ac611ab4565b34801561065757600080fd5b506102ce611b0f565b34801561066c57600080fd5b506102fb61067b366004613049565b611b64565b34801561068c57600080fd5b5061032861069b36600461332e565b611c44565b3480156106ac57600080fd5b506104c46106bb366004613277565b611e48565b3480156106cc57600080fd5b506103286106db366004613301565b611e55565b6103286106ee366004613074565b6120be565b3480156106ff57600080fd5b5061032861070e366004612fa8565b61217b565b34801561071f57600080fd5b5061032861230b565b34801561073457600080fd5b506102ce610743366004612f30565b61238a565b34801561075457600080fd5b506102ce61076336600461323e565b6123a7565b6102ce61077636600461325a565b6123b9565b34801561078757600080fd5b506103286107963660046132cb565b61252d565b3480156107a757600080fd5b506102ce6107b63660046132a7565b61279d565b60055461ffff1681565b6004805460408051602060026001851615610100026000190190941693909304601f8101849004840282018401909252818152929183018282801561084b5780601f106108205761010080835404028352916020019161084b565b820191906000526020600020905b81548152906001019060200180831161082e57829003601f168201915b505050505081565b60085490565b3360008181526001602090815260408083206001600160a01b038716808552925280832085905551919290917f8c5be1e5ebec7d5bd14f71427d1e84f3dd0314c0f7b2291e5b200ac8c7c3b925906108b290869061346a565b60405180910390a35060015b92915050565b6108cc612e7f565b6108d5846114ca565b6000858152600b6020908152604080832033845290915290208151919250906109279064e8d4a51000906109139087906001600160801b031661298d565b8161091a57fe5b60018401549190046129c4565b600182015580546109389085612a11565b8155600a8054600091908790811061094c57fe5b6000918252602090912001546001600160a01b0316905080156109d257815460405163294d0beb60e11b81526001600160a01b0383169163529a17d69161099f918a9133918a9160009190600401613a0b565b600060405180830381600087803b1580156109b957600080fd5b505af11580156109cd573d6000803e3d6000fd5b505050505b610a008486600989815481106109e457fe5b6000918252602090912001546001600160a01b03169190612a34565b836001600160a01b031686336001600160a01b03167f8166bf25f8a2b7ed3c85049207da4358d16edbed977d23fa2ee6f0dde3ec213288604051610a44919061346a565b60405180910390a4505050505050565b60088181548110610a6157fe5b6000918252602090912001546001600160801b03811691506001600160401b03600160801b8204811691600160c01b90041683565b600760209081526000928352604080842090915290825290205481565b600c5481565b6a52b7d2dcc80cd2e400000081565b610ad0612e7f565b610ad9836114ca565b6000848152600b60209081526040808320338452909152812082518154939450909264e8d4a5100091610b1591906001600160801b031661298d565b81610b1c57fe5b0490506000610b40610b3b8460010154846129c490919063ffffffff16565b612b2a565b6001840183905590508015610bba5730600090815260208190526040902054610b699082612a11565b30600081815260208190526040808220939093556001600160a01b038816808252908390208054800190559151600080516020613b3783398151915290610bb190859061346a565b60405180910390a35b6000600a8781548110610bc957fe5b6000918252602090912001546001600160a01b031690508015610c4e57835460405163294d0beb60e11b81526001600160a01b0383169163529a17d691610c1b918b9133918c91899190600401613a0b565b600060405180830381600087803b158015610c3557600080fd5b505af1158015610c49573d6000803e3d6000fd5b505050505b86336001600160a01b03167f71bab65ced2e5750775a0613be067df48ef06cf92a496ebf7663ae066092495484604051610c88919061346a565b60405180910390a350505050505050565b600062093a807f000000000000000000000000000000000000000000000000000000000000000042030460028110610d385760328110610d285760648110610d105760968110610d015760c88110610cf2576000610cfc565b673d004ee93eb500005b610d0b565b675b80765dde0f80005b610d1a565b679880c5471cc480005b6001600160401b0316610d33565b680131018a8e398900005b610d3b565b60005b68ffffffffffffffffff1691505090565b60007f00000000000000000000000000000000000000000000000000000000000000006001600160a01b031663570ca7356040518163ffffffff1660e01b815260040160206040518083038186803b158015610da757600080fd5b505afa158015610dbb573d6000803e3d6000fd5b505050506040513d601f19601f82011682018060405250810190610ddf9190612f14565b6001600160a01b0316336001600160a01b031614610e185760405162461bcd60e51b8152600401610e0f9061393c565b60405180910390fd5b816001600160a01b031647604051610e2f906133ca565b60006040518083038185875af1925050503d8060008114610e6c576040519150601f19603f3d011682016040523d82523d6000602084013e610e71565b606091505b50909392505050565b60008115610f9f576001600160a01b03841660009081526020819052604090205482811015610ebb5760405162461bcd60e51b8152600401610e0f90613879565b836001600160a01b0316856001600160a01b031614610f9d576001600160a01b03851660009081526001602090815260408083203384529091529020546000198114610f4a5783811015610f215760405162461bcd60e51b8152600401610e0f9061370b565b6001600160a01b0386166000908152600160209081526040808320338452909152902084820390555b6001600160a01b038516610f705760405162461bcd60e51b8152600401610e0f9061360d565b506001600160a01b0380861660009081526020819052604080822086850390559186168152208054840190555b505b826001600160a01b0316846001600160a01b0316600080516020613b3783398151915284604051610fd0919061346a565b60405180910390a35060019392505050565b7f00000000000000000000000000000000000000000000000000000000000000006001600160a01b031663570ca7356040518163ffffffff1660e01b815260040160206040518083038186803b15801561103b57600080fd5b505afa15801561104f573d6000803e3d6000fd5b505050506040513d601f19601f820116820180604052508101906110739190612f14565b6001600160a01b0316336001600160a01b0316146110a35760405162461bcd60e51b8152600401610e0f9061393c565b600d80546001600160a01b0319166001600160a01b0392909216919091179055565b6000828152600b602090815260408083203384529091528120805482825560018201839055600a805492939192869081106110fc57fe5b6000918252602090912001546001600160a01b0316905080156111815760405163294d0beb60e11b81526001600160a01b0382169063529a17d69061114e908890339089906000908190600401613a0b565b600060405180830381600087803b15801561116857600080fd5b505af115801561117c573d6000803e3d6000fd5b505050505b6111938483600988815481106109e457fe5b836001600160a01b031685336001600160a01b03167f2cac5e20e1541d836381527a43f651851e302817b71dc8e810284e69210c1c6b856040516111d7919061346a565b60405180910390a45050505050565b601281565b60006111f5612b50565b905090565b600d546001600160a01b03166112225760405162461bcd60e51b8152600401610e0f906138a9565b60006009828154811061123157fe5b60009182526020822001546040516370a0823160e01b81526001600160a01b03909116925082906370a082319061126c9030906004016133cd565b60206040518083038186803b15801561128457600080fd5b505afa158015611298573d6000803e3d6000fd5b505050506040513d601f19601f820116820180604052508101906112bc919061328f565b600d5460405163095ea7b360e01b81529192506001600160a01b038085169263095ea7b3926112f19216908590600401613446565b602060405180830381600087803b15801561130b57600080fd5b505af115801561131f573d6000803e3d6000fd5b505050506040513d601f19601f820116820180604052508101906113439190613107565b50600d5460405163ce5494bb60e01b81526000916001600160a01b03169063ce5494bb906113759086906004016133cd565b602060405180830381600087803b15801561138f57600080fd5b505af11580156113a3573d6000803e3d6000fd5b505050506040513d601f19601f820116820180604052508101906113c79190612f14565b6040516370a0823160e01b81529091506001600160a01b038216906370a08231906113f69030906004016133cd565b60206040518083038186803b15801561140e57600080fd5b505afa158015611422573d6000803e3d6000fd5b505050506040513d601f19601f82011682018060405250810190611446919061328f565b82146114645760405162461bcd60e51b8152600401610e0f906138ce565b806009858154811061147257fe5b9060005260206000200160006101000a8154816001600160a01b0302191690836001600160a01b0316021790555050505050565b7f000000000000000000000000000000000000000000000000000000000000000081565b6114d2612e7f565b600882815481106114df57fe5b60009182526020918290206040805160608101825292909101546001600160801b03811683526001600160401b03600160801b82048116948401859052600160c01b9091041690820152915043111561174c5760006009838154811061154157fe5b6000918252602090912001546040516370a0823160e01b81526001600160a01b03909116906370a082319061157a9030906004016133cd565b60206040518083038186803b15801561159257600080fd5b505afa1580156115a6573d6000803e3d6000fd5b505050506040513d601f19601f820116820180604052508101906115ca919061328f565b905080156116705760006115f483602001516001600160401b031643612a1190919063ffffffff16565b90506000600c5461162485604001516001600160401b031661161e611617610c99565b869061298d565b9061298d565b8161162b57fe5b049050611662611651846116448464e8d4a5100061298d565b8161164b57fe5b04612bb0565b85516001600160801b031690612bd9565b6001600160801b0316845250505b61167943612c08565b6001600160401b03166020830152600880548391908590811061169857fe5b6000918252602091829020835191018054848401516040958601516001600160801b03199092166001600160801b039094169390931767ffffffffffffffff60801b1916600160801b6001600160401b0394851602176001600160c01b0316600160c01b93909116929092029190911790558301518351915185927f0fc9545022a542541ad085d091fb09a2ab36fee366a4576ab63714ea907ad353926117429290918691613a58565b60405180910390a2505b919050565b8060005b818110156117815761177884848381811061176c57fe5b905060200201356114ca565b50600101611755565b50505050565b6009818154811061179457fe5b6000918252602090912001546001600160a01b0316905081565b60006020819052908152604090205481565b7f000000000000000000000000000000000000000000000000000000000000000081565b60405163d505accf60e01b81526001600160a01b0389169063d505accf9061181c908a908a908a908a908a908a908a90600401613405565b600060405180830381600087803b15801561183657600080fd5b505af115801561184a573d6000803e3d6000fd5b505050505050505050505050565b600d546001600160a01b031681565b60026020526000908152604090205481565b6000600282106118ee57603282106118dd57606482106118cc57609682106118bb5760c882106118aa5760006118b6565b69043c33c19375648000005b6118c7565b69065a4da25d3016c000005b6118d8565b690a968163f0a57b4000005b6118e9565b69152d02c7e14af68000005b6118f3565b620f42405b69ffffffffffffffffffff1692915050565b61190d612e7f565b611916846114ca565b6000858152600b602090815260408083206001600160a01b038716845290915290208054919250906119489085612c31565b8155815161197f9064e8d4a510009061196b9087906001600160801b031661298d565b8161197257fe5b6001840154919004612c54565b81600101819055506000600a868154811061199657fe5b6000918252602090912001546001600160a01b031690508015611a1c57815460405163294d0beb60e11b81526001600160a01b0383169163529a17d6916119e9918a918991829160009190600401613a0b565b600060405180830381600087803b158015611a0357600080fd5b505af1158015611a17573d6000803e3d6000fd5b505050505b611a4c33308760098a81548110611a2f57fe5b6000918252602090912001546001600160a01b0316929190612c9a565b836001600160a01b031686336001600160a01b03167f02d7e648dd130fc184d383e55bb126ac4c9c60e8f94bf05acdf557ba2d540b4788604051610a44919061346a565b600b6020908152600092835260408084209091529082529020805460019091015482565b6003805460408051602060026001851615610100026000190190941693909304601f8101849004840282018401909252818152929183018282801561084b5780601f106108205761010080835404028352916020019161084b565b6005546000904261ffff91821660010190911662093a80027f000000000000000000000000000000000000000000000000000000000000000001036008810a6b204fce5e3e2502611000000081049250505090565b600081151580611b7c5750336001600160a01b038416145b15611c13573360009081526020819052604090205482811015611bb15760405162461bcd60e51b8152600401610e0f90613879565b336001600160a01b03851614611c11576001600160a01b038416611be75760405162461bcd60e51b8152600401610e0f9061360d565b3360009081526020819052604080822085840390556001600160a01b038616825290208054840190555b505b826001600160a01b0316336001600160a01b0316600080516020613b37833981519152846040516108b2919061346a565b7f00000000000000000000000000000000000000000000000000000000000000006001600160a01b031663570ca7356040518163ffffffff1660e01b815260040160206040518083038186803b158015611c9d57600080fd5b505afa158015611cb1573d6000803e3d6000fd5b505050506040513d601f19601f82011682018060405250810190611cd59190612f14565b6001600160a01b0316336001600160a01b031614611d055760405162461bcd60e51b8152600401610e0f9061393c565b611d4483611d3e60088781548110611d1957fe5b600091825260209091200154600c5490600160c01b90046001600160401b0316612a11565b90612c31565b600c55611d5083612c08565b60088581548110611d5d57fe5b9060005260206000200160000160186101000a8154816001600160401b0302191690836001600160401b031602179055508015611dd15781600a8581548110611da257fe5b9060005260206000200160006101000a8154816001600160a01b0302191690836001600160a01b031602179055505b80611dfd57600a8481548110611de357fe5b6000918252602090912001546001600160a01b0316611dff565b815b6001600160a01b0316847f95895a6ab1df54420d241b55243258a33e61b2194db66c1179ec521aae8e18658584604051611e3a929190613a3a565b60405180910390a350505050565b600a818154811061179457fe5b611e5d612e7f565b611e66846114ca565b6000858152600b60209081526040808320338452909152812082518154939450909264e8d4a5100091611ea291906001600160801b031661298d565b81611ea957fe5b0490506000611ec8610b3b8460010154846129c490919063ffffffff16565b9050611f0364e8d4a51000611ef386600001516001600160801b03168961298d90919063ffffffff16565b81611efa57fe5b849190046129c4565b60018401558254611f149087612a11565b835530600090815260208190526040902054611f309082612a11565b30600081815260208190526040808220939093556001600160a01b038816808252908390208054800190559151600080516020613b3783398151915290611f7890859061346a565b60405180910390a36000600a8881548110611f8f57fe5b6000918252602090912001546001600160a01b03169050801561201457835460405163294d0beb60e11b81526001600160a01b0383169163529a17d691611fe1918c9133918c91899190600401613a0b565b600060405180830381600087803b158015611ffb57600080fd5b505af115801561200f573d6000803e3d6000fd5b505050505b612026868860098b815481106109e457fe5b856001600160a01b031688336001600160a01b03167f8166bf25f8a2b7ed3c85049207da4358d16edbed977d23fa2ee6f0dde3ec21328a60405161206a919061346a565b60405180910390a487336001600160a01b03167f71bab65ced2e5750775a0613be067df48ef06cf92a496ebf7663ae0660924954846040516120ac919061346a565b60405180910390a35050505050505050565b60005b828110156117815760006060308686858181106120da57fe5b90506020028101906120ec9190613a90565b6040516120fa929190613377565b600060405180830381855af49150503d8060008114612135576040519150601f19603f3d011682016040523d82523d6000602084013e61213a565b606091505b50915091508115801561214a5750835b156121715761215881612d93565b60405162461bcd60e51b8152600401610e0f91906134e4565b50506001016120c1565b6001600160a01b0387166121a15760405162461bcd60e51b8152600401610e0f906137c9565b8342106121c05760405162461bcd60e51b8152600401610e0f90613742565b6001600160a01b038716600081815260026020908152604091829020805460018181019092559251909261223e92612223927f6e71edae12b1b97f4d1f60370fef10105fa2faae0126114a169c64845d6126c9928e928e928e92918e9101613473565b60405160208183030381529060405280519060200120612df3565b8585856040516000815260200160405260405161225e94939291906134c6565b6020604051602081039080840390855afa158015612280573d6000803e3d6000fd5b505050602060405103516001600160a01b0316146122b05760405162461bcd60e51b8152600401610e0f90613962565b6001600160a01b038088166000818152600160209081526040808320948b168084529490915290819020889055517f8c5be1e5ebec7d5bd14f71427d1e84f3dd0314c0f7b2291e5b200ac8c7c3b92590610c8890899061346a565b60055461231b9061ffff16611879565b612323611b0f565b60055461ffff1660009081526006602052604090205461234b90670de0b6b3a764000061298d565b8161235257fe5b04116123705760405162461bcd60e51b8152600401610e0f906137a1565b6005805461ffff8082166001011661ffff19909116179055565b600160209081526000928352604080842090915290825290205481565b60066020526000908152604090205481565b60055460009061ffff8481169116146123e45760405162461bcd60e51b8152600401610e0f906135e9565b6005547f000000000000000000000000000000000000000000000000000000000000000061ffff90911662093a800201428111156124345760405162461bcd60e51b8152600401610e0f906135c4565b62093a80810142106124585760405162461bcd60e51b8152600401610e0f9061367e565b60055442829003906000906124709061ffff16611879565b9050600061247c611b0f565b9050600062093a80843401106124935760006124a8565b62127500348562093a800302816124a657fe5b045b6001600160a01b038816600090815260076020908152604080832061ffff8d1684528252808320805485019055600690915290208054820190819055909150839083906124fd90670de0b6b3a764000061298d565b8161250457fe5b04106125225760405162461bcd60e51b8152600401610e0f9061356b565b505050505092915050565b7f00000000000000000000000000000000000000000000000000000000000000006001600160a01b031663570ca7356040518163ffffffff1660e01b815260040160206040518083038186803b15801561258657600080fd5b505afa15801561259a573d6000803e3d6000fd5b505050506040513d601f19601f820116820180604052508101906125be9190612f14565b6001600160a01b0316336001600160a01b0316146125ee5760405162461bcd60e51b8152600401610e0f9061393c565b600c5443906125fd9085612c31565b600c556009805460018181019092557f6e1540171b6c0c960b71a7020d9f60077f6af931a8bbf590da0223dacf75c7af0180546001600160a01b038087166001600160a01b031992831617909255600a8054938401815560009081527fc65a7bb8d6351c1cf70c95a316cc6a92839c986682d98bc35f958f4883f9d2a89093018054928616929091169190911790556040805160608101909152908152600890602081016126aa84612c08565b6001600160401b031681526020016126c187612c08565b6001600160401b039081169091528254600181810185556000948552602094859020845192018054958501516040909501518416600160c01b026001600160c01b0395909416600160801b0267ffffffffffffffff60801b196001600160801b039094166001600160801b0319909716969096179290921694909417929092161790556009546001600160a01b03808516929086169161276091612a11565b7f81ee0f8c5c46e2cb41984886f77a84181724abb86c32a5f6de539b07509d45e58760405161278f919061346a565b60405180910390a450505050565b60006127a7612e7f565b600884815481106127b457fe5b600091825260208083206040805160608101825291909301546001600160801b0380821683526001600160401b03600160801b8304811684860152600160c01b90920490911682850152888552600b83528385206001600160a01b038916865290925291832082516009805494965091949216928890811061283257fe5b6000918252602090912001546040516370a0823160e01b81526001600160a01b03909116906370a082319061286b9030906004016133cd565b60206040518083038186803b15801561288357600080fd5b505afa158015612897573d6000803e3d6000fd5b505050506040513d601f19601f820116820180604052508101906128bb919061328f565b905083602001516001600160401b0316431180156128d857508015155b156129545760006128ff85602001516001600160401b031643612a1190919063ffffffff16565b90506000600c5461292287604001516001600160401b031661161e611617610c99565b8161292957fe5b04905061294f8361293f8364e8d4a5100061298d565b8161294657fe5b86919004612c31565b935050505b6001830154835461298291610b3b9164e8d4a5100090612974908761298d565b8161297b57fe5b04906129c4565b979650505050505050565b60008115806129a8575050808202828282816129a557fe5b04145b6108be5760405162461bcd60e51b8152600401610e0f90613905565b60008183038183128015906129d95750838113155b806129ee57506000831280156129ee57508381135b612a0a5760405162461bcd60e51b8152600401610e0f90613800565b9392505050565b808203828111156108be5760405162461bcd60e51b8152600401610e0f90613517565b60006060846001600160a01b031663a9059cbb60e01b8585604051602401612a5d929190613446565b60408051601f198184030181529181526020820180516001600160e01b03166001600160e01b0319909416939093179092529051612a9b9190613387565b6000604051808303816000865af19150503d8060008114612ad8576040519150601f19603f3d011682016040523d82523d6000602084013e612add565b606091505b5091509150818015612b07575080511580612b07575080806020019051810190612b079190613107565b612b235760405162461bcd60e51b8152600401610e0f9061358d565b5050505050565b600080821215612b4c5760405162461bcd60e51b8152600401610e0f90613546565b5090565b6000467f00000000000000000000000000000000000000000000000000000000000000008114612b8857612b8381612e48565b612baa565b7f00000000000000000000000000000000000000000000000000000000000000005b91505090565b60006001600160801b03821115612b4c5760405162461bcd60e51b8152600401610e0f9061369d565b8181016001600160801b0380831690821610156108be5760405162461bcd60e51b8152600401610e0f906136d4565b60006001600160401b03821115612b4c5760405162461bcd60e51b8152600401610e0f9061376a565b818101818110156108be5760405162461bcd60e51b8152600401610e0f906136d4565b6000828201818312801590612c695750838112155b80612c7e5750600083128015612c7e57508381125b612a0a5760405162461bcd60e51b8152600401610e0f9061363d565b60006060856001600160a01b03166323b872dd60e01b868686604051602401612cc5939291906133e1565b60408051601f198184030181529181526020820180516001600160e01b03166001600160e01b0319909416939093179092529051612d039190613387565b6000604051808303816000865af19150503d8060008114612d40576040519150601f19603f3d011682016040523d82523d6000602084013e612d45565b606091505b5091509150818015612d6f575080511580612d6f575080806020019051810190612d6f9190613107565b612d8b5760405162461bcd60e51b8152600401610e0f90613844565b505050505050565b6060604482511015612dd9575060408051808201909152601d81527f5472616e73616374696f6e2072657665727465642073696c656e746c79000000602082015261174c565b600482019150818060200190518101906108be91906131a4565b600060405180604001604052806002815260200161190160f01b815250612e18612b50565b83604051602001612e2b939291906133a3565b604051602081830303815290604052805190602001209050919050565b60007f47e79534a245952e8b16893a336b85a3d9ea9fa8c573f3d803afb92a794692188230604051602001612e2b939291906134a7565b604080516060810182526000808252602082018190529181019190915290565b60008083601f840112612eb0578182fd5b5081356001600160401b03811115612ec6578182fd5b6020830191508360208083028501011115612ee057600080fd5b9250929050565b803560ff811681146108be57600080fd5b600060208284031215612f09578081fd5b8135612a0a81613b00565b600060208284031215612f25578081fd5b8151612a0a81613b00565b60008060408385031215612f42578081fd5b8235612f4d81613b00565b91506020830135612f5d81613b00565b809150509250929050565b600080600060608486031215612f7c578081fd5b8335612f8781613b00565b92506020840135612f9781613b00565b929592945050506040919091013590565b600080600080600080600060e0888a031215612fc2578283fd5b8735612fcd81613b00565b96506020880135612fdd81613b00565b95506040880135945060608801359350612ffa8960808a01612ee7565b925060a0880135915060c0880135905092959891949750929550565b60008060408385031215613028578182fd5b823561303381613b00565b9150602083013561ffff81168114612f5d578182fd5b6000806040838503121561305b578182fd5b823561306681613b00565b946020939093013593505050565b600080600060408486031215613088578283fd5b83356001600160401b0381111561309d578384fd5b6130a986828701612e9f565b90945092505060208401356130bd81613b18565b809150509250925092565b600080602083850312156130da578182fd5b82356001600160401b038111156130ef578283fd5b6130fb85828601612e9f565b90969095509350505050565b600060208284031215613118578081fd5b8151612a0a81613b18565b600080600080600080600080610100898b03121561313f578182fd5b883561314a81613b00565b9750602089013561315a81613b00565b9650604089013561316a81613b00565b955060608901359450608089013593506131878a60a08b01612ee7565b925060c0890135915060e089013590509295985092959890939650565b6000602082840312156131b5578081fd5b81516001600160401b03808211156131cb578283fd5b818401915084601f8301126131de578283fd5b8151818111156131ec578384fd5b604051601f8201601f19168101602001838111828210171561320c578586fd5b604052818152838201602001871015613223578485fd5b613234826020830160208701613ad4565b9695505050505050565b60006020828403121561324f578081fd5b8135612a0a81613b26565b6000806040838503121561326c578182fd5b8235612f4d81613b26565b600060208284031215613288578081fd5b5035919050565b6000602082840312156132a0578081fd5b5051919050565b600080604083850312156132b9578182fd5b823591506020830135612f5d81613b00565b6000806000606084860312156132df578081fd5b8335925060208401356132f181613b00565b915060408401356130bd81613b00565b600080600060608486031215613315578081fd5b833592506020840135915060408401356130bd81613b00565b60008060008060808587031215613343578182fd5b8435935060208501359250604085013561335c81613b00565b9150606085013561336c81613b18565b939692955090935050565b6000828483379101908152919050565b60008251613399818460208701613ad4565b9190910192915050565b600084516133b5818460208901613ad4565b91909101928352506020820152604001919050565b90565b6001600160a01b0391909116815260200190565b6001600160a01b039384168152919092166020820152604081019190915260600190565b6001600160a01b0397881681529590961660208601526040850193909352606084019190915260ff16608083015260a082015260c081019190915260e00190565b6001600160a01b03929092168252602082015260400190565b901515815260200190565b90815260200190565b9586526001600160a01b0394851660208701529290931660408501526060840152608083019190915260a082015260c00190565b92835260208301919091526001600160a01b0316604082015260600190565b93845260ff9290921660208401526040830152606082015260800190565b6000602082528251806020840152613503816040850160208701613ad4565b601f01601f19169190910160400192915050565b602080825260159082015274426f72696e674d6174683a20556e646572666c6f7760581b604082015260600190565b6020808252600b908201526a0496e7465676572203c20360ac1b604082015260600190565b60208082526008908201526713dd995c9cdbdb1960c21b604082015260600190565b6020808252601c908201527f426f72696e6745524332303a205472616e73666572206661696c656400000000604082015260600190565b6020808252600b908201526a139bdd081cdd185c9d195960aa1b604082015260600190565b6020808252600a908201526957726f6e67207765656b60b01b604082015260600190565b60208082526016908201527545524332303a206e6f207a65726f206164647265737360501b604082015260600190565b60208082526021908201527f5369676e6564536166654d6174683a206164646974696f6e206f766572666c6f6040820152607760f81b606082015260800190565b602080825260059082015264115b99195960da1b604082015260600190565b6020808252601c908201527f426f72696e674d6174683a2075696e74313238204f766572666c6f7700000000604082015260600190565b60208082526018908201527f426f72696e674d6174683a20416464204f766572666c6f770000000000000000604082015260600190565b60208082526018908201527f45524332303a20616c6c6f77616e636520746f6f206c6f770000000000000000604082015260600190565b6020808252600e908201526d115490cc8c0e88115e1c1a5c995960921b604082015260600190565b6020808252601b908201527f426f72696e674d6174683a2075696e743634204f766572666c6f770000000000604082015260600190565b6020808252600e908201526d139bdd08199d5b1b1e481cdbdb1960921b604082015260600190565b60208082526018908201527f45524332303a204f776e65722063616e6e6f7420626520300000000000000000604082015260600190565b60208082526024908201527f5369676e6564536166654d6174683a207375627472616374696f6e206f766572604082015263666c6f7760e01b606082015260800190565b6020808252818101527f426f72696e6745524332303a205472616e7366657246726f6d206661696c6564604082015260600190565b60208082526016908201527545524332303a2062616c616e636520746f6f206c6f7760501b604082015260600190565b6020808252600b908201526a27379036b4b3b930ba37b960a91b604082015260600190565b60208082526019908201527f4d696772617465642062616c616e6365206d69736d6174636800000000000000604082015260600190565b60208082526018908201527f426f72696e674d6174683a204d756c204f766572666c6f770000000000000000604082015260600190565b6020808252600c908201526b2737ba1037b832b930ba37b960a11b604082015260600190565b60208082526018908201527f45524332303a20496e76616c6964205369676e61747572650000000000000000604082015260600190565b81516001600160801b031681526020808301516001600160401b0390811691830191909152604092830151169181019190915260600190565b6001600160801b039390931683526001600160401b03918216602084015216604082015260600190565b61ffff91909116815260200190565b9485526001600160a01b0393841660208601529190921660408401526060830191909152608082015260a00190565b9182521515602082015260400190565b918252602082015260400190565b6001600160401b0393909316835260208301919091526001600160801b0316604082015260600190565b60ff91909116815260200190565b6000808335601e19843603018112613aa6578283fd5b8301803591506001600160401b03821115613abf578283fd5b602001915036819003821315612ee057600080fd5b60005b83811015613aef578181015183820152602001613ad7565b838111156117815750506000910152565b6001600160a01b0381168114613b1557600080fd5b50565b8015158114613b1557600080fd5b61ffff81168114613b1557600080fdfeddf252ad1be2c89b69c2b068fc378daa952ba7f163c4a11628f55a4df523b3efa264697066735822122081df9fcc0ee7e1e9ae05237a854e7c16742b574a38656b41488d8d110ad3ce7d64736f6c634300060c0033",
  "libraries": {},
  "devdoc": {
    "kind": "dev",
    "methods": {
      "approve(address,uint256)": {
        "params": {
          "amount": "The maximum collective amount that `spender` can draw.",
          "spender": "Address of the party that can draw from msg.sender's account."
        },
        "returns": {
          "_0": "(bool) Returns True if approved."
        }
      },
      "permit(address,address,uint256,uint256,uint8,bytes32,bytes32)": {
        "params": {
          "deadline": "This permit must be redeemed before this deadline (UTC timestamp in seconds).",
          "owner_": "Address of the owner.",
          "spender": "The address of the spender that gets approved to draw from `owner_`.",
          "value": "The maximum collective amount that `spender` can draw."
        }
      },
      "transfer(address,uint256)": {
        "params": {
          "shares": "of the tokens to move.",
          "to": "The address to move the tokens."
        },
        "returns": {
          "_0": "(bool) Returns True if succeeded."
        }
      },
      "transferFrom(address,address,uint256)": {
        "params": {
          "from": "Address to draw tokens from.",
          "shares": "The token shares to move.",
          "to": "The address to move the tokens."
        },
        "returns": {
          "_0": "(bool) Returns True if succeeded."
        }
      }
    },
    "version": 1
  },
  "userdoc": {
    "kind": "user",
    "methods": {
      "allowance(address,address)": {
        "notice": "owner > spender > allowance mapping."
      },
      "approve(address,uint256)": {
        "notice": "Approves `amount` from sender to be spend by `spender`."
      },
      "mint(uint256,address)": {
        "notice": "math is ok, because amount, totalSupply and shares is always 0 <= amount <= 100.000.000 * 10^18 theoretically you can grow the amount/share ratio, but it's not practical and useless"
      },
      "nonces(address)": {
        "notice": "owner > nonce mapping. Used in `permit`."
      },
      "permit(address,address,uint256,uint256,uint8,bytes32,bytes32)": {
        "notice": "Approves `value` from `owner_` to be spend by `spender`."
      },
      "transfer(address,uint256)": {
        "notice": "Transfers `shares` tokens from `msg.sender` to `to`."
      },
      "transferFrom(address,address,uint256)": {
        "notice": "Transfers `shares` tokens from `from` to `to`. Caller needs approval for `from`."
      },
      "users(address)": {
        "notice": "owner > balance mapping."
      }
    },
    "version": 1
  },
  "storageLayout": {
    "storage": [
      {
        "astId": 1388,
        "contract": "src/DAO.sol:DAO",
        "label": "symbol",
        "offset": 0,
        "slot": "0",
        "type": "t_string_storage"
      },
      {
        "astId": 1390,
        "contract": "src/DAO.sol:DAO",
        "label": "name",
        "offset": 0,
        "slot": "1",
        "type": "t_string_storage"
      },
      {
        "astId": 1396,
        "contract": "src/DAO.sol:DAO",
        "label": "totalSupply",
        "offset": 0,
        "slot": "2",
        "type": "t_uint256"
      },
      {
        "astId": 1400,
        "contract": "src/DAO.sol:DAO",
        "label": "operator",
        "offset": 0,
        "slot": "3",
        "type": "t_address"
      },
      {
        "astId": 1404,
        "contract": "src/DAO.sol:DAO",
        "label": "userVote",
        "offset": 0,
        "slot": "4",
        "type": "t_mapping(t_address,t_address)"
      },
      {
        "astId": 1408,
        "contract": "src/DAO.sol:DAO",
        "label": "votes",
        "offset": 0,
        "slot": "5",
        "type": "t_mapping(t_address,t_uint256)"
      },
      {
        "astId": 1452,
        "contract": "src/DAO.sol:DAO",
        "label": "users",
        "offset": 0,
        "slot": "6",
        "type": "t_mapping(t_address,t_struct(User)1447_storage)"
      },
      {
        "astId": 1460,
        "contract": "src/DAO.sol:DAO",
        "label": "allowance",
        "offset": 0,
        "slot": "7",
        "type": "t_mapping(t_address,t_mapping(t_address,t_uint256))"
      },
      {
        "astId": 1465,
        "contract": "src/DAO.sol:DAO",
        "label": "nonces",
        "offset": 0,
        "slot": "8",
        "type": "t_mapping(t_address,t_uint256)"
      },
      {
        "astId": 1851,
        "contract": "src/DAO.sol:DAO",
        "label": "pendingOperator",
        "offset": 0,
        "slot": "9",
        "type": "t_address"
      },
      {
        "astId": 1853,
        "contract": "src/DAO.sol:DAO",
        "label": "pendingOperatorTime",
        "offset": 0,
        "slot": "10",
        "type": "t_uint256"
      },
      {
        "astId": 2210,
        "contract": "src/DAO.sol:DAO",
        "label": "queuedTransactions",
        "offset": 0,
        "slot": "11",
        "type": "t_mapping(t_bytes32,t_uint256)"
      }
    ],
    "types": {
      "t_address": {
        "encoding": "inplace",
        "label": "address",
        "numberOfBytes": "20"
      },
      "t_bytes32": {
        "encoding": "inplace",
        "label": "bytes32",
        "numberOfBytes": "32"
      },
      "t_mapping(t_address,t_address)": {
        "encoding": "mapping",
        "key": "t_address",
        "label": "mapping(address => address)",
        "numberOfBytes": "32",
        "value": "t_address"
      },
      "t_mapping(t_address,t_mapping(t_address,t_uint256))": {
        "encoding": "mapping",
        "key": "t_address",
        "label": "mapping(address => mapping(address => uint256))",
        "numberOfBytes": "32",
        "value": "t_mapping(t_address,t_uint256)"
      },
      "t_mapping(t_address,t_struct(User)1447_storage)": {
        "encoding": "mapping",
        "key": "t_address",
        "label": "mapping(address => struct DAO.User)",
        "numberOfBytes": "32",
        "value": "t_struct(User)1447_storage"
      },
      "t_mapping(t_address,t_uint256)": {
        "encoding": "mapping",
        "key": "t_address",
        "label": "mapping(address => uint256)",
        "numberOfBytes": "32",
        "value": "t_uint256"
      },
      "t_mapping(t_bytes32,t_uint256)": {
        "encoding": "mapping",
        "key": "t_bytes32",
        "label": "mapping(bytes32 => uint256)",
        "numberOfBytes": "32",
        "value": "t_uint256"
      },
      "t_string_storage": {
        "encoding": "bytes",
        "label": "string",
        "numberOfBytes": "32"
      },
      "t_struct(User)1447_storage": {
        "encoding": "inplace",
        "label": "struct DAO.User",
        "members": [
          {
            "astId": 1444,
            "contract": "src/DAO.sol:DAO",
            "label": "balance",
            "offset": 0,
            "slot": "0",
            "type": "t_uint128"
          },
          {
            "astId": 1446,
            "contract": "src/DAO.sol:DAO",
            "label": "lockedUntil",
            "offset": 16,
            "slot": "0",
            "type": "t_uint128"
          }
        ],
        "numberOfBytes": "32"
      },
      "t_uint128": {
        "encoding": "inplace",
        "label": "uint128",
        "numberOfBytes": "16"
      },
      "t_uint256": {
        "encoding": "inplace",
        "label": "uint256",
        "numberOfBytes": "32"
      }
    }
  }
}