{
  "address": "0x86D9d34b581c3f5C954d7ee272A0eB46c8E1A803",
  "abi": [
    {
      "inputs": [
        {
          "internalType": "address",
          "name": "zooAddress",
          "type": "address"
        }
      ],
      "stateMutability": "nonpayable",
      "type": "constructor"
    },
    {
      "anonymous": false,
      "inputs": [
        {
          "indexed": true,
          "internalType": "address",
          "name": "_address",
          "type": "address"
        },
        {
          "indexed": true,
          "internalType": "uint256",
          "name": "_amount",
          "type": "uint256"
        }
      ],
      "name": "Fund",
      "type": "event"
    },
    {
      "anonymous": false,
      "inputs": [
        {
          "indexed": true,
          "internalType": "address",
          "name": "previousOwner",
          "type": "address"
        },
        {
          "indexed": true,
          "internalType": "address",
          "name": "newOwner",
          "type": "address"
        }
      ],
      "name": "OwnershipTransferred",
      "type": "event"
    },
    {
      "inputs": [
        {
          "internalType": "address",
          "name": "to",
          "type": "address"
        }
      ],
      "name": "fund",
      "outputs": [
        {
          "internalType": "uint256",
          "name": "",
          "type": "uint256"
        }
      ],
      "stateMutability": "nonpayable",
      "type": "function"
    },
    {
      "inputs": [],
      "name": "owner",
      "outputs": [
        {
          "internalType": "address",
          "name": "",
          "type": "address"
        }
      ],
      "stateMutability": "view",
      "type": "function"
    },
    {
      "inputs": [],
      "name": "rate",
      "outputs": [
        {
          "internalType": "uint256",
          "name": "",
          "type": "uint256"
        }
      ],
      "stateMutability": "view",
      "type": "function"
    },
    {
      "inputs": [],
      "name": "renounceOwnership",
      "outputs": [],
      "stateMutability": "nonpayable",
      "type": "function"
    },
    {
      "inputs": [
        {
          "internalType": "uint256",
          "name": "_rate",
          "type": "uint256"
        }
      ],
      "name": "setRate",
      "outputs": [],
      "stateMutability": "nonpayable",
      "type": "function"
    },
    {
      "inputs": [
        {
          "internalType": "address",
          "name": "newOwner",
          "type": "address"
        }
      ],
      "name": "transferOwnership",
      "outputs": [],
      "stateMutability": "nonpayable",
      "type": "function"
    },
    {
      "inputs": [],
      "name": "withdraw",
      "outputs": [],
      "stateMutability": "nonpayable",
      "type": "function"
    }
  ],
  "transactionHash": "0xc5212e553889e7ca6a56ebf8c20fa07b159289f5cb207f323d59061d71ffc642",
  "args": [
    "0x117FbB2f404e2F1e9FbaC0DdB372C25dD979bc60"
  ],
  "solcInputHash": "d93e12f3b1c9e7e3cd022a9f9b0bd116",
  "bytecode": "0x60806040526305f5e10060015534801561001857600080fd5b50604051610740380380610740833981016040819052610037916100b5565b61004033610065565b600280546001600160a01b0319166001600160a01b03929092169190911790556100e3565b600080546001600160a01b038381166001600160a01b0319831681178455604051919092169283917f8be0079c531659141344cd1fd0a4f28419497f9722a3daafe3b4186f6b6457e09190a35050565b6000602082840312156100c6578081fd5b81516001600160a01b03811681146100dc578182fd5b9392505050565b61064e806100f26000396000f3fe608060405234801561001057600080fd5b506004361061006d5760003560e01c806323024408146100725780632c4e722e1461009857806334fcf437146100a15780633ccfd60b146100b6578063715018a6146100be5780638da5cb5b146100c6578063f2fde38b146100db575b600080fd5b610085610080366004610514565b6100ee565b6040519081526020015b60405180910390f35b61008560015481565b6100b46100af36600461055b565b610253565b005b6100b4610290565b6100b46103ca565b6100ce610405565b60405161008f919061058b565b6100b46100e9366004610514565b610414565b60008061010e670de0b6b3a76400006001546104b190919063ffffffff16565b6002546040516370a0823160e01b81529192506001600160a01b0316906370a082319061013f90309060040161058b565b60206040518083038186803b15801561015757600080fd5b505afa15801561016b573d6000803e3d6000fd5b505050506040513d601f19601f8201168201806040525081019061018f9190610573565b81111561019b57600080fd5b60025460405163a9059cbb60e01b81526001600160a01b039091169063a9059cbb906101cd908690859060040161059f565b602060405180830381600087803b1580156101e757600080fd5b505af11580156101fb573d6000803e3d6000fd5b505050506040513d601f19601f8201168201806040525081019061021f919061053b565b50604051819033907fda8220a878ff7a89474ccffdaa31ea1ed1ffbb0207d5051afccc4fbaf81f9bcd90600090a392915050565b3361025c610405565b6001600160a01b03161461028b5760405162461bcd60e51b8152600401610282906105b8565b60405180910390fd5b600155565b33610299610405565b6001600160a01b0316146102bf5760405162461bcd60e51b8152600401610282906105b8565b6002546001600160a01b031663a9059cbb6102d8610405565b6002546040516370a0823160e01b81526001600160a01b03909116906370a082319061030890309060040161058b565b60206040518083038186803b15801561032057600080fd5b505afa158015610334573d6000803e3d6000fd5b505050506040513d601f19601f820116820180604052508101906103589190610573565b6040518363ffffffff1660e01b815260040161037592919061059f565b602060405180830381600087803b15801561038f57600080fd5b505af11580156103a3573d6000803e3d6000fd5b505050506040513d601f19601f820116820180604052508101906103c7919061053b565b50565b336103d3610405565b6001600160a01b0316146103f95760405162461bcd60e51b8152600401610282906105b8565b61040360006104c4565b565b6000546001600160a01b031690565b3361041d610405565b6001600160a01b0316146104435760405162461bcd60e51b8152600401610282906105b8565b6001600160a01b0381166104a85760405162461bcd60e51b815260206004820152602660248201527f4f776e61626c653a206e6577206f776e657220697320746865207a65726f206160448201526564647265737360d01b6064820152608401610282565b6103c7816104c4565b60006104bd82846105ed565b9392505050565b600080546001600160a01b038381166001600160a01b0319831681178455604051919092169283917f8be0079c531659141344cd1fd0a4f28419497f9722a3daafe3b4186f6b6457e09190a35050565b600060208284031215610525578081fd5b81356001600160a01b03811681146104bd578182fd5b60006020828403121561054c578081fd5b815180151581146104bd578182fd5b60006020828403121561056c578081fd5b5035919050565b600060208284031215610584578081fd5b5051919050565b6001600160a01b0391909116815260200190565b6001600160a01b03929092168252602082015260400190565b6020808252818101527f4f776e61626c653a2063616c6c6572206973206e6f7420746865206f776e6572604082015260600190565b600081600019048311821515161561061357634e487b7160e01b81526011600452602481fd5b50029056fea2646970667358221220ab5e31ac62b13223ba1cf783753fa10099ee47e63f1a51a6d113af9fcba449f964736f6c63430008040033",
  "libraries": {},
  "devdoc": {
    "kind": "dev",
    "methods": {
      "owner()": {
        "details": "Returns the address of the current owner."
      },
      "renounceOwnership()": {
        "details": "Leaves the contract without owner. It will not be possible to call `onlyOwner` functions anymore. Can only be called by the current owner. NOTE: Renouncing ownership will leave the contract without an owner, thereby removing any functionality that is only available to the owner."
      },
      "transferOwnership(address)": {
        "details": "Transfers ownership of the contract to a new account (`newOwner`). Can only be called by the current owner."
      }
    },
    "version": 1
  },
  "userdoc": {
    "kind": "user",
    "methods": {},
    "version": 1
  },
  "storageLayout": {
    "storage": [
      {
        "astId": 387,
        "contract": "src/Faucet.sol:Faucet",
        "label": "_owner",
        "offset": 0,
        "slot": "0",
        "type": "t_address"
      },
      {
        "astId": 9861,
        "contract": "src/Faucet.sol:Faucet",
        "label": "rate",
        "offset": 0,
        "slot": "1",
        "type": "t_uint256"
      },
      {
        "astId": 9864,
        "contract": "src/Faucet.sol:Faucet",
        "label": "token",
        "offset": 0,
        "slot": "2",
        "type": "t_contract(IERC20)1239"
      }
    ],
    "types": {
      "t_address": {
        "encoding": "inplace",
        "label": "address",
        "numberOfBytes": "20"
      },
      "t_contract(IERC20)1239": {
        "encoding": "inplace",
        "label": "contract IERC20",
        "numberOfBytes": "20"
      },
      "t_uint256": {
        "encoding": "inplace",
        "label": "uint256",
        "numberOfBytes": "32"
      }
    }
  }
}