{
  "address": "0x742C77Bc991BD99CE846EADcf84b7E504aacc341",
  "abi": [
    {
      "inputs": [
        {
          "internalType": "address",
          "name": "b",
          "type": "address"
        },
        {
          "internalType": "address",
          "name": "z",
          "type": "address"
        },
        {
          "internalType": "address",
          "name": "f",
          "type": "address"
        },
        {
          "internalType": "address",
          "name": "r",
          "type": "address"
        },
        {
          "internalType": "uint256",
          "name": "a",
          "type": "uint256"
        },
        {
          "internalType": "uint256",
          "name": "m",
          "type": "uint256"
        }
      ],
      "stateMutability": "nonpayable",
      "type": "constructor"
    },
    {
      "inputs": [],
      "name": "swap",
      "outputs": [],
      "stateMutability": "nonpayable",
      "type": "function"
    }
  ],
  "transactionHash": "0xc6801232a6fad7bae5c2c21340a03b001888435d667b5e6a574b4da21ba72e9d",
  "args": [
    "0xaF16f94DEAe27a46F6A157CBd1b3C85F14CF0Cb8",
    "0x86D9d34b581c3f5C954d7ee272A0eB46c8E1A803",
    "0xb3C26aAFa12DeBE5EcFd5dA4D71E9910586dDAF7",
    "0x535bd37CC396a16Fcd027E9a7a359cd646cB84E3",
    100000000000,
    90000000000
  ],
  "solcInputHash": "b76e9f0ff93efb86e393977c521714aa",
  "bytecode": "0x608060405234801561001057600080fd5b5060405161079838038061079883398101604081905261002f916100a7565b600080546001600160a01b039788166001600160a01b031991821617909155600180549688169682169690961790955560028054948716948616949094179093556003805492909516919093161790925560045560055561010c565b80516001600160a01b03811681146100a257600080fd5b919050565b60008060008060008060c087890312156100bf578182fd5b6100c88761008b565b95506100d66020880161008b565b94506100e46040880161008b565b93506100f26060880161008b565b92506080870151915060a087015190509295509295509295565b61067d8061011b6000396000f3fe608060405234801561001057600080fd5b506004361061002b5760003560e01c80638119c06514610030575b600080fd5b61003861003a565b005b6001546040805163313ce56760e01b815290516000926001600160a01b03169163313ce567916004808301926020929190829003018186803b15801561007f57600080fd5b505afa158015610093573d6000803e3d6000fd5b505050506040513d601f19601f820116820180604052508101906100b7919061047b565b6100c290600a61054f565b6004546100cf91906105fc565b6001546040516323b872dd60e01b8152336004820152306024820152604481018390529192506001600160a01b0316906323b872dd90606401602060405180830381600087803b15801561012257600080fd5b505af1158015610136573d6000803e3d6000fd5b505050506040513d601f19601f8201168201806040525081019061015a9190610454565b6101a15760405162461bcd60e51b81526020600482015260136024820152721d1c985b9cd9995c919c9bdb4819985a5b1959606a1b60448201526064015b60405180910390fd5b60015460035460405163095ea7b360e01b81526001600160a01b0391821660048201526024810184905291169063095ea7b390604401602060405180830381600087803b1580156101f157600080fd5b505af1158015610205573d6000803e3d6000fd5b505050506040513d601f19601f820116820180604052508101906102299190610454565b6102665760405162461bcd60e51b815260206004820152600e60248201526d185c1c1c9bdd994819985a5b195960921b6044820152606401610198565b60408051600280825260608201835260009260208301908036833750506000805483519394506001600160a01b0316928492506102b357634e487b7160e01b600052603260045260246000fd5b6001600160a01b03928316602091820292909201015260018054835192169183919081106102f157634e487b7160e01b600052603260045260246000fd5b6001600160a01b0392831660209182029290920101526003546005546040516338ed173960e01b815291909216916338ed17399161033991869186903390429060040161049c565b600060405180830381600087803b15801561035357600080fd5b505af1158015610367573d6000803e3d6000fd5b505050506040513d6000823e601f3d908101601f1916820160405261038f9190810190610394565b505050565b600060208083850312156103a6578182fd5b825167ffffffffffffffff808211156103bd578384fd5b818501915085601f8301126103d0578384fd5b8151818111156103e2576103e2610631565b8060051b604051601f19603f8301168101818110858211171561040757610407610631565b604052828152858101935084860182860187018a1015610425578788fd5b8795505b83861015610447578051855260019590950194938601938601610429565b5098975050505050505050565b600060208284031215610465578081fd5b81518015158114610474578182fd5b9392505050565b60006020828403121561048c578081fd5b815160ff81168114610474578182fd5b600060a082018783526020878185015260a0604085015281875180845260c0860191508289019350845b818110156104eb5784516001600160a01b0316835293830193918301916001016104c6565b50506001600160a01b03969096166060850152505050608001529392505050565b600181815b8085111561054757816000190482111561052d5761052d61061b565b8085161561053a57918102915b93841c9390800290610511565b509250929050565b600061047460ff841683600082610568575060016105f6565b81610575575060006105f6565b816001811461058b5760028114610595576105b1565b60019150506105f6565b60ff8411156105a6576105a661061b565b50506001821b6105f6565b5060208310610133831016604e8410600b84101617156105d4575081810a6105f6565b6105de838361050c565b80600019048211156105f2576105f261061b565b0290505b92915050565b60008160001904831182151516156106165761061661061b565b500290565b634e487b7160e01b600052601160045260246000fd5b634e487b7160e01b600052604160045260246000fdfea2646970667358221220f1f1d852492244160ae957af0920f0bccb6b7d5bb0f99418aae567a93916dcbe64736f6c63430008040033",
  "libraries": {},
  "devdoc": {
    "kind": "dev",
    "methods": {},
    "version": 1
  },
  "userdoc": {
    "kind": "user",
    "methods": {},
    "version": 1
  },
  "storageLayout": {
    "storage": [
      {
        "astId": 9,
        "contract": "src/Savage.sol:Savage",
        "label": "B",
        "offset": 0,
        "slot": "0",
        "type": "t_contract(IERC20)237"
      },
      {
        "astId": 12,
        "contract": "src/Savage.sol:Savage",
        "label": "Z",
        "offset": 0,
        "slot": "1",
        "type": "t_contract(IERC20)237"
      },
      {
        "astId": 14,
        "contract": "src/Savage.sol:Savage",
        "label": "F",
        "offset": 0,
        "slot": "2",
        "type": "t_address"
      },
      {
        "astId": 16,
        "contract": "src/Savage.sol:Savage",
        "label": "R",
        "offset": 0,
        "slot": "3",
        "type": "t_address"
      },
      {
        "astId": 18,
        "contract": "src/Savage.sol:Savage",
        "label": "A",
        "offset": 0,
        "slot": "4",
        "type": "t_uint256"
      },
      {
        "astId": 20,
        "contract": "src/Savage.sol:Savage",
        "label": "M",
        "offset": 0,
        "slot": "5",
        "type": "t_uint256"
      }
    ],
    "types": {
      "t_address": {
        "encoding": "inplace",
        "label": "address",
        "numberOfBytes": "20"
      },
      "t_contract(IERC20)237": {
        "encoding": "inplace",
        "label": "contract IERC20",
        "numberOfBytes": "20"
      },
      "t_uint256": {
        "encoding": "inplace",
        "label": "uint256",
        "numberOfBytes": "32"
      }
    }
  }
}