{
  "address": "0x0Ca5D1a95f189A55BE94395D2E87D9d11D764820",
  "abi": [
    {
      "inputs": [],
      "stateMutability": "nonpayable",
      "type": "constructor"
    },
    {
      "anonymous": false,
      "inputs": [
        {
          "indexed": false,
          "internalType": "address",
          "name": "b",
          "type": "address"
        },
        {
          "indexed": false,
          "internalType": "uint256",
          "name": "bAmount",
          "type": "uint256"
        },
        {
          "indexed": false,
          "internalType": "address",
          "name": "c",
          "type": "address"
        },
        {
          "indexed": false,
          "internalType": "uint256",
          "name": "cAmount",
          "type": "uint256"
        }
      ],
      "name": "Liquidity",
      "type": "event"
    },
    {
      "anonymous": false,
      "inputs": [
        {
          "indexed": false,
          "internalType": "address",
          "name": "pair",
          "type": "address"
        },
        {
          "indexed": false,
          "internalType": "address",
          "name": "b",
          "type": "address"
        },
        {
          "indexed": false,
          "internalType": "address",
          "name": "c",
          "type": "address"
        }
      ],
      "name": "Pair",
      "type": "event"
    },
    {
      "anonymous": false,
      "inputs": [
        {
          "indexed": false,
          "internalType": "uint256",
          "name": "amountIn",
          "type": "uint256"
        },
        {
          "indexed": false,
          "internalType": "uint256",
          "name": "amountOutMin",
          "type": "uint256"
        }
      ],
      "name": "SwapTokens",
      "type": "event"
    },
    {
      "inputs": [],
      "name": "approvePool",
      "outputs": [],
      "stateMutability": "nonpayable",
      "type": "function"
    },
    {
      "inputs": [],
      "name": "balanceBNB",
      "outputs": [
        {
          "internalType": "uint256",
          "name": "",
          "type": "uint256"
        }
      ],
      "stateMutability": "view",
      "type": "function"
    },
    {
      "inputs": [],
      "name": "balanceZ1",
      "outputs": [
        {
          "internalType": "uint256",
          "name": "",
          "type": "uint256"
        }
      ],
      "stateMutability": "view",
      "type": "function"
    },
    {
      "inputs": [],
      "name": "balanceZOO",
      "outputs": [
        {
          "internalType": "uint256",
          "name": "",
          "type": "uint256"
        }
      ],
      "stateMutability": "view",
      "type": "function"
    },
    {
      "inputs": [],
      "name": "bnbAddress",
      "outputs": [
        {
          "internalType": "address",
          "name": "",
          "type": "address"
        }
      ],
      "stateMutability": "view",
      "type": "function"
    },
    {
      "inputs": [
        {
          "internalType": "address",
          "name": "_z1",
          "type": "address"
        },
        {
          "internalType": "address",
          "name": "_bnb",
          "type": "address"
        },
        {
          "internalType": "address",
          "name": "_zoo",
          "type": "address"
        },
        {
          "internalType": "address",
          "name": "_factory",
          "type": "address"
        },
        {
          "internalType": "address",
          "name": "_router",
          "type": "address"
        }
      ],
      "name": "configure",
      "outputs": [],
      "stateMutability": "nonpayable",
      "type": "function"
    },
    {
      "inputs": [],
      "name": "drainPool",
      "outputs": [],
      "stateMutability": "nonpayable",
      "type": "function"
    },
    {
      "inputs": [],
      "name": "factoryAddress",
      "outputs": [
        {
          "internalType": "address",
          "name": "",
          "type": "address"
        }
      ],
      "stateMutability": "view",
      "type": "function"
    },
    {
      "inputs": [],
      "name": "launchPool",
      "outputs": [
        {
          "internalType": "address",
          "name": "",
          "type": "address"
        }
      ],
      "stateMutability": "nonpayable",
      "type": "function"
    },
    {
      "inputs": [],
      "name": "routerAddress",
      "outputs": [
        {
          "internalType": "address",
          "name": "",
          "type": "address"
        }
      ],
      "stateMutability": "view",
      "type": "function"
    },
    {
      "inputs": [
        {
          "internalType": "uint256",
          "name": "amountIn",
          "type": "uint256"
        },
        {
          "internalType": "uint256",
          "name": "amountOutMin",
          "type": "uint256"
        }
      ],
      "name": "swapTokens",
      "outputs": [],
      "stateMutability": "nonpayable",
      "type": "function"
    },
    {
      "inputs": [
        {
          "internalType": "address",
          "name": "receiver",
          "type": "address"
        }
      ],
      "name": "withdrawAll",
      "outputs": [],
      "stateMutability": "nonpayable",
      "type": "function"
    },
    {
      "inputs": [],
      "name": "z1Address",
      "outputs": [
        {
          "internalType": "address",
          "name": "",
          "type": "address"
        }
      ],
      "stateMutability": "view",
      "type": "function"
    },
    {
      "inputs": [],
      "name": "zooAddress",
      "outputs": [
        {
          "internalType": "address",
          "name": "",
          "type": "address"
        }
      ],
      "stateMutability": "view",
      "type": "function"
    }
  ],
  "transactionHash": "0xe6e061a787eb4defbddce0a07a434377341d34660c50e4c3cc3638b36a86dd77",
  "args": [],
  "solcInputHash": "f6f30ecd6bb0c4e3c90781be941b8910",
  "bytecode": "0x608060405234801561001057600080fd5b50600a80546001600160a01b0319163317905561206f806100326000396000f3fe608060405234801561001057600080fd5b50600436106100ea5760003560e01c806388ab076f1161008c578063a408096c11610066578063a408096c146101ca578063a7b4961f146101d2578063d11c583a146101da578063fa09e630146101e2576100ea565b806388ab076f14610197578063966dae0e146101ba578063a1d4958c146101c2576100ea565b8063382f2dc0116100c8578063382f2dc0146101355780635d33a1f41461013d578063760fcb3e146101455780637ad03c8f1461018f576100ea565b80630804c58b146100ef5780630b04fffe146101095780633268cc5614610111575b600080fd5b6100f7610208565b60408051918252519081900360200190f35b6100f7610285565b6101196102d0565b604080516001600160a01b039092168252519081900360200190f35b6100f76102df565b61011961032a565b61018d600480360360a081101561015b57600080fd5b506001600160a01b03813581169160208101358216916040820135811691606081013582169160809091013516610339565b005b61018d61041a565b61018d600480360360408110156101ad57600080fd5b5080359060200135610694565b610119610edd565b610119610eec565b610119611362565b61018d611371565b610119611511565b61018d600480360360208110156101f857600080fd5b50356001600160a01b0316611520565b60008054604080516370a0823160e01b815230600482015290516001600160a01b03909216916370a0823191602480820192602092909190829003018186803b15801561025457600080fd5b505afa158015610268573d6000803e3d6000fd5b505050506040513d602081101561027e57600080fd5b5051905090565b600154604080516370a0823160e01b815230600482015290516000926001600160a01b0316916370a08231916024808301926020929190829003018186803b15801561025457600080fd5b6008546001600160a01b031690565b600254604080516370a0823160e01b815230600482015290516000926001600160a01b0316916370a08231916024808301926020929190829003018186803b15801561025457600080fd5b6007546001600160a01b031690565b600a546001600160a01b03163314610386576040805162461bcd60e51b815260206004820152601d6024820152600080516020611ff6833981519152604482015290519081900360640190fd5b600580546001600160a01b039687166001600160a01b03199182168117909255600680549688169682168717905560078054958816958216861790556009805494881694821685179055600880549390971692811683179096556000805487169091179055600180548616909417909355600280548516909217909155600480548416909117905560038054909216179055565b600a546001600160a01b03163314610467576040805162461bcd60e51b815260206004820152601d6024820152600080516020611ff6833981519152604482015290519081900360640190fd5b600154604080516370a0823160e01b815230600482015290516000926001600160a01b0316916370a08231916024808301926020929190829003018186803b1580156104b257600080fd5b505afa1580156104c6573d6000803e3d6000fd5b505050506040513d60208110156104dc57600080fd5b5051600254604080516370a0823160e01b815230600482015290519293506000926001600160a01b03909216916370a0823191602480820192602092909190829003018186803b15801561052f57600080fd5b505afa158015610543573d6000803e3d6000fd5b505050506040513d602081101561055957600080fd5b50516001546008546040805163095ea7b360e01b81526001600160a01b03928316600482015260248101879052905193945091169163095ea7b3916044808201926020929091908290030181600087803b1580156105b657600080fd5b505af11580156105ca573d6000803e3d6000fd5b505050506040513d60208110156105e057600080fd5b50506002546008546040805163095ea7b360e01b81526001600160a01b039283166004820152602481018590529051919092169163095ea7b39160448083019260209291908290030181600087803b15801561063b57600080fd5b505af115801561064f573d6000803e3d6000fd5b505050506040513d602081101561066557600080fd5b5050604080518082019091526007815266417070726f766560c81b6020820152610690908383611897565b5050565b60408051808201909152600a81526973776170546f6b656e7360b01b6020820152600f4201906106c5908484611897565b60408051808201825260148152733130b630b731b2a7b31036b9b39739b2b73232b960611b60208083019190915260005483516370a0823160e01b8152336004820152935161076c946001600160a01b03909216926370a082319260248082019391829003018186803b15801561073b57600080fd5b505afa15801561074f573d6000803e3d6000fd5b505050506040513d602081101561076557600080fd5b505161194d565b604080518082018252601081526f62616c616e63654f662073617661676560801b60208083019190915260005483516370a0823160e01b815230600482015293516107de946001600160a01b03909216926370a082319260248082019391829003018186803b15801561073b57600080fd5b604080518082018252601081526f3130b630b731b2a7b3103937baba32b960811b60208083019190915260005460085484516370a0823160e01b81526001600160a01b03918216600482015294516108559591909216926370a0823192602480840193829003018186803b15801561073b57600080fd5b6108886040518060400160405280601081526020016f736166655472616e7366657246726f6d60801b81525033856119fb565b6005546108a0906001600160a01b0316333086611aba565b60408051808201825260148152733130b630b731b2a7b31036b9b39739b2b73232b960611b60208083019190915260005483516370a0823160e01b81523360048201529351610916946001600160a01b03909216926370a082319260248082019391829003018186803b15801561073b57600080fd5b604080518082018252601081526f62616c616e63654f662073617661676560801b60208083019190915260005483516370a0823160e01b81523060048201529351610988946001600160a01b03909216926370a082319260248082019391829003018186803b15801561073b57600080fd5b604080518082018252601081526f3130b630b731b2a7b3103937baba32b960811b60208083019190915260005460085484516370a0823160e01b81526001600160a01b03918216600482015294516109ff9591909216926370a0823192602480840193829003018186803b15801561073b57600080fd5b60408051808201909152600b81526a73616665417070726f766560a81b6020820152600854610a3891906001600160a01b0316856119fb565b600554600854610a55916001600160a01b03908116911685611c0f565b6003546001600160a01b03166338ed17398484610a70611d79565b30866040518663ffffffff1660e01b81526004018086815260200185815260200180602001846001600160a01b03168152602001838152602001828103825285818151815260200191508051906020019060200280838360005b83811015610ae2578181015183820152602001610aca565b505050509050019650505050505050600060405180830381600087803b158015610b0b57600080fd5b505af1158015610b1f573d6000803e3d6000fd5b505050506040513d6000823e601f3d908101601f191682016040526020811015610b4857600080fd5b8101908080516040519392919084640100000000821115610b6857600080fd5b908301906020820185811115610b7d57600080fd5b8251866020820283011164010000000082111715610b9a57600080fd5b82525081516020918201928201910280838360005b83811015610bc7578181015183820152602001610baf565b505050509091016040818101815260168252752d103130b630b731b2a7b31036b9b39739b2b73232b960511b60208084019190915260005482516370a0823160e01b81523360048201529251610c4b99509397506001600160a01b031695506370a08231945060248083019450909291829003018186803b15801561073b57600080fd5b60408051808201825260128152715a2062616c616e63654f662073617661676560701b60208083019190915260005483516370a0823160e01b81523060048201529351610cbf946001600160a01b03909216926370a082319260248082019391829003018186803b15801561073b57600080fd5b60408051808201825260128152712d103130b630b731b2a7b3103937baba32b960711b60208083019190915260005460085484516370a0823160e01b81526001600160a01b0391821660048201529451610d389591909216926370a0823192602480840193829003018186803b15801561073b57600080fd5b604080518082018252601681527521103130b630b731b2a7b31036b9b39739b2b73232b960511b60208083019190915260015483516370a0823160e01b81523360048201529351610db0946001600160a01b03909216926370a082319260248082019391829003018186803b15801561073b57600080fd5b6040805180820182526012815271422062616c616e63654f662073617661676560701b60208083019190915260015483516370a0823160e01b81523060048201529351610e24946001600160a01b03909216926370a082319260248082019391829003018186803b15801561073b57600080fd5b604080518082018252601281527121103130b630b731b2a7b3103937baba32b960711b60208083019190915260015460085484516370a0823160e01b81526001600160a01b0391821660048201529451610e9d9591909216926370a0823192602480840193829003018186803b15801561073b57600080fd5b604080518481526020810184905281517f738b737502df4c5f230bbb98a45ea9c2821bad262e880f883357ad3695f8dae4929181900390910190a1505050565b6009546001600160a01b031690565b600a546000906001600160a01b03163314610f3c576040805162461bcd60e51b815260206004820152601d6024820152600080516020611ff6833981519152604482015290519081900360640190fd5b60048054600654600754604080516364e329cb60e11b81526001600160a01b039384169581019590955290821660248501525191169163c9c653969160448083019260209291908290030181600087803b158015610f9957600080fd5b505af1158015610fad573d6000803e3d6000fd5b505050506040513d6020811015610fc357600080fd5b50506040805180820190915260128152712330b1ba37b93c9731b932b0ba32a830b4b960711b602082015260065460075461100b92916001600160a01b039081169116611dff565b600480546006546007546040805163e6a4390560e01b81526001600160a01b0393841695810195909552908216602485015251600093919092169163e6a4390591604480820192602092909190829003018186803b15801561106c57600080fd5b505afa158015611080573d6000803e3d6000fd5b505050506040513d602081101561109657600080fd5b505160408051808201909152600f81526e2330b1ba37b93c9733b2ba2830b4b960891b60208201529091506110cb9082611ec7565b600654600754604080516001600160a01b0380861682529384166020820152919092168183015290517f7467344ef90ca12687994051e1ab13a23ebaa44d54b01258f196c4ff3a5e1f2d9181900360600190a1600154604080516370a0823160e01b815230600482015290516000926001600160a01b0316916370a08231916024808301926020929190829003018186803b15801561116957600080fd5b505afa15801561117d573d6000803e3d6000fd5b505050506040513d602081101561119357600080fd5b5051600254604080516370a0823160e01b815230600482015290519293506000926001600160a01b03909216916370a0823191602480820192602092909190829003018186803b1580156111e657600080fd5b505afa1580156111fa573d6000803e3d6000fd5b505050506040513d602081101561121057600080fd5b50516003546006546007546040805162e8e33760e81b81526001600160a01b03938416600482015291831660248301526044820187905260648281018690526084830181905260a48301523360c4830152600f420160e48301819052905194955093919092169163e8e33700916101048083019260609291908290030181600087803b15801561129f57600080fd5b505af11580156112b3573d6000803e3d6000fd5b505050506040513d60608110156112c957600080fd5b5050604080518082019091526013815272526f757465722e6164644c697175696469747960681b6020820152611300908484611897565b600654600754604080516001600160a01b0393841681526020810187905291909216818301526060810184905290517f3a51bdd8f0ce248026483399fa98c498d12a66404c068ae7af4b729b40426daa9181900360800190a150919250505090565b6005546001600160a01b031690565b600480546006546007546040805163e6a4390560e01b81526001600160a01b0393841695810195909552908216602485015251600093919092169163e6a4390591604480820192602092909190829003018186803b1580156113d257600080fd5b505afa1580156113e6573d6000803e3d6000fd5b505050506040513d60208110156113fc57600080fd5b5051600154604080516370a0823160e01b81526001600160a01b038085166004830152915193945060009391909216916370a08231916024808301926020929190829003018186803b15801561145157600080fd5b505afa158015611465573d6000803e3d6000fd5b505050506040513d602081101561147b57600080fd5b5051600054604080516370a0823160e01b81523360048201529051929350600a84049261150c926001600160a01b0316916370a08231916024808301926020929190829003018186803b1580156114d157600080fd5b505afa1580156114e5573d6000803e3d6000fd5b505050506040513d60208110156114fb57600080fd5b50516115078484611f7e565b610694565b505050565b6006546001600160a01b031690565b600a546001600160a01b0316331461156d576040805162461bcd60e51b815260206004820152601d6024820152600080516020611ff6833981519152604482015290519081900360640190fd5b60008054604080516370a0823160e01b815230600482015290516001600160a01b03909216916370a0823191602480820192602092909190829003018186803b1580156115b957600080fd5b505afa1580156115cd573d6000803e3d6000fd5b505050506040513d60208110156115e357600080fd5b5051600154604080516370a0823160e01b815230600482015290519293506000926001600160a01b03909216916370a0823191602480820192602092909190829003018186803b15801561163657600080fd5b505afa15801561164a573d6000803e3d6000fd5b505050506040513d602081101561166057600080fd5b5051600254604080516370a0823160e01b815230600482015290519293506000926001600160a01b03909216916370a0823191602480820192602092909190829003018186803b1580156116b357600080fd5b505afa1580156116c7573d6000803e3d6000fd5b505050506040513d60208110156116dd57600080fd5b5051905082156117735760008054604080516323b872dd60e01b81523060048201526001600160a01b03888116602483015260448201889052915191909216926323b872dd92606480820193602093909283900390910190829087803b15801561174657600080fd5b505af115801561175a573d6000803e3d6000fd5b505050506040513d602081101561177057600080fd5b50505b811561180257600154604080516323b872dd60e01b81523060048201526001600160a01b03878116602483015260448201869052915191909216916323b872dd9160648083019260209291908290030181600087803b1580156117d557600080fd5b505af11580156117e9573d6000803e3d6000fd5b505050506040513d60208110156117ff57600080fd5b50505b801561189157600254604080516323b872dd60e01b81523060048201526001600160a01b03878116602483015260448201859052915191909216916323b872dd9160648083019260209291908290030181600087803b15801561186457600080fd5b505af1158015611878573d6000803e3d6000fd5b505050506040513d602081101561188e57600080fd5b50505b50505050565b61150c8383836040516024018080602001848152602001838152602001828103825285818151815260200191508051906020019080838360005b838110156118e95781810151838201526020016118d1565b50505050905090810190601f1680156119165780820380516001836020036101000a031916815260200191505b5060408051601f198184030181529190526020810180516001600160e01b031663969cdd0360e01b1790529450611fd49350505050565b61069082826040516024018080602001838152602001828103825284818151815260200191508051906020019080838360005b83811015611998578181015183820152602001611980565b50505050905090810190601f1680156119c55780820380516001836020036101000a031916815260200191505b5060408051601f198184030181529190526020810180516001600160e01b03166309710a9d60e41b1790529350611fd492505050565b61150c8383836040516024018080602001846001600160a01b03168152602001838152602001828103825285818151815260200191508051906020019080838360005b83811015611a56578181015183820152602001611a3e565b50505050905090810190601f168015611a835780820380516001836020036101000a031916815260200191505b5060408051601f198184030181529190526020810180516001600160e01b03166307c8121760e01b1790529450611fd49350505050565b604080516001600160a01b0385811660248301528481166044830152606480830185905283518084039091018152608490920183526020820180516001600160e01b03166323b872dd60e01b17815292518251600094606094938a169392918291908083835b60208310611b3f5780518252601f199092019160209182019101611b20565b6001836020036101000a0380198251168184511680821785525050505050509050019150506000604051808303816000865af19150503d8060008114611ba1576040519150601f19603f3d011682016040523d82523d6000602084013e611ba6565b606091505b5091509150818015611bd4575080511580611bd45750808060200190516020811015611bd157600080fd5b50515b61188e5760405162461bcd60e51b81526004018080602001828103825260248152602001806120166024913960400191505060405180910390fd5b604080516001600160a01b038481166024830152604480830185905283518084039091018152606490920183526020820180516001600160e01b031663095ea7b360e01b178152925182516000946060949389169392918291908083835b60208310611c8c5780518252601f199092019160209182019101611c6d565b6001836020036101000a0380198251168184511680821785525050505050509050019150506000604051808303816000865af19150503d8060008114611cee576040519150601f19603f3d011682016040523d82523d6000602084013e611cf3565b606091505b5091509150818015611d21575080511580611d215750808060200190516020811015611d1e57600080fd5b50515b611d72576040805162461bcd60e51b815260206004820152601e60248201527f5472616e7366657248656c7065723a20415050524f56455f4641494c45440000604482015290519081900360640190fd5b5050505050565b604080516002808252606080830184529283929190602083019080368337505060055482519293506001600160a01b031691839150600090611db757fe5b6001600160a01b039283166020918202929092010152600654825191169082906001908110611de257fe5b6001600160a01b0390921660209283029190910190910152905090565b61150c8383836040516024018080602001846001600160a01b03168152602001836001600160a01b03168152602001828103825285818151815260200191508051906020019080838360005b83811015611e63578181015183820152602001611e4b565b50505050905090810190601f168015611e905780820380516001836020036101000a031916815260200191505b5060408051601f198184030181529190526020810180516001600160e01b03166307e763af60e51b1790529450611fd49350505050565b61069082826040516024018080602001836001600160a01b03168152602001828103825284818151815260200191508051906020019080838360005b83811015611f1b578181015183820152602001611f03565b50505050905090810190601f168015611f485780820380516001836020036101000a031916815260200191505b5060408051601f198184030181529190526020810180516001600160e01b031663319af33360e01b1790529350611fd492505050565b80820382811115611fce576040805162461bcd60e51b815260206004820152601560248201527464732d6d6174682d7375622d756e646572666c6f7760581b604482015290519081900360640190fd5b92915050565b80516a636f6e736f6c652e6c6f67602083016000808483855afa505050505056fe5361766167653a204f6e6c79206f776e657220686173206163636573730000005472616e7366657248656c7065723a205452414e534645525f46524f4d5f4641494c4544a26469706673582212207e476a5a4fdb472b07eb028f9b77b46b0b6ea87cf9bc1753a87142085755d1b164736f6c634300060c0033",
  "libraries": {},
  "devdoc": {
    "kind": "dev",
    "methods": {},
    "version": 1
  },
  "userdoc": {
    "kind": "user",
    "methods": {},
    "version": 1
  },
  "storageLayout": {
    "storage": [
      {
        "astId": 22,
        "contract": "src/Savage.sol:Savage",
        "label": "A",
        "offset": 0,
        "slot": "0",
        "type": "t_contract(IERC20)12694"
      },
      {
        "astId": 24,
        "contract": "src/Savage.sol:Savage",
        "label": "B",
        "offset": 0,
        "slot": "1",
        "type": "t_contract(IERC20)12694"
      },
      {
        "astId": 26,
        "contract": "src/Savage.sol:Savage",
        "label": "C",
        "offset": 0,
        "slot": "2",
        "type": "t_contract(IERC20)12694"
      },
      {
        "astId": 28,
        "contract": "src/Savage.sol:Savage",
        "label": "Router",
        "offset": 0,
        "slot": "3",
        "type": "t_contract(IUniswapV2Router01)13331"
      },
      {
        "astId": 30,
        "contract": "src/Savage.sol:Savage",
        "label": "Factory",
        "offset": 0,
        "slot": "4",
        "type": "t_contract(IUniswapV2Factory)12781"
      },
      {
        "astId": 32,
        "contract": "src/Savage.sol:Savage",
        "label": "a",
        "offset": 0,
        "slot": "5",
        "type": "t_address"
      },
      {
        "astId": 34,
        "contract": "src/Savage.sol:Savage",
        "label": "b",
        "offset": 0,
        "slot": "6",
        "type": "t_address"
      },
      {
        "astId": 36,
        "contract": "src/Savage.sol:Savage",
        "label": "c",
        "offset": 0,
        "slot": "7",
        "type": "t_address"
      },
      {
        "astId": 38,
        "contract": "src/Savage.sol:Savage",
        "label": "router",
        "offset": 0,
        "slot": "8",
        "type": "t_address"
      },
      {
        "astId": 40,
        "contract": "src/Savage.sol:Savage",
        "label": "factory",
        "offset": 0,
        "slot": "9",
        "type": "t_address"
      },
      {
        "astId": 42,
        "contract": "src/Savage.sol:Savage",
        "label": "owner",
        "offset": 0,
        "slot": "10",
        "type": "t_address"
      }
    ],
    "types": {
      "t_address": {
        "encoding": "inplace",
        "label": "address",
        "numberOfBytes": "20"
      },
      "t_contract(IERC20)12694": {
        "encoding": "inplace",
        "label": "contract IERC20",
        "numberOfBytes": "20"
      },
      "t_contract(IUniswapV2Factory)12781": {
        "encoding": "inplace",
        "label": "contract IUniswapV2Factory",
        "numberOfBytes": "20"
      },
      "t_contract(IUniswapV2Router01)13331": {
        "encoding": "inplace",
        "label": "contract IUniswapV2Router01",
        "numberOfBytes": "20"
      }
    }
  }
}