{
  "address": "0x742C77Bc991BD99CE846EADcf84b7E504aacc341",
  "abi": [
    {
      "inputs": [
        {
          "internalType": "string",
          "name": "_title",
          "type": "string"
        }
      ],
      "stateMutability": "nonpayable",
      "type": "constructor"
    },
    {
      "anonymous": false,
      "inputs": [
        {
          "indexed": true,
          "internalType": "address",
          "name": "previousOwner",
          "type": "address"
        },
        {
          "indexed": true,
          "internalType": "address",
          "name": "newOwner",
          "type": "address"
        }
      ],
      "name": "OwnershipTransferred",
      "type": "event"
    },
    {
      "inputs": [
        {
          "internalType": "string",
          "name": "",
          "type": "string"
        }
      ],
      "name": "animals",
      "outputs": [
        {
          "internalType": "enum IZoo.Type",
          "name": "kind",
          "type": "uint8"
        },
        {
          "components": [
            {
              "internalType": "string",
              "name": "name",
              "type": "string"
            },
            {
              "internalType": "uint256",
              "name": "probability",
              "type": "uint256"
            },
            {
              "internalType": "uint256",
              "name": "yield",
              "type": "uint256"
            },
            {
              "internalType": "uint256",
              "name": "boost",
              "type": "uint256"
            }
          ],
          "internalType": "struct IZoo.Rarity",
          "name": "rarity",
          "type": "tuple"
        },
        {
          "internalType": "string",
          "name": "name",
          "type": "string"
        },
        {
          "components": [
            {
              "internalType": "string",
              "name": "tokenURI",
              "type": "string"
            },
            {
              "internalType": "string",
              "name": "metadataURI",
              "type": "string"
            },
            {
              "internalType": "bytes32",
              "name": "contentHash",
              "type": "bytes32"
            },
            {
              "internalType": "bytes32",
              "name": "metadataHash",
              "type": "bytes32"
            }
          ],
          "internalType": "struct IMedia.MediaData",
          "name": "data",
          "type": "tuple"
        },
        {
          "components": [
            {
              "components": [
                {
                  "internalType": "uint256",
                  "name": "value",
                  "type": "uint256"
                }
              ],
              "internalType": "struct Decimal.D256",
              "name": "prevOwner",
              "type": "tuple"
            },
            {
              "components": [
                {
                  "internalType": "uint256",
                  "name": "value",
                  "type": "uint256"
                }
              ],
              "internalType": "struct Decimal.D256",
              "name": "creator",
              "type": "tuple"
            },
            {
              "components": [
                {
                  "internalType": "uint256",
                  "name": "value",
                  "type": "uint256"
                }
              ],
              "internalType": "struct Decimal.D256",
              "name": "owner",
              "type": "tuple"
            }
          ],
          "internalType": "struct IMarket.BidShares",
          "name": "bidShares",
          "type": "tuple"
        }
      ],
      "stateMutability": "view",
      "type": "function"
    },
    {
      "inputs": [],
      "name": "baseEgg",
      "outputs": [
        {
          "internalType": "string",
          "name": "",
          "type": "string"
        }
      ],
      "stateMutability": "view",
      "type": "function"
    },
    {
      "inputs": [
        {
          "internalType": "string",
          "name": "_baseEgg",
          "type": "string"
        },
        {
          "internalType": "string",
          "name": "_hybridEgg",
          "type": "string"
        }
      ],
      "name": "configureEggs",
      "outputs": [],
      "stateMutability": "nonpayable",
      "type": "function"
    },
    {
      "inputs": [
        {
          "internalType": "address",
          "name": "zooKeeper",
          "type": "address"
        }
      ],
      "name": "configureKeeper",
      "outputs": [],
      "stateMutability": "nonpayable",
      "type": "function"
    },
    {
      "inputs": [],
      "name": "eggPrice",
      "outputs": [
        {
          "internalType": "uint256",
          "name": "",
          "type": "uint256"
        }
      ],
      "stateMutability": "view",
      "type": "function"
    },
    {
      "inputs": [],
      "name": "eggSupply",
      "outputs": [
        {
          "internalType": "uint256",
          "name": "",
          "type": "uint256"
        }
      ],
      "stateMutability": "view",
      "type": "function"
    },
    {
      "inputs": [
        {
          "internalType": "string",
          "name": "",
          "type": "string"
        }
      ],
      "name": "eggs",
      "outputs": [
        {
          "internalType": "enum IZoo.Type",
          "name": "kind",
          "type": "uint8"
        },
        {
          "internalType": "string",
          "name": "name",
          "type": "string"
        },
        {
          "internalType": "uint256",
          "name": "supply",
          "type": "uint256"
        },
        {
          "internalType": "uint256",
          "name": "price",
          "type": "uint256"
        },
        {
          "internalType": "uint256",
          "name": "timestamp",
          "type": "uint256"
        },
        {
          "internalType": "uint256",
          "name": "birthday",
          "type": "uint256"
        },
        {
          "internalType": "uint256",
          "name": "minted",
          "type": "uint256"
        },
        {
          "components": [
            {
              "internalType": "string",
              "name": "tokenURI",
              "type": "string"
            },
            {
              "internalType": "string",
              "name": "metadataURI",
              "type": "string"
            },
            {
              "internalType": "bytes32",
              "name": "contentHash",
              "type": "bytes32"
            },
            {
              "internalType": "bytes32",
              "name": "metadataHash",
              "type": "bytes32"
            }
          ],
          "internalType": "struct IMedia.MediaData",
          "name": "data",
          "type": "tuple"
        },
        {
          "components": [
            {
              "components": [
                {
                  "internalType": "uint256",
                  "name": "value",
                  "type": "uint256"
                }
              ],
              "internalType": "struct Decimal.D256",
              "name": "prevOwner",
              "type": "tuple"
            },
            {
              "components": [
                {
                  "internalType": "uint256",
                  "name": "value",
                  "type": "uint256"
                }
              ],
              "internalType": "struct Decimal.D256",
              "name": "creator",
              "type": "tuple"
            },
            {
              "components": [
                {
                  "internalType": "uint256",
                  "name": "value",
                  "type": "uint256"
                }
              ],
              "internalType": "struct Decimal.D256",
              "name": "owner",
              "type": "tuple"
            }
          ],
          "internalType": "struct IMarket.BidShares",
          "name": "bidShares",
          "type": "tuple"
        }
      ],
      "stateMutability": "view",
      "type": "function"
    },
    {
      "inputs": [
        {
          "internalType": "uint256",
          "name": "random",
          "type": "uint256"
        }
      ],
      "name": "getRandomAnimal",
      "outputs": [
        {
          "components": [
            {
              "components": [
                {
                  "internalType": "string",
                  "name": "name",
                  "type": "string"
                },
                {
                  "internalType": "uint256",
                  "name": "probability",
                  "type": "uint256"
                },
                {
                  "internalType": "uint256",
                  "name": "yield",
                  "type": "uint256"
                },
                {
                  "internalType": "uint256",
                  "name": "boost",
                  "type": "uint256"
                }
              ],
              "internalType": "struct IZoo.Rarity",
              "name": "rarity",
              "type": "tuple"
            },
            {
              "internalType": "enum IZoo.Type",
              "name": "kind",
              "type": "uint8"
            },
            {
              "internalType": "string",
              "name": "name",
              "type": "string"
            },
            {
              "internalType": "uint256",
              "name": "id",
              "type": "uint256"
            },
            {
              "internalType": "uint256",
              "name": "timestamp",
              "type": "uint256"
            },
            {
              "internalType": "uint256",
              "name": "birthday",
              "type": "uint256"
            },
            {
              "internalType": "string",
              "name": "customName",
              "type": "string"
            },
            {
              "components": [
                {
                  "internalType": "string",
                  "name": "animalA",
                  "type": "string"
                },
                {
                  "internalType": "string",
                  "name": "animalB",
                  "type": "string"
                },
                {
                  "internalType": "uint256",
                  "name": "tokenA",
                  "type": "uint256"
                },
                {
                  "internalType": "uint256",
                  "name": "tokenB",
                  "type": "uint256"
                }
              ],
              "internalType": "struct IZoo.Parents",
              "name": "parents",
              "type": "tuple"
            },
            {
              "components": [
                {
                  "internalType": "uint256",
                  "name": "count",
                  "type": "uint256"
                },
                {
                  "internalType": "uint256",
                  "name": "timestamp",
                  "type": "uint256"
                }
              ],
              "internalType": "struct IZoo.Breed",
              "name": "breed",
              "type": "tuple"
            },
            {
              "components": [
                {
                  "internalType": "uint256",
                  "name": "eggID",
                  "type": "uint256"
                },
                {
                  "internalType": "uint256",
                  "name": "dropID",
                  "type": "uint256"
                }
              ],
              "internalType": "struct IZoo.Meta",
              "name": "meta",
              "type": "tuple"
            },
            {
              "components": [
                {
                  "internalType": "string",
                  "name": "tokenURI",
                  "type": "string"
                },
                {
                  "internalType": "string",
                  "name": "metadataURI",
                  "type": "string"
                },
                {
                  "internalType": "bytes32",
                  "name": "contentHash",
                  "type": "bytes32"
                },
                {
                  "internalType": "bytes32",
                  "name": "metadataHash",
                  "type": "bytes32"
                }
              ],
              "internalType": "struct IMedia.MediaData",
              "name": "data",
              "type": "tuple"
            },
            {
              "components": [
                {
                  "components": [
                    {
                      "internalType": "uint256",
                      "name": "value",
                      "type": "uint256"
                    }
                  ],
                  "internalType": "struct Decimal.D256",
                  "name": "prevOwner",
                  "type": "tuple"
                },
                {
                  "components": [
                    {
                      "internalType": "uint256",
                      "name": "value",
                      "type": "uint256"
                    }
                  ],
                  "internalType": "struct Decimal.D256",
                  "name": "creator",
                  "type": "tuple"
                },
                {
                  "components": [
                    {
                      "internalType": "uint256",
                      "name": "value",
                      "type": "uint256"
                    }
                  ],
                  "internalType": "struct Decimal.D256",
                  "name": "owner",
                  "type": "tuple"
                }
              ],
              "internalType": "struct IMarket.BidShares",
              "name": "bidShares",
              "type": "tuple"
            }
          ],
          "internalType": "struct IZoo.Token",
          "name": "token",
          "type": "tuple"
        }
      ],
      "stateMutability": "view",
      "type": "function"
    },
    {
      "inputs": [
        {
          "internalType": "uint256",
          "name": "random",
          "type": "uint256"
        },
        {
          "components": [
            {
              "internalType": "string",
              "name": "animalA",
              "type": "string"
            },
            {
              "internalType": "string",
              "name": "animalB",
              "type": "string"
            },
            {
              "internalType": "uint256",
              "name": "tokenA",
              "type": "uint256"
            },
            {
              "internalType": "uint256",
              "name": "tokenB",
              "type": "uint256"
            }
          ],
          "internalType": "struct IZoo.Parents",
          "name": "parents",
          "type": "tuple"
        }
      ],
      "name": "getRandomHybrid",
      "outputs": [
        {
          "components": [
            {
              "components": [
                {
                  "internalType": "string",
                  "name": "name",
                  "type": "string"
                },
                {
                  "internalType": "uint256",
                  "name": "probability",
                  "type": "uint256"
                },
                {
                  "internalType": "uint256",
                  "name": "yield",
                  "type": "uint256"
                },
                {
                  "internalType": "uint256",
                  "name": "boost",
                  "type": "uint256"
                }
              ],
              "internalType": "struct IZoo.Rarity",
              "name": "rarity",
              "type": "tuple"
            },
            {
              "internalType": "enum IZoo.Type",
              "name": "kind",
              "type": "uint8"
            },
            {
              "internalType": "string",
              "name": "name",
              "type": "string"
            },
            {
              "internalType": "uint256",
              "name": "id",
              "type": "uint256"
            },
            {
              "internalType": "uint256",
              "name": "timestamp",
              "type": "uint256"
            },
            {
              "internalType": "uint256",
              "name": "birthday",
              "type": "uint256"
            },
            {
              "internalType": "string",
              "name": "customName",
              "type": "string"
            },
            {
              "components": [
                {
                  "internalType": "string",
                  "name": "animalA",
                  "type": "string"
                },
                {
                  "internalType": "string",
                  "name": "animalB",
                  "type": "string"
                },
                {
                  "internalType": "uint256",
                  "name": "tokenA",
                  "type": "uint256"
                },
                {
                  "internalType": "uint256",
                  "name": "tokenB",
                  "type": "uint256"
                }
              ],
              "internalType": "struct IZoo.Parents",
              "name": "parents",
              "type": "tuple"
            },
            {
              "components": [
                {
                  "internalType": "uint256",
                  "name": "count",
                  "type": "uint256"
                },
                {
                  "internalType": "uint256",
                  "name": "timestamp",
                  "type": "uint256"
                }
              ],
              "internalType": "struct IZoo.Breed",
              "name": "breed",
              "type": "tuple"
            },
            {
              "components": [
                {
                  "internalType": "uint256",
                  "name": "eggID",
                  "type": "uint256"
                },
                {
                  "internalType": "uint256",
                  "name": "dropID",
                  "type": "uint256"
                }
              ],
              "internalType": "struct IZoo.Meta",
              "name": "meta",
              "type": "tuple"
            },
            {
              "components": [
                {
                  "internalType": "string",
                  "name": "tokenURI",
                  "type": "string"
                },
                {
                  "internalType": "string",
                  "name": "metadataURI",
                  "type": "string"
                },
                {
                  "internalType": "bytes32",
                  "name": "contentHash",
                  "type": "bytes32"
                },
                {
                  "internalType": "bytes32",
                  "name": "metadataHash",
                  "type": "bytes32"
                }
              ],
              "internalType": "struct IMedia.MediaData",
              "name": "data",
              "type": "tuple"
            },
            {
              "components": [
                {
                  "components": [
                    {
                      "internalType": "uint256",
                      "name": "value",
                      "type": "uint256"
                    }
                  ],
                  "internalType": "struct Decimal.D256",
                  "name": "prevOwner",
                  "type": "tuple"
                },
                {
                  "components": [
                    {
                      "internalType": "uint256",
                      "name": "value",
                      "type": "uint256"
                    }
                  ],
                  "internalType": "struct Decimal.D256",
                  "name": "creator",
                  "type": "tuple"
                },
                {
                  "components": [
                    {
                      "internalType": "uint256",
                      "name": "value",
                      "type": "uint256"
                    }
                  ],
                  "internalType": "struct Decimal.D256",
                  "name": "owner",
                  "type": "tuple"
                }
              ],
              "internalType": "struct IMarket.BidShares",
              "name": "bidShares",
              "type": "tuple"
            }
          ],
          "internalType": "struct IZoo.Token",
          "name": "token",
          "type": "tuple"
        }
      ],
      "stateMutability": "view",
      "type": "function"
    },
    {
      "inputs": [],
      "name": "hybridEgg",
      "outputs": [
        {
          "internalType": "string",
          "name": "",
          "type": "string"
        }
      ],
      "stateMutability": "view",
      "type": "function"
    },
    {
      "inputs": [
        {
          "internalType": "string",
          "name": "",
          "type": "string"
        }
      ],
      "name": "hybridParents",
      "outputs": [
        {
          "internalType": "enum IZoo.Type",
          "name": "kind",
          "type": "uint8"
        },
        {
          "components": [
            {
              "internalType": "string",
              "name": "name",
              "type": "string"
            },
            {
              "internalType": "uint256",
              "name": "probability",
              "type": "uint256"
            },
            {
              "internalType": "uint256",
              "name": "yield",
              "type": "uint256"
            },
            {
              "internalType": "uint256",
              "name": "boost",
              "type": "uint256"
            }
          ],
          "internalType": "struct IZoo.Rarity",
          "name": "rarity",
          "type": "tuple"
        },
        {
          "internalType": "string",
          "name": "name",
          "type": "string"
        },
        {
          "internalType": "uint256",
          "name": "yield",
          "type": "uint256"
        },
        {
          "internalType": "string",
          "name": "parentA",
          "type": "string"
        },
        {
          "internalType": "string",
          "name": "parentB",
          "type": "string"
        },
        {
          "components": [
            {
              "internalType": "string",
              "name": "tokenURI",
              "type": "string"
            },
            {
              "internalType": "string",
              "name": "metadataURI",
              "type": "string"
            },
            {
              "internalType": "bytes32",
              "name": "contentHash",
              "type": "bytes32"
            },
            {
              "internalType": "bytes32",
              "name": "metadataHash",
              "type": "bytes32"
            }
          ],
          "internalType": "struct IMedia.MediaData",
          "name": "data",
          "type": "tuple"
        },
        {
          "components": [
            {
              "components": [
                {
                  "internalType": "uint256",
                  "name": "value",
                  "type": "uint256"
                }
              ],
              "internalType": "struct Decimal.D256",
              "name": "prevOwner",
              "type": "tuple"
            },
            {
              "components": [
                {
                  "internalType": "uint256",
                  "name": "value",
                  "type": "uint256"
                }
              ],
              "internalType": "struct Decimal.D256",
              "name": "creator",
              "type": "tuple"
            },
            {
              "components": [
                {
                  "internalType": "uint256",
                  "name": "value",
                  "type": "uint256"
                }
              ],
              "internalType": "struct Decimal.D256",
              "name": "owner",
              "type": "tuple"
            }
          ],
          "internalType": "struct IMarket.BidShares",
          "name": "bidShares",
          "type": "tuple"
        }
      ],
      "stateMutability": "view",
      "type": "function"
    },
    {
      "inputs": [],
      "name": "hybridSupply",
      "outputs": [
        {
          "internalType": "uint256",
          "name": "",
          "type": "uint256"
        }
      ],
      "stateMutability": "view",
      "type": "function"
    },
    {
      "inputs": [
        {
          "internalType": "string",
          "name": "",
          "type": "string"
        }
      ],
      "name": "hybrids",
      "outputs": [
        {
          "internalType": "enum IZoo.Type",
          "name": "kind",
          "type": "uint8"
        },
        {
          "components": [
            {
              "internalType": "string",
              "name": "name",
              "type": "string"
            },
            {
              "internalType": "uint256",
              "name": "probability",
              "type": "uint256"
            },
            {
              "internalType": "uint256",
              "name": "yield",
              "type": "uint256"
            },
            {
              "internalType": "uint256",
              "name": "boost",
              "type": "uint256"
            }
          ],
          "internalType": "struct IZoo.Rarity",
          "name": "rarity",
          "type": "tuple"
        },
        {
          "internalType": "string",
          "name": "name",
          "type": "string"
        },
        {
          "internalType": "uint256",
          "name": "yield",
          "type": "uint256"
        },
        {
          "internalType": "string",
          "name": "parentA",
          "type": "string"
        },
        {
          "internalType": "string",
          "name": "parentB",
          "type": "string"
        },
        {
          "components": [
            {
              "internalType": "string",
              "name": "tokenURI",
              "type": "string"
            },
            {
              "internalType": "string",
              "name": "metadataURI",
              "type": "string"
            },
            {
              "internalType": "bytes32",
              "name": "contentHash",
              "type": "bytes32"
            },
            {
              "internalType": "bytes32",
              "name": "metadataHash",
              "type": "bytes32"
            }
          ],
          "internalType": "struct IMedia.MediaData",
          "name": "data",
          "type": "tuple"
        },
        {
          "components": [
            {
              "components": [
                {
                  "internalType": "uint256",
                  "name": "value",
                  "type": "uint256"
                }
              ],
              "internalType": "struct Decimal.D256",
              "name": "prevOwner",
              "type": "tuple"
            },
            {
              "components": [
                {
                  "internalType": "uint256",
                  "name": "value",
                  "type": "uint256"
                }
              ],
              "internalType": "struct Decimal.D256",
              "name": "creator",
              "type": "tuple"
            },
            {
              "components": [
                {
                  "internalType": "uint256",
                  "name": "value",
                  "type": "uint256"
                }
              ],
              "internalType": "struct Decimal.D256",
              "name": "owner",
              "type": "tuple"
            }
          ],
          "internalType": "struct IMarket.BidShares",
          "name": "bidShares",
          "type": "tuple"
        }
      ],
      "stateMutability": "view",
      "type": "function"
    },
    {
      "inputs": [],
      "name": "keeperAddress",
      "outputs": [
        {
          "internalType": "address",
          "name": "",
          "type": "address"
        }
      ],
      "stateMutability": "view",
      "type": "function"
    },
    {
      "inputs": [],
      "name": "newEgg",
      "outputs": [
        {
          "components": [
            {
              "components": [
                {
                  "internalType": "string",
                  "name": "name",
                  "type": "string"
                },
                {
                  "internalType": "uint256",
                  "name": "probability",
                  "type": "uint256"
                },
                {
                  "internalType": "uint256",
                  "name": "yield",
                  "type": "uint256"
                },
                {
                  "internalType": "uint256",
                  "name": "boost",
                  "type": "uint256"
                }
              ],
              "internalType": "struct IZoo.Rarity",
              "name": "rarity",
              "type": "tuple"
            },
            {
              "internalType": "enum IZoo.Type",
              "name": "kind",
              "type": "uint8"
            },
            {
              "internalType": "string",
              "name": "name",
              "type": "string"
            },
            {
              "internalType": "uint256",
              "name": "id",
              "type": "uint256"
            },
            {
              "internalType": "uint256",
              "name": "timestamp",
              "type": "uint256"
            },
            {
              "internalType": "uint256",
              "name": "birthday",
              "type": "uint256"
            },
            {
              "internalType": "string",
              "name": "customName",
              "type": "string"
            },
            {
              "components": [
                {
                  "internalType": "string",
                  "name": "animalA",
                  "type": "string"
                },
                {
                  "internalType": "string",
                  "name": "animalB",
                  "type": "string"
                },
                {
                  "internalType": "uint256",
                  "name": "tokenA",
                  "type": "uint256"
                },
                {
                  "internalType": "uint256",
                  "name": "tokenB",
                  "type": "uint256"
                }
              ],
              "internalType": "struct IZoo.Parents",
              "name": "parents",
              "type": "tuple"
            },
            {
              "components": [
                {
                  "internalType": "uint256",
                  "name": "count",
                  "type": "uint256"
                },
                {
                  "internalType": "uint256",
                  "name": "timestamp",
                  "type": "uint256"
                }
              ],
              "internalType": "struct IZoo.Breed",
              "name": "breed",
              "type": "tuple"
            },
            {
              "components": [
                {
                  "internalType": "uint256",
                  "name": "eggID",
                  "type": "uint256"
                },
                {
                  "internalType": "uint256",
                  "name": "dropID",
                  "type": "uint256"
                }
              ],
              "internalType": "struct IZoo.Meta",
              "name": "meta",
              "type": "tuple"
            },
            {
              "components": [
                {
                  "internalType": "string",
                  "name": "tokenURI",
                  "type": "string"
                },
                {
                  "internalType": "string",
                  "name": "metadataURI",
                  "type": "string"
                },
                {
                  "internalType": "bytes32",
                  "name": "contentHash",
                  "type": "bytes32"
                },
                {
                  "internalType": "bytes32",
                  "name": "metadataHash",
                  "type": "bytes32"
                }
              ],
              "internalType": "struct IMedia.MediaData",
              "name": "data",
              "type": "tuple"
            },
            {
              "components": [
                {
                  "components": [
                    {
                      "internalType": "uint256",
                      "name": "value",
                      "type": "uint256"
                    }
                  ],
                  "internalType": "struct Decimal.D256",
                  "name": "prevOwner",
                  "type": "tuple"
                },
                {
                  "components": [
                    {
                      "internalType": "uint256",
                      "name": "value",
                      "type": "uint256"
                    }
                  ],
                  "internalType": "struct Decimal.D256",
                  "name": "creator",
                  "type": "tuple"
                },
                {
                  "components": [
                    {
                      "internalType": "uint256",
                      "name": "value",
                      "type": "uint256"
                    }
                  ],
                  "internalType": "struct Decimal.D256",
                  "name": "owner",
                  "type": "tuple"
                }
              ],
              "internalType": "struct IMarket.BidShares",
              "name": "bidShares",
              "type": "tuple"
            }
          ],
          "internalType": "struct IZoo.Token",
          "name": "",
          "type": "tuple"
        }
      ],
      "stateMutability": "nonpayable",
      "type": "function"
    },
    {
      "inputs": [
        {
          "components": [
            {
              "internalType": "string",
              "name": "animalA",
              "type": "string"
            },
            {
              "internalType": "string",
              "name": "animalB",
              "type": "string"
            },
            {
              "internalType": "uint256",
              "name": "tokenA",
              "type": "uint256"
            },
            {
              "internalType": "uint256",
              "name": "tokenB",
              "type": "uint256"
            }
          ],
          "internalType": "struct IZoo.Parents",
          "name": "parents",
          "type": "tuple"
        }
      ],
      "name": "newHybridEgg",
      "outputs": [
        {
          "components": [
            {
              "components": [
                {
                  "internalType": "string",
                  "name": "name",
                  "type": "string"
                },
                {
                  "internalType": "uint256",
                  "name": "probability",
                  "type": "uint256"
                },
                {
                  "internalType": "uint256",
                  "name": "yield",
                  "type": "uint256"
                },
                {
                  "internalType": "uint256",
                  "name": "boost",
                  "type": "uint256"
                }
              ],
              "internalType": "struct IZoo.Rarity",
              "name": "rarity",
              "type": "tuple"
            },
            {
              "internalType": "enum IZoo.Type",
              "name": "kind",
              "type": "uint8"
            },
            {
              "internalType": "string",
              "name": "name",
              "type": "string"
            },
            {
              "internalType": "uint256",
              "name": "id",
              "type": "uint256"
            },
            {
              "internalType": "uint256",
              "name": "timestamp",
              "type": "uint256"
            },
            {
              "internalType": "uint256",
              "name": "birthday",
              "type": "uint256"
            },
            {
              "internalType": "string",
              "name": "customName",
              "type": "string"
            },
            {
              "components": [
                {
                  "internalType": "string",
                  "name": "animalA",
                  "type": "string"
                },
                {
                  "internalType": "string",
                  "name": "animalB",
                  "type": "string"
                },
                {
                  "internalType": "uint256",
                  "name": "tokenA",
                  "type": "uint256"
                },
                {
                  "internalType": "uint256",
                  "name": "tokenB",
                  "type": "uint256"
                }
              ],
              "internalType": "struct IZoo.Parents",
              "name": "parents",
              "type": "tuple"
            },
            {
              "components": [
                {
                  "internalType": "uint256",
                  "name": "count",
                  "type": "uint256"
                },
                {
                  "internalType": "uint256",
                  "name": "timestamp",
                  "type": "uint256"
                }
              ],
              "internalType": "struct IZoo.Breed",
              "name": "breed",
              "type": "tuple"
            },
            {
              "components": [
                {
                  "internalType": "uint256",
                  "name": "eggID",
                  "type": "uint256"
                },
                {
                  "internalType": "uint256",
                  "name": "dropID",
                  "type": "uint256"
                }
              ],
              "internalType": "struct IZoo.Meta",
              "name": "meta",
              "type": "tuple"
            },
            {
              "components": [
                {
                  "internalType": "string",
                  "name": "tokenURI",
                  "type": "string"
                },
                {
                  "internalType": "string",
                  "name": "metadataURI",
                  "type": "string"
                },
                {
                  "internalType": "bytes32",
                  "name": "contentHash",
                  "type": "bytes32"
                },
                {
                  "internalType": "bytes32",
                  "name": "metadataHash",
                  "type": "bytes32"
                }
              ],
              "internalType": "struct IMedia.MediaData",
              "name": "data",
              "type": "tuple"
            },
            {
              "components": [
                {
                  "components": [
                    {
                      "internalType": "uint256",
                      "name": "value",
                      "type": "uint256"
                    }
                  ],
                  "internalType": "struct Decimal.D256",
                  "name": "prevOwner",
                  "type": "tuple"
                },
                {
                  "components": [
                    {
                      "internalType": "uint256",
                      "name": "value",
                      "type": "uint256"
                    }
                  ],
                  "internalType": "struct Decimal.D256",
                  "name": "creator",
                  "type": "tuple"
                },
                {
                  "components": [
                    {
                      "internalType": "uint256",
                      "name": "value",
                      "type": "uint256"
                    }
                  ],
                  "internalType": "struct Decimal.D256",
                  "name": "owner",
                  "type": "tuple"
                }
              ],
              "internalType": "struct IMarket.BidShares",
              "name": "bidShares",
              "type": "tuple"
            }
          ],
          "internalType": "struct IZoo.Token",
          "name": "",
          "type": "tuple"
        }
      ],
      "stateMutability": "view",
      "type": "function"
    },
    {
      "inputs": [],
      "name": "owner",
      "outputs": [
        {
          "internalType": "address",
          "name": "",
          "type": "address"
        }
      ],
      "stateMutability": "view",
      "type": "function"
    },
    {
      "inputs": [
        {
          "internalType": "string",
          "name": "",
          "type": "string"
        }
      ],
      "name": "rarities",
      "outputs": [
        {
          "internalType": "string",
          "name": "name",
          "type": "string"
        },
        {
          "internalType": "uint256",
          "name": "probability",
          "type": "uint256"
        },
        {
          "internalType": "uint256",
          "name": "yield",
          "type": "uint256"
        },
        {
          "internalType": "uint256",
          "name": "boost",
          "type": "uint256"
        }
      ],
      "stateMutability": "view",
      "type": "function"
    },
    {
      "inputs": [
        {
          "internalType": "string",
          "name": "",
          "type": "string"
        },
        {
          "internalType": "uint256",
          "name": "",
          "type": "uint256"
        }
      ],
      "name": "rarityAnimals",
      "outputs": [
        {
          "internalType": "string",
          "name": "",
          "type": "string"
        }
      ],
      "stateMutability": "view",
      "type": "function"
    },
    {
      "inputs": [
        {
          "internalType": "uint256",
          "name": "",
          "type": "uint256"
        }
      ],
      "name": "raritySorted",
      "outputs": [
        {
          "internalType": "string",
          "name": "",
          "type": "string"
        }
      ],
      "stateMutability": "view",
      "type": "function"
    },
    {
      "inputs": [],
      "name": "renounceOwnership",
      "outputs": [],
      "stateMutability": "nonpayable",
      "type": "function"
    },
    {
      "inputs": [
        {
          "internalType": "string",
          "name": "name",
          "type": "string"
        },
        {
          "internalType": "string",
          "name": "rarity",
          "type": "string"
        },
        {
          "internalType": "string",
          "name": "tokenURI",
          "type": "string"
        },
        {
          "internalType": "string",
          "name": "metadataURI",
          "type": "string"
        }
      ],
      "name": "setAnimal",
      "outputs": [
        {
          "internalType": "bool",
          "name": "",
          "type": "bool"
        }
      ],
      "stateMutability": "nonpayable",
      "type": "function"
    },
    {
      "inputs": [
        {
          "internalType": "string",
          "name": "name",
          "type": "string"
        },
        {
          "internalType": "uint256",
          "name": "price",
          "type": "uint256"
        },
        {
          "internalType": "uint256",
          "name": "supply",
          "type": "uint256"
        },
        {
          "internalType": "string",
          "name": "tokenURI",
          "type": "string"
        },
        {
          "internalType": "string",
          "name": "metadataURI",
          "type": "string"
        }
      ],
      "name": "setEgg",
      "outputs": [
        {
          "components": [
            {
              "internalType": "enum IZoo.Type",
              "name": "kind",
              "type": "uint8"
            },
            {
              "internalType": "string",
              "name": "name",
              "type": "string"
            },
            {
              "internalType": "uint256",
              "name": "supply",
              "type": "uint256"
            },
            {
              "internalType": "uint256",
              "name": "price",
              "type": "uint256"
            },
            {
              "internalType": "uint256",
              "name": "timestamp",
              "type": "uint256"
            },
            {
              "internalType": "uint256",
              "name": "birthday",
              "type": "uint256"
            },
            {
              "internalType": "uint256",
              "name": "minted",
              "type": "uint256"
            },
            {
              "components": [
                {
                  "internalType": "string",
                  "name": "tokenURI",
                  "type": "string"
                },
                {
                  "internalType": "string",
                  "name": "metadataURI",
                  "type": "string"
                },
                {
                  "internalType": "bytes32",
                  "name": "contentHash",
                  "type": "bytes32"
                },
                {
                  "internalType": "bytes32",
                  "name": "metadataHash",
                  "type": "bytes32"
                }
              ],
              "internalType": "struct IMedia.MediaData",
              "name": "data",
              "type": "tuple"
            },
            {
              "components": [
                {
                  "components": [
                    {
                      "internalType": "uint256",
                      "name": "value",
                      "type": "uint256"
                    }
                  ],
                  "internalType": "struct Decimal.D256",
                  "name": "prevOwner",
                  "type": "tuple"
                },
                {
                  "components": [
                    {
                      "internalType": "uint256",
                      "name": "value",
                      "type": "uint256"
                    }
                  ],
                  "internalType": "struct Decimal.D256",
                  "name": "creator",
                  "type": "tuple"
                },
                {
                  "components": [
                    {
                      "internalType": "uint256",
                      "name": "value",
                      "type": "uint256"
                    }
                  ],
                  "internalType": "struct Decimal.D256",
                  "name": "owner",
                  "type": "tuple"
                }
              ],
              "internalType": "struct IMarket.BidShares",
              "name": "bidShares",
              "type": "tuple"
            }
          ],
          "internalType": "struct ZooDrop.Egg",
          "name": "",
          "type": "tuple"
        }
      ],
      "stateMutability": "nonpayable",
      "type": "function"
    },
    {
      "inputs": [
        {
          "internalType": "string",
          "name": "name",
          "type": "string"
        },
        {
          "internalType": "string",
          "name": "rarity",
          "type": "string"
        },
        {
          "internalType": "uint256",
          "name": "yield",
          "type": "uint256"
        },
        {
          "internalType": "string",
          "name": "parentA",
          "type": "string"
        },
        {
          "internalType": "string",
          "name": "parentB",
          "type": "string"
        },
        {
          "internalType": "string",
          "name": "tokenURI",
          "type": "string"
        },
        {
          "internalType": "string",
          "name": "metadataURI",
          "type": "string"
        }
      ],
      "name": "setHybrid",
      "outputs": [
        {
          "internalType": "bool",
          "name": "",
          "type": "bool"
        }
      ],
      "stateMutability": "nonpayable",
      "type": "function"
    },
    {
      "inputs": [
        {
          "internalType": "string",
          "name": "name",
          "type": "string"
        },
        {
          "internalType": "uint256",
          "name": "probability",
          "type": "uint256"
        },
        {
          "internalType": "uint256",
          "name": "yield",
          "type": "uint256"
        },
        {
          "internalType": "uint256",
          "name": "boost",
          "type": "uint256"
        }
      ],
      "name": "setRarity",
      "outputs": [
        {
          "internalType": "bool",
          "name": "",
          "type": "bool"
        }
      ],
      "stateMutability": "nonpayable",
      "type": "function"
    },
    {
      "inputs": [],
      "name": "title",
      "outputs": [
        {
          "internalType": "string",
          "name": "",
          "type": "string"
        }
      ],
      "stateMutability": "view",
      "type": "function"
    },
    {
      "inputs": [],
      "name": "totalSupply",
      "outputs": [
        {
          "internalType": "uint256",
          "name": "",
          "type": "uint256"
        }
      ],
      "stateMutability": "view",
      "type": "function"
    },
    {
      "inputs": [
        {
          "internalType": "address",
          "name": "newOwner",
          "type": "address"
        }
      ],
      "name": "transferOwnership",
      "outputs": [],
      "stateMutability": "nonpayable",
      "type": "function"
    }
  ],
  "transactionHash": "0x49e5ed74da989f3259295470133aa3e68538fc21364e68d68e7cdf146fe4bf34",
  "args": [
    "Gen 0"
  ],
  "solcInputHash": "f8aaf6001fa3bb8ae68d40867e1e4717",
  "bytecode": "0x60806040523480156200001157600080fd5b506040516200478e3803806200478e833981016040819052620000349162000152565b6200003f336200005c565b805162000054906001906020840190620000ac565b50506200027b565b600080546001600160a01b038381166001600160a01b0319831681178455604051919092169283917f8be0079c531659141344cd1fd0a4f28419497f9722a3daafe3b4186f6b6457e09190a35050565b828054620000ba9062000228565b90600052602060002090601f016020900481019282620000de576000855562000129565b82601f10620000f957805160ff191683800117855562000129565b8280016001018555821562000129579182015b82811115620001295782518255916020019190600101906200010c565b50620001379291506200013b565b5090565b5b808211156200013757600081556001016200013c565b6000602080838503121562000165578182fd5b82516001600160401b03808211156200017c578384fd5b818501915085601f83011262000190578384fd5b815181811115620001a557620001a562000265565b604051601f8201601f19908116603f01168101908382118183101715620001d057620001d062000265565b816040528281528886848701011115620001e8578687fd5b8693505b828410156200020b5784840186015181850187015292850192620001ec565b828411156200021c57868684830101525b98975050505050505050565b600181811c908216806200023d57607f821691505b602082108114156200025f57634e487b7160e01b600052602260045260246000fd5b50919050565b634e487b7160e01b600052604160045260246000fd5b614503806200028b6000396000f3fe608060405234801561001057600080fd5b50600436106101545760003560e01c806301dca3b7146101595780630489a8f61461017757806308f8bcc61461018c57806318160ddd1461019f57806319c920b5146101b557806325fcf635146101d8578063305e35521461020057806335c3a2d4146102085780633b5c98561461021b5780634a79d50c1461022e57806351b2440b14610236578063715018a6146102495780637e617eca146102535780638398c91f146102775780638da5cb5b1461027f5780639447c33d1461029f5780639908a82a146102c2578063b67a85bd146102ca578063ba349bde146102dd578063bc143506146102f0578063c2b9bd6314610310578063c4903d2d14610323578063c7d8b6c51461034a578063d232b7971461035d578063e82baf3014610365578063ee99608e14610378578063f2fde38b1461038b578063f51c654f1461039e575b600080fd5b6101616103b1565b60405161016e919061409a565b60405180910390f35b61017f61043f565b60405161016e91906142d0565b61017f61019a366004613d9f565b610794565b6101a7610e5b565b60405190815260200161016e565b6101c86101c3366004613aa4565b610e76565b604051901515815260200161016e565b6101eb6101e6366004613a0a565b61102f565b60405161016e99989796959493929190613f34565b6101a7611287565b610161610216366004613d9f565b6112a2565b61017f610229366004613db7565b6112cd565b610161611397565b6101c8610244366004613b4b565b6113a4565b61025161170a565b005b610266610261366004613a0a565b611745565b60405161016e959493929190613fa6565b610161611a3e565b610287611a4b565b6040516001600160a01b03909116815260200161016e565b6102b26102ad366004613a0a565b611a5a565b60405161016e9493929190614181565b6101a7611b15565b600454610287906001600160a01b031681565b6101616102eb366004613c43565b611b30565b6103036102fe366004613c85565b611b77565b60405161016e9190614231565b61025161031e3660046139dc565b611d03565b610336610331366004613a0a565b611d54565b60405161016e989796959493929190614006565b610336610358366004613a0a565b61216f565b6101a76121af565b61017f610373366004613d6d565b6121c1565b610251610386366004613a44565b61232e565b6102516103993660046139dc565b612389565b6101c86103ac366004613d1c565b612429565b600380546103be90614431565b80601f01602080910402602001604051908101604052809291908181526020018280546103ea90614431565b80156104375780601f1061040c57610100808354040283529160200191610437565b820191906000526020600020905b81548152906001019060200180831161041a57829003601f168201915b505050505081565b6104476134d3565b6004546001600160a01b0316331461047a5760405162461bcd60e51b8152600401610471906141e5565b60405180910390fd5b600061050f6002805461048c90614431565b80601f01602080910402602001604051908101604052809291908181526020018280546104b890614431565b80156105055780601f106104da57610100808354040283529160200191610505565b820191906000526020600020905b8154815290600101906020018083116104e857829003601f168201915b5050505050612579565b90506105196121af565b158061052f57506105286121af565b8160c00151105b6105695760405162461bcd60e51b815260206004820152600b60248201526a4f7574206f66206567677360a81b6044820152606401610471565b60c0810180519061057982614466565b8152505080600882602001516040516105929190613ee9565b90815260405190819003602001902081518154829060ff191660018360038111156105cd57634e487b7160e01b600052602160045260246000fd5b021790555060208281015180516105ea92600185019201906135a4565b5060408201516002820155606082015160038201556080820151600482015560a0820151600582015560c0820151600682015560e082015180518051600784019161063a918391602001906135a4565b50602082810151805161065392600185019201906135a4565b5060408281015160028301556060909201516003909101556101009290920151805151600b830155602081015151600c83015582015151600d9091015580516101c08101909152600661018082019081526521b7b6b6b7b760d11b6101a083015281906106bf9061284d565b81526020016000815260200182602001518152602001600081526020014281526020014381526020016040518060200160405280600081525081526020016040518060800160405280604051806020016040528060008152508152602001604051806020016040528060008152508152602001600081526020016000815250815260200160405180604001604052806000815260200160008152508152602001604051806040016040528060008152602001600081525081526020018260e00151815260200182610100015181525091505090565b61079c6134d3565b6107a4613628565b6107d56040518060400160405280600f81526020016e19d95d14985b991bdb505b9a5b585b608a1b81525084612935565b6040805180820190915260138152720e4c2e4d2e8f2a6dee4e8cac85cd8cadccee8d606b1b602082015260075461080c9190612935565b60005b600754811015610d545760006007828154811061083c57634e487b7160e01b600052603260045260246000fd5b90600052602060002001805461085190614431565b80601f016020809104026020016040519081016040528092919081815260200182805461087d90614431565b80156108ca5780601f1061089f576101008083540402835291602001916108ca565b820191906000526020600020905b8154815290600101906020018083116108ad57829003601f168201915b5050505050905060006005826040516108e39190613ee9565b908152602001604051809103902060405180608001604052908160008201805461090c90614431565b80601f016020809104026020016040519081016040528092919081815260200182805461093890614431565b80156109855780601f1061095a57610100808354040283529160200191610985565b820191906000526020600020905b81548152906001019060200180831161096857829003601f168201915b50505050508152602001600182015481526020016002820154815260200160038201548152505090506109db6040518060400160405280600b81526020016a7261726974792e6e616d6560a81b8152508361297e565b610a13604051806040016040528060128152602001717261726974792e70726f626162696c69747960701b8152508260200151612935565b610be36040518060400160405280600d81526020016c726172697479416e696d616c7360981b815250600684604051610a4c9190613ee9565b9081526020016040518091039020600081548110610a7a57634e487b7160e01b600052603260045260246000fd5b906000526020600020018054610a8f90614431565b80601f0160208091040260200160405190810160405280929190818152602001828054610abb90614431565b8015610b085780601f10610add57610100808354040283529160200191610b08565b820191906000526020600020905b815481529060010190602001808311610aeb57829003601f168201915b5050505050600685604051610b1d9190613ee9565b9081526020016040518091039020600181548110610b4b57634e487b7160e01b600052603260045260246000fd5b906000526020600020018054610b6090614431565b80601f0160208091040260200160405190810160405280929190818152602001828054610b8c90614431565b8015610bd95780601f10610bae57610100808354040283529160200191610bd9565b820191906000526020600020905b815481529060010190602001808311610bbc57829003601f168201915b50505050506129c3565b8581602001511180610c025750600754610bff906001906143ee565b83145b15610d3f576000600683604051610c199190613ee9565b9081526020016040518091039020805480602002602001604051908101604052809291908181526020016000905b82821015610cf3578382906000526020600020018054610c6690614431565b80601f0160208091040260200160405190810160405280929190818152602001828054610c9290614431565b8015610cdf5780601f10610cb457610100808354040283529160200191610cdf565b820191906000526020600020905b815481529060010190602001808311610cc257829003601f168201915b505050505081526020019060010190610c47565b505050509050610d3581825189610d0a9190614481565b81518110610d2857634e487b7160e01b600052603260045260246000fd5b6020026020010151612a0a565b9450505050610d54565b50508080610d4c90614466565b91505061080f565b506001602083810191909152604082810180518286015260608401516101408601528383018051865260808086015161016088015242908701524360a087015282518084018452600c81526b1c985b991bdb505b9a5b585b60a21b94810194909452905190518051920151610dca939290612d6f565b610e0e6040518060400160405280601a81526020017972616e646f6d416e696d616c2e646174612e746f6b656e55524960301b81525082606001516000015161297e565b610e556040518060400160405280601d81526020017f72616e646f6d416e696d616c2e646174612e6d6574616461746155524900000081525082606001516020015161297e565b50919050565b6000610e6d6002805461048c90614431565b60c00151905090565b600033610e81611a4b565b6001600160a01b031614610ea75760405162461bcd60e51b8152600401610471906141b0565b6040805160a081019091526000908060018152602001610ec68761284d565b8152602001878152602001610edb8686612dbe565b8152602001610ee8612dec565b815250905080600987604051610efe9190613ee9565b90815260405190819003602001902081518154829060ff19166001836003811115610f3957634e487b7160e01b600052602160045260246000fd5b02179055506020828101518051805191926001850192610f5c92849201906135a4565b5060208201518160010155604082015181600201556060820151816003015550506040820151816005019080519060200190610f999291906135a4565b506060820151805180516006840191610fb7918391602001906135a4565b506020828101518051610fd092600185019201906135a4565b50604082810151600283015560609092015160039091015560809290920151805151600a83015560208082015151600b8401559083015151600c9092019190915582015151908201516110239190612e2f565b50600195945050505050565b80516020818301810180516008825292820191909301209152805460018201805460ff909216929161106090614431565b80601f016020809104026020016040519081016040528092919081815260200182805461108c90614431565b80156110d95780601f106110ae576101008083540402835291602001916110d9565b820191906000526020600020905b8154815290600101906020018083116110bc57829003601f168201915b5050505050908060020154908060030154908060040154908060050154908060060154908060070160405180608001604052908160008201805461111c90614431565b80601f016020809104026020016040519081016040528092919081815260200182805461114890614431565b80156111955780601f1061116a57610100808354040283529160200191611195565b820191906000526020600020905b81548152906001019060200180831161117857829003601f168201915b505050505081526020016001820180546111ae90614431565b80601f01602080910402602001604051908101604052809291908181526020018280546111da90614431565b80156112275780601f106111fc57610100808354040283529160200191611227565b820191906000526020600020905b81548152906001019060200180831161120a57829003601f168201915b505050918352505060028201546020808301919091526003909201546040918201528051608081018252600b85015460608201908152815281518084018352600c86015481528184015281519283018252600d9094015482528301529089565b60006112996002805461048c90614431565b60600151905090565b600781815481106112b257600080fd5b9060005260206000200160009150905080546103be90614431565b6112d56134d3565b600060405180604001604052806112f485600001518660200151612f98565b815260200161130b85602001518660000151612f98565b9052905060008161131d600287614481565b6002811061133b57634e487b7160e01b600052603260045260246000fd5b602090810291909101516003858301526040808201518187015260c082015161014087015291810151808652606082015192019190915260e0908101516101608501524260808501524360a08501528301939093525092915050565b600180546103be90614431565b6000336113af611a4b565b6001600160a01b0316146113d55760405162461bcd60e51b8152600401610471906141b0565b60408051610100810190915260009080600381526020016113f58a61284d565b81526020018a815260200188815260200187815260200186815260200161141c8686612dbe565b8152602001611429612dec565b815250905080600a8a60405161143f9190613ee9565b90815260405190819003602001902081518154829060ff1916600183600381111561147a57634e487b7160e01b600052602160045260246000fd5b0217905550602082810151805180519192600185019261149d92849201906135a4565b50602082015181600101556040820151816002015560608201518160030155505060408201518160050190805190602001906114da9291906135a4565b5060608201516006820155608082015180516115009160078401916020909101906135a4565b5060a0820151805161151c9160088401916020909101906135a4565b5060c082015180518051600984019161153a918391602001906135a4565b50602082810151805161155392600185019201906135a4565b50604082810151600283015560609092015160039091015560e09290920151805151600d830155602081015151600e8301559091015151600f9091015580600b61159d8888613436565b6040516115aa9190613ee9565b90815260405190819003602001902081518154829060ff191660018360038111156115e557634e487b7160e01b600052602160045260246000fd5b0217905550602082810151805180519192600185019261160892849201906135a4565b50602082015181600101556040820151816002015560608201518160030155505060408201518160050190805190602001906116459291906135a4565b50606082015160068201556080820151805161166b9160078401916020909101906135a4565b5060a082015180516116879160088401916020909101906135a4565b5060c08201518051805160098401916116a5918391602001906135a4565b5060208281015180516116be92600185019201906135a4565b50604082810151600283015560609092015160039091015560e09290920151805151600d830155602081015151600e8301559091015151600f9091015550600198975050505050505050565b33611713611a4b565b6001600160a01b0316146117395760405162461bcd60e51b8152600401610471906141b0565b6117436000613462565b565b805160208183018101805160098252928201919093012091528054604080516080810190915260018301805460ff90931693928290829061178590614431565b80601f01602080910402602001604051908101604052809291908181526020018280546117b190614431565b80156117fe5780601f106117d3576101008083540402835291602001916117fe565b820191906000526020600020905b8154815290600101906020018083116117e157829003601f168201915b5050505050815260200160018201548152602001600282015481526020016003820154815250509080600501805461183590614431565b80601f016020809104026020016040519081016040528092919081815260200182805461186190614431565b80156118ae5780601f10611883576101008083540402835291602001916118ae565b820191906000526020600020905b81548152906001019060200180831161189157829003601f168201915b505050505090806006016040518060800160405290816000820180546118d390614431565b80601f01602080910402602001604051908101604052809291908181526020018280546118ff90614431565b801561194c5780601f106119215761010080835404028352916020019161194c565b820191906000526020600020905b81548152906001019060200180831161192f57829003601f168201915b5050505050815260200160018201805461196590614431565b80601f016020809104026020016040519081016040528092919081815260200182805461199190614431565b80156119de5780601f106119b3576101008083540402835291602001916119de565b820191906000526020600020905b8154815290600101906020018083116119c157829003601f168201915b505050918352505060028201546020808301919091526003909201546040918201528051608081018252600a85015460608201908152815281518084018352600b86015481528184015281519283018252600c9094015482528301529085565b600280546103be90614431565b6000546001600160a01b031690565b8051602081830181018051600582529282019190930120915280548190611a8090614431565b80601f0160208091040260200160405190810160405280929190818152602001828054611aac90614431565b8015611af95780601f10611ace57610100808354040283529160200191611af9565b820191906000526020600020905b815481529060010190602001808311611adc57829003601f168201915b5050505050908060010154908060020154908060030154905084565b6000611b276003805461048c90614431565b60400151905090565b81516020818401810180516006825292820191850191909120919052805482908110611b5b57600080fd5b906000526020600020016000915091505080546103be90614431565b611b7f613657565b33611b88611a4b565b6001600160a01b031614611bae5760405162461bcd60e51b8152600401610471906141b0565b611bb6613657565b60208101879052611bc78484612dbe565b60e0820152611bd4612dec565b610100820152606081018690526040808201869052518190600890611bfa908a90613ee9565b90815260405190819003602001902081518154829060ff19166001836003811115611c3557634e487b7160e01b600052602160045260246000fd5b02179055506020828101518051611c5292600185019201906135a4565b5060408201516002820155606082015160038201556080820151600482015560a0820151600582015560c0820151600682015560e0820151805180516007840191611ca2918391602001906135a4565b506020828101518051611cbb92600185019201906135a4565b5060408281015160028301556060909201516003909101556101009290920151805151600b830155602081015151600c8301559091015151600d909101559695505050505050565b33611d0c611a4b565b6001600160a01b031614611d325760405162461bcd60e51b8152600401610471906141b0565b600480546001600160a01b0319166001600160a01b0392909216919091179055565b8051602081830181018051600a8252928201919093012091528054604080516080810190915260018301805460ff909316939282908290611d9490614431565b80601f0160208091040260200160405190810160405280929190818152602001828054611dc090614431565b8015611e0d5780601f10611de257610100808354040283529160200191611e0d565b820191906000526020600020905b815481529060010190602001808311611df057829003601f168201915b50505050508152602001600182015481526020016002820154815260200160038201548152505090806005018054611e4490614431565b80601f0160208091040260200160405190810160405280929190818152602001828054611e7090614431565b8015611ebd5780601f10611e9257610100808354040283529160200191611ebd565b820191906000526020600020905b815481529060010190602001808311611ea057829003601f168201915b505050505090806006015490806007018054611ed890614431565b80601f0160208091040260200160405190810160405280929190818152602001828054611f0490614431565b8015611f515780601f10611f2657610100808354040283529160200191611f51565b820191906000526020600020905b815481529060010190602001808311611f3457829003601f168201915b505050505090806008018054611f6690614431565b80601f0160208091040260200160405190810160405280929190818152602001828054611f9290614431565b8015611fdf5780601f10611fb457610100808354040283529160200191611fdf565b820191906000526020600020905b815481529060010190602001808311611fc257829003601f168201915b5050505050908060090160405180608001604052908160008201805461200490614431565b80601f016020809104026020016040519081016040528092919081815260200182805461203090614431565b801561207d5780601f106120525761010080835404028352916020019161207d565b820191906000526020600020905b81548152906001019060200180831161206057829003601f168201915b5050505050815260200160018201805461209690614431565b80601f01602080910402602001604051908101604052809291908181526020018280546120c290614431565b801561210f5780601f106120e45761010080835404028352916020019161210f565b820191906000526020600020905b8154815290600101906020018083116120f257829003601f168201915b505050918352505060028201546020808301919091526003909201546040918201528051608081018252600d85015460608201908152815281518084018352600e86015481528184015281519283018252600f9094015482528301529088565b8051602081830181018051600b8252928201919093012091528054604080516080810190915260018301805460ff909316939282908290611d9490614431565b6000611b276002805461048c90614431565b6121c96134d3565b6004546001600160a01b031633146121f35760405162461bcd60e51b8152600401610471906141e5565b60006122056003805461048c90614431565b905061220f611b15565b1580612225575061221e611b15565b8160c00151105b6122665760405162461bcd60e51b81526020600482015260126024820152714f7574206f6620687962726964206567677360701b6044820152606401610471565b604080516101c08101909152600661018082019081526521b7b6b6b7b760d11b6101a083015281906122979061284d565b815260200160028152602001826020015181526020016000815260200142815260200143815260200160405180602001604052806000815250815260200184815260200160405180604001604052806000815260200160008152508152602001604051806040016040528060008152602001600081525081526020018260e001518152602001826101000151815250915050919050565b33612337611a4b565b6001600160a01b03161461235d5760405162461bcd60e51b8152600401610471906141b0565b81516123709060029060208501906135a4565b5080516123849060039060208401906135a4565b505050565b33612392611a4b565b6001600160a01b0316146123b85760405162461bcd60e51b8152600401610471906141b0565b6001600160a01b03811661241d5760405162461bcd60e51b815260206004820152602660248201527f4f776e61626c653a206e6577206f776e657220697320746865207a65726f206160448201526564647265737360d01b6064820152608401610471565b61242681613462565b50565b600033612434611a4b565b6001600160a01b03161461245a5760405162461bcd60e51b8152600401610471906141b0565b600084116124a55760405162461bcd60e51b8152602060048201526018602482015277526172697479206d757374206265206f766572207a65726f60401b6044820152606401610471565b604080516080810182528681526020810186905280820185905260608101849052905181906005906124d8908990613ee9565b908152602001604051809103902060008201518160000190805190602001906125029291906135a4565b50602082810151600180840191909155604084015160028401556060909301516003909201919091558251600780549384018155600052805161256c937fa66cc928b5edb82af9bd49922954155ab7b0942694bea4ce44661d9a8736c688019291909101906135a4565b5060019695505050505050565b612581613657565b6008826040516125919190613ee9565b9081526040805191829003602001822061012083019091528054829060ff1660038111156125cf57634e487b7160e01b600052602160045260246000fd5b60038111156125ee57634e487b7160e01b600052602160045260246000fd5b815260200160018201805461260290614431565b80601f016020809104026020016040519081016040528092919081815260200182805461262e90614431565b801561267b5780601f106126505761010080835404028352916020019161267b565b820191906000526020600020905b81548152906001019060200180831161265e57829003601f168201915b505050505081526020016002820154815260200160038201548152602001600482015481526020016005820154815260200160068201548152602001600782016040518060800160405290816000820180546126d690614431565b80601f016020809104026020016040519081016040528092919081815260200182805461270290614431565b801561274f5780601f106127245761010080835404028352916020019161274f565b820191906000526020600020905b81548152906001019060200180831161273257829003601f168201915b5050505050815260200160018201805461276890614431565b80601f016020809104026020016040519081016040528092919081815260200182805461279490614431565b80156127e15780601f106127b6576101008083540402835291602001916127e1565b820191906000526020600020905b8154815290600101906020018083116127c457829003601f168201915b505050918352505060028201546020808301919091526003909201546040918201529183528151608081018352600b85015460608201908152815282518083018452600c86015481528183015282518083018452600d9095015485529182019390935291015292915050565b61285561369d565b6005826040516128659190613ee9565b908152602001604051809103902060405180608001604052908160008201805461288e90614431565b80601f01602080910402602001604051908101604052809291908181526020018280546128ba90614431565b80156129075780601f106128dc57610100808354040283529160200191612907565b820191906000526020600020905b8154815290600101906020018083116128ea57829003601f168201915b5050505050815260200160018201548152602001600282015481526020016003820154815250509050919050565b61297a828260405160240161294b92919061415f565b60408051601f198184030181529190526020810180516001600160e01b03166309710a9d60e41b1790526134b2565b5050565b61297a82826040516024016129949291906140ad565b60408051601f198184030181529190526020810180516001600160e01b0316634b5c427760e01b1790526134b2565b6123848383836040516024016129db939291906140db565b60408051601f198184030181529190526020810180516001600160e01b0316632ced7cef60e01b1790526134b2565b612a12613628565b600982604051612a229190613ee9565b9081526040805191829003602001822060a083019091528054829060ff166003811115612a5f57634e487b7160e01b600052602160045260246000fd5b6003811115612a7e57634e487b7160e01b600052602160045260246000fd5b815260200160018201604051806080016040529081600082018054612aa290614431565b80601f0160208091040260200160405190810160405280929190818152602001828054612ace90614431565b8015612b1b5780601f10612af057610100808354040283529160200191612b1b565b820191906000526020600020905b815481529060010190602001808311612afe57829003601f168201915b5050505050815260200160018201548152602001600282015481526020016003820154815250508152602001600582018054612b5690614431565b80601f0160208091040260200160405190810160405280929190818152602001828054612b8290614431565b8015612bcf5780601f10612ba457610100808354040283529160200191612bcf565b820191906000526020600020905b815481529060010190602001808311612bb257829003601f168201915b5050505050815260200160068201604051806080016040529081600082018054612bf890614431565b80601f0160208091040260200160405190810160405280929190818152602001828054612c2490614431565b8015612c715780601f10612c4657610100808354040283529160200191612c71565b820191906000526020600020905b815481529060010190602001808311612c5457829003601f168201915b50505050508152602001600182018054612c8a90614431565b80601f0160208091040260200160405190810160405280929190818152602001828054612cb690614431565b8015612d035780601f10612cd857610100808354040283529160200191612d03565b820191906000526020600020905b815481529060010190602001808311612ce657829003601f168201915b505050918352505060028201546020808301919091526003909201546040918201529183528151608081018352600a85015460608201908152815282518083018452600b86015481528183015282518083018452600c9095015485529182019390935291015292915050565b612db884848484604051602401612d899493929190614114565b60408051601f198184030181529190526020810180516001600160e01b0316639fd009f560e01b1790526134b2565b50505050565b612dc66136c5565b506040805160808101825292835260208301919091526000908201819052606082015290565b612df46136ec565b5060408051608081018252600a6060820181815282528251602081810185529181528183015282519081018352605081529181019190915290565b6000600683604051612e419190613ee9565b9081526020016040518091039020905060005b8154811015612f44576000828281548110612e7f57634e487b7160e01b600052603260045260246000fd5b906000526020600020018054612e9490614431565b80601f0160208091040260200160405190810160405280929190818152602001828054612ec090614431565b8015612f0d5780601f10612ee257610100808354040283529160200191612f0d565b820191906000526020600020905b815481529060010190602001808311612ef057829003601f168201915b50505050509050808051906020012084805190602001201415612f31575050505050565b5080612f3c81614466565b915050612e54565b50805460018101825560008281526020908190208451612f6b9391909101918501906135a4565b5080600684604051612f7d9190613ee9565b9081526040519081900360200190208154612db89290613719565b612fa061377b565b600b612fac8484613436565b604051612fb99190613ee9565b9081526040805191829003602001822061010083019091528054829060ff166003811115612ff757634e487b7160e01b600052602160045260246000fd5b600381111561301657634e487b7160e01b600052602160045260246000fd5b81526020016001820160405180608001604052908160008201805461303a90614431565b80601f016020809104026020016040519081016040528092919081815260200182805461306690614431565b80156130b35780601f10613088576101008083540402835291602001916130b3565b820191906000526020600020905b81548152906001019060200180831161309657829003601f168201915b50505050508152602001600182015481526020016002820154815260200160038201548152505081526020016005820180546130ee90614431565b80601f016020809104026020016040519081016040528092919081815260200182805461311a90614431565b80156131675780601f1061313c57610100808354040283529160200191613167565b820191906000526020600020905b81548152906001019060200180831161314a57829003601f168201915b505050505081526020016006820154815260200160078201805461318a90614431565b80601f01602080910402602001604051908101604052809291908181526020018280546131b690614431565b80156132035780601f106131d857610100808354040283529160200191613203565b820191906000526020600020905b8154815290600101906020018083116131e657829003601f168201915b5050505050815260200160088201805461321c90614431565b80601f016020809104026020016040519081016040528092919081815260200182805461324890614431565b80156132955780601f1061326a57610100808354040283529160200191613295565b820191906000526020600020905b81548152906001019060200180831161327857829003601f168201915b50505050508152602001600982016040518060800160405290816000820180546132be90614431565b80601f01602080910402602001604051908101604052809291908181526020018280546132ea90614431565b80156133375780601f1061330c57610100808354040283529160200191613337565b820191906000526020600020905b81548152906001019060200180831161331a57829003601f168201915b5050505050815260200160018201805461335090614431565b80601f016020809104026020016040519081016040528092919081815260200182805461337c90614431565b80156133c95780601f1061339e576101008083540402835291602001916133c9565b820191906000526020600020905b8154815290600101906020018083116133ac57829003601f168201915b505050918352505060028201546020808301919091526003909201546040918201529183528151608081018352600d85015460608201908152815282518083018452600e86015481528183015282518083018452600f909501548552918201939093529101529392505050565b6060828260405160200161344b929190613f05565b604051602081830303815290604052905092915050565b600080546001600160a01b038381166001600160a01b0319831681178455604051919092169283917f8be0079c531659141344cd1fd0a4f28419497f9722a3daafe3b4186f6b6457e09190a35050565b80516a636f6e736f6c652e6c6f67602083016000808483855afa5050505050565b6040518061018001604052806134e761369d565b81526020016000815260200160608152602001600081526020016000815260200160008152602001606081526020016135416040518060800160405280606081526020016060815260200160008152602001600081525090565b8152602001613563604051806040016040528060008152602001600081525090565b8152602001613585604051806040016040528060008152602001600081525090565b81526020016135926136c5565b815260200161359f6136ec565b905290565b8280546135b090614431565b90600052602060002090601f0160209004810192826135d25760008555613618565b82601f106135eb57805160ff1916838001178555613618565b82800160010185558215613618579182015b828111156136185782518255916020019190600101906135fd565b506136249291506137c0565b5090565b6040805160a08101909152806000815260200161364361369d565b8152602001606081526020016135926136c5565b60408051610120810190915280600081526020016060815260200160008152602001600081526020016000815260200160008152602001600081526020016135926136c5565b6040518060800160405280606081526020016000815260200160008152602001600081525090565b60408051608081018252606080825260208201819052600092820183905281019190915290565b60405180606001604052806136ff6137d5565b815260200161370c6137d5565b815260200161359f6137d5565b82805482825590600052602060002090810192821561376f5760005260206000209182015b8281111561376f57828290805461375490614431565b61375f9291906137e8565b509160010191906001019061373e565b50613624929150613863565b604080516101008101909152806000815260200161379761369d565b8152602001606081526020016000815260200160608152602001606081526020016135926136c5565b5b8082111561362457600081556001016137c1565b6040518060200160405280600081525090565b8280546137f490614431565b90600052602060002090601f0160209004810192826138165760008555613618565b82601f106138275780548555613618565b8280016001018555821561361857600052602060002091601f016020900482015b82811115613618578254825591600101919060010190613848565b808211156136245760006138778282613880565b50600101613863565b50805461388c90614431565b6000825580601f1061389c575050565b601f01602090049060005260206000209081019061242691906137c0565b600082601f8301126138ca578081fd5b81356001600160401b03808211156138e4576138e46144b7565b604051601f8301601f19908116603f0116810190828211818310171561390c5761390c6144b7565b81604052838152866020858801011115613924578485fd5b8360208701602083013792830160200193909352509392505050565b600060808284031215613951578081fd5b604051608081016001600160401b038282108183111715613974576139746144b7565b81604052829350843591508082111561398c57600080fd5b613998868387016138ba565b835260208501359150808211156139ae57600080fd5b506139bb858286016138ba565b60208301525060408301356040820152606083013560608201525092915050565b6000602082840312156139ed578081fd5b81356001600160a01b0381168114613a03578182fd5b9392505050565b600060208284031215613a1b578081fd5b81356001600160401b03811115613a30578182fd5b613a3c848285016138ba565b949350505050565b60008060408385031215613a56578081fd5b82356001600160401b0380821115613a6c578283fd5b613a78868387016138ba565b93506020850135915080821115613a8d578283fd5b50613a9a858286016138ba565b9150509250929050565b60008060008060808587031215613ab9578182fd5b84356001600160401b0380821115613acf578384fd5b613adb888389016138ba565b95506020870135915080821115613af0578384fd5b613afc888389016138ba565b94506040870135915080821115613b11578384fd5b613b1d888389016138ba565b93506060870135915080821115613b32578283fd5b50613b3f878288016138ba565b91505092959194509250565b600080600080600080600060e0888a031215613b65578283fd5b87356001600160401b0380821115613b7b578485fd5b613b878b838c016138ba565b985060208a0135915080821115613b9c578485fd5b613ba88b838c016138ba565b975060408a0135965060608a0135915080821115613bc4578485fd5b613bd08b838c016138ba565b955060808a0135915080821115613be5578485fd5b613bf18b838c016138ba565b945060a08a0135915080821115613c06578384fd5b613c128b838c016138ba565b935060c08a0135915080821115613c27578283fd5b50613c348a828b016138ba565b91505092959891949750929550565b60008060408385031215613c55578182fd5b82356001600160401b03811115613c6a578283fd5b613c76858286016138ba565b95602094909401359450505050565b600080600080600060a08688031215613c9c578081fd5b85356001600160401b0380821115613cb2578283fd5b613cbe89838a016138ba565b965060208801359550604088013594506060880135915080821115613ce1578283fd5b613ced89838a016138ba565b93506080880135915080821115613d02578283fd5b50613d0f888289016138ba565b9150509295509295909350565b60008060008060808587031215613d31578384fd5b84356001600160401b03811115613d46578485fd5b613d52878288016138ba565b97602087013597506040870135966060013595509350505050565b600060208284031215613d7e578081fd5b81356001600160401b03811115613d93578182fd5b613a3c84828501613940565b600060208284031215613db0578081fd5b5035919050565b60008060408385031215613dc9578182fd5b8235915060208301356001600160401b03811115613de5578182fd5b613a9a85828601613940565b60048110613e0f57634e487b7160e01b600052602160045260246000fd5b9052565b60008151808452613e2b816020860160208601614405565b601f01601f19169290920160200192915050565b8051518252602080820151519083015260409081015151910152565b6000815160808452613e706080850182613e13565b905060208301518482036020860152613e898282613e13565b91505060408301516040850152606083015160608501528091505092915050565b6000815160808452613ebf6080850182613e13565b90506020830151602085015260408301516040850152606083015160608501528091505092915050565b60008251613efb818460208701614405565b9190910192915050565b60008351613f17818460208801614405565b835190830190613f2b818360208801614405565b01949350505050565b6000610160613f43838d613df1565b806020840152613f558184018c613e13565b90508960408401528860608401528760808401528660a08401528560c084015282810360e0840152613f878186613e5b565b915050613f98610100830184613e3f565b9a9950505050505050505050565b613fb08187613df1565b60e060208201526000613fc660e0830187613eaa565b8281036040840152613fd88187613e13565b90508281036060840152613fec8186613e5b565b915050613ffc6080830184613e3f565b9695505050505050565b6000610140614015838c613df1565b8060208401526140278184018b613eaa565b9050828103604084015261403b818a613e13565b905087606084015282810360808401526140558188613e13565b905082810360a08401526140698187613e13565b905082810360c084015261407d8186613e5b565b91505061408d60e0830184613e3f565b9998505050505050505050565b602081526000613a036020830184613e13565b6040815260006140c06040830185613e13565b82810360208401526140d28185613e13565b95945050505050565b6060815260006140ee6060830186613e13565b82810360208401526141008186613e13565b90508281036040840152613ffc8185613e13565b6080815260006141276080830187613e13565b82810360208401526141398187613e13565b9050828103604084015261414d8186613e13565b91505082606083015295945050505050565b6040815260006141726040830185613e13565b90508260208301529392505050565b6080815260006141946080830187613e13565b6020830195909552506040810192909252606090910152919050565b6020808252818101527f4f776e61626c653a2063616c6c6572206973206e6f7420746865206f776e6572604082015260600190565b6020808252602c908201527f5a6f6f44726f703a204f6e6c79205a6f6f4b65657065722063616e2063616c6c60408201526b081d1a1a5cc81b595d1a1bd960a21b606082015260800190565b60208152614243602082018351613df1565b600060208301516101606040840152614260610180840182613e13565b90506040840151606084015260608401516080840152608084015160a084015260a084015160c084015260c084015160e084015260e0840151610100601f1985840301818601526142b18383613e5b565b9250808601519150506142c8610120850182613e3f565b509392505050565b602081526000825161020060208401526142ee610220840182613eaa565b905060208401516143026040850182613df1565b506040840151601f198085840301606086015261431f8383613e13565b925060608601516080860152608086015160a086015260a086015160c086015260c08601519150808584030160e086015261435a8383613e13565b925060e086015191506101008186850301818701526143798484613e5b565b93508087015192505061012061439b8187018480518252602090810151910152565b86015191506101606143b98682018480518252602090810151910152565b610140870151925081868503016101a08701526143d68484613e5b565b935080870151925050506142c86101c0850182613e3f565b600082821015614400576144006144a1565b500390565b60005b83811015614420578181015183820152602001614408565b83811115612db85750506000910152565b600181811c9082168061444557607f821691505b60208210811415610e5557634e487b7160e01b600052602260045260246000fd5b600060001982141561447a5761447a6144a1565b5060010190565b60008261449c57634e487b7160e01b81526012600452602481fd5b500690565b634e487b7160e01b600052601160045260246000fd5b634e487b7160e01b600052604160045260246000fdfea2646970667358221220a26b87e2e8fd7791255371e5c82a312344c085d0179d0b2c32652ae7e8ae2f5764736f6c63430008040033",
  "devdoc": {
    "kind": "dev",
    "methods": {
      "owner()": {
        "details": "Returns the address of the current owner."
      },
      "renounceOwnership()": {
        "details": "Leaves the contract without owner. It will not be possible to call `onlyOwner` functions anymore. Can only be called by the current owner. NOTE: Renouncing ownership will leave the contract without an owner, thereby removing any functionality that is only available to the owner."
      },
      "transferOwnership(address)": {
        "details": "Transfers ownership of the contract to a new account (`newOwner`). Can only be called by the current owner."
      }
    },
    "version": 1
  },
  "userdoc": {
    "kind": "user",
    "methods": {},
    "version": 1
  },
  "storageLayout": {
    "storage": [
      {
        "astId": 7,
        "contract": "src/ZooDrop.sol:ZooDrop",
        "label": "_owner",
        "offset": 0,
        "slot": "0",
        "type": "t_address"
      },
      {
        "astId": 6757,
        "contract": "src/ZooDrop.sol:ZooDrop",
        "label": "title",
        "offset": 0,
        "slot": "1",
        "type": "t_string_storage"
      },
      {
        "astId": 6759,
        "contract": "src/ZooDrop.sol:ZooDrop",
        "label": "baseEgg",
        "offset": 0,
        "slot": "2",
        "type": "t_string_storage"
      },
      {
        "astId": 6761,
        "contract": "src/ZooDrop.sol:ZooDrop",
        "label": "hybridEgg",
        "offset": 0,
        "slot": "3",
        "type": "t_string_storage"
      },
      {
        "astId": 6763,
        "contract": "src/ZooDrop.sol:ZooDrop",
        "label": "keeperAddress",
        "offset": 0,
        "slot": "4",
        "type": "t_address"
      },
      {
        "astId": 6768,
        "contract": "src/ZooDrop.sol:ZooDrop",
        "label": "rarities",
        "offset": 0,
        "slot": "5",
        "type": "t_mapping(t_string_memory_ptr,t_struct(Rarity)19921_storage)"
      },
      {
        "astId": 6773,
        "contract": "src/ZooDrop.sol:ZooDrop",
        "label": "rarityAnimals",
        "offset": 0,
        "slot": "6",
        "type": "t_mapping(t_string_memory_ptr,t_array(t_string_storage)dyn_storage)"
      },
      {
        "astId": 6776,
        "contract": "src/ZooDrop.sol:ZooDrop",
        "label": "raritySorted",
        "offset": 0,
        "slot": "7",
        "type": "t_array(t_string_storage)dyn_storage"
      },
      {
        "astId": 6781,
        "contract": "src/ZooDrop.sol:ZooDrop",
        "label": "eggs",
        "offset": 0,
        "slot": "8",
        "type": "t_mapping(t_string_memory_ptr,t_struct(Egg)6719_storage)"
      },
      {
        "astId": 6786,
        "contract": "src/ZooDrop.sol:ZooDrop",
        "label": "animals",
        "offset": 0,
        "slot": "9",
        "type": "t_mapping(t_string_memory_ptr,t_struct(Animal)6734_storage)"
      },
      {
        "astId": 6791,
        "contract": "src/ZooDrop.sol:ZooDrop",
        "label": "hybrids",
        "offset": 0,
        "slot": "10",
        "type": "t_mapping(t_string_memory_ptr,t_struct(Hybrid)6755_storage)"
      },
      {
        "astId": 6796,
        "contract": "src/ZooDrop.sol:ZooDrop",
        "label": "hybridParents",
        "offset": 0,
        "slot": "11",
        "type": "t_mapping(t_string_memory_ptr,t_struct(Hybrid)6755_storage)"
      }
    ],
    "types": {
      "t_address": {
        "encoding": "inplace",
        "label": "address",
        "numberOfBytes": "20"
      },
      "t_array(t_string_storage)dyn_storage": {
        "base": "t_string_storage",
        "encoding": "dynamic_array",
        "label": "string[]",
        "numberOfBytes": "32"
      },
      "t_bytes32": {
        "encoding": "inplace",
        "label": "bytes32",
        "numberOfBytes": "32"
      },
      "t_enum(Type)19912": {
        "encoding": "inplace",
        "label": "enum IZoo.Type",
        "numberOfBytes": "1"
      },
      "t_mapping(t_string_memory_ptr,t_array(t_string_storage)dyn_storage)": {
        "encoding": "mapping",
        "key": "t_string_memory_ptr",
        "label": "mapping(string => string[])",
        "numberOfBytes": "32",
        "value": "t_array(t_string_storage)dyn_storage"
      },
      "t_mapping(t_string_memory_ptr,t_struct(Animal)6734_storage)": {
        "encoding": "mapping",
        "key": "t_string_memory_ptr",
        "label": "mapping(string => struct ZooDrop.Animal)",
        "numberOfBytes": "32",
        "value": "t_struct(Animal)6734_storage"
      },
      "t_mapping(t_string_memory_ptr,t_struct(Egg)6719_storage)": {
        "encoding": "mapping",
        "key": "t_string_memory_ptr",
        "label": "mapping(string => struct ZooDrop.Egg)",
        "numberOfBytes": "32",
        "value": "t_struct(Egg)6719_storage"
      },
      "t_mapping(t_string_memory_ptr,t_struct(Hybrid)6755_storage)": {
        "encoding": "mapping",
        "key": "t_string_memory_ptr",
        "label": "mapping(string => struct ZooDrop.Hybrid)",
        "numberOfBytes": "32",
        "value": "t_struct(Hybrid)6755_storage"
      },
      "t_mapping(t_string_memory_ptr,t_struct(Rarity)19921_storage)": {
        "encoding": "mapping",
        "key": "t_string_memory_ptr",
        "label": "mapping(string => struct IZoo.Rarity)",
        "numberOfBytes": "32",
        "value": "t_struct(Rarity)19921_storage"
      },
      "t_string_memory_ptr": {
        "encoding": "bytes",
        "label": "string",
        "numberOfBytes": "32"
      },
      "t_string_storage": {
        "encoding": "bytes",
        "label": "string",
        "numberOfBytes": "32"
      },
      "t_struct(Animal)6734_storage": {
        "encoding": "inplace",
        "label": "struct ZooDrop.Animal",
        "members": [
          {
            "astId": 6722,
            "contract": "src/ZooDrop.sol:ZooDrop",
            "label": "kind",
            "offset": 0,
            "slot": "0",
            "type": "t_enum(Type)19912"
          },
          {
            "astId": 6725,
            "contract": "src/ZooDrop.sol:ZooDrop",
            "label": "rarity",
            "offset": 0,
            "slot": "1",
            "type": "t_struct(Rarity)19921_storage"
          },
          {
            "astId": 6727,
            "contract": "src/ZooDrop.sol:ZooDrop",
            "label": "name",
            "offset": 0,
            "slot": "5",
            "type": "t_string_storage"
          },
          {
            "astId": 6730,
            "contract": "src/ZooDrop.sol:ZooDrop",
            "label": "data",
            "offset": 0,
            "slot": "6",
            "type": "t_struct(MediaData)19747_storage"
          },
          {
            "astId": 6733,
            "contract": "src/ZooDrop.sol:ZooDrop",
            "label": "bidShares",
            "offset": 0,
            "slot": "10",
            "type": "t_struct(BidShares)19579_storage"
          }
        ],
        "numberOfBytes": "416"
      },
      "t_struct(BidShares)19579_storage": {
        "encoding": "inplace",
        "label": "struct IMarket.BidShares",
        "members": [
          {
            "astId": 19572,
            "contract": "src/ZooDrop.sol:ZooDrop",
            "label": "prevOwner",
            "offset": 0,
            "slot": "0",
            "type": "t_struct(D256)4192_storage"
          },
          {
            "astId": 19575,
            "contract": "src/ZooDrop.sol:ZooDrop",
            "label": "creator",
            "offset": 0,
            "slot": "1",
            "type": "t_struct(D256)4192_storage"
          },
          {
            "astId": 19578,
            "contract": "src/ZooDrop.sol:ZooDrop",
            "label": "owner",
            "offset": 0,
            "slot": "2",
            "type": "t_struct(D256)4192_storage"
          }
        ],
        "numberOfBytes": "96"
      },
      "t_struct(D256)4192_storage": {
        "encoding": "inplace",
        "label": "struct Decimal.D256",
        "members": [
          {
            "astId": 4191,
            "contract": "src/ZooDrop.sol:ZooDrop",
            "label": "value",
            "offset": 0,
            "slot": "0",
            "type": "t_uint256"
          }
        ],
        "numberOfBytes": "32"
      },
      "t_struct(Egg)6719_storage": {
        "encoding": "inplace",
        "label": "struct ZooDrop.Egg",
        "members": [
          {
            "astId": 6700,
            "contract": "src/ZooDrop.sol:ZooDrop",
            "label": "kind",
            "offset": 0,
            "slot": "0",
            "type": "t_enum(Type)19912"
          },
          {
            "astId": 6702,
            "contract": "src/ZooDrop.sol:ZooDrop",
            "label": "name",
            "offset": 0,
            "slot": "1",
            "type": "t_string_storage"
          },
          {
            "astId": 6704,
            "contract": "src/ZooDrop.sol:ZooDrop",
            "label": "supply",
            "offset": 0,
            "slot": "2",
            "type": "t_uint256"
          },
          {
            "astId": 6706,
            "contract": "src/ZooDrop.sol:ZooDrop",
            "label": "price",
            "offset": 0,
            "slot": "3",
            "type": "t_uint256"
          },
          {
            "astId": 6708,
            "contract": "src/ZooDrop.sol:ZooDrop",
            "label": "timestamp",
            "offset": 0,
            "slot": "4",
            "type": "t_uint256"
          },
          {
            "astId": 6710,
            "contract": "src/ZooDrop.sol:ZooDrop",
            "label": "birthday",
            "offset": 0,
            "slot": "5",
            "type": "t_uint256"
          },
          {
            "astId": 6712,
            "contract": "src/ZooDrop.sol:ZooDrop",
            "label": "minted",
            "offset": 0,
            "slot": "6",
            "type": "t_uint256"
          },
          {
            "astId": 6715,
            "contract": "src/ZooDrop.sol:ZooDrop",
            "label": "data",
            "offset": 0,
            "slot": "7",
            "type": "t_struct(MediaData)19747_storage"
          },
          {
            "astId": 6718,
            "contract": "src/ZooDrop.sol:ZooDrop",
            "label": "bidShares",
            "offset": 0,
            "slot": "11",
            "type": "t_struct(BidShares)19579_storage"
          }
        ],
        "numberOfBytes": "448"
      },
      "t_struct(Hybrid)6755_storage": {
        "encoding": "inplace",
        "label": "struct ZooDrop.Hybrid",
        "members": [
          {
            "astId": 6737,
            "contract": "src/ZooDrop.sol:ZooDrop",
            "label": "kind",
            "offset": 0,
            "slot": "0",
            "type": "t_enum(Type)19912"
          },
          {
            "astId": 6740,
            "contract": "src/ZooDrop.sol:ZooDrop",
            "label": "rarity",
            "offset": 0,
            "slot": "1",
            "type": "t_struct(Rarity)19921_storage"
          },
          {
            "astId": 6742,
            "contract": "src/ZooDrop.sol:ZooDrop",
            "label": "name",
            "offset": 0,
            "slot": "5",
            "type": "t_string_storage"
          },
          {
            "astId": 6744,
            "contract": "src/ZooDrop.sol:ZooDrop",
            "label": "yield",
            "offset": 0,
            "slot": "6",
            "type": "t_uint256"
          },
          {
            "astId": 6746,
            "contract": "src/ZooDrop.sol:ZooDrop",
            "label": "parentA",
            "offset": 0,
            "slot": "7",
            "type": "t_string_storage"
          },
          {
            "astId": 6748,
            "contract": "src/ZooDrop.sol:ZooDrop",
            "label": "parentB",
            "offset": 0,
            "slot": "8",
            "type": "t_string_storage"
          },
          {
            "astId": 6751,
            "contract": "src/ZooDrop.sol:ZooDrop",
            "label": "data",
            "offset": 0,
            "slot": "9",
            "type": "t_struct(MediaData)19747_storage"
          },
          {
            "astId": 6754,
            "contract": "src/ZooDrop.sol:ZooDrop",
            "label": "bidShares",
            "offset": 0,
            "slot": "13",
            "type": "t_struct(BidShares)19579_storage"
          }
        ],
        "numberOfBytes": "512"
      },
      "t_struct(MediaData)19747_storage": {
        "encoding": "inplace",
        "label": "struct IMedia.MediaData",
        "members": [
          {
            "astId": 19740,
            "contract": "src/ZooDrop.sol:ZooDrop",
            "label": "tokenURI",
            "offset": 0,
            "slot": "0",
            "type": "t_string_storage"
          },
          {
            "astId": 19742,
            "contract": "src/ZooDrop.sol:ZooDrop",
            "label": "metadataURI",
            "offset": 0,
            "slot": "1",
            "type": "t_string_storage"
          },
          {
            "astId": 19744,
            "contract": "src/ZooDrop.sol:ZooDrop",
            "label": "contentHash",
            "offset": 0,
            "slot": "2",
            "type": "t_bytes32"
          },
          {
            "astId": 19746,
            "contract": "src/ZooDrop.sol:ZooDrop",
            "label": "metadataHash",
            "offset": 0,
            "slot": "3",
            "type": "t_bytes32"
          }
        ],
        "numberOfBytes": "128"
      },
      "t_struct(Rarity)19921_storage": {
        "encoding": "inplace",
        "label": "struct IZoo.Rarity",
        "members": [
          {
            "astId": 19914,
            "contract": "src/ZooDrop.sol:ZooDrop",
            "label": "name",
            "offset": 0,
            "slot": "0",
            "type": "t_string_storage"
          },
          {
            "astId": 19916,
            "contract": "src/ZooDrop.sol:ZooDrop",
            "label": "probability",
            "offset": 0,
            "slot": "1",
            "type": "t_uint256"
          },
          {
            "astId": 19918,
            "contract": "src/ZooDrop.sol:ZooDrop",
            "label": "yield",
            "offset": 0,
            "slot": "2",
            "type": "t_uint256"
          },
          {
            "astId": 19920,
            "contract": "src/ZooDrop.sol:ZooDrop",
            "label": "boost",
            "offset": 0,
            "slot": "3",
            "type": "t_uint256"
          }
        ],
        "numberOfBytes": "128"
      },
      "t_uint256": {
        "encoding": "inplace",
        "label": "uint256",
        "numberOfBytes": "32"
      }
    }
  }
}