{
  "address": "0x742C77Bc991BD99CE846EADcf84b7E504aacc341",
  "abi": [
    {
      "inputs": [
        {
          "internalType": "string",
          "name": "_title",
          "type": "string"
        }
      ],
      "stateMutability": "nonpayable",
      "type": "constructor"
    },
    {
      "anonymous": false,
      "inputs": [
        {
          "indexed": true,
          "internalType": "address",
          "name": "previousOwner",
          "type": "address"
        },
        {
          "indexed": true,
          "internalType": "address",
          "name": "newOwner",
          "type": "address"
        }
      ],
      "name": "OwnershipTransferred",
      "type": "event"
    },
    {
      "inputs": [
        {
          "internalType": "string",
          "name": "",
          "type": "string"
        }
      ],
      "name": "animals",
      "outputs": [
        {
          "internalType": "enum IZoo.Type",
          "name": "kind",
          "type": "uint8"
        },
        {
          "components": [
            {
              "internalType": "string",
              "name": "name",
              "type": "string"
            },
            {
              "internalType": "uint256",
              "name": "probability",
              "type": "uint256"
            },
            {
              "internalType": "uint256",
              "name": "yield",
              "type": "uint256"
            },
            {
              "internalType": "uint256",
              "name": "boost",
              "type": "uint256"
            }
          ],
          "internalType": "struct IZoo.Rarity",
          "name": "rarity",
          "type": "tuple"
        },
        {
          "internalType": "string",
          "name": "name",
          "type": "string"
        },
        {
          "components": [
            {
              "internalType": "string",
              "name": "tokenURI",
              "type": "string"
            },
            {
              "internalType": "string",
              "name": "metadataURI",
              "type": "string"
            },
            {
              "internalType": "bytes32",
              "name": "contentHash",
              "type": "bytes32"
            },
            {
              "internalType": "bytes32",
              "name": "metadataHash",
              "type": "bytes32"
            }
          ],
          "internalType": "struct IMedia.MediaData",
          "name": "data",
          "type": "tuple"
        },
        {
          "components": [
            {
              "components": [
                {
                  "internalType": "uint256",
                  "name": "value",
                  "type": "uint256"
                }
              ],
              "internalType": "struct Decimal.D256",
              "name": "prevOwner",
              "type": "tuple"
            },
            {
              "components": [
                {
                  "internalType": "uint256",
                  "name": "value",
                  "type": "uint256"
                }
              ],
              "internalType": "struct Decimal.D256",
              "name": "creator",
              "type": "tuple"
            },
            {
              "components": [
                {
                  "internalType": "uint256",
                  "name": "value",
                  "type": "uint256"
                }
              ],
              "internalType": "struct Decimal.D256",
              "name": "owner",
              "type": "tuple"
            }
          ],
          "internalType": "struct IMarket.BidShares",
          "name": "bidShares",
          "type": "tuple"
        }
      ],
      "stateMutability": "view",
      "type": "function"
    },
    {
      "inputs": [],
      "name": "baseEgg",
      "outputs": [
        {
          "internalType": "string",
          "name": "",
          "type": "string"
        }
      ],
      "stateMutability": "view",
      "type": "function"
    },
    {
      "inputs": [
        {
          "internalType": "string",
          "name": "_baseEgg",
          "type": "string"
        },
        {
          "internalType": "string",
          "name": "_hybridEgg",
          "type": "string"
        }
      ],
      "name": "configureEggs",
      "outputs": [],
      "stateMutability": "nonpayable",
      "type": "function"
    },
    {
      "inputs": [
        {
          "internalType": "address",
          "name": "zooKeeper",
          "type": "address"
        }
      ],
      "name": "configureKeeper",
      "outputs": [],
      "stateMutability": "nonpayable",
      "type": "function"
    },
    {
      "inputs": [],
      "name": "eggPrice",
      "outputs": [
        {
          "internalType": "uint256",
          "name": "",
          "type": "uint256"
        }
      ],
      "stateMutability": "view",
      "type": "function"
    },
    {
      "inputs": [],
      "name": "eggSupply",
      "outputs": [
        {
          "internalType": "uint256",
          "name": "",
          "type": "uint256"
        }
      ],
      "stateMutability": "view",
      "type": "function"
    },
    {
      "inputs": [
        {
          "internalType": "string",
          "name": "",
          "type": "string"
        }
      ],
      "name": "eggs",
      "outputs": [
        {
          "internalType": "enum IZoo.Type",
          "name": "kind",
          "type": "uint8"
        },
        {
          "internalType": "string",
          "name": "name",
          "type": "string"
        },
        {
          "internalType": "uint256",
          "name": "supply",
          "type": "uint256"
        },
        {
          "internalType": "uint256",
          "name": "price",
          "type": "uint256"
        },
        {
          "internalType": "uint256",
          "name": "timestamp",
          "type": "uint256"
        },
        {
          "internalType": "uint256",
          "name": "birthday",
          "type": "uint256"
        },
        {
          "internalType": "uint256",
          "name": "minted",
          "type": "uint256"
        },
        {
          "components": [
            {
              "internalType": "string",
              "name": "tokenURI",
              "type": "string"
            },
            {
              "internalType": "string",
              "name": "metadataURI",
              "type": "string"
            },
            {
              "internalType": "bytes32",
              "name": "contentHash",
              "type": "bytes32"
            },
            {
              "internalType": "bytes32",
              "name": "metadataHash",
              "type": "bytes32"
            }
          ],
          "internalType": "struct IMedia.MediaData",
          "name": "data",
          "type": "tuple"
        },
        {
          "components": [
            {
              "components": [
                {
                  "internalType": "uint256",
                  "name": "value",
                  "type": "uint256"
                }
              ],
              "internalType": "struct Decimal.D256",
              "name": "prevOwner",
              "type": "tuple"
            },
            {
              "components": [
                {
                  "internalType": "uint256",
                  "name": "value",
                  "type": "uint256"
                }
              ],
              "internalType": "struct Decimal.D256",
              "name": "creator",
              "type": "tuple"
            },
            {
              "components": [
                {
                  "internalType": "uint256",
                  "name": "value",
                  "type": "uint256"
                }
              ],
              "internalType": "struct Decimal.D256",
              "name": "owner",
              "type": "tuple"
            }
          ],
          "internalType": "struct IMarket.BidShares",
          "name": "bidShares",
          "type": "tuple"
        }
      ],
      "stateMutability": "view",
      "type": "function"
    },
    {
      "inputs": [
        {
          "internalType": "uint256",
          "name": "random",
          "type": "uint256"
        }
      ],
      "name": "getRandomAnimal",
      "outputs": [
        {
          "components": [
            {
              "components": [
                {
                  "internalType": "string",
                  "name": "name",
                  "type": "string"
                },
                {
                  "internalType": "uint256",
                  "name": "probability",
                  "type": "uint256"
                },
                {
                  "internalType": "uint256",
                  "name": "yield",
                  "type": "uint256"
                },
                {
                  "internalType": "uint256",
                  "name": "boost",
                  "type": "uint256"
                }
              ],
              "internalType": "struct IZoo.Rarity",
              "name": "rarity",
              "type": "tuple"
            },
            {
              "internalType": "enum IZoo.Type",
              "name": "kind",
              "type": "uint8"
            },
            {
              "internalType": "string",
              "name": "name",
              "type": "string"
            },
            {
              "internalType": "uint256",
              "name": "id",
              "type": "uint256"
            },
            {
              "internalType": "uint256",
              "name": "timestamp",
              "type": "uint256"
            },
            {
              "internalType": "uint256",
              "name": "birthday",
              "type": "uint256"
            },
            {
              "internalType": "string",
              "name": "customName",
              "type": "string"
            },
            {
              "components": [
                {
                  "internalType": "string",
                  "name": "animalA",
                  "type": "string"
                },
                {
                  "internalType": "string",
                  "name": "animalB",
                  "type": "string"
                },
                {
                  "internalType": "uint256",
                  "name": "tokenA",
                  "type": "uint256"
                },
                {
                  "internalType": "uint256",
                  "name": "tokenB",
                  "type": "uint256"
                }
              ],
              "internalType": "struct IZoo.Parents",
              "name": "parents",
              "type": "tuple"
            },
            {
              "components": [
                {
                  "internalType": "uint256",
                  "name": "count",
                  "type": "uint256"
                },
                {
                  "internalType": "uint256",
                  "name": "timestamp",
                  "type": "uint256"
                }
              ],
              "internalType": "struct IZoo.Breed",
              "name": "breed",
              "type": "tuple"
            },
            {
              "components": [
                {
                  "internalType": "uint256",
                  "name": "eggID",
                  "type": "uint256"
                },
                {
                  "internalType": "uint256",
                  "name": "dropID",
                  "type": "uint256"
                }
              ],
              "internalType": "struct IZoo.Meta",
              "name": "meta",
              "type": "tuple"
            },
            {
              "components": [
                {
                  "internalType": "string",
                  "name": "tokenURI",
                  "type": "string"
                },
                {
                  "internalType": "string",
                  "name": "metadataURI",
                  "type": "string"
                },
                {
                  "internalType": "bytes32",
                  "name": "contentHash",
                  "type": "bytes32"
                },
                {
                  "internalType": "bytes32",
                  "name": "metadataHash",
                  "type": "bytes32"
                }
              ],
              "internalType": "struct IMedia.MediaData",
              "name": "data",
              "type": "tuple"
            },
            {
              "components": [
                {
                  "components": [
                    {
                      "internalType": "uint256",
                      "name": "value",
                      "type": "uint256"
                    }
                  ],
                  "internalType": "struct Decimal.D256",
                  "name": "prevOwner",
                  "type": "tuple"
                },
                {
                  "components": [
                    {
                      "internalType": "uint256",
                      "name": "value",
                      "type": "uint256"
                    }
                  ],
                  "internalType": "struct Decimal.D256",
                  "name": "creator",
                  "type": "tuple"
                },
                {
                  "components": [
                    {
                      "internalType": "uint256",
                      "name": "value",
                      "type": "uint256"
                    }
                  ],
                  "internalType": "struct Decimal.D256",
                  "name": "owner",
                  "type": "tuple"
                }
              ],
              "internalType": "struct IMarket.BidShares",
              "name": "bidShares",
              "type": "tuple"
            }
          ],
          "internalType": "struct IZoo.Token",
          "name": "token",
          "type": "tuple"
        }
      ],
      "stateMutability": "view",
      "type": "function"
    },
    {
      "inputs": [
        {
          "internalType": "uint256",
          "name": "random",
          "type": "uint256"
        },
        {
          "components": [
            {
              "internalType": "string",
              "name": "animalA",
              "type": "string"
            },
            {
              "internalType": "string",
              "name": "animalB",
              "type": "string"
            },
            {
              "internalType": "uint256",
              "name": "tokenA",
              "type": "uint256"
            },
            {
              "internalType": "uint256",
              "name": "tokenB",
              "type": "uint256"
            }
          ],
          "internalType": "struct IZoo.Parents",
          "name": "parents",
          "type": "tuple"
        }
      ],
      "name": "getRandomHybrid",
      "outputs": [
        {
          "components": [
            {
              "components": [
                {
                  "internalType": "string",
                  "name": "name",
                  "type": "string"
                },
                {
                  "internalType": "uint256",
                  "name": "probability",
                  "type": "uint256"
                },
                {
                  "internalType": "uint256",
                  "name": "yield",
                  "type": "uint256"
                },
                {
                  "internalType": "uint256",
                  "name": "boost",
                  "type": "uint256"
                }
              ],
              "internalType": "struct IZoo.Rarity",
              "name": "rarity",
              "type": "tuple"
            },
            {
              "internalType": "enum IZoo.Type",
              "name": "kind",
              "type": "uint8"
            },
            {
              "internalType": "string",
              "name": "name",
              "type": "string"
            },
            {
              "internalType": "uint256",
              "name": "id",
              "type": "uint256"
            },
            {
              "internalType": "uint256",
              "name": "timestamp",
              "type": "uint256"
            },
            {
              "internalType": "uint256",
              "name": "birthday",
              "type": "uint256"
            },
            {
              "internalType": "string",
              "name": "customName",
              "type": "string"
            },
            {
              "components": [
                {
                  "internalType": "string",
                  "name": "animalA",
                  "type": "string"
                },
                {
                  "internalType": "string",
                  "name": "animalB",
                  "type": "string"
                },
                {
                  "internalType": "uint256",
                  "name": "tokenA",
                  "type": "uint256"
                },
                {
                  "internalType": "uint256",
                  "name": "tokenB",
                  "type": "uint256"
                }
              ],
              "internalType": "struct IZoo.Parents",
              "name": "parents",
              "type": "tuple"
            },
            {
              "components": [
                {
                  "internalType": "uint256",
                  "name": "count",
                  "type": "uint256"
                },
                {
                  "internalType": "uint256",
                  "name": "timestamp",
                  "type": "uint256"
                }
              ],
              "internalType": "struct IZoo.Breed",
              "name": "breed",
              "type": "tuple"
            },
            {
              "components": [
                {
                  "internalType": "uint256",
                  "name": "eggID",
                  "type": "uint256"
                },
                {
                  "internalType": "uint256",
                  "name": "dropID",
                  "type": "uint256"
                }
              ],
              "internalType": "struct IZoo.Meta",
              "name": "meta",
              "type": "tuple"
            },
            {
              "components": [
                {
                  "internalType": "string",
                  "name": "tokenURI",
                  "type": "string"
                },
                {
                  "internalType": "string",
                  "name": "metadataURI",
                  "type": "string"
                },
                {
                  "internalType": "bytes32",
                  "name": "contentHash",
                  "type": "bytes32"
                },
                {
                  "internalType": "bytes32",
                  "name": "metadataHash",
                  "type": "bytes32"
                }
              ],
              "internalType": "struct IMedia.MediaData",
              "name": "data",
              "type": "tuple"
            },
            {
              "components": [
                {
                  "components": [
                    {
                      "internalType": "uint256",
                      "name": "value",
                      "type": "uint256"
                    }
                  ],
                  "internalType": "struct Decimal.D256",
                  "name": "prevOwner",
                  "type": "tuple"
                },
                {
                  "components": [
                    {
                      "internalType": "uint256",
                      "name": "value",
                      "type": "uint256"
                    }
                  ],
                  "internalType": "struct Decimal.D256",
                  "name": "creator",
                  "type": "tuple"
                },
                {
                  "components": [
                    {
                      "internalType": "uint256",
                      "name": "value",
                      "type": "uint256"
                    }
                  ],
                  "internalType": "struct Decimal.D256",
                  "name": "owner",
                  "type": "tuple"
                }
              ],
              "internalType": "struct IMarket.BidShares",
              "name": "bidShares",
              "type": "tuple"
            }
          ],
          "internalType": "struct IZoo.Token",
          "name": "token",
          "type": "tuple"
        }
      ],
      "stateMutability": "view",
      "type": "function"
    },
    {
      "inputs": [],
      "name": "hybridEgg",
      "outputs": [
        {
          "internalType": "string",
          "name": "",
          "type": "string"
        }
      ],
      "stateMutability": "view",
      "type": "function"
    },
    {
      "inputs": [
        {
          "internalType": "string",
          "name": "",
          "type": "string"
        }
      ],
      "name": "hybridParents",
      "outputs": [
        {
          "internalType": "enum IZoo.Type",
          "name": "kind",
          "type": "uint8"
        },
        {
          "components": [
            {
              "internalType": "string",
              "name": "name",
              "type": "string"
            },
            {
              "internalType": "uint256",
              "name": "probability",
              "type": "uint256"
            },
            {
              "internalType": "uint256",
              "name": "yield",
              "type": "uint256"
            },
            {
              "internalType": "uint256",
              "name": "boost",
              "type": "uint256"
            }
          ],
          "internalType": "struct IZoo.Rarity",
          "name": "rarity",
          "type": "tuple"
        },
        {
          "internalType": "string",
          "name": "name",
          "type": "string"
        },
        {
          "internalType": "uint256",
          "name": "yield",
          "type": "uint256"
        },
        {
          "internalType": "string",
          "name": "parentA",
          "type": "string"
        },
        {
          "internalType": "string",
          "name": "parentB",
          "type": "string"
        },
        {
          "components": [
            {
              "internalType": "string",
              "name": "tokenURI",
              "type": "string"
            },
            {
              "internalType": "string",
              "name": "metadataURI",
              "type": "string"
            },
            {
              "internalType": "bytes32",
              "name": "contentHash",
              "type": "bytes32"
            },
            {
              "internalType": "bytes32",
              "name": "metadataHash",
              "type": "bytes32"
            }
          ],
          "internalType": "struct IMedia.MediaData",
          "name": "data",
          "type": "tuple"
        },
        {
          "components": [
            {
              "components": [
                {
                  "internalType": "uint256",
                  "name": "value",
                  "type": "uint256"
                }
              ],
              "internalType": "struct Decimal.D256",
              "name": "prevOwner",
              "type": "tuple"
            },
            {
              "components": [
                {
                  "internalType": "uint256",
                  "name": "value",
                  "type": "uint256"
                }
              ],
              "internalType": "struct Decimal.D256",
              "name": "creator",
              "type": "tuple"
            },
            {
              "components": [
                {
                  "internalType": "uint256",
                  "name": "value",
                  "type": "uint256"
                }
              ],
              "internalType": "struct Decimal.D256",
              "name": "owner",
              "type": "tuple"
            }
          ],
          "internalType": "struct IMarket.BidShares",
          "name": "bidShares",
          "type": "tuple"
        }
      ],
      "stateMutability": "view",
      "type": "function"
    },
    {
      "inputs": [],
      "name": "hybridSupply",
      "outputs": [
        {
          "internalType": "uint256",
          "name": "",
          "type": "uint256"
        }
      ],
      "stateMutability": "view",
      "type": "function"
    },
    {
      "inputs": [
        {
          "internalType": "string",
          "name": "",
          "type": "string"
        }
      ],
      "name": "hybrids",
      "outputs": [
        {
          "internalType": "enum IZoo.Type",
          "name": "kind",
          "type": "uint8"
        },
        {
          "components": [
            {
              "internalType": "string",
              "name": "name",
              "type": "string"
            },
            {
              "internalType": "uint256",
              "name": "probability",
              "type": "uint256"
            },
            {
              "internalType": "uint256",
              "name": "yield",
              "type": "uint256"
            },
            {
              "internalType": "uint256",
              "name": "boost",
              "type": "uint256"
            }
          ],
          "internalType": "struct IZoo.Rarity",
          "name": "rarity",
          "type": "tuple"
        },
        {
          "internalType": "string",
          "name": "name",
          "type": "string"
        },
        {
          "internalType": "uint256",
          "name": "yield",
          "type": "uint256"
        },
        {
          "internalType": "string",
          "name": "parentA",
          "type": "string"
        },
        {
          "internalType": "string",
          "name": "parentB",
          "type": "string"
        },
        {
          "components": [
            {
              "internalType": "string",
              "name": "tokenURI",
              "type": "string"
            },
            {
              "internalType": "string",
              "name": "metadataURI",
              "type": "string"
            },
            {
              "internalType": "bytes32",
              "name": "contentHash",
              "type": "bytes32"
            },
            {
              "internalType": "bytes32",
              "name": "metadataHash",
              "type": "bytes32"
            }
          ],
          "internalType": "struct IMedia.MediaData",
          "name": "data",
          "type": "tuple"
        },
        {
          "components": [
            {
              "components": [
                {
                  "internalType": "uint256",
                  "name": "value",
                  "type": "uint256"
                }
              ],
              "internalType": "struct Decimal.D256",
              "name": "prevOwner",
              "type": "tuple"
            },
            {
              "components": [
                {
                  "internalType": "uint256",
                  "name": "value",
                  "type": "uint256"
                }
              ],
              "internalType": "struct Decimal.D256",
              "name": "creator",
              "type": "tuple"
            },
            {
              "components": [
                {
                  "internalType": "uint256",
                  "name": "value",
                  "type": "uint256"
                }
              ],
              "internalType": "struct Decimal.D256",
              "name": "owner",
              "type": "tuple"
            }
          ],
          "internalType": "struct IMarket.BidShares",
          "name": "bidShares",
          "type": "tuple"
        }
      ],
      "stateMutability": "view",
      "type": "function"
    },
    {
      "inputs": [],
      "name": "keeperAddress",
      "outputs": [
        {
          "internalType": "address",
          "name": "",
          "type": "address"
        }
      ],
      "stateMutability": "view",
      "type": "function"
    },
    {
      "inputs": [],
      "name": "newEgg",
      "outputs": [
        {
          "components": [
            {
              "components": [
                {
                  "internalType": "string",
                  "name": "name",
                  "type": "string"
                },
                {
                  "internalType": "uint256",
                  "name": "probability",
                  "type": "uint256"
                },
                {
                  "internalType": "uint256",
                  "name": "yield",
                  "type": "uint256"
                },
                {
                  "internalType": "uint256",
                  "name": "boost",
                  "type": "uint256"
                }
              ],
              "internalType": "struct IZoo.Rarity",
              "name": "rarity",
              "type": "tuple"
            },
            {
              "internalType": "enum IZoo.Type",
              "name": "kind",
              "type": "uint8"
            },
            {
              "internalType": "string",
              "name": "name",
              "type": "string"
            },
            {
              "internalType": "uint256",
              "name": "id",
              "type": "uint256"
            },
            {
              "internalType": "uint256",
              "name": "timestamp",
              "type": "uint256"
            },
            {
              "internalType": "uint256",
              "name": "birthday",
              "type": "uint256"
            },
            {
              "internalType": "string",
              "name": "customName",
              "type": "string"
            },
            {
              "components": [
                {
                  "internalType": "string",
                  "name": "animalA",
                  "type": "string"
                },
                {
                  "internalType": "string",
                  "name": "animalB",
                  "type": "string"
                },
                {
                  "internalType": "uint256",
                  "name": "tokenA",
                  "type": "uint256"
                },
                {
                  "internalType": "uint256",
                  "name": "tokenB",
                  "type": "uint256"
                }
              ],
              "internalType": "struct IZoo.Parents",
              "name": "parents",
              "type": "tuple"
            },
            {
              "components": [
                {
                  "internalType": "uint256",
                  "name": "count",
                  "type": "uint256"
                },
                {
                  "internalType": "uint256",
                  "name": "timestamp",
                  "type": "uint256"
                }
              ],
              "internalType": "struct IZoo.Breed",
              "name": "breed",
              "type": "tuple"
            },
            {
              "components": [
                {
                  "internalType": "uint256",
                  "name": "eggID",
                  "type": "uint256"
                },
                {
                  "internalType": "uint256",
                  "name": "dropID",
                  "type": "uint256"
                }
              ],
              "internalType": "struct IZoo.Meta",
              "name": "meta",
              "type": "tuple"
            },
            {
              "components": [
                {
                  "internalType": "string",
                  "name": "tokenURI",
                  "type": "string"
                },
                {
                  "internalType": "string",
                  "name": "metadataURI",
                  "type": "string"
                },
                {
                  "internalType": "bytes32",
                  "name": "contentHash",
                  "type": "bytes32"
                },
                {
                  "internalType": "bytes32",
                  "name": "metadataHash",
                  "type": "bytes32"
                }
              ],
              "internalType": "struct IMedia.MediaData",
              "name": "data",
              "type": "tuple"
            },
            {
              "components": [
                {
                  "components": [
                    {
                      "internalType": "uint256",
                      "name": "value",
                      "type": "uint256"
                    }
                  ],
                  "internalType": "struct Decimal.D256",
                  "name": "prevOwner",
                  "type": "tuple"
                },
                {
                  "components": [
                    {
                      "internalType": "uint256",
                      "name": "value",
                      "type": "uint256"
                    }
                  ],
                  "internalType": "struct Decimal.D256",
                  "name": "creator",
                  "type": "tuple"
                },
                {
                  "components": [
                    {
                      "internalType": "uint256",
                      "name": "value",
                      "type": "uint256"
                    }
                  ],
                  "internalType": "struct Decimal.D256",
                  "name": "owner",
                  "type": "tuple"
                }
              ],
              "internalType": "struct IMarket.BidShares",
              "name": "bidShares",
              "type": "tuple"
            }
          ],
          "internalType": "struct IZoo.Token",
          "name": "",
          "type": "tuple"
        }
      ],
      "stateMutability": "nonpayable",
      "type": "function"
    },
    {
      "inputs": [
        {
          "components": [
            {
              "internalType": "string",
              "name": "animalA",
              "type": "string"
            },
            {
              "internalType": "string",
              "name": "animalB",
              "type": "string"
            },
            {
              "internalType": "uint256",
              "name": "tokenA",
              "type": "uint256"
            },
            {
              "internalType": "uint256",
              "name": "tokenB",
              "type": "uint256"
            }
          ],
          "internalType": "struct IZoo.Parents",
          "name": "parents",
          "type": "tuple"
        }
      ],
      "name": "newHybridEgg",
      "outputs": [
        {
          "components": [
            {
              "components": [
                {
                  "internalType": "string",
                  "name": "name",
                  "type": "string"
                },
                {
                  "internalType": "uint256",
                  "name": "probability",
                  "type": "uint256"
                },
                {
                  "internalType": "uint256",
                  "name": "yield",
                  "type": "uint256"
                },
                {
                  "internalType": "uint256",
                  "name": "boost",
                  "type": "uint256"
                }
              ],
              "internalType": "struct IZoo.Rarity",
              "name": "rarity",
              "type": "tuple"
            },
            {
              "internalType": "enum IZoo.Type",
              "name": "kind",
              "type": "uint8"
            },
            {
              "internalType": "string",
              "name": "name",
              "type": "string"
            },
            {
              "internalType": "uint256",
              "name": "id",
              "type": "uint256"
            },
            {
              "internalType": "uint256",
              "name": "timestamp",
              "type": "uint256"
            },
            {
              "internalType": "uint256",
              "name": "birthday",
              "type": "uint256"
            },
            {
              "internalType": "string",
              "name": "customName",
              "type": "string"
            },
            {
              "components": [
                {
                  "internalType": "string",
                  "name": "animalA",
                  "type": "string"
                },
                {
                  "internalType": "string",
                  "name": "animalB",
                  "type": "string"
                },
                {
                  "internalType": "uint256",
                  "name": "tokenA",
                  "type": "uint256"
                },
                {
                  "internalType": "uint256",
                  "name": "tokenB",
                  "type": "uint256"
                }
              ],
              "internalType": "struct IZoo.Parents",
              "name": "parents",
              "type": "tuple"
            },
            {
              "components": [
                {
                  "internalType": "uint256",
                  "name": "count",
                  "type": "uint256"
                },
                {
                  "internalType": "uint256",
                  "name": "timestamp",
                  "type": "uint256"
                }
              ],
              "internalType": "struct IZoo.Breed",
              "name": "breed",
              "type": "tuple"
            },
            {
              "components": [
                {
                  "internalType": "uint256",
                  "name": "eggID",
                  "type": "uint256"
                },
                {
                  "internalType": "uint256",
                  "name": "dropID",
                  "type": "uint256"
                }
              ],
              "internalType": "struct IZoo.Meta",
              "name": "meta",
              "type": "tuple"
            },
            {
              "components": [
                {
                  "internalType": "string",
                  "name": "tokenURI",
                  "type": "string"
                },
                {
                  "internalType": "string",
                  "name": "metadataURI",
                  "type": "string"
                },
                {
                  "internalType": "bytes32",
                  "name": "contentHash",
                  "type": "bytes32"
                },
                {
                  "internalType": "bytes32",
                  "name": "metadataHash",
                  "type": "bytes32"
                }
              ],
              "internalType": "struct IMedia.MediaData",
              "name": "data",
              "type": "tuple"
            },
            {
              "components": [
                {
                  "components": [
                    {
                      "internalType": "uint256",
                      "name": "value",
                      "type": "uint256"
                    }
                  ],
                  "internalType": "struct Decimal.D256",
                  "name": "prevOwner",
                  "type": "tuple"
                },
                {
                  "components": [
                    {
                      "internalType": "uint256",
                      "name": "value",
                      "type": "uint256"
                    }
                  ],
                  "internalType": "struct Decimal.D256",
                  "name": "creator",
                  "type": "tuple"
                },
                {
                  "components": [
                    {
                      "internalType": "uint256",
                      "name": "value",
                      "type": "uint256"
                    }
                  ],
                  "internalType": "struct Decimal.D256",
                  "name": "owner",
                  "type": "tuple"
                }
              ],
              "internalType": "struct IMarket.BidShares",
              "name": "bidShares",
              "type": "tuple"
            }
          ],
          "internalType": "struct IZoo.Token",
          "name": "",
          "type": "tuple"
        }
      ],
      "stateMutability": "view",
      "type": "function"
    },
    {
      "inputs": [],
      "name": "owner",
      "outputs": [
        {
          "internalType": "address",
          "name": "",
          "type": "address"
        }
      ],
      "stateMutability": "view",
      "type": "function"
    },
    {
      "inputs": [
        {
          "internalType": "string",
          "name": "",
          "type": "string"
        }
      ],
      "name": "rarities",
      "outputs": [
        {
          "internalType": "string",
          "name": "name",
          "type": "string"
        },
        {
          "internalType": "uint256",
          "name": "probability",
          "type": "uint256"
        },
        {
          "internalType": "uint256",
          "name": "yield",
          "type": "uint256"
        },
        {
          "internalType": "uint256",
          "name": "boost",
          "type": "uint256"
        }
      ],
      "stateMutability": "view",
      "type": "function"
    },
    {
      "inputs": [
        {
          "internalType": "string",
          "name": "",
          "type": "string"
        },
        {
          "internalType": "uint256",
          "name": "",
          "type": "uint256"
        }
      ],
      "name": "rarityAnimals",
      "outputs": [
        {
          "internalType": "string",
          "name": "",
          "type": "string"
        }
      ],
      "stateMutability": "view",
      "type": "function"
    },
    {
      "inputs": [
        {
          "internalType": "uint256",
          "name": "",
          "type": "uint256"
        }
      ],
      "name": "raritySorted",
      "outputs": [
        {
          "internalType": "string",
          "name": "",
          "type": "string"
        }
      ],
      "stateMutability": "view",
      "type": "function"
    },
    {
      "inputs": [],
      "name": "renounceOwnership",
      "outputs": [],
      "stateMutability": "nonpayable",
      "type": "function"
    },
    {
      "inputs": [
        {
          "internalType": "string",
          "name": "name",
          "type": "string"
        },
        {
          "internalType": "string",
          "name": "rarity",
          "type": "string"
        },
        {
          "internalType": "string",
          "name": "tokenURI",
          "type": "string"
        },
        {
          "internalType": "string",
          "name": "metadataURI",
          "type": "string"
        }
      ],
      "name": "setAnimal",
      "outputs": [
        {
          "internalType": "bool",
          "name": "",
          "type": "bool"
        }
      ],
      "stateMutability": "nonpayable",
      "type": "function"
    },
    {
      "inputs": [
        {
          "components": [
            {
              "internalType": "string",
              "name": "rarity",
              "type": "string"
            },
            {
              "internalType": "string",
              "name": "name",
              "type": "string"
            },
            {
              "internalType": "string",
              "name": "tokenURI",
              "type": "string"
            },
            {
              "internalType": "string",
              "name": "metadataURI",
              "type": "string"
            }
          ],
          "internalType": "struct ZooDrop._Animal[]",
          "name": "_animals",
          "type": "tuple[]"
        }
      ],
      "name": "setAnimals",
      "outputs": [],
      "stateMutability": "nonpayable",
      "type": "function"
    },
    {
      "inputs": [
        {
          "internalType": "string",
          "name": "name",
          "type": "string"
        },
        {
          "internalType": "uint256",
          "name": "price",
          "type": "uint256"
        },
        {
          "internalType": "uint256",
          "name": "supply",
          "type": "uint256"
        },
        {
          "internalType": "string",
          "name": "tokenURI",
          "type": "string"
        },
        {
          "internalType": "string",
          "name": "metadataURI",
          "type": "string"
        }
      ],
      "name": "setEgg",
      "outputs": [
        {
          "components": [
            {
              "internalType": "enum IZoo.Type",
              "name": "kind",
              "type": "uint8"
            },
            {
              "internalType": "string",
              "name": "name",
              "type": "string"
            },
            {
              "internalType": "uint256",
              "name": "supply",
              "type": "uint256"
            },
            {
              "internalType": "uint256",
              "name": "price",
              "type": "uint256"
            },
            {
              "internalType": "uint256",
              "name": "timestamp",
              "type": "uint256"
            },
            {
              "internalType": "uint256",
              "name": "birthday",
              "type": "uint256"
            },
            {
              "internalType": "uint256",
              "name": "minted",
              "type": "uint256"
            },
            {
              "components": [
                {
                  "internalType": "string",
                  "name": "tokenURI",
                  "type": "string"
                },
                {
                  "internalType": "string",
                  "name": "metadataURI",
                  "type": "string"
                },
                {
                  "internalType": "bytes32",
                  "name": "contentHash",
                  "type": "bytes32"
                },
                {
                  "internalType": "bytes32",
                  "name": "metadataHash",
                  "type": "bytes32"
                }
              ],
              "internalType": "struct IMedia.MediaData",
              "name": "data",
              "type": "tuple"
            },
            {
              "components": [
                {
                  "components": [
                    {
                      "internalType": "uint256",
                      "name": "value",
                      "type": "uint256"
                    }
                  ],
                  "internalType": "struct Decimal.D256",
                  "name": "prevOwner",
                  "type": "tuple"
                },
                {
                  "components": [
                    {
                      "internalType": "uint256",
                      "name": "value",
                      "type": "uint256"
                    }
                  ],
                  "internalType": "struct Decimal.D256",
                  "name": "creator",
                  "type": "tuple"
                },
                {
                  "components": [
                    {
                      "internalType": "uint256",
                      "name": "value",
                      "type": "uint256"
                    }
                  ],
                  "internalType": "struct Decimal.D256",
                  "name": "owner",
                  "type": "tuple"
                }
              ],
              "internalType": "struct IMarket.BidShares",
              "name": "bidShares",
              "type": "tuple"
            }
          ],
          "internalType": "struct ZooDrop.Egg",
          "name": "",
          "type": "tuple"
        }
      ],
      "stateMutability": "nonpayable",
      "type": "function"
    },
    {
      "inputs": [
        {
          "internalType": "string",
          "name": "name",
          "type": "string"
        },
        {
          "internalType": "string",
          "name": "rarity",
          "type": "string"
        },
        {
          "internalType": "uint256",
          "name": "yield",
          "type": "uint256"
        },
        {
          "internalType": "string",
          "name": "parentA",
          "type": "string"
        },
        {
          "internalType": "string",
          "name": "parentB",
          "type": "string"
        },
        {
          "internalType": "string",
          "name": "tokenURI",
          "type": "string"
        },
        {
          "internalType": "string",
          "name": "metadataURI",
          "type": "string"
        }
      ],
      "name": "setHybrid",
      "outputs": [
        {
          "internalType": "bool",
          "name": "",
          "type": "bool"
        }
      ],
      "stateMutability": "nonpayable",
      "type": "function"
    },
    {
      "inputs": [
        {
          "components": [
            {
              "internalType": "string",
              "name": "rarity",
              "type": "string"
            },
            {
              "internalType": "string",
              "name": "name",
              "type": "string"
            },
            {
              "internalType": "uint256",
              "name": "yield",
              "type": "uint256"
            },
            {
              "internalType": "string",
              "name": "parentA",
              "type": "string"
            },
            {
              "internalType": "string",
              "name": "parentB",
              "type": "string"
            },
            {
              "internalType": "string",
              "name": "tokenURI",
              "type": "string"
            },
            {
              "internalType": "string",
              "name": "metadataURI",
              "type": "string"
            }
          ],
          "internalType": "struct ZooDrop._Hybrid[]",
          "name": "_hybrids",
          "type": "tuple[]"
        }
      ],
      "name": "setHybrids",
      "outputs": [],
      "stateMutability": "nonpayable",
      "type": "function"
    },
    {
      "inputs": [
        {
          "internalType": "string",
          "name": "name",
          "type": "string"
        },
        {
          "internalType": "uint256",
          "name": "probability",
          "type": "uint256"
        },
        {
          "internalType": "uint256",
          "name": "yield",
          "type": "uint256"
        },
        {
          "internalType": "uint256",
          "name": "boost",
          "type": "uint256"
        }
      ],
      "name": "setRarity",
      "outputs": [
        {
          "internalType": "bool",
          "name": "",
          "type": "bool"
        }
      ],
      "stateMutability": "nonpayable",
      "type": "function"
    },
    {
      "inputs": [],
      "name": "title",
      "outputs": [
        {
          "internalType": "string",
          "name": "",
          "type": "string"
        }
      ],
      "stateMutability": "view",
      "type": "function"
    },
    {
      "inputs": [],
      "name": "totalSupply",
      "outputs": [
        {
          "internalType": "uint256",
          "name": "",
          "type": "uint256"
        }
      ],
      "stateMutability": "view",
      "type": "function"
    },
    {
      "inputs": [
        {
          "internalType": "address",
          "name": "newOwner",
          "type": "address"
        }
      ],
      "name": "transferOwnership",
      "outputs": [],
      "stateMutability": "nonpayable",
      "type": "function"
    }
  ],
  "transactionHash": "0x6ed59bd1dd47b48f0542498f08bffeafc4695455ee9db07e4d64501a8352b8e9",
  "args": [
    "Gen 0"
  ],
  "solcInputHash": "96ed39cd36be3a398a7b4c1cf440a2d9",
  "bytecode": "0x60806040523480156200001157600080fd5b5060405162004cd038038062004cd0833981016040819052620000349162000152565b6200003f336200005c565b805162000054906001906020840190620000ac565b50506200027b565b600080546001600160a01b038381166001600160a01b0319831681178455604051919092169283917f8be0079c531659141344cd1fd0a4f28419497f9722a3daafe3b4186f6b6457e09190a35050565b828054620000ba9062000228565b90600052602060002090601f016020900481019282620000de576000855562000129565b82601f10620000f957805160ff191683800117855562000129565b8280016001018555821562000129579182015b82811115620001295782518255916020019190600101906200010c565b50620001379291506200013b565b5090565b5b808211156200013757600081556001016200013c565b6000602080838503121562000165578182fd5b82516001600160401b03808211156200017c578384fd5b818501915085601f83011262000190578384fd5b815181811115620001a557620001a562000265565b604051601f8201601f19908116603f01168101908382118183101715620001d057620001d062000265565b816040528281528886848701011115620001e8578687fd5b8693505b828410156200020b5784840186015181850187015292850192620001ec565b828411156200021c57868684830101525b98975050505050505050565b600181811c908216806200023d57607f821691505b602082108114156200025f57634e487b7160e01b600052602260045260246000fd5b50919050565b634e487b7160e01b600052604160045260246000fd5b614a45806200028b6000396000f3fe608060405234801561001057600080fd5b506004361061016a5760003560e01c806301dca3b71461016f5780630489a8f61461018d57806308f8bcc6146101a257806318160ddd146101b557806319c920b5146101cb57806325fcf635146101ee578063305e35521461021657806335c3a2d41461021e5780633b5c9856146102315780634a79d50c1461024457806351b2440b1461024c5780636753e4651461025f578063715018a6146102745780637e617eca1461027c5780638398c91f146102a0578063899628f3146102a85780638da5cb5b146102bb5780639447c33d146102db5780639908a82a146102fe578063b67a85bd14610306578063ba349bde14610319578063bc1435061461032c578063c2b9bd631461034c578063c4903d2d1461035f578063c7d8b6c514610386578063d232b79714610399578063e82baf30146103a1578063ee99608e146103b4578063f2fde38b146103c7578063f51c654f146103da575b600080fd5b6101776103ed565b604051610184919061454f565b60405180910390f35b61019561047b565b6040516101849190614785565b6101956101b0366004614254565b6107d0565b6101bd610e97565b604051908152602001610184565b6101de6101d9366004613f59565b610eb2565b6040519015158152602001610184565b6102016101fc366004613ebf565b61106b565b604051610184999897969594939291906143e9565b6101bd6112c3565b61017761022c366004614254565b6112de565b61019561023f36600461426c565b611309565b6101776113d3565b6101de61025a366004614000565b6113e0565b61027261026d366004613e59565b611746565b005b6102726118de565b61028f61028a366004613ebf565b611919565b60405161018495949392919061445b565b610177611c12565b6102726102b6366004613e98565b611c1f565b6102c3611e3a565b6040516001600160a01b039091168152602001610184565b6102ee6102e9366004613ebf565b611e49565b6040516101849493929190614636565b6101bd611f04565b6004546102c3906001600160a01b031681565b6101776103273660046140f8565b611f1f565b61033f61033a36600461413a565b611f66565b60405161018491906146e6565b61027261035a366004613e32565b612102565b61037261036d366004613ebf565b612153565b6040516101849897969594939291906144bb565b610372610394366004613ebf565b61256e565b6101bd6125ae565b6101956103af366004614222565b6125c0565b6102726103c2366004613ef9565b61272d565b6102726103d5366004613e32565b612783565b6101de6103e83660046141d1565b612823565b600380546103fa90614973565b80601f016020809104026020016040519081016040528092919081815260200182805461042690614973565b80156104735780601f1061044857610100808354040283529160200191610473565b820191906000526020600020905b81548152906001019060200180831161045657829003601f168201915b505050505081565b6104836138e0565b6004546001600160a01b031633146104b65760405162461bcd60e51b81526004016104ad9061469a565b60405180910390fd5b600061054b600280546104c890614973565b80601f01602080910402602001604051908101604052809291908181526020018280546104f490614973565b80156105415780601f1061051657610100808354040283529160200191610541565b820191906000526020600020905b81548152906001019060200180831161052457829003601f168201915b5050505050612973565b90506105556125ae565b158061056b57506105646125ae565b8160c00151105b6105a55760405162461bcd60e51b815260206004820152600b60248201526a4f7574206f66206567677360a81b60448201526064016104ad565b60c081018051906105b5826149a8565b8152505080600882602001516040516105ce919061439e565b90815260405190819003602001902081518154829060ff1916600183600381111561060957634e487b7160e01b600052602160045260246000fd5b0217905550602082810151805161062692600185019201906139b1565b5060408201516002820155606082015160038201556080820151600482015560a0820151600582015560c0820151600682015560e0820151805180516007840191610676918391602001906139b1565b50602082810151805161068f92600185019201906139b1565b5060408281015160028301556060909201516003909101556101009290920151805151600b830155602081015151600c83015582015151600d9091015580516101c08101909152600661018082019081526521b7b6b6b7b760d11b6101a083015281906106fb90612c47565b81526020016000815260200182602001518152602001600081526020014281526020014381526020016040518060200160405280600081525081526020016040518060800160405280604051806020016040528060008152508152602001604051806020016040528060008152508152602001600081526020016000815250815260200160405180604001604052806000815260200160008152508152602001604051806040016040528060008152602001600081525081526020018260e00151815260200182610100015181525091505090565b6107d86138e0565b6107e0613a35565b6108116040518060400160405280600f81526020016e19d95d14985b991bdb505b9a5b585b608a1b81525084612d2f565b6040805180820190915260138152720e4c2e4d2e8f2a6dee4e8cac85cd8cadccee8d606b1b60208201526007546108489190612d2f565b60005b600754811015610d905760006007828154811061087857634e487b7160e01b600052603260045260246000fd5b90600052602060002001805461088d90614973565b80601f01602080910402602001604051908101604052809291908181526020018280546108b990614973565b80156109065780601f106108db57610100808354040283529160200191610906565b820191906000526020600020905b8154815290600101906020018083116108e957829003601f168201915b50505050509050600060058260405161091f919061439e565b908152602001604051809103902060405180608001604052908160008201805461094890614973565b80601f016020809104026020016040519081016040528092919081815260200182805461097490614973565b80156109c15780601f10610996576101008083540402835291602001916109c1565b820191906000526020600020905b8154815290600101906020018083116109a457829003601f168201915b5050505050815260200160018201548152602001600282015481526020016003820154815250509050610a176040518060400160405280600b81526020016a7261726974792e6e616d6560a81b81525083612d78565b610a4f604051806040016040528060128152602001717261726974792e70726f626162696c69747960701b8152508260200151612d2f565b610c1f6040518060400160405280600d81526020016c726172697479416e696d616c7360981b815250600684604051610a88919061439e565b9081526020016040518091039020600081548110610ab657634e487b7160e01b600052603260045260246000fd5b906000526020600020018054610acb90614973565b80601f0160208091040260200160405190810160405280929190818152602001828054610af790614973565b8015610b445780601f10610b1957610100808354040283529160200191610b44565b820191906000526020600020905b815481529060010190602001808311610b2757829003601f168201915b5050505050600685604051610b59919061439e565b9081526020016040518091039020600181548110610b8757634e487b7160e01b600052603260045260246000fd5b906000526020600020018054610b9c90614973565b80601f0160208091040260200160405190810160405280929190818152602001828054610bc890614973565b8015610c155780601f10610bea57610100808354040283529160200191610c15565b820191906000526020600020905b815481529060010190602001808311610bf857829003601f168201915b5050505050612dbd565b8581602001511180610c3e5750600754610c3b90600190614930565b83145b15610d7b576000600683604051610c55919061439e565b9081526020016040518091039020805480602002602001604051908101604052809291908181526020016000905b82821015610d2f578382906000526020600020018054610ca290614973565b80601f0160208091040260200160405190810160405280929190818152602001828054610cce90614973565b8015610d1b5780601f10610cf057610100808354040283529160200191610d1b565b820191906000526020600020905b815481529060010190602001808311610cfe57829003601f168201915b505050505081526020019060010190610c83565b505050509050610d7181825189610d4691906149c3565b81518110610d6457634e487b7160e01b600052603260045260246000fd5b6020026020010151612e04565b9450505050610d90565b50508080610d88906149a8565b91505061084b565b506001602083810191909152604082810180518286015260608401516101408601528383018051865260808086015161016088015242908701524360a087015282518084018452600c81526b1c985b991bdb505b9a5b585b60a21b94810194909452905190518051920151610e06939290613169565b610e4a6040518060400160405280601a81526020017972616e646f6d416e696d616c2e646174612e746f6b656e55524960301b815250826060015160000151612d78565b610e916040518060400160405280601d81526020017f72616e646f6d416e696d616c2e646174612e6d65746164617461555249000000815250826060015160200151612d78565b50919050565b6000610ea9600280546104c890614973565b60c00151905090565b600033610ebd611e3a565b6001600160a01b031614610ee35760405162461bcd60e51b81526004016104ad90614665565b6040805160a081019091526000908060018152602001610f0287612c47565b8152602001878152602001610f1786866131b8565b8152602001610f246131e6565b815250905080600987604051610f3a919061439e565b90815260405190819003602001902081518154829060ff19166001836003811115610f7557634e487b7160e01b600052602160045260246000fd5b02179055506020828101518051805191926001850192610f9892849201906139b1565b5060208201518160010155604082015181600201556060820151816003015550506040820151816005019080519060200190610fd59291906139b1565b506060820151805180516006840191610ff3918391602001906139b1565b50602082810151805161100c92600185019201906139b1565b50604082810151600283015560609092015160039091015560809290920151805151600a83015560208082015151600b8401559083015151600c90920191909155820151519082015161105f9190613229565b50600195945050505050565b80516020818301810180516008825292820191909301209152805460018201805460ff909216929161109c90614973565b80601f01602080910402602001604051908101604052809291908181526020018280546110c890614973565b80156111155780601f106110ea57610100808354040283529160200191611115565b820191906000526020600020905b8154815290600101906020018083116110f857829003601f168201915b5050505050908060020154908060030154908060040154908060050154908060060154908060070160405180608001604052908160008201805461115890614973565b80601f016020809104026020016040519081016040528092919081815260200182805461118490614973565b80156111d15780601f106111a6576101008083540402835291602001916111d1565b820191906000526020600020905b8154815290600101906020018083116111b457829003601f168201915b505050505081526020016001820180546111ea90614973565b80601f016020809104026020016040519081016040528092919081815260200182805461121690614973565b80156112635780601f1061123857610100808354040283529160200191611263565b820191906000526020600020905b81548152906001019060200180831161124657829003601f168201915b505050918352505060028201546020808301919091526003909201546040918201528051608081018252600b85015460608201908152815281518084018352600c86015481528184015281519283018252600d9094015482528301529089565b60006112d5600280546104c890614973565b60600151905090565b600781815481106112ee57600080fd5b9060005260206000200160009150905080546103fa90614973565b6113116138e0565b6000604051806040016040528061133085600001518660200151613392565b815260200161134785602001518660000151613392565b905290506000816113596002876149c3565b6002811061137757634e487b7160e01b600052603260045260246000fd5b602090810291909101516003858301526040808201518187015260c082015161014087015291810151808652606082015192019190915260e0908101516101608501524260808501524360a08501528301939093525092915050565b600180546103fa90614973565b6000336113eb611e3a565b6001600160a01b0316146114115760405162461bcd60e51b81526004016104ad90614665565b60408051610100810190915260009080600381526020016114318a612c47565b81526020018a815260200188815260200187815260200186815260200161145886866131b8565b81526020016114656131e6565b815250905080600a8a60405161147b919061439e565b90815260405190819003602001902081518154829060ff191660018360038111156114b657634e487b7160e01b600052602160045260246000fd5b021790555060208281015180518051919260018501926114d992849201906139b1565b50602082015181600101556040820151816002015560608201518160030155505060408201518160050190805190602001906115169291906139b1565b50606082015160068201556080820151805161153c9160078401916020909101906139b1565b5060a082015180516115589160088401916020909101906139b1565b5060c0820151805180516009840191611576918391602001906139b1565b50602082810151805161158f92600185019201906139b1565b50604082810151600283015560609092015160039091015560e09290920151805151600d830155602081015151600e8301559091015151600f9091015580600b6115d98888613830565b6040516115e6919061439e565b90815260405190819003602001902081518154829060ff1916600183600381111561162157634e487b7160e01b600052602160045260246000fd5b0217905550602082810151805180519192600185019261164492849201906139b1565b50602082015181600101556040820151816002015560608201518160030155505060408201518160050190805190602001906116819291906139b1565b5060608201516006820155608082015180516116a79160078401916020909101906139b1565b5060a082015180516116c39160088401916020909101906139b1565b5060c08201518051805160098401916116e1918391602001906139b1565b5060208281015180516116fa92600185019201906139b1565b50604082810151600283015560609092015160039091015560e09290920151805151600d830155602081015151600e8301559091015151600f9091015550600198975050505050505050565b3361174f611e3a565b6001600160a01b0316146117755760405162461bcd60e51b81526004016104ad90614665565b60005b818110156118d957368383838181106117a157634e487b7160e01b600052603260045260246000fd5b90506020028101906117b391906148e7565b90506118c46117c560208301836148a3565b8080601f01602080910402602001604051908101604052809392919081815260200183838082843760009201919091525061180692508591508190506148a3565b8080601f0160208091040260200160405190810160405280939291908181526020018383808284376000920191909152506118489250505060408501856148a3565b8080601f01602080910402602001604051908101604052809392919081815260200183838082843760009201919091525061188a9250505060608601866148a3565b8080601f016020809104026020016040519081016040528093929190818152602001838380828437600092019190915250610eb292505050565b505080806118d1906149a8565b915050611778565b505050565b336118e7611e3a565b6001600160a01b03161461190d5760405162461bcd60e51b81526004016104ad90614665565b611917600061385c565b565b805160208183018101805160098252928201919093012091528054604080516080810190915260018301805460ff90931693928290829061195990614973565b80601f016020809104026020016040519081016040528092919081815260200182805461198590614973565b80156119d25780601f106119a7576101008083540402835291602001916119d2565b820191906000526020600020905b8154815290600101906020018083116119b557829003601f168201915b50505050508152602001600182015481526020016002820154815260200160038201548152505090806005018054611a0990614973565b80601f0160208091040260200160405190810160405280929190818152602001828054611a3590614973565b8015611a825780601f10611a5757610100808354040283529160200191611a82565b820191906000526020600020905b815481529060010190602001808311611a6557829003601f168201915b50505050509080600601604051806080016040529081600082018054611aa790614973565b80601f0160208091040260200160405190810160405280929190818152602001828054611ad390614973565b8015611b205780601f10611af557610100808354040283529160200191611b20565b820191906000526020600020905b815481529060010190602001808311611b0357829003601f168201915b50505050508152602001600182018054611b3990614973565b80601f0160208091040260200160405190810160405280929190818152602001828054611b6590614973565b8015611bb25780601f10611b8757610100808354040283529160200191611bb2565b820191906000526020600020905b815481529060010190602001808311611b9557829003601f168201915b505050918352505060028201546020808301919091526003909201546040918201528051608081018252600a85015460608201908152815281518084018352600b86015481528184015281519283018252600c9094015482528301529085565b600280546103fa90614973565b33611c28611e3a565b6001600160a01b031614611c4e5760405162461bcd60e51b81526004016104ad90614665565b60005b818110156118d95736838383818110611c7a57634e487b7160e01b600052603260045260246000fd5b9050602002810190611c8c91906148fc565b9050611e25611c9e60208301836148a3565b8080601f016020809104026020016040519081016040528093929190818152602001838380828437600092019190915250611cdf92508591508190506148a3565b8080601f0160208091040260200160405190810160405280939291908181526020018383808284376000920191909152505050506040840135611d2560608601866148a3565b8080601f016020809104026020016040519081016040528093929190818152602001838380828437600092019190915250611d679250505060808701876148a3565b8080601f016020809104026020016040519081016040528093929190818152602001838380828437600092019190915250611da99250505060a08801886148a3565b8080601f016020809104026020016040519081016040528093929190818152602001838380828437600092019190915250611deb9250505060c08901896148a3565b8080601f0160208091040260200160405190810160405280939291908181526020018383808284376000920191909152506113e092505050565b50508080611e32906149a8565b915050611c51565b6000546001600160a01b031690565b8051602081830181018051600582529282019190930120915280548190611e6f90614973565b80601f0160208091040260200160405190810160405280929190818152602001828054611e9b90614973565b8015611ee85780601f10611ebd57610100808354040283529160200191611ee8565b820191906000526020600020905b815481529060010190602001808311611ecb57829003601f168201915b5050505050908060010154908060020154908060030154905084565b6000611f16600380546104c890614973565b60400151905090565b81516020818401810180516006825292820191850191909120919052805482908110611f4a57600080fd5b906000526020600020016000915091505080546103fa90614973565b611f6e613a64565b33611f77611e3a565b6001600160a01b031614611f9d5760405162461bcd60e51b81526004016104ad90614665565b611fa5613a64565b60208101879052611fb684846131b8565b60e0820152611fc36131e6565b610100820152611fdb86670de0b6b3a76400006138ac565b60608201526040808201869052518190600890611ff9908a9061439e565b90815260405190819003602001902081518154829060ff1916600183600381111561203457634e487b7160e01b600052602160045260246000fd5b0217905550602082810151805161205192600185019201906139b1565b5060408201516002820155606082015160038201556080820151600482015560a0820151600582015560c0820151600682015560e08201518051805160078401916120a1918391602001906139b1565b5060208281015180516120ba92600185019201906139b1565b5060408281015160028301556060909201516003909101556101009290920151805151600b830155602081015151600c8301559091015151600d909101559695505050505050565b3361210b611e3a565b6001600160a01b0316146121315760405162461bcd60e51b81526004016104ad90614665565b600480546001600160a01b0319166001600160a01b0392909216919091179055565b8051602081830181018051600a8252928201919093012091528054604080516080810190915260018301805460ff90931693928290829061219390614973565b80601f01602080910402602001604051908101604052809291908181526020018280546121bf90614973565b801561220c5780601f106121e15761010080835404028352916020019161220c565b820191906000526020600020905b8154815290600101906020018083116121ef57829003601f168201915b5050505050815260200160018201548152602001600282015481526020016003820154815250509080600501805461224390614973565b80601f016020809104026020016040519081016040528092919081815260200182805461226f90614973565b80156122bc5780601f10612291576101008083540402835291602001916122bc565b820191906000526020600020905b81548152906001019060200180831161229f57829003601f168201915b5050505050908060060154908060070180546122d790614973565b80601f016020809104026020016040519081016040528092919081815260200182805461230390614973565b80156123505780601f1061232557610100808354040283529160200191612350565b820191906000526020600020905b81548152906001019060200180831161233357829003601f168201915b50505050509080600801805461236590614973565b80601f016020809104026020016040519081016040528092919081815260200182805461239190614973565b80156123de5780601f106123b3576101008083540402835291602001916123de565b820191906000526020600020905b8154815290600101906020018083116123c157829003601f168201915b5050505050908060090160405180608001604052908160008201805461240390614973565b80601f016020809104026020016040519081016040528092919081815260200182805461242f90614973565b801561247c5780601f106124515761010080835404028352916020019161247c565b820191906000526020600020905b81548152906001019060200180831161245f57829003601f168201915b5050505050815260200160018201805461249590614973565b80601f01602080910402602001604051908101604052809291908181526020018280546124c190614973565b801561250e5780601f106124e35761010080835404028352916020019161250e565b820191906000526020600020905b8154815290600101906020018083116124f157829003601f168201915b505050918352505060028201546020808301919091526003909201546040918201528051608081018252600d85015460608201908152815281518084018352600e86015481528184015281519283018252600f9094015482528301529088565b8051602081830181018051600b8252928201919093012091528054604080516080810190915260018301805460ff90931693928290829061219390614973565b6000611f16600280546104c890614973565b6125c86138e0565b6004546001600160a01b031633146125f25760405162461bcd60e51b81526004016104ad9061469a565b6000612604600380546104c890614973565b905061260e611f04565b1580612624575061261d611f04565b8160c00151105b6126655760405162461bcd60e51b81526020600482015260126024820152714f7574206f6620687962726964206567677360701b60448201526064016104ad565b604080516101c08101909152600661018082019081526521b7b6b6b7b760d11b6101a0830152819061269690612c47565b815260200160028152602001826020015181526020016000815260200142815260200143815260200160405180602001604052806000815250815260200184815260200160405180604001604052806000815260200160008152508152602001604051806040016040528060008152602001600081525081526020018260e001518152602001826101000151815250915050919050565b33612736611e3a565b6001600160a01b03161461275c5760405162461bcd60e51b81526004016104ad90614665565b815161276f9060029060208501906139b1565b5080516118d99060039060208401906139b1565b3361278c611e3a565b6001600160a01b0316146127b25760405162461bcd60e51b81526004016104ad90614665565b6001600160a01b0381166128175760405162461bcd60e51b815260206004820152602660248201527f4f776e61626c653a206e6577206f776e657220697320746865207a65726f206160448201526564647265737360d01b60648201526084016104ad565b6128208161385c565b50565b60003361282e611e3a565b6001600160a01b0316146128545760405162461bcd60e51b81526004016104ad90614665565b6000841161289f5760405162461bcd60e51b8152602060048201526018602482015277526172697479206d757374206265206f766572207a65726f60401b60448201526064016104ad565b604080516080810182528681526020810186905280820185905260608101849052905181906005906128d290899061439e565b908152602001604051809103902060008201518160000190805190602001906128fc9291906139b1565b506020828101516001808401919091556040840151600284015560609093015160039092019190915582516007805493840181556000528051612966937fa66cc928b5edb82af9bd49922954155ab7b0942694bea4ce44661d9a8736c688019291909101906139b1565b5060019695505050505050565b61297b613a64565b60088260405161298b919061439e565b9081526040805191829003602001822061012083019091528054829060ff1660038111156129c957634e487b7160e01b600052602160045260246000fd5b60038111156129e857634e487b7160e01b600052602160045260246000fd5b81526020016001820180546129fc90614973565b80601f0160208091040260200160405190810160405280929190818152602001828054612a2890614973565b8015612a755780601f10612a4a57610100808354040283529160200191612a75565b820191906000526020600020905b815481529060010190602001808311612a5857829003601f168201915b50505050508152602001600282015481526020016003820154815260200160048201548152602001600582015481526020016006820154815260200160078201604051806080016040529081600082018054612ad090614973565b80601f0160208091040260200160405190810160405280929190818152602001828054612afc90614973565b8015612b495780601f10612b1e57610100808354040283529160200191612b49565b820191906000526020600020905b815481529060010190602001808311612b2c57829003601f168201915b50505050508152602001600182018054612b6290614973565b80601f0160208091040260200160405190810160405280929190818152602001828054612b8e90614973565b8015612bdb5780601f10612bb057610100808354040283529160200191612bdb565b820191906000526020600020905b815481529060010190602001808311612bbe57829003601f168201915b505050918352505060028201546020808301919091526003909201546040918201529183528151608081018352600b85015460608201908152815282518083018452600c86015481528183015282518083018452600d9095015485529182019390935291015292915050565b612c4f613aaa565b600582604051612c5f919061439e565b9081526020016040518091039020604051806080016040529081600082018054612c8890614973565b80601f0160208091040260200160405190810160405280929190818152602001828054612cb490614973565b8015612d015780601f10612cd657610100808354040283529160200191612d01565b820191906000526020600020905b815481529060010190602001808311612ce457829003601f168201915b5050505050815260200160018201548152602001600282015481526020016003820154815250509050919050565b612d748282604051602401612d45929190614614565b60408051601f198184030181529190526020810180516001600160e01b03166309710a9d60e41b1790526138bf565b5050565b612d748282604051602401612d8e929190614562565b60408051601f198184030181529190526020810180516001600160e01b0316634b5c427760e01b1790526138bf565b6118d9838383604051602401612dd593929190614590565b60408051601f198184030181529190526020810180516001600160e01b0316632ced7cef60e01b1790526138bf565b612e0c613a35565b600982604051612e1c919061439e565b9081526040805191829003602001822060a083019091528054829060ff166003811115612e5957634e487b7160e01b600052602160045260246000fd5b6003811115612e7857634e487b7160e01b600052602160045260246000fd5b815260200160018201604051806080016040529081600082018054612e9c90614973565b80601f0160208091040260200160405190810160405280929190818152602001828054612ec890614973565b8015612f155780601f10612eea57610100808354040283529160200191612f15565b820191906000526020600020905b815481529060010190602001808311612ef857829003601f168201915b5050505050815260200160018201548152602001600282015481526020016003820154815250508152602001600582018054612f5090614973565b80601f0160208091040260200160405190810160405280929190818152602001828054612f7c90614973565b8015612fc95780601f10612f9e57610100808354040283529160200191612fc9565b820191906000526020600020905b815481529060010190602001808311612fac57829003601f168201915b5050505050815260200160068201604051806080016040529081600082018054612ff290614973565b80601f016020809104026020016040519081016040528092919081815260200182805461301e90614973565b801561306b5780601f106130405761010080835404028352916020019161306b565b820191906000526020600020905b81548152906001019060200180831161304e57829003601f168201915b5050505050815260200160018201805461308490614973565b80601f01602080910402602001604051908101604052809291908181526020018280546130b090614973565b80156130fd5780601f106130d2576101008083540402835291602001916130fd565b820191906000526020600020905b8154815290600101906020018083116130e057829003601f168201915b505050918352505060028201546020808301919091526003909201546040918201529183528151608081018352600a85015460608201908152815282518083018452600b86015481528183015282518083018452600c9095015485529182019390935291015292915050565b6131b28484848460405160240161318394939291906145c9565b60408051601f198184030181529190526020810180516001600160e01b0316639fd009f560e01b1790526138bf565b50505050565b6131c0613ad2565b506040805160808101825292835260208301919091526000908201819052606082015290565b6131ee613af9565b5060408051608081018252600a6060820181815282528251602081810185529181528183015282519081018352605081529181019190915290565b600060068360405161323b919061439e565b9081526020016040518091039020905060005b815481101561333e57600082828154811061327957634e487b7160e01b600052603260045260246000fd5b90600052602060002001805461328e90614973565b80601f01602080910402602001604051908101604052809291908181526020018280546132ba90614973565b80156133075780601f106132dc57610100808354040283529160200191613307565b820191906000526020600020905b8154815290600101906020018083116132ea57829003601f168201915b5050505050905080805190602001208480519060200120141561332b575050505050565b5080613336816149a8565b91505061324e565b508054600181018255600082815260209081902084516133659391909101918501906139b1565b5080600684604051613377919061439e565b90815260405190819003602001902081546131b29290613b26565b61339a613b88565b600b6133a68484613830565b6040516133b3919061439e565b9081526040805191829003602001822061010083019091528054829060ff1660038111156133f157634e487b7160e01b600052602160045260246000fd5b600381111561341057634e487b7160e01b600052602160045260246000fd5b81526020016001820160405180608001604052908160008201805461343490614973565b80601f016020809104026020016040519081016040528092919081815260200182805461346090614973565b80156134ad5780601f10613482576101008083540402835291602001916134ad565b820191906000526020600020905b81548152906001019060200180831161349057829003601f168201915b50505050508152602001600182015481526020016002820154815260200160038201548152505081526020016005820180546134e890614973565b80601f016020809104026020016040519081016040528092919081815260200182805461351490614973565b80156135615780601f1061353657610100808354040283529160200191613561565b820191906000526020600020905b81548152906001019060200180831161354457829003601f168201915b505050505081526020016006820154815260200160078201805461358490614973565b80601f01602080910402602001604051908101604052809291908181526020018280546135b090614973565b80156135fd5780601f106135d2576101008083540402835291602001916135fd565b820191906000526020600020905b8154815290600101906020018083116135e057829003601f168201915b5050505050815260200160088201805461361690614973565b80601f016020809104026020016040519081016040528092919081815260200182805461364290614973565b801561368f5780601f106136645761010080835404028352916020019161368f565b820191906000526020600020905b81548152906001019060200180831161367257829003601f168201915b50505050508152602001600982016040518060800160405290816000820180546136b890614973565b80601f01602080910402602001604051908101604052809291908181526020018280546136e490614973565b80156137315780601f1061370657610100808354040283529160200191613731565b820191906000526020600020905b81548152906001019060200180831161371457829003601f168201915b5050505050815260200160018201805461374a90614973565b80601f016020809104026020016040519081016040528092919081815260200182805461377690614973565b80156137c35780601f10613798576101008083540402835291602001916137c3565b820191906000526020600020905b8154815290600101906020018083116137a657829003601f168201915b505050918352505060028201546020808301919091526003909201546040918201529183528151608081018352600d85015460608201908152815282518083018452600e86015481528183015282518083018452600f909501548552918201939093529101529392505050565b606082826040516020016138459291906143ba565b604051602081830303815290604052905092915050565b600080546001600160a01b038381166001600160a01b0319831681178455604051919092169283917f8be0079c531659141344cd1fd0a4f28419497f9722a3daafe3b4186f6b6457e09190a35050565b60006138b88284614911565b9392505050565b80516a636f6e736f6c652e6c6f67602083016000808483855afa5050505050565b6040518061018001604052806138f4613aaa565b815260200160008152602001606081526020016000815260200160008152602001600081526020016060815260200161394e6040518060800160405280606081526020016060815260200160008152602001600081525090565b8152602001613970604051806040016040528060008152602001600081525090565b8152602001613992604051806040016040528060008152602001600081525090565b815260200161399f613ad2565b81526020016139ac613af9565b905290565b8280546139bd90614973565b90600052602060002090601f0160209004810192826139df5760008555613a25565b82601f106139f857805160ff1916838001178555613a25565b82800160010185558215613a25579182015b82811115613a25578251825591602001919060010190613a0a565b50613a31929150613bcd565b5090565b6040805160a081019091528060008152602001613a50613aaa565b81526020016060815260200161399f613ad2565b604080516101208101909152806000815260200160608152602001600081526020016000815260200160008152602001600081526020016000815260200161399f613ad2565b6040518060800160405280606081526020016000815260200160008152602001600081525090565b60408051608081018252606080825260208201819052600092820183905281019190915290565b6040518060600160405280613b0c613be2565b8152602001613b19613be2565b81526020016139ac613be2565b828054828255906000526020600020908101928215613b7c5760005260206000209182015b82811115613b7c578282908054613b6190614973565b613b6c929190613bf5565b5091600101919060010190613b4b565b50613a31929150613c70565b6040805161010081019091528060008152602001613ba4613aaa565b81526020016060815260200160008152602001606081526020016060815260200161399f613ad2565b5b80821115613a315760008155600101613bce565b6040518060200160405280600081525090565b828054613c0190614973565b90600052602060002090601f016020900481019282613c235760008555613a25565b82601f10613c345780548555613a25565b82800160010185558215613a2557600052602060002091601f016020900482015b82811115613a25578254825591600101919060010190613c55565b80821115613a31576000613c848282613c8d565b50600101613c70565b508054613c9990614973565b6000825580601f10613ca9575050565b601f0160209004906000526020600020908101906128209190613bcd565b60008083601f840112613cd8578081fd5b5081356001600160401b03811115613cee578182fd5b6020830191508360208260051b8501011115613d0957600080fd5b9250929050565b600082601f830112613d20578081fd5b81356001600160401b0380821115613d3a57613d3a6149f9565b604051601f8301601f19908116603f01168101908282118183101715613d6257613d626149f9565b81604052838152866020858801011115613d7a578485fd5b8360208701602083013792830160200193909352509392505050565b600060808284031215613da7578081fd5b604051608081016001600160401b038282108183111715613dca57613dca6149f9565b816040528293508435915080821115613de257600080fd5b613dee86838701613d10565b83526020850135915080821115613e0457600080fd5b50613e1185828601613d10565b60208301525060408301356040820152606083013560608201525092915050565b600060208284031215613e43578081fd5b81356001600160a01b03811681146138b8578182fd5b60008060208385031215613e6b578081fd5b82356001600160401b03811115613e80578182fd5b613e8c85828601613cc7565b90969095509350505050565b60008060208385031215613eaa578182fd5b82356001600160401b03811115613e80578283fd5b600060208284031215613ed0578081fd5b81356001600160401b03811115613ee5578182fd5b613ef184828501613d10565b949350505050565b60008060408385031215613f0b578182fd5b82356001600160401b0380821115613f21578384fd5b613f2d86838701613d10565b93506020850135915080821115613f42578283fd5b50613f4f85828601613d10565b9150509250929050565b60008060008060808587031215613f6e578182fd5b84356001600160401b0380821115613f84578384fd5b613f9088838901613d10565b95506020870135915080821115613fa5578384fd5b613fb188838901613d10565b94506040870135915080821115613fc6578384fd5b613fd288838901613d10565b93506060870135915080821115613fe7578283fd5b50613ff487828801613d10565b91505092959194509250565b600080600080600080600060e0888a03121561401a578283fd5b87356001600160401b0380821115614030578485fd5b61403c8b838c01613d10565b985060208a0135915080821115614051578485fd5b61405d8b838c01613d10565b975060408a0135965060608a0135915080821115614079578485fd5b6140858b838c01613d10565b955060808a013591508082111561409a578485fd5b6140a68b838c01613d10565b945060a08a01359150808211156140bb578384fd5b6140c78b838c01613d10565b935060c08a01359150808211156140dc578283fd5b506140e98a828b01613d10565b91505092959891949750929550565b6000806040838503121561410a578182fd5b82356001600160401b0381111561411f578283fd5b61412b85828601613d10565b95602094909401359450505050565b600080600080600060a08688031215614151578081fd5b85356001600160401b0380821115614167578283fd5b61417389838a01613d10565b965060208801359550604088013594506060880135915080821115614196578283fd5b6141a289838a01613d10565b935060808801359150808211156141b7578283fd5b506141c488828901613d10565b9150509295509295909350565b600080600080608085870312156141e6578384fd5b84356001600160401b038111156141fb578485fd5b61420787828801613d10565b97602087013597506040870135966060013595509350505050565b600060208284031215614233578081fd5b81356001600160401b03811115614248578182fd5b613ef184828501613d96565b600060208284031215614265578081fd5b5035919050565b6000806040838503121561427e578182fd5b8235915060208301356001600160401b0381111561429a578182fd5b613f4f85828601613d96565b600481106142c457634e487b7160e01b600052602160045260246000fd5b9052565b600081518084526142e0816020860160208601614947565b601f01601f19169290920160200192915050565b8051518252602080820151519083015260409081015151910152565b600081516080845261432560808501826142c8565b90506020830151848203602086015261433e82826142c8565b91505060408301516040850152606083015160608501528091505092915050565b600081516080845261437460808501826142c8565b90506020830151602085015260408301516040850152606083015160608501528091505092915050565b600082516143b0818460208701614947565b9190910192915050565b600083516143cc818460208801614947565b8351908301906143e0818360208801614947565b01949350505050565b60006101606143f8838d6142a6565b80602084015261440a8184018c6142c8565b90508960408401528860608401528760808401528660a08401528560c084015282810360e084015261443c8186614310565b91505061444d6101008301846142f4565b9a9950505050505050505050565b61446581876142a6565b60e06020820152600061447b60e083018761435f565b828103604084015261448d81876142c8565b905082810360608401526144a18186614310565b9150506144b160808301846142f4565b9695505050505050565b60006101406144ca838c6142a6565b8060208401526144dc8184018b61435f565b905082810360408401526144f0818a6142c8565b9050876060840152828103608084015261450a81886142c8565b905082810360a084015261451e81876142c8565b905082810360c08401526145328186614310565b91505061454260e08301846142f4565b9998505050505050505050565b6020815260006138b860208301846142c8565b60408152600061457560408301856142c8565b828103602084015261458781856142c8565b95945050505050565b6060815260006145a360608301866142c8565b82810360208401526145b581866142c8565b905082810360408401526144b181856142c8565b6080815260006145dc60808301876142c8565b82810360208401526145ee81876142c8565b9050828103604084015261460281866142c8565b91505082606083015295945050505050565b60408152600061462760408301856142c8565b90508260208301529392505050565b60808152600061464960808301876142c8565b6020830195909552506040810192909252606090910152919050565b6020808252818101527f4f776e61626c653a2063616c6c6572206973206e6f7420746865206f776e6572604082015260600190565b6020808252602c908201527f5a6f6f44726f703a204f6e6c79205a6f6f4b65657065722063616e2063616c6c60408201526b081d1a1a5cc81b595d1a1bd960a21b606082015260800190565b602081526146f86020820183516142a6565b6000602083015161016060408401526147156101808401826142c8565b90506040840151606084015260608401516080840152608084015160a084015260a084015160c084015260c084015160e084015260e0840151610100601f1985840301818601526147668383614310565b92508086015191505061477d6101208501826142f4565b509392505050565b602081526000825161020060208401526147a361022084018261435f565b905060208401516147b760408501826142a6565b506040840151601f19808584030160608601526147d483836142c8565b925060608601516080860152608086015160a086015260a086015160c086015260c08601519150808584030160e086015261480f83836142c8565b925060e0860151915061010081868503018187015261482e8484614310565b9350808701519250506101206148508187018480518252602090810151910152565b860151915061016061486e8682018480518252602090810151910152565b610140870151925081868503016101a087015261488b8484614310565b9350808701519250505061477d6101c08501826142f4565b6000808335601e198436030181126148b9578283fd5b8301803591506001600160401b038211156148d2578283fd5b602001915036819003821315613d0957600080fd5b60008235607e198336030181126143b0578182fd5b6000823560de198336030181126143b0578182fd5b600081600019048311821515161561492b5761492b6149e3565b500290565b600082821015614942576149426149e3565b500390565b60005b8381101561496257818101518382015260200161494a565b838111156131b25750506000910152565b600181811c9082168061498757607f821691505b60208210811415610e9157634e487b7160e01b600052602260045260246000fd5b60006000198214156149bc576149bc6149e3565b5060010190565b6000826149de57634e487b7160e01b81526012600452602481fd5b500690565b634e487b7160e01b600052601160045260246000fd5b634e487b7160e01b600052604160045260246000fdfea26469706673582212205072672b2c9e86d1c3a621c74e8c52d72f345bed51f0dd1ece9344090278ed0d64736f6c63430008040033",
  "devdoc": {
    "kind": "dev",
    "methods": {
      "owner()": {
        "details": "Returns the address of the current owner."
      },
      "renounceOwnership()": {
        "details": "Leaves the contract without owner. It will not be possible to call `onlyOwner` functions anymore. Can only be called by the current owner. NOTE: Renouncing ownership will leave the contract without an owner, thereby removing any functionality that is only available to the owner."
      },
      "transferOwnership(address)": {
        "details": "Transfers ownership of the contract to a new account (`newOwner`). Can only be called by the current owner."
      }
    },
    "version": 1
  },
  "userdoc": {
    "kind": "user",
    "methods": {},
    "version": 1
  },
  "storageLayout": {
    "storage": [
      {
        "astId": 7,
        "contract": "src/ZooDrop.sol:ZooDrop",
        "label": "_owner",
        "offset": 0,
        "slot": "0",
        "type": "t_address"
      },
      {
        "astId": 6762,
        "contract": "src/ZooDrop.sol:ZooDrop",
        "label": "title",
        "offset": 0,
        "slot": "1",
        "type": "t_string_storage"
      },
      {
        "astId": 6764,
        "contract": "src/ZooDrop.sol:ZooDrop",
        "label": "baseEgg",
        "offset": 0,
        "slot": "2",
        "type": "t_string_storage"
      },
      {
        "astId": 6766,
        "contract": "src/ZooDrop.sol:ZooDrop",
        "label": "hybridEgg",
        "offset": 0,
        "slot": "3",
        "type": "t_string_storage"
      },
      {
        "astId": 6768,
        "contract": "src/ZooDrop.sol:ZooDrop",
        "label": "keeperAddress",
        "offset": 0,
        "slot": "4",
        "type": "t_address"
      },
      {
        "astId": 6773,
        "contract": "src/ZooDrop.sol:ZooDrop",
        "label": "rarities",
        "offset": 0,
        "slot": "5",
        "type": "t_mapping(t_string_memory_ptr,t_struct(Rarity)20055_storage)"
      },
      {
        "astId": 6778,
        "contract": "src/ZooDrop.sol:ZooDrop",
        "label": "rarityAnimals",
        "offset": 0,
        "slot": "6",
        "type": "t_mapping(t_string_memory_ptr,t_array(t_string_storage)dyn_storage)"
      },
      {
        "astId": 6781,
        "contract": "src/ZooDrop.sol:ZooDrop",
        "label": "raritySorted",
        "offset": 0,
        "slot": "7",
        "type": "t_array(t_string_storage)dyn_storage"
      },
      {
        "astId": 6786,
        "contract": "src/ZooDrop.sol:ZooDrop",
        "label": "eggs",
        "offset": 0,
        "slot": "8",
        "type": "t_mapping(t_string_memory_ptr,t_struct(Egg)6724_storage)"
      },
      {
        "astId": 6791,
        "contract": "src/ZooDrop.sol:ZooDrop",
        "label": "animals",
        "offset": 0,
        "slot": "9",
        "type": "t_mapping(t_string_memory_ptr,t_struct(Animal)6739_storage)"
      },
      {
        "astId": 6796,
        "contract": "src/ZooDrop.sol:ZooDrop",
        "label": "hybrids",
        "offset": 0,
        "slot": "10",
        "type": "t_mapping(t_string_memory_ptr,t_struct(Hybrid)6760_storage)"
      },
      {
        "astId": 6801,
        "contract": "src/ZooDrop.sol:ZooDrop",
        "label": "hybridParents",
        "offset": 0,
        "slot": "11",
        "type": "t_mapping(t_string_memory_ptr,t_struct(Hybrid)6760_storage)"
      }
    ],
    "types": {
      "t_address": {
        "encoding": "inplace",
        "label": "address",
        "numberOfBytes": "20"
      },
      "t_array(t_string_storage)dyn_storage": {
        "base": "t_string_storage",
        "encoding": "dynamic_array",
        "label": "string[]",
        "numberOfBytes": "32"
      },
      "t_bytes32": {
        "encoding": "inplace",
        "label": "bytes32",
        "numberOfBytes": "32"
      },
      "t_enum(Type)20046": {
        "encoding": "inplace",
        "label": "enum IZoo.Type",
        "numberOfBytes": "1"
      },
      "t_mapping(t_string_memory_ptr,t_array(t_string_storage)dyn_storage)": {
        "encoding": "mapping",
        "key": "t_string_memory_ptr",
        "label": "mapping(string => string[])",
        "numberOfBytes": "32",
        "value": "t_array(t_string_storage)dyn_storage"
      },
      "t_mapping(t_string_memory_ptr,t_struct(Animal)6739_storage)": {
        "encoding": "mapping",
        "key": "t_string_memory_ptr",
        "label": "mapping(string => struct ZooDrop.Animal)",
        "numberOfBytes": "32",
        "value": "t_struct(Animal)6739_storage"
      },
      "t_mapping(t_string_memory_ptr,t_struct(Egg)6724_storage)": {
        "encoding": "mapping",
        "key": "t_string_memory_ptr",
        "label": "mapping(string => struct ZooDrop.Egg)",
        "numberOfBytes": "32",
        "value": "t_struct(Egg)6724_storage"
      },
      "t_mapping(t_string_memory_ptr,t_struct(Hybrid)6760_storage)": {
        "encoding": "mapping",
        "key": "t_string_memory_ptr",
        "label": "mapping(string => struct ZooDrop.Hybrid)",
        "numberOfBytes": "32",
        "value": "t_struct(Hybrid)6760_storage"
      },
      "t_mapping(t_string_memory_ptr,t_struct(Rarity)20055_storage)": {
        "encoding": "mapping",
        "key": "t_string_memory_ptr",
        "label": "mapping(string => struct IZoo.Rarity)",
        "numberOfBytes": "32",
        "value": "t_struct(Rarity)20055_storage"
      },
      "t_string_memory_ptr": {
        "encoding": "bytes",
        "label": "string",
        "numberOfBytes": "32"
      },
      "t_string_storage": {
        "encoding": "bytes",
        "label": "string",
        "numberOfBytes": "32"
      },
      "t_struct(Animal)6739_storage": {
        "encoding": "inplace",
        "label": "struct ZooDrop.Animal",
        "members": [
          {
            "astId": 6727,
            "contract": "src/ZooDrop.sol:ZooDrop",
            "label": "kind",
            "offset": 0,
            "slot": "0",
            "type": "t_enum(Type)20046"
          },
          {
            "astId": 6730,
            "contract": "src/ZooDrop.sol:ZooDrop",
            "label": "rarity",
            "offset": 0,
            "slot": "1",
            "type": "t_struct(Rarity)20055_storage"
          },
          {
            "astId": 6732,
            "contract": "src/ZooDrop.sol:ZooDrop",
            "label": "name",
            "offset": 0,
            "slot": "5",
            "type": "t_string_storage"
          },
          {
            "astId": 6735,
            "contract": "src/ZooDrop.sol:ZooDrop",
            "label": "data",
            "offset": 0,
            "slot": "6",
            "type": "t_struct(MediaData)19881_storage"
          },
          {
            "astId": 6738,
            "contract": "src/ZooDrop.sol:ZooDrop",
            "label": "bidShares",
            "offset": 0,
            "slot": "10",
            "type": "t_struct(BidShares)19713_storage"
          }
        ],
        "numberOfBytes": "416"
      },
      "t_struct(BidShares)19713_storage": {
        "encoding": "inplace",
        "label": "struct IMarket.BidShares",
        "members": [
          {
            "astId": 19706,
            "contract": "src/ZooDrop.sol:ZooDrop",
            "label": "prevOwner",
            "offset": 0,
            "slot": "0",
            "type": "t_struct(D256)4192_storage"
          },
          {
            "astId": 19709,
            "contract": "src/ZooDrop.sol:ZooDrop",
            "label": "creator",
            "offset": 0,
            "slot": "1",
            "type": "t_struct(D256)4192_storage"
          },
          {
            "astId": 19712,
            "contract": "src/ZooDrop.sol:ZooDrop",
            "label": "owner",
            "offset": 0,
            "slot": "2",
            "type": "t_struct(D256)4192_storage"
          }
        ],
        "numberOfBytes": "96"
      },
      "t_struct(D256)4192_storage": {
        "encoding": "inplace",
        "label": "struct Decimal.D256",
        "members": [
          {
            "astId": 4191,
            "contract": "src/ZooDrop.sol:ZooDrop",
            "label": "value",
            "offset": 0,
            "slot": "0",
            "type": "t_uint256"
          }
        ],
        "numberOfBytes": "32"
      },
      "t_struct(Egg)6724_storage": {
        "encoding": "inplace",
        "label": "struct ZooDrop.Egg",
        "members": [
          {
            "astId": 6705,
            "contract": "src/ZooDrop.sol:ZooDrop",
            "label": "kind",
            "offset": 0,
            "slot": "0",
            "type": "t_enum(Type)20046"
          },
          {
            "astId": 6707,
            "contract": "src/ZooDrop.sol:ZooDrop",
            "label": "name",
            "offset": 0,
            "slot": "1",
            "type": "t_string_storage"
          },
          {
            "astId": 6709,
            "contract": "src/ZooDrop.sol:ZooDrop",
            "label": "supply",
            "offset": 0,
            "slot": "2",
            "type": "t_uint256"
          },
          {
            "astId": 6711,
            "contract": "src/ZooDrop.sol:ZooDrop",
            "label": "price",
            "offset": 0,
            "slot": "3",
            "type": "t_uint256"
          },
          {
            "astId": 6713,
            "contract": "src/ZooDrop.sol:ZooDrop",
            "label": "timestamp",
            "offset": 0,
            "slot": "4",
            "type": "t_uint256"
          },
          {
            "astId": 6715,
            "contract": "src/ZooDrop.sol:ZooDrop",
            "label": "birthday",
            "offset": 0,
            "slot": "5",
            "type": "t_uint256"
          },
          {
            "astId": 6717,
            "contract": "src/ZooDrop.sol:ZooDrop",
            "label": "minted",
            "offset": 0,
            "slot": "6",
            "type": "t_uint256"
          },
          {
            "astId": 6720,
            "contract": "src/ZooDrop.sol:ZooDrop",
            "label": "data",
            "offset": 0,
            "slot": "7",
            "type": "t_struct(MediaData)19881_storage"
          },
          {
            "astId": 6723,
            "contract": "src/ZooDrop.sol:ZooDrop",
            "label": "bidShares",
            "offset": 0,
            "slot": "11",
            "type": "t_struct(BidShares)19713_storage"
          }
        ],
        "numberOfBytes": "448"
      },
      "t_struct(Hybrid)6760_storage": {
        "encoding": "inplace",
        "label": "struct ZooDrop.Hybrid",
        "members": [
          {
            "astId": 6742,
            "contract": "src/ZooDrop.sol:ZooDrop",
            "label": "kind",
            "offset": 0,
            "slot": "0",
            "type": "t_enum(Type)20046"
          },
          {
            "astId": 6745,
            "contract": "src/ZooDrop.sol:ZooDrop",
            "label": "rarity",
            "offset": 0,
            "slot": "1",
            "type": "t_struct(Rarity)20055_storage"
          },
          {
            "astId": 6747,
            "contract": "src/ZooDrop.sol:ZooDrop",
            "label": "name",
            "offset": 0,
            "slot": "5",
            "type": "t_string_storage"
          },
          {
            "astId": 6749,
            "contract": "src/ZooDrop.sol:ZooDrop",
            "label": "yield",
            "offset": 0,
            "slot": "6",
            "type": "t_uint256"
          },
          {
            "astId": 6751,
            "contract": "src/ZooDrop.sol:ZooDrop",
            "label": "parentA",
            "offset": 0,
            "slot": "7",
            "type": "t_string_storage"
          },
          {
            "astId": 6753,
            "contract": "src/ZooDrop.sol:ZooDrop",
            "label": "parentB",
            "offset": 0,
            "slot": "8",
            "type": "t_string_storage"
          },
          {
            "astId": 6756,
            "contract": "src/ZooDrop.sol:ZooDrop",
            "label": "data",
            "offset": 0,
            "slot": "9",
            "type": "t_struct(MediaData)19881_storage"
          },
          {
            "astId": 6759,
            "contract": "src/ZooDrop.sol:ZooDrop",
            "label": "bidShares",
            "offset": 0,
            "slot": "13",
            "type": "t_struct(BidShares)19713_storage"
          }
        ],
        "numberOfBytes": "512"
      },
      "t_struct(MediaData)19881_storage": {
        "encoding": "inplace",
        "label": "struct IMedia.MediaData",
        "members": [
          {
            "astId": 19874,
            "contract": "src/ZooDrop.sol:ZooDrop",
            "label": "tokenURI",
            "offset": 0,
            "slot": "0",
            "type": "t_string_storage"
          },
          {
            "astId": 19876,
            "contract": "src/ZooDrop.sol:ZooDrop",
            "label": "metadataURI",
            "offset": 0,
            "slot": "1",
            "type": "t_string_storage"
          },
          {
            "astId": 19878,
            "contract": "src/ZooDrop.sol:ZooDrop",
            "label": "contentHash",
            "offset": 0,
            "slot": "2",
            "type": "t_bytes32"
          },
          {
            "astId": 19880,
            "contract": "src/ZooDrop.sol:ZooDrop",
            "label": "metadataHash",
            "offset": 0,
            "slot": "3",
            "type": "t_bytes32"
          }
        ],
        "numberOfBytes": "128"
      },
      "t_struct(Rarity)20055_storage": {
        "encoding": "inplace",
        "label": "struct IZoo.Rarity",
        "members": [
          {
            "astId": 20048,
            "contract": "src/ZooDrop.sol:ZooDrop",
            "label": "name",
            "offset": 0,
            "slot": "0",
            "type": "t_string_storage"
          },
          {
            "astId": 20050,
            "contract": "src/ZooDrop.sol:ZooDrop",
            "label": "probability",
            "offset": 0,
            "slot": "1",
            "type": "t_uint256"
          },
          {
            "astId": 20052,
            "contract": "src/ZooDrop.sol:ZooDrop",
            "label": "yield",
            "offset": 0,
            "slot": "2",
            "type": "t_uint256"
          },
          {
            "astId": 20054,
            "contract": "src/ZooDrop.sol:ZooDrop",
            "label": "boost",
            "offset": 0,
            "slot": "3",
            "type": "t_uint256"
          }
        ],
        "numberOfBytes": "128"
      },
      "t_uint256": {
        "encoding": "inplace",
        "label": "uint256",
        "numberOfBytes": "32"
      }
    }
  }
}