{
  "address": "0xB20F3A53f395cFd6461f1999ff4B70573dAF6b95",
  "abi": [
    {
      "inputs": [
        {
          "internalType": "address",
          "name": "zooAddress",
          "type": "address"
        }
      ],
      "stateMutability": "nonpayable",
      "type": "constructor"
    },
    {
      "anonymous": false,
      "inputs": [
        {
          "indexed": true,
          "internalType": "address",
          "name": "previousOwner",
          "type": "address"
        },
        {
          "indexed": true,
          "internalType": "address",
          "name": "newOwner",
          "type": "address"
        }
      ],
      "name": "OwnershipTransferred",
      "type": "event"
    },
    {
      "anonymous": false,
      "inputs": [
        {
          "indexed": true,
          "internalType": "address",
          "name": "_to",
          "type": "address"
        },
        {
          "indexed": true,
          "internalType": "uint256",
          "name": "_amount",
          "type": "uint256"
        }
      ],
      "name": "ZooSent",
      "type": "event"
    },
    {
      "inputs": [
        {
          "internalType": "address",
          "name": "to",
          "type": "address"
        },
        {
          "internalType": "uint256",
          "name": "amount",
          "type": "uint256"
        }
      ],
      "name": "getZoo",
      "outputs": [
        {
          "internalType": "uint256",
          "name": "",
          "type": "uint256"
        }
      ],
      "stateMutability": "nonpayable",
      "type": "function"
    },
    {
      "inputs": [],
      "name": "owner",
      "outputs": [
        {
          "internalType": "address",
          "name": "",
          "type": "address"
        }
      ],
      "stateMutability": "view",
      "type": "function"
    },
    {
      "inputs": [],
      "name": "rate",
      "outputs": [
        {
          "internalType": "uint256",
          "name": "",
          "type": "uint256"
        }
      ],
      "stateMutability": "view",
      "type": "function"
    },
    {
      "inputs": [],
      "name": "renounceOwnership",
      "outputs": [],
      "stateMutability": "nonpayable",
      "type": "function"
    },
    {
      "inputs": [
        {
          "internalType": "address",
          "name": "newOwner",
          "type": "address"
        }
      ],
      "name": "transferOwnership",
      "outputs": [],
      "stateMutability": "nonpayable",
      "type": "function"
    },
    {
      "inputs": [],
      "name": "withdraw",
      "outputs": [],
      "stateMutability": "nonpayable",
      "type": "function"
    }
  ],
  "transactionHash": "0x6f5036d3453f8785efe181985dbd08f913f53d172385a0535fc8f7b3f2f44f81",
  "args": [
    "0x117FbB2f404e2F1e9FbaC0DdB372C25dD979bc60"
  ],
  "solcInputHash": "96ed39cd36be3a398a7b4c1cf440a2d9",
  "bytecode": "0x60806040526103e860015534801561001657600080fd5b506040516106f73803806106f7833981016040819052610035916100b3565b61003e33610063565b600280546001600160a01b0319166001600160a01b03929092169190911790556100e1565b600080546001600160a01b038381166001600160a01b0319831681178455604051919092169283917f8be0079c531659141344cd1fd0a4f28419497f9722a3daafe3b4186f6b6457e09190a35050565b6000602082840312156100c4578081fd5b81516001600160a01b03811681146100da578182fd5b9392505050565b610607806100f06000396000f3fe608060405234801561001057600080fd5b50600436106100625760003560e01c806315752841146100675780632c4e722e1461008d5780633ccfd60b14610096578063715018a6146100a05780638da5cb5b146100a8578063f2fde38b146100bd575b600080fd5b61007a6100753660046104e3565b6100d0565b6040519081526020015b60405180910390f35b61007a60015481565b61009e610230565b005b61009e610373565b6100b06103ae565b6040516100849190610544565b61009e6100cb3660046104c2565b6103bd565b60008082116100de57600080fd5b6001546100eb90836105a6565b6002546040516370a0823160e01b81529193506001600160a01b0316906370a082319061011c903090600401610544565b60206040518083038186803b15801561013457600080fd5b505afa158015610148573d6000803e3d6000fd5b505050506040513d601f19601f8201168201806040525081019061016c919061052c565b82111561017857600080fd5b60025460405163a9059cbb60e01b81526001600160a01b039091169063a9059cbb906101aa9086908690600401610558565b602060405180830381600087803b1580156101c457600080fd5b505af11580156101d8573d6000803e3d6000fd5b505050506040513d601f19601f820116820180604052508101906101fc919061050c565b50604051829033907f02405878159593cb3e0979693d52f3454344017c044f661134cb8563fe1783e190600090a350919050565b336102396103ae565b6001600160a01b0316146102685760405162461bcd60e51b815260040161025f90610571565b60405180910390fd5b6002546001600160a01b031663a9059cbb6102816103ae565b6002546040516370a0823160e01b81526001600160a01b03909116906370a08231906102b1903090600401610544565b60206040518083038186803b1580156102c957600080fd5b505afa1580156102dd573d6000803e3d6000fd5b505050506040513d601f19601f82011682018060405250810190610301919061052c565b6040518363ffffffff1660e01b815260040161031e929190610558565b602060405180830381600087803b15801561033857600080fd5b505af115801561034c573d6000803e3d6000fd5b505050506040513d601f19601f82011682018060405250810190610370919061050c565b50565b3361037c6103ae565b6001600160a01b0316146103a25760405162461bcd60e51b815260040161025f90610571565b6103ac6000610456565b565b6000546001600160a01b031690565b336103c66103ae565b6001600160a01b0316146103ec5760405162461bcd60e51b815260040161025f90610571565b6001600160a01b0381166104515760405162461bcd60e51b815260206004820152602660248201527f4f776e61626c653a206e6577206f776e657220697320746865207a65726f206160448201526564647265737360d01b606482015260840161025f565b610370815b600080546001600160a01b038381166001600160a01b0319831681178455604051919092169283917f8be0079c531659141344cd1fd0a4f28419497f9722a3daafe3b4186f6b6457e09190a35050565b80356001600160a01b03811681146104bd57600080fd5b919050565b6000602082840312156104d3578081fd5b6104dc826104a6565b9392505050565b600080604083850312156104f5578081fd5b6104fe836104a6565b946020939093013593505050565b60006020828403121561051d578081fd5b815180151581146104dc578182fd5b60006020828403121561053d578081fd5b5051919050565b6001600160a01b0391909116815260200190565b6001600160a01b03929092168252602082015260400190565b6020808252818101527f4f776e61626c653a2063616c6c6572206973206e6f7420746865206f776e6572604082015260600190565b60008160001904831182151516156105cc57634e487b7160e01b81526011600452602481fd5b50029056fea26469706673582212208d37d4ab0cda8717204a97aa3d47b58823d8ac0f66d68dd5acdf2690adfff65e64736f6c63430008040033",
  "devdoc": {
    "kind": "dev",
    "methods": {
      "owner()": {
        "details": "Returns the address of the current owner."
      },
      "renounceOwnership()": {
        "details": "Leaves the contract without owner. It will not be possible to call `onlyOwner` functions anymore. Can only be called by the current owner. NOTE: Renouncing ownership will leave the contract without an owner, thereby removing any functionality that is only available to the owner."
      },
      "transferOwnership(address)": {
        "details": "Transfers ownership of the contract to a new account (`newOwner`). Can only be called by the current owner."
      }
    },
    "version": 1
  },
  "userdoc": {
    "kind": "user",
    "methods": {},
    "version": 1
  },
  "storageLayout": {
    "storage": [
      {
        "astId": 7,
        "contract": "src/ZooFaucet.sol:ZooFaucet",
        "label": "_owner",
        "offset": 0,
        "slot": "0",
        "type": "t_address"
      },
      {
        "astId": 7940,
        "contract": "src/ZooFaucet.sol:ZooFaucet",
        "label": "rate",
        "offset": 0,
        "slot": "1",
        "type": "t_uint256"
      },
      {
        "astId": 7943,
        "contract": "src/ZooFaucet.sol:ZooFaucet",
        "label": "token",
        "offset": 0,
        "slot": "2",
        "type": "t_contract(IERC20)767"
      }
    ],
    "types": {
      "t_address": {
        "encoding": "inplace",
        "label": "address",
        "numberOfBytes": "20"
      },
      "t_contract(IERC20)767": {
        "encoding": "inplace",
        "label": "contract IERC20",
        "numberOfBytes": "20"
      },
      "t_uint256": {
        "encoding": "inplace",
        "label": "uint256",
        "numberOfBytes": "32"
      }
    }
  }
}