{
  "address": "0xb3C26aAFa12DeBE5EcFd5dA4D71E9910586dDAF7",
  "abi": [
    {
      "anonymous": false,
      "inputs": [
        {
          "indexed": true,
          "internalType": "address",
          "name": "dropAddress",
          "type": "address"
        },
        {
          "indexed": false,
          "internalType": "string",
          "name": "title",
          "type": "string"
        },
        {
          "indexed": false,
          "internalType": "uint256",
          "name": "eggSupply",
          "type": "uint256"
        }
      ],
      "name": "AddDrop",
      "type": "event"
    },
    {
      "anonymous": false,
      "inputs": [
        {
          "indexed": true,
          "internalType": "address",
          "name": "from",
          "type": "address"
        },
        {
          "indexed": false,
          "internalType": "uint256",
          "name": "parentA",
          "type": "uint256"
        },
        {
          "indexed": false,
          "internalType": "uint256",
          "name": "parentB",
          "type": "uint256"
        },
        {
          "indexed": true,
          "internalType": "uint256",
          "name": "eggID",
          "type": "uint256"
        }
      ],
      "name": "Breed",
      "type": "event"
    },
    {
      "anonymous": false,
      "inputs": [
        {
          "indexed": true,
          "internalType": "address",
          "name": "from",
          "type": "address"
        },
        {
          "indexed": true,
          "internalType": "uint256",
          "name": "tokenID",
          "type": "uint256"
        }
      ],
      "name": "Burn",
      "type": "event"
    },
    {
      "anonymous": false,
      "inputs": [
        {
          "indexed": true,
          "internalType": "address",
          "name": "from",
          "type": "address"
        },
        {
          "indexed": true,
          "internalType": "uint256",
          "name": "eggID",
          "type": "uint256"
        }
      ],
      "name": "BuyEgg",
      "type": "event"
    },
    {
      "anonymous": false,
      "inputs": [
        {
          "indexed": true,
          "internalType": "address",
          "name": "from",
          "type": "address"
        },
        {
          "indexed": true,
          "internalType": "uint256",
          "name": "tokenID",
          "type": "uint256"
        },
        {
          "indexed": true,
          "internalType": "uint256",
          "name": "yield",
          "type": "uint256"
        }
      ],
      "name": "Free",
      "type": "event"
    },
    {
      "anonymous": false,
      "inputs": [
        {
          "indexed": true,
          "internalType": "address",
          "name": "from",
          "type": "address"
        },
        {
          "indexed": false,
          "internalType": "uint256",
          "name": "eggID",
          "type": "uint256"
        },
        {
          "indexed": true,
          "internalType": "uint256",
          "name": "tokenID",
          "type": "uint256"
        }
      ],
      "name": "Hatch",
      "type": "event"
    },
    {
      "anonymous": false,
      "inputs": [
        {
          "indexed": true,
          "internalType": "address",
          "name": "from",
          "type": "address"
        },
        {
          "indexed": true,
          "internalType": "uint256",
          "name": "tokenID",
          "type": "uint256"
        }
      ],
      "name": "Mint",
      "type": "event"
    },
    {
      "anonymous": false,
      "inputs": [
        {
          "indexed": true,
          "internalType": "address",
          "name": "previousOwner",
          "type": "address"
        },
        {
          "indexed": true,
          "internalType": "address",
          "name": "newOwner",
          "type": "address"
        }
      ],
      "name": "OwnershipTransferred",
      "type": "event"
    },
    {
      "inputs": [
        {
          "internalType": "uint256",
          "name": "dropID",
          "type": "uint256"
        },
        {
          "internalType": "uint256",
          "name": "tokenA",
          "type": "uint256"
        },
        {
          "internalType": "uint256",
          "name": "tokenB",
          "type": "uint256"
        }
      ],
      "name": "breedAnimals",
      "outputs": [
        {
          "components": [
            {
              "components": [
                {
                  "internalType": "string",
                  "name": "name",
                  "type": "string"
                },
                {
                  "internalType": "uint256",
                  "name": "probability",
                  "type": "uint256"
                },
                {
                  "internalType": "uint256",
                  "name": "yield",
                  "type": "uint256"
                },
                {
                  "internalType": "uint256",
                  "name": "boost",
                  "type": "uint256"
                }
              ],
              "internalType": "struct IZoo.Rarity",
              "name": "rarity",
              "type": "tuple"
            },
            {
              "internalType": "enum IZoo.Type",
              "name": "kind",
              "type": "uint8"
            },
            {
              "internalType": "string",
              "name": "name",
              "type": "string"
            },
            {
              "internalType": "uint256",
              "name": "id",
              "type": "uint256"
            },
            {
              "internalType": "uint256",
              "name": "timestamp",
              "type": "uint256"
            },
            {
              "internalType": "uint256",
              "name": "birthday",
              "type": "uint256"
            },
            {
              "internalType": "string",
              "name": "customName",
              "type": "string"
            },
            {
              "components": [
                {
                  "internalType": "string",
                  "name": "animalA",
                  "type": "string"
                },
                {
                  "internalType": "string",
                  "name": "animalB",
                  "type": "string"
                },
                {
                  "internalType": "uint256",
                  "name": "tokenA",
                  "type": "uint256"
                },
                {
                  "internalType": "uint256",
                  "name": "tokenB",
                  "type": "uint256"
                }
              ],
              "internalType": "struct IZoo.Parents",
              "name": "parents",
              "type": "tuple"
            },
            {
              "components": [
                {
                  "internalType": "uint256",
                  "name": "count",
                  "type": "uint256"
                },
                {
                  "internalType": "uint256",
                  "name": "timestamp",
                  "type": "uint256"
                }
              ],
              "internalType": "struct IZoo.Breed",
              "name": "breed",
              "type": "tuple"
            },
            {
              "components": [
                {
                  "internalType": "uint256",
                  "name": "eggID",
                  "type": "uint256"
                },
                {
                  "internalType": "uint256",
                  "name": "dropID",
                  "type": "uint256"
                }
              ],
              "internalType": "struct IZoo.Meta",
              "name": "meta",
              "type": "tuple"
            },
            {
              "components": [
                {
                  "internalType": "string",
                  "name": "tokenURI",
                  "type": "string"
                },
                {
                  "internalType": "string",
                  "name": "metadataURI",
                  "type": "string"
                },
                {
                  "internalType": "bytes32",
                  "name": "contentHash",
                  "type": "bytes32"
                },
                {
                  "internalType": "bytes32",
                  "name": "metadataHash",
                  "type": "bytes32"
                }
              ],
              "internalType": "struct IMedia.MediaData",
              "name": "data",
              "type": "tuple"
            },
            {
              "components": [
                {
                  "components": [
                    {
                      "internalType": "uint256",
                      "name": "value",
                      "type": "uint256"
                    }
                  ],
                  "internalType": "struct Decimal.D256",
                  "name": "prevOwner",
                  "type": "tuple"
                },
                {
                  "components": [
                    {
                      "internalType": "uint256",
                      "name": "value",
                      "type": "uint256"
                    }
                  ],
                  "internalType": "struct Decimal.D256",
                  "name": "creator",
                  "type": "tuple"
                },
                {
                  "components": [
                    {
                      "internalType": "uint256",
                      "name": "value",
                      "type": "uint256"
                    }
                  ],
                  "internalType": "struct Decimal.D256",
                  "name": "owner",
                  "type": "tuple"
                }
              ],
              "internalType": "struct IMarket.BidShares",
              "name": "bidShares",
              "type": "tuple"
            }
          ],
          "internalType": "struct IZoo.Token",
          "name": "",
          "type": "tuple"
        }
      ],
      "stateMutability": "nonpayable",
      "type": "function"
    },
    {
      "inputs": [
        {
          "internalType": "uint256",
          "name": "tokenID",
          "type": "uint256"
        }
      ],
      "name": "breedNext",
      "outputs": [
        {
          "internalType": "uint256",
          "name": "",
          "type": "uint256"
        }
      ],
      "stateMutability": "view",
      "type": "function"
    },
    {
      "inputs": [
        {
          "internalType": "uint256",
          "name": "tokenID",
          "type": "uint256"
        }
      ],
      "name": "breedReady",
      "outputs": [
        {
          "internalType": "bool",
          "name": "",
          "type": "bool"
        }
      ],
      "stateMutability": "view",
      "type": "function"
    },
    {
      "inputs": [
        {
          "internalType": "uint256",
          "name": "dropID",
          "type": "uint256"
        }
      ],
      "name": "buyEgg",
      "outputs": [
        {
          "components": [
            {
              "components": [
                {
                  "internalType": "string",
                  "name": "name",
                  "type": "string"
                },
                {
                  "internalType": "uint256",
                  "name": "probability",
                  "type": "uint256"
                },
                {
                  "internalType": "uint256",
                  "name": "yield",
                  "type": "uint256"
                },
                {
                  "internalType": "uint256",
                  "name": "boost",
                  "type": "uint256"
                }
              ],
              "internalType": "struct IZoo.Rarity",
              "name": "rarity",
              "type": "tuple"
            },
            {
              "internalType": "enum IZoo.Type",
              "name": "kind",
              "type": "uint8"
            },
            {
              "internalType": "string",
              "name": "name",
              "type": "string"
            },
            {
              "internalType": "uint256",
              "name": "id",
              "type": "uint256"
            },
            {
              "internalType": "uint256",
              "name": "timestamp",
              "type": "uint256"
            },
            {
              "internalType": "uint256",
              "name": "birthday",
              "type": "uint256"
            },
            {
              "internalType": "string",
              "name": "customName",
              "type": "string"
            },
            {
              "components": [
                {
                  "internalType": "string",
                  "name": "animalA",
                  "type": "string"
                },
                {
                  "internalType": "string",
                  "name": "animalB",
                  "type": "string"
                },
                {
                  "internalType": "uint256",
                  "name": "tokenA",
                  "type": "uint256"
                },
                {
                  "internalType": "uint256",
                  "name": "tokenB",
                  "type": "uint256"
                }
              ],
              "internalType": "struct IZoo.Parents",
              "name": "parents",
              "type": "tuple"
            },
            {
              "components": [
                {
                  "internalType": "uint256",
                  "name": "count",
                  "type": "uint256"
                },
                {
                  "internalType": "uint256",
                  "name": "timestamp",
                  "type": "uint256"
                }
              ],
              "internalType": "struct IZoo.Breed",
              "name": "breed",
              "type": "tuple"
            },
            {
              "components": [
                {
                  "internalType": "uint256",
                  "name": "eggID",
                  "type": "uint256"
                },
                {
                  "internalType": "uint256",
                  "name": "dropID",
                  "type": "uint256"
                }
              ],
              "internalType": "struct IZoo.Meta",
              "name": "meta",
              "type": "tuple"
            },
            {
              "components": [
                {
                  "internalType": "string",
                  "name": "tokenURI",
                  "type": "string"
                },
                {
                  "internalType": "string",
                  "name": "metadataURI",
                  "type": "string"
                },
                {
                  "internalType": "bytes32",
                  "name": "contentHash",
                  "type": "bytes32"
                },
                {
                  "internalType": "bytes32",
                  "name": "metadataHash",
                  "type": "bytes32"
                }
              ],
              "internalType": "struct IMedia.MediaData",
              "name": "data",
              "type": "tuple"
            },
            {
              "components": [
                {
                  "components": [
                    {
                      "internalType": "uint256",
                      "name": "value",
                      "type": "uint256"
                    }
                  ],
                  "internalType": "struct Decimal.D256",
                  "name": "prevOwner",
                  "type": "tuple"
                },
                {
                  "components": [
                    {
                      "internalType": "uint256",
                      "name": "value",
                      "type": "uint256"
                    }
                  ],
                  "internalType": "struct Decimal.D256",
                  "name": "creator",
                  "type": "tuple"
                },
                {
                  "components": [
                    {
                      "internalType": "uint256",
                      "name": "value",
                      "type": "uint256"
                    }
                  ],
                  "internalType": "struct Decimal.D256",
                  "name": "owner",
                  "type": "tuple"
                }
              ],
              "internalType": "struct IMarket.BidShares",
              "name": "bidShares",
              "type": "tuple"
            }
          ],
          "internalType": "struct IZoo.Token",
          "name": "",
          "type": "tuple"
        }
      ],
      "stateMutability": "nonpayable",
      "type": "function"
    },
    {
      "inputs": [
        {
          "internalType": "uint256",
          "name": "dropID",
          "type": "uint256"
        },
        {
          "internalType": "uint256",
          "name": "quantity",
          "type": "uint256"
        }
      ],
      "name": "buyEggs",
      "outputs": [],
      "stateMutability": "nonpayable",
      "type": "function"
    },
    {
      "inputs": [
        {
          "internalType": "uint256",
          "name": "tokenID",
          "type": "uint256"
        },
        {
          "internalType": "string",
          "name": "customName",
          "type": "string"
        }
      ],
      "name": "buyName",
      "outputs": [],
      "stateMutability": "nonpayable",
      "type": "function"
    },
    {
      "inputs": [
        {
          "internalType": "address",
          "name": "_market",
          "type": "address"
        },
        {
          "internalType": "address",
          "name": "_media",
          "type": "address"
        },
        {
          "internalType": "address",
          "name": "_zoo",
          "type": "address"
        }
      ],
      "name": "configure",
      "outputs": [],
      "stateMutability": "nonpayable",
      "type": "function"
    },
    {
      "inputs": [
        {
          "internalType": "address",
          "name": "",
          "type": "address"
        }
      ],
      "name": "dropAddresses",
      "outputs": [
        {
          "internalType": "uint256",
          "name": "",
          "type": "uint256"
        }
      ],
      "stateMutability": "view",
      "type": "function"
    },
    {
      "inputs": [
        {
          "internalType": "uint256",
          "name": "",
          "type": "uint256"
        }
      ],
      "name": "drops",
      "outputs": [
        {
          "internalType": "address",
          "name": "",
          "type": "address"
        }
      ],
      "stateMutability": "view",
      "type": "function"
    },
    {
      "inputs": [
        {
          "internalType": "uint256",
          "name": "tokenID",
          "type": "uint256"
        }
      ],
      "name": "freeAnimal",
      "outputs": [
        {
          "internalType": "uint256",
          "name": "yield",
          "type": "uint256"
        }
      ],
      "stateMutability": "nonpayable",
      "type": "function"
    },
    {
      "inputs": [
        {
          "internalType": "uint256",
          "name": "dropID",
          "type": "uint256"
        },
        {
          "internalType": "uint256",
          "name": "eggID",
          "type": "uint256"
        }
      ],
      "name": "hatchEgg",
      "outputs": [
        {
          "components": [
            {
              "components": [
                {
                  "internalType": "string",
                  "name": "name",
                  "type": "string"
                },
                {
                  "internalType": "uint256",
                  "name": "probability",
                  "type": "uint256"
                },
                {
                  "internalType": "uint256",
                  "name": "yield",
                  "type": "uint256"
                },
                {
                  "internalType": "uint256",
                  "name": "boost",
                  "type": "uint256"
                }
              ],
              "internalType": "struct IZoo.Rarity",
              "name": "rarity",
              "type": "tuple"
            },
            {
              "internalType": "enum IZoo.Type",
              "name": "kind",
              "type": "uint8"
            },
            {
              "internalType": "string",
              "name": "name",
              "type": "string"
            },
            {
              "internalType": "uint256",
              "name": "id",
              "type": "uint256"
            },
            {
              "internalType": "uint256",
              "name": "timestamp",
              "type": "uint256"
            },
            {
              "internalType": "uint256",
              "name": "birthday",
              "type": "uint256"
            },
            {
              "internalType": "string",
              "name": "customName",
              "type": "string"
            },
            {
              "components": [
                {
                  "internalType": "string",
                  "name": "animalA",
                  "type": "string"
                },
                {
                  "internalType": "string",
                  "name": "animalB",
                  "type": "string"
                },
                {
                  "internalType": "uint256",
                  "name": "tokenA",
                  "type": "uint256"
                },
                {
                  "internalType": "uint256",
                  "name": "tokenB",
                  "type": "uint256"
                }
              ],
              "internalType": "struct IZoo.Parents",
              "name": "parents",
              "type": "tuple"
            },
            {
              "components": [
                {
                  "internalType": "uint256",
                  "name": "count",
                  "type": "uint256"
                },
                {
                  "internalType": "uint256",
                  "name": "timestamp",
                  "type": "uint256"
                }
              ],
              "internalType": "struct IZoo.Breed",
              "name": "breed",
              "type": "tuple"
            },
            {
              "components": [
                {
                  "internalType": "uint256",
                  "name": "eggID",
                  "type": "uint256"
                },
                {
                  "internalType": "uint256",
                  "name": "dropID",
                  "type": "uint256"
                }
              ],
              "internalType": "struct IZoo.Meta",
              "name": "meta",
              "type": "tuple"
            },
            {
              "components": [
                {
                  "internalType": "string",
                  "name": "tokenURI",
                  "type": "string"
                },
                {
                  "internalType": "string",
                  "name": "metadataURI",
                  "type": "string"
                },
                {
                  "internalType": "bytes32",
                  "name": "contentHash",
                  "type": "bytes32"
                },
                {
                  "internalType": "bytes32",
                  "name": "metadataHash",
                  "type": "bytes32"
                }
              ],
              "internalType": "struct IMedia.MediaData",
              "name": "data",
              "type": "tuple"
            },
            {
              "components": [
                {
                  "components": [
                    {
                      "internalType": "uint256",
                      "name": "value",
                      "type": "uint256"
                    }
                  ],
                  "internalType": "struct Decimal.D256",
                  "name": "prevOwner",
                  "type": "tuple"
                },
                {
                  "components": [
                    {
                      "internalType": "uint256",
                      "name": "value",
                      "type": "uint256"
                    }
                  ],
                  "internalType": "struct Decimal.D256",
                  "name": "creator",
                  "type": "tuple"
                },
                {
                  "components": [
                    {
                      "internalType": "uint256",
                      "name": "value",
                      "type": "uint256"
                    }
                  ],
                  "internalType": "struct Decimal.D256",
                  "name": "owner",
                  "type": "tuple"
                }
              ],
              "internalType": "struct IMarket.BidShares",
              "name": "bidShares",
              "type": "tuple"
            }
          ],
          "internalType": "struct IZoo.Token",
          "name": "",
          "type": "tuple"
        }
      ],
      "stateMutability": "nonpayable",
      "type": "function"
    },
    {
      "inputs": [],
      "name": "market",
      "outputs": [
        {
          "internalType": "contract IMarket",
          "name": "",
          "type": "address"
        }
      ],
      "stateMutability": "view",
      "type": "function"
    },
    {
      "inputs": [],
      "name": "media",
      "outputs": [
        {
          "internalType": "contract IMedia",
          "name": "",
          "type": "address"
        }
      ],
      "stateMutability": "view",
      "type": "function"
    },
    {
      "inputs": [],
      "name": "namePrice",
      "outputs": [
        {
          "internalType": "uint256",
          "name": "",
          "type": "uint256"
        }
      ],
      "stateMutability": "view",
      "type": "function"
    },
    {
      "inputs": [],
      "name": "owner",
      "outputs": [
        {
          "internalType": "address",
          "name": "",
          "type": "address"
        }
      ],
      "stateMutability": "view",
      "type": "function"
    },
    {
      "inputs": [],
      "name": "renounceOwnership",
      "outputs": [],
      "stateMutability": "nonpayable",
      "type": "function"
    },
    {
      "inputs": [
        {
          "internalType": "address",
          "name": "dropAddress",
          "type": "address"
        }
      ],
      "name": "setDrop",
      "outputs": [
        {
          "internalType": "uint256",
          "name": "",
          "type": "uint256"
        }
      ],
      "stateMutability": "nonpayable",
      "type": "function"
    },
    {
      "inputs": [
        {
          "internalType": "uint256",
          "name": "price",
          "type": "uint256"
        }
      ],
      "name": "setNamePrice",
      "outputs": [],
      "stateMutability": "nonpayable",
      "type": "function"
    },
    {
      "inputs": [
        {
          "internalType": "uint256",
          "name": "",
          "type": "uint256"
        }
      ],
      "name": "tokens",
      "outputs": [
        {
          "components": [
            {
              "internalType": "string",
              "name": "name",
              "type": "string"
            },
            {
              "internalType": "uint256",
              "name": "probability",
              "type": "uint256"
            },
            {
              "internalType": "uint256",
              "name": "yield",
              "type": "uint256"
            },
            {
              "internalType": "uint256",
              "name": "boost",
              "type": "uint256"
            }
          ],
          "internalType": "struct IZoo.Rarity",
          "name": "rarity",
          "type": "tuple"
        },
        {
          "internalType": "enum IZoo.Type",
          "name": "kind",
          "type": "uint8"
        },
        {
          "internalType": "string",
          "name": "name",
          "type": "string"
        },
        {
          "internalType": "uint256",
          "name": "id",
          "type": "uint256"
        },
        {
          "internalType": "uint256",
          "name": "timestamp",
          "type": "uint256"
        },
        {
          "internalType": "uint256",
          "name": "birthday",
          "type": "uint256"
        },
        {
          "internalType": "string",
          "name": "customName",
          "type": "string"
        },
        {
          "components": [
            {
              "internalType": "string",
              "name": "animalA",
              "type": "string"
            },
            {
              "internalType": "string",
              "name": "animalB",
              "type": "string"
            },
            {
              "internalType": "uint256",
              "name": "tokenA",
              "type": "uint256"
            },
            {
              "internalType": "uint256",
              "name": "tokenB",
              "type": "uint256"
            }
          ],
          "internalType": "struct IZoo.Parents",
          "name": "parents",
          "type": "tuple"
        },
        {
          "components": [
            {
              "internalType": "uint256",
              "name": "count",
              "type": "uint256"
            },
            {
              "internalType": "uint256",
              "name": "timestamp",
              "type": "uint256"
            }
          ],
          "internalType": "struct IZoo.Breed",
          "name": "breed",
          "type": "tuple"
        },
        {
          "components": [
            {
              "internalType": "uint256",
              "name": "eggID",
              "type": "uint256"
            },
            {
              "internalType": "uint256",
              "name": "dropID",
              "type": "uint256"
            }
          ],
          "internalType": "struct IZoo.Meta",
          "name": "meta",
          "type": "tuple"
        },
        {
          "components": [
            {
              "internalType": "string",
              "name": "tokenURI",
              "type": "string"
            },
            {
              "internalType": "string",
              "name": "metadataURI",
              "type": "string"
            },
            {
              "internalType": "bytes32",
              "name": "contentHash",
              "type": "bytes32"
            },
            {
              "internalType": "bytes32",
              "name": "metadataHash",
              "type": "bytes32"
            }
          ],
          "internalType": "struct IMedia.MediaData",
          "name": "data",
          "type": "tuple"
        },
        {
          "components": [
            {
              "components": [
                {
                  "internalType": "uint256",
                  "name": "value",
                  "type": "uint256"
                }
              ],
              "internalType": "struct Decimal.D256",
              "name": "prevOwner",
              "type": "tuple"
            },
            {
              "components": [
                {
                  "internalType": "uint256",
                  "name": "value",
                  "type": "uint256"
                }
              ],
              "internalType": "struct Decimal.D256",
              "name": "creator",
              "type": "tuple"
            },
            {
              "components": [
                {
                  "internalType": "uint256",
                  "name": "value",
                  "type": "uint256"
                }
              ],
              "internalType": "struct Decimal.D256",
              "name": "owner",
              "type": "tuple"
            }
          ],
          "internalType": "struct IMarket.BidShares",
          "name": "bidShares",
          "type": "tuple"
        }
      ],
      "stateMutability": "view",
      "type": "function"
    },
    {
      "inputs": [
        {
          "internalType": "address",
          "name": "newOwner",
          "type": "address"
        }
      ],
      "name": "transferOwnership",
      "outputs": [],
      "stateMutability": "nonpayable",
      "type": "function"
    },
    {
      "inputs": [],
      "name": "zoo",
      "outputs": [
        {
          "internalType": "contract IERC20",
          "name": "",
          "type": "address"
        }
      ],
      "stateMutability": "view",
      "type": "function"
    },
    {
      "inputs": [],
      "name": "zooSupply",
      "outputs": [
        {
          "internalType": "uint256",
          "name": "",
          "type": "uint256"
        }
      ],
      "stateMutability": "view",
      "type": "function"
    },
    {
      "inputs": [
        {
          "internalType": "address",
          "name": "receiver",
          "type": "address"
        },
        {
          "internalType": "uint256",
          "name": "amount",
          "type": "uint256"
        }
      ],
      "name": "zooWithdraw",
      "outputs": [
        {
          "internalType": "bool",
          "name": "",
          "type": "bool"
        }
      ],
      "stateMutability": "nonpayable",
      "type": "function"
    }
  ],
  "transactionHash": "0xe9a69752c061a97fe09ea11837114df88cae6b249e8e0a88fe920ba15597b99b",
  "args": [],
  "solcInputHash": "96ed39cd36be3a398a7b4c1cf440a2d9",
  "bytecode": "0x60806040523480156200001157600080fd5b506200001d3362000023565b62000073565b600080546001600160a01b038381166001600160a01b0319831681178455604051919092169283917f8be0079c531659141344cd1fd0a4f28419497f9722a3daafe3b4186f6b6457e09190a35050565b614c7380620000836000396000f3fe608060405234801561001057600080fd5b506004361061011d5760003560e01c806310e0af64146101225780632626f4e01461014a57806349077a4f1461015f5780634c33efa71461017f5780634f2cabdf1461019f5780634f64b2be146101cd57806354d7dc93146101f857806355d28f201461020b5780635eb399681461021e578063685bf0cd146102475780636fc2790e1461025a578063715018a61461026d5780637b6a87771461027557806380f55605146102885780638da5cb5b1461029b5780639c275d11146102a3578063b22073b6146102b6578063c87b2cba146102bf578063d4eddf7e146102d2578063de611f55146102da578063f2fde38b146102ed578063f624172714610300578063f8b2462614610313575b600080fd5b610135610130366004614434565b610326565b60405190151581526020015b60405180910390f35b61015d610158366004614434565b610364565b005b600754610172906001600160a01b031681565b6040516101419190614733565b61019261018d366004614434565b6103b4565b6040516101419190614a01565b6101bf6101ad3660046141fc565b60036020526000908152604090205481565b604051908152602001610141565b6101e06101db366004614434565b6107de565b6040516101419c9b9a99989796959493929190614936565b610192610206366004614503565b610cf8565b61015d610219366004614216565b611243565b61017261022c366004614434565b6002602052600090815260409020546001600160a01b031681565b61015d6102553660046144e2565b6112b1565b6101926102683660046144e2565b61130a565b61015d611506565b600854610172906001600160a01b031681565b600654610172906001600160a01b031681565b610172611541565b6101bf6102b1366004614434565b611550565b6101bf60055481565b6101bf6102cd366004614434565b611b0f565b6101bf61220a565b61015d6102e8366004614464565b6122c0565b61015d6102fb3660046141fc565b612b8c565b61013561030e366004614258565b612c2c565b6101bf6103213660046141fc565b612cf2565b6000818152600460205260408120600e015461034457506001919050565b61034d82611550565b42111561035c57506001919050565b506000919050565b3361036d611541565b6001600160a01b03161461039c5760405162461bcd60e51b8152600401610393906148ee565b60405180910390fd5b6103ae81670de0b6b3a7640000612ec7565b60055550565b6103bc613db0565b6103e46040518060400160405280600681526020016562757945676760d01b81525083612ed3565b60008281526002602090815260409182902054825163182f1aa960e11b815292516001600160a01b0390911692839263305e355292600480840193829003018186803b15801561043357600080fd5b505afa158015610447573d6000803e3d6000fd5b505050506040513d601f19601f8201168201806040525081019061046b919061444c565b6008546040516370a0823160e01b81526001600160a01b03909116906370a082319061049b903390600401614733565b60206040518083038186803b1580156104b357600080fd5b505afa1580156104c7573d6000803e3d6000fd5b505050506040513d601f19601f820116820180604052508101906104eb919061444c565b10156105445760405162461bcd60e51b815260206004820152602260248201527f5a4b3a204e6f7420456e6f756768205a4f4f20746f2070757263686173652045604482015261676760f01b6064820152608401610393565b6105e86040518060400160405280601081526020016f7a6f6f2e7472616e7366657246726f6d60801b8152503330846001600160a01b031663305e35526040518163ffffffff1660e01b815260040160206040518083038186803b1580156105ab57600080fd5b505afa1580156105bf573d6000803e3d6000fd5b505050506040513d601f19601f820116820180604052508101906105e3919061444c565b612f1c565b600860009054906101000a90046001600160a01b03166001600160a01b03166323b872dd3330846001600160a01b031663305e35526040518163ffffffff1660e01b815260040160206040518083038186803b15801561064757600080fd5b505afa15801561065b573d6000803e3d6000fd5b505050506040513d601f19601f8201168201806040525081019061067f919061444c565b6040518463ffffffff1660e01b815260040161069d93929190614747565b602060405180830381600087803b1580156106b757600080fd5b505af11580156106cb573d6000803e3d6000fd5b505050506040513d601f19601f820116820180604052508101906106ef9190614281565b506000816001600160a01b0316630489a8f66040518163ffffffff1660e01b8152600401600060405180830381600087803b15801561072d57600080fd5b505af1158015610741573d6000803e3d6000fd5b505050506040513d6000823e601f3d908101601f1916820160405261076991908101906142d3565b90506107753382612f6b565b90506107a76040518060400160405280600a8152602001696d696e7465642065676760b01b8152508260600151612ed3565b606081015160405133907fb6fcdc0b9a5291c95b93142b5e81d61a0b01a26b043be034e6daaa1219e7ebc190600090a39392505050565b60046020528060005260406000206000915090508060000160405180608001604052908160008201805461081190614b71565b80601f016020809104026020016040519081016040528092919081815260200182805461083d90614b71565b801561088a5780601f1061085f5761010080835404028352916020019161088a565b820191906000526020600020905b81548152906001019060200180831161086d57829003601f168201915b505050918352505060018201546020820152600282015460408201526003909101546060909101526004820154600583018054929360ff909216926108ce90614b71565b80601f01602080910402602001604051908101604052809291908181526020018280546108fa90614b71565b80156109475780601f1061091c57610100808354040283529160200191610947565b820191906000526020600020905b81548152906001019060200180831161092a57829003601f168201915b50505050509080600601549080600701549080600801549080600901805461096e90614b71565b80601f016020809104026020016040519081016040528092919081815260200182805461099a90614b71565b80156109e75780601f106109bc576101008083540402835291602001916109e7565b820191906000526020600020905b8154815290600101906020018083116109ca57829003601f168201915b50505050509080600a01604051806080016040529081600082018054610a0c90614b71565b80601f0160208091040260200160405190810160405280929190818152602001828054610a3890614b71565b8015610a855780601f10610a5a57610100808354040283529160200191610a85565b820191906000526020600020905b815481529060010190602001808311610a6857829003601f168201915b50505050508152602001600182018054610a9e90614b71565b80601f0160208091040260200160405190810160405280929190818152602001828054610aca90614b71565b8015610b175780601f10610aec57610100808354040283529160200191610b17565b820191906000526020600020905b815481529060010190602001808311610afa57829003601f168201915b5050509183525050600282015460208083019190915260039092015460409182015280518082018252600e8501548152600f8501548184015281518083018352601086015481526011860154938101939093528151608081019092526012850180549495919491929182908290610b8d90614b71565b80601f0160208091040260200160405190810160405280929190818152602001828054610bb990614b71565b8015610c065780601f10610bdb57610100808354040283529160200191610c06565b820191906000526020600020905b815481529060010190602001808311610be957829003601f168201915b50505050508152602001600182018054610c1f90614b71565b80601f0160208091040260200160405190810160405280929190818152602001828054610c4b90614b71565b8015610c985780601f10610c6d57610100808354040283529160200191610c98565b820191906000526020600020905b815481529060010190602001808311610c7b57829003601f168201915b5050509183525050600282015460208083019190915260039092015460409182015280516080810182526016850154606082019081528152815180840183526017860154815281840152815192830182526018909401548252830152908c565b610d00613db0565b8282610d2d6040518060400160405280600881526020016718d85b909c99595960c21b81525083836132a9565b60075460405162491fcf60e11b8152600481018490526001600160a01b039091169062923f9e90602401602060405180830381600087803b158015610d7157600080fd5b505af1158015610d85573d6000803e3d6000fd5b505050506040513d601f19601f82011682018060405250810190610da99190614281565b8015610e2c575060075460405162491fcf60e11b8152600481018390526001600160a01b039091169062923f9e90602401602060405180830381600087803b158015610df457600080fd5b505af1158015610e08573d6000803e3d6000fd5b505050506040513d601f19601f82011682018060405250810190610e2c9190614281565b610e6d5760405162461bcd60e51b81526020600482015260126024820152712737b716b2bc34b9ba32b73a103a37b5b2b760711b6044820152606401610393565b60408051602081018390520160408051601f1981840301815282825280516020918201209083018590529101604051602081830303815290604052805190602001201415610efb5760405162461bcd60e51b815260206004820152601b60248201527a2737ba1030b13632903a3790313932b2b2103bb4ba341039b2b63360291b6044820152606401610393565b610f0482610326565b8015610f145750610f1481610326565b610f5f5760405162461bcd60e51b815260206004820152601c60248201527b2bb0b4ba103337b91031b7b7b63237bbb7103a37903334b734b9b41760211b6044820152606401610393565b610f68826132f0565b8015610f785750610f78816132f0565b610fc25760405162461bcd60e51b815260206004820152601b60248201527a27b7363c902120a9a2afa0a724a6a0a61031b0b710313932b2b21760291b6044820152606401610393565b610ff26040518060400160405280600c81526020016b6272656564416e696d616c7360a01b81525087878761332e565b6000868152600260209081526040808320548151608081018352898552600490935290832060050180546001600160a01b039092169263e82baf30929091829161103b90614b71565b80601f016020809104026020016040519081016040528092919081815260200182805461106790614b71565b80156110b45780601f10611089576101008083540402835291602001916110b4565b820191906000526020600020905b81548152906001019060200180831161109757829003601f168201915b50505050508152602001600460008a815260200190815260200160002060050180546110df90614b71565b80601f016020809104026020016040519081016040528092919081815260200182805461110b90614b71565b80156111585780601f1061112d57610100808354040283529160200191611158565b820191906000526020600020905b81548152906001019060200180831161113b57829003601f168201915b50505050508152602001898152602001888152506040518263ffffffff1660e01b81526004016111889190614923565b600060405180830381600087803b1580156111a257600080fd5b505af11580156111b6573d6000803e3d6000fd5b505050506040513d6000823e601f3d908101601f191682016040526111de91908101906142d3565b90506111ea8686613377565b6111f43382612f6b565b60608101516040805189815260208101899052929350909133917fddf1e8fec06a50aa72b8a39a06787808c53eca73b2bd1cc995681cf7b8014650910160405180910390a39695505050505050565b3361124c611541565b6001600160a01b0316146112725760405162461bcd60e51b8152600401610393906148ee565b600680546001600160a01b039485166001600160a01b031991821617909155600780549385169382169390931790925560088054919093169116179055565b6112db604051806040016040528060078152602001666275794567677360c81b81525083836132a9565b60005b818160ff161015611305576112f2836103b4565b50806112fd81614bc7565b9150506112de565b505050565b611312613db0565b61133d60405180604001604052806008815260200167686174636845676760c01b81525084846132a9565b60075460405162491fcf60e11b8152600481018490526001600160a01b039091169062923f9e90602401602060405180830381600087803b15801561138157600080fd5b505af1158015611395573d6000803e3d6000fd5b505050506040513d601f19601f820116820180604052508101906113b99190614281565b6114055760405162461bcd60e51b815260206004820152601f60248201527f456767206973206275726e6564206f7220646f6573206e6f74206578697374006044820152606401610393565b60006114118484613412565b610120810180518590525160209081018690526040805180820182526006815265185b9a5b585b60d21b9281019290925282015191925061145191613b47565b61145b3382612f6b565b90506114916040518060400160405280600d81526020016c1b5a5b9d195908185b9a5b585b609a1b8152508260600151856132a9565b61149b3384613b8c565b6114c360405180604001604052806006815260200165189d5c9b995960d21b81525084612ed3565b606081015160405184815233907fb38ba9b1c21d14e92c6b24ace95218359ca7727f16a3e622617817dd9f38305c9060200160405180910390a390505b92915050565b3361150f611541565b6001600160a01b0316146115355760405162461bcd60e51b8152600401610393906148ee565b61153f6000613c51565b565b6000546001600160a01b031690565b60008181526004602052604080822081516102008101909252805483929190829061018082019083908290829061158690614b71565b80601f01602080910402602001604051908101604052809291908181526020018280546115b290614b71565b80156115ff5780601f106115d4576101008083540402835291602001916115ff565b820191906000526020600020905b8154815290600101906020018083116115e257829003601f168201915b50505050508152602001600182015481526020016002820154815260200160038201548152505081526020016004820160009054906101000a900460ff16600381111561165c57634e487b7160e01b600052602160045260246000fd5b600381111561167b57634e487b7160e01b600052602160045260246000fd5b815260200160058201805461168f90614b71565b80601f01602080910402602001604051908101604052809291908181526020018280546116bb90614b71565b80156117085780601f106116dd57610100808354040283529160200191611708565b820191906000526020600020905b8154815290600101906020018083116116eb57829003601f168201915b5050505050815260200160068201548152602001600782015481526020016008820154815260200160098201805461173f90614b71565b80601f016020809104026020016040519081016040528092919081815260200182805461176b90614b71565b80156117b85780601f1061178d576101008083540402835291602001916117b8565b820191906000526020600020905b81548152906001019060200180831161179b57829003601f168201915b50505050508152602001600a82016040518060800160405290816000820180546117e190614b71565b80601f016020809104026020016040519081016040528092919081815260200182805461180d90614b71565b801561185a5780601f1061182f5761010080835404028352916020019161185a565b820191906000526020600020905b81548152906001019060200180831161183d57829003601f168201915b5050505050815260200160018201805461187390614b71565b80601f016020809104026020016040519081016040528092919081815260200182805461189f90614b71565b80156118ec5780601f106118c1576101008083540402835291602001916118ec565b820191906000526020600020905b8154815290600101906020018083116118cf57829003601f168201915b5050509183525050600282015460208083019190915260039092015460409182015291835281518083018352600e8501548152600f85015481830152838201528151808301835260108501548152601185015491810191909152828201528051608081019091526012830180546060909301928290829061196c90614b71565b80601f016020809104026020016040519081016040528092919081815260200182805461199890614b71565b80156119e55780601f106119ba576101008083540402835291602001916119e5565b820191906000526020600020905b8154815290600101906020018083116119c857829003601f168201915b505050505081526020016001820180546119fe90614b71565b80601f0160208091040260200160405190810160405280929190818152602001828054611a2a90614b71565b8015611a775780601f10611a4c57610100808354040283529160200191611a77565b820191906000526020600020905b815481529060010190602001808311611a5a57829003601f168201915b50505091835250506002820154602080830191909152600390920154604091820152918352815160808101835260168501546060820190815281528251808301845260178601548152818301528251808301845260189095015485529182019390935291015261010081015151909150611af49062015180614b0f565b81610100015160200151611b089190614ae3565b9392505050565b6000611b3d6040518060400160405280600a815260200169199c9959505b9a5b585b60b21b81525083612ed3565b6000828152600460205260408082208151610200810190925280548290610180820190839082908290611b6f90614b71565b80601f0160208091040260200160405190810160405280929190818152602001828054611b9b90614b71565b8015611be85780601f10611bbd57610100808354040283529160200191611be8565b820191906000526020600020905b815481529060010190602001808311611bcb57829003601f168201915b50505050508152602001600182015481526020016002820154815260200160038201548152505081526020016004820160009054906101000a900460ff166003811115611c4557634e487b7160e01b600052602160045260246000fd5b6003811115611c6457634e487b7160e01b600052602160045260246000fd5b8152602001600582018054611c7890614b71565b80601f0160208091040260200160405190810160405280929190818152602001828054611ca490614b71565b8015611cf15780601f10611cc657610100808354040283529160200191611cf1565b820191906000526020600020905b815481529060010190602001808311611cd457829003601f168201915b50505050508152602001600682015481526020016007820154815260200160088201548152602001600982018054611d2890614b71565b80601f0160208091040260200160405190810160405280929190818152602001828054611d5490614b71565b8015611da15780601f10611d7657610100808354040283529160200191611da1565b820191906000526020600020905b815481529060010190602001808311611d8457829003601f168201915b50505050508152602001600a8201604051806080016040529081600082018054611dca90614b71565b80601f0160208091040260200160405190810160405280929190818152602001828054611df690614b71565b8015611e435780601f10611e1857610100808354040283529160200191611e43565b820191906000526020600020905b815481529060010190602001808311611e2657829003601f168201915b50505050508152602001600182018054611e5c90614b71565b80601f0160208091040260200160405190810160405280929190818152602001828054611e8890614b71565b8015611ed55780601f10611eaa57610100808354040283529160200191611ed5565b820191906000526020600020905b815481529060010190602001808311611eb857829003601f168201915b5050509183525050600282015460208083019190915260039092015460409182015291835281518083018352600e8501548152600f850154818301528382015281518083018352601085015481526011850154918101919091528282015280516080810190915260128301805460609093019282908290611f5590614b71565b80601f0160208091040260200160405190810160405280929190818152602001828054611f8190614b71565b8015611fce5780601f10611fa357610100808354040283529160200191611fce565b820191906000526020600020905b815481529060010190602001808311611fb157829003601f168201915b50505050508152602001600182018054611fe790614b71565b80601f016020809104026020016040519081016040528092919081815260200182805461201390614b71565b80156120605780601f1061203557610100808354040283529160200191612060565b820191906000526020600020905b81548152906001019060200180831161204357829003601f168201915b50505091835250506002820154602080830191909152600390920154604091820152918352815160808101835260168501546060820190815281528251808301845260178601548152818301528251808301845260189095015485529182019390935291015290506120d23384613b8c565b60008160a00151436120e49190614b2e565b905060006120f482617080613ca1565b83516040015190915061211a9061211390670de0b6b3a7640000612ec7565b8290612ec7565b935061214e6040518060400160405280600e81526020016d18d85b18dd5b185d19565a595b1960921b81525083838761332e565b60085460405163a9059cbb60e01b81526001600160a01b039091169063a9059cbb90612180903390889060040161478f565b602060405180830381600087803b15801561219a57600080fd5b505af11580156121ae573d6000803e3d6000fd5b505050506040513d601f19601f820116820180604052508101906121d29190614281565b506040518490869033907f6d330a72b03f3f443e72a146c33e5882a01427b60a36b46ac11243d0c4e31d0990600090a4505050919050565b600033612215611541565b6001600160a01b03161461223b5760405162461bcd60e51b8152600401610393906148ee565b6008546040516370a0823160e01b81526001600160a01b03909116906370a082319061226b903090600401614733565b60206040518083038186803b15801561228357600080fd5b505afa158015612297573d6000803e3d6000fd5b505050506040513d601f19601f820116820180604052508101906122bb919061444c565b905090565b6005546008546040516370a0823160e01b81526001600160a01b03909116906370a08231906122f3903390600401614733565b60206040518083038186803b15801561230b57600080fd5b505afa15801561231f573d6000803e3d6000fd5b505050506040513d601f19601f82011682018060405250810190612343919061444c565b1061239c5760405162461bcd60e51b815260206004820152602360248201527f5a4b3a204e6f7420656e6f756768205a4f4f20746f207075726368617365204e604482015262616d6560e81b6064820152608401610393565b6008546005546040516323b872dd60e01b81526001600160a01b03909216916323b872dd916123d19133913091600401614747565b602060405180830381600087803b1580156123eb57600080fd5b505af11580156123ff573d6000803e3d6000fd5b505050506040513d601f19601f820116820180604052508101906124239190614281565b50600082815260046020526040808220815161020081019092528054829061018082019083908290829061245690614b71565b80601f016020809104026020016040519081016040528092919081815260200182805461248290614b71565b80156124cf5780601f106124a4576101008083540402835291602001916124cf565b820191906000526020600020905b8154815290600101906020018083116124b257829003601f168201915b50505050508152602001600182015481526020016002820154815260200160038201548152505081526020016004820160009054906101000a900460ff16600381111561252c57634e487b7160e01b600052602160045260246000fd5b600381111561254b57634e487b7160e01b600052602160045260246000fd5b815260200160058201805461255f90614b71565b80601f016020809104026020016040519081016040528092919081815260200182805461258b90614b71565b80156125d85780601f106125ad576101008083540402835291602001916125d8565b820191906000526020600020905b8154815290600101906020018083116125bb57829003601f168201915b5050505050815260200160068201548152602001600782015481526020016008820154815260200160098201805461260f90614b71565b80601f016020809104026020016040519081016040528092919081815260200182805461263b90614b71565b80156126885780601f1061265d57610100808354040283529160200191612688565b820191906000526020600020905b81548152906001019060200180831161266b57829003601f168201915b50505050508152602001600a82016040518060800160405290816000820180546126b190614b71565b80601f01602080910402602001604051908101604052809291908181526020018280546126dd90614b71565b801561272a5780601f106126ff5761010080835404028352916020019161272a565b820191906000526020600020905b81548152906001019060200180831161270d57829003601f168201915b5050505050815260200160018201805461274390614b71565b80601f016020809104026020016040519081016040528092919081815260200182805461276f90614b71565b80156127bc5780601f10612791576101008083540402835291602001916127bc565b820191906000526020600020905b81548152906001019060200180831161279f57829003601f168201915b5050509183525050600282015460208083019190915260039092015460409182015291835281518083018352600e8501548152600f85015481830152838201528151808301835260108501548152601185015491810191909152828201528051608081019091526012830180546060909301928290829061283c90614b71565b80601f016020809104026020016040519081016040528092919081815260200182805461286890614b71565b80156128b55780601f1061288a576101008083540402835291602001916128b5565b820191906000526020600020905b81548152906001019060200180831161289857829003601f168201915b505050505081526020016001820180546128ce90614b71565b80601f01602080910402602001604051908101604052809291908181526020018280546128fa90614b71565b80156129475780601f1061291c57610100808354040283529160200191612947565b820191906000526020600020905b81548152906001019060200180831161292a57829003601f168201915b5050509183525050600282015460208083019190915260039092015460409182015291835281516080810183526016850154606082019081528152825180830184526017860154815281830152825180830184526018909501548552808301949094529182019290925260c083018590526000868152600482529190912082518051805194955085949293919284926129e4928492910190613ec6565b50602082015181600101556040820151816002015560608201518160030155505060208201518160040160006101000a81548160ff02191690836003811115612a3d57634e487b7160e01b600052602160045260246000fd5b021790555060408201518051612a5d916005840191602090910190613ec6565b50606082015160068201556080820151600782015560a0820151600882015560c08201518051612a97916009840191602090910190613ec6565b5060e082015180518051600a840191612ab591839160200190613ec6565b506020828101518051612ace9260018501920190613ec6565b50604082015160028201556060909101516003909101556101008201518051600e830155602090810151600f8301556101208301518051601084015581015160118301556101408301518051805191926012850192612b309284920190613ec6565b506020828101518051612b499260018501920190613ec6565b5060408281015160028301556060909201516003909101556101609290920151805151601683015560208101515160178301559091015151601890910155505050565b33612b95611541565b6001600160a01b031614612bbb5760405162461bcd60e51b8152600401610393906148ee565b6001600160a01b038116612c205760405162461bcd60e51b815260206004820152602660248201527f4f776e61626c653a206e6577206f776e657220697320746865207a65726f206160448201526564647265737360d01b6064820152608401610393565b612c2981613c51565b50565b600033612c37611541565b6001600160a01b031614612c5d5760405162461bcd60e51b8152600401610393906148ee565b6008546001600160a01b03166323b872dd3085612c8286670de0b6b3a7640000612ec7565b6040518463ffffffff1660e01b8152600401612ca093929190614747565b602060405180830381600087803b158015612cba57600080fd5b505af1158015612cce573d6000803e3d6000fd5b505050506040513d601f19601f82011682018060405250810190611b089190614281565b6001600160a01b03811660009081526003602052604081205415612d4d5760405162461bcd60e51b8152602060048201526012602482015271111c9bdc08185b1c9958591e48185919195960721b6044820152606401610393565b81612d5c600180546001019055565b6000612d6760015490565b600081815260026020908152604080832080546001600160a01b0319166001600160a01b038a81169182179092558085526003909352818420859055815163129e754360e21b8152915194955091937f2924d682319c0da5a600d8e093bcb0fb706de4e6bb58e114c69dee5587e2ec2d9392871692634a79d50c9260048082019391829003018186803b158015612dfd57600080fd5b505afa158015612e11573d6000803e3d6000fd5b505050506040513d6000823e601f3d908101601f19168201604052612e3991908101906142a1565b846001600160a01b031663d232b7976040518163ffffffff1660e01b815260040160206040518083038186803b158015612e7257600080fd5b505afa158015612e86573d6000803e3d6000fd5b505050506040513d601f19601f82011682018060405250810190612eaa919061444c565b604051612eb8929190614878565b60405180910390a29392505050565b6000611b088284614b0f565b612f188282604051602401612ee9929190614878565b60408051601f198184030181529190526020810180516001600160e01b03166309710a9d60e41b179052613cad565b5050565b612f6584848484604051602401612f3694939291906147a8565b60408051601f198184030181529190526020810180516001600160e01b0316636eb7943d60e01b179052613cad565b50505050565b612f73613db0565b612f9e604051806040016040528060048152602001631b5a5b9d60e21b815250848460400151613cce565b60075460405163113fba1f60e11b81526001600160a01b039091169063227f743e90612fd0908690869060040161476b565b600060405180830381600087803b158015612fea57600080fd5b505af1158015612ffe573d6000803e3d6000fd5b505050506040513d6000823e601f3d908101601f1916820160405261302691908101906142d3565b60065460608201516101608301516040516375aab41d60e11b81529395506001600160a01b039092169263eb55683a926130639291600401614a14565b600060405180830381600087803b15801561307d57600080fd5b505af1158015613091573d6000803e3d6000fd5b5050505060608201516000908152600460209081526040909120835180518051869484926130c59284929190910190613ec6565b50602082015181600101556040820151816002015560608201518160030155505060208201518160040160006101000a81548160ff0219169083600381111561311e57634e487b7160e01b600052602160045260246000fd5b02179055506040820151805161313e916005840191602090910190613ec6565b50606082015160068201556080820151600782015560a0820151600882015560c08201518051613178916009840191602090910190613ec6565b5060e082015180518051600a84019161319691839160200190613ec6565b5060208281015180516131af9260018501920190613ec6565b50604082015160028201556060909101516003909101556101008201518051600e830155602090810151600f83015561012083015180516010840155810151601183015561014083015180518051919260128501926132119284920190613ec6565b50602082810151805161322a9260018501920190613ec6565b5060408281015160028301556060928301516003909201919091556101609390930151805151601684015560208101515160178401558301515160189092019190915583015190516001600160a01b038516907f0f6798a560793a54c3bcfe86a93cde1e73087d944c0ea20544137d412139688590600090a350919050565b6113058383836040516024016132c19392919061489a565b60408051601f198184030181529190526020810180516001600160e01b031663969cdd0360e01b179052613cad565b60008181526004602081905260408220015460019060ff16600381111561332757634e487b7160e01b600052602160045260246000fd5b1492915050565b612f658484848460405160240161334894939291906148bf565b60408051601f198184030181529190526020810180516001600160e01b03166304772b3360e11b179052613cad565b6133ab60405180604001604052806011815260200170757064617465427265656444656c61797360781b81525083836132a9565b6000828152600460205260408120600e018054916133c883614bac565b90915550506000818152600460205260408120600e018054916133ea83614bac565b909155505060009182526004602052604080832042600f918201819055928452922090910155565b61341a613db0565b6134466040518060400160405280600981526020016819d95d105b9a5b585b60ba1b81525084846132a9565b600082815260046020526040808220815161020081019092528054829061018082019083908290829061347890614b71565b80601f01602080910402602001604051908101604052809291908181526020018280546134a490614b71565b80156134f15780601f106134c6576101008083540402835291602001916134f1565b820191906000526020600020905b8154815290600101906020018083116134d457829003601f168201915b50505050508152602001600182015481526020016002820154815260200160038201548152505081526020016004820160009054906101000a900460ff16600381111561354e57634e487b7160e01b600052602160045260246000fd5b600381111561356d57634e487b7160e01b600052602160045260246000fd5b815260200160058201805461358190614b71565b80601f01602080910402602001604051908101604052809291908181526020018280546135ad90614b71565b80156135fa5780601f106135cf576101008083540402835291602001916135fa565b820191906000526020600020905b8154815290600101906020018083116135dd57829003601f168201915b5050505050815260200160068201548152602001600782015481526020016008820154815260200160098201805461363190614b71565b80601f016020809104026020016040519081016040528092919081815260200182805461365d90614b71565b80156136aa5780601f1061367f576101008083540402835291602001916136aa565b820191906000526020600020905b81548152906001019060200180831161368d57829003601f168201915b50505050508152602001600a82016040518060800160405290816000820180546136d390614b71565b80601f01602080910402602001604051908101604052809291908181526020018280546136ff90614b71565b801561374c5780601f106137215761010080835404028352916020019161374c565b820191906000526020600020905b81548152906001019060200180831161372f57829003601f168201915b5050505050815260200160018201805461376590614b71565b80601f016020809104026020016040519081016040528092919081815260200182805461379190614b71565b80156137de5780601f106137b3576101008083540402835291602001916137de565b820191906000526020600020905b8154815290600101906020018083116137c157829003601f168201915b5050509183525050600282015460208083019190915260039092015460409182015291835281518083018352600e8501548152600f85015481830152838201528151808301835260108501548152601185015491810191909152828201528051608081019091526012830180546060909301928290829061385e90614b71565b80601f016020809104026020016040519081016040528092919081815260200182805461388a90614b71565b80156138d75780601f106138ac576101008083540402835291602001916138d7565b820191906000526020600020905b8154815290600101906020018083116138ba57829003601f168201915b505050505081526020016001820180546138f090614b71565b80601f016020809104026020016040519081016040528092919081815260200182805461391c90614b71565b80156139695780601f1061393e57610100808354040283529160200191613969565b820191906000526020600020905b81548152906001019060200180831161394c57829003601f168201915b50505091835250506002820154602080830191909152600390920154604091820152918352815160808101835260168501546060820190815281528251808301845260178601548152818301528251808301845260189095015485529182019390935291015290506000816020015160038111156139f757634e487b7160e01b600052602160045260246000fd5b1415613ace57613a2f6040518060400160405280600f81526020016e19d95d14985b991bdb505b9a5b585b608a1b81525085856132a9565b6000848152600260205260409020546001600160a01b03166308f8bcc6613a54613d15565b6040518263ffffffff1660e01b8152600401613a7291815260200190565b60006040518083038186803b158015613a8a57600080fd5b505afa158015613a9e573d6000803e3d6000fd5b505050506040513d6000823e601f3d908101601f19168201604052613ac691908101906142d3565b915050611500565b613b006040518060400160405280600f81526020016e19d95d14985b991bdb521e589c9a59608a1b81525085856132a9565b6000848152600260205260409020546001600160a01b0316633b5c9856613b25613d15565b8360e001516040518363ffffffff1660e01b8152600401613a72929190614a28565b612f188282604051602401613b5d92919061484a565b60408051601f198184030181529190526020810180516001600160e01b0316634b5c427760e01b179052613cad565b613bb360405180604001604052806004815260200163313ab93760e11b8152508383613d69565b600754604051633477cc1b60e21b81526001600160a01b039091169063d1df306c90613be5908590859060040161478f565b600060405180830381600087803b158015613bff57600080fd5b505af1158015613c13573d6000803e3d6000fd5b50506040518392506001600160a01b03851691507fcc16f5dbb4873280815c1ee09dbd06736cffcc184412cf7a71a0fdb75d397ca590600090a35050565b600080546001600160a01b038381166001600160a01b0319831681178455604051919092169283917f8be0079c531659141344cd1fd0a4f28419497f9722a3daafe3b4186f6b6457e09190a35050565b6000611b088284614afb565b80516a636f6e736f6c652e6c6f67602083016000808483855afa5050505050565b611305838383604051602401613ce6939291906147de565b60408051601f198184030181529190526020810180516001600160e01b031663e0e9ad4f60e01b179052613cad565b604080514360208201526001600160601b03193360601b16918101919091524260548201526000908190612710906074016040516020818303038152906040528051906020012060001c6115009190614be7565b611305838383604051602401613d819392919061481c565b60408051601f198184030181529190526020810180516001600160e01b03166307c8121760e01b179052613cad565b6040805161020081019091526060610180820190815260006101a083018190526101c083018190526101e083015281908152602001600081526020016060815260200160008152602001600081526020016000815260200160608152602001613e3a6040518060800160405280606081526020016060815260200160008152602001600081525090565b8152602001613e5c604051806040016040528060008152602001600081525090565b8152602001613e7e604051806040016040528060008152602001600081525090565b8152602001613eb46040518060800160405280606081526020016060815260200160008019168152602001600080191681525090565b8152602001613ec1613f4a565b905290565b828054613ed290614b71565b90600052602060002090601f016020900481019282613ef45760008555613f3a565b82601f10613f0d57805160ff1916838001178555613f3a565b82800160010185558215613f3a579182015b82811115613f3a578251825591602001919060010190613f1f565b50613f46929150613f77565b5090565b6040518060600160405280613f5d613f8c565b8152602001613f6a613f8c565b8152602001613ec1613f8c565b5b80821115613f465760008155600101613f78565b6040518060200160405280600081525090565b80356001600160a01b0381168114613fb657600080fd5b919050565b805160048110613fb657600080fd5b600082601f830112613fda578081fd5b8151613fed613fe882614abc565b614a8c565b818152846020838601011115614001578283fd5b614012826020830160208701614b45565b949350505050565b60006060828403121561402b578081fd5b604051606081018181106001600160401b038211171561404d5761404d614c27565b60405290508061405d84846140d7565b815261406c84602085016140d7565b602082015261407e84604085016140d7565b60408201525092915050565b60006040828403121561409b578081fd5b604051604081018181106001600160401b03821117156140bd576140bd614c27565b604052825181526020928301519281019290925250919050565b6000602082840312156140e8578081fd5b604051602081018181106001600160401b038211171561410a5761410a614c27565b6040529151825250919050565b600060808284031215614128578081fd5b614130614a41565b905081516001600160401b038082111561414957600080fd5b61415585838601613fca565b8352602084015191508082111561416b57600080fd5b5061417884828501613fca565b602083015250604082015160408201526060820151606082015292915050565b6000608082840312156141a9578081fd5b6141b1614a41565b905081516001600160401b038111156141c957600080fd5b6141d584828501613fca565b82525060208201516020820152604082015160408201526060820151606082015292915050565b60006020828403121561420d578081fd5b611b0882613f9f565b60008060006060848603121561422a578182fd5b61423384613f9f565b925061424160208501613f9f565b915061424f60408501613f9f565b90509250925092565b6000806040838503121561426a578182fd5b61427383613f9f565b946020939093013593505050565b600060208284031215614292578081fd5b81518015158114611b08578182fd5b6000602082840312156142b2578081fd5b81516001600160401b038111156142c7578182fd5b61401284828501613fca565b6000602082840312156142e4578081fd5b81516001600160401b03808211156142fa578283fd5b90830190610200828603121561430e578283fd5b614316614a69565b825182811115614324578485fd5b61433087828601614198565b82525061433f60208401613fbb565b6020820152604083015182811115614355578485fd5b61436187828601613fca565b604083015250606083015160608201526080830151608082015260a083015160a082015260c083015182811115614396578485fd5b6143a287828601613fca565b60c08301525060e0830151828111156143b9578485fd5b6143c587828601614117565b60e0830152506101006143da8782860161408a565b908201526101406143ed8785830161408a565b61012083015261018084015183811115614405578586fd5b61441188828701614117565b828401525050614425866101a0850161401a565b61016082015295945050505050565b600060208284031215614445578081fd5b5035919050565b60006020828403121561445d578081fd5b5051919050565b60008060408385031215614476578182fd5b8235915060208301356001600160401b03811115614492578182fd5b8301601f810185136144a2578182fd5b80356144b0613fe882614abc565b8181528660208385010111156144c4578384fd5b81602084016020830137908101602001929092525090939092509050565b600080604083850312156144f4578182fd5b50508035926020909101359150565b600080600060608486031215614517578081fd5b505081359360208301359350604090920135919050565b6004811061454c57634e487b7160e01b600052602160045260246000fd5b9052565b60008151808452614568816020860160208601614b45565b601f01601f19169290920160200192915050565b8051518252602080820151519083015260409081015151910152565b60008151608084526145ad6080850182614550565b9050602083015184820360208601526145c68282614550565b91505060408301516040850152606083015160608501528091505092915050565b60008151608084526145fc6080850182614550565b90506020830151602085015260408301516040850152606083015160608501528091505092915050565b6000610200825181855261463c828601826145e7565b9150506020830151614651602086018261452e565b50604083015184820360408601526146698282614550565b915050606083015160608501526080830151608085015260a083015160a085015260c083015184820360c08601526146a18282614550565b91505060e083015184820360e08601526146bb8282614598565b915050610100808401516146db8287018280518252602090810151910152565b50506101208301516101406146fc8187018380518252602090810151910152565b84015185830361018087015290506147148282614598565b91505061016083015161472b6101a086018261457c565b509392505050565b6001600160a01b0391909116815260200190565b6001600160a01b039384168152919092166020820152604081019190915260600190565b6001600160a01b038316815260406020820181905260009061401290830184614626565b6001600160a01b03929092168252602082015260400190565b6080815260006147bb6080830187614550565b6001600160a01b0395861660208401529390941660408201526060015292915050565b6060815260006147f16060830186614550565b6001600160a01b038516602084015282810360408401526148128185614550565b9695505050505050565b60608152600061482f6060830186614550565b6001600160a01b039490941660208301525060400152919050565b60408152600061485d6040830185614550565b828103602084015261486f8185614550565b95945050505050565b60408152600061488b6040830185614550565b90508260208301529392505050565b6060815260006148ad6060830186614550565b60208301949094525060400152919050565b6080815260006148d26080830187614550565b6020830195909552506040810192909252606090910152919050565b6020808252818101527f4f776e61626c653a2063616c6c6572206973206e6f7420746865206f776e6572604082015260600190565b602081526000611b086020830184614598565b6102008152600061494b61020083018f6145e7565b614958602084018f61452e565b828103604084015261496a818e614550565b90508b60608401528a60808401528960a084015282810360c0840152614990818a614550565b905082810360e08401526149a48189614598565b875161010085015260208801516101208501529050855161014084015260208601516101608401528281036101808401526149df8186614598565b9150506149f06101a083018461457c565b9d9c50505050505050505050505050565b602081526000611b086020830184614626565b82815260808101611b08602083018461457c565b8281526040602082015260006140126040830184614598565b604051608081016001600160401b0381118282101715614a6357614a63614c27565b60405290565b60405161018081016001600160401b0381118282101715614a6357614a63614c27565b604051601f8201601f191681016001600160401b0381118282101715614ab457614ab4614c27565b604052919050565b60006001600160401b03821115614ad557614ad5614c27565b50601f01601f191660200190565b60008219821115614af657614af6614bfb565b500190565b600082614b0a57614b0a614c11565b500490565b6000816000190483118215151615614b2957614b29614bfb565b500290565b600082821015614b4057614b40614bfb565b500390565b60005b83811015614b60578181015183820152602001614b48565b83811115612f655750506000910152565b600181811c90821680614b8557607f821691505b60208210811415614ba657634e487b7160e01b600052602260045260246000fd5b50919050565b6000600019821415614bc057614bc0614bfb565b5060010190565b600060ff821660ff811415614bde57614bde614bfb565b60010192915050565b600082614bf657614bf6614c11565b500690565b634e487b7160e01b600052601160045260246000fd5b634e487b7160e01b600052601260045260246000fd5b634e487b7160e01b600052604160045260246000fdfea264697066735822122007fe6deea0b512ad292472fc1e56c02d893d2998fff4cd29f42308655937476464736f6c63430008040033",
  "devdoc": {
    "kind": "dev",
    "methods": {
      "owner()": {
        "details": "Returns the address of the current owner."
      },
      "renounceOwnership()": {
        "details": "Leaves the contract without owner. It will not be possible to call `onlyOwner` functions anymore. Can only be called by the current owner. NOTE: Renouncing ownership will leave the contract without an owner, thereby removing any functionality that is only available to the owner."
      },
      "transferOwnership(address)": {
        "details": "Transfers ownership of the contract to a new account (`newOwner`). Can only be called by the current owner."
      }
    },
    "version": 1
  },
  "userdoc": {
    "kind": "user",
    "methods": {},
    "version": 1
  },
  "storageLayout": {
    "storage": [
      {
        "astId": 7,
        "contract": "src/ZooKeeper.sol:ZooKeeper",
        "label": "_owner",
        "offset": 0,
        "slot": "0",
        "type": "t_address"
      },
      {
        "astId": 8063,
        "contract": "src/ZooKeeper.sol:ZooKeeper",
        "label": "dropIDs",
        "offset": 0,
        "slot": "1",
        "type": "t_struct(Counter)2411_storage"
      },
      {
        "astId": 8119,
        "contract": "src/ZooKeeper.sol:ZooKeeper",
        "label": "drops",
        "offset": 0,
        "slot": "2",
        "type": "t_mapping(t_uint256,t_address)"
      },
      {
        "astId": 8123,
        "contract": "src/ZooKeeper.sol:ZooKeeper",
        "label": "dropAddresses",
        "offset": 0,
        "slot": "3",
        "type": "t_mapping(t_address,t_uint256)"
      },
      {
        "astId": 8128,
        "contract": "src/ZooKeeper.sol:ZooKeeper",
        "label": "tokens",
        "offset": 0,
        "slot": "4",
        "type": "t_mapping(t_uint256,t_struct(Token)20106_storage)"
      },
      {
        "astId": 8130,
        "contract": "src/ZooKeeper.sol:ZooKeeper",
        "label": "namePrice",
        "offset": 0,
        "slot": "5",
        "type": "t_uint256"
      },
      {
        "astId": 8133,
        "contract": "src/ZooKeeper.sol:ZooKeeper",
        "label": "market",
        "offset": 0,
        "slot": "6",
        "type": "t_contract(IMarket)19855"
      },
      {
        "astId": 8136,
        "contract": "src/ZooKeeper.sol:ZooKeeper",
        "label": "media",
        "offset": 0,
        "slot": "7",
        "type": "t_contract(IMedia)20035"
      },
      {
        "astId": 8139,
        "contract": "src/ZooKeeper.sol:ZooKeeper",
        "label": "zoo",
        "offset": 0,
        "slot": "8",
        "type": "t_contract(IERC20)767"
      }
    ],
    "types": {
      "t_address": {
        "encoding": "inplace",
        "label": "address",
        "numberOfBytes": "20"
      },
      "t_bytes32": {
        "encoding": "inplace",
        "label": "bytes32",
        "numberOfBytes": "32"
      },
      "t_contract(IERC20)767": {
        "encoding": "inplace",
        "label": "contract IERC20",
        "numberOfBytes": "20"
      },
      "t_contract(IMarket)19855": {
        "encoding": "inplace",
        "label": "contract IMarket",
        "numberOfBytes": "20"
      },
      "t_contract(IMedia)20035": {
        "encoding": "inplace",
        "label": "contract IMedia",
        "numberOfBytes": "20"
      },
      "t_enum(Type)20046": {
        "encoding": "inplace",
        "label": "enum IZoo.Type",
        "numberOfBytes": "1"
      },
      "t_mapping(t_address,t_uint256)": {
        "encoding": "mapping",
        "key": "t_address",
        "label": "mapping(address => uint256)",
        "numberOfBytes": "32",
        "value": "t_uint256"
      },
      "t_mapping(t_uint256,t_address)": {
        "encoding": "mapping",
        "key": "t_uint256",
        "label": "mapping(uint256 => address)",
        "numberOfBytes": "32",
        "value": "t_address"
      },
      "t_mapping(t_uint256,t_struct(Token)20106_storage)": {
        "encoding": "mapping",
        "key": "t_uint256",
        "label": "mapping(uint256 => struct IZoo.Token)",
        "numberOfBytes": "32",
        "value": "t_struct(Token)20106_storage"
      },
      "t_string_storage": {
        "encoding": "bytes",
        "label": "string",
        "numberOfBytes": "32"
      },
      "t_struct(BidShares)19713_storage": {
        "encoding": "inplace",
        "label": "struct IMarket.BidShares",
        "members": [
          {
            "astId": 19706,
            "contract": "src/ZooKeeper.sol:ZooKeeper",
            "label": "prevOwner",
            "offset": 0,
            "slot": "0",
            "type": "t_struct(D256)4192_storage"
          },
          {
            "astId": 19709,
            "contract": "src/ZooKeeper.sol:ZooKeeper",
            "label": "creator",
            "offset": 0,
            "slot": "1",
            "type": "t_struct(D256)4192_storage"
          },
          {
            "astId": 19712,
            "contract": "src/ZooKeeper.sol:ZooKeeper",
            "label": "owner",
            "offset": 0,
            "slot": "2",
            "type": "t_struct(D256)4192_storage"
          }
        ],
        "numberOfBytes": "96"
      },
      "t_struct(Breed)20060_storage": {
        "encoding": "inplace",
        "label": "struct IZoo.Breed",
        "members": [
          {
            "astId": 20057,
            "contract": "src/ZooKeeper.sol:ZooKeeper",
            "label": "count",
            "offset": 0,
            "slot": "0",
            "type": "t_uint256"
          },
          {
            "astId": 20059,
            "contract": "src/ZooKeeper.sol:ZooKeeper",
            "label": "timestamp",
            "offset": 0,
            "slot": "1",
            "type": "t_uint256"
          }
        ],
        "numberOfBytes": "64"
      },
      "t_struct(Counter)2411_storage": {
        "encoding": "inplace",
        "label": "struct Counters.Counter",
        "members": [
          {
            "astId": 2410,
            "contract": "src/ZooKeeper.sol:ZooKeeper",
            "label": "_value",
            "offset": 0,
            "slot": "0",
            "type": "t_uint256"
          }
        ],
        "numberOfBytes": "32"
      },
      "t_struct(D256)4192_storage": {
        "encoding": "inplace",
        "label": "struct Decimal.D256",
        "members": [
          {
            "astId": 4191,
            "contract": "src/ZooKeeper.sol:ZooKeeper",
            "label": "value",
            "offset": 0,
            "slot": "0",
            "type": "t_uint256"
          }
        ],
        "numberOfBytes": "32"
      },
      "t_struct(MediaData)19881_storage": {
        "encoding": "inplace",
        "label": "struct IMedia.MediaData",
        "members": [
          {
            "astId": 19874,
            "contract": "src/ZooKeeper.sol:ZooKeeper",
            "label": "tokenURI",
            "offset": 0,
            "slot": "0",
            "type": "t_string_storage"
          },
          {
            "astId": 19876,
            "contract": "src/ZooKeeper.sol:ZooKeeper",
            "label": "metadataURI",
            "offset": 0,
            "slot": "1",
            "type": "t_string_storage"
          },
          {
            "astId": 19878,
            "contract": "src/ZooKeeper.sol:ZooKeeper",
            "label": "contentHash",
            "offset": 0,
            "slot": "2",
            "type": "t_bytes32"
          },
          {
            "astId": 19880,
            "contract": "src/ZooKeeper.sol:ZooKeeper",
            "label": "metadataHash",
            "offset": 0,
            "slot": "3",
            "type": "t_bytes32"
          }
        ],
        "numberOfBytes": "128"
      },
      "t_struct(Meta)20074_storage": {
        "encoding": "inplace",
        "label": "struct IZoo.Meta",
        "members": [
          {
            "astId": 20071,
            "contract": "src/ZooKeeper.sol:ZooKeeper",
            "label": "eggID",
            "offset": 0,
            "slot": "0",
            "type": "t_uint256"
          },
          {
            "astId": 20073,
            "contract": "src/ZooKeeper.sol:ZooKeeper",
            "label": "dropID",
            "offset": 0,
            "slot": "1",
            "type": "t_uint256"
          }
        ],
        "numberOfBytes": "64"
      },
      "t_struct(Parents)20069_storage": {
        "encoding": "inplace",
        "label": "struct IZoo.Parents",
        "members": [
          {
            "astId": 20062,
            "contract": "src/ZooKeeper.sol:ZooKeeper",
            "label": "animalA",
            "offset": 0,
            "slot": "0",
            "type": "t_string_storage"
          },
          {
            "astId": 20064,
            "contract": "src/ZooKeeper.sol:ZooKeeper",
            "label": "animalB",
            "offset": 0,
            "slot": "1",
            "type": "t_string_storage"
          },
          {
            "astId": 20066,
            "contract": "src/ZooKeeper.sol:ZooKeeper",
            "label": "tokenA",
            "offset": 0,
            "slot": "2",
            "type": "t_uint256"
          },
          {
            "astId": 20068,
            "contract": "src/ZooKeeper.sol:ZooKeeper",
            "label": "tokenB",
            "offset": 0,
            "slot": "3",
            "type": "t_uint256"
          }
        ],
        "numberOfBytes": "128"
      },
      "t_struct(Rarity)20055_storage": {
        "encoding": "inplace",
        "label": "struct IZoo.Rarity",
        "members": [
          {
            "astId": 20048,
            "contract": "src/ZooKeeper.sol:ZooKeeper",
            "label": "name",
            "offset": 0,
            "slot": "0",
            "type": "t_string_storage"
          },
          {
            "astId": 20050,
            "contract": "src/ZooKeeper.sol:ZooKeeper",
            "label": "probability",
            "offset": 0,
            "slot": "1",
            "type": "t_uint256"
          },
          {
            "astId": 20052,
            "contract": "src/ZooKeeper.sol:ZooKeeper",
            "label": "yield",
            "offset": 0,
            "slot": "2",
            "type": "t_uint256"
          },
          {
            "astId": 20054,
            "contract": "src/ZooKeeper.sol:ZooKeeper",
            "label": "boost",
            "offset": 0,
            "slot": "3",
            "type": "t_uint256"
          }
        ],
        "numberOfBytes": "128"
      },
      "t_struct(Token)20106_storage": {
        "encoding": "inplace",
        "label": "struct IZoo.Token",
        "members": [
          {
            "astId": 20077,
            "contract": "src/ZooKeeper.sol:ZooKeeper",
            "label": "rarity",
            "offset": 0,
            "slot": "0",
            "type": "t_struct(Rarity)20055_storage"
          },
          {
            "astId": 20080,
            "contract": "src/ZooKeeper.sol:ZooKeeper",
            "label": "kind",
            "offset": 0,
            "slot": "4",
            "type": "t_enum(Type)20046"
          },
          {
            "astId": 20082,
            "contract": "src/ZooKeeper.sol:ZooKeeper",
            "label": "name",
            "offset": 0,
            "slot": "5",
            "type": "t_string_storage"
          },
          {
            "astId": 20084,
            "contract": "src/ZooKeeper.sol:ZooKeeper",
            "label": "id",
            "offset": 0,
            "slot": "6",
            "type": "t_uint256"
          },
          {
            "astId": 20086,
            "contract": "src/ZooKeeper.sol:ZooKeeper",
            "label": "timestamp",
            "offset": 0,
            "slot": "7",
            "type": "t_uint256"
          },
          {
            "astId": 20088,
            "contract": "src/ZooKeeper.sol:ZooKeeper",
            "label": "birthday",
            "offset": 0,
            "slot": "8",
            "type": "t_uint256"
          },
          {
            "astId": 20090,
            "contract": "src/ZooKeeper.sol:ZooKeeper",
            "label": "customName",
            "offset": 0,
            "slot": "9",
            "type": "t_string_storage"
          },
          {
            "astId": 20093,
            "contract": "src/ZooKeeper.sol:ZooKeeper",
            "label": "parents",
            "offset": 0,
            "slot": "10",
            "type": "t_struct(Parents)20069_storage"
          },
          {
            "astId": 20096,
            "contract": "src/ZooKeeper.sol:ZooKeeper",
            "label": "breed",
            "offset": 0,
            "slot": "14",
            "type": "t_struct(Breed)20060_storage"
          },
          {
            "astId": 20099,
            "contract": "src/ZooKeeper.sol:ZooKeeper",
            "label": "meta",
            "offset": 0,
            "slot": "16",
            "type": "t_struct(Meta)20074_storage"
          },
          {
            "astId": 20102,
            "contract": "src/ZooKeeper.sol:ZooKeeper",
            "label": "data",
            "offset": 0,
            "slot": "18",
            "type": "t_struct(MediaData)19881_storage"
          },
          {
            "astId": 20105,
            "contract": "src/ZooKeeper.sol:ZooKeeper",
            "label": "bidShares",
            "offset": 0,
            "slot": "22",
            "type": "t_struct(BidShares)19713_storage"
          }
        ],
        "numberOfBytes": "800"
      },
      "t_uint256": {
        "encoding": "inplace",
        "label": "uint256",
        "numberOfBytes": "32"
      }
    }
  }
}