{
  "address": "0xb7B9C9B21D1849099135c132BA32dF8CEaAF5AC6",
  "abi": [
    {
      "anonymous": false,
      "inputs": [
        {
          "indexed": true,
          "internalType": "address",
          "name": "dropAddress",
          "type": "address"
        },
        {
          "indexed": false,
          "internalType": "string",
          "name": "title",
          "type": "string"
        },
        {
          "indexed": false,
          "internalType": "uint256",
          "name": "eggSupply",
          "type": "uint256"
        }
      ],
      "name": "AddDrop",
      "type": "event"
    },
    {
      "anonymous": false,
      "inputs": [
        {
          "indexed": true,
          "internalType": "address",
          "name": "from",
          "type": "address"
        },
        {
          "indexed": false,
          "internalType": "uint256",
          "name": "parentA",
          "type": "uint256"
        },
        {
          "indexed": false,
          "internalType": "uint256",
          "name": "parentB",
          "type": "uint256"
        },
        {
          "indexed": true,
          "internalType": "uint256",
          "name": "eggID",
          "type": "uint256"
        }
      ],
      "name": "Breed",
      "type": "event"
    },
    {
      "anonymous": false,
      "inputs": [
        {
          "indexed": true,
          "internalType": "address",
          "name": "from",
          "type": "address"
        },
        {
          "indexed": true,
          "internalType": "uint256",
          "name": "tokenID",
          "type": "uint256"
        }
      ],
      "name": "Burn",
      "type": "event"
    },
    {
      "anonymous": false,
      "inputs": [
        {
          "indexed": true,
          "internalType": "address",
          "name": "from",
          "type": "address"
        },
        {
          "indexed": true,
          "internalType": "uint256",
          "name": "eggID",
          "type": "uint256"
        }
      ],
      "name": "BuyEgg",
      "type": "event"
    },
    {
      "anonymous": false,
      "inputs": [
        {
          "indexed": true,
          "internalType": "address",
          "name": "from",
          "type": "address"
        },
        {
          "indexed": true,
          "internalType": "uint256",
          "name": "tokenID",
          "type": "uint256"
        },
        {
          "indexed": true,
          "internalType": "uint256",
          "name": "yield",
          "type": "uint256"
        }
      ],
      "name": "Free",
      "type": "event"
    },
    {
      "anonymous": false,
      "inputs": [
        {
          "indexed": true,
          "internalType": "address",
          "name": "from",
          "type": "address"
        },
        {
          "indexed": false,
          "internalType": "uint256",
          "name": "eggID",
          "type": "uint256"
        },
        {
          "indexed": true,
          "internalType": "uint256",
          "name": "tokenID",
          "type": "uint256"
        }
      ],
      "name": "Hatch",
      "type": "event"
    },
    {
      "anonymous": false,
      "inputs": [
        {
          "indexed": true,
          "internalType": "address",
          "name": "from",
          "type": "address"
        },
        {
          "indexed": true,
          "internalType": "uint256",
          "name": "tokenID",
          "type": "uint256"
        }
      ],
      "name": "Mint",
      "type": "event"
    },
    {
      "anonymous": false,
      "inputs": [
        {
          "indexed": true,
          "internalType": "address",
          "name": "previousOwner",
          "type": "address"
        },
        {
          "indexed": true,
          "internalType": "address",
          "name": "newOwner",
          "type": "address"
        }
      ],
      "name": "OwnershipTransferred",
      "type": "event"
    },
    {
      "anonymous": false,
      "inputs": [
        {
          "indexed": true,
          "internalType": "address",
          "name": "owner",
          "type": "address"
        },
        {
          "indexed": true,
          "internalType": "uint256",
          "name": "tokenID",
          "type": "uint256"
        },
        {
          "indexed": true,
          "internalType": "uint256",
          "name": "chainID",
          "type": "uint256"
        }
      ],
      "name": "Remint",
      "type": "event"
    },
    {
      "anonymous": false,
      "inputs": [
        {
          "indexed": true,
          "internalType": "address",
          "name": "owner",
          "type": "address"
        },
        {
          "indexed": true,
          "internalType": "uint256",
          "name": "tokenID",
          "type": "uint256"
        },
        {
          "indexed": true,
          "internalType": "uint256",
          "name": "chainID",
          "type": "uint256"
        }
      ],
      "name": "Swap",
      "type": "event"
    },
    {
      "inputs": [
        {
          "internalType": "uint256",
          "name": "dropID",
          "type": "uint256"
        },
        {
          "internalType": "uint256",
          "name": "tokenA",
          "type": "uint256"
        },
        {
          "internalType": "uint256",
          "name": "tokenB",
          "type": "uint256"
        }
      ],
      "name": "breedAnimals",
      "outputs": [
        {
          "components": [
            {
              "components": [
                {
                  "internalType": "string",
                  "name": "name",
                  "type": "string"
                },
                {
                  "internalType": "uint256",
                  "name": "probability",
                  "type": "uint256"
                },
                {
                  "internalType": "uint256",
                  "name": "yield",
                  "type": "uint256"
                },
                {
                  "internalType": "uint256",
                  "name": "boost",
                  "type": "uint256"
                }
              ],
              "internalType": "struct IZoo.Rarity",
              "name": "rarity",
              "type": "tuple"
            },
            {
              "internalType": "enum IZoo.Type",
              "name": "kind",
              "type": "uint8"
            },
            {
              "internalType": "string",
              "name": "name",
              "type": "string"
            },
            {
              "internalType": "uint256",
              "name": "id",
              "type": "uint256"
            },
            {
              "internalType": "uint256",
              "name": "timestamp",
              "type": "uint256"
            },
            {
              "internalType": "uint256",
              "name": "birthday",
              "type": "uint256"
            },
            {
              "internalType": "string",
              "name": "customName",
              "type": "string"
            },
            {
              "components": [
                {
                  "internalType": "string",
                  "name": "animalA",
                  "type": "string"
                },
                {
                  "internalType": "string",
                  "name": "animalB",
                  "type": "string"
                },
                {
                  "internalType": "uint256",
                  "name": "tokenA",
                  "type": "uint256"
                },
                {
                  "internalType": "uint256",
                  "name": "tokenB",
                  "type": "uint256"
                }
              ],
              "internalType": "struct IZoo.Parents",
              "name": "parents",
              "type": "tuple"
            },
            {
              "components": [
                {
                  "internalType": "uint256",
                  "name": "count",
                  "type": "uint256"
                },
                {
                  "internalType": "uint256",
                  "name": "timestamp",
                  "type": "uint256"
                }
              ],
              "internalType": "struct IZoo.Breed",
              "name": "breed",
              "type": "tuple"
            },
            {
              "components": [
                {
                  "internalType": "uint256",
                  "name": "eggID",
                  "type": "uint256"
                },
                {
                  "internalType": "uint256",
                  "name": "dropID",
                  "type": "uint256"
                },
                {
                  "internalType": "bool",
                  "name": "burned",
                  "type": "bool"
                },
                {
                  "internalType": "bool",
                  "name": "swapped",
                  "type": "bool"
                }
              ],
              "internalType": "struct IZoo.Meta",
              "name": "meta",
              "type": "tuple"
            },
            {
              "components": [
                {
                  "internalType": "string",
                  "name": "tokenURI",
                  "type": "string"
                },
                {
                  "internalType": "string",
                  "name": "metadataURI",
                  "type": "string"
                },
                {
                  "internalType": "bytes32",
                  "name": "contentHash",
                  "type": "bytes32"
                },
                {
                  "internalType": "bytes32",
                  "name": "metadataHash",
                  "type": "bytes32"
                }
              ],
              "internalType": "struct IMedia.MediaData",
              "name": "data",
              "type": "tuple"
            },
            {
              "components": [
                {
                  "components": [
                    {
                      "internalType": "uint256",
                      "name": "value",
                      "type": "uint256"
                    }
                  ],
                  "internalType": "struct Decimal.D256",
                  "name": "prevOwner",
                  "type": "tuple"
                },
                {
                  "components": [
                    {
                      "internalType": "uint256",
                      "name": "value",
                      "type": "uint256"
                    }
                  ],
                  "internalType": "struct Decimal.D256",
                  "name": "creator",
                  "type": "tuple"
                },
                {
                  "components": [
                    {
                      "internalType": "uint256",
                      "name": "value",
                      "type": "uint256"
                    }
                  ],
                  "internalType": "struct Decimal.D256",
                  "name": "owner",
                  "type": "tuple"
                }
              ],
              "internalType": "struct IMarket.BidShares",
              "name": "bidShares",
              "type": "tuple"
            }
          ],
          "internalType": "struct IZoo.Token",
          "name": "",
          "type": "tuple"
        }
      ],
      "stateMutability": "nonpayable",
      "type": "function"
    },
    {
      "inputs": [
        {
          "internalType": "uint256",
          "name": "tokenID",
          "type": "uint256"
        }
      ],
      "name": "breedNext",
      "outputs": [
        {
          "internalType": "uint256",
          "name": "",
          "type": "uint256"
        }
      ],
      "stateMutability": "view",
      "type": "function"
    },
    {
      "inputs": [
        {
          "internalType": "uint256",
          "name": "tokenID",
          "type": "uint256"
        }
      ],
      "name": "breedReady",
      "outputs": [
        {
          "internalType": "bool",
          "name": "",
          "type": "bool"
        }
      ],
      "stateMutability": "view",
      "type": "function"
    },
    {
      "inputs": [],
      "name": "bridge",
      "outputs": [
        {
          "internalType": "address",
          "name": "",
          "type": "address"
        }
      ],
      "stateMutability": "view",
      "type": "function"
    },
    {
      "inputs": [
        {
          "internalType": "uint256",
          "name": "dropID",
          "type": "uint256"
        }
      ],
      "name": "buyEgg",
      "outputs": [
        {
          "components": [
            {
              "components": [
                {
                  "internalType": "string",
                  "name": "name",
                  "type": "string"
                },
                {
                  "internalType": "uint256",
                  "name": "probability",
                  "type": "uint256"
                },
                {
                  "internalType": "uint256",
                  "name": "yield",
                  "type": "uint256"
                },
                {
                  "internalType": "uint256",
                  "name": "boost",
                  "type": "uint256"
                }
              ],
              "internalType": "struct IZoo.Rarity",
              "name": "rarity",
              "type": "tuple"
            },
            {
              "internalType": "enum IZoo.Type",
              "name": "kind",
              "type": "uint8"
            },
            {
              "internalType": "string",
              "name": "name",
              "type": "string"
            },
            {
              "internalType": "uint256",
              "name": "id",
              "type": "uint256"
            },
            {
              "internalType": "uint256",
              "name": "timestamp",
              "type": "uint256"
            },
            {
              "internalType": "uint256",
              "name": "birthday",
              "type": "uint256"
            },
            {
              "internalType": "string",
              "name": "customName",
              "type": "string"
            },
            {
              "components": [
                {
                  "internalType": "string",
                  "name": "animalA",
                  "type": "string"
                },
                {
                  "internalType": "string",
                  "name": "animalB",
                  "type": "string"
                },
                {
                  "internalType": "uint256",
                  "name": "tokenA",
                  "type": "uint256"
                },
                {
                  "internalType": "uint256",
                  "name": "tokenB",
                  "type": "uint256"
                }
              ],
              "internalType": "struct IZoo.Parents",
              "name": "parents",
              "type": "tuple"
            },
            {
              "components": [
                {
                  "internalType": "uint256",
                  "name": "count",
                  "type": "uint256"
                },
                {
                  "internalType": "uint256",
                  "name": "timestamp",
                  "type": "uint256"
                }
              ],
              "internalType": "struct IZoo.Breed",
              "name": "breed",
              "type": "tuple"
            },
            {
              "components": [
                {
                  "internalType": "uint256",
                  "name": "eggID",
                  "type": "uint256"
                },
                {
                  "internalType": "uint256",
                  "name": "dropID",
                  "type": "uint256"
                },
                {
                  "internalType": "bool",
                  "name": "burned",
                  "type": "bool"
                },
                {
                  "internalType": "bool",
                  "name": "swapped",
                  "type": "bool"
                }
              ],
              "internalType": "struct IZoo.Meta",
              "name": "meta",
              "type": "tuple"
            },
            {
              "components": [
                {
                  "internalType": "string",
                  "name": "tokenURI",
                  "type": "string"
                },
                {
                  "internalType": "string",
                  "name": "metadataURI",
                  "type": "string"
                },
                {
                  "internalType": "bytes32",
                  "name": "contentHash",
                  "type": "bytes32"
                },
                {
                  "internalType": "bytes32",
                  "name": "metadataHash",
                  "type": "bytes32"
                }
              ],
              "internalType": "struct IMedia.MediaData",
              "name": "data",
              "type": "tuple"
            },
            {
              "components": [
                {
                  "components": [
                    {
                      "internalType": "uint256",
                      "name": "value",
                      "type": "uint256"
                    }
                  ],
                  "internalType": "struct Decimal.D256",
                  "name": "prevOwner",
                  "type": "tuple"
                },
                {
                  "components": [
                    {
                      "internalType": "uint256",
                      "name": "value",
                      "type": "uint256"
                    }
                  ],
                  "internalType": "struct Decimal.D256",
                  "name": "creator",
                  "type": "tuple"
                },
                {
                  "components": [
                    {
                      "internalType": "uint256",
                      "name": "value",
                      "type": "uint256"
                    }
                  ],
                  "internalType": "struct Decimal.D256",
                  "name": "owner",
                  "type": "tuple"
                }
              ],
              "internalType": "struct IMarket.BidShares",
              "name": "bidShares",
              "type": "tuple"
            }
          ],
          "internalType": "struct IZoo.Token",
          "name": "",
          "type": "tuple"
        }
      ],
      "stateMutability": "nonpayable",
      "type": "function"
    },
    {
      "inputs": [
        {
          "internalType": "uint256",
          "name": "dropID",
          "type": "uint256"
        },
        {
          "internalType": "uint256",
          "name": "quantity",
          "type": "uint256"
        }
      ],
      "name": "buyEggs",
      "outputs": [],
      "stateMutability": "nonpayable",
      "type": "function"
    },
    {
      "inputs": [
        {
          "internalType": "uint256",
          "name": "tokenID",
          "type": "uint256"
        },
        {
          "internalType": "string",
          "name": "customName",
          "type": "string"
        }
      ],
      "name": "buyName",
      "outputs": [],
      "stateMutability": "nonpayable",
      "type": "function"
    },
    {
      "inputs": [
        {
          "internalType": "address",
          "name": "_market",
          "type": "address"
        },
        {
          "internalType": "address",
          "name": "_media",
          "type": "address"
        },
        {
          "internalType": "address",
          "name": "_zoo",
          "type": "address"
        },
        {
          "internalType": "address",
          "name": "_bridge",
          "type": "address"
        }
      ],
      "name": "configure",
      "outputs": [],
      "stateMutability": "nonpayable",
      "type": "function"
    },
    {
      "inputs": [
        {
          "internalType": "address",
          "name": "",
          "type": "address"
        }
      ],
      "name": "dropAddresses",
      "outputs": [
        {
          "internalType": "uint256",
          "name": "",
          "type": "uint256"
        }
      ],
      "stateMutability": "view",
      "type": "function"
    },
    {
      "inputs": [
        {
          "internalType": "uint256",
          "name": "",
          "type": "uint256"
        }
      ],
      "name": "drops",
      "outputs": [
        {
          "internalType": "address",
          "name": "",
          "type": "address"
        }
      ],
      "stateMutability": "view",
      "type": "function"
    },
    {
      "inputs": [
        {
          "internalType": "uint256",
          "name": "tokenID",
          "type": "uint256"
        }
      ],
      "name": "freeAnimal",
      "outputs": [
        {
          "internalType": "uint256",
          "name": "yield",
          "type": "uint256"
        }
      ],
      "stateMutability": "nonpayable",
      "type": "function"
    },
    {
      "inputs": [
        {
          "internalType": "uint256",
          "name": "dropID",
          "type": "uint256"
        },
        {
          "internalType": "uint256",
          "name": "eggID",
          "type": "uint256"
        }
      ],
      "name": "hatchEgg",
      "outputs": [
        {
          "components": [
            {
              "components": [
                {
                  "internalType": "string",
                  "name": "name",
                  "type": "string"
                },
                {
                  "internalType": "uint256",
                  "name": "probability",
                  "type": "uint256"
                },
                {
                  "internalType": "uint256",
                  "name": "yield",
                  "type": "uint256"
                },
                {
                  "internalType": "uint256",
                  "name": "boost",
                  "type": "uint256"
                }
              ],
              "internalType": "struct IZoo.Rarity",
              "name": "rarity",
              "type": "tuple"
            },
            {
              "internalType": "enum IZoo.Type",
              "name": "kind",
              "type": "uint8"
            },
            {
              "internalType": "string",
              "name": "name",
              "type": "string"
            },
            {
              "internalType": "uint256",
              "name": "id",
              "type": "uint256"
            },
            {
              "internalType": "uint256",
              "name": "timestamp",
              "type": "uint256"
            },
            {
              "internalType": "uint256",
              "name": "birthday",
              "type": "uint256"
            },
            {
              "internalType": "string",
              "name": "customName",
              "type": "string"
            },
            {
              "components": [
                {
                  "internalType": "string",
                  "name": "animalA",
                  "type": "string"
                },
                {
                  "internalType": "string",
                  "name": "animalB",
                  "type": "string"
                },
                {
                  "internalType": "uint256",
                  "name": "tokenA",
                  "type": "uint256"
                },
                {
                  "internalType": "uint256",
                  "name": "tokenB",
                  "type": "uint256"
                }
              ],
              "internalType": "struct IZoo.Parents",
              "name": "parents",
              "type": "tuple"
            },
            {
              "components": [
                {
                  "internalType": "uint256",
                  "name": "count",
                  "type": "uint256"
                },
                {
                  "internalType": "uint256",
                  "name": "timestamp",
                  "type": "uint256"
                }
              ],
              "internalType": "struct IZoo.Breed",
              "name": "breed",
              "type": "tuple"
            },
            {
              "components": [
                {
                  "internalType": "uint256",
                  "name": "eggID",
                  "type": "uint256"
                },
                {
                  "internalType": "uint256",
                  "name": "dropID",
                  "type": "uint256"
                },
                {
                  "internalType": "bool",
                  "name": "burned",
                  "type": "bool"
                },
                {
                  "internalType": "bool",
                  "name": "swapped",
                  "type": "bool"
                }
              ],
              "internalType": "struct IZoo.Meta",
              "name": "meta",
              "type": "tuple"
            },
            {
              "components": [
                {
                  "internalType": "string",
                  "name": "tokenURI",
                  "type": "string"
                },
                {
                  "internalType": "string",
                  "name": "metadataURI",
                  "type": "string"
                },
                {
                  "internalType": "bytes32",
                  "name": "contentHash",
                  "type": "bytes32"
                },
                {
                  "internalType": "bytes32",
                  "name": "metadataHash",
                  "type": "bytes32"
                }
              ],
              "internalType": "struct IMedia.MediaData",
              "name": "data",
              "type": "tuple"
            },
            {
              "components": [
                {
                  "components": [
                    {
                      "internalType": "uint256",
                      "name": "value",
                      "type": "uint256"
                    }
                  ],
                  "internalType": "struct Decimal.D256",
                  "name": "prevOwner",
                  "type": "tuple"
                },
                {
                  "components": [
                    {
                      "internalType": "uint256",
                      "name": "value",
                      "type": "uint256"
                    }
                  ],
                  "internalType": "struct Decimal.D256",
                  "name": "creator",
                  "type": "tuple"
                },
                {
                  "components": [
                    {
                      "internalType": "uint256",
                      "name": "value",
                      "type": "uint256"
                    }
                  ],
                  "internalType": "struct Decimal.D256",
                  "name": "owner",
                  "type": "tuple"
                }
              ],
              "internalType": "struct IMarket.BidShares",
              "name": "bidShares",
              "type": "tuple"
            }
          ],
          "internalType": "struct IZoo.Token",
          "name": "",
          "type": "tuple"
        }
      ],
      "stateMutability": "nonpayable",
      "type": "function"
    },
    {
      "inputs": [],
      "name": "market",
      "outputs": [
        {
          "internalType": "contract IMarket",
          "name": "",
          "type": "address"
        }
      ],
      "stateMutability": "view",
      "type": "function"
    },
    {
      "inputs": [],
      "name": "media",
      "outputs": [
        {
          "internalType": "contract IMedia",
          "name": "",
          "type": "address"
        }
      ],
      "stateMutability": "view",
      "type": "function"
    },
    {
      "inputs": [],
      "name": "namePrice",
      "outputs": [
        {
          "internalType": "uint256",
          "name": "",
          "type": "uint256"
        }
      ],
      "stateMutability": "view",
      "type": "function"
    },
    {
      "inputs": [],
      "name": "owner",
      "outputs": [
        {
          "internalType": "address",
          "name": "",
          "type": "address"
        }
      ],
      "stateMutability": "view",
      "type": "function"
    },
    {
      "inputs": [
        {
          "internalType": "address",
          "name": "owner",
          "type": "address"
        },
        {
          "components": [
            {
              "components": [
                {
                  "internalType": "string",
                  "name": "name",
                  "type": "string"
                },
                {
                  "internalType": "uint256",
                  "name": "probability",
                  "type": "uint256"
                },
                {
                  "internalType": "uint256",
                  "name": "yield",
                  "type": "uint256"
                },
                {
                  "internalType": "uint256",
                  "name": "boost",
                  "type": "uint256"
                }
              ],
              "internalType": "struct IZoo.Rarity",
              "name": "rarity",
              "type": "tuple"
            },
            {
              "internalType": "enum IZoo.Type",
              "name": "kind",
              "type": "uint8"
            },
            {
              "internalType": "string",
              "name": "name",
              "type": "string"
            },
            {
              "internalType": "uint256",
              "name": "id",
              "type": "uint256"
            },
            {
              "internalType": "uint256",
              "name": "timestamp",
              "type": "uint256"
            },
            {
              "internalType": "uint256",
              "name": "birthday",
              "type": "uint256"
            },
            {
              "internalType": "string",
              "name": "customName",
              "type": "string"
            },
            {
              "components": [
                {
                  "internalType": "string",
                  "name": "animalA",
                  "type": "string"
                },
                {
                  "internalType": "string",
                  "name": "animalB",
                  "type": "string"
                },
                {
                  "internalType": "uint256",
                  "name": "tokenA",
                  "type": "uint256"
                },
                {
                  "internalType": "uint256",
                  "name": "tokenB",
                  "type": "uint256"
                }
              ],
              "internalType": "struct IZoo.Parents",
              "name": "parents",
              "type": "tuple"
            },
            {
              "components": [
                {
                  "internalType": "uint256",
                  "name": "count",
                  "type": "uint256"
                },
                {
                  "internalType": "uint256",
                  "name": "timestamp",
                  "type": "uint256"
                }
              ],
              "internalType": "struct IZoo.Breed",
              "name": "breed",
              "type": "tuple"
            },
            {
              "components": [
                {
                  "internalType": "uint256",
                  "name": "eggID",
                  "type": "uint256"
                },
                {
                  "internalType": "uint256",
                  "name": "dropID",
                  "type": "uint256"
                },
                {
                  "internalType": "bool",
                  "name": "burned",
                  "type": "bool"
                },
                {
                  "internalType": "bool",
                  "name": "swapped",
                  "type": "bool"
                }
              ],
              "internalType": "struct IZoo.Meta",
              "name": "meta",
              "type": "tuple"
            },
            {
              "components": [
                {
                  "internalType": "string",
                  "name": "tokenURI",
                  "type": "string"
                },
                {
                  "internalType": "string",
                  "name": "metadataURI",
                  "type": "string"
                },
                {
                  "internalType": "bytes32",
                  "name": "contentHash",
                  "type": "bytes32"
                },
                {
                  "internalType": "bytes32",
                  "name": "metadataHash",
                  "type": "bytes32"
                }
              ],
              "internalType": "struct IMedia.MediaData",
              "name": "data",
              "type": "tuple"
            },
            {
              "components": [
                {
                  "components": [
                    {
                      "internalType": "uint256",
                      "name": "value",
                      "type": "uint256"
                    }
                  ],
                  "internalType": "struct Decimal.D256",
                  "name": "prevOwner",
                  "type": "tuple"
                },
                {
                  "components": [
                    {
                      "internalType": "uint256",
                      "name": "value",
                      "type": "uint256"
                    }
                  ],
                  "internalType": "struct Decimal.D256",
                  "name": "creator",
                  "type": "tuple"
                },
                {
                  "components": [
                    {
                      "internalType": "uint256",
                      "name": "value",
                      "type": "uint256"
                    }
                  ],
                  "internalType": "struct Decimal.D256",
                  "name": "owner",
                  "type": "tuple"
                }
              ],
              "internalType": "struct IMarket.BidShares",
              "name": "bidShares",
              "type": "tuple"
            }
          ],
          "internalType": "struct IZoo.Token",
          "name": "token",
          "type": "tuple"
        },
        {
          "internalType": "uint256",
          "name": "chainID",
          "type": "uint256"
        }
      ],
      "name": "remint",
      "outputs": [],
      "stateMutability": "nonpayable",
      "type": "function"
    },
    {
      "inputs": [],
      "name": "renounceOwnership",
      "outputs": [],
      "stateMutability": "nonpayable",
      "type": "function"
    },
    {
      "inputs": [
        {
          "internalType": "address",
          "name": "dropAddress",
          "type": "address"
        }
      ],
      "name": "setDrop",
      "outputs": [
        {
          "internalType": "uint256",
          "name": "",
          "type": "uint256"
        }
      ],
      "stateMutability": "nonpayable",
      "type": "function"
    },
    {
      "inputs": [
        {
          "internalType": "uint256",
          "name": "price",
          "type": "uint256"
        }
      ],
      "name": "setNamePrice",
      "outputs": [],
      "stateMutability": "nonpayable",
      "type": "function"
    },
    {
      "inputs": [
        {
          "internalType": "address",
          "name": "owner",
          "type": "address"
        },
        {
          "internalType": "uint256",
          "name": "tokenID",
          "type": "uint256"
        },
        {
          "internalType": "uint256",
          "name": "chainID",
          "type": "uint256"
        }
      ],
      "name": "swap",
      "outputs": [],
      "stateMutability": "nonpayable",
      "type": "function"
    },
    {
      "inputs": [
        {
          "internalType": "uint256",
          "name": "",
          "type": "uint256"
        }
      ],
      "name": "tokens",
      "outputs": [
        {
          "components": [
            {
              "internalType": "string",
              "name": "name",
              "type": "string"
            },
            {
              "internalType": "uint256",
              "name": "probability",
              "type": "uint256"
            },
            {
              "internalType": "uint256",
              "name": "yield",
              "type": "uint256"
            },
            {
              "internalType": "uint256",
              "name": "boost",
              "type": "uint256"
            }
          ],
          "internalType": "struct IZoo.Rarity",
          "name": "rarity",
          "type": "tuple"
        },
        {
          "internalType": "enum IZoo.Type",
          "name": "kind",
          "type": "uint8"
        },
        {
          "internalType": "string",
          "name": "name",
          "type": "string"
        },
        {
          "internalType": "uint256",
          "name": "id",
          "type": "uint256"
        },
        {
          "internalType": "uint256",
          "name": "timestamp",
          "type": "uint256"
        },
        {
          "internalType": "uint256",
          "name": "birthday",
          "type": "uint256"
        },
        {
          "internalType": "string",
          "name": "customName",
          "type": "string"
        },
        {
          "components": [
            {
              "internalType": "string",
              "name": "animalA",
              "type": "string"
            },
            {
              "internalType": "string",
              "name": "animalB",
              "type": "string"
            },
            {
              "internalType": "uint256",
              "name": "tokenA",
              "type": "uint256"
            },
            {
              "internalType": "uint256",
              "name": "tokenB",
              "type": "uint256"
            }
          ],
          "internalType": "struct IZoo.Parents",
          "name": "parents",
          "type": "tuple"
        },
        {
          "components": [
            {
              "internalType": "uint256",
              "name": "count",
              "type": "uint256"
            },
            {
              "internalType": "uint256",
              "name": "timestamp",
              "type": "uint256"
            }
          ],
          "internalType": "struct IZoo.Breed",
          "name": "breed",
          "type": "tuple"
        },
        {
          "components": [
            {
              "internalType": "uint256",
              "name": "eggID",
              "type": "uint256"
            },
            {
              "internalType": "uint256",
              "name": "dropID",
              "type": "uint256"
            },
            {
              "internalType": "bool",
              "name": "burned",
              "type": "bool"
            },
            {
              "internalType": "bool",
              "name": "swapped",
              "type": "bool"
            }
          ],
          "internalType": "struct IZoo.Meta",
          "name": "meta",
          "type": "tuple"
        },
        {
          "components": [
            {
              "internalType": "string",
              "name": "tokenURI",
              "type": "string"
            },
            {
              "internalType": "string",
              "name": "metadataURI",
              "type": "string"
            },
            {
              "internalType": "bytes32",
              "name": "contentHash",
              "type": "bytes32"
            },
            {
              "internalType": "bytes32",
              "name": "metadataHash",
              "type": "bytes32"
            }
          ],
          "internalType": "struct IMedia.MediaData",
          "name": "data",
          "type": "tuple"
        },
        {
          "components": [
            {
              "components": [
                {
                  "internalType": "uint256",
                  "name": "value",
                  "type": "uint256"
                }
              ],
              "internalType": "struct Decimal.D256",
              "name": "prevOwner",
              "type": "tuple"
            },
            {
              "components": [
                {
                  "internalType": "uint256",
                  "name": "value",
                  "type": "uint256"
                }
              ],
              "internalType": "struct Decimal.D256",
              "name": "creator",
              "type": "tuple"
            },
            {
              "components": [
                {
                  "internalType": "uint256",
                  "name": "value",
                  "type": "uint256"
                }
              ],
              "internalType": "struct Decimal.D256",
              "name": "owner",
              "type": "tuple"
            }
          ],
          "internalType": "struct IMarket.BidShares",
          "name": "bidShares",
          "type": "tuple"
        }
      ],
      "stateMutability": "view",
      "type": "function"
    },
    {
      "inputs": [
        {
          "internalType": "address",
          "name": "newOwner",
          "type": "address"
        }
      ],
      "name": "transferOwnership",
      "outputs": [],
      "stateMutability": "nonpayable",
      "type": "function"
    },
    {
      "inputs": [],
      "name": "zoo",
      "outputs": [
        {
          "internalType": "contract IERC20",
          "name": "",
          "type": "address"
        }
      ],
      "stateMutability": "view",
      "type": "function"
    },
    {
      "inputs": [],
      "name": "zooSupply",
      "outputs": [
        {
          "internalType": "uint256",
          "name": "",
          "type": "uint256"
        }
      ],
      "stateMutability": "view",
      "type": "function"
    },
    {
      "inputs": [
        {
          "internalType": "address",
          "name": "receiver",
          "type": "address"
        },
        {
          "internalType": "uint256",
          "name": "amount",
          "type": "uint256"
        }
      ],
      "name": "zooWithdraw",
      "outputs": [
        {
          "internalType": "bool",
          "name": "",
          "type": "bool"
        }
      ],
      "stateMutability": "nonpayable",
      "type": "function"
    }
  ],
  "transactionHash": "0xfe9247664bd5077315457b1407b74900f5a085fefa617b41d8aa94cd4462c81f",
  "args": [],
  "solcInputHash": "d93e12f3b1c9e7e3cd022a9f9b0bd116",
  "bytecode": "0x60806040523480156200001157600080fd5b506200001d3362000023565b62000073565b600080546001600160a01b038381166001600160a01b0319831681178455604051919092169283917f8be0079c531659141344cd1fd0a4f28419497f9722a3daafe3b4186f6b6457e09190a35050565b6153ff80620000836000396000f3fe608060405234801561001057600080fd5b506004361061013e5760003560e01c80630dae4d441461014357806310e0af64146101585780632626f4e01461018057806349077a4f146101935780634c33efa7146101b35780634f2cabdf146101d35780634f64b2be1461020157806354d7dc931461022c5780635acb50821461023f5780635eb3996814610252578063685bf0cd1461027b5780636fc2790e1461028e578063715018a6146102a15780637b6a8777146102a957806380f55605146102bc5780638da5cb5b146102cf5780639c275d11146102d75780639f1d0f59146102ea578063b22073b6146102fd578063c87b2cba14610306578063d4eddf7e14610319578063de611f5514610321578063e78cea9214610334578063f2fde38b14610347578063f62417271461035a578063f8b246261461036d575b600080fd5b6101566101513660046147a0565b610380565b005b61016b610166366004614b26565b610412565b60405190151581526020015b60405180910390f35b61015661018e366004614b26565b610450565b6007546101a6906001600160a01b031681565b6040516101779190614e0b565b6101c66101c1366004614b26565b6104a0565b604051610177919061510c565b6101f36101e1366004614733565b60036020526000908152604090205481565b604051908152602001610177565b61021461020f366004614b26565b6108ca565b6040516101779c9b9a99989796959493929190615046565b6101c661023a366004614bbb565b610e04565b61015661024d36600461474d565b61134f565b6101a6610260366004614b26565b6002602052600090815260409020546001600160a01b031681565b610156610289366004614b9a565b6113ce565b6101c661029c366004614b9a565b611427565b610156611623565b6008546101a6906001600160a01b031681565b6006546101a6906001600160a01b031681565b6101a661165e565b6101f36102e5366004614b26565b61166d565b6101566102f8366004614945565b611c53565b6101f360055481565b6101f3610314366004614b26565b611cf2565b6101f3612414565b61015661032f366004614b56565b6124ca565b6009546101a6906001600160a01b031681565b610156610355366004614733565b612def565b61016b61036836600461491c565b612e8f565b6101f361037b366004614733565b612f55565b6009546001600160a01b0316331461039757600080fd5b6103c5604051806040016040528060068152602001651c995b5a5b9d60d21b8152508484606001518461312a565b6103cf8383613179565b9150808260600151846001600160a01b03167f9334e83d2495be85868d3a9192f0c36a49a1b869b4d6465ff7340c2cbcacfcdc60405160405180910390a4505050565b6000818152600460205260408120600e015461043057506001919050565b6104398261166d565b42111561044857506001919050565b506000919050565b3361045961165e565b6001600160a01b0316146104885760405162461bcd60e51b815260040161047f90614ffe565b60405180910390fd5b61049a81670de0b6b3a76400006134e9565b60055550565b6104a86140cd565b6104d06040518060400160405280600681526020016562757945676760d01b815250836134f5565b60008281526002602090815260409182902054825163182f1aa960e11b815292516001600160a01b0390911692839263305e355292600480840193829003018186803b15801561051f57600080fd5b505afa158015610533573d6000803e3d6000fd5b505050506040513d601f19601f820116820180604052508101906105579190614b3e565b6008546040516370a0823160e01b81526001600160a01b03909116906370a0823190610587903390600401614e0b565b60206040518083038186803b15801561059f57600080fd5b505afa1580156105b3573d6000803e3d6000fd5b505050506040513d601f19601f820116820180604052508101906105d79190614b3e565b10156106305760405162461bcd60e51b815260206004820152602260248201527f5a4b3a204e6f7420456e6f756768205a4f4f20746f2070757263686173652045604482015261676760f01b606482015260840161047f565b6106d46040518060400160405280601081526020016f7a6f6f2e7472616e7366657246726f6d60801b8152503330846001600160a01b031663305e35526040518163ffffffff1660e01b815260040160206040518083038186803b15801561069757600080fd5b505afa1580156106ab573d6000803e3d6000fd5b505050506040513d601f19601f820116820180604052508101906106cf9190614b3e565b61353e565b600860009054906101000a90046001600160a01b03166001600160a01b03166323b872dd3330846001600160a01b031663305e35526040518163ffffffff1660e01b815260040160206040518083038186803b15801561073357600080fd5b505afa158015610747573d6000803e3d6000fd5b505050506040513d601f19601f8201168201806040525081019061076b9190614b3e565b6040518463ffffffff1660e01b815260040161078993929190614e1f565b602060405180830381600087803b1580156107a357600080fd5b505af11580156107b7573d6000803e3d6000fd5b505050506040513d601f19601f820116820180604052508101906107db9190614977565b506000816001600160a01b0316630489a8f66040518163ffffffff1660e01b8152600401600060405180830381600087803b15801561081957600080fd5b505af115801561082d573d6000803e3d6000fd5b505050506040513d6000823e601f3d908101601f1916820160405261085591908101906149c5565b90506108613382613179565b90506108936040518060400160405280600a8152602001696d696e7465642065676760b01b81525082606001516134f5565b606081015160405133907fb6fcdc0b9a5291c95b93142b5e81d61a0b01a26b043be034e6daaa1219e7ebc190600090a39392505050565b6004602052806000526040600020600091509050806000016040518060800160405290816000820180546108fd906152e2565b80601f0160208091040260200160405190810160405280929190818152602001828054610929906152e2565b80156109765780601f1061094b57610100808354040283529160200191610976565b820191906000526020600020905b81548152906001019060200180831161095957829003601f168201915b505050918352505060018201546020820152600282015460408201526003909101546060909101526004820154600583018054929360ff909216926109ba906152e2565b80601f01602080910402602001604051908101604052809291908181526020018280546109e6906152e2565b8015610a335780601f10610a0857610100808354040283529160200191610a33565b820191906000526020600020905b815481529060010190602001808311610a1657829003601f168201915b505050505090806006015490806007015490806008015490806009018054610a5a906152e2565b80601f0160208091040260200160405190810160405280929190818152602001828054610a86906152e2565b8015610ad35780601f10610aa857610100808354040283529160200191610ad3565b820191906000526020600020905b815481529060010190602001808311610ab657829003601f168201915b50505050509080600a01604051806080016040529081600082018054610af8906152e2565b80601f0160208091040260200160405190810160405280929190818152602001828054610b24906152e2565b8015610b715780601f10610b4657610100808354040283529160200191610b71565b820191906000526020600020905b815481529060010190602001808311610b5457829003601f168201915b50505050508152602001600182018054610b8a906152e2565b80601f0160208091040260200160405190810160405280929190818152602001828054610bb6906152e2565b8015610c035780601f10610bd857610100808354040283529160200191610c03565b820191906000526020600020905b815481529060010190602001808311610be657829003601f168201915b5050509183525050600282015460208083019190915260039092015460409182015280518082018252600e8501548152600f8501548184015281516080808201845260108701548252601187015494820194909452601286015460ff80821615158386015261010090910416151560608201528251938401909252601385018054949591949293919282908290610c99906152e2565b80601f0160208091040260200160405190810160405280929190818152602001828054610cc5906152e2565b8015610d125780601f10610ce757610100808354040283529160200191610d12565b820191906000526020600020905b815481529060010190602001808311610cf557829003601f168201915b50505050508152602001600182018054610d2b906152e2565b80601f0160208091040260200160405190810160405280929190818152602001828054610d57906152e2565b8015610da45780601f10610d7957610100808354040283529160200191610da4565b820191906000526020600020905b815481529060010190602001808311610d8757829003601f168201915b5050509183525050600282015460208083019190915260039092015460409182015280516080810182526017850154606082019081528152815180840183526018860154815281840152815192830182526019909401548252830152908c565b610e0c6140cd565b8282610e396040518060400160405280600881526020016718d85b909c99595960c21b8152508383613587565b60075460405162491fcf60e11b8152600481018490526001600160a01b039091169062923f9e90602401602060405180830381600087803b158015610e7d57600080fd5b505af1158015610e91573d6000803e3d6000fd5b505050506040513d601f19601f82011682018060405250810190610eb59190614977565b8015610f38575060075460405162491fcf60e11b8152600481018390526001600160a01b039091169062923f9e90602401602060405180830381600087803b158015610f0057600080fd5b505af1158015610f14573d6000803e3d6000fd5b505050506040513d601f19601f82011682018060405250810190610f389190614977565b610f795760405162461bcd60e51b81526020600482015260126024820152712737b716b2bc34b9ba32b73a103a37b5b2b760711b604482015260640161047f565b60408051602081018390520160408051601f19818403018152828252805160209182012090830185905291016040516020818303038152906040528051906020012014156110075760405162461bcd60e51b815260206004820152601b60248201527a2737ba1030b13632903a3790313932b2b2103bb4ba341039b2b63360291b604482015260640161047f565b61101082610412565b8015611020575061102081610412565b61106b5760405162461bcd60e51b815260206004820152601c60248201527b2bb0b4ba103337b91031b7b7b63237bbb7103a37903334b734b9b41760211b604482015260640161047f565b611074826135ce565b80156110845750611084816135ce565b6110ce5760405162461bcd60e51b815260206004820152601b60248201527a27b7363c902120a9a2afa0a724a6a0a61031b0b710313932b2b21760291b604482015260640161047f565b6110fe6040518060400160405280600c81526020016b6272656564416e696d616c7360a01b81525087878761360c565b6000868152600260209081526040808320548151608081018352898552600490935290832060050180546001600160a01b039092169263e82baf309290918291611147906152e2565b80601f0160208091040260200160405190810160405280929190818152602001828054611173906152e2565b80156111c05780601f10611195576101008083540402835291602001916111c0565b820191906000526020600020905b8154815290600101906020018083116111a357829003601f168201915b50505050508152602001600460008a815260200190815260200160002060050180546111eb906152e2565b80601f0160208091040260200160405190810160405280929190818152602001828054611217906152e2565b80156112645780601f1061123957610100808354040283529160200191611264565b820191906000526020600020905b81548152906001019060200180831161124757829003601f168201915b50505050508152602001898152602001888152506040518263ffffffff1660e01b81526004016112949190615033565b600060405180830381600087803b1580156112ae57600080fd5b505af11580156112c2573d6000803e3d6000fd5b505050506040513d6000823e601f3d908101601f191682016040526112ea91908101906149c5565b90506112f68686613655565b6113003382613179565b60608101516040805189815260208101899052929350909133917fddf1e8fec06a50aa72b8a39a06787808c53eca73b2bd1cc995681cf7b8014650910160405180910390a39695505050505050565b3361135861165e565b6001600160a01b03161461137e5760405162461bcd60e51b815260040161047f90614ffe565b600680546001600160a01b039586166001600160a01b0319918216179091556007805494861694821694909417909355600880549285169284169290921790915560098054919093169116179055565b6113f8604051806040016040528060078152602001666275794567677360c81b8152508383613587565b60005b818160ff1610156114225761140f836104a0565b508061141a81615338565b9150506113fb565b505050565b61142f6140cd565b61145a60405180604001604052806008815260200167686174636845676760c01b8152508484613587565b60075460405162491fcf60e11b8152600481018490526001600160a01b039091169062923f9e90602401602060405180830381600087803b15801561149e57600080fd5b505af11580156114b2573d6000803e3d6000fd5b505050506040513d601f19601f820116820180604052508101906114d69190614977565b6115225760405162461bcd60e51b815260206004820152601f60248201527f456767206973206275726e6564206f7220646f6573206e6f7420657869737400604482015260640161047f565b600061152e84846136f0565b610120810180518590525160209081018690526040805180820182526006815265185b9a5b585b60d21b9281019290925282015191925061156e91613e4c565b6115783382613179565b90506115ae6040518060400160405280600d81526020016c1b5a5b9d195908185b9a5b585b609a1b815250826060015185613587565b6115b83384613e91565b6115e060405180604001604052806006815260200165189d5c9b995960d21b815250846134f5565b606081015160405184815233907fb38ba9b1c21d14e92c6b24ace95218359ca7727f16a3e622617817dd9f38305c9060200160405180910390a390505b92915050565b3361162c61165e565b6001600160a01b0316146116525760405162461bcd60e51b815260040161047f90614ffe565b61165c6000613f6e565b565b6000546001600160a01b031690565b6000818152600460205260408082208151610200810190925280548392919082906101808201908390829082906116a3906152e2565b80601f01602080910402602001604051908101604052809291908181526020018280546116cf906152e2565b801561171c5780601f106116f15761010080835404028352916020019161171c565b820191906000526020600020905b8154815290600101906020018083116116ff57829003601f168201915b50505050508152602001600182015481526020016002820154815260200160038201548152505081526020016004820160009054906101000a900460ff16600381111561177957634e487b7160e01b600052602160045260246000fd5b600381111561179857634e487b7160e01b600052602160045260246000fd5b81526020016005820180546117ac906152e2565b80601f01602080910402602001604051908101604052809291908181526020018280546117d8906152e2565b80156118255780601f106117fa57610100808354040283529160200191611825565b820191906000526020600020905b81548152906001019060200180831161180857829003601f168201915b5050505050815260200160068201548152602001600782015481526020016008820154815260200160098201805461185c906152e2565b80601f0160208091040260200160405190810160405280929190818152602001828054611888906152e2565b80156118d55780601f106118aa576101008083540402835291602001916118d5565b820191906000526020600020905b8154815290600101906020018083116118b857829003601f168201915b50505050508152602001600a82016040518060800160405290816000820180546118fe906152e2565b80601f016020809104026020016040519081016040528092919081815260200182805461192a906152e2565b80156119775780601f1061194c57610100808354040283529160200191611977565b820191906000526020600020905b81548152906001019060200180831161195a57829003601f168201915b50505050508152602001600182018054611990906152e2565b80601f01602080910402602001604051908101604052809291908181526020018280546119bc906152e2565b8015611a095780601f106119de57610100808354040283529160200191611a09565b820191906000526020600020905b8154815290600101906020018083116119ec57829003601f168201915b5050509183525050600282015460208083019190915260039092015460409182015291835281518083018352600e8501548152600f850154818301528382015281516080808201845260108601548252601186015492820192909252601285015460ff8082161515838601526101009091041615156060808301919091528484019190915282519182019092526013840180549290930192909182908290611ab0906152e2565b80601f0160208091040260200160405190810160405280929190818152602001828054611adc906152e2565b8015611b295780601f10611afe57610100808354040283529160200191611b29565b820191906000526020600020905b815481529060010190602001808311611b0c57829003601f168201915b50505050508152602001600182018054611b42906152e2565b80601f0160208091040260200160405190810160405280929190818152602001828054611b6e906152e2565b8015611bbb5780601f10611b9057610100808354040283529160200191611bbb565b820191906000526020600020905b815481529060010190602001808311611b9e57829003601f168201915b50505091835250506002820154602080830191909152600390920154604091820152918352815160808101835260178501546060820190815281528251808301845260188601548152818301528251808301845260199095015485529182019390935291015261010081015151909150611c389062015180615280565b81610100015160200151611c4c9190615254565b9392505050565b6009546001600160a01b03163314611c6a57600080fd5b611c91604051806040016040528060048152602001630737761760e41b8152508484613fbe565b611c9b8383613e91565b600082815260046020526040808220601201805461ff00191661010017905551829184916001600160a01b038716917f77f92a1b6a1a11de8ca49515ad4c1fad45632dd3442167d74b90b304a3c7a75891a4505050565b6000611d206040518060400160405280600a815260200169199c9959505b9a5b585b60b21b815250836134f5565b6000828152600460205260408082208151610200810190925280548290610180820190839082908290611d52906152e2565b80601f0160208091040260200160405190810160405280929190818152602001828054611d7e906152e2565b8015611dcb5780601f10611da057610100808354040283529160200191611dcb565b820191906000526020600020905b815481529060010190602001808311611dae57829003601f168201915b50505050508152602001600182015481526020016002820154815260200160038201548152505081526020016004820160009054906101000a900460ff166003811115611e2857634e487b7160e01b600052602160045260246000fd5b6003811115611e4757634e487b7160e01b600052602160045260246000fd5b8152602001600582018054611e5b906152e2565b80601f0160208091040260200160405190810160405280929190818152602001828054611e87906152e2565b8015611ed45780601f10611ea957610100808354040283529160200191611ed4565b820191906000526020600020905b815481529060010190602001808311611eb757829003601f168201915b50505050508152602001600682015481526020016007820154815260200160088201548152602001600982018054611f0b906152e2565b80601f0160208091040260200160405190810160405280929190818152602001828054611f37906152e2565b8015611f845780601f10611f5957610100808354040283529160200191611f84565b820191906000526020600020905b815481529060010190602001808311611f6757829003601f168201915b50505050508152602001600a8201604051806080016040529081600082018054611fad906152e2565b80601f0160208091040260200160405190810160405280929190818152602001828054611fd9906152e2565b80156120265780601f10611ffb57610100808354040283529160200191612026565b820191906000526020600020905b81548152906001019060200180831161200957829003601f168201915b5050505050815260200160018201805461203f906152e2565b80601f016020809104026020016040519081016040528092919081815260200182805461206b906152e2565b80156120b85780601f1061208d576101008083540402835291602001916120b8565b820191906000526020600020905b81548152906001019060200180831161209b57829003601f168201915b5050509183525050600282015460208083019190915260039092015460409182015291835281518083018352600e8501548152600f850154818301528382015281516080808201845260108601548252601186015492820192909252601285015460ff808216151583860152610100909104161515606080830191909152848401919091528251918201909252601384018054929093019290918290829061215f906152e2565b80601f016020809104026020016040519081016040528092919081815260200182805461218b906152e2565b80156121d85780601f106121ad576101008083540402835291602001916121d8565b820191906000526020600020905b8154815290600101906020018083116121bb57829003601f168201915b505050505081526020016001820180546121f1906152e2565b80601f016020809104026020016040519081016040528092919081815260200182805461221d906152e2565b801561226a5780601f1061223f5761010080835404028352916020019161226a565b820191906000526020600020905b81548152906001019060200180831161224d57829003601f168201915b50505091835250506002820154602080830191909152600390920154604091820152918352815160808101835260178501546060820190815281528251808301845260188601548152818301528251808301845260199095015485529182019390935291015290506122dc3384613e91565b60008160a00151436122ee919061529f565b905060006122fe82617080614005565b8351604001519091506123249061231d90670de0b6b3a76400006134e9565b82906134e9565b93506123586040518060400160405280600e81526020016d18d85b18dd5b185d19565a595b1960921b81525083838761360c565b60085460405163a9059cbb60e01b81526001600160a01b039091169063a9059cbb9061238a9033908890600401614e67565b602060405180830381600087803b1580156123a457600080fd5b505af11580156123b8573d6000803e3d6000fd5b505050506040513d601f19601f820116820180604052508101906123dc9190614977565b506040518490869033907f6d330a72b03f3f443e72a146c33e5882a01427b60a36b46ac11243d0c4e31d0990600090a4505050919050565b60003361241f61165e565b6001600160a01b0316146124455760405162461bcd60e51b815260040161047f90614ffe565b6008546040516370a0823160e01b81526001600160a01b03909116906370a0823190612475903090600401614e0b565b60206040518083038186803b15801561248d57600080fd5b505afa1580156124a1573d6000803e3d6000fd5b505050506040513d601f19601f820116820180604052508101906124c59190614b3e565b905090565b6005546008546040516370a0823160e01b81526001600160a01b03909116906370a08231906124fd903390600401614e0b565b60206040518083038186803b15801561251557600080fd5b505afa158015612529573d6000803e3d6000fd5b505050506040513d601f19601f8201168201806040525081019061254d9190614b3e565b106125a65760405162461bcd60e51b815260206004820152602360248201527f5a4b3a204e6f7420656e6f756768205a4f4f20746f207075726368617365204e604482015262616d6560e81b606482015260840161047f565b6008546005546040516323b872dd60e01b81526001600160a01b03909216916323b872dd916125db9133913091600401614e1f565b602060405180830381600087803b1580156125f557600080fd5b505af1158015612609573d6000803e3d6000fd5b505050506040513d601f19601f8201168201806040525081019061262d9190614977565b506000828152600460205260408082208151610200810190925280548290610180820190839082908290612660906152e2565b80601f016020809104026020016040519081016040528092919081815260200182805461268c906152e2565b80156126d95780601f106126ae576101008083540402835291602001916126d9565b820191906000526020600020905b8154815290600101906020018083116126bc57829003601f168201915b50505050508152602001600182015481526020016002820154815260200160038201548152505081526020016004820160009054906101000a900460ff16600381111561273657634e487b7160e01b600052602160045260246000fd5b600381111561275557634e487b7160e01b600052602160045260246000fd5b8152602001600582018054612769906152e2565b80601f0160208091040260200160405190810160405280929190818152602001828054612795906152e2565b80156127e25780601f106127b7576101008083540402835291602001916127e2565b820191906000526020600020905b8154815290600101906020018083116127c557829003601f168201915b50505050508152602001600682015481526020016007820154815260200160088201548152602001600982018054612819906152e2565b80601f0160208091040260200160405190810160405280929190818152602001828054612845906152e2565b80156128925780601f1061286757610100808354040283529160200191612892565b820191906000526020600020905b81548152906001019060200180831161287557829003601f168201915b50505050508152602001600a82016040518060800160405290816000820180546128bb906152e2565b80601f01602080910402602001604051908101604052809291908181526020018280546128e7906152e2565b80156129345780601f1061290957610100808354040283529160200191612934565b820191906000526020600020905b81548152906001019060200180831161291757829003601f168201915b5050505050815260200160018201805461294d906152e2565b80601f0160208091040260200160405190810160405280929190818152602001828054612979906152e2565b80156129c65780601f1061299b576101008083540402835291602001916129c6565b820191906000526020600020905b8154815290600101906020018083116129a957829003601f168201915b5050509183525050600282015460208083019190915260039092015460409182015291835281518083018352600e8501548152600f850154818301528382015281516080808201845260108601548252601186015492820192909252601285015460ff8082161515838601526101009091041615156060808301919091528484019190915282519182019092526013840180549290930192909182908290612a6d906152e2565b80601f0160208091040260200160405190810160405280929190818152602001828054612a99906152e2565b8015612ae65780601f10612abb57610100808354040283529160200191612ae6565b820191906000526020600020905b815481529060010190602001808311612ac957829003601f168201915b50505050508152602001600182018054612aff906152e2565b80601f0160208091040260200160405190810160405280929190818152602001828054612b2b906152e2565b8015612b785780601f10612b4d57610100808354040283529160200191612b78565b820191906000526020600020905b815481529060010190602001808311612b5b57829003601f168201915b5050509183525050600282015460208083019190915260039092015460409182015291835281516080810183526017850154606082019081528152825180830184526018860154815281830152825180830184526019909501548552808301949094529182019290925260c08301859052600086815260048252919091208251805180519495508594929391928492612c159284929101906141e8565b50602082015181600101556040820151816002015560608201518160030155505060208201518160040160006101000a81548160ff02191690836003811115612c6e57634e487b7160e01b600052602160045260246000fd5b021790555060408201518051612c8e9160058401916020909101906141e8565b50606082015160068201556080820151600782015560a0820151600882015560c08201518051612cc89160098401916020909101906141e8565b5060e082015180518051600a840191612ce6918391602001906141e8565b506020828101518051612cff92600185019201906141e8565b506040828101516002830155606092830151600390920191909155610100848101518051600e860155602090810151600f8601556101208601518051601087015580820151601187015592830151601286018054949095015161ffff1990941690151561ff00191617921515909102919091179091556101408301518051805191926013850192612d9392849201906141e8565b506020828101518051612dac92600185019201906141e8565b5060408281015160028301556060909201516003909101556101609290920151805151601783015560208101515160188301559091015151601990910155505050565b33612df861165e565b6001600160a01b031614612e1e5760405162461bcd60e51b815260040161047f90614ffe565b6001600160a01b038116612e835760405162461bcd60e51b815260206004820152602660248201527f4f776e61626c653a206e6577206f776e657220697320746865207a65726f206160448201526564647265737360d01b606482015260840161047f565b612e8c81613f6e565b50565b600033612e9a61165e565b6001600160a01b031614612ec05760405162461bcd60e51b815260040161047f90614ffe565b6008546001600160a01b03166323b872dd3085612ee586670de0b6b3a76400006134e9565b6040518463ffffffff1660e01b8152600401612f0393929190614e1f565b602060405180830381600087803b158015612f1d57600080fd5b505af1158015612f31573d6000803e3d6000fd5b505050506040513d601f19601f82011682018060405250810190611c4c9190614977565b6001600160a01b03811660009081526003602052604081205415612fb05760405162461bcd60e51b8152602060048201526012602482015271111c9bdc08185b1c9958591e48185919195960721b604482015260640161047f565b81612fbf600180546001019055565b6000612fca60015490565b600081815260026020908152604080832080546001600160a01b0319166001600160a01b038a81169182179092558085526003909352818420859055815163129e754360e21b8152915194955091937f2924d682319c0da5a600d8e093bcb0fb706de4e6bb58e114c69dee5587e2ec2d9392871692634a79d50c9260048082019391829003018186803b15801561306057600080fd5b505afa158015613074573d6000803e3d6000fd5b505050506040513d6000823e601f3d908101601f1916820160405261309c9190810190614993565b846001600160a01b031663d232b7976040518163ffffffff1660e01b815260040160206040518083038186803b1580156130d557600080fd5b505afa1580156130e9573d6000803e3d6000fd5b505050506040513d601f19601f8201168201806040525081019061310d9190614b3e565b60405161311b929190614f88565b60405180910390a29392505050565b613173848484846040516024016131449493929190614f22565b60408051601f198184030181529190526020810180516001600160e01b031663daa394bd60e01b179052614011565b50505050565b6131816140cd565b6131ac604051806040016040528060048152602001631b5a5b9d60e21b815250848460400151614032565b600754604051631dc925ff60e31b81526001600160a01b039091169063ee492ff8906131de9086908690600401614e43565b600060405180830381600087803b1580156131f857600080fd5b505af115801561320c573d6000803e3d6000fd5b505050506040513d6000823e601f3d908101601f1916820160405261323491908101906149c5565b60065460608201516101608301516040516375aab41d60e11b81529395506001600160a01b039092169263eb55683a92613271929160040161511f565b600060405180830381600087803b15801561328b57600080fd5b505af115801561329f573d6000803e3d6000fd5b5050505060608201516000908152600460209081526040909120835180518051869484926132d392849291909101906141e8565b50602082015181600101556040820151816002015560608201518160030155505060208201518160040160006101000a81548160ff0219169083600381111561332c57634e487b7160e01b600052602160045260246000fd5b02179055506040820151805161334c9160058401916020909101906141e8565b50606082015160068201556080820151600782015560a0820151600882015560c082015180516133869160098401916020909101906141e8565b5060e082015180518051600a8401916133a4918391602001906141e8565b5060208281015180516133bd92600185019201906141e8565b506040828101516002830155606092830151600390920191909155610100848101518051600e860155602090810151600f8601556101208601518051601087015580820151601187015592830151601286018054949095015161ffff1990941690151561ff0019161792151590910291909117909155610140830151805180519192601385019261345192849201906141e8565b50602082810151805161346a92600185019201906141e8565b5060408281015160028301556060928301516003909201919091556101609390930151805151601784015560208101515160188401558301515160199092019190915583015190516001600160a01b038516907f0f6798a560793a54c3bcfe86a93cde1e73087d944c0ea20544137d412139688590600090a350919050565b6000611c4c8284615280565b61353a828260405160240161350b929190614f88565b60408051601f198184030181529190526020810180516001600160e01b03166309710a9d60e41b179052614011565b5050565b613173848484846040516024016135589493929190614e80565b60408051601f198184030181529190526020810180516001600160e01b0316636eb7943d60e01b179052614011565b61142283838360405160240161359f93929190614faa565b60408051601f198184030181529190526020810180516001600160e01b031663969cdd0360e01b179052614011565b60008181526004602081905260408220015460019060ff16600381111561360557634e487b7160e01b600052602160045260246000fd5b1492915050565b613173848484846040516024016136269493929190614fcf565b60408051601f198184030181529190526020810180516001600160e01b03166304772b3360e11b179052614011565b61368960405180604001604052806011815260200170757064617465427265656444656c61797360781b8152508383613587565b6000828152600460205260408120600e018054916136a68361531d565b90915550506000818152600460205260408120600e018054916136c88361531d565b909155505060009182526004602052604080832042600f918201819055928452922090910155565b6136f86140cd565b6137246040518060400160405280600981526020016819d95d105b9a5b585b60ba1b8152508484613587565b6000828152600460205260408082208151610200810190925280548290610180820190839082908290613756906152e2565b80601f0160208091040260200160405190810160405280929190818152602001828054613782906152e2565b80156137cf5780601f106137a4576101008083540402835291602001916137cf565b820191906000526020600020905b8154815290600101906020018083116137b257829003601f168201915b50505050508152602001600182015481526020016002820154815260200160038201548152505081526020016004820160009054906101000a900460ff16600381111561382c57634e487b7160e01b600052602160045260246000fd5b600381111561384b57634e487b7160e01b600052602160045260246000fd5b815260200160058201805461385f906152e2565b80601f016020809104026020016040519081016040528092919081815260200182805461388b906152e2565b80156138d85780601f106138ad576101008083540402835291602001916138d8565b820191906000526020600020905b8154815290600101906020018083116138bb57829003601f168201915b5050505050815260200160068201548152602001600782015481526020016008820154815260200160098201805461390f906152e2565b80601f016020809104026020016040519081016040528092919081815260200182805461393b906152e2565b80156139885780601f1061395d57610100808354040283529160200191613988565b820191906000526020600020905b81548152906001019060200180831161396b57829003601f168201915b50505050508152602001600a82016040518060800160405290816000820180546139b1906152e2565b80601f01602080910402602001604051908101604052809291908181526020018280546139dd906152e2565b8015613a2a5780601f106139ff57610100808354040283529160200191613a2a565b820191906000526020600020905b815481529060010190602001808311613a0d57829003601f168201915b50505050508152602001600182018054613a43906152e2565b80601f0160208091040260200160405190810160405280929190818152602001828054613a6f906152e2565b8015613abc5780601f10613a9157610100808354040283529160200191613abc565b820191906000526020600020905b815481529060010190602001808311613a9f57829003601f168201915b5050509183525050600282015460208083019190915260039092015460409182015291835281518083018352600e8501548152600f850154818301528382015281516080808201845260108601548252601186015492820192909252601285015460ff8082161515838601526101009091041615156060808301919091528484019190915282519182019092526013840180549290930192909182908290613b63906152e2565b80601f0160208091040260200160405190810160405280929190818152602001828054613b8f906152e2565b8015613bdc5780601f10613bb157610100808354040283529160200191613bdc565b820191906000526020600020905b815481529060010190602001808311613bbf57829003601f168201915b50505050508152602001600182018054613bf5906152e2565b80601f0160208091040260200160405190810160405280929190818152602001828054613c21906152e2565b8015613c6e5780601f10613c4357610100808354040283529160200191613c6e565b820191906000526020600020905b815481529060010190602001808311613c5157829003601f168201915b5050509183525050600282015460208083019190915260039092015460409182015291835281516080810183526017850154606082019081528152825180830184526018860154815281830152825180830184526019909501548552918201939093529101529050600081602001516003811115613cfc57634e487b7160e01b600052602160045260246000fd5b1415613dd357613d346040518060400160405280600f81526020016e19d95d14985b991bdb505b9a5b585b608a1b8152508585613587565b6000848152600260205260409020546001600160a01b03166308f8bcc6613d59614079565b6040518263ffffffff1660e01b8152600401613d7791815260200190565b60006040518083038186803b158015613d8f57600080fd5b505afa158015613da3573d6000803e3d6000fd5b505050506040513d6000823e601f3d908101601f19168201604052613dcb91908101906149c5565b91505061161d565b613e056040518060400160405280600f81526020016e19d95d14985b991bdb521e589c9a59608a1b8152508585613587565b6000848152600260205260409020546001600160a01b0316633b5c9856613e2a614079565b8360e001516040518363ffffffff1660e01b8152600401613d77929190615133565b61353a8282604051602401613e62929190614f5a565b60408051601f198184030181529190526020810180516001600160e01b0316634b5c427760e01b179052614011565b613eb860405180604001604052806004815260200163313ab93760e11b8152508383613fbe565b600754604051633477cc1b60e21b81526001600160a01b039091169063d1df306c90613eea9085908590600401614e67565b600060405180830381600087803b158015613f0457600080fd5b505af1158015613f18573d6000803e3d6000fd5b505050600082815260046020526040808220601201805460ff19166001179055518392506001600160a01b038516917fcc16f5dbb4873280815c1ee09dbd06736cffcc184412cf7a71a0fdb75d397ca591a35050565b600080546001600160a01b038381166001600160a01b0319831681178455604051919092169283917f8be0079c531659141344cd1fd0a4f28419497f9722a3daafe3b4186f6b6457e09190a35050565b611422838383604051602401613fd693929190614ef4565b60408051601f198184030181529190526020810180516001600160e01b03166307c8121760e01b179052614011565b6000611c4c828461526c565b80516a636f6e736f6c652e6c6f67602083016000808483855afa5050505050565b61142283838360405160240161404a93929190614eb6565b60408051601f198184030181529190526020810180516001600160e01b031663e0e9ad4f60e01b179052614011565b604080514360208201526001600160601b03193360601b16918101919091524260548201526000908190612710906074016040516020818303038152906040528051906020012060001c61161d9190615358565b6040805161020081019091526060610180820190815260006101a083018190526101c083018190526101e0830152819081526020016000815260200160608152602001600081526020016000815260200160008152602001606081526020016141576040518060800160405280606081526020016060815260200160008152602001600081525090565b8152602001614179604051806040016040528060008152602001600081525090565b81526040805160808101825260008082526020828101829052928201819052606082015291019081526020016141d66040518060800160405280606081526020016060815260200160008019168152602001600080191681525090565b81526020016141e361426c565b905290565b8280546141f4906152e2565b90600052602060002090601f016020900481019282614216576000855561425c565b82601f1061422f57805160ff191683800117855561425c565b8280016001018555821561425c579182015b8281111561425c578251825591602001919060010190614241565b50614268929150614299565b5090565b604051806060016040528061427f6142ae565b815260200161428c6142ae565b81526020016141e36142ae565b5b80821115614268576000815560010161429a565b6040518060200160405280600081525090565b80356001600160a01b03811681146142d857600080fd5b919050565b80356142d8816153bc565b80516142d8816153bc565b600082601f830112614303578081fd5b81356143166143118261522d565b6151fd565b81815284602083860101111561432a578283fd5b816020850160208301379081016020019190915292915050565b600082601f830112614354578081fd5b81516143626143118261522d565b818152846020838601011115614376578283fd5b6143878260208301602087016152b6565b949350505050565b6000606082840312156143a0578081fd5b6143a861514c565b90506143b48383614484565b81526143c38360208401614484565b60208201526143d58360408401614484565b604082015292915050565b6000606082840312156143f1578081fd5b6143f961514c565b905061440583836144a7565b815261441483602084016144a7565b60208201526143d583604084016144a7565b600060408284031215614437578081fd5b61443f615174565b9050813581526020820135602082015292915050565b600060408284031215614466578081fd5b61446e615174565b9050815181526020820151602082015292915050565b600060208284031215614495578081fd5b61449d615196565b9135825250919050565b6000602082840312156144b8578081fd5b6144c0615196565b9151825250919050565b6000608082840312156144db578081fd5b6144e36151b8565b905081356001600160401b03808211156144fc57600080fd5b614508858386016142f3565b8352602084013591508082111561451e57600080fd5b5061452b848285016142f3565b602083015250604082013560408201526060820135606082015292915050565b60006080828403121561455c578081fd5b6145646151b8565b905081516001600160401b038082111561457d57600080fd5b61458985838601614344565b8352602084015191508082111561459f57600080fd5b506145ac84828501614344565b602083015250604082015160408201526060820151606082015292915050565b6000608082840312156145dd578081fd5b6145e56151b8565b905081358152602082013560208201526040820135614603816153ae565b60408201526060820135614616816153ae565b606082015292915050565b600060808284031215614632578081fd5b61463a6151b8565b905081518152602082015160208201526040820151614658816153ae565b60408201526060820151614616816153ae565b60006080828403121561467c578081fd5b6146846151b8565b905081356001600160401b0381111561469c57600080fd5b6146a8848285016142f3565b82525060208201356020820152604082013560408201526060820135606082015292915050565b6000608082840312156146e0578081fd5b6146e86151b8565b905081516001600160401b0381111561470057600080fd5b61470c84828501614344565b82525060208201516020820152604082015160408201526060820151606082015292915050565b600060208284031215614744578081fd5b611c4c826142c1565b60008060008060808587031215614762578283fd5b61476b856142c1565b9350614779602086016142c1565b9250614787604086016142c1565b9150614795606086016142c1565b905092959194509250565b6000806000606084860312156147b4578081fd5b6147bd846142c1565b925060208401356001600160401b03808211156147d8578283fd5b9085019061024082880312156147ec578283fd5b6147f46151da565b823582811115614802578485fd5b61480e8982860161466b565b82525061481d602084016142dd565b6020820152604083013582811115614833578485fd5b61483f898286016142f3565b604083015250606083013560608201526080830135608082015260a083013560a082015260c083013582811115614874578485fd5b614880898286016142f3565b60c08301525060e083013582811115614897578485fd5b6148a3898286016144ca565b60e0830152506101006148b889828601614426565b908201526101406148cb898583016145cc565b6101208301526101c0840135838111156148e3578586fd5b6148ef8a8287016144ca565b828401525050614903886101e0850161438f565b6101608201529497949650505050604092909201359150565b6000806040838503121561492e578182fd5b614937836142c1565b946020939093013593505050565b600080600060608486031215614959578081fd5b614962846142c1565b95602085013595506040909401359392505050565b600060208284031215614988578081fd5b8151611c4c816153ae565b6000602082840312156149a4578081fd5b81516001600160401b038111156149b9578182fd5b61438784828501614344565b6000602082840312156149d6578081fd5b81516001600160401b03808211156149ec578283fd5b908301906102408286031215614a00578283fd5b614a086151da565b825182811115614a16578485fd5b614a22878286016146cf565b825250614a31602084016142e8565b6020820152604083015182811115614a47578485fd5b614a5387828601614344565b604083015250606083015160608201526080830151608082015260a083015160a082015260c083015182811115614a88578485fd5b614a9487828601614344565b60c08301525060e083015182811115614aab578485fd5b614ab78782860161454b565b60e083015250610100614acc87828601614455565b90820152610140614adf87858301614621565b6101208301526101c084015183811115614af7578586fd5b614b038882870161454b565b828401525050614b17866101e085016143e0565b61016082015295945050505050565b600060208284031215614b37578081fd5b5035919050565b600060208284031215614b4f578081fd5b5051919050565b60008060408385031215614b68578182fd5b8235915060208301356001600160401b03811115614b84578182fd5b614b90858286016142f3565b9150509250929050565b60008060408385031215614bac578182fd5b50508035926020909101359150565b600080600060608486031215614bcf578081fd5b505081359360208301359350604090920135919050565b60048110614c0457634e487b7160e01b600052602160045260246000fd5b9052565b60008151808452614c208160208601602086016152b6565b601f01601f19169290920160200192915050565b8051518252602080820151519083015260409081015151910152565b6000815160808452614c656080850182614c08565b905060208301518482036020860152614c7e8282614c08565b91505060408301516040850152606083015160608501528091505092915050565b80518252602081015160208301526040810151151560408301526060810151151560608301525050565b6000815160808452614cde6080850182614c08565b90506020830151602085015260408301516040850152606083015160608501528091505092915050565b60006102408251818552614d1e82860182614cc9565b9150506020830151614d336020860182614be6565b5060408301518482036040860152614d4b8282614c08565b915050606083015160608501526080830151608085015260a083015160a085015260c083015184820360c0860152614d838282614c08565b91505060e083015184820360e0860152614d9d8282614c50565b91505061010080840151614dbd8287018280518252602090810151910152565b5050610120830151610140614dd481870183614c9f565b8401518583036101c08701529050614dec8282614c50565b915050610160830151614e036101e0860182614c34565b509392505050565b6001600160a01b0391909116815260200190565b6001600160a01b039384168152919092166020820152604081019190915260600190565b6001600160a01b038316815260406020820181905260009061438790830184614d08565b6001600160a01b03929092168252602082015260400190565b608081526000614e936080830187614c08565b6001600160a01b0395861660208401529390941660408201526060015292915050565b606081526000614ec96060830186614c08565b6001600160a01b03851660208401528281036040840152614eea8185614c08565b9695505050505050565b606081526000614f076060830186614c08565b6001600160a01b039490941660208301525060400152919050565b608081526000614f356080830187614c08565b6001600160a01b03959095166020830152506040810192909252606090910152919050565b604081526000614f6d6040830185614c08565b8281036020840152614f7f8185614c08565b95945050505050565b604081526000614f9b6040830185614c08565b90508260208301529392505050565b606081526000614fbd6060830186614c08565b60208301949094525060400152919050565b608081526000614fe26080830187614c08565b6020830195909552506040810192909252606090910152919050565b6020808252818101527f4f776e61626c653a2063616c6c6572206973206e6f7420746865206f776e6572604082015260600190565b602081526000611c4c6020830184614c50565b6102408152600061505b61024083018f614cc9565b615068602084018f614be6565b828103604084015261507a818e614c08565b90508b60608401528a60808401528960a084015282810360c08401526150a0818a614c08565b905082810360e08401526150b48189614c50565b8751610100850152602088015161012085015290506150d7610140840187614c9f565b8281036101c08401526150ea8186614c50565b9150506150fb6101e0830184614c34565b9d9c50505050505050505050505050565b602081526000611c4c6020830184614d08565b82815260808101611c4c6020830184614c34565b8281526040602082015260006143876040830184614c50565b604051606081016001600160401b038111828210171561516e5761516e615398565b60405290565b604080519081016001600160401b038111828210171561516e5761516e615398565b604051602081016001600160401b038111828210171561516e5761516e615398565b604051608081016001600160401b038111828210171561516e5761516e615398565b60405161018081016001600160401b038111828210171561516e5761516e615398565b604051601f8201601f191681016001600160401b038111828210171561522557615225615398565b604052919050565b60006001600160401b0382111561524657615246615398565b50601f01601f191660200190565b600082198211156152675761526761536c565b500190565b60008261527b5761527b615382565b500490565b600081600019048311821515161561529a5761529a61536c565b500290565b6000828210156152b1576152b161536c565b500390565b60005b838110156152d15781810151838201526020016152b9565b838111156131735750506000910152565b600181811c908216806152f657607f821691505b6020821081141561531757634e487b7160e01b600052602260045260246000fd5b50919050565b60006000198214156153315761533161536c565b5060010190565b600060ff821660ff81141561534f5761534f61536c565b60010192915050565b60008261536757615367615382565b500690565b634e487b7160e01b600052601160045260246000fd5b634e487b7160e01b600052601260045260246000fd5b634e487b7160e01b600052604160045260246000fd5b8015158114612e8c57600080fd5b60048110612e8c57600080fdfea26469706673582212203eee65aea4324709f5afa07dcb0398289d3baa520ea13078dbcc795ac64fdd0e64736f6c63430008040033",
  "libraries": {},
  "devdoc": {
    "kind": "dev",
    "methods": {
      "owner()": {
        "details": "Returns the address of the current owner."
      },
      "renounceOwnership()": {
        "details": "Leaves the contract without owner. It will not be possible to call `onlyOwner` functions anymore. Can only be called by the current owner. NOTE: Renouncing ownership will leave the contract without an owner, thereby removing any functionality that is only available to the owner."
      },
      "transferOwnership(address)": {
        "details": "Transfers ownership of the contract to a new account (`newOwner`). Can only be called by the current owner."
      }
    },
    "version": 1
  },
  "userdoc": {
    "kind": "user",
    "methods": {},
    "version": 1
  },
  "storageLayout": {
    "storage": [
      {
        "astId": 387,
        "contract": "src/ZooKeeper.sol:ZooKeeper",
        "label": "_owner",
        "offset": 0,
        "slot": "0",
        "type": "t_address"
      },
      {
        "astId": 12772,
        "contract": "src/ZooKeeper.sol:ZooKeeper",
        "label": "dropIDs",
        "offset": 0,
        "slot": "1",
        "type": "t_struct(Counter)2883_storage"
      },
      {
        "astId": 12844,
        "contract": "src/ZooKeeper.sol:ZooKeeper",
        "label": "drops",
        "offset": 0,
        "slot": "2",
        "type": "t_mapping(t_uint256,t_address)"
      },
      {
        "astId": 12848,
        "contract": "src/ZooKeeper.sol:ZooKeeper",
        "label": "dropAddresses",
        "offset": 0,
        "slot": "3",
        "type": "t_mapping(t_address,t_uint256)"
      },
      {
        "astId": 12853,
        "contract": "src/ZooKeeper.sol:ZooKeeper",
        "label": "tokens",
        "offset": 0,
        "slot": "4",
        "type": "t_mapping(t_uint256,t_struct(Token)22790_storage)"
      },
      {
        "astId": 12855,
        "contract": "src/ZooKeeper.sol:ZooKeeper",
        "label": "namePrice",
        "offset": 0,
        "slot": "5",
        "type": "t_uint256"
      },
      {
        "astId": 12858,
        "contract": "src/ZooKeeper.sol:ZooKeeper",
        "label": "market",
        "offset": 0,
        "slot": "6",
        "type": "t_contract(IMarket)22535"
      },
      {
        "astId": 12861,
        "contract": "src/ZooKeeper.sol:ZooKeeper",
        "label": "media",
        "offset": 0,
        "slot": "7",
        "type": "t_contract(IMedia)22715"
      },
      {
        "astId": 12864,
        "contract": "src/ZooKeeper.sol:ZooKeeper",
        "label": "zoo",
        "offset": 0,
        "slot": "8",
        "type": "t_contract(IERC20)1239"
      },
      {
        "astId": 12866,
        "contract": "src/ZooKeeper.sol:ZooKeeper",
        "label": "bridge",
        "offset": 0,
        "slot": "9",
        "type": "t_address"
      }
    ],
    "types": {
      "t_address": {
        "encoding": "inplace",
        "label": "address",
        "numberOfBytes": "20"
      },
      "t_bool": {
        "encoding": "inplace",
        "label": "bool",
        "numberOfBytes": "1"
      },
      "t_bytes32": {
        "encoding": "inplace",
        "label": "bytes32",
        "numberOfBytes": "32"
      },
      "t_contract(IERC20)1239": {
        "encoding": "inplace",
        "label": "contract IERC20",
        "numberOfBytes": "20"
      },
      "t_contract(IMarket)22535": {
        "encoding": "inplace",
        "label": "contract IMarket",
        "numberOfBytes": "20"
      },
      "t_contract(IMedia)22715": {
        "encoding": "inplace",
        "label": "contract IMedia",
        "numberOfBytes": "20"
      },
      "t_enum(Type)22726": {
        "encoding": "inplace",
        "label": "enum IZoo.Type",
        "numberOfBytes": "1"
      },
      "t_mapping(t_address,t_uint256)": {
        "encoding": "mapping",
        "key": "t_address",
        "label": "mapping(address => uint256)",
        "numberOfBytes": "32",
        "value": "t_uint256"
      },
      "t_mapping(t_uint256,t_address)": {
        "encoding": "mapping",
        "key": "t_uint256",
        "label": "mapping(uint256 => address)",
        "numberOfBytes": "32",
        "value": "t_address"
      },
      "t_mapping(t_uint256,t_struct(Token)22790_storage)": {
        "encoding": "mapping",
        "key": "t_uint256",
        "label": "mapping(uint256 => struct IZoo.Token)",
        "numberOfBytes": "32",
        "value": "t_struct(Token)22790_storage"
      },
      "t_string_storage": {
        "encoding": "bytes",
        "label": "string",
        "numberOfBytes": "32"
      },
      "t_struct(BidShares)22393_storage": {
        "encoding": "inplace",
        "label": "struct IMarket.BidShares",
        "members": [
          {
            "astId": 22386,
            "contract": "src/ZooKeeper.sol:ZooKeeper",
            "label": "prevOwner",
            "offset": 0,
            "slot": "0",
            "type": "t_struct(D256)6629_storage"
          },
          {
            "astId": 22389,
            "contract": "src/ZooKeeper.sol:ZooKeeper",
            "label": "creator",
            "offset": 0,
            "slot": "1",
            "type": "t_struct(D256)6629_storage"
          },
          {
            "astId": 22392,
            "contract": "src/ZooKeeper.sol:ZooKeeper",
            "label": "owner",
            "offset": 0,
            "slot": "2",
            "type": "t_struct(D256)6629_storage"
          }
        ],
        "numberOfBytes": "96"
      },
      "t_struct(Breed)22740_storage": {
        "encoding": "inplace",
        "label": "struct IZoo.Breed",
        "members": [
          {
            "astId": 22737,
            "contract": "src/ZooKeeper.sol:ZooKeeper",
            "label": "count",
            "offset": 0,
            "slot": "0",
            "type": "t_uint256"
          },
          {
            "astId": 22739,
            "contract": "src/ZooKeeper.sol:ZooKeeper",
            "label": "timestamp",
            "offset": 0,
            "slot": "1",
            "type": "t_uint256"
          }
        ],
        "numberOfBytes": "64"
      },
      "t_struct(Counter)2883_storage": {
        "encoding": "inplace",
        "label": "struct Counters.Counter",
        "members": [
          {
            "astId": 2882,
            "contract": "src/ZooKeeper.sol:ZooKeeper",
            "label": "_value",
            "offset": 0,
            "slot": "0",
            "type": "t_uint256"
          }
        ],
        "numberOfBytes": "32"
      },
      "t_struct(D256)6629_storage": {
        "encoding": "inplace",
        "label": "struct Decimal.D256",
        "members": [
          {
            "astId": 6628,
            "contract": "src/ZooKeeper.sol:ZooKeeper",
            "label": "value",
            "offset": 0,
            "slot": "0",
            "type": "t_uint256"
          }
        ],
        "numberOfBytes": "32"
      },
      "t_struct(MediaData)22561_storage": {
        "encoding": "inplace",
        "label": "struct IMedia.MediaData",
        "members": [
          {
            "astId": 22554,
            "contract": "src/ZooKeeper.sol:ZooKeeper",
            "label": "tokenURI",
            "offset": 0,
            "slot": "0",
            "type": "t_string_storage"
          },
          {
            "astId": 22556,
            "contract": "src/ZooKeeper.sol:ZooKeeper",
            "label": "metadataURI",
            "offset": 0,
            "slot": "1",
            "type": "t_string_storage"
          },
          {
            "astId": 22558,
            "contract": "src/ZooKeeper.sol:ZooKeeper",
            "label": "contentHash",
            "offset": 0,
            "slot": "2",
            "type": "t_bytes32"
          },
          {
            "astId": 22560,
            "contract": "src/ZooKeeper.sol:ZooKeeper",
            "label": "metadataHash",
            "offset": 0,
            "slot": "3",
            "type": "t_bytes32"
          }
        ],
        "numberOfBytes": "128"
      },
      "t_struct(Meta)22758_storage": {
        "encoding": "inplace",
        "label": "struct IZoo.Meta",
        "members": [
          {
            "astId": 22751,
            "contract": "src/ZooKeeper.sol:ZooKeeper",
            "label": "eggID",
            "offset": 0,
            "slot": "0",
            "type": "t_uint256"
          },
          {
            "astId": 22753,
            "contract": "src/ZooKeeper.sol:ZooKeeper",
            "label": "dropID",
            "offset": 0,
            "slot": "1",
            "type": "t_uint256"
          },
          {
            "astId": 22755,
            "contract": "src/ZooKeeper.sol:ZooKeeper",
            "label": "burned",
            "offset": 0,
            "slot": "2",
            "type": "t_bool"
          },
          {
            "astId": 22757,
            "contract": "src/ZooKeeper.sol:ZooKeeper",
            "label": "swapped",
            "offset": 1,
            "slot": "2",
            "type": "t_bool"
          }
        ],
        "numberOfBytes": "96"
      },
      "t_struct(Parents)22749_storage": {
        "encoding": "inplace",
        "label": "struct IZoo.Parents",
        "members": [
          {
            "astId": 22742,
            "contract": "src/ZooKeeper.sol:ZooKeeper",
            "label": "animalA",
            "offset": 0,
            "slot": "0",
            "type": "t_string_storage"
          },
          {
            "astId": 22744,
            "contract": "src/ZooKeeper.sol:ZooKeeper",
            "label": "animalB",
            "offset": 0,
            "slot": "1",
            "type": "t_string_storage"
          },
          {
            "astId": 22746,
            "contract": "src/ZooKeeper.sol:ZooKeeper",
            "label": "tokenA",
            "offset": 0,
            "slot": "2",
            "type": "t_uint256"
          },
          {
            "astId": 22748,
            "contract": "src/ZooKeeper.sol:ZooKeeper",
            "label": "tokenB",
            "offset": 0,
            "slot": "3",
            "type": "t_uint256"
          }
        ],
        "numberOfBytes": "128"
      },
      "t_struct(Rarity)22735_storage": {
        "encoding": "inplace",
        "label": "struct IZoo.Rarity",
        "members": [
          {
            "astId": 22728,
            "contract": "src/ZooKeeper.sol:ZooKeeper",
            "label": "name",
            "offset": 0,
            "slot": "0",
            "type": "t_string_storage"
          },
          {
            "astId": 22730,
            "contract": "src/ZooKeeper.sol:ZooKeeper",
            "label": "probability",
            "offset": 0,
            "slot": "1",
            "type": "t_uint256"
          },
          {
            "astId": 22732,
            "contract": "src/ZooKeeper.sol:ZooKeeper",
            "label": "yield",
            "offset": 0,
            "slot": "2",
            "type": "t_uint256"
          },
          {
            "astId": 22734,
            "contract": "src/ZooKeeper.sol:ZooKeeper",
            "label": "boost",
            "offset": 0,
            "slot": "3",
            "type": "t_uint256"
          }
        ],
        "numberOfBytes": "128"
      },
      "t_struct(Token)22790_storage": {
        "encoding": "inplace",
        "label": "struct IZoo.Token",
        "members": [
          {
            "astId": 22761,
            "contract": "src/ZooKeeper.sol:ZooKeeper",
            "label": "rarity",
            "offset": 0,
            "slot": "0",
            "type": "t_struct(Rarity)22735_storage"
          },
          {
            "astId": 22764,
            "contract": "src/ZooKeeper.sol:ZooKeeper",
            "label": "kind",
            "offset": 0,
            "slot": "4",
            "type": "t_enum(Type)22726"
          },
          {
            "astId": 22766,
            "contract": "src/ZooKeeper.sol:ZooKeeper",
            "label": "name",
            "offset": 0,
            "slot": "5",
            "type": "t_string_storage"
          },
          {
            "astId": 22768,
            "contract": "src/ZooKeeper.sol:ZooKeeper",
            "label": "id",
            "offset": 0,
            "slot": "6",
            "type": "t_uint256"
          },
          {
            "astId": 22770,
            "contract": "src/ZooKeeper.sol:ZooKeeper",
            "label": "timestamp",
            "offset": 0,
            "slot": "7",
            "type": "t_uint256"
          },
          {
            "astId": 22772,
            "contract": "src/ZooKeeper.sol:ZooKeeper",
            "label": "birthday",
            "offset": 0,
            "slot": "8",
            "type": "t_uint256"
          },
          {
            "astId": 22774,
            "contract": "src/ZooKeeper.sol:ZooKeeper",
            "label": "customName",
            "offset": 0,
            "slot": "9",
            "type": "t_string_storage"
          },
          {
            "astId": 22777,
            "contract": "src/ZooKeeper.sol:ZooKeeper",
            "label": "parents",
            "offset": 0,
            "slot": "10",
            "type": "t_struct(Parents)22749_storage"
          },
          {
            "astId": 22780,
            "contract": "src/ZooKeeper.sol:ZooKeeper",
            "label": "breed",
            "offset": 0,
            "slot": "14",
            "type": "t_struct(Breed)22740_storage"
          },
          {
            "astId": 22783,
            "contract": "src/ZooKeeper.sol:ZooKeeper",
            "label": "meta",
            "offset": 0,
            "slot": "16",
            "type": "t_struct(Meta)22758_storage"
          },
          {
            "astId": 22786,
            "contract": "src/ZooKeeper.sol:ZooKeeper",
            "label": "data",
            "offset": 0,
            "slot": "19",
            "type": "t_struct(MediaData)22561_storage"
          },
          {
            "astId": 22789,
            "contract": "src/ZooKeeper.sol:ZooKeeper",
            "label": "bidShares",
            "offset": 0,
            "slot": "23",
            "type": "t_struct(BidShares)22393_storage"
          }
        ],
        "numberOfBytes": "832"
      },
      "t_uint256": {
        "encoding": "inplace",
        "label": "uint256",
        "numberOfBytes": "32"
      }
    }
  }
}