{
  "_format": "hh-sol-artifact-1",
  "contractName": "ZooFaucet",
  "sourceName": "src/ZooFaucet.sol",
  "abi": [
    {
      "inputs": [
        {
          "internalType": "address",
          "name": "_zooToken",
          "type": "address"
        }
      ],
      "stateMutability": "nonpayable",
      "type": "constructor"
    },
    {
      "anonymous": false,
      "inputs": [
        {
          "indexed": true,
          "internalType": "address",
          "name": "_buyer",
          "type": "address"
        },
        {
          "indexed": true,
          "internalType": "uint256",
          "name": "_amount",
          "type": "uint256"
        },
        {
          "indexed": true,
          "internalType": "uint256",
          "name": "_rate",
          "type": "uint256"
        }
      ],
      "name": "BUYZOO",
      "type": "event"
    },
    {
      "anonymous": false,
      "inputs": [
        {
          "indexed": false,
          "internalType": "uint256",
          "name": "n1",
          "type": "uint256"
        },
        {
          "indexed": false,
          "internalType": "uint256",
          "name": "n2",
          "type": "uint256"
        }
      ],
      "name": "Log",
      "type": "event"
    },
    {
      "inputs": [
        {
          "internalType": "address",
          "name": "to",
          "type": "address"
        },
        {
          "internalType": "uint256",
          "name": "amt",
          "type": "uint256"
        }
      ],
      "name": "buyZoo",
      "outputs": [],
      "stateMutability": "payable",
      "type": "function"
    },
    {
      "inputs": [],
      "name": "owner",
      "outputs": [
        {
          "internalType": "address payable",
          "name": "",
          "type": "address"
        }
      ],
      "stateMutability": "view",
      "type": "function"
    },
    {
      "inputs": [],
      "name": "rate",
      "outputs": [
        {
          "internalType": "uint256",
          "name": "",
          "type": "uint256"
        }
      ],
      "stateMutability": "view",
      "type": "function"
    },
    {
      "inputs": [],
      "name": "withdrawEther",
      "outputs": [],
      "stateMutability": "nonpayable",
      "type": "function"
    },
    {
      "inputs": [],
      "name": "withdrawTok",
      "outputs": [],
      "stateMutability": "nonpayable",
      "type": "function"
    }
  ],
  "bytecode": "0x60806040526103e860025534801561001657600080fd5b5060405161053738038061053783398101604081905261003591610068565b60018054336001600160a01b031991821617909155600080549091166001600160a01b0392909216919091179055610096565b600060208284031215610079578081fd5b81516001600160a01b038116811461008f578182fd5b9392505050565b610492806100a56000396000f3fe60806040526004361061004a5760003560e01c80630f33a2a91461004f5780632c4e722e1461006657806356763ac41461008f5780637362377b146100a25780638da5cb5b146100b7575b600080fd5b34801561005b57600080fd5b506100646100ef565b005b34801561007257600080fd5b5061007c60025481565b6040519081526020015b60405180910390f35b61006461009d3660046103bc565b61020f565b3480156100ae57600080fd5b5061006461036c565b3480156100c357600080fd5b506001546100d7906001600160a01b031681565b6040516001600160a01b039091168152602001610086565b6001546001600160a01b0316331461010657600080fd5b6000546001546040516370a0823160e01b81523060048201526001600160a01b039283169263a9059cbb92169083906370a082319060240160206040518083038186803b15801561015657600080fd5b505afa15801561016a573d6000803e3d6000fd5b505050506040513d601f19601f8201168201806040525081019061018e9190610419565b6040516001600160e01b031960e085901b1681526001600160a01b0390921660048301526024820152604401602060405180830381600087803b1580156101d457600080fd5b505af11580156101e8573d6000803e3d6000fd5b505050506040513d601f19601f8201168201806040525081019061020c91906103f2565b50565b6000811161021c57600080fd5b6002546102299082610431565b6000546040516370a0823160e01b81523060048201529192506001600160a01b0316906370a082319060240160206040518083038186803b15801561026d57600080fd5b505afa158015610281573d6000803e3d6000fd5b505050506040513d601f19601f820116820180604052508101906102a59190610419565b8111156102b157600080fd5b60005460405163a9059cbb60e01b81526001600160a01b038481166004830152602482018490529091169063a9059cbb90604401602060405180830381600087803b1580156102ff57600080fd5b505af1158015610313573d6000803e3d6000fd5b505050506040513d601f19601f8201168201806040525081019061033791906103f2565b50600254604051829033907f215a38f79ad9ebf1b9e3a39b7a73a0570395c39bdfb6d32c3e40e2d0be00af2a90600090a45050565b6001546001600160a01b0316331461038357600080fd5b6001546040516001600160a01b03909116904780156108fc02916000818181858888f1935050505015801561020c573d6000803e3d6000fd5b600080604083850312156103ce578182fd5b82356001600160a01b03811681146103e4578283fd5b946020939093013593505050565b600060208284031215610403578081fd5b81518015158114610412578182fd5b9392505050565b60006020828403121561042a578081fd5b5051919050565b600081600019048311821515161561045757634e487b7160e01b81526011600452602481fd5b50029056fea2646970667358221220d5e6169ee888f8f7a33efdeb9b071f3841d9b5b27b473536ddfafc5cf2698c2864736f6c63430008040033",
  "linkReferences": {},
  "deployedLinkReferences": {}
}