{
  "_format": "hh-sol-artifact-1",
  "contractName": "Random",
  "sourceName": "src/Random.sol",
  "abi": [
    {
      "inputs": [],
      "stateMutability": "nonpayable",
      "type": "constructor"
    },
    {
      "anonymous": false,
      "inputs": [
        {
          "indexed": false,
          "internalType": "address",
          "name": "sender",
          "type": "address"
        },
        {
          "indexed": false,
          "internalType": "bytes32",
          "name": "dataHash",
          "type": "bytes32"
        },
        {
          "indexed": false,
          "internalType": "uint64",
          "name": "block",
          "type": "uint64"
        }
      ],
      "name": "CommitHash",
      "type": "event"
    },
    {
      "anonymous": false,
      "inputs": [
        {
          "indexed": false,
          "internalType": "address",
          "name": "sender",
          "type": "address"
        },
        {
          "indexed": false,
          "internalType": "bytes32",
          "name": "answer",
          "type": "bytes32"
        },
        {
          "indexed": false,
          "internalType": "bytes32",
          "name": "salt",
          "type": "bytes32"
        }
      ],
      "name": "RevealAnswer",
      "type": "event"
    },
    {
      "anonymous": false,
      "inputs": [
        {
          "indexed": false,
          "internalType": "address",
          "name": "sender",
          "type": "address"
        },
        {
          "indexed": false,
          "internalType": "bytes32",
          "name": "revealHash",
          "type": "bytes32"
        },
        {
          "indexed": false,
          "internalType": "uint8",
          "name": "random",
          "type": "uint8"
        }
      ],
      "name": "RevealHash",
      "type": "event"
    },
    {
      "inputs": [
        {
          "internalType": "bytes32",
          "name": "dataHash",
          "type": "bytes32"
        }
      ],
      "name": "commit",
      "outputs": [],
      "stateMutability": "nonpayable",
      "type": "function"
    },
    {
      "inputs": [
        {
          "internalType": "address",
          "name": "",
          "type": "address"
        }
      ],
      "name": "commits",
      "outputs": [
        {
          "internalType": "bytes32",
          "name": "commit",
          "type": "bytes32"
        },
        {
          "internalType": "uint64",
          "name": "block",
          "type": "uint64"
        },
        {
          "internalType": "bool",
          "name": "revealed",
          "type": "bool"
        }
      ],
      "stateMutability": "view",
      "type": "function"
    },
    {
      "inputs": [
        {
          "internalType": "bytes32",
          "name": "data",
          "type": "bytes32"
        }
      ],
      "name": "getHash",
      "outputs": [
        {
          "internalType": "bytes32",
          "name": "",
          "type": "bytes32"
        }
      ],
      "stateMutability": "view",
      "type": "function"
    },
    {
      "inputs": [
        {
          "internalType": "bytes32",
          "name": "data",
          "type": "bytes32"
        },
        {
          "internalType": "bytes32",
          "name": "salt",
          "type": "bytes32"
        }
      ],
      "name": "getSaltedHash",
      "outputs": [
        {
          "internalType": "bytes32",
          "name": "",
          "type": "bytes32"
        }
      ],
      "stateMutability": "view",
      "type": "function"
    },
    {
      "inputs": [],
      "name": "max",
      "outputs": [
        {
          "internalType": "uint8",
          "name": "",
          "type": "uint8"
        }
      ],
      "stateMutability": "view",
      "type": "function"
    },
    {
      "inputs": [
        {
          "internalType": "bytes32",
          "name": "revealHash",
          "type": "bytes32"
        }
      ],
      "name": "reveal",
      "outputs": [],
      "stateMutability": "nonpayable",
      "type": "function"
    },
    {
      "inputs": [
        {
          "internalType": "bytes32",
          "name": "answer",
          "type": "bytes32"
        },
        {
          "internalType": "bytes32",
          "name": "salt",
          "type": "bytes32"
        }
      ],
      "name": "revealAnswer",
      "outputs": [],
      "stateMutability": "nonpayable",
      "type": "function"
    }
  ],
  "bytecode": "0x60806040526000805460ff1916606417905534801561001d57600080fd5b506107e98061002d6000396000f3fe608060405234801561001057600080fd5b506004361061007d5760003560e01c80637b43a8e61161005b5780637b43a8e6146100dc5780638dddbf361461013f578063de8e903314610152578063f14fcbc81461016557600080fd5b80633cf5040a146100825780636ac5db19146100a8578063701fd0f1146100c7575b600080fd5b610095610090366004610722565b610178565b6040519081526020015b60405180910390f35b6000546100b59060ff1681565b60405160ff909116815260200161009f565b6100da6100d5366004610722565b6101bd565b005b6101196100ea3660046106f4565b6001602081905260009182526040909120805491015467ffffffffffffffff811690600160401b900460ff1683565b6040805193845267ffffffffffffffff909216602084015215159082015260600161009f565b61009561014d36600461073a565b6104c7565b6100da61016036600461073a565b610514565b6100da610173366004610722565b61067d565b6040516bffffffffffffffffffffffff193060601b16602082015260348101829052600090605401604051602081830303815290604052805190602001209050919050565b3360009081526001602081905260409091200154600160401b900460ff161561023c5760405162461bcd60e51b815260206004820152602660248201527f436f6d6d697452657665616c3a3a72657665616c3a20416c72656164792072656044820152651d99585b195960d21b60648201526084015b60405180910390fd5b336000908152600160208190526040909120908101805460ff60401b1916600160401b1790555461026c82610178565b146102df5760405162461bcd60e51b815260206004820152603960248201527f436f6d6d697452657665616c3a3a72657665616c3a2052657665616c6564206860448201527f61736820646f6573206e6f74206d6174636820636f6d6d6974000000000000006064820152608401610233565b336000908152600160208190526040909120015467ffffffffffffffff90811643909116116103815760405162461bcd60e51b815260206004820152604260248201527f436f6d6d697452657665616c3a3a72657665616c3a2052657665616c20616e6460448201527f20636f6d6d69742068617070656e6564206f6e207468652073616d6520626c6f606482015261636b60f01b608482015260a401610233565b33600090815260016020819052604090912001546103aa9067ffffffffffffffff1660fa61075b565b67ffffffffffffffff164367ffffffffffffffff16111561041d5760405162461bcd60e51b815260206004820152602760248201527f436f6d6d697452657665616c3a3a72657665616c3a2052657665616c656420746044820152666f6f206c61746560c81b6064820152608401610233565b33600090815260016020818152604080842090920154825167ffffffffffffffff909116408183018190528184018690528351808303850181526060909201909352805191012082549192909182919061047a9060ff1683610793565b604080513381526020810188905260ff83168183015290519192507f8265058f07599e98b8c38fb966d3c8c0e96c7bee83f2e0021399e00fac8b45ed919081900360600190a15050505050565b6040516bffffffffffffffffffffffff193060601b166020820152603481018390526054810182905260009060740160405160208183030381529060405280519060200120905092915050565b3360009081526001602081905260409091200154600160401b900460ff16156105945760405162461bcd60e51b815260206004820152602c60248201527f436f6d6d697452657665616c3a3a72657665616c416e737765723a20416c726560448201526b18591e481c995d99585b195960a21b6064820152608401610233565b336000908152600160208190526040909120908101805460ff60401b1916600160401b179055546105c583836104c7565b146106385760405162461bcd60e51b815260206004820152603f60248201527f436f6d6d697452657665616c3a3a72657665616c416e737765723a205265766560448201527f616c6564206861736820646f6573206e6f74206d6174636820636f6d6d6974006064820152608401610233565b60408051338152602081018490529081018290527f8bed02c4d61e56ed1d90657e7a0ba48f15cca20fcc2899d7235221b2cb0423a69060600160405180910390a15050565b33600081815260016020818152604092839020858155909101805468ffffffffffffffffff191667ffffffffffffffff43169081179091558251938452908301849052908201527f3c1a1f8f38335b17f751c6da4ba7d1865f26b3997535176f5080de9fad8916039060600160405180910390a150565b600060208284031215610705578081fd5b81356001600160a01b038116811461071b578182fd5b9392505050565b600060208284031215610733578081fd5b5035919050565b6000806040838503121561074c578081fd5b50508035926020909101359150565b600067ffffffffffffffff80831681851680830382111561078a57634e487b7160e01b84526011600452602484fd5b01949350505050565b6000826107ae57634e487b7160e01b81526012600452602481fd5b50069056fea264697066735822122064f20a46d8b9d49a8408e060de35aa06c49a357eeb48c0bcb9ca06802662feec64736f6c63430008040033",
  "linkReferences": {},
  "deployedLinkReferences": {}
}