{
  "_format": "hh-sol-artifact-1",
  "contractName": "Market",
  "sourceName": "src/Market.sol",
  "abi": [
    {
      "inputs": [],
      "stateMutability": "nonpayable",
      "type": "constructor"
    },
    {
      "anonymous": false,
      "inputs": [
        {
          "indexed": true,
          "internalType": "uint256",
          "name": "tokenId",
          "type": "uint256"
        },
        {
          "components": [
            {
              "internalType": "uint256",
              "name": "amount",
              "type": "uint256"
            },
            {
              "internalType": "address",
              "name": "currency",
              "type": "address"
            }
          ],
          "indexed": false,
          "internalType": "struct IMarket.Ask",
          "name": "ask",
          "type": "tuple"
        }
      ],
      "name": "AskCreated",
      "type": "event"
    },
    {
      "anonymous": false,
      "inputs": [
        {
          "indexed": true,
          "internalType": "uint256",
          "name": "tokenId",
          "type": "uint256"
        },
        {
          "components": [
            {
              "internalType": "uint256",
              "name": "amount",
              "type": "uint256"
            },
            {
              "internalType": "address",
              "name": "currency",
              "type": "address"
            }
          ],
          "indexed": false,
          "internalType": "struct IMarket.Ask",
          "name": "ask",
          "type": "tuple"
        }
      ],
      "name": "AskRemoved",
      "type": "event"
    },
    {
      "anonymous": false,
      "inputs": [
        {
          "indexed": true,
          "internalType": "uint256",
          "name": "tokenId",
          "type": "uint256"
        },
        {
          "components": [
            {
              "internalType": "uint256",
              "name": "amount",
              "type": "uint256"
            },
            {
              "internalType": "address",
              "name": "currency",
              "type": "address"
            },
            {
              "internalType": "address",
              "name": "bidder",
              "type": "address"
            },
            {
              "internalType": "address",
              "name": "recipient",
              "type": "address"
            },
            {
              "components": [
                {
                  "internalType": "uint256",
                  "name": "value",
                  "type": "uint256"
                }
              ],
              "internalType": "struct Decimal.D256",
              "name": "sellOnShare",
              "type": "tuple"
            }
          ],
          "indexed": false,
          "internalType": "struct IMarket.Bid",
          "name": "bid",
          "type": "tuple"
        }
      ],
      "name": "BidCreated",
      "type": "event"
    },
    {
      "anonymous": false,
      "inputs": [
        {
          "indexed": true,
          "internalType": "uint256",
          "name": "tokenId",
          "type": "uint256"
        },
        {
          "components": [
            {
              "internalType": "uint256",
              "name": "amount",
              "type": "uint256"
            },
            {
              "internalType": "address",
              "name": "currency",
              "type": "address"
            },
            {
              "internalType": "address",
              "name": "bidder",
              "type": "address"
            },
            {
              "internalType": "address",
              "name": "recipient",
              "type": "address"
            },
            {
              "components": [
                {
                  "internalType": "uint256",
                  "name": "value",
                  "type": "uint256"
                }
              ],
              "internalType": "struct Decimal.D256",
              "name": "sellOnShare",
              "type": "tuple"
            }
          ],
          "indexed": false,
          "internalType": "struct IMarket.Bid",
          "name": "bid",
          "type": "tuple"
        }
      ],
      "name": "BidFinalized",
      "type": "event"
    },
    {
      "anonymous": false,
      "inputs": [
        {
          "indexed": true,
          "internalType": "uint256",
          "name": "tokenId",
          "type": "uint256"
        },
        {
          "components": [
            {
              "internalType": "uint256",
              "name": "amount",
              "type": "uint256"
            },
            {
              "internalType": "address",
              "name": "currency",
              "type": "address"
            },
            {
              "internalType": "address",
              "name": "bidder",
              "type": "address"
            },
            {
              "internalType": "address",
              "name": "recipient",
              "type": "address"
            },
            {
              "components": [
                {
                  "internalType": "uint256",
                  "name": "value",
                  "type": "uint256"
                }
              ],
              "internalType": "struct Decimal.D256",
              "name": "sellOnShare",
              "type": "tuple"
            }
          ],
          "indexed": false,
          "internalType": "struct IMarket.Bid",
          "name": "bid",
          "type": "tuple"
        }
      ],
      "name": "BidRemoved",
      "type": "event"
    },
    {
      "anonymous": false,
      "inputs": [
        {
          "indexed": true,
          "internalType": "uint256",
          "name": "tokenId",
          "type": "uint256"
        },
        {
          "components": [
            {
              "components": [
                {
                  "internalType": "uint256",
                  "name": "value",
                  "type": "uint256"
                }
              ],
              "internalType": "struct Decimal.D256",
              "name": "prevOwner",
              "type": "tuple"
            },
            {
              "components": [
                {
                  "internalType": "uint256",
                  "name": "value",
                  "type": "uint256"
                }
              ],
              "internalType": "struct Decimal.D256",
              "name": "creator",
              "type": "tuple"
            },
            {
              "components": [
                {
                  "internalType": "uint256",
                  "name": "value",
                  "type": "uint256"
                }
              ],
              "internalType": "struct Decimal.D256",
              "name": "owner",
              "type": "tuple"
            }
          ],
          "indexed": false,
          "internalType": "struct IMarket.BidShares",
          "name": "bidShares",
          "type": "tuple"
        }
      ],
      "name": "BidShareUpdated",
      "type": "event"
    },
    {
      "inputs": [
        {
          "internalType": "uint256",
          "name": "tokenId",
          "type": "uint256"
        },
        {
          "components": [
            {
              "internalType": "uint256",
              "name": "amount",
              "type": "uint256"
            },
            {
              "internalType": "address",
              "name": "currency",
              "type": "address"
            },
            {
              "internalType": "address",
              "name": "bidder",
              "type": "address"
            },
            {
              "internalType": "address",
              "name": "recipient",
              "type": "address"
            },
            {
              "components": [
                {
                  "internalType": "uint256",
                  "name": "value",
                  "type": "uint256"
                }
              ],
              "internalType": "struct Decimal.D256",
              "name": "sellOnShare",
              "type": "tuple"
            }
          ],
          "internalType": "struct IMarket.Bid",
          "name": "expectedBid",
          "type": "tuple"
        }
      ],
      "name": "acceptBid",
      "outputs": [],
      "stateMutability": "nonpayable",
      "type": "function"
    },
    {
      "inputs": [
        {
          "internalType": "uint256",
          "name": "tokenId",
          "type": "uint256"
        },
        {
          "internalType": "address",
          "name": "bidder",
          "type": "address"
        }
      ],
      "name": "bidForTokenBidder",
      "outputs": [
        {
          "components": [
            {
              "internalType": "uint256",
              "name": "amount",
              "type": "uint256"
            },
            {
              "internalType": "address",
              "name": "currency",
              "type": "address"
            },
            {
              "internalType": "address",
              "name": "bidder",
              "type": "address"
            },
            {
              "internalType": "address",
              "name": "recipient",
              "type": "address"
            },
            {
              "components": [
                {
                  "internalType": "uint256",
                  "name": "value",
                  "type": "uint256"
                }
              ],
              "internalType": "struct Decimal.D256",
              "name": "sellOnShare",
              "type": "tuple"
            }
          ],
          "internalType": "struct IMarket.Bid",
          "name": "",
          "type": "tuple"
        }
      ],
      "stateMutability": "view",
      "type": "function"
    },
    {
      "inputs": [
        {
          "internalType": "uint256",
          "name": "tokenId",
          "type": "uint256"
        }
      ],
      "name": "bidSharesForToken",
      "outputs": [
        {
          "components": [
            {
              "components": [
                {
                  "internalType": "uint256",
                  "name": "value",
                  "type": "uint256"
                }
              ],
              "internalType": "struct Decimal.D256",
              "name": "prevOwner",
              "type": "tuple"
            },
            {
              "components": [
                {
                  "internalType": "uint256",
                  "name": "value",
                  "type": "uint256"
                }
              ],
              "internalType": "struct Decimal.D256",
              "name": "creator",
              "type": "tuple"
            },
            {
              "components": [
                {
                  "internalType": "uint256",
                  "name": "value",
                  "type": "uint256"
                }
              ],
              "internalType": "struct Decimal.D256",
              "name": "owner",
              "type": "tuple"
            }
          ],
          "internalType": "struct IMarket.BidShares",
          "name": "",
          "type": "tuple"
        }
      ],
      "stateMutability": "view",
      "type": "function"
    },
    {
      "inputs": [
        {
          "internalType": "address",
          "name": "mediaContractAddress",
          "type": "address"
        }
      ],
      "name": "configure",
      "outputs": [],
      "stateMutability": "nonpayable",
      "type": "function"
    },
    {
      "inputs": [
        {
          "internalType": "uint256",
          "name": "tokenId",
          "type": "uint256"
        }
      ],
      "name": "currentAskForToken",
      "outputs": [
        {
          "components": [
            {
              "internalType": "uint256",
              "name": "amount",
              "type": "uint256"
            },
            {
              "internalType": "address",
              "name": "currency",
              "type": "address"
            }
          ],
          "internalType": "struct IMarket.Ask",
          "name": "",
          "type": "tuple"
        }
      ],
      "stateMutability": "view",
      "type": "function"
    },
    {
      "inputs": [
        {
          "internalType": "uint256",
          "name": "tokenId",
          "type": "uint256"
        },
        {
          "internalType": "uint256",
          "name": "bidAmount",
          "type": "uint256"
        }
      ],
      "name": "isValidBid",
      "outputs": [
        {
          "internalType": "bool",
          "name": "",
          "type": "bool"
        }
      ],
      "stateMutability": "view",
      "type": "function"
    },
    {
      "inputs": [
        {
          "components": [
            {
              "components": [
                {
                  "internalType": "uint256",
                  "name": "value",
                  "type": "uint256"
                }
              ],
              "internalType": "struct Decimal.D256",
              "name": "prevOwner",
              "type": "tuple"
            },
            {
              "components": [
                {
                  "internalType": "uint256",
                  "name": "value",
                  "type": "uint256"
                }
              ],
              "internalType": "struct Decimal.D256",
              "name": "creator",
              "type": "tuple"
            },
            {
              "components": [
                {
                  "internalType": "uint256",
                  "name": "value",
                  "type": "uint256"
                }
              ],
              "internalType": "struct Decimal.D256",
              "name": "owner",
              "type": "tuple"
            }
          ],
          "internalType": "struct IMarket.BidShares",
          "name": "bidShares",
          "type": "tuple"
        }
      ],
      "name": "isValidBidShares",
      "outputs": [
        {
          "internalType": "bool",
          "name": "",
          "type": "bool"
        }
      ],
      "stateMutability": "pure",
      "type": "function"
    },
    {
      "inputs": [],
      "name": "mediaContract",
      "outputs": [
        {
          "internalType": "address",
          "name": "",
          "type": "address"
        }
      ],
      "stateMutability": "view",
      "type": "function"
    },
    {
      "inputs": [
        {
          "internalType": "uint256",
          "name": "tokenId",
          "type": "uint256"
        }
      ],
      "name": "removeAsk",
      "outputs": [],
      "stateMutability": "nonpayable",
      "type": "function"
    },
    {
      "inputs": [
        {
          "internalType": "uint256",
          "name": "tokenId",
          "type": "uint256"
        },
        {
          "internalType": "address",
          "name": "bidder",
          "type": "address"
        }
      ],
      "name": "removeBid",
      "outputs": [],
      "stateMutability": "nonpayable",
      "type": "function"
    },
    {
      "inputs": [
        {
          "internalType": "uint256",
          "name": "tokenId",
          "type": "uint256"
        },
        {
          "components": [
            {
              "internalType": "uint256",
              "name": "amount",
              "type": "uint256"
            },
            {
              "internalType": "address",
              "name": "currency",
              "type": "address"
            }
          ],
          "internalType": "struct IMarket.Ask",
          "name": "ask",
          "type": "tuple"
        }
      ],
      "name": "setAsk",
      "outputs": [],
      "stateMutability": "nonpayable",
      "type": "function"
    },
    {
      "inputs": [
        {
          "internalType": "uint256",
          "name": "tokenId",
          "type": "uint256"
        },
        {
          "components": [
            {
              "internalType": "uint256",
              "name": "amount",
              "type": "uint256"
            },
            {
              "internalType": "address",
              "name": "currency",
              "type": "address"
            },
            {
              "internalType": "address",
              "name": "bidder",
              "type": "address"
            },
            {
              "internalType": "address",
              "name": "recipient",
              "type": "address"
            },
            {
              "components": [
                {
                  "internalType": "uint256",
                  "name": "value",
                  "type": "uint256"
                }
              ],
              "internalType": "struct Decimal.D256",
              "name": "sellOnShare",
              "type": "tuple"
            }
          ],
          "internalType": "struct IMarket.Bid",
          "name": "bid",
          "type": "tuple"
        },
        {
          "internalType": "address",
          "name": "spender",
          "type": "address"
        }
      ],
      "name": "setBid",
      "outputs": [],
      "stateMutability": "nonpayable",
      "type": "function"
    },
    {
      "inputs": [
        {
          "internalType": "uint256",
          "name": "tokenId",
          "type": "uint256"
        },
        {
          "components": [
            {
              "components": [
                {
                  "internalType": "uint256",
                  "name": "value",
                  "type": "uint256"
                }
              ],
              "internalType": "struct Decimal.D256",
              "name": "prevOwner",
              "type": "tuple"
            },
            {
              "components": [
                {
                  "internalType": "uint256",
                  "name": "value",
                  "type": "uint256"
                }
              ],
              "internalType": "struct Decimal.D256",
              "name": "creator",
              "type": "tuple"
            },
            {
              "components": [
                {
                  "internalType": "uint256",
                  "name": "value",
                  "type": "uint256"
                }
              ],
              "internalType": "struct Decimal.D256",
              "name": "owner",
              "type": "tuple"
            }
          ],
          "internalType": "struct IMarket.BidShares",
          "name": "bidShares",
          "type": "tuple"
        }
      ],
      "name": "setBidShares",
      "outputs": [],
      "stateMutability": "nonpayable",
      "type": "function"
    },
    {
      "inputs": [
        {
          "components": [
            {
              "internalType": "uint256",
              "name": "value",
              "type": "uint256"
            }
          ],
          "internalType": "struct Decimal.D256",
          "name": "sharePercentage",
          "type": "tuple"
        },
        {
          "internalType": "uint256",
          "name": "amount",
          "type": "uint256"
        }
      ],
      "name": "splitShare",
      "outputs": [
        {
          "internalType": "uint256",
          "name": "",
          "type": "uint256"
        }
      ],
      "stateMutability": "pure",
      "type": "function"
    }
  ],
  "bytecode": "0x608060405234801561001057600080fd5b50600180546001600160a01b03191633179055611f7d806100326000396000f3fe608060405234801561001057600080fd5b50600436106100ea5760003560e01c8063776a08351161008c578063ba33939911610066578063ba3393991461025d578063bdb5869814610270578063eb55683a14610283578063f9ce05821461029657600080fd5b8063776a083514610209578063ad827dc41461021c578063b920c1231461023c57600080fd5b80634e21f9c0116100c85780634e21f9c01461013f578063578064f61461016a57806362f24b70146101e357806375cb2672146101f657600080fd5b806302e8fe13146100ef57806328220f3514610117578063360636eb1461012c575b600080fd5b6101026100fd366004611ca4565b6102ce565b60405190151581526020015b60405180910390f35b61012a610125366004611a9d565b61038f565b005b61010261013a366004611a58565b610440565b600054610152906001600160a01b031681565b6040516001600160a01b03909116815260200161010e565b6101bf610178366004611a9d565b604080518082019091526000808252602082015250600090815260046020908152604091829020825180840190935280548352600101546001600160a01b03169082015290565b60408051825181526020928301516001600160a01b0316928101929092520161010e565b61012a6101f1366004611afc565b61047e565b61012a610204366004611a00565b61058f565b61012a610217366004611acd565b6106c9565b61022f61022a366004611acd565b610863565b60405161010e9190611d4b565b61024f61024a366004611a73565b61090b565b60405190815260200161010e565b61012a61026b366004611ba8565b610929565b61012a61027e366004611bde565b610b6d565b61012a610291366004611b7c565b6110cc565b6102a96102a4366004611a9d565b6111d4565b604080518251518152602080840151519082015291810151519082015260600161010e565b6000806102da846111d4565b90506102e581610440565b6103425760405162461bcd60e51b8152602060048201526024808201527f4d61726b65743a20496e76616c6964206269642073686172657320666f72207460448201526337b5b2b760e11b60648201526084015b60405180910390fd5b8215801590610385575061038261035d82604001518561090b565b61037c61036e84600001518761090b565b61037c85602001518861090b565b9061125f565b83145b9150505b92915050565b6000546001600160a01b031633146103b95760405162461bcd60e51b815260040161033990611d14565b807fbf58f6d6c7d7c6efc69e7444efa93ed26d7cdc0e82e12a37df96f36a367561df600460008481526020019081526020016000206040516104149190815481526001909101546001600160a01b0316602082015260400190565b60405180910390a2600090815260046020526040812090815560010180546001600160a01b0319169055565b60006104596104516012600a611e0f565b60649061126b565b825151604084015151602085015151610477929161037c919061125f565b1492915050565b6000546001600160a01b031633146104a85760405162461bcd60e51b815260040161033990611d14565b6104b68282600001516102ce565b6105125760405162461bcd60e51b815260206004820152602760248201527f4d61726b65743a2041736b20696e76616c696420666f722073686172652073706044820152666c697474696e6760c81b6064820152608401610339565b60008281526004602090815260409182902083518082558483018051600190930180546001600160a01b0319166001600160a01b039485161790558451918252519091169181019190915283917ff7347cb9e91d8cbe995b51920ba5f92cbf84a9e09cbed3cd7a739fef4d1d07cf91015b60405180910390a25050565b6001546001600160a01b031633146105de5760405162461bcd60e51b815260206004820152601260248201527126b0b935b2ba1d1027b7363c9037bbb732b960711b6044820152606401610339565b6000546001600160a01b0316156106375760405162461bcd60e51b815260206004820152601a60248201527f4d61726b65743a20416c726561647920636f6e666967757265640000000000006044820152606401610339565b6001600160a01b0381166106a75760405162461bcd60e51b815260206004820152603160248201527f4d61726b65743a2063616e6e6f7420736574206d6564696120636f6e7472616360448201527074206173207a65726f206164647265737360781b6064820152608401610339565b600080546001600160a01b0319166001600160a01b0392909216919091179055565b6000546001600160a01b031633146106f35760405162461bcd60e51b815260040161033990611d14565b60008281526002602090815260408083206001600160a01b03808616855292529091208054600182015491929091168161077d5760405162461bcd60e51b815260206004820152602560248201527f4d61726b65743a2063616e6e6f742072656d6f76652062696420616d6f756e746044820152640206f6620360dc1b6064820152608401610339565b6000819050857fcbebd567b8a5c57f63ec61dc46746aab28daff6bdd1f4a6a0a305c17fa5465c9856040516107ee91908154815260018201546001600160a01b0390811660208301526002830154811660408301526003830154166060820152600490910154608082015260a00190565b60405180910390a260008681526002602081815260408084206001600160a01b03808b168652925283208381556001810180546001600160a01b031990811690915592810180548416905560038101805490931690925560049091019190915561085b9082168685611277565b505050505050565b61089d6040805160a08101825260008082526020808301829052828401829052606083018290528351908101909352825290608082015290565b5060009182526002602081815260408085206001600160a01b039485168652825293849020845160a081018652815481526001820154851681840152928101548416838601526003810154909316606083015283519081019093526004909101548252608081019190915290565b6000610922606461091c84866112da565b906112f6565b9392505050565b6000546001600160a01b031633146109535760405162461bcd60e51b815260040161033990611d14565b6000828152600260205260408082209082906109759060608601908601611a00565b6001600160a01b0390811682526020808301939093526040918201600020825160a0810184528154815260018201548316818601526002820154831681850152600382015490921660608301528251938401909252600490910154825260808101919091528051909150610a2b5760405162461bcd60e51b815260206004820152601e60248201527f4d61726b65743a2063616e6e6f742061636365707420626964206f66203000006044820152606401610339565b80518235148015610a605750610a476040830160208401611a00565b6001600160a01b031681602001516001600160a01b0316145b8015610a7457506080818101515190830135145b8015610aa45750610a8b6080830160608401611a00565b6001600160a01b031681606001516001600160a01b0316145b610af05760405162461bcd60e51b815260206004820152601d60248201527f4d61726b65743a20556e65787065637465642062696420666f756e642e0000006044820152606401610339565b610afe8382600001516102ce565b610b5a5760405162461bcd60e51b815260206004820152602760248201527f4d61726b65743a2042696420696e76616c696420666f722073686172652073706044820152666c697474696e6760c81b6064820152608401610339565b610b68838260400151611302565b505050565b6000546001600160a01b03163314610b975760405162461bcd60e51b815260040161033990611d14565b6000838152600360209081526040918290208251608081018452815460608201908152815283518084018552600183015481528184015283519283018452600290910154825291820152610bf06104516012600a611e0f565b608084015151602083015151610c059161125f565b1115610c6b5760405162461bcd60e51b815260206004820152602f60248201527f4d61726b65743a2053656c6c206f6e2066656520696e76616c696420666f722060448201526e73686172652073706c697474696e6760881b6064820152608401610339565b60408301516001600160a01b0316610cd05760405162461bcd60e51b815260206004820152602260248201527f4d61726b65743a206269646465722063616e6e6f742062652030206164647265604482015261737360f01b6064820152608401610339565b8251610d1e5760405162461bcd60e51b815260206004820152601e60248201527f4d61726b65743a2063616e6e6f742062696420616d6f756e74206f66203000006044820152606401610339565b60208301516001600160a01b0316610d895760405162461bcd60e51b815260206004820152602860248201527f4d61726b65743a206269642063757272656e63792063616e6e6f742062652030604482015267206164647265737360c01b6064820152608401610339565b60608301516001600160a01b0316610df55760405162461bcd60e51b815260206004820152602960248201527f4d61726b65743a2062696420726563697069656e742063616e6e6f742062652060448201526830206164647265737360b81b6064820152608401610339565b6000848152600260209081526040808320868201516001600160a01b031684529091529020805415610e2f57610e2f8585604001516106c9565b60208401516040516370a0823160e01b81523060048201526000906001600160a01b038316906370a082319060240160206040518083038186803b158015610e7657600080fd5b505afa158015610e8a573d6000803e3d6000fd5b505050506040513d601f19601f82011682018060405250810190610eae9190611ab5565b8651909150610ecb906001600160a01b03841690879030906116e7565b6040516370a0823160e01b81523060048201526000906001600160a01b038416906370a082319060240160206040518083038186803b158015610f0d57600080fd5b505afa158015610f21573d6000803e3d6000fd5b505050506040513d601f19601f82011682018060405250810190610f459190611ab5565b90506040518060a00160405280610f65848461172590919063ffffffff16565b81526020898101516001600160a01b03908116828401526040808c0180518316828601526060808e01518416818701526080808f01519681019690965260008f8152600280875284822093518616825292865283902087518155948701516001860180549186166001600160a01b031992831617905587840151928601805493861693821693909317909255860151600385018054919094169116179091559290910151516004909101555188907f327bc9021bfbee403a11b13dd6c819999006aff090cc129f07e9f2840af38dd590611040908a90611d4b565b60405180910390a26000888152600460205260409020600101546001600160a01b0316158015906110945750600088815260046020908152604090912060010154908801516001600160a01b039081169116145b80156110af5750600088815260046020526040902054875110155b156110c2576110c2888860400151611302565b5050505050505050565b6000546001600160a01b031633146110f65760405162461bcd60e51b815260040161033990611d14565b6110ff81610440565b61115f5760405162461bcd60e51b815260206004820152602b60248201527f4d61726b65743a20496e76616c696420626964207368617265732c206d75737460448201526a02073756d20746f203130360ac1b6064820152608401610339565b6000828152600360209081526040918290208351518082558483018051516001840155858501805151600290940193909355845191825251519281019290925251519181019190915282907fdb88d4e96cb8697aaee5e575ee5f460817709a1dfcfbf7ba15192e90b5c86f9f90606001610583565b6112116040805160808101825260006060820181815282528251602080820185528282528084019190915283519081018452908152909182015290565b50600090815260036020908152604091829020825160808101845281546060820190815281528351808401855260018301548152818401528351928301845260029091015482529182015290565b60006109228284611d94565b60006109228284611eb7565b6040516001600160a01b038316602482015260448101829052610b6890849063a9059cbb60e01b906064015b60408051601f198184030181529190526020810180516001600160e01b03166001600160e01b031990931692909217909152611731565b80516000906109229084906112f16012600a611e0f565b611803565b60006109228284611dac565b60008281526002602081815260408084206001600160a01b038681168652908352818520825160a0810184528154815260018201548316818601908152958201548316818501526003808301548416606083015284518087018652600493840154815260808301528988529094528286209451955492516331a9108f60e11b815290810188905292949261141c9290911690636352211e9060240160206040518083038186803b1580156113b557600080fd5b505afa1580156113c9573d6000803e3d6000fd5b505050506040513d601f19601f820116820180604052508101906113ed9190611a1c565b604080516020810190915260028501548152855161140b919061090b565b6001600160a01b0384169190611277565b60005460405163e0fd045f60e01b8152600481018790526114b8916001600160a01b03169063e0fd045f9060240160206040518083038186803b15801561146257600080fd5b505afa158015611476573d6000803e3d6000fd5b505050506040513d601f19601f8201168201806040525081019061149a9190611a1c565b604080516020810190915260018501548152855161140b919061090b565b6000546040516304ec739360e51b815260048101879052611551916001600160a01b031690639d8e72609060240160206040518083038186803b1580156114fe57600080fd5b505afa158015611512573d6000803e3d6000fd5b505050506040513d601f19601f820116820180604052508101906115369190611a1c565b604080516020810190915284548152855161140b919061090b565b6000546060840151604051630f6b630f60e41b8152600481018890526001600160a01b03918216602482015291169063f6b630f090604401600060405180830381600087803b1580156115a357600080fd5b505af11580156115b7573d6000803e3d6000fd5b5050604080516020808201835260808801515160008b81526003909252929020600101549093508392506115fd91906115f790816104516012600a611e0f565b90611725565b905251600283810191825560808501515184556000878152602082815260408083206001600160a01b038a1684528252808320838155600180820180546001600160a01b0319908116909155958201805487169055600382018054909616909555600401929092558151865481529286015490830152915481830152905186917fdb88d4e96cb8697aaee5e575ee5f460817709a1dfcfbf7ba15192e90b5c86f9f919081900360600190a2847fb6ef177c7a6f32b283a49b5e0463a39240cdaa278028dfb219480d050e8ee54c846040516116d89190611d4b565b60405180910390a25050505050565b6040516001600160a01b038085166024830152831660448201526064810182905261171f9085906323b872dd60e01b906084016112a3565b50505050565b60006109228284611ed6565b6000611786826040518060400160405280602081526020017f5361666545524332303a206c6f772d6c6576656c2063616c6c206661696c6564815250856001600160a01b031661181b9092919063ffffffff16565b805190915015610b6857808060200190518101906117a49190611a38565b610b685760405162461bcd60e51b815260206004820152602a60248201527f5361666545524332303a204552433230206f7065726174696f6e20646964206e6044820152691bdd081cdd58d8d9595960b21b6064820152608401610339565b60006118138261091c868661126b565b949350505050565b6060611813848460008585843b6118745760405162461bcd60e51b815260206004820152601d60248201527f416464726573733a2063616c6c20746f206e6f6e2d636f6e74726163740000006044820152606401610339565b600080866001600160a01b031685876040516118909190611cc5565b60006040518083038185875af1925050503d80600081146118cd576040519150601f19603f3d011682016040523d82523d6000602084013e6118d2565b606091505b50915091506118e28282866118ed565b979650505050505050565b606083156118fc575081610922565b82511561190c5782518084602001fd5b8160405162461bcd60e51b81526004016103399190611ce1565b803561193181611f2f565b919050565b600060608284031215611947578081fd5b6040516060810181811067ffffffffffffffff8211171561197657634e487b7160e01b83526041600452602483fd5b60405290508061198684846119b3565b815261199584602085016119b3565b60208201526119a784604085016119b3565b60408201525092915050565b6000602082840312156119c4578081fd5b6040516020810181811067ffffffffffffffff821117156119f357634e487b7160e01b83526041600452602483fd5b6040529135825250919050565b600060208284031215611a11578081fd5b813561092281611f2f565b600060208284031215611a2d578081fd5b815161092281611f2f565b600060208284031215611a49578081fd5b81518015158114610922578182fd5b600060608284031215611a69578081fd5b6109228383611936565b60008060408385031215611a85578081fd5b611a8f84846119b3565b946020939093013593505050565b600060208284031215611aae578081fd5b5035919050565b600060208284031215611ac6578081fd5b5051919050565b60008060408385031215611adf578182fd5b823591506020830135611af181611f2f565b809150509250929050565b6000808284036060811215611b0f578283fd5b833592506040601f1982011215611b24578182fd5b506040516040810181811067ffffffffffffffff82111715611b5457634e487b7160e01b83526041600452602483fd5b604090815260208501358252840135611b6c81611f2f565b6020820152919491935090915050565b60008060808385031215611b8e578182fd5b82359150611b9f8460208501611936565b90509250929050565b60008082840360c0811215611bbb578283fd5b8335925060a0601f1982011215611bd0578182fd5b506020830190509250929050565b600080600083850360e0811215611bf3578182fd5b8435935060a0601f1982011215611c08578182fd5b5060405160a0810181811067ffffffffffffffff82111715611c3857634e487b7160e01b83526041600452602483fd5b604090815260208601358252850135611c5081611f2f565b60208201526060850135611c6381611f2f565b60408201526080850135611c7681611f2f565b6060820152611c888660a087016119b3565b60808201529150611c9b60c08501611926565b90509250925092565b60008060408385031215611cb6578182fd5b50508035926020909101359150565b60008251611cd7818460208701611eed565b9190910192915050565b6020815260008251806020840152611d00816040850160208701611eed565b601f01601f19169190910160400192915050565b6020808252601b908201527f4d61726b65743a204f6e6c79206d6564696120636f6e74726163740000000000604082015260600190565b815181526020808301516001600160a01b039081169183019190915260408084015182169083015260608084015190911690820152608091820151519181019190915260a00190565b60008219821115611da757611da7611f19565b500190565b600082611dc757634e487b7160e01b81526012600452602481fd5b500490565b600181815b80851115611e07578160001904821115611ded57611ded611f19565b80851615611dfa57918102915b93841c9390800290611dd1565b509250929050565b60006109228383600082611e2557506001610389565b81611e3257506000610389565b8160018114611e485760028114611e5257611e6e565b6001915050610389565b60ff841115611e6357611e63611f19565b50506001821b610389565b5060208310610133831016604e8410600b8410161715611e91575081810a610389565b611e9b8383611dcc565b8060001904821115611eaf57611eaf611f19565b029392505050565b6000816000190483118215151615611ed157611ed1611f19565b500290565b600082821015611ee857611ee8611f19565b500390565b60005b83811015611f08578181015183820152602001611ef0565b8381111561171f5750506000910152565b634e487b7160e01b600052601160045260246000fd5b6001600160a01b0381168114611f4457600080fd5b5056fea264697066735822122065555a01090c888899f4a052ff6f4d17d3b78112863f503807ac7fa48edb41eb64736f6c63430008040033",
  "linkReferences": {},
  "deployedLinkReferences": {}
}