{
  "address": "0xC2b11836723C621a22A43ace8616Cb21c4c9ddd5",
  "abi": [
    {
      "inputs": [],
      "name": "NotCurrentWearer",
      "type": "error"
    },
    {
      "anonymous": false,
      "inputs": [
        {
          "indexed": false,
          "internalType": "uint8",
          "name": "version",
          "type": "uint8"
        }
      ],
      "name": "Initialized",
      "type": "event"
    },
    {
      "anonymous": false,
      "inputs": [
        {
          "indexed": true,
          "internalType": "address",
          "name": "previousOwner",
          "type": "address"
        },
        {
          "indexed": true,
          "internalType": "address",
          "name": "newOwner",
          "type": "address"
        }
      ],
      "name": "OwnershipTransferred",
      "type": "event"
    },
    {
      "inputs": [],
      "name": "owner",
      "outputs": [
        {
          "internalType": "address",
          "name": "",
          "type": "address"
        }
      ],
      "stateMutability": "view",
      "type": "function"
    },
    {
      "inputs": [],
      "name": "renounceOwnership",
      "outputs": [],
      "stateMutability": "nonpayable",
      "type": "function"
    },
    {
      "inputs": [
        {
          "internalType": "bytes",
          "name": "initializeParams",
          "type": "bytes"
        }
      ],
      "name": "setUp",
      "outputs": [],
      "stateMutability": "nonpayable",
      "type": "function"
    },
    {
      "inputs": [
        {
          "internalType": "bytes4",
          "name": "interfaceId",
          "type": "bytes4"
        }
      ],
      "name": "supportsInterface",
      "outputs": [
        {
          "internalType": "bool",
          "name": "",
          "type": "bool"
        }
      ],
      "stateMutability": "view",
      "type": "function"
    },
    {
      "inputs": [
        {
          "internalType": "address",
          "name": "newOwner",
          "type": "address"
        }
      ],
      "name": "transferOwnership",
      "outputs": [],
      "stateMutability": "nonpayable",
      "type": "function"
    },
    {
      "inputs": [
        {
          "components": [
            {
              "internalType": "address",
              "name": "currentWearer",
              "type": "address"
            },
            {
              "internalType": "contract IHats",
              "name": "hatsProtocol",
              "type": "address"
            },
            {
              "internalType": "uint256",
              "name": "hatId",
              "type": "uint256"
            },
            {
              "internalType": "address",
              "name": "nominatedWearer",
              "type": "address"
            }
          ],
          "internalType": "struct IDAOAutonomousAdminV1.TriggerStartArgs",
          "name": "args",
          "type": "tuple"
        }
      ],
      "name": "triggerStartNextTerm",
      "outputs": [],
      "stateMutability": "nonpayable",
      "type": "function"
    }
  ],
  "transactionHash": "0x213f19d6203ff3e4704589042cc97fc2e50cce28d980f97951272d9152502837",
  "args": [],
  "numDeployments": 2,
  "solcInputHash": "66a499447138fb18e27539a94476e96d",
  "bytecode": "0x6080604052348015600f57600080fd5b506107858061001f6000396000f3fe608060405234801561001057600080fd5b50600436106100625760003560e01c806301ffc9a7146100675780630ac4a8e81461008f578063715018a6146100a45780638da5cb5b146100ac578063a4f9edbf146100c7578063f2fde38b146100da575b600080fd5b61007a6100753660046105c3565b6100ed565b60405190151581526020015b60405180910390f35b6100a261009d3660046105f4565b610124565b005b6100a261037c565b6033546040516001600160a01b039091168152602001610086565b6100a26100d5366004610625565b610390565b6100a26100e83660046106f3565b61049e565b60006001600160e01b03198216630158951d60e31b148061011e57506301ffc9a760e01b6001600160e01b03198316145b92915050565b600061013660408301602084016106f3565b6001600160a01b0316638c07607783604001356040518263ffffffff1660e01b815260040161016791815260200190565b602060405180830381865afa158015610184573d6000803e3d6000fd5b505050506040513d601f19601f820116820180604052508101906101a89190610710565b9050806001600160a01b0316637dcc80546040518163ffffffff1660e01b8152600401600060405180830381600087803b1580156101e557600080fd5b505af11580156101f9573d6000803e3d6000fd5b5061020e9250505060408301602084016106f3565b6001600160a01b0316633fa9d544604084013561022e60208601866106f3565b6040516001600160e01b031960e085901b16815260048101929092526001600160a01b031660248201526044016020604051808303816000875af115801561027a573d6000803e3d6000fd5b505050506040513d601f19601f8201168201806040525081019061029e919061072d565b506102ac60208301836106f3565b6001600160a01b03166102c560808401606085016106f3565b6001600160a01b031614610378576102e360408301602084016106f3565b6001600160a01b031663641f776e604084013561030660808601606087016106f3565b6040516001600160e01b031960e085901b16815260048101929092526001600160a01b031660248201526044016020604051808303816000875af1158015610352573d6000803e3d6000fd5b505050506040513d601f19601f82011682018060405250810190610376919061072d565b505b5050565b610384610517565b61038e6000610571565b565b600054610100900460ff16158080156103b05750600054600160ff909116105b806103ca5750303b1580156103ca575060005460ff166001145b6104325760405162461bcd60e51b815260206004820152602e60248201527f496e697469616c697a61626c653a20636f6e747261637420697320616c72656160448201526d191e481a5b9a5d1a585b1a5e995960921b60648201526084015b60405180910390fd5b6000805460ff191660011790558015610455576000805461ff0019166101001790555b8015610378576000805461ff0019169055604051600181527f7f26b83ff96e1f2b6a682f133852f6798a09c465da95921460cefb38474024989060200160405180910390a15050565b6104a6610517565b6001600160a01b03811661050b5760405162461bcd60e51b815260206004820152602660248201527f4f776e61626c653a206e6577206f776e657220697320746865207a65726f206160448201526564647265737360d01b6064820152608401610429565b61051481610571565b50565b6033546001600160a01b0316331461038e5760405162461bcd60e51b815260206004820181905260248201527f4f776e61626c653a2063616c6c6572206973206e6f7420746865206f776e65726044820152606401610429565b603380546001600160a01b038381166001600160a01b0319831681179093556040519116919082907f8be0079c531659141344cd1fd0a4f28419497f9722a3daafe3b4186f6b6457e090600090a35050565b6000602082840312156105d557600080fd5b81356001600160e01b0319811681146105ed57600080fd5b9392505050565b6000608082840312801561060757600080fd5b509092915050565b634e487b7160e01b600052604160045260246000fd5b60006020828403121561063757600080fd5b813567ffffffffffffffff81111561064e57600080fd5b8201601f8101841361065f57600080fd5b803567ffffffffffffffff8111156106795761067961060f565b604051601f8201601f19908116603f0116810167ffffffffffffffff811182821017156106a8576106a861060f565b6040528181528282016020018610156106c057600080fd5b81602084016020830137600091810160200191909152949350505050565b6001600160a01b038116811461051457600080fd5b60006020828403121561070557600080fd5b81356105ed816106de565b60006020828403121561072257600080fd5b81516105ed816106de565b60006020828403121561073f57600080fd5b815180151581146105ed57600080fdfea2646970667358221220c1d33e6037328de94526cd6179ba6a274454f0df8794ef4f1bc4dbcdfee5806464736f6c634300081c0033",
  "devdoc": {
    "events": {
      "Initialized(uint8)": {
        "details": "Triggered when the contract has been initialized or reinitialized."
      }
    },
    "kind": "dev",
    "methods": {
      "owner()": {
        "details": "Returns the address of the current owner."
      },
      "renounceOwnership()": {
        "details": "Leaves the contract without owner. It will not be possible to call `onlyOwner` functions anymore. Can only be called by the current owner. NOTE: Renouncing ownership will leave the contract without an owner, thereby removing any functionality that is only available to the owner."
      },
      "supportsInterface(bytes4)": {
        "details": "See {IERC165-supportsInterface}."
      },
      "transferOwnership(address)": {
        "details": "Transfers ownership of the contract to a new account (`newOwner`). Can only be called by the current owner."
      }
    },
    "version": 1
  },
  "userdoc": {
    "kind": "user",
    "methods": {},
    "version": 1
  },
  "storageLayout": {
    "storage": [
      {
        "astId": 149,
        "contract": "contracts/autonomous-admin/DAOAutonomousAdminV1.sol:DAOAutonomousAdminV1",
        "label": "_initialized",
        "offset": 0,
        "slot": "0",
        "type": "t_uint8"
      },
      {
        "astId": 152,
        "contract": "contracts/autonomous-admin/DAOAutonomousAdminV1.sol:DAOAutonomousAdminV1",
        "label": "_initializing",
        "offset": 1,
        "slot": "0",
        "type": "t_bool"
      },
      {
        "astId": 577,
        "contract": "contracts/autonomous-admin/DAOAutonomousAdminV1.sol:DAOAutonomousAdminV1",
        "label": "__gap",
        "offset": 0,
        "slot": "1",
        "type": "t_array(t_uint256)50_storage"
      },
      {
        "astId": 21,
        "contract": "contracts/autonomous-admin/DAOAutonomousAdminV1.sol:DAOAutonomousAdminV1",
        "label": "_owner",
        "offset": 0,
        "slot": "51",
        "type": "t_address"
      },
      {
        "astId": 141,
        "contract": "contracts/autonomous-admin/DAOAutonomousAdminV1.sol:DAOAutonomousAdminV1",
        "label": "__gap",
        "offset": 0,
        "slot": "52",
        "type": "t_array(t_uint256)49_storage"
      }
    ],
    "types": {
      "t_address": {
        "encoding": "inplace",
        "label": "address",
        "numberOfBytes": "20"
      },
      "t_array(t_uint256)49_storage": {
        "base": "t_uint256",
        "encoding": "inplace",
        "label": "uint256[49]",
        "numberOfBytes": "1568"
      },
      "t_array(t_uint256)50_storage": {
        "base": "t_uint256",
        "encoding": "inplace",
        "label": "uint256[50]",
        "numberOfBytes": "1600"
      },
      "t_bool": {
        "encoding": "inplace",
        "label": "bool",
        "numberOfBytes": "1"
      },
      "t_uint256": {
        "encoding": "inplace",
        "label": "uint256",
        "numberOfBytes": "32"
      },
      "t_uint8": {
        "encoding": "inplace",
        "label": "uint8",
        "numberOfBytes": "1"
      }
    }
  }
}