{
  "address": "0xA5B3Bb30C80BFa32E2e28f3BfE1de0730fD506A4",
  "abi": [
    {
      "inputs": [],
      "name": "VERSION",
      "outputs": [
        {
          "internalType": "uint16",
          "name": "",
          "type": "uint16"
        }
      ],
      "stateMutability": "view",
      "type": "function"
    },
    {
      "inputs": [],
      "name": "getVersion",
      "outputs": [
        {
          "internalType": "uint16",
          "name": "",
          "type": "uint16"
        }
      ],
      "stateMutability": "pure",
      "type": "function"
    },
    {
      "inputs": [
        {
          "internalType": "bytes4",
          "name": "interfaceId",
          "type": "bytes4"
        }
      ],
      "name": "supportsInterface",
      "outputs": [
        {
          "internalType": "bool",
          "name": "",
          "type": "bool"
        }
      ],
      "stateMutability": "view",
      "type": "function"
    },
    {
      "inputs": [
        {
          "internalType": "address",
          "name": "",
          "type": "address"
        },
        {
          "internalType": "address",
          "name": "lightAccountOwner",
          "type": "address"
        },
        {
          "internalType": "address",
          "name": "votingContract",
          "type": "address"
        },
        {
          "internalType": "bytes",
          "name": "callData",
          "type": "bytes"
        }
      ],
      "name": "validateOperation",
      "outputs": [
        {
          "internalType": "bool",
          "name": "",
          "type": "bool"
        }
      ],
      "stateMutability": "view",
      "type": "function"
    }
  ],
  "transactionHash": "0xfe6c113ab5541b86533bc75eef30f7d4d8022365ca95b3ca3dbec1a5944b49a4",
  "args": [],
  "numDeployments": 3,
  "solcInputHash": "402a67e06595e77085b5b2729c7fa191",
  "bytecode": "0x6080604052348015600f57600080fd5b506108db8061001f6000396000f3fe608060405234801561001057600080fd5b506004361061004c5760003560e01c806301ffc9a7146100515780630d8e6e2c14610079578063d7c7141c1461008f578063ffa1ad74146100a2575b600080fd5b61006461005f3660046104c4565b6100aa565b60405190151581526020015b60405180910390f35b60015b60405161ffff9091168152602001610070565b61006461009d36600461050d565b6100d5565b61007c600181565b60006001600160e01b0319821663d638ddbb60e01b14806100cf57506100cf8261048f565b92915050565b6000634e2addad60e01b6100e983856105b7565b6001600160e01b0319161461010057506000610486565b6000808080610112866004818a6105ef565b81019061011f9190610703565b9350935093509350805182511461013d576000945050505050610486565b60028360ff161115610156576000945050505050610486565b6040516355a9dbd960e01b815263ffffffff851660048201526000906001600160a01b038a16906355a9dbd990602401602060405180830381865afa1580156101a3573d6000803e3d6000fd5b505050506040513d601f19601f820116820180604052508101906101c791906107f9565b63ffffffff169050806000036101e557600095505050505050610486565b60405163b2958b3160e01b815263ffffffff861660048201526001600160a01b038a169063b2958b3190602401602060405180830381865afa15801561022f573d6000803e3d6000fd5b505050506040513d601f19601f820116820180604052508101906102539190610816565b1561026657600095505050505050610486565b6000805b845181101561046357600085828151811061028757610287610838565b6020026020010151905060008583815181106102a5576102a5610838565b602090810291909101015160405163250aa68360e01b81526001600160a01b038481166004830152919250908e169063250aa68390602401602060405180830381865afa1580156102fa573d6000803e3d6000fd5b505050506040513d601f19601f8201168201806040525081019061031e919061084e565b6103289085610867565b60405163c909c3b160e01b815263ffffffff8b1660048201526001600160a01b03848116602483015260448201849052919550908e169063c909c3b190606401602060405180830381865afa158015610385573d6000803e3d6000fd5b505050506040513d601f19601f820116820180604052508101906103a99190610816565b156103c05760009950505050505050505050610486565b8d6001600160a01b0316826001600160a01b0316636352211e836040518263ffffffff1660e01b81526004016103f891815260200190565b602060405180830381865afa158015610415573d6000803e3d6000fd5b505050506040513d601f19601f820116820180604052508101906104399190610888565b6001600160a01b0316146104595760009950505050505050505050610486565b505060010161026a565b508060000361047b5760009650505050505050610486565b600196505050505050505b95945050505050565b60006001600160e01b031982166303639b8b60e21b14806100cf57506301ffc9a760e01b6001600160e01b03198316146100cf565b6000602082840312156104d657600080fd5b81356001600160e01b0319811681146104ee57600080fd5b9392505050565b6001600160a01b038116811461050a57600080fd5b50565b60008060008060006080868803121561052557600080fd5b8535610530816104f5565b94506020860135610540816104f5565b93506040860135610550816104f5565b9250606086013567ffffffffffffffff81111561056c57600080fd5b8601601f8101881361057d57600080fd5b803567ffffffffffffffff81111561059457600080fd5b8860208284010111156105a657600080fd5b959894975092955050506020019190565b80356001600160e01b031981169060048410156105e8576001600160e01b0319600485900360031b81901b82161691505b5092915050565b600080858511156105ff57600080fd5b8386111561060c57600080fd5b5050820193919092039150565b63ffffffff8116811461050a57600080fd5b634e487b7160e01b600052604160045260246000fd5b604051601f8201601f1916810167ffffffffffffffff8111828210171561066a5761066a61062b565b604052919050565b600067ffffffffffffffff82111561068c5761068c61062b565b5060051b60200190565b600082601f8301126106a757600080fd5b81356106ba6106b582610672565b610641565b8082825260208201915060208360051b8601019250858311156106dc57600080fd5b602085015b838110156106f95780358352602092830192016106e1565b5095945050505050565b6000806000806080858703121561071957600080fd5b843561072481610619565b9350602085013560ff8116811461073a57600080fd5b9250604085013567ffffffffffffffff81111561075657600080fd5b8501601f8101871361076757600080fd5b80356107756106b582610672565b8082825260208201915060208360051b85010192508983111561079757600080fd5b6020840193505b828410156107c25783356107b1816104f5565b82526020938401939091019061079e565b9450505050606085013567ffffffffffffffff8111156107e157600080fd5b6107ed87828801610696565b91505092959194509250565b60006020828403121561080b57600080fd5b81516104ee81610619565b60006020828403121561082857600080fd5b815180151581146104ee57600080fd5b634e487b7160e01b600052603260045260246000fd5b60006020828403121561086057600080fd5b5051919050565b808201808211156100cf57634e487b7160e01b600052601160045260246000fd5b60006020828403121561089a57600080fd5b81516104ee816104f556fea26469706673582212203572af0523139f1c8a94a5bce4a611307b6d830dfcd6478471273d3cf888eea264736f6c634300081c0033",
  "devdoc": {
    "details": "Validates vote operations for LinearERC721VotingV1 to ensure they will succeed",
    "kind": "dev",
    "methods": {
      "getVersion()": {
        "details": "Returns the version number of this contract implementation Inheriting contracts MUST override this function."
      },
      "supportsInterface(bytes4)": {
        "details": "ERC165 interface support"
      },
      "validateOperation(address,address,address,bytes)": {
        "details": "Validates if a vote operation will succeed",
        "params": {
          "callData": "The encoded vote function call",
          "lightAccountOwner": "The account attempting to vote",
          "votingContract": "The address of the voting contract"
        },
        "returns": {
          "_0": "isValid True if the vote operation will succeed"
        }
      }
    },
    "title": "LinearERC721VotingV1ValidatorV1",
    "version": 1
  },
  "userdoc": {
    "kind": "user",
    "methods": {},
    "version": 1
  },
  "storageLayout": {
    "storage": [],
    "types": null
  }
}