{
  "address": "0x065bDFeE6d7b70b00bbF629aF76362fcDc693e04",
  "abi": [
    {
      "inputs": [],
      "stateMutability": "nonpayable",
      "type": "constructor"
    },
    {
      "inputs": [],
      "name": "AlreadyVoted",
      "type": "error"
    },
    {
      "inputs": [],
      "name": "HatAlreadyWhitelisted",
      "type": "error"
    },
    {
      "inputs": [],
      "name": "HatNotWhitelisted",
      "type": "error"
    },
    {
      "inputs": [],
      "name": "InvalidBasisNumerator",
      "type": "error"
    },
    {
      "inputs": [],
      "name": "InvalidCallData",
      "type": "error"
    },
    {
      "inputs": [],
      "name": "InvalidInnerCallDataLength",
      "type": "error"
    },
    {
      "inputs": [],
      "name": "InvalidProposal",
      "type": "error"
    },
    {
      "inputs": [],
      "name": "InvalidQuorumNumerator",
      "type": "error"
    },
    {
      "inputs": [],
      "name": "InvalidSmartAccount",
      "type": "error"
    },
    {
      "inputs": [],
      "name": "InvalidTokenAddress",
      "type": "error"
    },
    {
      "inputs": [],
      "name": "InvalidUserOpCallDataLength",
      "type": "error"
    },
    {
      "inputs": [],
      "name": "InvalidVote",
      "type": "error"
    },
    {
      "inputs": [],
      "name": "MissingHatsContract",
      "type": "error"
    },
    {
      "inputs": [],
      "name": "NoHatsWhitelisted",
      "type": "error"
    },
    {
      "inputs": [],
      "name": "OnlyAzorius",
      "type": "error"
    },
    {
      "inputs": [],
      "name": "VotingEnded",
      "type": "error"
    },
    {
      "anonymous": false,
      "inputs": [
        {
          "indexed": true,
          "internalType": "address",
          "name": "azoriusModule",
          "type": "address"
        }
      ],
      "name": "AzoriusSet",
      "type": "event"
    },
    {
      "anonymous": false,
      "inputs": [
        {
          "indexed": false,
          "internalType": "uint256",
          "name": "basisNumerator",
          "type": "uint256"
        }
      ],
      "name": "BasisNumeratorUpdated",
      "type": "event"
    },
    {
      "anonymous": false,
      "inputs": [
        {
          "indexed": false,
          "internalType": "uint256",
          "name": "hatId",
          "type": "uint256"
        }
      ],
      "name": "HatUnwhitelisted",
      "type": "event"
    },
    {
      "anonymous": false,
      "inputs": [
        {
          "indexed": false,
          "internalType": "uint256",
          "name": "hatId",
          "type": "uint256"
        }
      ],
      "name": "HatWhitelisted",
      "type": "event"
    },
    {
      "anonymous": false,
      "inputs": [
        {
          "indexed": false,
          "internalType": "uint8",
          "name": "version",
          "type": "uint8"
        }
      ],
      "name": "Initialized",
      "type": "event"
    },
    {
      "anonymous": false,
      "inputs": [
        {
          "indexed": true,
          "internalType": "address",
          "name": "previousOwner",
          "type": "address"
        },
        {
          "indexed": true,
          "internalType": "address",
          "name": "newOwner",
          "type": "address"
        }
      ],
      "name": "OwnershipTransferred",
      "type": "event"
    },
    {
      "anonymous": false,
      "inputs": [
        {
          "indexed": false,
          "internalType": "uint32",
          "name": "proposalId",
          "type": "uint32"
        },
        {
          "indexed": false,
          "internalType": "uint32",
          "name": "votingEndBlock",
          "type": "uint32"
        }
      ],
      "name": "ProposalInitialized",
      "type": "event"
    },
    {
      "anonymous": false,
      "inputs": [
        {
          "indexed": false,
          "internalType": "uint256",
          "name": "quorumNumerator",
          "type": "uint256"
        }
      ],
      "name": "QuorumNumeratorUpdated",
      "type": "event"
    },
    {
      "anonymous": false,
      "inputs": [
        {
          "indexed": false,
          "internalType": "uint256",
          "name": "requiredProposerWeight",
          "type": "uint256"
        }
      ],
      "name": "RequiredProposerWeightUpdated",
      "type": "event"
    },
    {
      "anonymous": false,
      "inputs": [
        {
          "indexed": true,
          "internalType": "address",
          "name": "azoriusModule",
          "type": "address"
        },
        {
          "indexed": true,
          "internalType": "address",
          "name": "owner",
          "type": "address"
        }
      ],
      "name": "StrategySetUp",
      "type": "event"
    },
    {
      "anonymous": false,
      "inputs": [
        {
          "indexed": false,
          "internalType": "address",
          "name": "voter",
          "type": "address"
        },
        {
          "indexed": false,
          "internalType": "uint32",
          "name": "proposalId",
          "type": "uint32"
        },
        {
          "indexed": false,
          "internalType": "uint8",
          "name": "voteType",
          "type": "uint8"
        },
        {
          "indexed": false,
          "internalType": "uint256",
          "name": "weight",
          "type": "uint256"
        }
      ],
      "name": "Voted",
      "type": "event"
    },
    {
      "anonymous": false,
      "inputs": [
        {
          "indexed": true,
          "internalType": "uint32",
          "name": "proposalId",
          "type": "uint32"
        },
        {
          "indexed": false,
          "internalType": "uint256",
          "name": "votingEndBlock",
          "type": "uint256"
        },
        {
          "indexed": false,
          "internalType": "uint256",
          "name": "currentBlock",
          "type": "uint256"
        }
      ],
      "name": "VotingPeriodEnded",
      "type": "event"
    },
    {
      "anonymous": false,
      "inputs": [
        {
          "indexed": false,
          "internalType": "uint32",
          "name": "votingPeriod",
          "type": "uint32"
        }
      ],
      "name": "VotingPeriodUpdated",
      "type": "event"
    },
    {
      "inputs": [],
      "name": "BASIS_DENOMINATOR",
      "outputs": [
        {
          "internalType": "uint256",
          "name": "",
          "type": "uint256"
        }
      ],
      "stateMutability": "view",
      "type": "function"
    },
    {
      "inputs": [],
      "name": "QUORUM_DENOMINATOR",
      "outputs": [
        {
          "internalType": "uint256",
          "name": "",
          "type": "uint256"
        }
      ],
      "stateMutability": "view",
      "type": "function"
    },
    {
      "inputs": [],
      "name": "azoriusModule",
      "outputs": [
        {
          "internalType": "contract IAzorius",
          "name": "",
          "type": "address"
        }
      ],
      "stateMutability": "view",
      "type": "function"
    },
    {
      "inputs": [],
      "name": "basisNumerator",
      "outputs": [
        {
          "internalType": "uint256",
          "name": "",
          "type": "uint256"
        }
      ],
      "stateMutability": "view",
      "type": "function"
    },
    {
      "inputs": [
        {
          "internalType": "uint32",
          "name": "_proposalId",
          "type": "uint32"
        }
      ],
      "name": "getProposalPeriod",
      "outputs": [
        {
          "internalType": "uint32",
          "name": "",
          "type": "uint32"
        },
        {
          "internalType": "uint32",
          "name": "",
          "type": "uint32"
        }
      ],
      "stateMutability": "view",
      "type": "function"
    },
    {
      "inputs": [
        {
          "internalType": "uint32",
          "name": "_proposalId",
          "type": "uint32"
        }
      ],
      "name": "getProposalVotes",
      "outputs": [
        {
          "internalType": "uint256",
          "name": "noVotes",
          "type": "uint256"
        },
        {
          "internalType": "uint256",
          "name": "yesVotes",
          "type": "uint256"
        },
        {
          "internalType": "uint256",
          "name": "abstainVotes",
          "type": "uint256"
        },
        {
          "internalType": "uint32",
          "name": "startBlock",
          "type": "uint32"
        },
        {
          "internalType": "uint32",
          "name": "endBlock",
          "type": "uint32"
        },
        {
          "internalType": "uint256",
          "name": "votingSupply",
          "type": "uint256"
        }
      ],
      "stateMutability": "view",
      "type": "function"
    },
    {
      "inputs": [
        {
          "internalType": "uint32",
          "name": "_proposalId",
          "type": "uint32"
        }
      ],
      "name": "getProposalVotingSupply",
      "outputs": [
        {
          "internalType": "uint256",
          "name": "",
          "type": "uint256"
        }
      ],
      "stateMutability": "view",
      "type": "function"
    },
    {
      "inputs": [],
      "name": "getVersion",
      "outputs": [
        {
          "internalType": "uint16",
          "name": "",
          "type": "uint16"
        }
      ],
      "stateMutability": "view",
      "type": "function"
    },
    {
      "inputs": [
        {
          "internalType": "address",
          "name": "_voter",
          "type": "address"
        },
        {
          "internalType": "uint32",
          "name": "_proposalId",
          "type": "uint32"
        }
      ],
      "name": "getVotingWeight",
      "outputs": [
        {
          "internalType": "uint256",
          "name": "",
          "type": "uint256"
        }
      ],
      "stateMutability": "view",
      "type": "function"
    },
    {
      "inputs": [],
      "name": "getWhitelistedHatIds",
      "outputs": [
        {
          "internalType": "uint256[]",
          "name": "",
          "type": "uint256[]"
        }
      ],
      "stateMutability": "view",
      "type": "function"
    },
    {
      "inputs": [],
      "name": "governanceToken",
      "outputs": [
        {
          "internalType": "contract IVotes",
          "name": "",
          "type": "address"
        }
      ],
      "stateMutability": "view",
      "type": "function"
    },
    {
      "inputs": [
        {
          "internalType": "uint32",
          "name": "_proposalId",
          "type": "uint32"
        },
        {
          "internalType": "address",
          "name": "_address",
          "type": "address"
        }
      ],
      "name": "hasVoted",
      "outputs": [
        {
          "internalType": "bool",
          "name": "",
          "type": "bool"
        }
      ],
      "stateMutability": "view",
      "type": "function"
    },
    {
      "inputs": [],
      "name": "hatsContract",
      "outputs": [
        {
          "internalType": "contract IHats",
          "name": "",
          "type": "address"
        }
      ],
      "stateMutability": "view",
      "type": "function"
    },
    {
      "inputs": [
        {
          "internalType": "bytes",
          "name": "_data",
          "type": "bytes"
        }
      ],
      "name": "initializeProposal",
      "outputs": [],
      "stateMutability": "nonpayable",
      "type": "function"
    },
    {
      "inputs": [
        {
          "internalType": "uint32",
          "name": "_proposalId",
          "type": "uint32"
        }
      ],
      "name": "isPassed",
      "outputs": [
        {
          "internalType": "bool",
          "name": "",
          "type": "bool"
        }
      ],
      "stateMutability": "view",
      "type": "function"
    },
    {
      "inputs": [
        {
          "internalType": "address",
          "name": "_address",
          "type": "address"
        }
      ],
      "name": "isProposer",
      "outputs": [
        {
          "internalType": "bool",
          "name": "",
          "type": "bool"
        }
      ],
      "stateMutability": "view",
      "type": "function"
    },
    {
      "inputs": [
        {
          "internalType": "address",
          "name": "_address",
          "type": "address"
        }
      ],
      "name": "isWearingWhitelistedHat",
      "outputs": [
        {
          "internalType": "bool",
          "name": "",
          "type": "bool"
        }
      ],
      "stateMutability": "view",
      "type": "function"
    },
    {
      "inputs": [],
      "name": "lightAccountFactory",
      "outputs": [
        {
          "internalType": "contract ILightAccountFactory",
          "name": "",
          "type": "address"
        }
      ],
      "stateMutability": "view",
      "type": "function"
    },
    {
      "inputs": [
        {
          "internalType": "uint256",
          "name": "_yesVotes",
          "type": "uint256"
        },
        {
          "internalType": "uint256",
          "name": "_noVotes",
          "type": "uint256"
        }
      ],
      "name": "meetsBasis",
      "outputs": [
        {
          "internalType": "bool",
          "name": "",
          "type": "bool"
        }
      ],
      "stateMutability": "view",
      "type": "function"
    },
    {
      "inputs": [
        {
          "internalType": "uint256",
          "name": "_totalSupply",
          "type": "uint256"
        },
        {
          "internalType": "uint256",
          "name": "_yesVotes",
          "type": "uint256"
        },
        {
          "internalType": "uint256",
          "name": "_abstainVotes",
          "type": "uint256"
        }
      ],
      "name": "meetsQuorum",
      "outputs": [
        {
          "internalType": "bool",
          "name": "",
          "type": "bool"
        }
      ],
      "stateMutability": "view",
      "type": "function"
    },
    {
      "inputs": [],
      "name": "owner",
      "outputs": [
        {
          "internalType": "address",
          "name": "",
          "type": "address"
        }
      ],
      "stateMutability": "view",
      "type": "function"
    },
    {
      "inputs": [],
      "name": "quorumNumerator",
      "outputs": [
        {
          "internalType": "uint256",
          "name": "",
          "type": "uint256"
        }
      ],
      "stateMutability": "view",
      "type": "function"
    },
    {
      "inputs": [
        {
          "internalType": "uint32",
          "name": "_proposalId",
          "type": "uint32"
        }
      ],
      "name": "quorumVotes",
      "outputs": [
        {
          "internalType": "uint256",
          "name": "",
          "type": "uint256"
        }
      ],
      "stateMutability": "view",
      "type": "function"
    },
    {
      "inputs": [],
      "name": "renounceOwnership",
      "outputs": [],
      "stateMutability": "nonpayable",
      "type": "function"
    },
    {
      "inputs": [],
      "name": "requiredProposerWeight",
      "outputs": [
        {
          "internalType": "uint256",
          "name": "",
          "type": "uint256"
        }
      ],
      "stateMutability": "view",
      "type": "function"
    },
    {
      "inputs": [
        {
          "internalType": "address",
          "name": "_azoriusModule",
          "type": "address"
        }
      ],
      "name": "setAzorius",
      "outputs": [],
      "stateMutability": "nonpayable",
      "type": "function"
    },
    {
      "inputs": [
        {
          "internalType": "bytes",
          "name": "initializeParams",
          "type": "bytes"
        }
      ],
      "name": "setUp",
      "outputs": [],
      "stateMutability": "nonpayable",
      "type": "function"
    },
    {
      "inputs": [
        {
          "internalType": "bytes4",
          "name": "interfaceId",
          "type": "bytes4"
        }
      ],
      "name": "supportsInterface",
      "outputs": [
        {
          "internalType": "bool",
          "name": "",
          "type": "bool"
        }
      ],
      "stateMutability": "view",
      "type": "function"
    },
    {
      "inputs": [
        {
          "internalType": "address",
          "name": "newOwner",
          "type": "address"
        }
      ],
      "name": "transferOwnership",
      "outputs": [],
      "stateMutability": "nonpayable",
      "type": "function"
    },
    {
      "inputs": [
        {
          "internalType": "uint256",
          "name": "_hatId",
          "type": "uint256"
        }
      ],
      "name": "unwhitelistHat",
      "outputs": [],
      "stateMutability": "nonpayable",
      "type": "function"
    },
    {
      "inputs": [
        {
          "internalType": "uint256",
          "name": "_basisNumerator",
          "type": "uint256"
        }
      ],
      "name": "updateBasisNumerator",
      "outputs": [],
      "stateMutability": "nonpayable",
      "type": "function"
    },
    {
      "inputs": [
        {
          "internalType": "uint256",
          "name": "_quorumNumerator",
          "type": "uint256"
        }
      ],
      "name": "updateQuorumNumerator",
      "outputs": [],
      "stateMutability": "nonpayable",
      "type": "function"
    },
    {
      "inputs": [
        {
          "internalType": "uint256",
          "name": "_requiredProposerWeight",
          "type": "uint256"
        }
      ],
      "name": "updateRequiredProposerWeight",
      "outputs": [],
      "stateMutability": "nonpayable",
      "type": "function"
    },
    {
      "inputs": [
        {
          "internalType": "uint32",
          "name": "_votingPeriod",
          "type": "uint32"
        }
      ],
      "name": "updateVotingPeriod",
      "outputs": [],
      "stateMutability": "nonpayable",
      "type": "function"
    },
    {
      "inputs": [
        {
          "internalType": "uint32",
          "name": "_proposalId",
          "type": "uint32"
        },
        {
          "internalType": "uint8",
          "name": "_voteType",
          "type": "uint8"
        }
      ],
      "name": "vote",
      "outputs": [],
      "stateMutability": "nonpayable",
      "type": "function"
    },
    {
      "inputs": [
        {
          "internalType": "uint32",
          "name": "_proposalId",
          "type": "uint32"
        }
      ],
      "name": "votingEndBlock",
      "outputs": [
        {
          "internalType": "uint32",
          "name": "",
          "type": "uint32"
        }
      ],
      "stateMutability": "view",
      "type": "function"
    },
    {
      "inputs": [],
      "name": "votingPeriod",
      "outputs": [
        {
          "internalType": "uint32",
          "name": "",
          "type": "uint32"
        }
      ],
      "stateMutability": "view",
      "type": "function"
    },
    {
      "inputs": [
        {
          "internalType": "uint32",
          "name": "_proposalId",
          "type": "uint32"
        }
      ],
      "name": "votingPeriodEnded",
      "outputs": [
        {
          "internalType": "bool",
          "name": "",
          "type": "bool"
        }
      ],
      "stateMutability": "view",
      "type": "function"
    },
    {
      "inputs": [
        {
          "internalType": "uint256",
          "name": "_hatId",
          "type": "uint256"
        }
      ],
      "name": "whitelistHat",
      "outputs": [],
      "stateMutability": "nonpayable",
      "type": "function"
    }
  ],
  "transactionHash": "0xebe33402395ab0651f36800a416747c33e2631a70374368415e27e5357047540",
  "args": [],
  "numDeployments": 6,
  "solcInputHash": "23141815eaf29806874e288ef061ea39",
  "bytecode": "0x60806040523480156200001157600080fd5b506200001c62000054565b6200002662000054565b6200003062000054565b6200003a62000054565b6200004462000054565b6200004e62000054565b62000116565b600054610100900460ff1615620000c15760405162461bcd60e51b815260206004820152602760248201527f496e697469616c697a61626c653a20636f6e747261637420697320696e697469604482015266616c697a696e6760c81b606482015260840160405180910390fd5b60005460ff908116101562000114576000805460ff191660ff9081179091556040519081527f7f26b83ff96e1f2b6a682f133852f6798a09c465da95921460cefb38474024989060200160405180910390a15b565b61207280620001266000396000f3fe608060405234801561001057600080fd5b506004361061023d5760003560e01c80638081be911161013b578063a7713a70116100b8578063d3c22b381161007c578063d3c22b3814610549578063deb61c151461058d578063e8575a7f146105d6578063f2fde38b146105e9578063f96dae0a146105fc57600080fd5b8063a7713a70146104e8578063a77a81d0146104f1578063b2958b3114610504578063bf7e2c7f1461052d578063ca1dc30b1461053657600080fd5b806397e39fef116100ff57806397e39fef146104935780639bff4df4146104a65780639dd783c2146104af578063a09c4f68146104c2578063a4f9edbf146104d557600080fd5b80638081be91146103fc5780638a2f2c8a146104495780638da5cb5b1461045c578063918f84bf1461046d5780639767fb721461048057600080fd5b806344cfa6e5116101c95780636fef541a1161018d5780636fef541a146103fc578063715018a61461040657806372d75d761461040e57806374ec29a0146104235780637e902d571461043657600080fd5b806344cfa6e51461036857806353a8b3201461037b57806355a9dbd91461038e578063589fe72e146103be57806366b62955146103d157600080fd5b80630d8e6e2c116102105780630d8e6e2c146102cc5780631236af7c146102db57806333f48a5e146102ee57806337938ab31461030157806341e5c4121461031457600080fd5b806301ffc9a71461024257806302a251a31461026a57806306f3f9e61461029657806308453ad2146102ab575b600080fd5b610255610250366004611910565b61060f565b60405190151581526020015b60405180910390f35b60685461028190600160a01b900463ffffffff1681565b60405163ffffffff9091168152602001610261565b6102a96102a436600461193a565b610620565b005b6102be6102b9366004611965565b610634565b604051908152602001610261565b60405160018152602001610261565b6102be6102e9366004611965565b6106b7565b6102a96102fc366004611965565b6106dd565b6102a961030f366004611997565b6106ee565b61034b610322366004611965565b63ffffffff9081166000908152606a602052604090205480821692600160201b90910490911690565b6040805163ffffffff938416815292909116602083015201610261565b6102a961037636600461193a565b610740565b610255610389366004611965565b61085d565b61028161039c366004611965565b63ffffffff9081166000908152606a6020526040902054600160201b90041690565b6102556103cc366004611997565b6108ea565b6065546103e4906001600160a01b031681565b6040516001600160a01b039091168152602001610261565b6102be620f424081565b6102a96109c5565b6104166109d9565b60405161026191906119ef565b610255610431366004611997565b610a31565b606b546103e4906001600160a01b031681565b6102a961045736600461193a565b610a3c565b6033546001600160a01b03166103e4565b61025561047b366004611a02565b610a4d565b6102a961048e366004611a24565b610a7f565b606d546103e4906001600160a01b031681565b6102be60695481565b6102556104bd366004611a63565b610aa6565b6102a96104d036600461193a565b610ad8565b6102a96104e3366004611ad6565b610ae9565b6102be60665481565b6102a96104ff366004611ad6565b610bd4565b610255610512366004611965565b63ffffffff166000908152606c602052604090205460ff1690565b6102be60675481565b6102be610544366004611b6b565b610cba565b610255610557366004611b99565b63ffffffff82166000908152606a602090815260408083206001600160a01b038516845260040190915290205460ff1692915050565b6105a061059b366004611965565b610d4f565b6040805196875260208701959095529385019290925263ffffffff908116606085015216608083015260a082015260c001610261565b6102a96105e436600461193a565b610d9d565b6102a96105f7366004611997565b610dae565b6068546103e4906001600160a01b031681565b600061061a82610e29565b92915050565b610628610e4e565b61063181610ea8565b50565b60685463ffffffff8281166000908152606a6020526040808220549051632394e7a360e21b815292166004830152916001600160a01b031690638e539e8c90602401602060405180830381865afa158015610693573d6000803e3d6000fd5b505050506040513d601f19601f8201168201806040525081019061061a9190611bc7565b6000620f42406106c683610634565b6066546106d39190611bf6565b61061a9190611c0d565b6106e5610e4e565b61063181610f08565b6106f6610e4e565b606580546001600160a01b0319166001600160a01b0383169081179091556040517fac8d831a6ed53a98387842e08d9e0893c1d478f4a3710b254e22bd58c06b269090600090a250565b610748610e4e565b6000805b606e548110156108065782606e828154811061076a5761076a611c2f565b9060005260206000200154036107f457606e805461078a90600190611c45565b8154811061079a5761079a611c2f565b9060005260206000200154606e82815481106107b8576107b8611c2f565b600091825260209091200155606e8054806107d5576107d5611c58565b6001900381819060005260206000200160009055905560019150610806565b806107fe81611c6e565b91505061074c565b508061082557604051634b8d041f60e01b815260040160405180910390fd5b6040518281527ffcebee8b5aeaffbed7a0040c626c7f0c6319f022779a749d81fedda71d2a8a4b906020015b60405180910390a15050565b63ffffffff8082166000908152606a60205260408120549091600160201b90910416431180156108b957506108b961089483610634565b63ffffffff84166000908152606a602052604090206002810154600390910154610aa6565b801561061a575063ffffffff82166000908152606a60205260409020600281015460019091015461061a9190610a4d565b6000805b606e548110156109bc57606d54606e80546001600160a01b0390921691634352409a9186918590811061092357610923611c2f565b6000918252602090912001546040516001600160e01b031960e085901b1681526001600160a01b0390921660048301526024820152604401602060405180830381865afa158015610978573d6000803e3d6000fd5b505050506040513d601f19601f8201168201806040525081019061099c9190611c87565b156109aa5750600192915050565b806109b481611c6e565b9150506108ee565b50600092915050565b6109cd610e4e565b6109d76000610f5c565b565b6060606e805480602002602001604051908101604052809291908181526020018280548015610a2757602002820191906000526020600020905b815481526020019060010190808311610a13575b5050505050905090565b600061061a826108ea565b610a44610e4e565b61063181610fae565b6000620f42406067548385610a629190611ca9565b610a6c9190611bf6565b610a769190611c0d565b90921192915050565b6000610a8a33610fe3565b9050610aa1838284610a9c8588610cba565b611002565b505050565b6000620f424060665485610aba9190611bf6565b610ac49190611c0d565b610ace8385611ca9565b1015949350505050565b610ae0610e4e565b610631816112b0565b600080600080600080600080600089806020019051810190610b0b9190611d3c565b985098509850985098509850985098509850610b9e8989898960008a8a88604051602001610b8a9897969594939291906001600160a01b0398891681529688166020880152948716604087015263ffffffff93909316606086015260ff91909116608085015260a084015260c083015290911660e08201526101000190565b604051602081830303815290604052611372565b610bc88383604051602001610bb4929190611e05565b604051602081830303815290604052611436565b50505050505050505050565b6065546001600160a01b03163314610bff576040516358c30ce160e01b815260040160405180910390fd5b600081806020019051810190610c159190611e31565b606854909150600090610c3590600160a01b900463ffffffff1643611e4e565b63ffffffff8381166000818152606a6020908152604091829020805467ffffffffffffffff1916600160201b87871690810263ffffffff1916919091174390961695909517905581519283528201929092529192507f80d0ad93bba25e53bf67fa9f2d13df59f04795ec2f91b9b3c1f607666daf9d64910160405180910390a1505050565b60685463ffffffff8281166000908152606a6020526040808220549051630748d63560e31b81526001600160a01b03878116600483015291909316602484015290921690633a46b1a890604401602060405180830381865afa158015610d24573d6000803e3d6000fd5b505050506040513d601f19601f82011682018060405250810190610d489190611bc7565b9392505050565b63ffffffff8082166000908152606a6020526040812060018101546002820154600383015492549194909382821692600160201b900490911690610d9287610634565b905091939550919395565b610da5610e4e565b610631816114f6565b610db6610e4e565b6001600160a01b038116610e205760405162461bcd60e51b815260206004820152602660248201527f4f776e61626c653a206e6577206f776e657220697320746865207a65726f206160448201526564647265737360d01b60648201526084015b60405180910390fd5b61063181610f5c565b60006001600160e01b03198216632cfc661d60e11b148061061a575061061a82611566565b6033546001600160a01b031633146109d75760405162461bcd60e51b815260206004820181905260248201527f4f776e61626c653a2063616c6c6572206973206e6f7420746865206f776e65726044820152606401610e17565b620f4240811115610ecc57604051630d2a3fcb60e41b815260040160405180910390fd5b60668190556040518181527f0cc18e3862a55e514917eb8f248561dd65e0fbbba65f5468f203e92193635dd3906020015b60405180910390a150565b6068805463ffffffff60a01b1916600160a01b63ffffffff8416908102919091179091556040519081527f70770ce479f70673c3ed8fff63cfb758a6ffdddc30cab7c63d54c8d825e3948890602001610efd565b603380546001600160a01b038381166001600160a01b0319831681179093556040519116919082907f8be0079c531659141344cd1fd0a4f28419497f9722a3daafe3b4186f6b6457e090600090a35050565b60698190556040518181527f93deb5027728f04c9fd8d7bcea2efb36cc7a6a7876236649f2952de0aa89a01190602001610efd565b6000806000610ff184611571565b9150915081610d4857509192915050565b63ffffffff8085166000908152606a6020526040812054600160201b9004909116900361104257604051631dc0650160e31b815260040160405180910390fd5b63ffffffff8085166000908152606a6020526040902054600160201b9004164311156111115763ffffffff84166000908152606c602052604090205460ff166110f85763ffffffff8481166000818152606c60209081526040808320805460ff19166001179055606a825291829020548251600160201b9091049094168452439084015290917f69bc861e152f1fa6553952a0fbb45f7da9f0ea69ce59cc4098313d3ce6cf1e2e910160405180910390a26112aa565b604051637a19ed0560e01b815260040160405180910390fd5b63ffffffff84166000908152606a602090815260408083206001600160a01b038716845260040190915290205460ff161561115f57604051637c9a1cf960e01b815260040160405180910390fd5b63ffffffff84166000908152606a602090815260408083206001600160a01b03871684526004019091529020805460ff1916600117905560ff82166111d15763ffffffff84166000908152606a6020526040812060010180548392906111c6908490611ca9565b909155506112529050565b60001960ff8316016112055763ffffffff84166000908152606a6020526040812060020180548392906111c6908490611ca9565b60011960ff8316016112395763ffffffff84166000908152606a6020526040812060030180548392906111c6908490611ca9565b604051636aee863360e11b815260040160405180910390fd5b604080516001600160a01b038516815263ffffffff8616602082015260ff8416818301526060810183905290517fe82b577bd384111662dd034b9114cbe59b26ea201f009d385006518ed28bed819181900360800190a15b50505050565b60005b606e5481101561130c5781606e82815481106112d1576112d1611c2f565b9060005260206000200154036112fa5760405163634a456360e01b815260040160405180910390fd5b8061130481611c6e565b9150506112b3565b50606e80546001810182556000919091527f9930d9ff0dee0ef5ca2f7710ea66b8f84dd0f5f5351ecffe72b952cd9db7142a018190556040518181527f30590a8684cec4e5a2b48765f391c996b9a004652478a8f41dc46658ccb699ed90602001610efd565b600080600080600080600080888060200190518101906113929190611e72565b604080516001600160a01b03808b166020830152808a1692820192909252908716606082015263ffffffff8616608082015260a0810185905260c0810184905260e08101839052979f50959d50939b5091995097509550935091506114099061010001604051602081830303815290604052611684565b61142b81606b80546001600160a01b0319166001600160a01b03831617905550565b505050505050505050565b6000808280602001905181019061144d9190611f05565b90925090506001600160a01b0382166114795760405163101c05e560e21b815260040160405180910390fd5b606d80546001600160a01b0319166001600160a01b03841617905580516000036114b657604051632a2b50e760e01b815260040160405180910390fd5b60005b81518110156112aa576114e48282815181106114d7576114d7611c2f565b60200260200101516112b0565b806114ee81611c6e565b9150506114b9565b620f424081118061151357506115106002620f4240611c0d565b81105b15611531576040516302396b6b60e61b815260040160405180910390fd5b60678190556040518181527f406c076eac4d3dde1c5d55793e80239daa8c60ee971390ce3d9f90ca4206295390602001610efd565b600061061a82611881565b600080823b8082036115895750600093849350915050565b836001600160a01b0316638da5cb5b6040518163ffffffff1660e01b8152600401602060405180830381865afa9250505080156115e3575060408051601f3d908101601f191682019092526115e091810190611f56565b60015b6115f35750600093849350915050565b606b5460405163119709c360e31b81526001600160a01b038381166004830152600060248301819052921690638cb84e1890604401602060405180830381865afa158015611645573d6000803e3d6000fd5b505050506040513d601f19601f820116820180604052508101906116699190611f56565b6001600160a01b039081169616959095149590945092505050565b600054610100900460ff16158080156116a45750600054600160ff909116105b806116be5750303b1580156116be575060005460ff166001145b6117215760405162461bcd60e51b815260206004820152602e60248201527f496e697469616c697a61626c653a20636f6e747261637420697320616c72656160448201526d191e481a5b9a5d1a585b1a5e995960921b6064820152608401610e17565b6000805460ff191660011790558015611744576000805461ff0019166101001790555b6000806000806000806000888060200190518101906117639190611f73565b959c50939a5091985096509450925090506001600160a01b03861661179b57604051630f58058360e11b815260040160405180910390fd5b606880546001600160a01b0319166001600160a01b0388161790556117be6118b6565b6117c787610dae565b6117d0856106f6565b6117d982610ea8565b6117e2816114f6565b6117eb84610f08565b6117f483610fae565b866001600160a01b0316856001600160a01b03167fca32f512f02914f6bc16a49e786443029061b9adc5a987fd2f6efa56c0116a1660405160405180910390a350505050505050801561187d576000805461ff0019169055604051600181527f7f26b83ff96e1f2b6a682f133852f6798a09c465da95921460cefb384740249890602001610851565b5050565b60006001600160e01b031982166303639b8b60e21b148061061a57506301ffc9a760e01b6001600160e01b031983161461061a565b600054610100900460ff166118dd5760405162461bcd60e51b8152600401610e1790611ff1565b6109d7600054610100900460ff166119075760405162461bcd60e51b8152600401610e1790611ff1565b6109d733610f5c565b60006020828403121561192257600080fd5b81356001600160e01b031981168114610d4857600080fd5b60006020828403121561194c57600080fd5b5035919050565b63ffffffff8116811461063157600080fd5b60006020828403121561197757600080fd5b8135610d4881611953565b6001600160a01b038116811461063157600080fd5b6000602082840312156119a957600080fd5b8135610d4881611982565b600081518084526020808501945080840160005b838110156119e4578151875295820195908201906001016119c8565b509495945050505050565b602081526000610d4860208301846119b4565b60008060408385031215611a1557600080fd5b50508035926020909101359150565b60008060408385031215611a3757600080fd5b8235611a4281611953565b9150602083013560ff81168114611a5857600080fd5b809150509250929050565b600080600060608486031215611a7857600080fd5b505081359360208301359350604090920135919050565b634e487b7160e01b600052604160045260246000fd5b604051601f8201601f1916810167ffffffffffffffff81118282101715611ace57611ace611a8f565b604052919050565b60006020808385031215611ae957600080fd5b823567ffffffffffffffff80821115611b0157600080fd5b818501915085601f830112611b1557600080fd5b813581811115611b2757611b27611a8f565b611b39601f8201601f19168501611aa5565b91508082528684828501011115611b4f57600080fd5b8084840185840137600090820190930192909252509392505050565b60008060408385031215611b7e57600080fd5b8235611b8981611982565b91506020830135611a5881611953565b60008060408385031215611bac57600080fd5b8235611bb781611953565b91506020830135611a5881611982565b600060208284031215611bd957600080fd5b5051919050565b634e487b7160e01b600052601160045260246000fd5b808202811582820484141761061a5761061a611be0565b600082611c2a57634e487b7160e01b600052601260045260246000fd5b500490565b634e487b7160e01b600052603260045260246000fd5b8181038181111561061a5761061a611be0565b634e487b7160e01b600052603160045260246000fd5b600060018201611c8057611c80611be0565b5060010190565b600060208284031215611c9957600080fd5b81518015158114610d4857600080fd5b8082018082111561061a5761061a611be0565b600082601f830112611ccd57600080fd5b8151602067ffffffffffffffff821115611ce957611ce9611a8f565b8160051b611cf8828201611aa5565b9283528481018201928281019087851115611d1257600080fd5b83870192505b84831015611d3157825182529183019190830190611d18565b979650505050505050565b60008060008060008060008060006101208a8c031215611d5b57600080fd5b8951611d6681611982565b60208b0151909950611d7781611982565b60408b0151909850611d8881611982565b60608b0151909750611d9981611953565b8096505060808a0151945060a08a0151935060c08a0151611db981611982565b60e08b015190935067ffffffffffffffff811115611dd657600080fd5b611de28c828d01611cbc565b9250506101008a0151611df481611982565b809150509295985092959850929598565b6001600160a01b0383168152604060208201819052600090611e29908301846119b4565b949350505050565b600060208284031215611e4357600080fd5b8151610d4881611953565b63ffffffff818116838216019080821115611e6b57611e6b611be0565b5092915050565b600080600080600080600080610100898b031215611e8f57600080fd5b8851611e9a81611982565b60208a0151909850611eab81611982565b60408a0151909750611ebc81611982565b60608a0151909650611ecd81611953565b809550506080890151935060a0890151925060c0890151915060e0890151611ef481611982565b809150509295985092959890939650565b60008060408385031215611f1857600080fd5b8251611f2381611982565b602084015190925067ffffffffffffffff811115611f4057600080fd5b611f4c85828601611cbc565b9150509250929050565b600060208284031215611f6857600080fd5b8151610d4881611982565b600080600080600080600060e0888a031215611f8e57600080fd5b8751611f9981611982565b6020890151909750611faa81611982565b6040890151909650611fbb81611982565b6060890151909550611fcc81611953565b809450506080880151925060a0880151915060c0880151905092959891949750929550565b6020808252602b908201527f496e697469616c697a61626c653a20636f6e7472616374206973206e6f74206960408201526a6e697469616c697a696e6760a81b60608201526080019056fea264697066735822122076baeb802c9ba5e73cdf57b3481e2ac2eeb130f8fa1faf0b4870697f30de9df064736f6c63430008130033",
  "devdoc": {
    "errors": {
      "HatAlreadyWhitelisted()": [
        {
          "details": "Error thrown when attempting to whitelist a Hat that is already whitelisted."
        }
      ],
      "HatNotWhitelisted()": [
        {
          "details": "Error thrown when attempting to remove a Hat that is not whitelisted."
        }
      ],
      "MissingHatsContract()": [
        {
          "details": "Error thrown when the Hats contract address is missing."
        }
      ],
      "NoHatsWhitelisted()": [
        {
          "details": "Error thrown when no Hats are whitelisted."
        }
      ]
    },
    "events": {
      "HatUnwhitelisted(uint256)": {
        "details": "Emitted when a Hat is removed from the whitelist."
      },
      "HatWhitelisted(uint256)": {
        "details": "Emitted when a Hat is added to the whitelist."
      },
      "Initialized(uint8)": {
        "details": "Triggered when the contract has been initialized or reinitialized."
      }
    },
    "kind": "dev",
    "methods": {
      "constructor": {
        "details": "Constructor that disables initializers"
      },
      "getProposalVotes(uint32)": {
        "params": {
          "_proposalId": "id of the Proposal"
        },
        "returns": {
          "abstainVotes": "current count of \"ABSTAIN\" votes",
          "endBlock": "block number voting ends",
          "noVotes": "current count of \"NO\" votes",
          "startBlock": "block number voting starts",
          "yesVotes": "current count of \"YES\" votes"
        }
      },
      "getProposalVotingSupply(uint32)": {
        "params": {
          "_proposalId": "id of the Proposal"
        },
        "returns": {
          "_0": "uint256 voting supply snapshot for the given _proposalId"
        }
      },
      "getVersion()": {
        "details": "Returns the version number of this contract implementation Inheriting contracts MUST override this function."
      },
      "getVotingWeight(address,uint32)": {
        "params": {
          "_proposalId": "id of the Proposal",
          "_voter": "address of the voter"
        },
        "returns": {
          "_0": "uint256 the address' voting weight"
        }
      },
      "getWhitelistedHatIds()": {
        "details": "Returns the IDs of all whitelisted Hats.",
        "returns": {
          "_0": "uint256[] memory An array of whitelisted Hat IDs."
        }
      },
      "hasVoted(uint32,address)": {
        "params": {
          "_address": "address to check",
          "_proposalId": "id of the Proposal to check"
        },
        "returns": {
          "_0": "bool true if the address has voted on the Proposal, otherwise false"
        }
      },
      "initializeProposal(bytes)": {
        "params": {
          "_data": "arbitrary data to pass to this BaseStrategy"
        }
      },
      "isPassed(uint32)": {
        "params": {
          "_proposalId": "proposalId to check"
        },
        "returns": {
          "_0": "bool true if the proposal has passed, otherwise false"
        }
      },
      "isProposer(address)": {
        "params": {
          "_address": "address to check"
        },
        "returns": {
          "_0": "bool true if the address can submit a Proposal, otherwise false"
        }
      },
      "isWearingWhitelistedHat(address)": {
        "details": "Checks if an address is wearing any of the whitelisted Hats.",
        "params": {
          "_address": "The address to check for wearing whitelisted Hats."
        },
        "returns": {
          "_0": "bool Returns true if the address is wearing any of the whitelisted Hats, false otherwise."
        }
      },
      "meetsBasis(uint256,uint256)": {
        "params": {
          "_noVotes": "number of votes against",
          "_yesVotes": "number of votes in favor"
        },
        "returns": {
          "_0": "bool whether the yes votes meets the set basis"
        }
      },
      "meetsQuorum(uint256,uint256,uint256)": {
        "params": {
          "_abstainVotes": "number of votes abstaining",
          "_totalSupply": "the total supply of tokens",
          "_yesVotes": "number of votes in favor"
        },
        "returns": {
          "_0": "bool whether the total number of yes votes + abstain meets the quorum"
        }
      },
      "owner()": {
        "details": "Returns the address of the current owner."
      },
      "quorumVotes(uint32)": {
        "params": {
          "_proposalId": "The ID of the proposal to get quorum votes for"
        },
        "returns": {
          "_0": "uint256 The quantity of votes required to meet quorum"
        }
      },
      "renounceOwnership()": {
        "details": "Leaves the contract without owner. It will not be possible to call `onlyOwner` functions anymore. Can only be called by the current owner. NOTE: Renouncing ownership will leave the contract without an owner, thereby removing any functionality that is only available to the owner."
      },
      "setAzorius(address)": {
        "params": {
          "_azoriusModule": "address of the Azorius Safe module"
        }
      },
      "setUp(bytes)": {
        "params": {
          "initializeParams": "encoded initialization parameters: `address _owner`, `address _governanceToken`, `address _azoriusModule`, `uint32 _votingPeriod`, `uint256 _quorumNumerator`, `uint256 _basisNumerator`, `address _hatsContract`, `uint256[] _initialWhitelistedHats`, `address _lightAccountFactory`"
        }
      },
      "transferOwnership(address)": {
        "details": "Transfers ownership of the contract to a new account (`newOwner`). Can only be called by the current owner."
      },
      "unwhitelistHat(uint256)": {
        "params": {
          "_hatId": "The ID of the Hat to remove from the whitelist"
        }
      },
      "updateBasisNumerator(uint256)": {
        "params": {
          "_basisNumerator": "numerator to use"
        }
      },
      "updateQuorumNumerator(uint256)": {
        "params": {
          "_quorumNumerator": "numerator to use when calculating quorum (over 1,000,000)"
        }
      },
      "updateRequiredProposerWeight(uint256)": {
        "params": {
          "_requiredProposerWeight": "required token voting weight"
        }
      },
      "updateVotingPeriod(uint32)": {
        "params": {
          "_votingPeriod": "voting time period (in blocks)"
        }
      },
      "vote(uint32,uint8)": {
        "params": {
          "_proposalId": "id of the Proposal to vote on",
          "_voteType": "Proposal support as defined in VoteType (NO, YES, ABSTAIN)"
        }
      },
      "votingEndBlock(uint32)": {
        "params": {
          "_proposalId": "proposalId to check"
        },
        "returns": {
          "_0": "uint32 block number when voting ends on the Proposal"
        }
      },
      "votingPeriodEnded(uint32)": {
        "details": "Tracks whether a proposal's voting period has been officially marked as ended. This flag is set to true when the first vote attempt occurs after the voting end block, triggering a VotingPeriodEnded event. Used to ensure the event is emitted exactly once per proposal, and only if a vote has been attempted after the voting end block.",
        "params": {
          "_proposalId": "The ID of the proposal to check."
        },
        "returns": {
          "_0": "True if the voting period has ended and a vote has been attempted after the voting end block, false otherwise."
        }
      },
      "whitelistHat(uint256)": {
        "params": {
          "_hatId": "The ID of the Hat to whitelist"
        }
      }
    },
    "version": 1
  },
  "userdoc": {
    "errors": {
      "InvalidQuorumNumerator()": [
        {
          "notice": "Ensures the numerator cannot be larger than the denominator. "
        }
      ]
    },
    "kind": "user",
    "methods": {
      "BASIS_DENOMINATOR()": {
        "notice": "The denominator to use when calculating basis (1,000,000). "
      },
      "QUORUM_DENOMINATOR()": {
        "notice": "The denominator to use when calculating quorum (1,000,000). "
      },
      "basisNumerator()": {
        "notice": "The numerator to use when calculating basis (adjustable). "
      },
      "getProposalVotes(uint32)": {
        "notice": "Returns the current state of the specified Proposal."
      },
      "getProposalVotingSupply(uint32)": {
        "notice": "Returns a snapshot of total voting supply for a given Proposal.  Because token supplies can change, it is necessary to calculate quorum from the supply available at the time of the Proposal's creation, not when it is being voted on passes / fails."
      },
      "getVotingWeight(address,uint32)": {
        "notice": "Calculates the voting weight an address has for a specific Proposal."
      },
      "hasVoted(uint32,address)": {
        "notice": "Returns whether an address has voted on the specified Proposal."
      },
      "initializeProposal(bytes)": {
        "notice": "Called by the [Azorius](../Azorius.md) module. This notifies this  [BaseStrategy](../BaseStrategy.md) that a new Proposal has been created."
      },
      "isPassed(uint32)": {
        "notice": "Returns whether a Proposal has been passed."
      },
      "isProposer(address)": {
        "notice": "Returns whether the specified address can submit a Proposal with this [BaseStrategy](../BaseStrategy.md). This allows a BaseStrategy to place any limits it would like on who can create new Proposals, such as requiring a minimum token delegation."
      },
      "meetsBasis(uint256,uint256)": {
        "notice": "Calculates whether a vote meets its basis."
      },
      "meetsQuorum(uint256,uint256,uint256)": {
        "notice": "Calculates whether a vote meets quorum. This is calculated based on yes votes + abstain votes."
      },
      "quorumNumerator()": {
        "notice": "The numerator to use when calculating quorum (adjustable). "
      },
      "quorumVotes(uint32)": {
        "notice": "Calculates the total number of votes required for a proposal to meet quorum. "
      },
      "requiredProposerWeight()": {
        "notice": "Voting weight required to be able to submit Proposals. "
      },
      "setAzorius(address)": {
        "notice": "Sets the address of the [Azorius](../Azorius.md) contract this  [BaseStrategy](../BaseStrategy.md) is being used on."
      },
      "setUp(bytes)": {
        "notice": "Sets up the contract with its initial parameters."
      },
      "unwhitelistHat(uint256)": {
        "notice": "Removes a Hat from the whitelist for proposal creation."
      },
      "updateBasisNumerator(uint256)": {
        "notice": "Updates the `basisNumerator` for future Proposals."
      },
      "updateQuorumNumerator(uint256)": {
        "notice": "Updates the quorum required for future Proposals."
      },
      "updateRequiredProposerWeight(uint256)": {
        "notice": "Updates the voting weight required to submit new Proposals."
      },
      "updateVotingPeriod(uint32)": {
        "notice": "Updates the voting time period for new Proposals."
      },
      "vote(uint32,uint8)": {
        "notice": "Casts votes for a Proposal, equal to the caller's token delegation."
      },
      "votingEndBlock(uint32)": {
        "notice": "Returns the block number voting ends on a given Proposal."
      },
      "votingPeriod()": {
        "notice": "Number of blocks a new Proposal can be voted on. "
      },
      "whitelistHat(uint256)": {
        "notice": "Adds a Hat to the whitelist for proposal creation."
      }
    },
    "notice": "An [Azorius](./Azorius.md) [BaseStrategy](./BaseStrategy.md) implementation that enables linear (i.e. 1 to 1) ERC20 based token voting, with proposal creation restricted to users wearing whitelisted Hats.",
    "version": 1
  },
  "storageLayout": {
    "storage": [
      {
        "astId": 797,
        "contract": "contracts/azorius/strategies/LinearERC20VotingWithHatsProposalCreationV1.sol:LinearERC20VotingWithHatsProposalCreationV1",
        "label": "_initialized",
        "offset": 0,
        "slot": "0",
        "type": "t_uint8"
      },
      {
        "astId": 800,
        "contract": "contracts/azorius/strategies/LinearERC20VotingWithHatsProposalCreationV1.sol:LinearERC20VotingWithHatsProposalCreationV1",
        "label": "_initializing",
        "offset": 1,
        "slot": "0",
        "type": "t_bool"
      },
      {
        "astId": 3699,
        "contract": "contracts/azorius/strategies/LinearERC20VotingWithHatsProposalCreationV1.sol:LinearERC20VotingWithHatsProposalCreationV1",
        "label": "__gap",
        "offset": 0,
        "slot": "1",
        "type": "t_array(t_uint256)50_storage"
      },
      {
        "astId": 591,
        "contract": "contracts/azorius/strategies/LinearERC20VotingWithHatsProposalCreationV1.sol:LinearERC20VotingWithHatsProposalCreationV1",
        "label": "_owner",
        "offset": 0,
        "slot": "51",
        "type": "t_address"
      },
      {
        "astId": 711,
        "contract": "contracts/azorius/strategies/LinearERC20VotingWithHatsProposalCreationV1.sol:LinearERC20VotingWithHatsProposalCreationV1",
        "label": "__gap",
        "offset": 0,
        "slot": "52",
        "type": "t_array(t_uint256)49_storage"
      },
      {
        "astId": 12539,
        "contract": "contracts/azorius/strategies/LinearERC20VotingWithHatsProposalCreationV1.sol:LinearERC20VotingWithHatsProposalCreationV1",
        "label": "azoriusModule",
        "offset": 0,
        "slot": "101",
        "type": "t_contract(IAzorius)15220"
      },
      {
        "astId": 12428,
        "contract": "contracts/azorius/strategies/LinearERC20VotingWithHatsProposalCreationV1.sol:LinearERC20VotingWithHatsProposalCreationV1",
        "label": "quorumNumerator",
        "offset": 0,
        "slot": "102",
        "type": "t_uint256"
      },
      {
        "astId": 12639,
        "contract": "contracts/azorius/strategies/LinearERC20VotingWithHatsProposalCreationV1.sol:LinearERC20VotingWithHatsProposalCreationV1",
        "label": "basisNumerator",
        "offset": 0,
        "slot": "103",
        "type": "t_uint256"
      },
      {
        "astId": 15928,
        "contract": "contracts/azorius/strategies/LinearERC20VotingWithHatsProposalCreationV1.sol:LinearERC20VotingWithHatsProposalCreationV1",
        "label": "governanceToken",
        "offset": 0,
        "slot": "104",
        "type": "t_contract(IVotes)6971"
      },
      {
        "astId": 15931,
        "contract": "contracts/azorius/strategies/LinearERC20VotingWithHatsProposalCreationV1.sol:LinearERC20VotingWithHatsProposalCreationV1",
        "label": "votingPeriod",
        "offset": 20,
        "slot": "104",
        "type": "t_uint32"
      },
      {
        "astId": 15934,
        "contract": "contracts/azorius/strategies/LinearERC20VotingWithHatsProposalCreationV1.sol:LinearERC20VotingWithHatsProposalCreationV1",
        "label": "requiredProposerWeight",
        "offset": 0,
        "slot": "105",
        "type": "t_uint256"
      },
      {
        "astId": 15940,
        "contract": "contracts/azorius/strategies/LinearERC20VotingWithHatsProposalCreationV1.sol:LinearERC20VotingWithHatsProposalCreationV1",
        "label": "proposalVotes",
        "offset": 0,
        "slot": "106",
        "type": "t_mapping(t_uint256,t_struct(ProposalVotes)15925_storage)"
      },
      {
        "astId": 11143,
        "contract": "contracts/azorius/strategies/LinearERC20VotingWithHatsProposalCreationV1.sol:LinearERC20VotingWithHatsProposalCreationV1",
        "label": "lightAccountFactory",
        "offset": 0,
        "slot": "107",
        "type": "t_contract(ILightAccountFactory)18887"
      },
      {
        "astId": 15286,
        "contract": "contracts/azorius/strategies/LinearERC20VotingWithHatsProposalCreationV1.sol:LinearERC20VotingWithHatsProposalCreationV1",
        "label": "_votingPeriodEnded",
        "offset": 0,
        "slot": "108",
        "type": "t_mapping(t_uint32,t_bool)"
      },
      {
        "astId": 15628,
        "contract": "contracts/azorius/strategies/LinearERC20VotingWithHatsProposalCreationV1.sol:LinearERC20VotingWithHatsProposalCreationV1",
        "label": "hatsContract",
        "offset": 0,
        "slot": "109",
        "type": "t_contract(IHats)19612"
      },
      {
        "astId": 15632,
        "contract": "contracts/azorius/strategies/LinearERC20VotingWithHatsProposalCreationV1.sol:LinearERC20VotingWithHatsProposalCreationV1",
        "label": "whitelistedHatIds",
        "offset": 0,
        "slot": "110",
        "type": "t_array(t_uint256)dyn_storage"
      }
    ],
    "types": {
      "t_address": {
        "encoding": "inplace",
        "label": "address",
        "numberOfBytes": "20"
      },
      "t_array(t_uint256)49_storage": {
        "base": "t_uint256",
        "encoding": "inplace",
        "label": "uint256[49]",
        "numberOfBytes": "1568"
      },
      "t_array(t_uint256)50_storage": {
        "base": "t_uint256",
        "encoding": "inplace",
        "label": "uint256[50]",
        "numberOfBytes": "1600"
      },
      "t_array(t_uint256)dyn_storage": {
        "base": "t_uint256",
        "encoding": "dynamic_array",
        "label": "uint256[]",
        "numberOfBytes": "32"
      },
      "t_bool": {
        "encoding": "inplace",
        "label": "bool",
        "numberOfBytes": "1"
      },
      "t_contract(IAzorius)15220": {
        "encoding": "inplace",
        "label": "contract IAzorius",
        "numberOfBytes": "20"
      },
      "t_contract(IHats)19612": {
        "encoding": "inplace",
        "label": "contract IHats",
        "numberOfBytes": "20"
      },
      "t_contract(ILightAccountFactory)18887": {
        "encoding": "inplace",
        "label": "contract ILightAccountFactory",
        "numberOfBytes": "20"
      },
      "t_contract(IVotes)6971": {
        "encoding": "inplace",
        "label": "contract IVotes",
        "numberOfBytes": "20"
      },
      "t_mapping(t_address,t_bool)": {
        "encoding": "mapping",
        "key": "t_address",
        "label": "mapping(address => bool)",
        "numberOfBytes": "32",
        "value": "t_bool"
      },
      "t_mapping(t_uint256,t_struct(ProposalVotes)15925_storage)": {
        "encoding": "mapping",
        "key": "t_uint256",
        "label": "mapping(uint256 => struct LinearERC20VotingExtensible.ProposalVotes)",
        "numberOfBytes": "32",
        "value": "t_struct(ProposalVotes)15925_storage"
      },
      "t_mapping(t_uint32,t_bool)": {
        "encoding": "mapping",
        "key": "t_uint32",
        "label": "mapping(uint32 => bool)",
        "numberOfBytes": "32",
        "value": "t_bool"
      },
      "t_struct(ProposalVotes)15925_storage": {
        "encoding": "inplace",
        "label": "struct LinearERC20VotingExtensible.ProposalVotes",
        "members": [
          {
            "astId": 15912,
            "contract": "contracts/azorius/strategies/LinearERC20VotingWithHatsProposalCreationV1.sol:LinearERC20VotingWithHatsProposalCreationV1",
            "label": "votingStartBlock",
            "offset": 0,
            "slot": "0",
            "type": "t_uint32"
          },
          {
            "astId": 15914,
            "contract": "contracts/azorius/strategies/LinearERC20VotingWithHatsProposalCreationV1.sol:LinearERC20VotingWithHatsProposalCreationV1",
            "label": "votingEndBlock",
            "offset": 4,
            "slot": "0",
            "type": "t_uint32"
          },
          {
            "astId": 15916,
            "contract": "contracts/azorius/strategies/LinearERC20VotingWithHatsProposalCreationV1.sol:LinearERC20VotingWithHatsProposalCreationV1",
            "label": "noVotes",
            "offset": 0,
            "slot": "1",
            "type": "t_uint256"
          },
          {
            "astId": 15918,
            "contract": "contracts/azorius/strategies/LinearERC20VotingWithHatsProposalCreationV1.sol:LinearERC20VotingWithHatsProposalCreationV1",
            "label": "yesVotes",
            "offset": 0,
            "slot": "2",
            "type": "t_uint256"
          },
          {
            "astId": 15920,
            "contract": "contracts/azorius/strategies/LinearERC20VotingWithHatsProposalCreationV1.sol:LinearERC20VotingWithHatsProposalCreationV1",
            "label": "abstainVotes",
            "offset": 0,
            "slot": "3",
            "type": "t_uint256"
          },
          {
            "astId": 15924,
            "contract": "contracts/azorius/strategies/LinearERC20VotingWithHatsProposalCreationV1.sol:LinearERC20VotingWithHatsProposalCreationV1",
            "label": "hasVoted",
            "offset": 0,
            "slot": "4",
            "type": "t_mapping(t_address,t_bool)"
          }
        ],
        "numberOfBytes": "160"
      },
      "t_uint256": {
        "encoding": "inplace",
        "label": "uint256",
        "numberOfBytes": "32"
      },
      "t_uint32": {
        "encoding": "inplace",
        "label": "uint32",
        "numberOfBytes": "4"
      },
      "t_uint8": {
        "encoding": "inplace",
        "label": "uint8",
        "numberOfBytes": "1"
      }
    }
  }
}