{
  "address": "0x1c57a5Dc25541F2eED20c0b758a26B6Bf946A77D",
  "abi": [
    {
      "inputs": [],
      "stateMutability": "nonpayable",
      "type": "constructor"
    },
    {
      "inputs": [
        {
          "internalType": "uint256",
          "name": "tokenId",
          "type": "uint256"
        }
      ],
      "name": "IdAlreadyVoted",
      "type": "error"
    },
    {
      "inputs": [
        {
          "internalType": "uint256",
          "name": "tokenId",
          "type": "uint256"
        }
      ],
      "name": "IdNotOwned",
      "type": "error"
    },
    {
      "inputs": [],
      "name": "InvalidBasisNumerator",
      "type": "error"
    },
    {
      "inputs": [],
      "name": "InvalidCallData",
      "type": "error"
    },
    {
      "inputs": [],
      "name": "InvalidInnerCallDataLength",
      "type": "error"
    },
    {
      "inputs": [],
      "name": "InvalidParams",
      "type": "error"
    },
    {
      "inputs": [],
      "name": "InvalidProposal",
      "type": "error"
    },
    {
      "inputs": [],
      "name": "InvalidSmartAccount",
      "type": "error"
    },
    {
      "inputs": [],
      "name": "InvalidTokenAddress",
      "type": "error"
    },
    {
      "inputs": [],
      "name": "InvalidUserOpCallDataLength",
      "type": "error"
    },
    {
      "inputs": [],
      "name": "InvalidVote",
      "type": "error"
    },
    {
      "inputs": [],
      "name": "NoVotingWeight",
      "type": "error"
    },
    {
      "inputs": [],
      "name": "OnlyAzorius",
      "type": "error"
    },
    {
      "inputs": [],
      "name": "TokenAlreadySet",
      "type": "error"
    },
    {
      "inputs": [],
      "name": "TokenNotSet",
      "type": "error"
    },
    {
      "inputs": [],
      "name": "VotingEnded",
      "type": "error"
    },
    {
      "anonymous": false,
      "inputs": [
        {
          "indexed": true,
          "internalType": "address",
          "name": "azoriusModule",
          "type": "address"
        }
      ],
      "name": "AzoriusSet",
      "type": "event"
    },
    {
      "anonymous": false,
      "inputs": [
        {
          "indexed": false,
          "internalType": "uint256",
          "name": "basisNumerator",
          "type": "uint256"
        }
      ],
      "name": "BasisNumeratorUpdated",
      "type": "event"
    },
    {
      "anonymous": false,
      "inputs": [
        {
          "indexed": false,
          "internalType": "address",
          "name": "token",
          "type": "address"
        },
        {
          "indexed": false,
          "internalType": "uint256",
          "name": "weight",
          "type": "uint256"
        }
      ],
      "name": "GovernanceTokenAdded",
      "type": "event"
    },
    {
      "anonymous": false,
      "inputs": [
        {
          "indexed": false,
          "internalType": "address",
          "name": "token",
          "type": "address"
        }
      ],
      "name": "GovernanceTokenRemoved",
      "type": "event"
    },
    {
      "anonymous": false,
      "inputs": [
        {
          "indexed": false,
          "internalType": "uint8",
          "name": "version",
          "type": "uint8"
        }
      ],
      "name": "Initialized",
      "type": "event"
    },
    {
      "anonymous": false,
      "inputs": [
        {
          "indexed": true,
          "internalType": "address",
          "name": "previousOwner",
          "type": "address"
        },
        {
          "indexed": true,
          "internalType": "address",
          "name": "newOwner",
          "type": "address"
        }
      ],
      "name": "OwnershipTransferred",
      "type": "event"
    },
    {
      "anonymous": false,
      "inputs": [
        {
          "indexed": false,
          "internalType": "uint32",
          "name": "proposalId",
          "type": "uint32"
        },
        {
          "indexed": false,
          "internalType": "uint32",
          "name": "votingEndBlock",
          "type": "uint32"
        }
      ],
      "name": "ProposalInitialized",
      "type": "event"
    },
    {
      "anonymous": false,
      "inputs": [
        {
          "indexed": false,
          "internalType": "uint256",
          "name": "proposerThreshold",
          "type": "uint256"
        }
      ],
      "name": "ProposerThresholdUpdated",
      "type": "event"
    },
    {
      "anonymous": false,
      "inputs": [
        {
          "indexed": false,
          "internalType": "uint256",
          "name": "quorumThreshold",
          "type": "uint256"
        }
      ],
      "name": "QuorumThresholdUpdated",
      "type": "event"
    },
    {
      "anonymous": false,
      "inputs": [
        {
          "indexed": true,
          "internalType": "address",
          "name": "azoriusModule",
          "type": "address"
        },
        {
          "indexed": true,
          "internalType": "address",
          "name": "owner",
          "type": "address"
        }
      ],
      "name": "StrategySetUp",
      "type": "event"
    },
    {
      "anonymous": false,
      "inputs": [
        {
          "indexed": false,
          "internalType": "address",
          "name": "voter",
          "type": "address"
        },
        {
          "indexed": false,
          "internalType": "uint32",
          "name": "proposalId",
          "type": "uint32"
        },
        {
          "indexed": false,
          "internalType": "uint8",
          "name": "voteType",
          "type": "uint8"
        },
        {
          "indexed": false,
          "internalType": "address[]",
          "name": "tokenAddresses",
          "type": "address[]"
        },
        {
          "indexed": false,
          "internalType": "uint256[]",
          "name": "tokenIds",
          "type": "uint256[]"
        }
      ],
      "name": "Voted",
      "type": "event"
    },
    {
      "anonymous": false,
      "inputs": [
        {
          "indexed": true,
          "internalType": "uint32",
          "name": "proposalId",
          "type": "uint32"
        },
        {
          "indexed": false,
          "internalType": "uint256",
          "name": "votingEndBlock",
          "type": "uint256"
        },
        {
          "indexed": false,
          "internalType": "uint256",
          "name": "currentBlock",
          "type": "uint256"
        }
      ],
      "name": "VotingPeriodEnded",
      "type": "event"
    },
    {
      "anonymous": false,
      "inputs": [
        {
          "indexed": false,
          "internalType": "uint32",
          "name": "votingPeriod",
          "type": "uint32"
        }
      ],
      "name": "VotingPeriodUpdated",
      "type": "event"
    },
    {
      "inputs": [],
      "name": "BASIS_DENOMINATOR",
      "outputs": [
        {
          "internalType": "uint256",
          "name": "",
          "type": "uint256"
        }
      ],
      "stateMutability": "view",
      "type": "function"
    },
    {
      "inputs": [
        {
          "internalType": "address",
          "name": "_tokenAddress",
          "type": "address"
        },
        {
          "internalType": "uint256",
          "name": "_weight",
          "type": "uint256"
        }
      ],
      "name": "addGovernanceToken",
      "outputs": [],
      "stateMutability": "nonpayable",
      "type": "function"
    },
    {
      "inputs": [],
      "name": "azoriusModule",
      "outputs": [
        {
          "internalType": "contract IAzorius",
          "name": "",
          "type": "address"
        }
      ],
      "stateMutability": "view",
      "type": "function"
    },
    {
      "inputs": [],
      "name": "basisNumerator",
      "outputs": [
        {
          "internalType": "uint256",
          "name": "",
          "type": "uint256"
        }
      ],
      "stateMutability": "view",
      "type": "function"
    },
    {
      "inputs": [],
      "name": "getAllTokenAddresses",
      "outputs": [
        {
          "internalType": "address[]",
          "name": "",
          "type": "address[]"
        }
      ],
      "stateMutability": "view",
      "type": "function"
    },
    {
      "inputs": [
        {
          "internalType": "uint32",
          "name": "_proposalId",
          "type": "uint32"
        }
      ],
      "name": "getProposalVotes",
      "outputs": [
        {
          "internalType": "uint256",
          "name": "noVotes",
          "type": "uint256"
        },
        {
          "internalType": "uint256",
          "name": "yesVotes",
          "type": "uint256"
        },
        {
          "internalType": "uint256",
          "name": "abstainVotes",
          "type": "uint256"
        },
        {
          "internalType": "uint32",
          "name": "startBlock",
          "type": "uint32"
        },
        {
          "internalType": "uint32",
          "name": "endBlock",
          "type": "uint32"
        }
      ],
      "stateMutability": "view",
      "type": "function"
    },
    {
      "inputs": [
        {
          "internalType": "address",
          "name": "_tokenAddress",
          "type": "address"
        }
      ],
      "name": "getTokenWeight",
      "outputs": [
        {
          "internalType": "uint256",
          "name": "",
          "type": "uint256"
        }
      ],
      "stateMutability": "view",
      "type": "function"
    },
    {
      "inputs": [],
      "name": "getVersion",
      "outputs": [
        {
          "internalType": "uint16",
          "name": "",
          "type": "uint16"
        }
      ],
      "stateMutability": "view",
      "type": "function"
    },
    {
      "inputs": [
        {
          "internalType": "uint32",
          "name": "_proposalId",
          "type": "uint32"
        },
        {
          "internalType": "address",
          "name": "_tokenAddress",
          "type": "address"
        },
        {
          "internalType": "uint256",
          "name": "_tokenId",
          "type": "uint256"
        }
      ],
      "name": "hasVoted",
      "outputs": [
        {
          "internalType": "bool",
          "name": "",
          "type": "bool"
        }
      ],
      "stateMutability": "view",
      "type": "function"
    },
    {
      "inputs": [
        {
          "internalType": "bytes",
          "name": "_data",
          "type": "bytes"
        }
      ],
      "name": "initializeProposal",
      "outputs": [],
      "stateMutability": "nonpayable",
      "type": "function"
    },
    {
      "inputs": [
        {
          "internalType": "uint32",
          "name": "_proposalId",
          "type": "uint32"
        }
      ],
      "name": "isPassed",
      "outputs": [
        {
          "internalType": "bool",
          "name": "",
          "type": "bool"
        }
      ],
      "stateMutability": "view",
      "type": "function"
    },
    {
      "inputs": [
        {
          "internalType": "address",
          "name": "_address",
          "type": "address"
        }
      ],
      "name": "isProposer",
      "outputs": [
        {
          "internalType": "bool",
          "name": "",
          "type": "bool"
        }
      ],
      "stateMutability": "view",
      "type": "function"
    },
    {
      "inputs": [],
      "name": "lightAccountFactory",
      "outputs": [
        {
          "internalType": "contract ILightAccountFactory",
          "name": "",
          "type": "address"
        }
      ],
      "stateMutability": "view",
      "type": "function"
    },
    {
      "inputs": [
        {
          "internalType": "uint256",
          "name": "_yesVotes",
          "type": "uint256"
        },
        {
          "internalType": "uint256",
          "name": "_noVotes",
          "type": "uint256"
        }
      ],
      "name": "meetsBasis",
      "outputs": [
        {
          "internalType": "bool",
          "name": "",
          "type": "bool"
        }
      ],
      "stateMutability": "view",
      "type": "function"
    },
    {
      "inputs": [],
      "name": "owner",
      "outputs": [
        {
          "internalType": "address",
          "name": "",
          "type": "address"
        }
      ],
      "stateMutability": "view",
      "type": "function"
    },
    {
      "inputs": [
        {
          "internalType": "uint256",
          "name": "",
          "type": "uint256"
        }
      ],
      "name": "proposalVotes",
      "outputs": [
        {
          "internalType": "uint32",
          "name": "votingStartBlock",
          "type": "uint32"
        },
        {
          "internalType": "uint32",
          "name": "votingEndBlock",
          "type": "uint32"
        },
        {
          "internalType": "uint256",
          "name": "noVotes",
          "type": "uint256"
        },
        {
          "internalType": "uint256",
          "name": "yesVotes",
          "type": "uint256"
        },
        {
          "internalType": "uint256",
          "name": "abstainVotes",
          "type": "uint256"
        }
      ],
      "stateMutability": "view",
      "type": "function"
    },
    {
      "inputs": [],
      "name": "proposerThreshold",
      "outputs": [
        {
          "internalType": "uint256",
          "name": "",
          "type": "uint256"
        }
      ],
      "stateMutability": "view",
      "type": "function"
    },
    {
      "inputs": [],
      "name": "quorumThreshold",
      "outputs": [
        {
          "internalType": "uint256",
          "name": "",
          "type": "uint256"
        }
      ],
      "stateMutability": "view",
      "type": "function"
    },
    {
      "inputs": [
        {
          "internalType": "address",
          "name": "_tokenAddress",
          "type": "address"
        }
      ],
      "name": "removeGovernanceToken",
      "outputs": [],
      "stateMutability": "nonpayable",
      "type": "function"
    },
    {
      "inputs": [],
      "name": "renounceOwnership",
      "outputs": [],
      "stateMutability": "nonpayable",
      "type": "function"
    },
    {
      "inputs": [
        {
          "internalType": "address",
          "name": "_azoriusModule",
          "type": "address"
        }
      ],
      "name": "setAzorius",
      "outputs": [],
      "stateMutability": "nonpayable",
      "type": "function"
    },
    {
      "inputs": [
        {
          "internalType": "bytes",
          "name": "initializeParams",
          "type": "bytes"
        }
      ],
      "name": "setUp",
      "outputs": [],
      "stateMutability": "nonpayable",
      "type": "function"
    },
    {
      "inputs": [
        {
          "internalType": "bytes4",
          "name": "interfaceId",
          "type": "bytes4"
        }
      ],
      "name": "supportsInterface",
      "outputs": [
        {
          "internalType": "bool",
          "name": "",
          "type": "bool"
        }
      ],
      "stateMutability": "view",
      "type": "function"
    },
    {
      "inputs": [
        {
          "internalType": "uint256",
          "name": "",
          "type": "uint256"
        }
      ],
      "name": "tokenAddresses",
      "outputs": [
        {
          "internalType": "address",
          "name": "",
          "type": "address"
        }
      ],
      "stateMutability": "view",
      "type": "function"
    },
    {
      "inputs": [
        {
          "internalType": "address",
          "name": "",
          "type": "address"
        }
      ],
      "name": "tokenWeights",
      "outputs": [
        {
          "internalType": "uint256",
          "name": "",
          "type": "uint256"
        }
      ],
      "stateMutability": "view",
      "type": "function"
    },
    {
      "inputs": [
        {
          "internalType": "address",
          "name": "newOwner",
          "type": "address"
        }
      ],
      "name": "transferOwnership",
      "outputs": [],
      "stateMutability": "nonpayable",
      "type": "function"
    },
    {
      "inputs": [
        {
          "internalType": "uint256",
          "name": "_basisNumerator",
          "type": "uint256"
        }
      ],
      "name": "updateBasisNumerator",
      "outputs": [],
      "stateMutability": "nonpayable",
      "type": "function"
    },
    {
      "inputs": [
        {
          "internalType": "uint256",
          "name": "_proposerThreshold",
          "type": "uint256"
        }
      ],
      "name": "updateProposerThreshold",
      "outputs": [],
      "stateMutability": "nonpayable",
      "type": "function"
    },
    {
      "inputs": [
        {
          "internalType": "uint256",
          "name": "_quorumThreshold",
          "type": "uint256"
        }
      ],
      "name": "updateQuorumThreshold",
      "outputs": [],
      "stateMutability": "nonpayable",
      "type": "function"
    },
    {
      "inputs": [
        {
          "internalType": "uint32",
          "name": "_votingPeriod",
          "type": "uint32"
        }
      ],
      "name": "updateVotingPeriod",
      "outputs": [],
      "stateMutability": "nonpayable",
      "type": "function"
    },
    {
      "inputs": [
        {
          "internalType": "uint32",
          "name": "_proposalId",
          "type": "uint32"
        },
        {
          "internalType": "uint8",
          "name": "_voteType",
          "type": "uint8"
        },
        {
          "internalType": "address[]",
          "name": "_tokenAddresses",
          "type": "address[]"
        },
        {
          "internalType": "uint256[]",
          "name": "_tokenIds",
          "type": "uint256[]"
        }
      ],
      "name": "vote",
      "outputs": [],
      "stateMutability": "nonpayable",
      "type": "function"
    },
    {
      "inputs": [
        {
          "internalType": "uint32",
          "name": "_proposalId",
          "type": "uint32"
        }
      ],
      "name": "votingEndBlock",
      "outputs": [
        {
          "internalType": "uint32",
          "name": "",
          "type": "uint32"
        }
      ],
      "stateMutability": "view",
      "type": "function"
    },
    {
      "inputs": [],
      "name": "votingPeriod",
      "outputs": [
        {
          "internalType": "uint32",
          "name": "",
          "type": "uint32"
        }
      ],
      "stateMutability": "view",
      "type": "function"
    },
    {
      "inputs": [
        {
          "internalType": "uint32",
          "name": "_proposalId",
          "type": "uint32"
        }
      ],
      "name": "votingPeriodEnded",
      "outputs": [
        {
          "internalType": "bool",
          "name": "",
          "type": "bool"
        }
      ],
      "stateMutability": "view",
      "type": "function"
    }
  ],
  "transactionHash": "0x92ce6e12d01068dcc501c52cc5408a9d0b945009c8e4285a1a0e75d2da84fabb",
  "args": [],
  "numDeployments": 1,
  "solcInputHash": "23141815eaf29806874e288ef061ea39",
  "bytecode": "0x60806040523480156200001157600080fd5b506200001c62000040565b6200002662000040565b6200003062000040565b6200003a62000040565b62000102565b600054610100900460ff1615620000ad5760405162461bcd60e51b815260206004820152602760248201527f496e697469616c697a61626c653a20636f6e747261637420697320696e697469604482015266616c697a696e6760c81b606482015260840160405180910390fd5b60005460ff908116101562000100576000805460ff191660ff9081179091556040519081527f7f26b83ff96e1f2b6a682f133852f6798a09c465da95921460cefb38474024989060200160405180910390a15b565b61208f80620001126000396000f3fe608060405234801561001057600080fd5b50600436106102065760003560e01c80637e902d571161011a578063b2958b31116100ad578063d877ee1d1161007c578063d877ee1d14610547578063deb61c1514610550578063e5df8b84146105c9578063e8575a7f146105dc578063f2fde38b146105ef57600080fd5b8063b2958b31146104b5578063bf7e2c7f146104de578063c0dce37f146104e7578063c909c3b1146104fa57600080fd5b8063a4f9edbf116100e9578063a4f9edbf1461045c578063a77a81d01461046f578063ab2f3ad414610482578063b1d1196f146104a257600080fd5b80637e902d571461041b5780638081be911461042e5780638da5cb5b14610438578063918f84bf1461044957600080fd5b80634e2addad1161019d57806366b629551161016c57806366b62955146103b75780636d4ae680146103e2578063715018a6146103f757806374ec29a0146103ff5780637b7a91dd1461041257600080fd5b80634e2addad146102ec57806353a8b320146102ff578063544ffc9c1461031257806355a9dbd91461038757600080fd5b8063210a5e87116101d9578063210a5e871461027c578063250aa6831461028f57806333f48a5e146102c657806337938ab3146102d957600080fd5b806301ffc9a71461020b57806302a251a3146102335780630d8e6e2c146102585780631dc4894714610267575b600080fd5b61021e6102193660046117b6565b610602565b60405190151581526020015b60405180910390f35b606a546102439063ffffffff1681565b60405163ffffffff909116815260200161022a565b6040516001815260200161022a565b61027a6102753660046117e0565b61062d565b005b61027a61028a3660046117e0565b610641565b6102b861029d36600461180e565b6001600160a01b031660009081526069602052604090205490565b60405190815260200161022a565b61027a6102d436600461183d565b610652565b61027a6102e736600461180e565b610663565b61027a6102fa366004611930565b6106b5565b61021e61030d36600461183d565b6106f2565b6103576103203660046117e0565b606760205260009081526040902080546001820154600283015460039093015463ffffffff80841694600160201b90940416929085565b6040805163ffffffff9687168152959094166020860152928401919091526060830152608082015260a00161022a565b61024361039536600461183d565b63ffffffff908116600090815260676020526040902054600160201b90041690565b6065546103ca906001600160a01b031681565b6040516001600160a01b03909116815260200161022a565b6103ea61077e565b60405161022a9190611a63565b61027a6107e0565b61021e61040d36600461180e565b6107f4565b6102b8606b5481565b606d546103ca906001600160a01b031681565b6102b8620f424081565b6033546001600160a01b03166103ca565b61021e610457366004611a76565b6108cf565b61027a61046a366004611a98565b610901565b61027a61047d366004611a98565b610999565b6102b861049036600461180e565b60696020526000908152604090205481565b61027a6104b0366004611b2d565b610a78565b61021e6104c336600461183d565b63ffffffff166000908152606e602052604090205460ff1690565b6102b860665481565b61027a6104f536600461180e565b610a8e565b61021e610508366004611b59565b63ffffffff831660009081526067602090815260408083206001600160a01b0386168452600401825280832084845290915290205460ff169392505050565b6102b8606c5481565b61059861055e36600461183d565b63ffffffff908116600090815260676020526040902060018101546002820154600383015492549194909382811692600160201b90041690565b6040805195865260208601949094529284019190915263ffffffff908116606084015216608082015260a00161022a565b6103ca6105d73660046117e0565b610c20565b61027a6105ea3660046117e0565b610c4a565b61027a6105fd36600461180e565b610c5b565b60006001600160e01b0319821663250aa68360e01b1480610627575061062782610cd6565b92915050565b610635610d0b565b61063e81610d65565b50565b610649610d0b565b61063e81610da1565b61065a610d0b565b61063e81610dd6565b61066b610d0b565b606580546001600160a01b0319166001600160a01b0383169081179091556040517fac8d831a6ed53a98387842e08d9e0893c1d478f4a3710b254e22bd58c06b269090600090a250565b80518251146106d757604051635435b28960e11b815260040160405180910390fd5b6106ec846106e433610e1e565b858585610e44565b50505050565b63ffffffff8082166000908152606760205260408120549091600160201b909104164311801561074d575063ffffffff8216600090815260676020526040902060038101546002909101546107479190611bb0565b606b5411155b8015610627575063ffffffff82166000908152606760205260409020600281015460019091015461062791906108cf565b606060688054806020026020016040519081016040528092919081815260200182805480156107d657602002820191906000526020600020905b81546001600160a01b031681526001909101906020018083116107b8575b5050505050905090565b6107e8610d0b565b6107f260006111e8565b565b600080805b6068548110156108c35760006068828154811061081857610818611bc3565b6000918252602080832091909101546001600160a01b0390811680845260699092526040928390205492516370a0823160e01b8152908816600482015290925082906370a0823190602401602060405180830381865afa158015610880573d6000803e3d6000fd5b505050506040513d601f19601f820116820180604052508101906108a49190611bd9565b6108ae9190611bf2565b6108b89084611bb0565b9250506001016107f9565b50606c54111592915050565b6000620f424060665483856108e49190611bb0565b6108ee9190611bf2565b6108f89190611c09565b90921192915050565b6000806000806000806000806000898060200190518101906109239190611d05565b98509850985098509850985098509850985061096b8989898989898989604051602001610957989796959493929190611dfe565b60405160208183030381529060405261123a565b61098d81606d80546001600160a01b0319166001600160a01b03831617905550565b50505050505050505050565b6065546001600160a01b031633146109c4576040516358c30ce160e01b815260040160405180910390fd5b6000818060200190518101906109da9190611e69565b606a549091506000906109f39063ffffffff1643611e86565b63ffffffff838116600081815260676020908152604091829020805467ffffffffffffffff1916600160201b87871690810263ffffffff1916919091174390961695909517905581519283528201929092529192507f80d0ad93bba25e53bf67fa9f2d13df59f04795ec2f91b9b3c1f607666daf9d64910160405180910390a1505050565b610a80610d0b565b610a8a8282611465565b5050565b610a96610d0b565b6001600160a01b0381166000908152606960205260408120549003610ace57604051634b62f01360e01b815260040160405180910390fd5b6001600160a01b0381166000908152606960205260408120819055606854905b81811015610bde5760688181548110610b0957610b09611bc3565b6000918252602090912001546001600160a01b0390811690841603610bd6576000610b35600184611eaa565b905060688181548110610b4a57610b4a611bc3565b600091825260209091200154606880546001600160a01b039092169184908110610b7657610b76611bc3565b9060005260206000200160006101000a8154816001600160a01b0302191690836001600160a01b0316021790555060688181548110610bb757610bb7611bc3565b600091825260209091200180546001600160a01b031916905550610bde565b600101610aee565b506040516001600160a01b03831681527f14236c39816f331325d02993fa15113b739aff01c21ab8f38cc5253205299fb1906020015b60405180910390a15050565b60688181548110610c3057600080fd5b6000918252602090912001546001600160a01b0316905081565b610c52610d0b565b61063e816115d9565b610c63610d0b565b6001600160a01b038116610ccd5760405162461bcd60e51b815260206004820152602660248201527f4f776e61626c653a206e6577206f776e657220697320746865207a65726f206160448201526564647265737360d01b60648201526084015b60405180910390fd5b61063e816111e8565b60006001600160e01b031982166303639b8b60e21b148061062757506301ffc9a760e01b6001600160e01b0319831614610627565b6033546001600160a01b031633146107f25760405162461bcd60e51b815260206004820181905260248201527f4f776e61626c653a2063616c6c6572206973206e6f7420746865206f776e65726044820152606401610cc4565b606c8190556040518181527f48f79e03d92b3595f74bc3c64746cf148e464673dd036633d34f8afb029482c9906020015b60405180910390a150565b606b8190556040518181527fbc589fccf641d342b7853c2c6faca39631d4d19efbe77e71e5611e31678c220e90602001610d96565b606a805463ffffffff191663ffffffff83169081179091556040519081527f70770ce479f70673c3ed8fff63cfb758a6ffdddc30cab7c63d54c8d825e3948890602001610d96565b6000806000610e2c84611649565b9150915081610e3d57509192915050565b9392505050565b6000805b8351811015611000576000848281518110610e6557610e65611bc3565b602002602001015190506000848381518110610e8357610e83611bc3565b60200260200101519050816001600160a01b0316636352211e826040518263ffffffff1660e01b8152600401610ebb91815260200190565b602060405180830381865afa158015610ed8573d6000803e3d6000fd5b505050506040513d601f19601f82011682018060405250810190610efc9190611ebd565b6001600160a01b0316886001600160a01b031614610f3057604051639b936ae960e01b815260048101829052602401610cc4565b63ffffffff891660009081526067602090815260408083206001600160a01b0386168452600401825280832084845290915290205460ff161515600103610f8d57604051639602f71160e01b815260048101829052602401610cc4565b6001600160a01b038216600090815260696020526040902054610fb09085611bb0565b63ffffffff8a1660009081526067602090815260408083206001600160a01b0390961683526004909501815284822093825292909252919020805460ff1916600190811790915590925001610e48565b50806000036110225760405163923d21f560e01b815260040160405180910390fd5b63ffffffff808716600090815260676020526040812080549092600160201b90910416900361106457604051631dc0650160e31b815260040160405180910390fd5b8054600160201b900463ffffffff1643111561111f5763ffffffff87166000908152606e602052604090205460ff166111065763ffffffff8781166000818152606e6020908152604091829020805460ff1916600117905584548251600160201b9091049094168452439084015290917f69bc861e152f1fa6553952a0fbb45f7da9f0ea69ce59cc4098313d3ce6cf1e2e910160405180910390a250506111e1565b604051637a19ed0560e01b815260040160405180910390fd5b60ff8516611146578181600101600082825461113b9190611bb0565b9091555061119f9050565b60001960ff861601611166578181600201600082825461113b9190611bb0565b60011960ff861601611186578181600301600082825461113b9190611bb0565b604051636aee863360e11b815260040160405180910390fd5b7f08b8dec2438455807ba4dae88b27939d599858b97389310c0af8f42acd58d62086888787876040516111d6959493929190611eda565b60405180910390a150505b5050505050565b603380546001600160a01b038381166001600160a01b0319831681179093556040519116919082907f8be0079c531659141344cd1fd0a4f28419497f9722a3daafe3b4186f6b6457e090600090a35050565b600054610100900460ff161580801561125a5750600054600160ff909116105b806112745750303b158015611274575060005460ff166001145b6112d75760405162461bcd60e51b815260206004820152602e60248201527f496e697469616c697a61626c653a20636f6e747261637420697320616c72656160448201526d191e481a5b9a5d1a585b1a5e995960921b6064820152608401610cc4565b6000805460ff1916600117905580156112fa576000805461ff0019166101001790555b6000806000806000806000808980602001905181019061131a9190611f31565b97509750975097509750975097509750855187511461134c57604051635435b28960e11b815260040160405180910390fd5b60005b875181101561139c5761139488828151811061136d5761136d611bc3565b602002602001015188838151811061138757611387611bc3565b6020026020010151611465565b60010161134f565b506113a561175c565b6113ae88610c5b565b6113b78561066b565b6113c083610da1565b6113c982610d65565b6113d2816115d9565b6113db84610dd6565b876001600160a01b0316856001600160a01b03167fca32f512f02914f6bc16a49e786443029061b9adc5a987fd2f6efa56c0116a1660405160405180910390a350505050505050508015610a8a576000805461ff0019169055604051600181527f7f26b83ff96e1f2b6a682f133852f6798a09c465da95921460cefb384740249890602001610c14565b6040516301ffc9a760e01b81526380ac58cd60e01b60048201526001600160a01b038316906301ffc9a790602401602060405180830381865afa1580156114b0573d6000803e3d6000fd5b505050506040513d601f19601f820116820180604052508101906114d49190611fec565b6114f157604051630f58058360e11b815260040160405180910390fd5b806000036115125760405163923d21f560e01b815260040160405180910390fd5b6001600160a01b03821660009081526069602052604090205415611549576040516371168e4f60e11b815260040160405180910390fd5b60688054600181019091557fa2153420d844928b4421650203c77babc8b33d7f2e7b450e2966db0c220977530180546001600160a01b0319166001600160a01b038416908117909155600081815260696020908152604091829020849055815192835282018390527fbf2b7f9fc6e849fdef9ff7366d8b63b608bc69ca778200c53d77372d953dc6b69101610c14565b620f42408111806115f657506115f36002620f4240611c09565b81105b15611614576040516302396b6b60e61b815260040160405180910390fd5b60668190556040518181527f406c076eac4d3dde1c5d55793e80239daa8c60ee971390ce3d9f90ca4206295390602001610d96565b600080823b8082036116615750600093849350915050565b836001600160a01b0316638da5cb5b6040518163ffffffff1660e01b8152600401602060405180830381865afa9250505080156116bb575060408051601f3d908101601f191682019092526116b891810190611ebd565b60015b6116cb5750600093849350915050565b606d5460405163119709c360e31b81526001600160a01b038381166004830152600060248301819052921690638cb84e1890604401602060405180830381865afa15801561171d573d6000803e3d6000fd5b505050506040513d601f19601f820116820180604052508101906117419190611ebd565b6001600160a01b039081169616959095149590945092505050565b600054610100900460ff166117835760405162461bcd60e51b8152600401610cc49061200e565b6107f2600054610100900460ff166117ad5760405162461bcd60e51b8152600401610cc49061200e565b6107f2336111e8565b6000602082840312156117c857600080fd5b81356001600160e01b031981168114610e3d57600080fd5b6000602082840312156117f257600080fd5b5035919050565b6001600160a01b038116811461063e57600080fd5b60006020828403121561182057600080fd5b8135610e3d816117f9565b63ffffffff8116811461063e57600080fd5b60006020828403121561184f57600080fd5b8135610e3d8161182b565b634e487b7160e01b600052604160045260246000fd5b604051601f8201601f1916810167ffffffffffffffff811182821017156118995761189961185a565b604052919050565b600067ffffffffffffffff8211156118bb576118bb61185a565b5060051b60200190565b600082601f8301126118d657600080fd5b813560206118eb6118e6836118a1565b611870565b82815260059290921b8401810191818101908684111561190a57600080fd5b8286015b84811015611925578035835291830191830161190e565b509695505050505050565b6000806000806080858703121561194657600080fd5b84356119518161182b565b935060208581013560ff8116811461196857600080fd5b9350604086013567ffffffffffffffff8082111561198557600080fd5b818801915088601f83011261199957600080fd5b81356119a76118e6826118a1565b81815260059190911b8301840190848101908b8311156119c657600080fd5b938501935b828510156119ed5784356119de816117f9565b825293850193908501906119cb565b965050506060880135925080831115611a0557600080fd5b5050611a13878288016118c5565b91505092959194509250565b600081518084526020808501945080840160005b83811015611a585781516001600160a01b031687529582019590820190600101611a33565b509495945050505050565b602081526000610e3d6020830184611a1f565b60008060408385031215611a8957600080fd5b50508035926020909101359150565b60006020808385031215611aab57600080fd5b823567ffffffffffffffff80821115611ac357600080fd5b818501915085601f830112611ad757600080fd5b813581811115611ae957611ae961185a565b611afb601f8201601f19168501611870565b91508082528684828501011115611b1157600080fd5b8084840185840137600090820190930192909252509392505050565b60008060408385031215611b4057600080fd5b8235611b4b816117f9565b946020939093013593505050565b600080600060608486031215611b6e57600080fd5b8335611b798161182b565b92506020840135611b89816117f9565b929592945050506040919091013590565b634e487b7160e01b600052601160045260246000fd5b8082018082111561062757610627611b9a565b634e487b7160e01b600052603260045260246000fd5b600060208284031215611beb57600080fd5b5051919050565b808202811582820484141761062757610627611b9a565b600082611c2657634e487b7160e01b600052601260045260246000fd5b500490565b8051611c36816117f9565b919050565b600082601f830112611c4c57600080fd5b81516020611c5c6118e6836118a1565b82815260059290921b84018101918181019086841115611c7b57600080fd5b8286015b84811015611925578051611c92816117f9565b8352918301918301611c7f565b600082601f830112611cb057600080fd5b81516020611cc06118e6836118a1565b82815260059290921b84018101918181019086841115611cdf57600080fd5b8286015b848110156119255780518352918301918301611ce3565b8051611c368161182b565b60008060008060008060008060006101208a8c031215611d2457600080fd5b8951611d2f816117f9565b60208b015190995067ffffffffffffffff80821115611d4d57600080fd5b611d598d838e01611c3b565b995060408c0151915080821115611d6f57600080fd5b50611d7c8c828d01611c9f565b97505060608a0151611d8d816117f9565b9550611d9b60808b01611cfa565b945060a08a0151935060c08a0151925060e08a01519150611dbf6101008b01611c2b565b90509295985092959850929598565b600081518084526020808501945080840160005b83811015611a5857815187529582019590820190600101611de2565b6001600160a01b03898116825261010060208301819052600091611e248483018c611a1f565b91508382036040850152611e38828b611dce565b98166060840152505063ffffffff94909416608085015260a084019290925260c083015260e0909101529392505050565b600060208284031215611e7b57600080fd5b8151610e3d8161182b565b63ffffffff818116838216019080821115611ea357611ea3611b9a565b5092915050565b8181038181111561062757610627611b9a565b600060208284031215611ecf57600080fd5b8151610e3d816117f9565b6001600160a01b038616815263ffffffff8516602082015260ff8416604082015260a060608201819052600090611f1390830185611a1f565b8281036080840152611f258185611dce565b98975050505050505050565b600080600080600080600080610100898b031215611f4e57600080fd5b8851611f59816117f9565b60208a015190985067ffffffffffffffff80821115611f7757600080fd5b611f838c838d01611c3b565b985060408b0151915080821115611f9957600080fd5b50611fa68b828c01611c9f565b9650506060890151611fb7816117f9565b60808a0151909550611fc88161182b565b60a08a015160c08b015160e0909b0151999c989b5096999598909790945092505050565b600060208284031215611ffe57600080fd5b81518015158114610e3d57600080fd5b6020808252602b908201527f496e697469616c697a61626c653a20636f6e7472616374206973206e6f74206960408201526a6e697469616c697a696e6760a81b60608201526080019056fea264697066735822122042940c6bdddc35f112044130292306b0a0d8477fd3464c8b660a6a392818187864736f6c63430008130033",
  "devdoc": {
    "events": {
      "Initialized(uint8)": {
        "details": "Triggered when the contract has been initialized or reinitialized."
      }
    },
    "kind": "dev",
    "methods": {
      "addGovernanceToken(address,uint256)": {
        "params": {
          "_tokenAddress": "the address of the ERC-721 token",
          "_weight": "the number of votes each NFT id is worth"
        }
      },
      "constructor": {
        "details": "Constructor that disables initializers"
      },
      "getProposalVotes(uint32)": {
        "params": {
          "_proposalId": "id of the Proposal"
        },
        "returns": {
          "abstainVotes": "current count of \"ABSTAIN\" votes",
          "endBlock": "block number voting ends",
          "noVotes": "current count of \"NO\" votes",
          "startBlock": "block number voting starts",
          "yesVotes": "current count of \"YES\" votes"
        }
      },
      "getTokenWeight(address)": {
        "params": {
          "_tokenAddress": "the ERC-721 token address"
        }
      },
      "getVersion()": {
        "details": "Returns the version number of this contract implementation Inheriting contracts MUST override this function."
      },
      "hasVoted(uint32,address,uint256)": {
        "params": {
          "_proposalId": "the id of the Proposal",
          "_tokenAddress": "the ERC-721 contract address",
          "_tokenId": "the unique id of the NFT"
        }
      },
      "initializeProposal(bytes)": {
        "params": {
          "_data": "arbitrary data to pass to this BaseStrategy"
        }
      },
      "isPassed(uint32)": {
        "params": {
          "_proposalId": "proposalId to check"
        },
        "returns": {
          "_0": "bool true if the proposal has passed, otherwise false"
        }
      },
      "isProposer(address)": {
        "params": {
          "_address": "address to check"
        },
        "returns": {
          "_0": "bool true if the address can submit a Proposal, otherwise false"
        }
      },
      "meetsBasis(uint256,uint256)": {
        "params": {
          "_noVotes": "number of votes against",
          "_yesVotes": "number of votes in favor"
        },
        "returns": {
          "_0": "bool whether the yes votes meets the set basis"
        }
      },
      "owner()": {
        "details": "Returns the address of the current owner."
      },
      "removeGovernanceToken(address)": {
        "params": {
          "_tokenAddress": "the ERC-721 token to remove"
        }
      },
      "renounceOwnership()": {
        "details": "Leaves the contract without owner. It will not be possible to call `onlyOwner` functions anymore. Can only be called by the current owner. NOTE: Renouncing ownership will leave the contract without an owner, thereby removing any functionality that is only available to the owner."
      },
      "setAzorius(address)": {
        "params": {
          "_azoriusModule": "address of the Azorius Safe module"
        }
      },
      "setUp(bytes)": {
        "params": {
          "initializeParams": "encoded initialization parameters: `address _owner`, `address[] memory _tokens`, `uint256[] memory _weights`, `address _azoriusModule`, `uint32 _votingPeriod`, `uint256 _quorumThreshold`, `uint256 _basisNumerator`, `address _lightAccountFactory`"
        }
      },
      "transferOwnership(address)": {
        "details": "Transfers ownership of the contract to a new account (`newOwner`). Can only be called by the current owner."
      },
      "updateBasisNumerator(uint256)": {
        "params": {
          "_basisNumerator": "numerator to use"
        }
      },
      "updateProposerThreshold(uint256)": {
        "params": {
          "_proposerThreshold": "required voting weight"
        }
      },
      "updateQuorumThreshold(uint256)": {
        "params": {
          "_quorumThreshold": "total voting weight required to achieve quorum"
        }
      },
      "updateVotingPeriod(uint32)": {
        "params": {
          "_votingPeriod": "voting time period (in blocks)"
        }
      },
      "vote(uint32,uint8,address[],uint256[])": {
        "params": {
          "_proposalId": "id of the Proposal to vote on",
          "_tokenAddresses": "list of ERC-721 addresses that correspond to ids in _tokenIds",
          "_tokenIds": "list of unique token ids that correspond to their ERC-721 address in _tokenAddresses",
          "_voteType": "Proposal support as defined in VoteType (NO, YES, ABSTAIN)"
        }
      },
      "votingEndBlock(uint32)": {
        "params": {
          "_proposalId": "proposalId to check"
        },
        "returns": {
          "_0": "uint32 block number when voting ends on the Proposal"
        }
      },
      "votingPeriodEnded(uint32)": {
        "details": "Tracks whether a proposal's voting period has been officially marked as ended. This flag is set to true when the first vote attempt occurs after the voting end block, triggering a VotingPeriodEnded event. Used to ensure the event is emitted exactly once per proposal, and only if a vote has been attempted after the voting end block.",
        "params": {
          "_proposalId": "The ID of the proposal to check."
        },
        "returns": {
          "_0": "True if the voting period has ended and a vote has been attempted after the voting end block, false otherwise."
        }
      }
    },
    "version": 1
  },
  "userdoc": {
    "kind": "user",
    "methods": {
      "BASIS_DENOMINATOR()": {
        "notice": "The denominator to use when calculating basis (1,000,000). "
      },
      "addGovernanceToken(address,uint256)": {
        "notice": "Adds a new ERC-721 token as a governance token, along with its associated weight."
      },
      "basisNumerator()": {
        "notice": "The numerator to use when calculating basis (adjustable). "
      },
      "getAllTokenAddresses()": {
        "notice": "Returns whole list of governance tokens addresses"
      },
      "getProposalVotes(uint32)": {
        "notice": "Returns the current state of the specified Proposal."
      },
      "getTokenWeight(address)": {
        "notice": "Returns the current token weight for the given ERC-721 token address."
      },
      "hasVoted(uint32,address,uint256)": {
        "notice": "Returns whether an NFT id has already voted."
      },
      "initializeProposal(bytes)": {
        "notice": "Called by the [Azorius](../Azorius.md) module. This notifies this  [BaseStrategy](../BaseStrategy.md) that a new Proposal has been created."
      },
      "isPassed(uint32)": {
        "notice": "Returns whether a Proposal has been passed."
      },
      "isProposer(address)": {
        "notice": "Returns whether the specified address can submit a Proposal with this [BaseStrategy](../BaseStrategy.md). This allows a BaseStrategy to place any limits it would like on who can create new Proposals, such as requiring a minimum token delegation."
      },
      "meetsBasis(uint256,uint256)": {
        "notice": "Calculates whether a vote meets its basis."
      },
      "proposalVotes(uint256)": {
        "notice": "`proposalId` to `ProposalVotes`, the voting state of a Proposal. "
      },
      "proposerThreshold()": {
        "notice": "The minimum number of voting power required to create a new proposal."
      },
      "quorumThreshold()": {
        "notice": "The total number of votes required to achieve quorum. \"Quorum threshold\" is used instead of a quorum percent because IERC721 has no totalSupply function, so the contract cannot determine this."
      },
      "removeGovernanceToken(address)": {
        "notice": "Removes the given ERC-721 token address from the list of governance tokens."
      },
      "setAzorius(address)": {
        "notice": "Sets the address of the [Azorius](../Azorius.md) contract this  [BaseStrategy](../BaseStrategy.md) is being used on."
      },
      "setUp(bytes)": {
        "notice": "Sets up the contract with its initial parameters."
      },
      "tokenAddresses(uint256)": {
        "notice": "The list of ERC-721 tokens that can vote. "
      },
      "tokenWeights(address)": {
        "notice": "ERC-721 address to its voting weight per NFT id.  "
      },
      "updateBasisNumerator(uint256)": {
        "notice": "Updates the `basisNumerator` for future Proposals."
      },
      "updateProposerThreshold(uint256)": {
        "notice": "Updates the voting weight required to submit new Proposals."
      },
      "updateQuorumThreshold(uint256)": {
        "notice": "Updates the quorum required for future Proposals."
      },
      "updateVotingPeriod(uint32)": {
        "notice": "Updates the voting time period for new Proposals."
      },
      "vote(uint32,uint8,address[],uint256[])": {
        "notice": "Submits a vote on an existing Proposal."
      },
      "votingEndBlock(uint32)": {
        "notice": "Returns the block number voting ends on a given Proposal."
      },
      "votingPeriod()": {
        "notice": "Number of blocks a new Proposal can be voted on. "
      }
    },
    "notice": "An Azorius strategy that allows multiple ERC721 tokens to be registered as governance tokens, each with their own voting weight. This is slightly different from ERC-20 voting, since there is no way to snapshot ERC721 holdings. Each ERC721 id can vote once, reguardless of what address held it when a proposal was created. Also, this uses \"quorumThreshold\" rather than LinearERC20Voting's quorumPercent, because the total supply of NFTs is not knowable within the IERC721 interface.  This is similar to a multisig \"total signers\" required, rather than a percentage of the tokens.",
    "version": 1
  },
  "storageLayout": {
    "storage": [
      {
        "astId": 797,
        "contract": "contracts/azorius/strategies/LinearERC721VotingV1.sol:LinearERC721VotingV1",
        "label": "_initialized",
        "offset": 0,
        "slot": "0",
        "type": "t_uint8"
      },
      {
        "astId": 800,
        "contract": "contracts/azorius/strategies/LinearERC721VotingV1.sol:LinearERC721VotingV1",
        "label": "_initializing",
        "offset": 1,
        "slot": "0",
        "type": "t_bool"
      },
      {
        "astId": 3699,
        "contract": "contracts/azorius/strategies/LinearERC721VotingV1.sol:LinearERC721VotingV1",
        "label": "__gap",
        "offset": 0,
        "slot": "1",
        "type": "t_array(t_uint256)50_storage"
      },
      {
        "astId": 591,
        "contract": "contracts/azorius/strategies/LinearERC721VotingV1.sol:LinearERC721VotingV1",
        "label": "_owner",
        "offset": 0,
        "slot": "51",
        "type": "t_address"
      },
      {
        "astId": 711,
        "contract": "contracts/azorius/strategies/LinearERC721VotingV1.sol:LinearERC721VotingV1",
        "label": "__gap",
        "offset": 0,
        "slot": "52",
        "type": "t_array(t_uint256)49_storage"
      },
      {
        "astId": 12539,
        "contract": "contracts/azorius/strategies/LinearERC721VotingV1.sol:LinearERC721VotingV1",
        "label": "azoriusModule",
        "offset": 0,
        "slot": "101",
        "type": "t_contract(IAzorius)15220"
      },
      {
        "astId": 12639,
        "contract": "contracts/azorius/strategies/LinearERC721VotingV1.sol:LinearERC721VotingV1",
        "label": "basisNumerator",
        "offset": 0,
        "slot": "102",
        "type": "t_uint256"
      },
      {
        "astId": 17127,
        "contract": "contracts/azorius/strategies/LinearERC721VotingV1.sol:LinearERC721VotingV1",
        "label": "proposalVotes",
        "offset": 0,
        "slot": "103",
        "type": "t_mapping(t_uint256,t_struct(ProposalVotes)17121_storage)"
      },
      {
        "astId": 17131,
        "contract": "contracts/azorius/strategies/LinearERC721VotingV1.sol:LinearERC721VotingV1",
        "label": "tokenAddresses",
        "offset": 0,
        "slot": "104",
        "type": "t_array(t_address)dyn_storage"
      },
      {
        "astId": 17136,
        "contract": "contracts/azorius/strategies/LinearERC721VotingV1.sol:LinearERC721VotingV1",
        "label": "tokenWeights",
        "offset": 0,
        "slot": "105",
        "type": "t_mapping(t_address,t_uint256)"
      },
      {
        "astId": 17139,
        "contract": "contracts/azorius/strategies/LinearERC721VotingV1.sol:LinearERC721VotingV1",
        "label": "votingPeriod",
        "offset": 0,
        "slot": "106",
        "type": "t_uint32"
      },
      {
        "astId": 17142,
        "contract": "contracts/azorius/strategies/LinearERC721VotingV1.sol:LinearERC721VotingV1",
        "label": "quorumThreshold",
        "offset": 0,
        "slot": "107",
        "type": "t_uint256"
      },
      {
        "astId": 17145,
        "contract": "contracts/azorius/strategies/LinearERC721VotingV1.sol:LinearERC721VotingV1",
        "label": "proposerThreshold",
        "offset": 0,
        "slot": "108",
        "type": "t_uint256"
      },
      {
        "astId": 11143,
        "contract": "contracts/azorius/strategies/LinearERC721VotingV1.sol:LinearERC721VotingV1",
        "label": "lightAccountFactory",
        "offset": 0,
        "slot": "109",
        "type": "t_contract(ILightAccountFactory)18887"
      },
      {
        "astId": 15286,
        "contract": "contracts/azorius/strategies/LinearERC721VotingV1.sol:LinearERC721VotingV1",
        "label": "_votingPeriodEnded",
        "offset": 0,
        "slot": "110",
        "type": "t_mapping(t_uint32,t_bool)"
      }
    ],
    "types": {
      "t_address": {
        "encoding": "inplace",
        "label": "address",
        "numberOfBytes": "20"
      },
      "t_array(t_address)dyn_storage": {
        "base": "t_address",
        "encoding": "dynamic_array",
        "label": "address[]",
        "numberOfBytes": "32"
      },
      "t_array(t_uint256)49_storage": {
        "base": "t_uint256",
        "encoding": "inplace",
        "label": "uint256[49]",
        "numberOfBytes": "1568"
      },
      "t_array(t_uint256)50_storage": {
        "base": "t_uint256",
        "encoding": "inplace",
        "label": "uint256[50]",
        "numberOfBytes": "1600"
      },
      "t_bool": {
        "encoding": "inplace",
        "label": "bool",
        "numberOfBytes": "1"
      },
      "t_contract(IAzorius)15220": {
        "encoding": "inplace",
        "label": "contract IAzorius",
        "numberOfBytes": "20"
      },
      "t_contract(ILightAccountFactory)18887": {
        "encoding": "inplace",
        "label": "contract ILightAccountFactory",
        "numberOfBytes": "20"
      },
      "t_mapping(t_address,t_mapping(t_uint256,t_bool))": {
        "encoding": "mapping",
        "key": "t_address",
        "label": "mapping(address => mapping(uint256 => bool))",
        "numberOfBytes": "32",
        "value": "t_mapping(t_uint256,t_bool)"
      },
      "t_mapping(t_address,t_uint256)": {
        "encoding": "mapping",
        "key": "t_address",
        "label": "mapping(address => uint256)",
        "numberOfBytes": "32",
        "value": "t_uint256"
      },
      "t_mapping(t_uint256,t_bool)": {
        "encoding": "mapping",
        "key": "t_uint256",
        "label": "mapping(uint256 => bool)",
        "numberOfBytes": "32",
        "value": "t_bool"
      },
      "t_mapping(t_uint256,t_struct(ProposalVotes)17121_storage)": {
        "encoding": "mapping",
        "key": "t_uint256",
        "label": "mapping(uint256 => struct LinearERC721VotingExtensible.ProposalVotes)",
        "numberOfBytes": "32",
        "value": "t_struct(ProposalVotes)17121_storage"
      },
      "t_mapping(t_uint32,t_bool)": {
        "encoding": "mapping",
        "key": "t_uint32",
        "label": "mapping(uint32 => bool)",
        "numberOfBytes": "32",
        "value": "t_bool"
      },
      "t_struct(ProposalVotes)17121_storage": {
        "encoding": "inplace",
        "label": "struct LinearERC721VotingExtensible.ProposalVotes",
        "members": [
          {
            "astId": 17105,
            "contract": "contracts/azorius/strategies/LinearERC721VotingV1.sol:LinearERC721VotingV1",
            "label": "votingStartBlock",
            "offset": 0,
            "slot": "0",
            "type": "t_uint32"
          },
          {
            "astId": 17107,
            "contract": "contracts/azorius/strategies/LinearERC721VotingV1.sol:LinearERC721VotingV1",
            "label": "votingEndBlock",
            "offset": 4,
            "slot": "0",
            "type": "t_uint32"
          },
          {
            "astId": 17109,
            "contract": "contracts/azorius/strategies/LinearERC721VotingV1.sol:LinearERC721VotingV1",
            "label": "noVotes",
            "offset": 0,
            "slot": "1",
            "type": "t_uint256"
          },
          {
            "astId": 17111,
            "contract": "contracts/azorius/strategies/LinearERC721VotingV1.sol:LinearERC721VotingV1",
            "label": "yesVotes",
            "offset": 0,
            "slot": "2",
            "type": "t_uint256"
          },
          {
            "astId": 17113,
            "contract": "contracts/azorius/strategies/LinearERC721VotingV1.sol:LinearERC721VotingV1",
            "label": "abstainVotes",
            "offset": 0,
            "slot": "3",
            "type": "t_uint256"
          },
          {
            "astId": 17120,
            "contract": "contracts/azorius/strategies/LinearERC721VotingV1.sol:LinearERC721VotingV1",
            "label": "hasVoted",
            "offset": 0,
            "slot": "4",
            "type": "t_mapping(t_address,t_mapping(t_uint256,t_bool))"
          }
        ],
        "numberOfBytes": "160"
      },
      "t_uint256": {
        "encoding": "inplace",
        "label": "uint256",
        "numberOfBytes": "32"
      },
      "t_uint32": {
        "encoding": "inplace",
        "label": "uint32",
        "numberOfBytes": "4"
      },
      "t_uint8": {
        "encoding": "inplace",
        "label": "uint8",
        "numberOfBytes": "1"
      }
    }
  }
}