{
  "_format": "hh-sol-artifact-1",
  "contractName": "BadBidder",
  "sourceName": "src/test/BadBidder.sol",
  "abi": [
    {
      "inputs": [
        {
          "internalType": "address",
          "name": "_auction",
          "type": "address"
        },
        {
          "internalType": "address",
          "name": "_zoo",
          "type": "address"
        }
      ],
      "stateMutability": "nonpayable",
      "type": "constructor"
    },
    {
      "stateMutability": "payable",
      "type": "fallback"
    },
    {
      "inputs": [
        {
          "internalType": "uint256",
          "name": "auctionId",
          "type": "uint256"
        },
        {
          "internalType": "uint256",
          "name": "amount",
          "type": "uint256"
        }
      ],
      "name": "placeBid",
      "outputs": [],
      "stateMutability": "payable",
      "type": "function"
    },
    {
      "stateMutability": "payable",
      "type": "receive"
    }
  ],
  "bytecode": "0x608060405234801561001057600080fd5b506040516101ab3803806101ab83398101604081905261002f9161007c565b600080546001600160a01b039384166001600160a01b031991821617909155600180549290931691161790556100ae565b80516001600160a01b038116811461007757600080fd5b919050565b6000806040838503121561008e578182fd5b61009783610060565b91506100a560208401610060565b90509250929050565b60ef806100bc6000396000f3fe608060405260043610601d5760003560e01c806357c90de514602557005b36602357005b005b602360303660046099565b60005460405163b7751c7160e01b815260048101849052602481018390526001600160a01b039091169063b7751c719083906044016000604051808303818588803b158015607d57600080fd5b505af11580156090573d6000803e3d6000fd5b50505050505050565b6000806040838503121560aa578182fd5b5050803592602090910135915056fea26469706673582212205d3b46573ea08c0227067dfe98a93328ad913f615ed244d606f9e68ea268f06464736f6c63430008040033",
  "linkReferences": {},
  "deployedLinkReferences": {}
}