{
  "address": "0xD2D2EDc680cB76e855FebF148e444eA7E2430A39",
  "abi": [
    {
      "inputs": [],
      "stateMutability": "nonpayable",
      "type": "constructor"
    },
    {
      "inputs": [],
      "name": "HatAlreadyWhitelisted",
      "type": "error"
    },
    {
      "inputs": [],
      "name": "HatNotWhitelisted",
      "type": "error"
    },
    {
      "inputs": [
        {
          "internalType": "uint256",
          "name": "tokenId",
          "type": "uint256"
        }
      ],
      "name": "IdAlreadyVoted",
      "type": "error"
    },
    {
      "inputs": [
        {
          "internalType": "uint256",
          "name": "tokenId",
          "type": "uint256"
        }
      ],
      "name": "IdNotOwned",
      "type": "error"
    },
    {
      "inputs": [],
      "name": "InvalidBasisNumerator",
      "type": "error"
    },
    {
      "inputs": [],
      "name": "InvalidCallData",
      "type": "error"
    },
    {
      "inputs": [],
      "name": "InvalidInnerCallDataLength",
      "type": "error"
    },
    {
      "inputs": [],
      "name": "InvalidParams",
      "type": "error"
    },
    {
      "inputs": [],
      "name": "InvalidProposal",
      "type": "error"
    },
    {
      "inputs": [],
      "name": "InvalidSmartAccount",
      "type": "error"
    },
    {
      "inputs": [],
      "name": "InvalidTokenAddress",
      "type": "error"
    },
    {
      "inputs": [],
      "name": "InvalidUserOpCallDataLength",
      "type": "error"
    },
    {
      "inputs": [],
      "name": "InvalidVote",
      "type": "error"
    },
    {
      "inputs": [],
      "name": "MissingHatsContract",
      "type": "error"
    },
    {
      "inputs": [],
      "name": "NoHatsWhitelisted",
      "type": "error"
    },
    {
      "inputs": [],
      "name": "NoVotingWeight",
      "type": "error"
    },
    {
      "inputs": [],
      "name": "OnlyAzorius",
      "type": "error"
    },
    {
      "inputs": [],
      "name": "TokenAlreadySet",
      "type": "error"
    },
    {
      "inputs": [],
      "name": "TokenNotSet",
      "type": "error"
    },
    {
      "inputs": [],
      "name": "VotingEnded",
      "type": "error"
    },
    {
      "anonymous": false,
      "inputs": [
        {
          "indexed": true,
          "internalType": "address",
          "name": "azoriusModule",
          "type": "address"
        }
      ],
      "name": "AzoriusSet",
      "type": "event"
    },
    {
      "anonymous": false,
      "inputs": [
        {
          "indexed": false,
          "internalType": "uint256",
          "name": "basisNumerator",
          "type": "uint256"
        }
      ],
      "name": "BasisNumeratorUpdated",
      "type": "event"
    },
    {
      "anonymous": false,
      "inputs": [
        {
          "indexed": false,
          "internalType": "address",
          "name": "token",
          "type": "address"
        },
        {
          "indexed": false,
          "internalType": "uint256",
          "name": "weight",
          "type": "uint256"
        }
      ],
      "name": "GovernanceTokenAdded",
      "type": "event"
    },
    {
      "anonymous": false,
      "inputs": [
        {
          "indexed": false,
          "internalType": "address",
          "name": "token",
          "type": "address"
        }
      ],
      "name": "GovernanceTokenRemoved",
      "type": "event"
    },
    {
      "anonymous": false,
      "inputs": [
        {
          "indexed": false,
          "internalType": "uint256",
          "name": "hatId",
          "type": "uint256"
        }
      ],
      "name": "HatUnwhitelisted",
      "type": "event"
    },
    {
      "anonymous": false,
      "inputs": [
        {
          "indexed": false,
          "internalType": "uint256",
          "name": "hatId",
          "type": "uint256"
        }
      ],
      "name": "HatWhitelisted",
      "type": "event"
    },
    {
      "anonymous": false,
      "inputs": [
        {
          "indexed": false,
          "internalType": "uint8",
          "name": "version",
          "type": "uint8"
        }
      ],
      "name": "Initialized",
      "type": "event"
    },
    {
      "anonymous": false,
      "inputs": [
        {
          "indexed": true,
          "internalType": "address",
          "name": "previousOwner",
          "type": "address"
        },
        {
          "indexed": true,
          "internalType": "address",
          "name": "newOwner",
          "type": "address"
        }
      ],
      "name": "OwnershipTransferred",
      "type": "event"
    },
    {
      "anonymous": false,
      "inputs": [
        {
          "indexed": false,
          "internalType": "uint32",
          "name": "proposalId",
          "type": "uint32"
        },
        {
          "indexed": false,
          "internalType": "uint32",
          "name": "votingEndBlock",
          "type": "uint32"
        }
      ],
      "name": "ProposalInitialized",
      "type": "event"
    },
    {
      "anonymous": false,
      "inputs": [
        {
          "indexed": false,
          "internalType": "uint256",
          "name": "proposerThreshold",
          "type": "uint256"
        }
      ],
      "name": "ProposerThresholdUpdated",
      "type": "event"
    },
    {
      "anonymous": false,
      "inputs": [
        {
          "indexed": false,
          "internalType": "uint256",
          "name": "quorumThreshold",
          "type": "uint256"
        }
      ],
      "name": "QuorumThresholdUpdated",
      "type": "event"
    },
    {
      "anonymous": false,
      "inputs": [
        {
          "indexed": true,
          "internalType": "address",
          "name": "azoriusModule",
          "type": "address"
        },
        {
          "indexed": true,
          "internalType": "address",
          "name": "owner",
          "type": "address"
        }
      ],
      "name": "StrategySetUp",
      "type": "event"
    },
    {
      "anonymous": false,
      "inputs": [
        {
          "indexed": false,
          "internalType": "address",
          "name": "voter",
          "type": "address"
        },
        {
          "indexed": false,
          "internalType": "uint32",
          "name": "proposalId",
          "type": "uint32"
        },
        {
          "indexed": false,
          "internalType": "uint8",
          "name": "voteType",
          "type": "uint8"
        },
        {
          "indexed": false,
          "internalType": "address[]",
          "name": "tokenAddresses",
          "type": "address[]"
        },
        {
          "indexed": false,
          "internalType": "uint256[]",
          "name": "tokenIds",
          "type": "uint256[]"
        }
      ],
      "name": "Voted",
      "type": "event"
    },
    {
      "anonymous": false,
      "inputs": [
        {
          "indexed": true,
          "internalType": "uint32",
          "name": "proposalId",
          "type": "uint32"
        },
        {
          "indexed": false,
          "internalType": "uint256",
          "name": "votingEndBlock",
          "type": "uint256"
        },
        {
          "indexed": false,
          "internalType": "uint256",
          "name": "currentBlock",
          "type": "uint256"
        }
      ],
      "name": "VotingPeriodEnded",
      "type": "event"
    },
    {
      "anonymous": false,
      "inputs": [
        {
          "indexed": false,
          "internalType": "uint32",
          "name": "votingPeriod",
          "type": "uint32"
        }
      ],
      "name": "VotingPeriodUpdated",
      "type": "event"
    },
    {
      "inputs": [],
      "name": "BASIS_DENOMINATOR",
      "outputs": [
        {
          "internalType": "uint256",
          "name": "",
          "type": "uint256"
        }
      ],
      "stateMutability": "view",
      "type": "function"
    },
    {
      "inputs": [
        {
          "internalType": "address",
          "name": "_tokenAddress",
          "type": "address"
        },
        {
          "internalType": "uint256",
          "name": "_weight",
          "type": "uint256"
        }
      ],
      "name": "addGovernanceToken",
      "outputs": [],
      "stateMutability": "nonpayable",
      "type": "function"
    },
    {
      "inputs": [],
      "name": "azoriusModule",
      "outputs": [
        {
          "internalType": "contract IAzorius",
          "name": "",
          "type": "address"
        }
      ],
      "stateMutability": "view",
      "type": "function"
    },
    {
      "inputs": [],
      "name": "basisNumerator",
      "outputs": [
        {
          "internalType": "uint256",
          "name": "",
          "type": "uint256"
        }
      ],
      "stateMutability": "view",
      "type": "function"
    },
    {
      "inputs": [],
      "name": "getAllTokenAddresses",
      "outputs": [
        {
          "internalType": "address[]",
          "name": "",
          "type": "address[]"
        }
      ],
      "stateMutability": "view",
      "type": "function"
    },
    {
      "inputs": [
        {
          "internalType": "uint32",
          "name": "_proposalId",
          "type": "uint32"
        }
      ],
      "name": "getProposalVotes",
      "outputs": [
        {
          "internalType": "uint256",
          "name": "noVotes",
          "type": "uint256"
        },
        {
          "internalType": "uint256",
          "name": "yesVotes",
          "type": "uint256"
        },
        {
          "internalType": "uint256",
          "name": "abstainVotes",
          "type": "uint256"
        },
        {
          "internalType": "uint32",
          "name": "startBlock",
          "type": "uint32"
        },
        {
          "internalType": "uint32",
          "name": "endBlock",
          "type": "uint32"
        }
      ],
      "stateMutability": "view",
      "type": "function"
    },
    {
      "inputs": [
        {
          "internalType": "address",
          "name": "_tokenAddress",
          "type": "address"
        }
      ],
      "name": "getTokenWeight",
      "outputs": [
        {
          "internalType": "uint256",
          "name": "",
          "type": "uint256"
        }
      ],
      "stateMutability": "view",
      "type": "function"
    },
    {
      "inputs": [],
      "name": "getVersion",
      "outputs": [
        {
          "internalType": "uint16",
          "name": "",
          "type": "uint16"
        }
      ],
      "stateMutability": "view",
      "type": "function"
    },
    {
      "inputs": [],
      "name": "getWhitelistedHatIds",
      "outputs": [
        {
          "internalType": "uint256[]",
          "name": "",
          "type": "uint256[]"
        }
      ],
      "stateMutability": "view",
      "type": "function"
    },
    {
      "inputs": [
        {
          "internalType": "uint32",
          "name": "_proposalId",
          "type": "uint32"
        },
        {
          "internalType": "address",
          "name": "_tokenAddress",
          "type": "address"
        },
        {
          "internalType": "uint256",
          "name": "_tokenId",
          "type": "uint256"
        }
      ],
      "name": "hasVoted",
      "outputs": [
        {
          "internalType": "bool",
          "name": "",
          "type": "bool"
        }
      ],
      "stateMutability": "view",
      "type": "function"
    },
    {
      "inputs": [],
      "name": "hatsContract",
      "outputs": [
        {
          "internalType": "contract IHats",
          "name": "",
          "type": "address"
        }
      ],
      "stateMutability": "view",
      "type": "function"
    },
    {
      "inputs": [
        {
          "internalType": "bytes",
          "name": "_data",
          "type": "bytes"
        }
      ],
      "name": "initializeProposal",
      "outputs": [],
      "stateMutability": "nonpayable",
      "type": "function"
    },
    {
      "inputs": [
        {
          "internalType": "uint32",
          "name": "_proposalId",
          "type": "uint32"
        }
      ],
      "name": "isPassed",
      "outputs": [
        {
          "internalType": "bool",
          "name": "",
          "type": "bool"
        }
      ],
      "stateMutability": "view",
      "type": "function"
    },
    {
      "inputs": [
        {
          "internalType": "address",
          "name": "_address",
          "type": "address"
        }
      ],
      "name": "isProposer",
      "outputs": [
        {
          "internalType": "bool",
          "name": "",
          "type": "bool"
        }
      ],
      "stateMutability": "view",
      "type": "function"
    },
    {
      "inputs": [
        {
          "internalType": "address",
          "name": "_address",
          "type": "address"
        }
      ],
      "name": "isWearingWhitelistedHat",
      "outputs": [
        {
          "internalType": "bool",
          "name": "",
          "type": "bool"
        }
      ],
      "stateMutability": "view",
      "type": "function"
    },
    {
      "inputs": [],
      "name": "lightAccountFactory",
      "outputs": [
        {
          "internalType": "contract ILightAccountFactory",
          "name": "",
          "type": "address"
        }
      ],
      "stateMutability": "view",
      "type": "function"
    },
    {
      "inputs": [
        {
          "internalType": "uint256",
          "name": "_yesVotes",
          "type": "uint256"
        },
        {
          "internalType": "uint256",
          "name": "_noVotes",
          "type": "uint256"
        }
      ],
      "name": "meetsBasis",
      "outputs": [
        {
          "internalType": "bool",
          "name": "",
          "type": "bool"
        }
      ],
      "stateMutability": "view",
      "type": "function"
    },
    {
      "inputs": [],
      "name": "owner",
      "outputs": [
        {
          "internalType": "address",
          "name": "",
          "type": "address"
        }
      ],
      "stateMutability": "view",
      "type": "function"
    },
    {
      "inputs": [
        {
          "internalType": "uint256",
          "name": "",
          "type": "uint256"
        }
      ],
      "name": "proposalVotes",
      "outputs": [
        {
          "internalType": "uint32",
          "name": "votingStartBlock",
          "type": "uint32"
        },
        {
          "internalType": "uint32",
          "name": "votingEndBlock",
          "type": "uint32"
        },
        {
          "internalType": "uint256",
          "name": "noVotes",
          "type": "uint256"
        },
        {
          "internalType": "uint256",
          "name": "yesVotes",
          "type": "uint256"
        },
        {
          "internalType": "uint256",
          "name": "abstainVotes",
          "type": "uint256"
        }
      ],
      "stateMutability": "view",
      "type": "function"
    },
    {
      "inputs": [],
      "name": "proposerThreshold",
      "outputs": [
        {
          "internalType": "uint256",
          "name": "",
          "type": "uint256"
        }
      ],
      "stateMutability": "view",
      "type": "function"
    },
    {
      "inputs": [],
      "name": "quorumThreshold",
      "outputs": [
        {
          "internalType": "uint256",
          "name": "",
          "type": "uint256"
        }
      ],
      "stateMutability": "view",
      "type": "function"
    },
    {
      "inputs": [
        {
          "internalType": "address",
          "name": "_tokenAddress",
          "type": "address"
        }
      ],
      "name": "removeGovernanceToken",
      "outputs": [],
      "stateMutability": "nonpayable",
      "type": "function"
    },
    {
      "inputs": [],
      "name": "renounceOwnership",
      "outputs": [],
      "stateMutability": "nonpayable",
      "type": "function"
    },
    {
      "inputs": [
        {
          "internalType": "address",
          "name": "_azoriusModule",
          "type": "address"
        }
      ],
      "name": "setAzorius",
      "outputs": [],
      "stateMutability": "nonpayable",
      "type": "function"
    },
    {
      "inputs": [
        {
          "internalType": "bytes",
          "name": "initializeParams",
          "type": "bytes"
        }
      ],
      "name": "setUp",
      "outputs": [],
      "stateMutability": "nonpayable",
      "type": "function"
    },
    {
      "inputs": [
        {
          "internalType": "bytes4",
          "name": "interfaceId",
          "type": "bytes4"
        }
      ],
      "name": "supportsInterface",
      "outputs": [
        {
          "internalType": "bool",
          "name": "",
          "type": "bool"
        }
      ],
      "stateMutability": "view",
      "type": "function"
    },
    {
      "inputs": [
        {
          "internalType": "uint256",
          "name": "",
          "type": "uint256"
        }
      ],
      "name": "tokenAddresses",
      "outputs": [
        {
          "internalType": "address",
          "name": "",
          "type": "address"
        }
      ],
      "stateMutability": "view",
      "type": "function"
    },
    {
      "inputs": [
        {
          "internalType": "address",
          "name": "",
          "type": "address"
        }
      ],
      "name": "tokenWeights",
      "outputs": [
        {
          "internalType": "uint256",
          "name": "",
          "type": "uint256"
        }
      ],
      "stateMutability": "view",
      "type": "function"
    },
    {
      "inputs": [
        {
          "internalType": "address",
          "name": "newOwner",
          "type": "address"
        }
      ],
      "name": "transferOwnership",
      "outputs": [],
      "stateMutability": "nonpayable",
      "type": "function"
    },
    {
      "inputs": [
        {
          "internalType": "uint256",
          "name": "_hatId",
          "type": "uint256"
        }
      ],
      "name": "unwhitelistHat",
      "outputs": [],
      "stateMutability": "nonpayable",
      "type": "function"
    },
    {
      "inputs": [
        {
          "internalType": "uint256",
          "name": "_basisNumerator",
          "type": "uint256"
        }
      ],
      "name": "updateBasisNumerator",
      "outputs": [],
      "stateMutability": "nonpayable",
      "type": "function"
    },
    {
      "inputs": [
        {
          "internalType": "uint256",
          "name": "_proposerThreshold",
          "type": "uint256"
        }
      ],
      "name": "updateProposerThreshold",
      "outputs": [],
      "stateMutability": "nonpayable",
      "type": "function"
    },
    {
      "inputs": [
        {
          "internalType": "uint256",
          "name": "_quorumThreshold",
          "type": "uint256"
        }
      ],
      "name": "updateQuorumThreshold",
      "outputs": [],
      "stateMutability": "nonpayable",
      "type": "function"
    },
    {
      "inputs": [
        {
          "internalType": "uint32",
          "name": "_votingPeriod",
          "type": "uint32"
        }
      ],
      "name": "updateVotingPeriod",
      "outputs": [],
      "stateMutability": "nonpayable",
      "type": "function"
    },
    {
      "inputs": [
        {
          "internalType": "uint32",
          "name": "_proposalId",
          "type": "uint32"
        },
        {
          "internalType": "uint8",
          "name": "_voteType",
          "type": "uint8"
        },
        {
          "internalType": "address[]",
          "name": "_tokenAddresses",
          "type": "address[]"
        },
        {
          "internalType": "uint256[]",
          "name": "_tokenIds",
          "type": "uint256[]"
        }
      ],
      "name": "vote",
      "outputs": [],
      "stateMutability": "nonpayable",
      "type": "function"
    },
    {
      "inputs": [
        {
          "internalType": "uint32",
          "name": "_proposalId",
          "type": "uint32"
        }
      ],
      "name": "votingEndBlock",
      "outputs": [
        {
          "internalType": "uint32",
          "name": "",
          "type": "uint32"
        }
      ],
      "stateMutability": "view",
      "type": "function"
    },
    {
      "inputs": [],
      "name": "votingPeriod",
      "outputs": [
        {
          "internalType": "uint32",
          "name": "",
          "type": "uint32"
        }
      ],
      "stateMutability": "view",
      "type": "function"
    },
    {
      "inputs": [
        {
          "internalType": "uint32",
          "name": "_proposalId",
          "type": "uint32"
        }
      ],
      "name": "votingPeriodEnded",
      "outputs": [
        {
          "internalType": "bool",
          "name": "",
          "type": "bool"
        }
      ],
      "stateMutability": "view",
      "type": "function"
    },
    {
      "inputs": [
        {
          "internalType": "uint256",
          "name": "_hatId",
          "type": "uint256"
        }
      ],
      "name": "whitelistHat",
      "outputs": [],
      "stateMutability": "nonpayable",
      "type": "function"
    }
  ],
  "transactionHash": "0x0aadc49ee3928cddc9d4db224da45d59634f0fe56c31fcb0b0c23289f45fe96d",
  "args": [],
  "numDeployments": 1,
  "solcInputHash": "23141815eaf29806874e288ef061ea39",
  "bytecode": "0x60806040523480156200001157600080fd5b506200001c62000054565b6200002662000054565b6200003062000054565b6200003a62000054565b6200004462000054565b6200004e62000054565b62000116565b600054610100900460ff1615620000c15760405162461bcd60e51b815260206004820152602760248201527f496e697469616c697a61626c653a20636f6e747261637420697320696e697469604482015266616c697a696e6760c81b606482015260840160405180910390fd5b60005460ff908116101562000114576000805460ff191660ff9081179091556040519081527f7f26b83ff96e1f2b6a682f133852f6798a09c465da95921460cefb38474024989060200160405180910390a15b565b61271a80620001266000396000f3fe608060405234801561001057600080fd5b506004361061023d5760003560e01c80637b7a91dd1161013b578063b1d1196f116100b8578063d877ee1d1161007c578063d877ee1d146105df578063deb61c15146105e8578063e5df8b8414610661578063e8575a7f14610674578063f2fde38b1461068757600080fd5b8063b1d1196f1461053a578063b2958b311461054d578063bf7e2c7f14610576578063c0dce37f1461057f578063c909c3b11461059257600080fd5b806397e39fef116100ff57806397e39fef146104ce578063a09c4f68146104e1578063a4f9edbf146104f4578063a77a81d014610507578063ab2f3ad41461051a57600080fd5b80637b7a91dd146104845780637e902d571461048d5780638081be91146104a05780638da5cb5b146104aa578063918f84bf146104bb57600080fd5b80634e2addad116101c957806366b629551161018d57806366b62955146104145780636d4ae6801461043f578063715018a61461045457806372d75d761461045c57806374ec29a01461047157600080fd5b80634e2addad1461033657806353a8b32014610349578063544ffc9c1461035c57806355a9dbd9146103d1578063589fe72e1461040157600080fd5b8063210a5e8711610210578063210a5e87146102b3578063250aa683146102c657806333f48a5e146102fd57806337938ab31461031057806344cfa6e51461032357600080fd5b806301ffc9a71461024257806302a251a31461026a5780630d8e6e2c1461028f5780631dc489471461029e575b600080fd5b610255610250366004611c2f565b61069a565b60405190151581526020015b60405180910390f35b606a5461027a9063ffffffff1681565b60405163ffffffff9091168152602001610261565b60405160018152602001610261565b6102b16102ac366004611c59565b6106ab565b005b6102b16102c1366004611c59565b6106bf565b6102ef6102d4366004611c87565b6001600160a01b031660009081526069602052604090205490565b604051908152602001610261565b6102b161030b366004611cb6565b6106d0565b6102b161031e366004611c87565b6106e1565b6102b1610331366004611c59565b610733565b6102b1610344366004611da9565b610850565b610255610357366004611cb6565b61088d565b6103a161036a366004611c59565b606760205260009081526040902080546001820154600283015460039093015463ffffffff80841694600160201b90940416929085565b6040805163ffffffff9687168152959094166020860152928401919091526060830152608082015260a001610261565b61027a6103df366004611cb6565b63ffffffff908116600090815260676020526040902054600160201b90041690565b61025561040f366004611c87565b610919565b606554610427906001600160a01b031681565b6040516001600160a01b039091168152602001610261565b6104476109f4565b6040516102619190611edc565b6102b1610a56565b610464610a6a565b6040516102619190611f1f565b61025561047f366004611c87565b610ac1565b6102ef606b5481565b606d54610427906001600160a01b031681565b6102ef620f424081565b6033546001600160a01b0316610427565b6102556104c9366004611f32565b610acc565b606f54610427906001600160a01b031681565b6102b16104ef366004611c59565b610afe565b6102b1610502366004611f54565b610b0f565b6102b1610515366004611f54565b610bb6565b6102ef610528366004611c87565b60696020526000908152604090205481565b6102b1610548366004611fe9565b610c95565b61025561055b366004611cb6565b63ffffffff166000908152606e602052604090205460ff1690565b6102ef60665481565b6102b161058d366004611c87565b610cab565b6102556105a0366004612015565b63ffffffff831660009081526067602090815260408083206001600160a01b0386168452600401825280832084845290915290205460ff169392505050565b6102ef606c5481565b6106306105f6366004611cb6565b63ffffffff908116600090815260676020526040902060018101546002820154600383015492549194909382811692600160201b90041690565b6040805195865260208601949094529284019190915263ffffffff908116606084015216608082015260a001610261565b61042761066f366004611c59565b610e35565b6102b1610682366004611c59565b610e5f565b6102b1610695366004611c87565b610e70565b60006106a582610eeb565b92915050565b6106b3610f10565b6106bc81610f6a565b50565b6106c7610f10565b6106bc81610fa6565b6106d8610f10565b6106bc81610fdb565b6106e9610f10565b606580546001600160a01b0319166001600160a01b0383169081179091556040517fac8d831a6ed53a98387842e08d9e0893c1d478f4a3710b254e22bd58c06b269090600090a250565b61073b610f10565b6000805b6070548110156107f957826070828154811061075d5761075d612056565b9060005260206000200154036107e7576070805461077d90600190612082565b8154811061078d5761078d612056565b9060005260206000200154607082815481106107ab576107ab612056565b60009182526020909120015560708054806107c8576107c8612095565b60019003818190600052602060002001600090559055600191506107f9565b806107f1816120ab565b91505061073f565b508061081857604051634b8d041f60e01b815260040160405180910390fd5b6040518281527ffcebee8b5aeaffbed7a0040c626c7f0c6319f022779a749d81fedda71d2a8a4b906020015b60405180910390a15050565b805182511461087257604051635435b28960e11b815260040160405180910390fd5b6108878461087f33611023565b858585611049565b50505050565b63ffffffff8082166000908152606760205260408120549091600160201b90910416431180156108e8575063ffffffff8216600090815260676020526040902060038101546002909101546108e291906120c4565b606b5411155b80156106a5575063ffffffff8216600090815260676020526040902060028101546001909101546106a59190610acc565b6000805b6070548110156109eb57606f54607080546001600160a01b0390921691634352409a9186918590811061095257610952612056565b6000918252602090912001546040516001600160e01b031960e085901b1681526001600160a01b0390921660048301526024820152604401602060405180830381865afa1580156109a7573d6000803e3d6000fd5b505050506040513d601f19601f820116820180604052508101906109cb91906120d7565b156109d95750600192915050565b806109e3816120ab565b91505061091d565b50600092915050565b60606068805480602002602001604051908101604052809291908181526020018280548015610a4c57602002820191906000526020600020905b81546001600160a01b03168152600190910190602001808311610a2e575b5050505050905090565b610a5e610f10565b610a6860006113ed565b565b60606070805480602002602001604051908101604052809291908181526020018280548015610a4c57602002820191906000526020600020905b815481526020019060010190808311610aa4575050505050905090565b60006106a582610919565b6000620f42406066548385610ae191906120c4565b610aeb91906120f9565b610af59190612110565b90921192915050565b610b06610f10565b6106bc8161143f565b6000806000806000806000806000808a806020019051810190610b32919061220c565b9950995099509950995099509950995099509950610b7f8a8a8a8a8a8a60008b89604051602001610b6b999897969594939291906122fd565b604051602081830303815290604052611501565b610ba98383604051602001610b95929190612378565b604051602081830303815290604052611599565b5050505050505050505050565b6065546001600160a01b03163314610be1576040516358c30ce160e01b815260040160405180910390fd5b600081806020019051810190610bf791906123a4565b606a54909150600090610c109063ffffffff16436123c1565b63ffffffff838116600081815260676020908152604091829020805467ffffffffffffffff1916600160201b87871690810263ffffffff1916919091174390961695909517905581519283528201929092529192507f80d0ad93bba25e53bf67fa9f2d13df59f04795ec2f91b9b3c1f607666daf9d64910160405180910390a1505050565b610c9d610f10565b610ca78282611659565b5050565b610cb3610f10565b6001600160a01b0381166000908152606960205260408120549003610ceb57604051634b62f01360e01b815260040160405180910390fd5b6001600160a01b0381166000908152606960205260408120819055606854905b81811015610dfb5760688181548110610d2657610d26612056565b6000918252602090912001546001600160a01b0390811690841603610df3576000610d52600184612082565b905060688181548110610d6757610d67612056565b600091825260209091200154606880546001600160a01b039092169184908110610d9357610d93612056565b9060005260206000200160006101000a8154816001600160a01b0302191690836001600160a01b0316021790555060688181548110610dd457610dd4612056565b600091825260209091200180546001600160a01b031916905550610dfb565b600101610d0b565b506040516001600160a01b03831681527f14236c39816f331325d02993fa15113b739aff01c21ab8f38cc5253205299fb190602001610844565b60688181548110610e4557600080fd5b6000918252602090912001546001600160a01b0316905081565b610e67610f10565b6106bc816117cd565b610e78610f10565b6001600160a01b038116610ee25760405162461bcd60e51b815260206004820152602660248201527f4f776e61626c653a206e6577206f776e657220697320746865207a65726f206160448201526564647265737360d01b60648201526084015b60405180910390fd5b6106bc816113ed565b60006001600160e01b03198216632cfc661d60e11b14806106a557506106a58261183d565b6033546001600160a01b03163314610a685760405162461bcd60e51b815260206004820181905260248201527f4f776e61626c653a2063616c6c6572206973206e6f7420746865206f776e65726044820152606401610ed9565b606c8190556040518181527f48f79e03d92b3595f74bc3c64746cf148e464673dd036633d34f8afb029482c9906020015b60405180910390a150565b606b8190556040518181527fbc589fccf641d342b7853c2c6faca39631d4d19efbe77e71e5611e31678c220e90602001610f9b565b606a805463ffffffff191663ffffffff83169081179091556040519081527f70770ce479f70673c3ed8fff63cfb758a6ffdddc30cab7c63d54c8d825e3948890602001610f9b565b600080600061103184611862565b915091508161104257509192915050565b9392505050565b6000805b835181101561120557600084828151811061106a5761106a612056565b60200260200101519050600084838151811061108857611088612056565b60200260200101519050816001600160a01b0316636352211e826040518263ffffffff1660e01b81526004016110c091815260200190565b602060405180830381865afa1580156110dd573d6000803e3d6000fd5b505050506040513d601f19601f8201168201806040525081019061110191906123e5565b6001600160a01b0316886001600160a01b03161461113557604051639b936ae960e01b815260048101829052602401610ed9565b63ffffffff891660009081526067602090815260408083206001600160a01b0386168452600401825280832084845290915290205460ff16151560010361119257604051639602f71160e01b815260048101829052602401610ed9565b6001600160a01b0382166000908152606960205260409020546111b590856120c4565b63ffffffff8a1660009081526067602090815260408083206001600160a01b0390961683526004909501815284822093825292909252919020805460ff191660019081179091559092500161104d565b50806000036112275760405163923d21f560e01b815260040160405180910390fd5b63ffffffff808716600090815260676020526040812080549092600160201b90910416900361126957604051631dc0650160e31b815260040160405180910390fd5b8054600160201b900463ffffffff164311156113245763ffffffff87166000908152606e602052604090205460ff1661130b5763ffffffff8781166000818152606e6020908152604091829020805460ff1916600117905584548251600160201b9091049094168452439084015290917f69bc861e152f1fa6553952a0fbb45f7da9f0ea69ce59cc4098313d3ce6cf1e2e910160405180910390a250506113e6565b604051637a19ed0560e01b815260040160405180910390fd5b60ff851661134b578181600101600082825461134091906120c4565b909155506113a49050565b60001960ff86160161136b578181600201600082825461134091906120c4565b60011960ff86160161138b578181600301600082825461134091906120c4565b604051636aee863360e11b815260040160405180910390fd5b7f08b8dec2438455807ba4dae88b27939d599858b97389310c0af8f42acd58d62086888787876040516113db959493929190612402565b60405180910390a150505b5050505050565b603380546001600160a01b038381166001600160a01b0319831681179093556040519116919082907f8be0079c531659141344cd1fd0a4f28419497f9722a3daafe3b4186f6b6457e090600090a35050565b60005b60705481101561149b57816070828154811061146057611460612056565b9060005260206000200154036114895760405163634a456360e01b815260040160405180910390fd5b80611493816120ab565b915050611442565b50607080546001810182556000919091527f8f6b23ffa15f0465e3176e15ca644cf24f86dc1312fe715484e3c4aead5eb78b018190556040518181527f30590a8684cec4e5a2b48765f391c996b9a004652478a8f41dc46658ccb699ed90602001610f9b565b6000806000806000806000806000898060200190518101906115239190612459565b98509850985098509850985098509850985061156b8989898989898989604051602001611557989796959493929190612522565b604051602081830303815290604052611975565b61158d81606d80546001600160a01b0319166001600160a01b03831617905550565b50505050505050505050565b600080828060200190518101906115b0919061258d565b90925090506001600160a01b0382166115dc5760405163101c05e560e21b815260040160405180910390fd5b606f80546001600160a01b0319166001600160a01b038416179055805160000361161957604051632a2b50e760e01b815260040160405180910390fd5b60005b81518110156108875761164782828151811061163a5761163a612056565b602002602001015161143f565b80611651816120ab565b91505061161c565b6040516301ffc9a760e01b81526380ac58cd60e01b60048201526001600160a01b038316906301ffc9a790602401602060405180830381865afa1580156116a4573d6000803e3d6000fd5b505050506040513d601f19601f820116820180604052508101906116c891906120d7565b6116e557604051630f58058360e11b815260040160405180910390fd5b806000036117065760405163923d21f560e01b815260040160405180910390fd5b6001600160a01b0382166000908152606960205260409020541561173d576040516371168e4f60e11b815260040160405180910390fd5b60688054600181019091557fa2153420d844928b4421650203c77babc8b33d7f2e7b450e2966db0c220977530180546001600160a01b0319166001600160a01b038416908117909155600081815260696020908152604091829020849055815192835282018390527fbf2b7f9fc6e849fdef9ff7366d8b63b608bc69ca778200c53d77372d953dc6b69101610844565b620f42408111806117ea57506117e76002620f4240612110565b81105b15611808576040516302396b6b60e61b815260040160405180910390fd5b60668190556040518181527f406c076eac4d3dde1c5d55793e80239daa8c60ee971390ce3d9f90ca4206295390602001610f9b565b60006001600160e01b0319821663250aa68360e01b14806106a557506106a582611ba0565b600080823b80820361187a5750600093849350915050565b836001600160a01b0316638da5cb5b6040518163ffffffff1660e01b8152600401602060405180830381865afa9250505080156118d4575060408051601f3d908101601f191682019092526118d1918101906123e5565b60015b6118e45750600093849350915050565b606d5460405163119709c360e31b81526001600160a01b038381166004830152600060248301819052921690638cb84e1890604401602060405180830381865afa158015611936573d6000803e3d6000fd5b505050506040513d601f19601f8201168201806040525081019061195a91906123e5565b6001600160a01b039081169616959095149590945092505050565b600054610100900460ff16158080156119955750600054600160ff909116105b806119af5750303b1580156119af575060005460ff166001145b611a125760405162461bcd60e51b815260206004820152602e60248201527f496e697469616c697a61626c653a20636f6e747261637420697320616c72656160448201526d191e481a5b9a5d1a585b1a5e995960921b6064820152608401610ed9565b6000805460ff191660011790558015611a35576000805461ff0019166101001790555b60008060008060008060008089806020019051810190611a5591906125de565b975097509750975097509750975097508551875114611a8757604051635435b28960e11b815260040160405180910390fd5b60005b8751811015611ad757611acf888281518110611aa857611aa8612056565b6020026020010151888381518110611ac257611ac2612056565b6020026020010151611659565b600101611a8a565b50611ae0611bd5565b611ae988610e70565b611af2856106e9565b611afb83610fa6565b611b0482610f6a565b611b0d816117cd565b611b1684610fdb565b876001600160a01b0316856001600160a01b03167fca32f512f02914f6bc16a49e786443029061b9adc5a987fd2f6efa56c0116a1660405160405180910390a350505050505050508015610ca7576000805461ff0019169055604051600181527f7f26b83ff96e1f2b6a682f133852f6798a09c465da95921460cefb384740249890602001610844565b60006001600160e01b031982166303639b8b60e21b14806106a557506301ffc9a760e01b6001600160e01b03198316146106a5565b600054610100900460ff16611bfc5760405162461bcd60e51b8152600401610ed990612699565b610a68600054610100900460ff16611c265760405162461bcd60e51b8152600401610ed990612699565b610a68336113ed565b600060208284031215611c4157600080fd5b81356001600160e01b03198116811461104257600080fd5b600060208284031215611c6b57600080fd5b5035919050565b6001600160a01b03811681146106bc57600080fd5b600060208284031215611c9957600080fd5b813561104281611c72565b63ffffffff811681146106bc57600080fd5b600060208284031215611cc857600080fd5b813561104281611ca4565b634e487b7160e01b600052604160045260246000fd5b604051601f8201601f1916810167ffffffffffffffff81118282101715611d1257611d12611cd3565b604052919050565b600067ffffffffffffffff821115611d3457611d34611cd3565b5060051b60200190565b600082601f830112611d4f57600080fd5b81356020611d64611d5f83611d1a565b611ce9565b82815260059290921b84018101918181019086841115611d8357600080fd5b8286015b84811015611d9e5780358352918301918301611d87565b509695505050505050565b60008060008060808587031215611dbf57600080fd5b8435611dca81611ca4565b935060208581013560ff81168114611de157600080fd5b9350604086013567ffffffffffffffff80821115611dfe57600080fd5b818801915088601f830112611e1257600080fd5b8135611e20611d5f82611d1a565b81815260059190911b8301840190848101908b831115611e3f57600080fd5b938501935b82851015611e66578435611e5781611c72565b82529385019390850190611e44565b965050506060880135925080831115611e7e57600080fd5b5050611e8c87828801611d3e565b91505092959194509250565b600081518084526020808501945080840160005b83811015611ed15781516001600160a01b031687529582019590820190600101611eac565b509495945050505050565b6020815260006110426020830184611e98565b600081518084526020808501945080840160005b83811015611ed157815187529582019590820190600101611f03565b6020815260006110426020830184611eef565b60008060408385031215611f4557600080fd5b50508035926020909101359150565b60006020808385031215611f6757600080fd5b823567ffffffffffffffff80821115611f7f57600080fd5b818501915085601f830112611f9357600080fd5b813581811115611fa557611fa5611cd3565b611fb7601f8201601f19168501611ce9565b91508082528684828501011115611fcd57600080fd5b8084840185840137600090820190930192909252509392505050565b60008060408385031215611ffc57600080fd5b823561200781611c72565b946020939093013593505050565b60008060006060848603121561202a57600080fd5b833561203581611ca4565b9250602084013561204581611c72565b929592945050506040919091013590565b634e487b7160e01b600052603260045260246000fd5b634e487b7160e01b600052601160045260246000fd5b818103818111156106a5576106a561206c565b634e487b7160e01b600052603160045260246000fd5b6000600182016120bd576120bd61206c565b5060010190565b808201808211156106a5576106a561206c565b6000602082840312156120e957600080fd5b8151801515811461104257600080fd5b80820281158282048414176106a5576106a561206c565b60008261212d57634e487b7160e01b600052601260045260246000fd5b500490565b805161213d81611c72565b919050565b600082601f83011261215357600080fd5b81516020612163611d5f83611d1a565b82815260059290921b8401810191818101908684111561218257600080fd5b8286015b84811015611d9e57805161219981611c72565b8352918301918301612186565b600082601f8301126121b757600080fd5b815160206121c7611d5f83611d1a565b82815260059290921b840181019181810190868411156121e657600080fd5b8286015b84811015611d9e57805183529183019183016121ea565b805161213d81611ca4565b6000806000806000806000806000806101408b8d03121561222c57600080fd5b6122358b612132565b995060208b015167ffffffffffffffff8082111561225257600080fd5b61225e8e838f01612142565b9a5060408d015191508082111561227457600080fd5b6122808e838f016121a6565b995061228e60608e01612132565b985061229c60808e01612201565b975060a08d0151965060c08d015195506122b860e08e01612132565b94506101008d01519150808211156122cf57600080fd5b506122dc8d828e016121a6565b9250506122ec6101208c01612132565b90509295989b9194979a5092959850565b6001600160a01b038a81168252610120602083018190526000916123238483018d611e98565b91508382036040850152612337828c611eef565b998116606085015263ffffffff989098166080840152505060a081019490945260ff9290921660c084015260e0830152909116610100909101529392505050565b6001600160a01b038316815260406020820181905260009061239c90830184611eef565b949350505050565b6000602082840312156123b657600080fd5b815161104281611ca4565b63ffffffff8181168382160190808211156123de576123de61206c565b5092915050565b6000602082840312156123f757600080fd5b815161104281611c72565b6001600160a01b038616815263ffffffff8516602082015260ff8416604082015260a06060820181905260009061243b90830185611e98565b828103608084015261244d8185611eef565b98975050505050505050565b60008060008060008060008060006101208a8c03121561247857600080fd5b895161248381611c72565b60208b015190995067ffffffffffffffff808211156124a157600080fd5b6124ad8d838e01612142565b995060408c01519150808211156124c357600080fd5b506124d08c828d016121a6565b97505060608a01516124e181611c72565b95506124ef60808b01612201565b945060a08a0151935060c08a0151925060e08a015191506125136101008b01612132565b90509295985092959850929598565b6001600160a01b038981168252610100602083018190526000916125488483018c611e98565b9150838203604085015261255c828b611eef565b98166060840152505063ffffffff94909416608085015260a084019290925260c083015260e0909101529392505050565b600080604083850312156125a057600080fd5b82516125ab81611c72565b602084015190925067ffffffffffffffff8111156125c857600080fd5b6125d4858286016121a6565b9150509250929050565b600080600080600080600080610100898b0312156125fb57600080fd5b885161260681611c72565b60208a015190985067ffffffffffffffff8082111561262457600080fd5b6126308c838d01612142565b985060408b015191508082111561264657600080fd5b506126538b828c016121a6565b965050606089015161266481611c72565b60808a015190955061267581611ca4565b60a08a015160c08b015160e0909b0151999c989b5096999598909790945092505050565b6020808252602b908201527f496e697469616c697a61626c653a20636f6e7472616374206973206e6f74206960408201526a6e697469616c697a696e6760a81b60608201526080019056fea2646970667358221220393e6d0aeda5c77097765d74203db35fad41fef7cc04b7a4dff9c1d116e6dc4064736f6c63430008130033",
  "devdoc": {
    "errors": {
      "HatAlreadyWhitelisted()": [
        {
          "details": "Error thrown when attempting to whitelist a Hat that is already whitelisted."
        }
      ],
      "HatNotWhitelisted()": [
        {
          "details": "Error thrown when attempting to remove a Hat that is not whitelisted."
        }
      ],
      "MissingHatsContract()": [
        {
          "details": "Error thrown when the Hats contract address is missing."
        }
      ],
      "NoHatsWhitelisted()": [
        {
          "details": "Error thrown when no Hats are whitelisted."
        }
      ]
    },
    "events": {
      "HatUnwhitelisted(uint256)": {
        "details": "Emitted when a Hat is removed from the whitelist."
      },
      "HatWhitelisted(uint256)": {
        "details": "Emitted when a Hat is added to the whitelist."
      },
      "Initialized(uint8)": {
        "details": "Triggered when the contract has been initialized or reinitialized."
      }
    },
    "kind": "dev",
    "methods": {
      "addGovernanceToken(address,uint256)": {
        "params": {
          "_tokenAddress": "the address of the ERC-721 token",
          "_weight": "the number of votes each NFT id is worth"
        }
      },
      "constructor": {
        "details": "Constructor that disables initializers"
      },
      "getProposalVotes(uint32)": {
        "params": {
          "_proposalId": "id of the Proposal"
        },
        "returns": {
          "abstainVotes": "current count of \"ABSTAIN\" votes",
          "endBlock": "block number voting ends",
          "noVotes": "current count of \"NO\" votes",
          "startBlock": "block number voting starts",
          "yesVotes": "current count of \"YES\" votes"
        }
      },
      "getTokenWeight(address)": {
        "params": {
          "_tokenAddress": "the ERC-721 token address"
        }
      },
      "getWhitelistedHatIds()": {
        "details": "Returns the IDs of all whitelisted Hats.",
        "returns": {
          "_0": "uint256[] memory An array of whitelisted Hat IDs."
        }
      },
      "hasVoted(uint32,address,uint256)": {
        "params": {
          "_proposalId": "the id of the Proposal",
          "_tokenAddress": "the ERC-721 contract address",
          "_tokenId": "the unique id of the NFT"
        }
      },
      "initializeProposal(bytes)": {
        "params": {
          "_data": "arbitrary data to pass to this BaseStrategy"
        }
      },
      "isPassed(uint32)": {
        "params": {
          "_proposalId": "proposalId to check"
        },
        "returns": {
          "_0": "bool true if the proposal has passed, otherwise false"
        }
      },
      "isProposer(address)": {
        "params": {
          "_address": "address to check"
        },
        "returns": {
          "_0": "bool true if the address can submit a Proposal, otherwise false"
        }
      },
      "isWearingWhitelistedHat(address)": {
        "details": "Checks if an address is wearing any of the whitelisted Hats.",
        "params": {
          "_address": "The address to check for wearing whitelisted Hats."
        },
        "returns": {
          "_0": "bool Returns true if the address is wearing any of the whitelisted Hats, false otherwise."
        }
      },
      "meetsBasis(uint256,uint256)": {
        "params": {
          "_noVotes": "number of votes against",
          "_yesVotes": "number of votes in favor"
        },
        "returns": {
          "_0": "bool whether the yes votes meets the set basis"
        }
      },
      "owner()": {
        "details": "Returns the address of the current owner."
      },
      "removeGovernanceToken(address)": {
        "params": {
          "_tokenAddress": "the ERC-721 token to remove"
        }
      },
      "renounceOwnership()": {
        "details": "Leaves the contract without owner. It will not be possible to call `onlyOwner` functions anymore. Can only be called by the current owner. NOTE: Renouncing ownership will leave the contract without an owner, thereby removing any functionality that is only available to the owner."
      },
      "setAzorius(address)": {
        "params": {
          "_azoriusModule": "address of the Azorius Safe module"
        }
      },
      "setUp(bytes)": {
        "params": {
          "initializeParams": "encoded initialization parameters: `address _owner`, `address[] memory _tokens`, `uint256[] memory _weights`, `address _azoriusModule`, `uint32 _votingPeriod`, `uint256 _quorumThreshold`, `uint256 _basisNumerator`, `address _hatsContract`, `uint256[] _initialWhitelistedHats`, `address _lightAccountFactory`"
        }
      },
      "transferOwnership(address)": {
        "details": "Transfers ownership of the contract to a new account (`newOwner`). Can only be called by the current owner."
      },
      "unwhitelistHat(uint256)": {
        "params": {
          "_hatId": "The ID of the Hat to remove from the whitelist"
        }
      },
      "updateBasisNumerator(uint256)": {
        "params": {
          "_basisNumerator": "numerator to use"
        }
      },
      "updateProposerThreshold(uint256)": {
        "params": {
          "_proposerThreshold": "required voting weight"
        }
      },
      "updateQuorumThreshold(uint256)": {
        "params": {
          "_quorumThreshold": "total voting weight required to achieve quorum"
        }
      },
      "updateVotingPeriod(uint32)": {
        "params": {
          "_votingPeriod": "voting time period (in blocks)"
        }
      },
      "vote(uint32,uint8,address[],uint256[])": {
        "params": {
          "_proposalId": "id of the Proposal to vote on",
          "_tokenAddresses": "list of ERC-721 addresses that correspond to ids in _tokenIds",
          "_tokenIds": "list of unique token ids that correspond to their ERC-721 address in _tokenAddresses",
          "_voteType": "Proposal support as defined in VoteType (NO, YES, ABSTAIN)"
        }
      },
      "votingEndBlock(uint32)": {
        "params": {
          "_proposalId": "proposalId to check"
        },
        "returns": {
          "_0": "uint32 block number when voting ends on the Proposal"
        }
      },
      "votingPeriodEnded(uint32)": {
        "details": "Tracks whether a proposal's voting period has been officially marked as ended. This flag is set to true when the first vote attempt occurs after the voting end block, triggering a VotingPeriodEnded event. Used to ensure the event is emitted exactly once per proposal, and only if a vote has been attempted after the voting end block.",
        "params": {
          "_proposalId": "The ID of the proposal to check."
        },
        "returns": {
          "_0": "True if the voting period has ended and a vote has been attempted after the voting end block, false otherwise."
        }
      },
      "whitelistHat(uint256)": {
        "params": {
          "_hatId": "The ID of the Hat to whitelist"
        }
      }
    },
    "version": 1
  },
  "userdoc": {
    "kind": "user",
    "methods": {
      "BASIS_DENOMINATOR()": {
        "notice": "The denominator to use when calculating basis (1,000,000). "
      },
      "addGovernanceToken(address,uint256)": {
        "notice": "Adds a new ERC-721 token as a governance token, along with its associated weight."
      },
      "basisNumerator()": {
        "notice": "The numerator to use when calculating basis (adjustable). "
      },
      "getAllTokenAddresses()": {
        "notice": "Returns whole list of governance tokens addresses"
      },
      "getProposalVotes(uint32)": {
        "notice": "Returns the current state of the specified Proposal."
      },
      "getTokenWeight(address)": {
        "notice": "Returns the current token weight for the given ERC-721 token address."
      },
      "getVersion()": {
        "notice": "Implementation of version"
      },
      "hasVoted(uint32,address,uint256)": {
        "notice": "Returns whether an NFT id has already voted."
      },
      "initializeProposal(bytes)": {
        "notice": "Called by the [Azorius](../Azorius.md) module. This notifies this  [BaseStrategy](../BaseStrategy.md) that a new Proposal has been created."
      },
      "isPassed(uint32)": {
        "notice": "Returns whether a Proposal has been passed."
      },
      "isProposer(address)": {
        "notice": "Returns whether the specified address can submit a Proposal with this [BaseStrategy](../BaseStrategy.md). This allows a BaseStrategy to place any limits it would like on who can create new Proposals, such as requiring a minimum token delegation."
      },
      "meetsBasis(uint256,uint256)": {
        "notice": "Calculates whether a vote meets its basis."
      },
      "proposalVotes(uint256)": {
        "notice": "`proposalId` to `ProposalVotes`, the voting state of a Proposal. "
      },
      "proposerThreshold()": {
        "notice": "The minimum number of voting power required to create a new proposal."
      },
      "quorumThreshold()": {
        "notice": "The total number of votes required to achieve quorum. \"Quorum threshold\" is used instead of a quorum percent because IERC721 has no totalSupply function, so the contract cannot determine this."
      },
      "removeGovernanceToken(address)": {
        "notice": "Removes the given ERC-721 token address from the list of governance tokens."
      },
      "setAzorius(address)": {
        "notice": "Sets the address of the [Azorius](../Azorius.md) contract this  [BaseStrategy](../BaseStrategy.md) is being used on."
      },
      "setUp(bytes)": {
        "notice": "Sets up the contract with its initial parameters."
      },
      "tokenAddresses(uint256)": {
        "notice": "The list of ERC-721 tokens that can vote. "
      },
      "tokenWeights(address)": {
        "notice": "ERC-721 address to its voting weight per NFT id.  "
      },
      "unwhitelistHat(uint256)": {
        "notice": "Removes a Hat from the whitelist for proposal creation."
      },
      "updateBasisNumerator(uint256)": {
        "notice": "Updates the `basisNumerator` for future Proposals."
      },
      "updateProposerThreshold(uint256)": {
        "notice": "Updates the voting weight required to submit new Proposals."
      },
      "updateQuorumThreshold(uint256)": {
        "notice": "Updates the quorum required for future Proposals."
      },
      "updateVotingPeriod(uint32)": {
        "notice": "Updates the voting time period for new Proposals."
      },
      "vote(uint32,uint8,address[],uint256[])": {
        "notice": "Submits a vote on an existing Proposal."
      },
      "votingEndBlock(uint32)": {
        "notice": "Returns the block number voting ends on a given Proposal."
      },
      "votingPeriod()": {
        "notice": "Number of blocks a new Proposal can be voted on. "
      },
      "whitelistHat(uint256)": {
        "notice": "Adds a Hat to the whitelist for proposal creation."
      }
    },
    "notice": "An [Azorius](./Azorius.md) [BaseStrategy](./BaseStrategy.md) implementation that enables linear (i.e. 1 to 1) ERC721 based token voting, with proposal creation restricted to users wearing whitelisted Hats.",
    "version": 1
  },
  "storageLayout": {
    "storage": [
      {
        "astId": 797,
        "contract": "contracts/azorius/strategies/LinearERC721VotingWithHatsProposalCreationV1.sol:LinearERC721VotingWithHatsProposalCreationV1",
        "label": "_initialized",
        "offset": 0,
        "slot": "0",
        "type": "t_uint8"
      },
      {
        "astId": 800,
        "contract": "contracts/azorius/strategies/LinearERC721VotingWithHatsProposalCreationV1.sol:LinearERC721VotingWithHatsProposalCreationV1",
        "label": "_initializing",
        "offset": 1,
        "slot": "0",
        "type": "t_bool"
      },
      {
        "astId": 3699,
        "contract": "contracts/azorius/strategies/LinearERC721VotingWithHatsProposalCreationV1.sol:LinearERC721VotingWithHatsProposalCreationV1",
        "label": "__gap",
        "offset": 0,
        "slot": "1",
        "type": "t_array(t_uint256)50_storage"
      },
      {
        "astId": 591,
        "contract": "contracts/azorius/strategies/LinearERC721VotingWithHatsProposalCreationV1.sol:LinearERC721VotingWithHatsProposalCreationV1",
        "label": "_owner",
        "offset": 0,
        "slot": "51",
        "type": "t_address"
      },
      {
        "astId": 711,
        "contract": "contracts/azorius/strategies/LinearERC721VotingWithHatsProposalCreationV1.sol:LinearERC721VotingWithHatsProposalCreationV1",
        "label": "__gap",
        "offset": 0,
        "slot": "52",
        "type": "t_array(t_uint256)49_storage"
      },
      {
        "astId": 12539,
        "contract": "contracts/azorius/strategies/LinearERC721VotingWithHatsProposalCreationV1.sol:LinearERC721VotingWithHatsProposalCreationV1",
        "label": "azoriusModule",
        "offset": 0,
        "slot": "101",
        "type": "t_contract(IAzorius)15220"
      },
      {
        "astId": 12639,
        "contract": "contracts/azorius/strategies/LinearERC721VotingWithHatsProposalCreationV1.sol:LinearERC721VotingWithHatsProposalCreationV1",
        "label": "basisNumerator",
        "offset": 0,
        "slot": "102",
        "type": "t_uint256"
      },
      {
        "astId": 17127,
        "contract": "contracts/azorius/strategies/LinearERC721VotingWithHatsProposalCreationV1.sol:LinearERC721VotingWithHatsProposalCreationV1",
        "label": "proposalVotes",
        "offset": 0,
        "slot": "103",
        "type": "t_mapping(t_uint256,t_struct(ProposalVotes)17121_storage)"
      },
      {
        "astId": 17131,
        "contract": "contracts/azorius/strategies/LinearERC721VotingWithHatsProposalCreationV1.sol:LinearERC721VotingWithHatsProposalCreationV1",
        "label": "tokenAddresses",
        "offset": 0,
        "slot": "104",
        "type": "t_array(t_address)dyn_storage"
      },
      {
        "astId": 17136,
        "contract": "contracts/azorius/strategies/LinearERC721VotingWithHatsProposalCreationV1.sol:LinearERC721VotingWithHatsProposalCreationV1",
        "label": "tokenWeights",
        "offset": 0,
        "slot": "105",
        "type": "t_mapping(t_address,t_uint256)"
      },
      {
        "astId": 17139,
        "contract": "contracts/azorius/strategies/LinearERC721VotingWithHatsProposalCreationV1.sol:LinearERC721VotingWithHatsProposalCreationV1",
        "label": "votingPeriod",
        "offset": 0,
        "slot": "106",
        "type": "t_uint32"
      },
      {
        "astId": 17142,
        "contract": "contracts/azorius/strategies/LinearERC721VotingWithHatsProposalCreationV1.sol:LinearERC721VotingWithHatsProposalCreationV1",
        "label": "quorumThreshold",
        "offset": 0,
        "slot": "107",
        "type": "t_uint256"
      },
      {
        "astId": 17145,
        "contract": "contracts/azorius/strategies/LinearERC721VotingWithHatsProposalCreationV1.sol:LinearERC721VotingWithHatsProposalCreationV1",
        "label": "proposerThreshold",
        "offset": 0,
        "slot": "108",
        "type": "t_uint256"
      },
      {
        "astId": 11143,
        "contract": "contracts/azorius/strategies/LinearERC721VotingWithHatsProposalCreationV1.sol:LinearERC721VotingWithHatsProposalCreationV1",
        "label": "lightAccountFactory",
        "offset": 0,
        "slot": "109",
        "type": "t_contract(ILightAccountFactory)18887"
      },
      {
        "astId": 15286,
        "contract": "contracts/azorius/strategies/LinearERC721VotingWithHatsProposalCreationV1.sol:LinearERC721VotingWithHatsProposalCreationV1",
        "label": "_votingPeriodEnded",
        "offset": 0,
        "slot": "110",
        "type": "t_mapping(t_uint32,t_bool)"
      },
      {
        "astId": 15628,
        "contract": "contracts/azorius/strategies/LinearERC721VotingWithHatsProposalCreationV1.sol:LinearERC721VotingWithHatsProposalCreationV1",
        "label": "hatsContract",
        "offset": 0,
        "slot": "111",
        "type": "t_contract(IHats)19612"
      },
      {
        "astId": 15632,
        "contract": "contracts/azorius/strategies/LinearERC721VotingWithHatsProposalCreationV1.sol:LinearERC721VotingWithHatsProposalCreationV1",
        "label": "whitelistedHatIds",
        "offset": 0,
        "slot": "112",
        "type": "t_array(t_uint256)dyn_storage"
      }
    ],
    "types": {
      "t_address": {
        "encoding": "inplace",
        "label": "address",
        "numberOfBytes": "20"
      },
      "t_array(t_address)dyn_storage": {
        "base": "t_address",
        "encoding": "dynamic_array",
        "label": "address[]",
        "numberOfBytes": "32"
      },
      "t_array(t_uint256)49_storage": {
        "base": "t_uint256",
        "encoding": "inplace",
        "label": "uint256[49]",
        "numberOfBytes": "1568"
      },
      "t_array(t_uint256)50_storage": {
        "base": "t_uint256",
        "encoding": "inplace",
        "label": "uint256[50]",
        "numberOfBytes": "1600"
      },
      "t_array(t_uint256)dyn_storage": {
        "base": "t_uint256",
        "encoding": "dynamic_array",
        "label": "uint256[]",
        "numberOfBytes": "32"
      },
      "t_bool": {
        "encoding": "inplace",
        "label": "bool",
        "numberOfBytes": "1"
      },
      "t_contract(IAzorius)15220": {
        "encoding": "inplace",
        "label": "contract IAzorius",
        "numberOfBytes": "20"
      },
      "t_contract(IHats)19612": {
        "encoding": "inplace",
        "label": "contract IHats",
        "numberOfBytes": "20"
      },
      "t_contract(ILightAccountFactory)18887": {
        "encoding": "inplace",
        "label": "contract ILightAccountFactory",
        "numberOfBytes": "20"
      },
      "t_mapping(t_address,t_mapping(t_uint256,t_bool))": {
        "encoding": "mapping",
        "key": "t_address",
        "label": "mapping(address => mapping(uint256 => bool))",
        "numberOfBytes": "32",
        "value": "t_mapping(t_uint256,t_bool)"
      },
      "t_mapping(t_address,t_uint256)": {
        "encoding": "mapping",
        "key": "t_address",
        "label": "mapping(address => uint256)",
        "numberOfBytes": "32",
        "value": "t_uint256"
      },
      "t_mapping(t_uint256,t_bool)": {
        "encoding": "mapping",
        "key": "t_uint256",
        "label": "mapping(uint256 => bool)",
        "numberOfBytes": "32",
        "value": "t_bool"
      },
      "t_mapping(t_uint256,t_struct(ProposalVotes)17121_storage)": {
        "encoding": "mapping",
        "key": "t_uint256",
        "label": "mapping(uint256 => struct LinearERC721VotingExtensible.ProposalVotes)",
        "numberOfBytes": "32",
        "value": "t_struct(ProposalVotes)17121_storage"
      },
      "t_mapping(t_uint32,t_bool)": {
        "encoding": "mapping",
        "key": "t_uint32",
        "label": "mapping(uint32 => bool)",
        "numberOfBytes": "32",
        "value": "t_bool"
      },
      "t_struct(ProposalVotes)17121_storage": {
        "encoding": "inplace",
        "label": "struct LinearERC721VotingExtensible.ProposalVotes",
        "members": [
          {
            "astId": 17105,
            "contract": "contracts/azorius/strategies/LinearERC721VotingWithHatsProposalCreationV1.sol:LinearERC721VotingWithHatsProposalCreationV1",
            "label": "votingStartBlock",
            "offset": 0,
            "slot": "0",
            "type": "t_uint32"
          },
          {
            "astId": 17107,
            "contract": "contracts/azorius/strategies/LinearERC721VotingWithHatsProposalCreationV1.sol:LinearERC721VotingWithHatsProposalCreationV1",
            "label": "votingEndBlock",
            "offset": 4,
            "slot": "0",
            "type": "t_uint32"
          },
          {
            "astId": 17109,
            "contract": "contracts/azorius/strategies/LinearERC721VotingWithHatsProposalCreationV1.sol:LinearERC721VotingWithHatsProposalCreationV1",
            "label": "noVotes",
            "offset": 0,
            "slot": "1",
            "type": "t_uint256"
          },
          {
            "astId": 17111,
            "contract": "contracts/azorius/strategies/LinearERC721VotingWithHatsProposalCreationV1.sol:LinearERC721VotingWithHatsProposalCreationV1",
            "label": "yesVotes",
            "offset": 0,
            "slot": "2",
            "type": "t_uint256"
          },
          {
            "astId": 17113,
            "contract": "contracts/azorius/strategies/LinearERC721VotingWithHatsProposalCreationV1.sol:LinearERC721VotingWithHatsProposalCreationV1",
            "label": "abstainVotes",
            "offset": 0,
            "slot": "3",
            "type": "t_uint256"
          },
          {
            "astId": 17120,
            "contract": "contracts/azorius/strategies/LinearERC721VotingWithHatsProposalCreationV1.sol:LinearERC721VotingWithHatsProposalCreationV1",
            "label": "hasVoted",
            "offset": 0,
            "slot": "4",
            "type": "t_mapping(t_address,t_mapping(t_uint256,t_bool))"
          }
        ],
        "numberOfBytes": "160"
      },
      "t_uint256": {
        "encoding": "inplace",
        "label": "uint256",
        "numberOfBytes": "32"
      },
      "t_uint32": {
        "encoding": "inplace",
        "label": "uint32",
        "numberOfBytes": "4"
      },
      "t_uint8": {
        "encoding": "inplace",
        "label": "uint8",
        "numberOfBytes": "1"
      }
    }
  }
}