{
  "_format": "hh-sol-artifact-1",
  "contractName": "ZooAuction",
  "sourceName": "src/ZooAuction.sol",
  "abi": [
    {
      "inputs": [
        {
          "internalType": "address",
          "name": "_zoo",
          "type": "address"
        },
        {
          "internalType": "address",
          "name": "_weth",
          "type": "address"
        }
      ],
      "stateMutability": "nonpayable",
      "type": "constructor"
    },
    {
      "anonymous": false,
      "inputs": [
        {
          "indexed": true,
          "internalType": "uint256",
          "name": "auctionId",
          "type": "uint256"
        },
        {
          "indexed": true,
          "internalType": "uint256",
          "name": "tokenId",
          "type": "uint256"
        },
        {
          "indexed": true,
          "internalType": "address",
          "name": "tokenContract",
          "type": "address"
        },
        {
          "indexed": false,
          "internalType": "bool",
          "name": "approved",
          "type": "bool"
        }
      ],
      "name": "AuctionApprovalUpdated",
      "type": "event"
    },
    {
      "anonymous": false,
      "inputs": [
        {
          "indexed": true,
          "internalType": "uint256",
          "name": "auctionId",
          "type": "uint256"
        },
        {
          "indexed": true,
          "internalType": "uint256",
          "name": "tokenId",
          "type": "uint256"
        },
        {
          "indexed": true,
          "internalType": "address",
          "name": "tokenContract",
          "type": "address"
        },
        {
          "indexed": false,
          "internalType": "address",
          "name": "sender",
          "type": "address"
        },
        {
          "indexed": false,
          "internalType": "uint256",
          "name": "value",
          "type": "uint256"
        },
        {
          "indexed": false,
          "internalType": "bool",
          "name": "firstBid",
          "type": "bool"
        },
        {
          "indexed": false,
          "internalType": "bool",
          "name": "extended",
          "type": "bool"
        }
      ],
      "name": "AuctionBid",
      "type": "event"
    },
    {
      "anonymous": false,
      "inputs": [
        {
          "indexed": true,
          "internalType": "uint256",
          "name": "auctionId",
          "type": "uint256"
        },
        {
          "indexed": true,
          "internalType": "uint256",
          "name": "tokenId",
          "type": "uint256"
        },
        {
          "indexed": true,
          "internalType": "address",
          "name": "tokenContract",
          "type": "address"
        },
        {
          "indexed": false,
          "internalType": "address",
          "name": "tokenOwner",
          "type": "address"
        }
      ],
      "name": "AuctionCanceled",
      "type": "event"
    },
    {
      "anonymous": false,
      "inputs": [
        {
          "indexed": true,
          "internalType": "uint256",
          "name": "auctionId",
          "type": "uint256"
        },
        {
          "indexed": true,
          "internalType": "uint256",
          "name": "tokenId",
          "type": "uint256"
        },
        {
          "indexed": true,
          "internalType": "address",
          "name": "tokenContract",
          "type": "address"
        },
        {
          "indexed": false,
          "internalType": "uint256",
          "name": "duration",
          "type": "uint256"
        },
        {
          "indexed": false,
          "internalType": "uint256",
          "name": "reservePrice",
          "type": "uint256"
        },
        {
          "indexed": false,
          "internalType": "address",
          "name": "tokenOwner",
          "type": "address"
        },
        {
          "indexed": false,
          "internalType": "address",
          "name": "curator",
          "type": "address"
        },
        {
          "indexed": false,
          "internalType": "uint8",
          "name": "curatorFeePercentage",
          "type": "uint8"
        },
        {
          "indexed": false,
          "internalType": "address",
          "name": "auctionCurrency",
          "type": "address"
        }
      ],
      "name": "AuctionCreated",
      "type": "event"
    },
    {
      "anonymous": false,
      "inputs": [
        {
          "indexed": true,
          "internalType": "uint256",
          "name": "auctionId",
          "type": "uint256"
        },
        {
          "indexed": true,
          "internalType": "uint256",
          "name": "tokenId",
          "type": "uint256"
        },
        {
          "indexed": true,
          "internalType": "address",
          "name": "tokenContract",
          "type": "address"
        },
        {
          "indexed": false,
          "internalType": "uint256",
          "name": "duration",
          "type": "uint256"
        }
      ],
      "name": "AuctionDurationExtended",
      "type": "event"
    },
    {
      "anonymous": false,
      "inputs": [
        {
          "indexed": true,
          "internalType": "uint256",
          "name": "auctionId",
          "type": "uint256"
        },
        {
          "indexed": true,
          "internalType": "uint256",
          "name": "tokenId",
          "type": "uint256"
        },
        {
          "indexed": true,
          "internalType": "address",
          "name": "tokenContract",
          "type": "address"
        },
        {
          "indexed": false,
          "internalType": "address",
          "name": "tokenOwner",
          "type": "address"
        },
        {
          "indexed": false,
          "internalType": "address",
          "name": "curator",
          "type": "address"
        },
        {
          "indexed": false,
          "internalType": "address",
          "name": "winner",
          "type": "address"
        },
        {
          "indexed": false,
          "internalType": "uint256",
          "name": "amount",
          "type": "uint256"
        },
        {
          "indexed": false,
          "internalType": "uint256",
          "name": "curatorFee",
          "type": "uint256"
        },
        {
          "indexed": false,
          "internalType": "address",
          "name": "auctionCurrency",
          "type": "address"
        }
      ],
      "name": "AuctionEnded",
      "type": "event"
    },
    {
      "anonymous": false,
      "inputs": [
        {
          "indexed": true,
          "internalType": "uint256",
          "name": "auctionId",
          "type": "uint256"
        },
        {
          "indexed": true,
          "internalType": "uint256",
          "name": "tokenId",
          "type": "uint256"
        },
        {
          "indexed": true,
          "internalType": "address",
          "name": "tokenContract",
          "type": "address"
        },
        {
          "indexed": false,
          "internalType": "uint256",
          "name": "reservePrice",
          "type": "uint256"
        }
      ],
      "name": "AuctionReservePriceUpdated",
      "type": "event"
    },
    {
      "anonymous": false,
      "inputs": [
        {
          "indexed": true,
          "internalType": "address",
          "name": "previousOwner",
          "type": "address"
        },
        {
          "indexed": true,
          "internalType": "address",
          "name": "newOwner",
          "type": "address"
        }
      ],
      "name": "OwnershipTransferred",
      "type": "event"
    },
    {
      "stateMutability": "payable",
      "type": "fallback"
    },
    {
      "inputs": [
        {
          "internalType": "uint256",
          "name": "",
          "type": "uint256"
        }
      ],
      "name": "auctions",
      "outputs": [
        {
          "internalType": "uint256",
          "name": "tokenId",
          "type": "uint256"
        },
        {
          "internalType": "address",
          "name": "tokenContract",
          "type": "address"
        },
        {
          "internalType": "bool",
          "name": "approved",
          "type": "bool"
        },
        {
          "internalType": "uint256",
          "name": "amount",
          "type": "uint256"
        },
        {
          "internalType": "uint256",
          "name": "duration",
          "type": "uint256"
        },
        {
          "internalType": "uint256",
          "name": "firstBidTime",
          "type": "uint256"
        },
        {
          "internalType": "uint256",
          "name": "reservePrice",
          "type": "uint256"
        },
        {
          "internalType": "uint8",
          "name": "curatorFeePercentage",
          "type": "uint8"
        },
        {
          "internalType": "address",
          "name": "tokenOwner",
          "type": "address"
        },
        {
          "internalType": "address payable",
          "name": "bidder",
          "type": "address"
        },
        {
          "internalType": "address payable",
          "name": "curator",
          "type": "address"
        },
        {
          "internalType": "address",
          "name": "auctionCurrency",
          "type": "address"
        }
      ],
      "stateMutability": "view",
      "type": "function"
    },
    {
      "inputs": [
        {
          "internalType": "uint256",
          "name": "auctionId",
          "type": "uint256"
        }
      ],
      "name": "cancelAuction",
      "outputs": [],
      "stateMutability": "nonpayable",
      "type": "function"
    },
    {
      "inputs": [
        {
          "internalType": "uint256",
          "name": "tokenId",
          "type": "uint256"
        },
        {
          "internalType": "address",
          "name": "tokenContract",
          "type": "address"
        },
        {
          "internalType": "uint256",
          "name": "duration",
          "type": "uint256"
        },
        {
          "internalType": "uint256",
          "name": "reservePrice",
          "type": "uint256"
        },
        {
          "internalType": "address payable",
          "name": "curator",
          "type": "address"
        },
        {
          "internalType": "uint8",
          "name": "curatorFeePercentage",
          "type": "uint8"
        },
        {
          "internalType": "address",
          "name": "auctionCurrency",
          "type": "address"
        }
      ],
      "name": "createAuction",
      "outputs": [
        {
          "internalType": "uint256",
          "name": "",
          "type": "uint256"
        }
      ],
      "stateMutability": "nonpayable",
      "type": "function"
    },
    {
      "inputs": [
        {
          "internalType": "uint256",
          "name": "auctionId",
          "type": "uint256"
        },
        {
          "internalType": "uint256",
          "name": "amount",
          "type": "uint256"
        }
      ],
      "name": "createBid",
      "outputs": [],
      "stateMutability": "payable",
      "type": "function"
    },
    {
      "inputs": [
        {
          "internalType": "uint256",
          "name": "auctionId",
          "type": "uint256"
        }
      ],
      "name": "endAuction",
      "outputs": [],
      "stateMutability": "nonpayable",
      "type": "function"
    },
    {
      "inputs": [],
      "name": "minBidIncrementPercentage",
      "outputs": [
        {
          "internalType": "uint8",
          "name": "",
          "type": "uint8"
        }
      ],
      "stateMutability": "view",
      "type": "function"
    },
    {
      "inputs": [],
      "name": "owner",
      "outputs": [
        {
          "internalType": "address",
          "name": "",
          "type": "address"
        }
      ],
      "stateMutability": "view",
      "type": "function"
    },
    {
      "inputs": [],
      "name": "renounceOwnership",
      "outputs": [],
      "stateMutability": "nonpayable",
      "type": "function"
    },
    {
      "inputs": [
        {
          "internalType": "uint256",
          "name": "auctionId",
          "type": "uint256"
        },
        {
          "internalType": "bool",
          "name": "approved",
          "type": "bool"
        }
      ],
      "name": "setAuctionApproval",
      "outputs": [],
      "stateMutability": "nonpayable",
      "type": "function"
    },
    {
      "inputs": [
        {
          "internalType": "uint256",
          "name": "auctionId",
          "type": "uint256"
        },
        {
          "internalType": "uint256",
          "name": "reservePrice",
          "type": "uint256"
        }
      ],
      "name": "setAuctionReservePrice",
      "outputs": [],
      "stateMutability": "nonpayable",
      "type": "function"
    },
    {
      "inputs": [],
      "name": "timeBuffer",
      "outputs": [
        {
          "internalType": "uint256",
          "name": "",
          "type": "uint256"
        }
      ],
      "stateMutability": "view",
      "type": "function"
    },
    {
      "inputs": [
        {
          "internalType": "address",
          "name": "newOwner",
          "type": "address"
        }
      ],
      "name": "transferOwnership",
      "outputs": [],
      "stateMutability": "nonpayable",
      "type": "function"
    },
    {
      "inputs": [],
      "name": "wethAddress",
      "outputs": [
        {
          "internalType": "address",
          "name": "",
          "type": "address"
        }
      ],
      "stateMutability": "view",
      "type": "function"
    },
    {
      "inputs": [],
      "name": "zoo",
      "outputs": [
        {
          "internalType": "address",
          "name": "",
          "type": "address"
        }
      ],
      "stateMutability": "view",
      "type": "function"
    },
    {
      "stateMutability": "payable",
      "type": "receive"
    }
  ],
  "bytecode": "0x60806040523480156200001157600080fd5b5060405162002d2138038062002d218339810160408190526200003491620001e5565b60016000556040516301ffc9a760e01b81526380ac58cd60e01b6004820152829082906001600160a01b038316906301ffc9a79060240160206040518083038186803b1580156200008457600080fd5b505afa15801562000099573d6000803e3d6000fd5b505050506040513d601f19601f82011682018060405250810190620000bf91906200021c565b620001105760405162461bcd60e51b815260206004820152601d60248201527f446f65736e277420737570706f7274204e465420696e74657266616365000000604482015260640160405180910390fd5b60028054600380546001600160a01b039485166001600160a01b031990911617905561038460015560ff199290931661010002919091166001600160a81b03199092169190911760051790556200016e620001683390565b62000176565b505062000245565b600680546001600160a01b038381166001600160a01b0319831681179093556040519116919082907f8be0079c531659141344cd1fd0a4f28419497f9722a3daafe3b4186f6b6457e090600090a35050565b80516001600160a01b0381168114620001e057600080fd5b919050565b60008060408385031215620001f8578182fd5b6200020383620001c8565b91506200021360208401620001c8565b90509250929050565b6000602082840312156200022e578081fd5b815180151581146200023e578182fd5b9392505050565b612acc80620002556000396000f3fe6080604052600436106100d55760003560e01c806396b5a75511610079578063b7751c7111610056578063b7751c711461032f578063b9a2de3a14610342578063ec91f2a414610362578063f2fde38b1461037857005b806396b5a755146102c3578063973ddb4a146102e3578063b296024d1461030357005b8063715018a6116100b2578063715018a61461023d57806375e9249f146102525780637b6a8777146102805780638da5cb5b146102a557005b80634f0e0ef3146100de578063571a26a01461011b5780636f8a41e11461021d57005b366100dc57005b005b3480156100ea57600080fd5b506003546100fe906001600160a01b031681565b6040516001600160a01b0390911681526020015b60405180910390f35b34801561012757600080fd5b506101ac61013636600461279d565b6004602081905260009182526040909120805460018201546002830154600384015494840154600585015460068601546007870154600888015460099098015496986001600160a01b038088169960ff600160a01b9099048916999798929792851694610100900482169382169290821691168c565b604080519c8d526001600160a01b039b8c1660208e0152991515998c019990995260608b019790975260808a019590955260a089019390935260c088019190915260ff1660e08701528416610100860152831661012085015282166101408401521661016082015261018001610112565b34801561022957600080fd5b506100dc61023836600461287b565b610398565b34801561024957600080fd5b506100dc61052c565b34801561025e57600080fd5b5061027261026d3660046127cd565b610592565b604051908152602001610112565b34801561028c57600080fd5b506002546100fe9061010090046001600160a01b031681565b3480156102b157600080fd5b506006546001600160a01b03166100fe565b3480156102cf57600080fd5b506100dc6102de36600461279d565b610bba565b3480156102ef57600080fd5b506100dc6102fe36600461284c565b610d35565b34801561030f57600080fd5b5060025461031d9060ff1681565b60405160ff9091168152602001610112565b6100dc61033d36600461287b565b610e33565b34801561034e57600080fd5b506100dc61035d36600461279d565b61145e565b34801561036e57600080fd5b5061027260015481565b34801561038457600080fd5b506100dc610393366004612749565b6118fd565b816103a2816119c8565b6103c75760405162461bcd60e51b81526004016103be9061290f565b60405180910390fd5b6000838152600460205260409020600801546001600160a01b031633148061040d575060008381526004602052604090206006015461010090046001600160a01b031633145b6104685760405162461bcd60e51b815260206004820152602660248201527f4d7573742062652061756374696f6e2063757261746f72206f7220746f6b656e6044820152651037bbb732b960d11b60648201526084016103be565b60008381526004602081905260409091200154156104c85760405162461bcd60e51b815260206004820152601b60248201527f41756374696f6e2068617320616c72656164792073746172746564000000000060448201526064016103be565b600083815260046020908152604091829020600581018590556001810154905492518581526001600160a01b03909116929186917f01e6a465ec1edd582d333147c7b7edf5998164f2cf2269dcb9c93d46c67bd317910160405180910390a4505050565b6006546001600160a01b031633146105865760405162461bcd60e51b815260206004820181905260248201527f4f776e61626c653a2063616c6c6572206973206e6f7420746865206f776e657260448201526064016103be565b61059060006119ed565b565b6000600260005414156105b75760405162461bcd60e51b81526004016103be9061293e565b60026000556040516301ffc9a760e01b81526380ac58cd60e01b60048201526001600160a01b038816906301ffc9a79060240160206040518083038186803b15801561060257600080fd5b505afa158015610616573d6000803e3d6000fd5b505050506040513d601f19601f8201168201806040525081019061063a9190612781565b61069e5760405162461bcd60e51b815260206004820152602f60248201527f746f6b656e436f6e747261637420646f6573206e6f7420737570706f7274204560448201526e524337323120696e7465726661636560881b60648201526084016103be565b60648360ff16106107045760405162461bcd60e51b815260206004820152602a60248201527f63757261746f7246656550657263656e74616765206d757374206265206c6573604482015269073207468616e203130360b41b60648201526084016103be565b6040516331a9108f60e11b8152600481018990526000906001600160a01b03891690636352211e9060240160206040518083038186803b15801561074757600080fd5b505afa15801561075b573d6000803e3d6000fd5b505050506040513d601f19601f8201168201806040525081019061077f9190612765565b60405163020604bf60e21b8152600481018b90529091506001600160a01b0389169063081812fc9060240160206040518083038186803b1580156107c257600080fd5b505afa1580156107d6573d6000803e3d6000fd5b505050506040513d601f19601f820116820180604052508101906107fa9190612765565b6001600160a01b0316336001600160a01b031614806108215750336001600160a01b038216145b6108835760405162461bcd60e51b815260206004820152602d60248201527f43616c6c6572206d75737420626520617070726f766564206f72206f776e657260448201526c08199bdc881d1bdad95b881a59609a1b60648201526084016103be565b600061088e60055490565b90506040518061018001604052808b81526020018a6001600160a01b0316815260200160001515815260200160008152602001898152602001600081526020018881526020018660ff168152602001836001600160a01b0316815260200160006001600160a01b03168152602001876001600160a01b03168152602001856001600160a01b0316815250600460008381526020019081526020016000206000820151816000015560208201518160010160006101000a8154816001600160a01b0302191690836001600160a01b0316021790555060408201518160010160146101000a81548160ff021916908315150217905550606082015181600201556080820151816003015560a0820151816004015560c0820151816005015560e08201518160060160006101000a81548160ff021916908360ff1602179055506101008201518160060160016101000a8154816001600160a01b0302191690836001600160a01b031602179055506101208201518160070160006101000a8154816001600160a01b0302191690836001600160a01b031602179055506101408201518160080160006101000a8154816001600160a01b0302191690836001600160a01b031602179055506101608201518160090160006101000a8154816001600160a01b0302191690836001600160a01b03160217905550905050886001600160a01b03166323b872dd83308d6040518463ffffffff1660e01b8152600401610ab6939291906128b8565b600060405180830381600087803b158015610ad057600080fd5b505af1158015610ae4573d6000803e3d6000fd5b50505050610af6600580546001019055565b60408051898152602081018990526001600160a01b0384811682840152888116606083015260ff8816608083015286811660a08301529151918b16918c9184917f38c0b9047bd28fac9f420b967f6caf4a6260ba09d18940a9a502578a480c09009181900360c00190a46000818152600460205260409020600801546001600160a01b03161580610b985750816001600160a01b0316866001600160a01b0316145b15610ba857610ba8816001611a3f565b60016000559998505050505050505050565b60026000541415610bdd5760405162461bcd60e51b81526004016103be9061293e565b600260005580610bec816119c8565b610c085760405162461bcd60e51b81526004016103be9061290f565b60008281526004602052604090206006015461010090046001600160a01b0316331480610c4e57506000828152600460205260409020600801546001600160a01b031633145b610cb35760405162461bcd60e51b815260206004820152603060248201527f43616e206f6e6c792062652063616c6c65642062792061756374696f6e20637260448201526f32b0ba37b91037b91031bab930ba37b960811b60648201526084016103be565b6000828152600460208190526040909120015415610d235760405162461bcd60e51b815260206004820152602760248201527f43616e27742063616e63656c20616e2061756374696f6e206f6e63652069742760448201526639903132b3bab760c91b60648201526084016103be565b610d2c82611ac0565b50506001600055565b81610d3f816119c8565b610d5b5760405162461bcd60e51b81526004016103be9061290f565b6000838152600460205260409020600801546001600160a01b03163314610dc45760405162461bcd60e51b815260206004820152601760248201527f4d7573742062652061756374696f6e2063757261746f7200000000000000000060448201526064016103be565b6000838152600460208190526040909120015415610e245760405162461bcd60e51b815260206004820152601b60248201527f41756374696f6e2068617320616c72656164792073746172746564000000000060448201526064016103be565b610e2e8383611a3f565b505050565b81610e3d816119c8565b610e595760405162461bcd60e51b81526004016103be9061290f565b60026000541415610e7c5760405162461bcd60e51b81526004016103be9061293e565b6002600090815583815260046020526040902060078101546001909101546001600160a01b0390911690600160a01b900460ff16610f085760405162461bcd60e51b815260206004820152602360248201527f41756374696f6e206d75737420626520617070726f76656420627920637572616044820152623a37b960e91b60648201526084016103be565b600084815260046020819052604090912001541580610f47575060008481526004602081905260409091206003810154910154610f4491611c1c565b42105b610f855760405162461bcd60e51b815260206004820152600f60248201526e105d58dd1a5bdb88195e1c1a5c9959608a1b60448201526064016103be565b600084815260046020526040902060050154831015610fe65760405162461bcd60e51b815260206004820152601f60248201527f4d7573742073656e64206174206c65617374207265736572766550726963650060448201526064016103be565b600280546000868152600460205260409020909101546110329161101a91606491611014919060ff16611c2f565b90611c3b565b60008681526004602052604090206002015490611c1c565b8310156110a9576040805162461bcd60e51b81526020600482015260248101919091527f4d7573742073656e64206d6f7265207468616e206c617374206269642062792060448201527f6d696e426964496e6372656d656e7450657263656e7461676520616d6f756e7460648201526084016103be565b6002546000858152600460205260409020600101546001600160a01b0390811661010090920416141561123d57600260019054906101000a90046001600160a01b03166001600160a01b031663a1794bcd6040518163ffffffff1660e01b8152600401602060405180830381600087803b15801561112657600080fd5b505af115801561113a573d6000803e3d6000fd5b505050506040513d601f19601f8201168201806040525081019061115e9190612765565b6000858152600460208190526040918290205491516302e8fe1360e01b815290810191909152602481018590526001600160a01b0391909116906302e8fe139060440160206040518083038186803b1580156111b957600080fd5b505afa1580156111cd573d6000803e3d6000fd5b505050506040513d601f19601f820116820180604052508101906111f19190612781565b61123d5760405162461bcd60e51b815260206004820152601f60248201527f42696420696e76616c696420666f722073686172652073706c697474696e670060448201526064016103be565b6000848152600460208190526040909120015461126e576000848152600460208190526040909120429101556112aa565b6001600160a01b038116156112aa57600084815260046020526040902060028101546009909101546112aa9183916001600160a01b0316611c47565b6000848152600460205260409020600901546112d09084906001600160a01b0316611d57565b60008481526004602081905260408220600281018690556007810180546001600160a01b031916331790556001546003820154919092015461131d91429161131791611c1c565b90611fc7565b101561137c57600085815260046020819052604090912060038101549101546113649061135d906113549042906113179086611c1c565b60015490611fc7565b8290611c1c565b60008781526004602052604090206003015550600190505b6000858152600460209081526040918290206001810154905483513381529283018890526001600160a01b03868116159484019490945284151560608401529216919087907fda6b779568630ce5e5658b317174df474d5b335541ed9471bd8424a017f3be6d9060800160405180910390a48015611452576000858152600460209081526040918290206001810154815460039092015493519384526001600160a01b031692909188917f55cf2b31608fbe49fa31cd0285b6b6cce46f56d26c8c59980a2af5a0ffbdd5db910160405180910390a45b50506001600055505050565b80611468816119c8565b6114845760405162461bcd60e51b81526004016103be9061290f565b600260005414156114a75760405162461bcd60e51b81526004016103be9061293e565b6002600090815582815260046020819052604090912001546115025760405162461bcd60e51b815260206004820152601460248201527320bab1ba34b7b7103430b9b713ba103132b3bab760611b60448201526064016103be565b6000828152600460208190526040909120600381015491015461152491611c1c565b4210156115735760405162461bcd60e51b815260206004820152601860248201527f41756374696f6e206861736e277420636f6d706c65746564000000000000000060448201526064016103be565b6000828152600460205260408120600901546001600160a01b0316156115b3576000838152600460205260409020600901546001600160a01b03166115c0565b6003546001600160a01b03165b6000848152600460205260408120600280820154905460019092015493945091926001600160a01b039081166101009092041614156116665760008061160587611fd3565b9350915082905060018215151461165f5760008781526004602052604090206007810154600282015460099092015461164c926001600160a01b0392831692909116611c47565b61165587611ac0565b5050505050610d2c565b5050611726565b6000858152600460208190526040918290206001810154600782015491549351632142170760e11b81526001600160a01b03918216946342842e0e946116b09430941692016128b8565b600060405180830381600087803b1580156116ca57600080fd5b505af19250505080156116db575060015b61172657600085815260046020526040902060078101546002820154600990920154611715926001600160a01b0392831692909116611c47565b61171e85611ac0565b505050610d2c565b6000858152600460205260409020600801546001600160a01b0316156117ad5760008581526004602052604090206006015461176d9060649061101490849060ff16611c2f565b91506117798183611fc7565b600086815260046020526040902060088101546009909101549192506117ad916001600160a01b0391821691859116611c47565b600085815260046020526040902060068101546009909101546117e3916001600160a01b03610100909104811691849116611c47565b600085815260046020908152604091829020600181015481546006830154600884015460079094015486516001600160a01b03610100909304831681529482169585019590955293841683860152606083018690526080830187905287841660a084015293519216929188917f4f35fb3ea0081b3ccbe8df613cab0f9e1694d50a025e0aa09b88a86a3d07c2de919081900360c00190a45050506000918252506004602081905260408220828155600180820180546001600160a81b03199081169091556002830185905560038301859055928201849055600582018490556006820180549093169092556007810180546001600160a01b0319908116909155600882018054821690556009909101805490911690559055565b6006546001600160a01b031633146119575760405162461bcd60e51b815260206004820181905260248201527f4f776e61626c653a2063616c6c6572206973206e6f7420746865206f776e657260448201526064016103be565b6001600160a01b0381166119bc5760405162461bcd60e51b815260206004820152602660248201527f4f776e61626c653a206e6577206f776e657220697320746865207a65726f206160448201526564647265737360d01b60648201526084016103be565b6119c5816119ed565b50565b60009081526004602052604090206006015461010090046001600160a01b0316151590565b600680546001600160a01b038381166001600160a01b0319831681179093556040519116919082907f8be0079c531659141344cd1fd0a4f28419497f9722a3daafe3b4186f6b6457e090600090a35050565b60008281526004602052604090819020600181018054841515600160a01b0260ff60a01b1982168117909255915492516001600160a01b039182169190921617919084907fec35d321ab4972475f131e184c0c0fe52c5a58a29d74f7db2969af2f6dd93a1f90611ab490861515815260200190565b60405180910390a45050565b6000818152600460208190526040918290206006810154600182015491549351632142170760e11b81526101009091046001600160a01b03908116949216926342842e0e92611b14923092879291016128b8565b600060405180830381600087803b158015611b2e57600080fd5b505af1158015611b42573d6000803e3d6000fd5b5050506000838152600460209081526040918290206001810154905492516001600160a01b038681168252909116935085917f6091afcbe8514686c43b167ca4f1b03e24446d29d8490d496e438f8a2c763439910160405180910390a450600090815260046020819052604082208281556001810180546001600160a81b03199081169091556002820184905560038201849055918101839055600581019290925560068201805490911690556007810180546001600160a01b031990811690915560088201805482169055600990910180549091169055565b6000611c2882846129c3565b9392505050565b6000611c2882846129fb565b6000611c2882846129db565b6001600160a01b038116611d4357600354604051632e1a7d4d60e01b8152600481018490526001600160a01b0390911690632e1a7d4d90602401600060405180830381600087803b158015611c9b57600080fd5b505af1158015611caf573d6000803e3d6000fd5b50505050611cbd83836123fe565b610e2e57600360009054906101000a90046001600160a01b03166001600160a01b031663d0e30db0836040518263ffffffff1660e01b81526004016000604051808303818588803b158015611d1157600080fd5b505af1158015611d25573d6000803e3d6000fd5b5050600354610e2e93506001600160a01b0316915085905084612475565b610e2e6001600160a01b0382168484612475565b6001600160a01b038116611e3c57813414611dcf5760405162461bcd60e51b815260206004820152603260248201527f53656e74204554482056616c756520646f6573206e6f74206d617463682073706044820152711958da599a595908189a5908185b5bdd5b9d60721b60648201526084016103be565b600360009054906101000a90046001600160a01b03166001600160a01b031663d0e30db0836040518263ffffffff1660e01b81526004016000604051808303818588803b158015611e1f57600080fd5b505af1158015611e33573d6000803e3d6000fd5b50505050505050565b6040516370a0823160e01b815230600482015281906000906001600160a01b038316906370a082319060240160206040518083038186803b158015611e8057600080fd5b505afa158015611e94573d6000803e3d6000fd5b505050506040513d601f19601f82011682018060405250810190611eb891906127b5565b9050611ecf6001600160a01b0383163330876124d8565b6040516370a0823160e01b81523060048201526000906001600160a01b038416906370a082319060240160206040518083038186803b158015611f1157600080fd5b505afa158015611f25573d6000803e3d6000fd5b505050506040513d601f19601f82011682018060405250810190611f4991906127b5565b905080611f568387611c1c565b14611fc05760405162461bcd60e51b815260206004820152603460248201527f546f6b656e207472616e736665722063616c6c20646964206e6f74207472616e6044820152731cd9995c88195e1c1958dd195908185b5bdd5b9d60621b60648201526084016103be565b5050505050565b6000611c288284612a1a565b600081815260046020526040812060090154819081906001600160a01b031615612017576000848152600460205260409020600901546001600160a01b0316612024565b6003546001600160a01b03165b6040805160a08101825260008781526004602081815284832060028082015486526001600160a01b0380891684880181905230888a01528d8752858552600790930154811660608801528751808501895286815260808801529054875163a1794bcd60e01b815297519899509597919663095ea7b39661010090049091169463a1794bcd948281019493928390030190829087803b1580156120c557600080fd5b505af11580156120d9573d6000803e3d6000fd5b505050506040513d601f19601f820116820180604052508101906120fd9190612765565b835160405160e084901b6001600160e01b03191681526001600160a01b0390921660048301526024820152604401602060405180830381600087803b15801561214557600080fd5b505af1158015612159573d6000803e3d6000fd5b505050506040513d601f19601f8201168201806040525081019061217d9190612781565b50600254600086815260046020819052604091829020549151632dfb121160e11b81526101009093046001600160a01b031692635bf62422926121c4929091869101612975565b600060405180830381600087803b1580156121de57600080fd5b505af11580156121f2573d6000803e3d6000fd5b50506040516370a0823160e01b8152306004820152600092506001600160a01b03851691506370a082319060240160206040518083038186803b15801561223857600080fd5b505afa15801561224c573d6000803e3d6000fd5b505050506040513d601f19601f8201168201806040525081019061227091906127b5565b60025460008881526004602081905260409182902054915163ba33939960e01b81529394506101009092046001600160a01b03169263ba339399926122b89291879101612975565b600060405180830381600087803b1580156122d257600080fd5b505af19250505080156122e3575060015b6123695760025460008781526004602081905260409182902054915163b320f45960e01b8152908101919091526101009091046001600160a01b03169063b320f45990602401600060405180830381600087803b15801561234357600080fd5b505af1158015612357573d6000803e3d6000fd5b506000998a9950975050505050505050565b6040516370a0823160e01b81523060048201526000906001600160a01b038516906370a082319060240160206040518083038186803b1580156123ab57600080fd5b505afa1580156123bf573d6000803e3d6000fd5b505050506040513d601f19601f820116820180604052508101906123e391906127b5565b905060016123f18284611fc7565b9550955050505050915091565b60408051600080825260208201928390529182916001600160a01b0386169185916124289161289c565b60006040518083038185875af1925050503d8060008114612465576040519150601f19603f3d011682016040523d82523d6000602084013e61246a565b606091505b509095945050505050565b6040516001600160a01b038316602482015260448101829052610e2e90849063a9059cbb60e01b906064015b60408051601f198184030181529190526020810180516001600160e01b03166001600160e01b0319909316929092179091526124ff565b6124f9846323b872dd60e01b8585856040516024016124a1939291906128b8565b50505050565b6000612554826040518060400160405280602081526020017f5361666545524332303a206c6f772d6c6576656c2063616c6c206661696c6564815250856001600160a01b03166125d19092919063ffffffff16565b805190915015610e2e57808060200190518101906125729190612781565b610e2e5760405162461bcd60e51b815260206004820152602a60248201527f5361666545524332303a204552433230206f7065726174696f6e20646964206e6044820152691bdd081cdd58d8d9595960b21b60648201526084016103be565b60606125e084846000856125e8565b949350505050565b6060824710156126495760405162461bcd60e51b815260206004820152602660248201527f416464726573733a20696e73756666696369656e742062616c616e636520666f6044820152651c8818d85b1b60d21b60648201526084016103be565b843b6126975760405162461bcd60e51b815260206004820152601d60248201527f416464726573733a2063616c6c20746f206e6f6e2d636f6e747261637400000060448201526064016103be565b600080866001600160a01b031685876040516126b3919061289c565b60006040518083038185875af1925050503d80600081146126f0576040519150601f19603f3d011682016040523d82523d6000602084013e6126f5565b606091505b5091509150612705828286612710565b979650505050505050565b6060831561271f575081611c28565b82511561272f5782518084602001fd5b8160405162461bcd60e51b81526004016103be91906128dc565b60006020828403121561275a578081fd5b8135611c2881612a73565b600060208284031215612776578081fd5b8151611c2881612a73565b600060208284031215612792578081fd5b8151611c2881612a88565b6000602082840312156127ae578081fd5b5035919050565b6000602082840312156127c6578081fd5b5051919050565b600080600080600080600060e0888a0312156127e7578283fd5b8735965060208801356127f981612a73565b95506040880135945060608801359350608088013561281781612a73565b925060a088013560ff8116811461282c578283fd5b915060c088013561283c81612a73565b8091505092959891949750929550565b6000806040838503121561285e578182fd5b82359150602083013561287081612a88565b809150509250929050565b6000806040838503121561288d578182fd5b50508035926020909101359150565b600082516128ae818460208701612a31565b9190910192915050565b6001600160a01b039384168152919092166020820152604081019190915260600190565b60208152600082518060208401526128fb816040850160208701612a31565b601f01601f19169190910160400192915050565b602080825260159082015274105d58dd1a5bdb88191bd95cdb89dd08195e1a5cdd605a1b604082015260600190565b6020808252601f908201527f5265656e7472616e637947756172643a207265656e7472616e742063616c6c00604082015260600190565b91825280516020808401919091528101516001600160a01b0390811660408085019190915282015181166060808501919091528201511660808084019190915201515160a082015260c00190565b600082198211156129d6576129d6612a5d565b500190565b6000826129f657634e487b7160e01b81526012600452602481fd5b500490565b6000816000190483118215151615612a1557612a15612a5d565b500290565b600082821015612a2c57612a2c612a5d565b500390565b60005b83811015612a4c578181015183820152602001612a34565b838111156124f95750506000910152565b634e487b7160e01b600052601160045260246000fd5b6001600160a01b03811681146119c557600080fd5b80151581146119c557600080fdfea26469706673582212207b2932064f507a592efa1b4a14ad594cab7706c2c6a1d4e8ec3488ee7c1fc4f364736f6c63430008040033",
  "linkReferences": {},
  "deployedLinkReferences": {}
}