{
  "address": "0x965694986244c34E875dF81e53aAC822AfF629dD",
  "abi": [
    {
      "inputs": [
        {
          "internalType": "address",
          "name": "_daoAddress",
          "type": "address"
        },
        {
          "internalType": "uint256",
          "name": "_daoShare",
          "type": "uint256"
        }
      ],
      "stateMutability": "nonpayable",
      "type": "constructor"
    },
    {
      "anonymous": false,
      "inputs": [
        {
          "indexed": false,
          "internalType": "uint256",
          "name": "chainID",
          "type": "uint256"
        },
        {
          "indexed": false,
          "internalType": "address",
          "name": "tokenAddress",
          "type": "address"
        }
      ],
      "name": "AddToken",
      "type": "event"
    },
    {
      "anonymous": false,
      "inputs": [
        {
          "indexed": false,
          "internalType": "uint256",
          "name": "chainID",
          "type": "uint256"
        },
        {
          "indexed": false,
          "internalType": "address",
          "name": "tokenAddress",
          "type": "address"
        },
        {
          "indexed": false,
          "internalType": "address",
          "name": "from",
          "type": "address"
        },
        {
          "indexed": false,
          "internalType": "uint256",
          "name": "amount",
          "type": "uint256"
        }
      ],
      "name": "Burn",
      "type": "event"
    },
    {
      "anonymous": false,
      "inputs": [
        {
          "indexed": false,
          "internalType": "uint256",
          "name": "chainID",
          "type": "uint256"
        },
        {
          "indexed": false,
          "internalType": "address",
          "name": "tokenAddress",
          "type": "address"
        },
        {
          "indexed": false,
          "internalType": "address",
          "name": "to",
          "type": "address"
        },
        {
          "indexed": false,
          "internalType": "uint256",
          "name": "amount",
          "type": "uint256"
        }
      ],
      "name": "Mint",
      "type": "event"
    },
    {
      "anonymous": false,
      "inputs": [
        {
          "indexed": true,
          "internalType": "address",
          "name": "previousOwner",
          "type": "address"
        },
        {
          "indexed": true,
          "internalType": "address",
          "name": "newOwner",
          "type": "address"
        }
      ],
      "name": "OwnershipTransferred",
      "type": "event"
    },
    {
      "anonymous": false,
      "inputs": [
        {
          "indexed": false,
          "internalType": "uint256",
          "name": "chainID",
          "type": "uint256"
        },
        {
          "indexed": false,
          "internalType": "address",
          "name": "tokenAddress",
          "type": "address"
        }
      ],
      "name": "RemoveToken",
      "type": "event"
    },
    {
      "anonymous": false,
      "inputs": [
        {
          "indexed": false,
          "internalType": "uint256",
          "name": "tokenA",
          "type": "uint256"
        },
        {
          "indexed": false,
          "internalType": "uint256",
          "name": "tokenB",
          "type": "uint256"
        },
        {
          "indexed": false,
          "internalType": "uint256",
          "name": "txID",
          "type": "uint256"
        },
        {
          "indexed": false,
          "internalType": "address",
          "name": "sender",
          "type": "address"
        },
        {
          "indexed": false,
          "internalType": "address",
          "name": "recipient",
          "type": "address"
        },
        {
          "indexed": false,
          "internalType": "uint256",
          "name": "amount",
          "type": "uint256"
        }
      ],
      "name": "Swap",
      "type": "event"
    },
    {
      "inputs": [],
      "name": "daoAddress",
      "outputs": [
        {
          "internalType": "address",
          "name": "",
          "type": "address"
        }
      ],
      "stateMutability": "view",
      "type": "function"
    },
    {
      "inputs": [],
      "name": "daoShare",
      "outputs": [
        {
          "internalType": "uint256",
          "name": "",
          "type": "uint256"
        }
      ],
      "stateMutability": "view",
      "type": "function"
    },
    {
      "inputs": [
        {
          "components": [
            {
              "internalType": "enum Bridge.Type",
              "name": "kind",
              "type": "uint8"
            },
            {
              "internalType": "uint256",
              "name": "id",
              "type": "uint256"
            },
            {
              "internalType": "uint256",
              "name": "chainID",
              "type": "uint256"
            },
            {
              "internalType": "address",
              "name": "tokenAddress",
              "type": "address"
            },
            {
              "internalType": "bool",
              "name": "enabled",
              "type": "bool"
            }
          ],
          "internalType": "struct Bridge.Token",
          "name": "token",
          "type": "tuple"
        },
        {
          "internalType": "address",
          "name": "owner",
          "type": "address"
        },
        {
          "internalType": "uint256",
          "name": "amount",
          "type": "uint256"
        }
      ],
      "name": "mint",
      "outputs": [],
      "stateMutability": "nonpayable",
      "type": "function"
    },
    {
      "inputs": [],
      "name": "owner",
      "outputs": [
        {
          "internalType": "address",
          "name": "",
          "type": "address"
        }
      ],
      "stateMutability": "view",
      "type": "function"
    },
    {
      "inputs": [],
      "name": "renounceOwnership",
      "outputs": [],
      "stateMutability": "nonpayable",
      "type": "function"
    },
    {
      "inputs": [
        {
          "components": [
            {
              "internalType": "enum Bridge.Type",
              "name": "kind",
              "type": "uint8"
            },
            {
              "internalType": "uint256",
              "name": "id",
              "type": "uint256"
            },
            {
              "internalType": "uint256",
              "name": "chainID",
              "type": "uint256"
            },
            {
              "internalType": "address",
              "name": "tokenAddress",
              "type": "address"
            },
            {
              "internalType": "bool",
              "name": "enabled",
              "type": "bool"
            }
          ],
          "internalType": "struct Bridge.Token",
          "name": "token",
          "type": "tuple"
        }
      ],
      "name": "setToken",
      "outputs": [],
      "stateMutability": "nonpayable",
      "type": "function"
    },
    {
      "inputs": [
        {
          "components": [
            {
              "internalType": "enum Bridge.Type",
              "name": "kind",
              "type": "uint8"
            },
            {
              "internalType": "uint256",
              "name": "id",
              "type": "uint256"
            },
            {
              "internalType": "uint256",
              "name": "chainID",
              "type": "uint256"
            },
            {
              "internalType": "address",
              "name": "tokenAddress",
              "type": "address"
            },
            {
              "internalType": "bool",
              "name": "enabled",
              "type": "bool"
            }
          ],
          "internalType": "struct Bridge.Token",
          "name": "tokenA",
          "type": "tuple"
        },
        {
          "components": [
            {
              "internalType": "enum Bridge.Type",
              "name": "kind",
              "type": "uint8"
            },
            {
              "internalType": "uint256",
              "name": "id",
              "type": "uint256"
            },
            {
              "internalType": "uint256",
              "name": "chainID",
              "type": "uint256"
            },
            {
              "internalType": "address",
              "name": "tokenAddress",
              "type": "address"
            },
            {
              "internalType": "bool",
              "name": "enabled",
              "type": "bool"
            }
          ],
          "internalType": "struct Bridge.Token",
          "name": "tokenB",
          "type": "tuple"
        },
        {
          "internalType": "address",
          "name": "recipient",
          "type": "address"
        },
        {
          "internalType": "uint256",
          "name": "amount",
          "type": "uint256"
        },
        {
          "internalType": "uint256",
          "name": "nonce",
          "type": "uint256"
        }
      ],
      "name": "swap",
      "outputs": [],
      "stateMutability": "nonpayable",
      "type": "function"
    },
    {
      "inputs": [
        {
          "internalType": "uint256",
          "name": "",
          "type": "uint256"
        }
      ],
      "name": "tokens",
      "outputs": [
        {
          "internalType": "enum Bridge.Type",
          "name": "kind",
          "type": "uint8"
        },
        {
          "internalType": "uint256",
          "name": "id",
          "type": "uint256"
        },
        {
          "internalType": "uint256",
          "name": "chainID",
          "type": "uint256"
        },
        {
          "internalType": "address",
          "name": "tokenAddress",
          "type": "address"
        },
        {
          "internalType": "bool",
          "name": "enabled",
          "type": "bool"
        }
      ],
      "stateMutability": "view",
      "type": "function"
    },
    {
      "inputs": [
        {
          "internalType": "uint256",
          "name": "",
          "type": "uint256"
        }
      ],
      "name": "transactions",
      "outputs": [
        {
          "internalType": "uint256",
          "name": "id",
          "type": "uint256"
        },
        {
          "components": [
            {
              "internalType": "enum Bridge.Type",
              "name": "kind",
              "type": "uint8"
            },
            {
              "internalType": "uint256",
              "name": "id",
              "type": "uint256"
            },
            {
              "internalType": "uint256",
              "name": "chainID",
              "type": "uint256"
            },
            {
              "internalType": "address",
              "name": "tokenAddress",
              "type": "address"
            },
            {
              "internalType": "bool",
              "name": "enabled",
              "type": "bool"
            }
          ],
          "internalType": "struct Bridge.Token",
          "name": "tokenA",
          "type": "tuple"
        },
        {
          "components": [
            {
              "internalType": "enum Bridge.Type",
              "name": "kind",
              "type": "uint8"
            },
            {
              "internalType": "uint256",
              "name": "id",
              "type": "uint256"
            },
            {
              "internalType": "uint256",
              "name": "chainID",
              "type": "uint256"
            },
            {
              "internalType": "address",
              "name": "tokenAddress",
              "type": "address"
            },
            {
              "internalType": "bool",
              "name": "enabled",
              "type": "bool"
            }
          ],
          "internalType": "struct Bridge.Token",
          "name": "tokenB",
          "type": "tuple"
        },
        {
          "internalType": "address",
          "name": "sender",
          "type": "address"
        },
        {
          "internalType": "address",
          "name": "recipient",
          "type": "address"
        },
        {
          "internalType": "uint256",
          "name": "amount",
          "type": "uint256"
        },
        {
          "internalType": "uint256",
          "name": "nonce",
          "type": "uint256"
        }
      ],
      "stateMutability": "view",
      "type": "function"
    },
    {
      "inputs": [
        {
          "internalType": "address",
          "name": "newOwner",
          "type": "address"
        }
      ],
      "name": "transferOwnership",
      "outputs": [],
      "stateMutability": "nonpayable",
      "type": "function"
    }
  ],
  "transactionHash": "0xc8868045110bea54eb850ec0d2e0a6435f8d5e418ac74357f154780aff9ba4b1",
  "args": [
    "0x70D897F286F776fE3938C2891e24035Bc745b394",
    25
  ],
  "solcInputHash": "b067dc167cae83498451888580c3eeca",
  "bytecode": "0x608060405234801561001057600080fd5b506040516117e23803806117e283398101604081905261002f916100b1565b61003833610061565b600380546001600160a01b0319166001600160a01b0393909316929092179091556004556100e9565b600080546001600160a01b038381166001600160a01b0319831681178455604051919092169283917f8be0079c531659141344cd1fd0a4f28419497f9722a3daafe3b4186f6b6457e09190a35050565b600080604083850312156100c3578182fd5b82516001600160a01b03811681146100d9578283fd5b6020939093015192949293505050565b6116ea806100f86000396000f3fe608060405234801561001057600080fd5b506004361061008e5760003560e01c806309568551146100935780632131c68c146100a85780634f64b2be146100d8578063715018a61461013857806388d19f1b146101405780638da5cb5b146101575780639ace38c21461015f578063ac18188b14610185578063acbb09b514610198578063f2fde38b146101ab575b600080fd5b6100a66100a1366004611327565b6101be565b005b6003546100bb906001600160a01b031681565b6040516001600160a01b0390911681526020015b60405180910390f35b6101276100e63660046113bd565b6001602081905260009182526040909120805491810154600282015460039092015460ff938416939192916001600160a01b03821691600160a01b90041685565b6040516100cf95949392919061149a565b6100a66103d5565b61014960045481565b6040519081526020016100cf565b6100bb610410565b61017261016d3660046113bd565b61041f565b6040516100cf97969594939291906115f1565b6100a661019336600461130c565b610587565b6100a66101a6366004611363565b610872565b6100a66101b93660046112f2565b610d66565b336101c7610410565b6001600160a01b0316146101f65760405162461bcd60e51b81526004016101ed90611580565b60405180910390fd5b6001600160a01b03821661020957600080fd5b6000811161021657600080fd5b6102238360400151610e03565b6102645760405162461bcd60e51b81526020600482015260126024820152712a37b5b2b7103737ba1037b71031b430b4b760711b60448201526064016101ed565b60008351600181111561028757634e487b7160e01b600052602160045260246000fd5b141561038b5760006102b0826102aa612710600454610e5f90919063ffffffff16565b90610e72565b60608501519091506001600160a01b0316638c2a993e846102d18585610e7e565b6040518363ffffffff1660e01b81526004016102ee929190611481565b600060405180830381600087803b15801561030857600080fd5b505af115801561031c573d6000803e3d6000fd5b50505060608501516003546040516346154c9f60e11b81526001600160a01b039283169350638c2a993e926103579216908590600401611481565b600060405180830381600087803b15801561037157600080fd5b505af1158015610385573d6000803e3d6000fd5b50505050505b7fb66f36adcd2842ffc78e065c5c17da32d054e8707147ce7fcc96a04e4c34f0238360400151846060015184846040516103c894939291906115cc565b60405180910390a1505050565b336103de610410565b6001600160a01b0316146104045760405162461bcd60e51b81526004016101ed90611580565b61040e6000610e8a565b565b6000546001600160a01b031690565b600260205260009081526040908190208054825160a08101909352600180830180549294929091839160ff169081111561046957634e487b7160e01b600052602160045260246000fd5b600181111561048857634e487b7160e01b600052602160045260246000fd5b8152600182810154602083015260028301546040808401919091526003909301546001600160a01b038116606084015260ff600160a01b90910481161515608090930192909252825160a081019093526005850180549495949092849291169081111561050557634e487b7160e01b600052602160045260246000fd5b600181111561052457634e487b7160e01b600052602160045260246000fd5b815260018201546020820152600282015460408201526003909101546001600160a01b038082166060840152600160a01b90910460ff1615156080909201919091526009830154600a840154600b850154600c9095015493949183169392169187565b33610590610410565b6001600160a01b0316146105b65760405162461bcd60e51b81526004016101ed90611580565b6105e96040518060400160405280600881526020016739b2ba2a37b5b2b760c11b81525082604001518360600151610eda565b60608101516001600160a01b03166106435760405162461bcd60e51b815260206004820152601e60248201527f546f6b656e2061646472657373206d757374206e6f74206265207a65726f000060448201526064016101ed565b60408101516106905760405162461bcd60e51b8152602060048201526019602482015278436861696e204944206d757374206e6f74206265207a65726f60381b60448201526064016101ed565b61069981610f26565b602080830182905260009182526001908190526040909120825181548493839160ff19169083818111156106dd57634e487b7160e01b600052602160045260246000fd5b0217905550602082810151600183015560408084015160028401556060840151600390930180546080909501511515600160a01b026001600160a81b03199095166001600160a01b0390941693909317939093179091558151808301909252600a82526929b0bb32903a37b5b2b760b11b9082015261075b90610f77565b61078f6040518060400160405280601381526020017221b432b1b59032b730b13632b2102a37b5b2b760691b815250610f77565b61079881610fba565b1561080a576107c66040518060400160405280600881526020016720b2322a37b5b2b760c11b815250610f77565b7f374195d639167721eee596157426d922ffedad376d1ec774751088e8de1dcd0d816040015182606001516040516107ff9291906115b5565b60405180910390a150565b6108366040518060400160405280600b81526020016a2932b6b7bb32aa37b5b2b760a91b815250610f77565b7fcadf6fd3968e653eef0f298763a80925d054059a599c46fadf9d319d9653bd86816040015182606001516040516107ff9291906115b5565b50565b61087f8560400151610e03565b8061089257506108928460400151610e03565b6108cc5760405162461bcd60e51b815260206004820152600b60248201526a2bb937b7339031b430b4b760a91b60448201526064016101ed565b6108f4604051806040016040528060048152602001630737761760e41b815250338584610fed565b6108fd85610fba565b6109475760405162461bcd60e51b815260206004820152601b60248201527a14ddd85c08199c9bdb481d1bdad95b881b9bdd08195b98589b1959602a1b60448201526064016101ed565b61095084610fba565b6109985760405162461bcd60e51b815260206004820152601960248201527814ddd85c081d1bc81d1bdad95b881b9bdd08195b98589b1959603a1b60448201526064016101ed565b600082116109e85760405162461bcd60e51b815260206004820181905260248201527f416d6f756e74206d7573742062652067726561746572207468616e207a65726f60448201526064016101ed565b6001600160a01b038316610a4a5760405162461bcd60e51b8152602060048201526024808201527f526563697069656e742073686f756c64206e6f74206265207a65726f206164646044820152637265737360e01b60648201526084016101ed565b6040805160e08101825260008152602081018790529081018590523360608201526001600160a01b038416608082015260a0810183905260c08101829052610a918161103c565b8082526000908152600260205260409020600c0154821415610aea5760405162461bcd60e51b8152602060048201526012602482015271139bdb98d948185b1c9958591e481d5cd95960721b60448201526064016101ed565b805160009081526002602090815260409091208251815590820151805160018084018054869594939192839160ff1916908381811115610b3a57634e487b7160e01b600052602160045260246000fd5b0217905550602082015160018083019190915560408084015160028401556060840151600390930180546080909501511515600160a01b026001600160a81b03199095166001600160a01b03909416939093179390931790915590830151805160058401805492939092839160ff19909116908381811115610bcc57634e487b7160e01b600052602160045260246000fd5b02179055506020820151600182015560408201516002820155606080830151600390920180546080948501511515600160a01b026001600160a81b03199091166001600160a01b03948516171790558401516009840180549183166001600160a01b031992831617905591840151600a8401805491909216921691909117905560a0820151600b82015560c090910151600c909101557f150d50a7997d1961bb2764beb7de1b31d73eaac5d6633546cf3ecf3c0704ab10610c8c87610f26565b610c9587610f26565b8351604080519384526020840192909252908201523360608201526001600160a01b038616608082015260a0810185905260c00160405180910390a1610cde8660400151610e03565b15610d1a57610d0a60405180604001604052806004815260200163313ab93760e11b81525033856110a3565b610d158633856110ea565b610d5e565b610d278560400151610e03565b15610d5e57610d53604051806040016040528060048152602001631b5a5b9d60e21b81525033856110a3565b610d5e8533856101be565b505050505050565b33610d6f610410565b6001600160a01b031614610d955760405162461bcd60e51b81526004016101ed90611580565b6001600160a01b038116610dfa5760405162461bcd60e51b815260206004820152602660248201527f4f776e61626c653a206e6577206f776e657220697320746865207a65726f206160448201526564647265737360d01b60648201526084016101ed565b61086f81610e8a565b600081604051602001610e1891815260200190565b6040516020818303038152906040528051906020012046604051602001610e4191815260200190565b60405160208183030381529060405280519060200120149050919050565b6000610e6b8284611648565b9392505050565b6000610e6b8284611668565b6000610e6b8284611687565b600080546001600160a01b038381166001600160a01b0319831681178455604051919092169283917f8be0079c531659141344cd1fd0a4f28419497f9722a3daafe3b4186f6b6457e09190a35050565b610f21838383604051602401610ef29392919061154d565b60408051601f198184030181529190526020810180516001600160e01b031663e3849f7960e01b17905261120f565b505050565b600081604001518260600151604051602001610f5992919091825260601b6001600160601b031916602082015260340190565b60408051601f19818403018152919052805160209091012092915050565b61086f81604051602401610f8b91906114d6565b60408051601f198184030181529190526020810180516001600160e01b031663104c13eb60e21b17905261120f565b600060016000610fc984610f26565b8152602081019190915260400160002060030154600160a01b900460ff1692915050565b6110368484848460405160240161100794939291906114e9565b60408051601f198184030181529190526020810180516001600160e01b0316636eb7943d60e01b17905261120f565b50505050565b602081810151810151604080840151830151606080860151608087015160a088015160c0890151865198890197909752948701939093526001600160601b031990821b81168683015291901b166074840152608883015260a882015260009060c801610f59565b610f218383836040516024016110bb9392919061151f565b60408051601f198184030181529190526020810180516001600160e01b03166307c8121760e01b17905261120f565b61111660405180604001604052806004815260200163313ab93760e11b81525084606001518484610fed565b60008351600181111561113957634e487b7160e01b600052602160045260246000fd5b14156111a85782606001516001600160a01b03166374f4f54783836040518363ffffffff1660e01b8152600401611171929190611481565b600060405180830381600087803b15801561118b57600080fd5b505af115801561119f573d6000803e3d6000fd5b505050506111ce565b6001835160018111156111cb57634e487b7160e01b600052602160045260246000fd5b50505b7fde7a984b98c6d8af03bf51aeb308b3046cfc15f57adb776b4c454c179d1eaeb8836040015184606001518486602001516040516103c894939291906115cc565b80516a636f6e736f6c652e6c6f67602083016000808483855afa5050505050565b80356001600160a01b038116811461124757600080fd5b919050565b8035801515811461124757600080fd5b600060a0828403121561126d578081fd5b60405160a0810181811067ffffffffffffffff8211171561129c57634e487b7160e01b83526041600452602483fd5b6040529050808235600281106112b157600080fd5b8082525060208301356020820152604083013560408201526112d560608401611230565b60608201526112e66080840161124c565b60808201525092915050565b600060208284031215611303578081fd5b610e6b82611230565b600060a0828403121561131d578081fd5b610e6b838361125c565b600080600060e0848603121561133b578182fd5b611345858561125c565b925061135360a08501611230565b915060c084013590509250925092565b60008060008060006101a0868803121561137b578081fd5b611385878761125c565b94506113948760a0880161125c565b93506113a36101408701611230565b949793965093946101608101359450610180013592915050565b6000602082840312156113ce578081fd5b5035919050565b600281106113f357634e487b7160e01b600052602160045260246000fd5b9052565b60008151808452815b8181101561141c57602081850181015186830182015201611400565b8181111561142d5782602083870101525b50601f01601f19169290920160200192915050565b61144d8282516113d5565b60208181015190830152604080820151908301526060808201516001600160a01b0316908301526080908101511515910152565b6001600160a01b03929092168252602082015260400190565b60a081016114a882886113d5565b602082019590955260408101939093526001600160a01b039190911660608301521515608090910152919050565b602081526000610e6b60208301846113f7565b6080815260006114fc60808301876113f7565b6001600160a01b0395861660208401529390941660408201526060015292915050565b60608152600061153260608301866113f7565b6001600160a01b039490941660208301525060400152919050565b60608152600061156060608301866113f7565b6020830194909452506001600160a01b0391909116604090910152919050565b6020808252818101527f4f776e61626c653a2063616c6c6572206973206e6f7420746865206f776e6572604082015260600190565b9182526001600160a01b0316602082015260400190565b9384526001600160a01b03928316602085015291166040830152606082015260800190565b8781526101e081016116066020830189611442565b61161360c0830188611442565b6001600160a01b03958616610160830152939094166101808501526101a08401919091526101c0909201919091529392505050565b60008261166357634e487b7160e01b81526012600452602481fd5b500490565b60008160001904831182151516156116825761168261169e565b500290565b6000828210156116995761169961169e565b500390565b634e487b7160e01b600052601160045260246000fdfea26469706673582212204f42c6b4e0f94f9a9b334680d646847ae8db44635b8dd1781f89bb9ab207cfca64736f6c63430008040033",
  "libraries": {},
  "devdoc": {
    "kind": "dev",
    "methods": {
      "owner()": {
        "details": "Returns the address of the current owner."
      },
      "renounceOwnership()": {
        "details": "Leaves the contract without owner. It will not be possible to call `onlyOwner` functions anymore. Can only be called by the current owner. NOTE: Renouncing ownership will leave the contract without an owner, thereby removing any functionality that is only available to the owner."
      },
      "transferOwnership(address)": {
        "details": "Transfers ownership of the contract to a new account (`newOwner`). Can only be called by the current owner."
      }
    },
    "version": 1
  },
  "userdoc": {
    "kind": "user",
    "methods": {},
    "version": 1
  },
  "storageLayout": {
    "storage": [
      {
        "astId": 387,
        "contract": "src/Bridge.sol:Bridge",
        "label": "_owner",
        "offset": 0,
        "slot": "0",
        "type": "t_address"
      },
      {
        "astId": 6038,
        "contract": "src/Bridge.sol:Bridge",
        "label": "tokens",
        "offset": 0,
        "slot": "1",
        "type": "t_mapping(t_uint256,t_struct(Token)6016_storage)"
      },
      {
        "astId": 6043,
        "contract": "src/Bridge.sol:Bridge",
        "label": "transactions",
        "offset": 0,
        "slot": "2",
        "type": "t_mapping(t_uint256,t_struct(Transaction)6033_storage)"
      },
      {
        "astId": 6091,
        "contract": "src/Bridge.sol:Bridge",
        "label": "daoAddress",
        "offset": 0,
        "slot": "3",
        "type": "t_address"
      },
      {
        "astId": 6093,
        "contract": "src/Bridge.sol:Bridge",
        "label": "daoShare",
        "offset": 0,
        "slot": "4",
        "type": "t_uint256"
      }
    ],
    "types": {
      "t_address": {
        "encoding": "inplace",
        "label": "address",
        "numberOfBytes": "20"
      },
      "t_bool": {
        "encoding": "inplace",
        "label": "bool",
        "numberOfBytes": "1"
      },
      "t_enum(Type)6004": {
        "encoding": "inplace",
        "label": "enum Bridge.Type",
        "numberOfBytes": "1"
      },
      "t_mapping(t_uint256,t_struct(Token)6016_storage)": {
        "encoding": "mapping",
        "key": "t_uint256",
        "label": "mapping(uint256 => struct Bridge.Token)",
        "numberOfBytes": "32",
        "value": "t_struct(Token)6016_storage"
      },
      "t_mapping(t_uint256,t_struct(Transaction)6033_storage)": {
        "encoding": "mapping",
        "key": "t_uint256",
        "label": "mapping(uint256 => struct Bridge.Transaction)",
        "numberOfBytes": "32",
        "value": "t_struct(Transaction)6033_storage"
      },
      "t_struct(Token)6016_storage": {
        "encoding": "inplace",
        "label": "struct Bridge.Token",
        "members": [
          {
            "astId": 6007,
            "contract": "src/Bridge.sol:Bridge",
            "label": "kind",
            "offset": 0,
            "slot": "0",
            "type": "t_enum(Type)6004"
          },
          {
            "astId": 6009,
            "contract": "src/Bridge.sol:Bridge",
            "label": "id",
            "offset": 0,
            "slot": "1",
            "type": "t_uint256"
          },
          {
            "astId": 6011,
            "contract": "src/Bridge.sol:Bridge",
            "label": "chainID",
            "offset": 0,
            "slot": "2",
            "type": "t_uint256"
          },
          {
            "astId": 6013,
            "contract": "src/Bridge.sol:Bridge",
            "label": "tokenAddress",
            "offset": 0,
            "slot": "3",
            "type": "t_address"
          },
          {
            "astId": 6015,
            "contract": "src/Bridge.sol:Bridge",
            "label": "enabled",
            "offset": 20,
            "slot": "3",
            "type": "t_bool"
          }
        ],
        "numberOfBytes": "128"
      },
      "t_struct(Transaction)6033_storage": {
        "encoding": "inplace",
        "label": "struct Bridge.Transaction",
        "members": [
          {
            "astId": 6018,
            "contract": "src/Bridge.sol:Bridge",
            "label": "id",
            "offset": 0,
            "slot": "0",
            "type": "t_uint256"
          },
          {
            "astId": 6021,
            "contract": "src/Bridge.sol:Bridge",
            "label": "tokenA",
            "offset": 0,
            "slot": "1",
            "type": "t_struct(Token)6016_storage"
          },
          {
            "astId": 6024,
            "contract": "src/Bridge.sol:Bridge",
            "label": "tokenB",
            "offset": 0,
            "slot": "5",
            "type": "t_struct(Token)6016_storage"
          },
          {
            "astId": 6026,
            "contract": "src/Bridge.sol:Bridge",
            "label": "sender",
            "offset": 0,
            "slot": "9",
            "type": "t_address"
          },
          {
            "astId": 6028,
            "contract": "src/Bridge.sol:Bridge",
            "label": "recipient",
            "offset": 0,
            "slot": "10",
            "type": "t_address"
          },
          {
            "astId": 6030,
            "contract": "src/Bridge.sol:Bridge",
            "label": "amount",
            "offset": 0,
            "slot": "11",
            "type": "t_uint256"
          },
          {
            "astId": 6032,
            "contract": "src/Bridge.sol:Bridge",
            "label": "nonce",
            "offset": 0,
            "slot": "12",
            "type": "t_uint256"
          }
        ],
        "numberOfBytes": "416"
      },
      "t_uint256": {
        "encoding": "inplace",
        "label": "uint256",
        "numberOfBytes": "32"
      }
    }
  }
}