{
  "address": "0xc88b68Ac5bA45212A40852aF8eFB4d2815B1394a",
  "abi": [
    {
      "inputs": [
        {
          "internalType": "address",
          "name": "_daoAddress",
          "type": "address"
        },
        {
          "internalType": "uint256",
          "name": "_daoShare",
          "type": "uint256"
        },
        {
          "internalType": "address",
          "name": "_tokenAddress",
          "type": "address"
        },
        {
          "internalType": "uint256",
          "name": "_rewardPerBlock",
          "type": "uint256"
        },
        {
          "internalType": "uint256",
          "name": "_startBlock",
          "type": "uint256"
        },
        {
          "internalType": "uint256",
          "name": "_bonusEndBlock",
          "type": "uint256"
        }
      ],
      "stateMutability": "nonpayable",
      "type": "constructor"
    },
    {
      "anonymous": false,
      "inputs": [
        {
          "indexed": true,
          "internalType": "address",
          "name": "user",
          "type": "address"
        },
        {
          "indexed": true,
          "internalType": "uint256",
          "name": "pid",
          "type": "uint256"
        },
        {
          "indexed": false,
          "internalType": "uint256",
          "name": "amount",
          "type": "uint256"
        }
      ],
      "name": "Deposit",
      "type": "event"
    },
    {
      "anonymous": false,
      "inputs": [
        {
          "indexed": true,
          "internalType": "address",
          "name": "user",
          "type": "address"
        },
        {
          "indexed": true,
          "internalType": "uint256",
          "name": "pid",
          "type": "uint256"
        },
        {
          "indexed": false,
          "internalType": "uint256",
          "name": "amount",
          "type": "uint256"
        }
      ],
      "name": "EmergencyWithdraw",
      "type": "event"
    },
    {
      "anonymous": false,
      "inputs": [
        {
          "indexed": true,
          "internalType": "address",
          "name": "previousOwner",
          "type": "address"
        },
        {
          "indexed": true,
          "internalType": "address",
          "name": "newOwner",
          "type": "address"
        }
      ],
      "name": "OwnershipTransferred",
      "type": "event"
    },
    {
      "anonymous": false,
      "inputs": [
        {
          "indexed": true,
          "internalType": "address",
          "name": "user",
          "type": "address"
        },
        {
          "indexed": true,
          "internalType": "uint256",
          "name": "pid",
          "type": "uint256"
        },
        {
          "indexed": false,
          "internalType": "uint256",
          "name": "amount",
          "type": "uint256"
        }
      ],
      "name": "Withdraw",
      "type": "event"
    },
    {
      "inputs": [],
      "name": "BONUS_MULTIPLIER",
      "outputs": [
        {
          "internalType": "uint256",
          "name": "",
          "type": "uint256"
        }
      ],
      "stateMutability": "view",
      "type": "function"
    },
    {
      "inputs": [
        {
          "internalType": "uint256",
          "name": "_allocPoint",
          "type": "uint256"
        },
        {
          "internalType": "contract IERC20",
          "name": "_lpToken",
          "type": "address"
        },
        {
          "internalType": "bool",
          "name": "_withUpdate",
          "type": "bool"
        }
      ],
      "name": "add",
      "outputs": [],
      "stateMutability": "nonpayable",
      "type": "function"
    },
    {
      "inputs": [],
      "name": "bonusEndBlock",
      "outputs": [
        {
          "internalType": "uint256",
          "name": "",
          "type": "uint256"
        }
      ],
      "stateMutability": "view",
      "type": "function"
    },
    {
      "inputs": [],
      "name": "daoAddress",
      "outputs": [
        {
          "internalType": "address",
          "name": "",
          "type": "address"
        }
      ],
      "stateMutability": "view",
      "type": "function"
    },
    {
      "inputs": [],
      "name": "daoShare",
      "outputs": [
        {
          "internalType": "uint256",
          "name": "",
          "type": "uint256"
        }
      ],
      "stateMutability": "view",
      "type": "function"
    },
    {
      "inputs": [
        {
          "internalType": "uint256",
          "name": "_pid",
          "type": "uint256"
        },
        {
          "internalType": "uint256",
          "name": "_amount",
          "type": "uint256"
        }
      ],
      "name": "deposit",
      "outputs": [],
      "stateMutability": "nonpayable",
      "type": "function"
    },
    {
      "inputs": [
        {
          "internalType": "uint256",
          "name": "_pid",
          "type": "uint256"
        }
      ],
      "name": "emergencyWithdraw",
      "outputs": [],
      "stateMutability": "nonpayable",
      "type": "function"
    },
    {
      "inputs": [
        {
          "internalType": "uint256",
          "name": "_from",
          "type": "uint256"
        },
        {
          "internalType": "uint256",
          "name": "_to",
          "type": "uint256"
        }
      ],
      "name": "getMultiplier",
      "outputs": [
        {
          "internalType": "uint256",
          "name": "",
          "type": "uint256"
        }
      ],
      "stateMutability": "view",
      "type": "function"
    },
    {
      "inputs": [],
      "name": "massUpdatePools",
      "outputs": [],
      "stateMutability": "nonpayable",
      "type": "function"
    },
    {
      "inputs": [],
      "name": "owner",
      "outputs": [
        {
          "internalType": "address",
          "name": "",
          "type": "address"
        }
      ],
      "stateMutability": "view",
      "type": "function"
    },
    {
      "inputs": [
        {
          "internalType": "uint256",
          "name": "_pid",
          "type": "uint256"
        },
        {
          "internalType": "address",
          "name": "_user",
          "type": "address"
        }
      ],
      "name": "pendingReward",
      "outputs": [
        {
          "internalType": "uint256",
          "name": "",
          "type": "uint256"
        }
      ],
      "stateMutability": "view",
      "type": "function"
    },
    {
      "inputs": [
        {
          "internalType": "uint256",
          "name": "",
          "type": "uint256"
        }
      ],
      "name": "poolInfo",
      "outputs": [
        {
          "internalType": "contract IERC20",
          "name": "lpToken",
          "type": "address"
        },
        {
          "internalType": "uint256",
          "name": "allocPoint",
          "type": "uint256"
        },
        {
          "internalType": "uint256",
          "name": "lastRewardBlock",
          "type": "uint256"
        },
        {
          "internalType": "uint256",
          "name": "accRewardPerShare",
          "type": "uint256"
        }
      ],
      "stateMutability": "view",
      "type": "function"
    },
    {
      "inputs": [],
      "name": "poolLength",
      "outputs": [
        {
          "internalType": "uint256",
          "name": "",
          "type": "uint256"
        }
      ],
      "stateMutability": "view",
      "type": "function"
    },
    {
      "inputs": [],
      "name": "renounceOwnership",
      "outputs": [],
      "stateMutability": "nonpayable",
      "type": "function"
    },
    {
      "inputs": [],
      "name": "rewardPerBlock",
      "outputs": [
        {
          "internalType": "uint256",
          "name": "",
          "type": "uint256"
        }
      ],
      "stateMutability": "view",
      "type": "function"
    },
    {
      "inputs": [
        {
          "internalType": "uint256",
          "name": "_pid",
          "type": "uint256"
        },
        {
          "internalType": "uint256",
          "name": "_allocPoint",
          "type": "uint256"
        },
        {
          "internalType": "bool",
          "name": "_withUpdate",
          "type": "bool"
        }
      ],
      "name": "set",
      "outputs": [],
      "stateMutability": "nonpayable",
      "type": "function"
    },
    {
      "inputs": [
        {
          "internalType": "address",
          "name": "_tokenAddress",
          "type": "address"
        }
      ],
      "name": "setToken",
      "outputs": [],
      "stateMutability": "nonpayable",
      "type": "function"
    },
    {
      "inputs": [],
      "name": "startBlock",
      "outputs": [
        {
          "internalType": "uint256",
          "name": "",
          "type": "uint256"
        }
      ],
      "stateMutability": "view",
      "type": "function"
    },
    {
      "inputs": [],
      "name": "token",
      "outputs": [
        {
          "internalType": "contract IERC20Mintable",
          "name": "",
          "type": "address"
        }
      ],
      "stateMutability": "view",
      "type": "function"
    },
    {
      "inputs": [],
      "name": "totalAllocPoint",
      "outputs": [
        {
          "internalType": "uint256",
          "name": "",
          "type": "uint256"
        }
      ],
      "stateMutability": "view",
      "type": "function"
    },
    {
      "inputs": [
        {
          "internalType": "address",
          "name": "newOwner",
          "type": "address"
        }
      ],
      "name": "transferOwnership",
      "outputs": [],
      "stateMutability": "nonpayable",
      "type": "function"
    },
    {
      "inputs": [
        {
          "internalType": "uint256",
          "name": "_pid",
          "type": "uint256"
        }
      ],
      "name": "updatePool",
      "outputs": [],
      "stateMutability": "nonpayable",
      "type": "function"
    },
    {
      "inputs": [
        {
          "internalType": "uint256",
          "name": "",
          "type": "uint256"
        },
        {
          "internalType": "address",
          "name": "",
          "type": "address"
        }
      ],
      "name": "userInfo",
      "outputs": [
        {
          "internalType": "uint256",
          "name": "amount",
          "type": "uint256"
        },
        {
          "internalType": "uint256",
          "name": "rewardDebt",
          "type": "uint256"
        }
      ],
      "stateMutability": "view",
      "type": "function"
    },
    {
      "inputs": [
        {
          "internalType": "uint256",
          "name": "_pid",
          "type": "uint256"
        },
        {
          "internalType": "uint256",
          "name": "_amount",
          "type": "uint256"
        }
      ],
      "name": "withdraw",
      "outputs": [],
      "stateMutability": "nonpayable",
      "type": "function"
    }
  ],
  "transactionHash": "0x16227f3b3d670410649f5401d17a8d4acab3c8dc64e80cbcbd636877c2d6aebe",
  "args": [
    "0x8De3add1e6d91762513f69305635E5e99D80B146",
    10,
    "0x57F6a63df39112f3882567838a011D64D501c6f2",
    100,
    0,
    20
  ],
  "solcInputHash": "cf6fa7e135d81a982a2e5094021a377a",
  "bytecode": "0x608060405260006008553480156200001657600080fd5b506040516200179c3803806200179c8339810160408190526200003991620000fa565b62000044336200008d565b600280546001600160a01b03199081166001600160a01b039889161790915560039590955560018054909516939095169290921790925560059190915560095560045562000156565b600080546001600160a01b038381166001600160a01b0319831681178455604051919092169283917f8be0079c531659141344cd1fd0a4f28419497f9722a3daafe3b4186f6b6457e09190a35050565b80516001600160a01b0381168114620000f557600080fd5b919050565b60008060008060008060c0878903121562000113578182fd5b6200011e87620000dd565b9550602087015194506200013560408801620000dd565b9350606087015192506080870151915060a087015190509295509295509295565b61163680620001666000396000f3fe608060405234801561001057600080fd5b50600436106101285760003560e01c8063081e3eda1461012d578063144fa6d7146101445780631526fe271461015957806317caf6f1146101965780631aed65531461019f5780631eaaa045146101a85780632131c68c146101bb578063441a3e70146101db57806348cd4cb1146101ee57806351eb05a6146101f75780635312ea8e1461020a578063630b5ba11461021d57806364482f7914610225578063715018a61461023857806388d19f1b146102405780638aa28550146102495780638ae39cac146102515780638da5cb5b1461025a5780638dbb1e3a1461026257806393f1a40b1461027557806398969e82146102bc578063e2bbb158146102cf578063f2fde38b146102e2578063fc0c546a146102f5575b600080fd5b6006545b6040519081526020015b60405180910390f35b61015761015236600461133b565b610308565b005b61016c610167366004611373565b6103c4565b604080516001600160a01b039095168552602085019390935291830152606082015260800161013b565b61013160085481565b61013160045481565b6101576101b63660046113d2565b610408565b6002546101ce906001600160a01b031681565b60405161013b919061147d565b6101576101e9366004611413565b61055a565b61013160095481565b610157610205366004611373565b6106ce565b610157610218366004611373565b6108fb565b6101576109ab565b610157610233366004611434565b6109d6565b610157610aa6565b61013160035481565b610131600281565b61013160055481565b6101ce610ae1565b610131610270366004611413565b610af0565b6102a76102833660046113a3565b60076020908152600092835260408084209091529082529020805460019091015482565b6040805192835260208301919091520161013b565b6101316102ca3660046113a3565b610b5c565b6101576102dd366004611413565b610cda565b6101576102f036600461133b565b610e00565b6001546101ce906001600160a01b031681565b33610311610ae1565b6001600160a01b0316146103405760405162461bcd60e51b8152600401610337906114dd565b60405180910390fd5b6001600160a01b0381166103a25760405162461bcd60e51b8152602060048201526024808201527f546f6b656e20616464726573732063616e6e6f74206265207a65726f206164646044820152637265737360e01b6064820152608401610337565b600180546001600160a01b0319166001600160a01b0392909216919091179055565b600681815481106103d457600080fd5b600091825260209091206004909102018054600182015460028301546003909301546001600160a01b039092169350919084565b33610411610ae1565b6001600160a01b0316146104375760405162461bcd60e51b8152600401610337906114dd565b8015610445576104456109ab565b600060095443116104585760095461045a565b435b60085490915061046a9085610ea0565b600855604080516080810182526001600160a01b0394851681526020810195865290810191825260006060820181815260068054600181018255925291517ff652222313e28459528d920b65115c16c04f3efc82aaedc97be59f3f377c0d3f600490920291820180546001600160a01b031916919096161790945593517ff652222313e28459528d920b65115c16c04f3efc82aaedc97be59f3f377c0d40840155517ff652222313e28459528d920b65115c16c04f3efc82aaedc97be59f3f377c0d418301555090517ff652222313e28459528d920b65115c16c04f3efc82aaedc97be59f3f377c0d4290910155565b60006006838154811061057d57634e487b7160e01b600052603260045260246000fd5b6000918252602080832086845260078252604080852033865290925292208054600490920290920192508311156105f15760405162461bcd60e51b81526020600482015260186024820152771dda5d1a191c985dce881a5b9d985b1a5908185b5bdd5b9d60421b6044820152606401610337565b6105fa846106ce565b6000610634826001015461062e64e8d4a5100061062887600301548760000154610eb390919063ffffffff16565b90610ebf565b90610ecb565b90508015610646576106463382610ed7565b83156106705781546106589085610ecb565b82558254610670906001600160a01b03163386611023565b6003830154825461068b9164e8d4a510009161062891610eb3565b6001830155604051848152859033907ff279e6a1f5e320cca91135676d9cb6e44ca8a08c0b88342bcdb1144f6511b5689060200160405180910390a35050505050565b6000600682815481106106f157634e487b7160e01b600052603260045260246000fd5b9060005260206000209060040201905080600201544311610710575050565b80546040516370a0823160e01b81526000916001600160a01b0316906370a082319061074090309060040161147d565b60206040518083038186803b15801561075857600080fd5b505afa15801561076c573d6000803e3d6000fd5b505050506040513d601f19601f82011682018060405250810190610790919061138b565b9050806107a257504360029091015550565b60006107b2836002015443610af0565b905060006107df60085461062886600101546107d960055487610eb390919063ffffffff16565b90610eb3565b6001546040516340c10f1960e01b81529192506001600160a01b0316906340c10f19906108129030908590600401611491565b600060405180830381600087803b15801561082c57600080fd5b505af1158015610840573d6000803e3d6000fd5b50506001546002546003546001600160a01b0392831694506340c10f19935091169061086d908590610ebf565b6040518363ffffffff1660e01b815260040161088a929190611491565b600060405180830381600087803b1580156108a457600080fd5b505af11580156108b8573d6000803e3d6000fd5b505050506108e66108db8461062864e8d4a5100085610eb390919063ffffffff16565b600386015490610ea0565b60038501555050436002909201919091555050565b60006006828154811061091e57634e487b7160e01b600052603260045260246000fd5b60009182526020808320858452600782526040808520338087529352909320805460049093029093018054909450610963926001600160a01b03919091169190611023565b8054604051908152839033907fbb757047c2b5f3974fe26b7c10f732e7bce710b0952a71082702781e62ae05959060200160405180910390a360008082556001909101555050565b60065460005b818110156109d2576109c2816106ce565b6109cb816115ac565b90506109b1565b5050565b336109df610ae1565b6001600160a01b031614610a055760405162461bcd60e51b8152600401610337906114dd565b8015610a1357610a136109ab565b610a6482610a5e60068681548110610a3b57634e487b7160e01b600052603260045260246000fd5b906000526020600020906004020160010154600854610ecb90919063ffffffff16565b90610ea0565b6008819055508160068481548110610a8c57634e487b7160e01b600052603260045260246000fd5b906000526020600020906004020160010181905550505050565b33610aaf610ae1565b6001600160a01b031614610ad55760405162461bcd60e51b8152600401610337906114dd565b610adf6000611079565b565b6000546001600160a01b031690565b60006004548211610b1157610b0a60026107d98486610ecb565b9050610b56565b6004548310610b2457610b0a8284610ecb565b610b0a610b3c60045484610ecb90919063ffffffff16565b610a5e60026107d987600454610ecb90919063ffffffff16565b92915050565b60008060068481548110610b8057634e487b7160e01b600052603260045260246000fd5b600091825260208083208784526007825260408085206001600160a01b038981168752935280852060049485029092016003810154815492516370a0823160e01b815291975092959294929391909116916370a0823191610be39130910161147d565b60206040518083038186803b158015610bfb57600080fd5b505afa158015610c0f573d6000803e3d6000fd5b505050506040513d601f19601f82011682018060405250810190610c33919061138b565b9050836002015443118015610c4757508015155b15610ca7576000610c5c856002015443610af0565b90506000610c8360085461062888600101546107d960055487610eb390919063ffffffff16565b9050610ca2610c9b846106288464e8d4a51000610eb3565b8590610ea0565b935050505b610ccf836001015461062e64e8d4a51000610628868860000154610eb390919063ffffffff16565b979650505050505050565b600060068381548110610cfd57634e487b7160e01b600052603260045260246000fd5b60009182526020808320868452600782526040808520338652909252922060049091029091019150610d2e846106ce565b805415610d77576000610d63826001015461062e64e8d4a5100061062887600301548760000154610eb390919063ffffffff16565b90508015610d7557610d753382610ed7565b505b8215610da3578154610d94906001600160a01b03163330866110c9565b8054610da09084610ea0565b81555b60038201548154610dbe9164e8d4a510009161062891610eb3565b6001820155604051838152849033907f90890809c654f11d6e72a28fa60149770a0d11ec6c92319d6ceb2bb0a4ea1a159060200160405180910390a350505050565b33610e09610ae1565b6001600160a01b031614610e2f5760405162461bcd60e51b8152600401610337906114dd565b6001600160a01b038116610e945760405162461bcd60e51b815260206004820152602660248201527f4f776e61626c653a206e6577206f776e657220697320746865207a65726f206160448201526564647265737360d01b6064820152608401610337565b610e9d81611079565b50565b6000610eac8284611512565b9392505050565b6000610eac828461154a565b6000610eac828461152a565b6000610eac8284611569565b6001546040516370a0823160e01b81526000916001600160a01b0316906370a0823190610f0890309060040161147d565b60206040518083038186803b158015610f2057600080fd5b505afa158015610f34573d6000803e3d6000fd5b505050506040513d601f19601f82011682018060405250810190610f58919061138b565b905080821115610fec5760015460405163a9059cbb60e01b81526001600160a01b039091169063a9059cbb90610f949086908590600401611491565b602060405180830381600087803b158015610fae57600080fd5b505af1158015610fc2573d6000803e3d6000fd5b505050506040513d601f19601f82011682018060405250810190610fe69190611357565b50505050565b60015460405163a9059cbb60e01b81526001600160a01b039091169063a9059cbb90610f949086908690600401611491565b505050565b61101e8363a9059cbb60e01b8484604051602401611042929190611491565b60408051601f198184030181529190526020810180516001600160e01b03166001600160e01b031990931692909217909152611101565b600080546001600160a01b038381166001600160a01b0319831681178455604051919092169283917f8be0079c531659141344cd1fd0a4f28419497f9722a3daafe3b4186f6b6457e09190a35050565b6040516001600160a01b0380851660248301528316604482015260648101829052610fe69085906323b872dd60e01b90608401611042565b6000611156826040518060400160405280602081526020017f5361666545524332303a206c6f772d6c6576656c2063616c6c206661696c6564815250856001600160a01b03166111d39092919063ffffffff16565b80519091501561101e57808060200190518101906111749190611357565b61101e5760405162461bcd60e51b815260206004820152602a60248201527f5361666545524332303a204552433230206f7065726174696f6e20646964206e6044820152691bdd081cdd58d8d9595960b21b6064820152608401610337565b60606111e284846000856111ea565b949350505050565b60608247101561124b5760405162461bcd60e51b815260206004820152602660248201527f416464726573733a20696e73756666696369656e742062616c616e636520666f6044820152651c8818d85b1b60d21b6064820152608401610337565b843b6112995760405162461bcd60e51b815260206004820152601d60248201527f416464726573733a2063616c6c20746f206e6f6e2d636f6e74726163740000006044820152606401610337565b600080866001600160a01b031685876040516112b59190611461565b60006040518083038185875af1925050503d80600081146112f2576040519150601f19603f3d011682016040523d82523d6000602084013e6112f7565b606091505b5091509150610ccf82828660608315611311575081610eac565b8251156113215782518084602001fd5b8160405162461bcd60e51b815260040161033791906114aa565b60006020828403121561134c578081fd5b8135610eac816115dd565b600060208284031215611368578081fd5b8151610eac816115f2565b600060208284031215611384578081fd5b5035919050565b60006020828403121561139c578081fd5b5051919050565b600080604083850312156113b5578081fd5b8235915060208301356113c7816115dd565b809150509250929050565b6000806000606084860312156113e6578081fd5b8335925060208401356113f8816115dd565b91506040840135611408816115f2565b809150509250925092565b60008060408385031215611425578182fd5b50508035926020909101359150565b600080600060608486031215611448578283fd5b83359250602084013591506040840135611408816115f2565b60008251611473818460208701611580565b9190910192915050565b6001600160a01b0391909116815260200190565b6001600160a01b03929092168252602082015260400190565b60208152600082518060208401526114c9816040850160208701611580565b601f01601f19169190910160400192915050565b6020808252818101527f4f776e61626c653a2063616c6c6572206973206e6f7420746865206f776e6572604082015260600190565b60008219821115611525576115256115c7565b500190565b60008261154557634e487b7160e01b81526012600452602481fd5b500490565b6000816000190483118215151615611564576115646115c7565b500290565b60008282101561157b5761157b6115c7565b500390565b60005b8381101561159b578181015183820152602001611583565b83811115610fe65750506000910152565b60006000198214156115c0576115c06115c7565b5060010190565b634e487b7160e01b600052601160045260246000fd5b6001600160a01b0381168114610e9d57600080fd5b8015158114610e9d57600080fdfea2646970667358221220c5b0a5c3b6452ad49ebcfc1b42e4ac03c3da34e54f8198c7d1cdd0e70ba5e88564736f6c63430008040033",
  "devdoc": {
    "kind": "dev",
    "methods": {
      "owner()": {
        "details": "Returns the address of the current owner."
      },
      "renounceOwnership()": {
        "details": "Leaves the contract without owner. It will not be possible to call `onlyOwner` functions anymore. Can only be called by the current owner. NOTE: Renouncing ownership will leave the contract without an owner, thereby removing any functionality that is only available to the owner."
      },
      "transferOwnership(address)": {
        "details": "Transfers ownership of the contract to a new account (`newOwner`). Can only be called by the current owner."
      }
    },
    "version": 1
  },
  "userdoc": {
    "kind": "user",
    "methods": {},
    "version": 1
  },
  "storageLayout": {
    "storage": [
      {
        "astId": 1426,
        "contract": "src/Farm.sol:Farm",
        "label": "_owner",
        "offset": 0,
        "slot": "0",
        "type": "t_address"
      },
      {
        "astId": 10066,
        "contract": "src/Farm.sol:Farm",
        "label": "token",
        "offset": 0,
        "slot": "1",
        "type": "t_contract(IERC20Mintable)24521"
      },
      {
        "astId": 10068,
        "contract": "src/Farm.sol:Farm",
        "label": "daoAddress",
        "offset": 0,
        "slot": "2",
        "type": "t_address"
      },
      {
        "astId": 10070,
        "contract": "src/Farm.sol:Farm",
        "label": "daoShare",
        "offset": 0,
        "slot": "3",
        "type": "t_uint256"
      },
      {
        "astId": 10072,
        "contract": "src/Farm.sol:Farm",
        "label": "bonusEndBlock",
        "offset": 0,
        "slot": "4",
        "type": "t_uint256"
      },
      {
        "astId": 10074,
        "contract": "src/Farm.sol:Farm",
        "label": "rewardPerBlock",
        "offset": 0,
        "slot": "5",
        "type": "t_uint256"
      },
      {
        "astId": 10081,
        "contract": "src/Farm.sol:Farm",
        "label": "poolInfo",
        "offset": 0,
        "slot": "6",
        "type": "t_array(t_struct(PoolInfo)10063_storage)dyn_storage"
      },
      {
        "astId": 10088,
        "contract": "src/Farm.sol:Farm",
        "label": "userInfo",
        "offset": 0,
        "slot": "7",
        "type": "t_mapping(t_uint256,t_mapping(t_address,t_struct(UserInfo)10053_storage))"
      },
      {
        "astId": 10091,
        "contract": "src/Farm.sol:Farm",
        "label": "totalAllocPoint",
        "offset": 0,
        "slot": "8",
        "type": "t_uint256"
      },
      {
        "astId": 10093,
        "contract": "src/Farm.sol:Farm",
        "label": "startBlock",
        "offset": 0,
        "slot": "9",
        "type": "t_uint256"
      }
    ],
    "types": {
      "t_address": {
        "encoding": "inplace",
        "label": "address",
        "numberOfBytes": "20"
      },
      "t_array(t_struct(PoolInfo)10063_storage)dyn_storage": {
        "base": "t_struct(PoolInfo)10063_storage",
        "encoding": "dynamic_array",
        "label": "struct Farm.PoolInfo[]",
        "numberOfBytes": "32"
      },
      "t_contract(IERC20)2278": {
        "encoding": "inplace",
        "label": "contract IERC20",
        "numberOfBytes": "20"
      },
      "t_contract(IERC20Mintable)24521": {
        "encoding": "inplace",
        "label": "contract IERC20Mintable",
        "numberOfBytes": "20"
      },
      "t_mapping(t_address,t_struct(UserInfo)10053_storage)": {
        "encoding": "mapping",
        "key": "t_address",
        "label": "mapping(address => struct Farm.UserInfo)",
        "numberOfBytes": "32",
        "value": "t_struct(UserInfo)10053_storage"
      },
      "t_mapping(t_uint256,t_mapping(t_address,t_struct(UserInfo)10053_storage))": {
        "encoding": "mapping",
        "key": "t_uint256",
        "label": "mapping(uint256 => mapping(address => struct Farm.UserInfo))",
        "numberOfBytes": "32",
        "value": "t_mapping(t_address,t_struct(UserInfo)10053_storage)"
      },
      "t_struct(PoolInfo)10063_storage": {
        "encoding": "inplace",
        "label": "struct Farm.PoolInfo",
        "members": [
          {
            "astId": 10056,
            "contract": "src/Farm.sol:Farm",
            "label": "lpToken",
            "offset": 0,
            "slot": "0",
            "type": "t_contract(IERC20)2278"
          },
          {
            "astId": 10058,
            "contract": "src/Farm.sol:Farm",
            "label": "allocPoint",
            "offset": 0,
            "slot": "1",
            "type": "t_uint256"
          },
          {
            "astId": 10060,
            "contract": "src/Farm.sol:Farm",
            "label": "lastRewardBlock",
            "offset": 0,
            "slot": "2",
            "type": "t_uint256"
          },
          {
            "astId": 10062,
            "contract": "src/Farm.sol:Farm",
            "label": "accRewardPerShare",
            "offset": 0,
            "slot": "3",
            "type": "t_uint256"
          }
        ],
        "numberOfBytes": "128"
      },
      "t_struct(UserInfo)10053_storage": {
        "encoding": "inplace",
        "label": "struct Farm.UserInfo",
        "members": [
          {
            "astId": 10050,
            "contract": "src/Farm.sol:Farm",
            "label": "amount",
            "offset": 0,
            "slot": "0",
            "type": "t_uint256"
          },
          {
            "astId": 10052,
            "contract": "src/Farm.sol:Farm",
            "label": "rewardDebt",
            "offset": 0,
            "slot": "1",
            "type": "t_uint256"
          }
        ],
        "numberOfBytes": "64"
      },
      "t_uint256": {
        "encoding": "inplace",
        "label": "uint256",
        "numberOfBytes": "32"
      }
    }
  }
}