{
  "address": "0x73A469Bb23bF14f60Fc28A5D2a627163A95d9061",
  "abi": [
    {
      "inputs": [
        {
          "internalType": "address",
          "name": "zooAddress",
          "type": "address"
        }
      ],
      "stateMutability": "nonpayable",
      "type": "constructor"
    },
    {
      "anonymous": false,
      "inputs": [
        {
          "indexed": true,
          "internalType": "address",
          "name": "_address",
          "type": "address"
        },
        {
          "indexed": true,
          "internalType": "uint256",
          "name": "_amount",
          "type": "uint256"
        }
      ],
      "name": "Fund",
      "type": "event"
    },
    {
      "anonymous": false,
      "inputs": [
        {
          "indexed": true,
          "internalType": "address",
          "name": "previousOwner",
          "type": "address"
        },
        {
          "indexed": true,
          "internalType": "address",
          "name": "newOwner",
          "type": "address"
        }
      ],
      "name": "OwnershipTransferred",
      "type": "event"
    },
    {
      "inputs": [],
      "name": "balance",
      "outputs": [
        {
          "internalType": "uint256",
          "name": "",
          "type": "uint256"
        }
      ],
      "stateMutability": "view",
      "type": "function"
    },
    {
      "inputs": [
        {
          "internalType": "address",
          "name": "to",
          "type": "address"
        }
      ],
      "name": "fund",
      "outputs": [
        {
          "internalType": "uint256",
          "name": "",
          "type": "uint256"
        }
      ],
      "stateMutability": "nonpayable",
      "type": "function"
    },
    {
      "inputs": [],
      "name": "owner",
      "outputs": [
        {
          "internalType": "address",
          "name": "",
          "type": "address"
        }
      ],
      "stateMutability": "view",
      "type": "function"
    },
    {
      "inputs": [],
      "name": "rate",
      "outputs": [
        {
          "internalType": "uint256",
          "name": "",
          "type": "uint256"
        }
      ],
      "stateMutability": "view",
      "type": "function"
    },
    {
      "inputs": [],
      "name": "renounceOwnership",
      "outputs": [],
      "stateMutability": "nonpayable",
      "type": "function"
    },
    {
      "inputs": [
        {
          "internalType": "uint256",
          "name": "_rate",
          "type": "uint256"
        }
      ],
      "name": "setRate",
      "outputs": [],
      "stateMutability": "nonpayable",
      "type": "function"
    },
    {
      "inputs": [
        {
          "internalType": "address",
          "name": "newOwner",
          "type": "address"
        }
      ],
      "name": "transferOwnership",
      "outputs": [],
      "stateMutability": "nonpayable",
      "type": "function"
    },
    {
      "inputs": [],
      "name": "withdraw",
      "outputs": [],
      "stateMutability": "nonpayable",
      "type": "function"
    }
  ],
  "transactionHash": "0x1af4848927065cc6b327cca17fcc61ba5ef95e28529dac999e6342413b32fd02",
  "args": [
    "0x362ff24Bdf44F33765d3e7B2a67b23063Bc8c589"
  ],
  "numDeployments": 1,
  "solcInputHash": "d9470ddb98148ac8b46a4592c3bd0205",
  "bytecode": "0x608060405261271060015534801561001657600080fd5b50604051610783380380610783833981016040819052610035916100b3565b61003e33610063565b600280546001600160a01b0319166001600160a01b03929092169190911790556100e1565b600080546001600160a01b038381166001600160a01b0319831681178455604051919092169283917f8be0079c531659141344cd1fd0a4f28419497f9722a3daafe3b4186f6b6457e09190a35050565b6000602082840312156100c4578081fd5b81516001600160a01b03811681146100da578182fd5b9392505050565b610693806100f06000396000f3fe608060405234801561001057600080fd5b50600436106100785760003560e01c8063230244081461007d5780632c4e722e146100a357806334fcf437146100ac5780633ccfd60b146100c1578063715018a6146100c95780638da5cb5b146100d1578063b69ef8a8146100e6578063f2fde38b146100ee575b600080fd5b61009061008b36600461057d565b610101565b6040519081526020015b60405180910390f35b61009060015481565b6100bf6100ba3660046105cb565b61024d565b005b6100bf61028a565b6100bf6103c4565b6100d96103ff565b60405161009a91906105fb565b61009061040e565b6100bf6100fc36600461057d565b610494565b6002546040516370a0823160e01b81526000916001600160a01b0316906370a08231906101329030906004016105fb565b60206040518083038186803b15801561014a57600080fd5b505afa15801561015e573d6000803e3d6000fd5b505050506040513d601f19601f8201168201806040525081019061018291906105e3565b600154111561019057600080fd5b60025460015460405163a9059cbb60e01b81526001600160a01b039092169163a9059cbb916101c49186919060040161060f565b602060405180830381600087803b1580156101de57600080fd5b505af11580156101f2573d6000803e3d6000fd5b505050506040513d601f19601f8201168201806040525081019061021691906105ab565b5060015460405133907fda8220a878ff7a89474ccffdaa31ea1ed1ffbb0207d5051afccc4fbaf81f9bcd90600090a3505060015490565b336102566103ff565b6001600160a01b0316146102855760405162461bcd60e51b815260040161027c90610628565b60405180910390fd5b600155565b336102936103ff565b6001600160a01b0316146102b95760405162461bcd60e51b815260040161027c90610628565b6002546001600160a01b031663a9059cbb6102d26103ff565b6002546040516370a0823160e01b81526001600160a01b03909116906370a08231906103029030906004016105fb565b60206040518083038186803b15801561031a57600080fd5b505afa15801561032e573d6000803e3d6000fd5b505050506040513d601f19601f8201168201806040525081019061035291906105e3565b6040518363ffffffff1660e01b815260040161036f92919061060f565b602060405180830381600087803b15801561038957600080fd5b505af115801561039d573d6000803e3d6000fd5b505050506040513d601f19601f820116820180604052508101906103c191906105ab565b50565b336103cd6103ff565b6001600160a01b0316146103f35760405162461bcd60e51b815260040161027c90610628565b6103fd600061052d565b565b6000546001600160a01b031690565b6002546040516370a0823160e01b81526000916001600160a01b0316906370a082319061043f9030906004016105fb565b60206040518083038186803b15801561045757600080fd5b505afa15801561046b573d6000803e3d6000fd5b505050506040513d601f19601f8201168201806040525081019061048f91906105e3565b905090565b3361049d6103ff565b6001600160a01b0316146104c35760405162461bcd60e51b815260040161027c90610628565b6001600160a01b0381166105285760405162461bcd60e51b815260206004820152602660248201527f4f776e61626c653a206e6577206f776e657220697320746865207a65726f206160448201526564647265737360d01b606482015260840161027c565b6103c1815b600080546001600160a01b038381166001600160a01b0319831681178455604051919092169283917f8be0079c531659141344cd1fd0a4f28419497f9722a3daafe3b4186f6b6457e09190a35050565b60006020828403121561058e578081fd5b81356001600160a01b03811681146105a4578182fd5b9392505050565b6000602082840312156105bc578081fd5b815180151581146105a4578182fd5b6000602082840312156105dc578081fd5b5035919050565b6000602082840312156105f4578081fd5b5051919050565b6001600160a01b0391909116815260200190565b6001600160a01b03929092168252602082015260400190565b6020808252818101527f4f776e61626c653a2063616c6c6572206973206e6f7420746865206f776e657260408201526060019056fea26469706673582212209acfe5c4cbc9cc1e875e0b518c29440e5513ebb300164cce8a27c142c11d880164736f6c63430008040033",
  "libraries": {},
  "devdoc": {
    "kind": "dev",
    "methods": {
      "owner()": {
        "details": "Returns the address of the current owner."
      },
      "renounceOwnership()": {
        "details": "Leaves the contract without owner. It will not be possible to call `onlyOwner` functions anymore. Can only be called by the current owner. NOTE: Renouncing ownership will leave the contract without an owner, thereby removing any functionality that is only available to the owner."
      },
      "transferOwnership(address)": {
        "details": "Transfers ownership of the contract to a new account (`newOwner`). Can only be called by the current owner."
      }
    },
    "version": 1
  },
  "userdoc": {
    "kind": "user",
    "methods": {},
    "version": 1
  },
  "storageLayout": {
    "storage": [
      {
        "astId": 1457,
        "contract": "src/Faucet.sol:Faucet",
        "label": "_owner",
        "offset": 0,
        "slot": "0",
        "type": "t_address"
      },
      {
        "astId": 11251,
        "contract": "src/Faucet.sol:Faucet",
        "label": "rate",
        "offset": 0,
        "slot": "1",
        "type": "t_uint256"
      },
      {
        "astId": 11254,
        "contract": "src/Faucet.sol:Faucet",
        "label": "token",
        "offset": 0,
        "slot": "2",
        "type": "t_contract(IERC20)2427"
      }
    ],
    "types": {
      "t_address": {
        "encoding": "inplace",
        "label": "address",
        "numberOfBytes": "20"
      },
      "t_contract(IERC20)2427": {
        "encoding": "inplace",
        "label": "contract IERC20",
        "numberOfBytes": "20"
      },
      "t_uint256": {
        "encoding": "inplace",
        "label": "uint256",
        "numberOfBytes": "32"
      }
    }
  }
}