{
  "address": "0xdA2bf6a8a3Fc55F8F9254ccf944FFb8b018D2E76",
  "abi": [
    {
      "inputs": [],
      "stateMutability": "nonpayable",
      "type": "constructor"
    },
    {
      "anonymous": false,
      "inputs": [
        {
          "indexed": false,
          "internalType": "address",
          "name": "b",
          "type": "address"
        },
        {
          "indexed": false,
          "internalType": "uint256",
          "name": "bAmount",
          "type": "uint256"
        },
        {
          "indexed": false,
          "internalType": "address",
          "name": "c",
          "type": "address"
        },
        {
          "indexed": false,
          "internalType": "uint256",
          "name": "cAmount",
          "type": "uint256"
        }
      ],
      "name": "Liquidity",
      "type": "event"
    },
    {
      "anonymous": false,
      "inputs": [
        {
          "indexed": false,
          "internalType": "address",
          "name": "pair",
          "type": "address"
        },
        {
          "indexed": false,
          "internalType": "address",
          "name": "b",
          "type": "address"
        },
        {
          "indexed": false,
          "internalType": "address",
          "name": "c",
          "type": "address"
        }
      ],
      "name": "Pair",
      "type": "event"
    },
    {
      "anonymous": false,
      "inputs": [
        {
          "indexed": false,
          "internalType": "uint256",
          "name": "amountIn",
          "type": "uint256"
        },
        {
          "indexed": false,
          "internalType": "uint256",
          "name": "amountOutMin",
          "type": "uint256"
        }
      ],
      "name": "SwapTokens",
      "type": "event"
    },
    {
      "inputs": [],
      "name": "balanceBNB",
      "outputs": [
        {
          "internalType": "uint256",
          "name": "",
          "type": "uint256"
        }
      ],
      "stateMutability": "view",
      "type": "function"
    },
    {
      "inputs": [],
      "name": "balanceZOO",
      "outputs": [
        {
          "internalType": "uint256",
          "name": "",
          "type": "uint256"
        }
      ],
      "stateMutability": "view",
      "type": "function"
    },
    {
      "inputs": [],
      "name": "balanceZOOV2",
      "outputs": [
        {
          "internalType": "uint256",
          "name": "",
          "type": "uint256"
        }
      ],
      "stateMutability": "view",
      "type": "function"
    },
    {
      "inputs": [],
      "name": "bnbAddress",
      "outputs": [
        {
          "internalType": "address",
          "name": "",
          "type": "address"
        }
      ],
      "stateMutability": "view",
      "type": "function"
    },
    {
      "inputs": [
        {
          "internalType": "address",
          "name": "_a",
          "type": "address"
        },
        {
          "internalType": "address",
          "name": "_b",
          "type": "address"
        },
        {
          "internalType": "address",
          "name": "_c",
          "type": "address"
        },
        {
          "internalType": "address",
          "name": "_factory",
          "type": "address"
        },
        {
          "internalType": "address",
          "name": "_router",
          "type": "address"
        }
      ],
      "name": "configure",
      "outputs": [],
      "stateMutability": "nonpayable",
      "type": "function"
    },
    {
      "inputs": [],
      "name": "factoryAddress",
      "outputs": [
        {
          "internalType": "address",
          "name": "",
          "type": "address"
        }
      ],
      "stateMutability": "view",
      "type": "function"
    },
    {
      "inputs": [],
      "name": "getInitHash",
      "outputs": [
        {
          "internalType": "bytes32",
          "name": "",
          "type": "bytes32"
        }
      ],
      "stateMutability": "view",
      "type": "function"
    },
    {
      "inputs": [],
      "name": "launchPool",
      "outputs": [
        {
          "internalType": "address",
          "name": "",
          "type": "address"
        }
      ],
      "stateMutability": "nonpayable",
      "type": "function"
    },
    {
      "inputs": [],
      "name": "routerAddress",
      "outputs": [
        {
          "internalType": "address",
          "name": "",
          "type": "address"
        }
      ],
      "stateMutability": "view",
      "type": "function"
    },
    {
      "inputs": [
        {
          "internalType": "uint256",
          "name": "amountIn",
          "type": "uint256"
        },
        {
          "internalType": "uint256",
          "name": "amountOutMin",
          "type": "uint256"
        }
      ],
      "name": "swapTokens",
      "outputs": [],
      "stateMutability": "nonpayable",
      "type": "function"
    },
    {
      "inputs": [],
      "name": "zooAddress",
      "outputs": [
        {
          "internalType": "address",
          "name": "",
          "type": "address"
        }
      ],
      "stateMutability": "view",
      "type": "function"
    },
    {
      "inputs": [],
      "name": "zooV2Address",
      "outputs": [
        {
          "internalType": "address",
          "name": "",
          "type": "address"
        }
      ],
      "stateMutability": "view",
      "type": "function"
    }
  ],
  "transactionHash": "0x7ac651bb38337568630427f78220c34ad24c94bb6f45f6facb09735c43c97d9f",
  "args": [],
  "solcInputHash": "4ea63e5954601a791383a61e8a8ecdf1",
  "bytecode": "0x608060405234801561001057600080fd5b50600a80546001600160a01b03191633179055613ef3806100326000396000f3fe608060405234801561001057600080fd5b50600436106100b45760003560e01c80638199e50c116100715780638199e50c1461015957806388ab076f14610161578063966dae0e14610184578063980737941461018c578063a1d4958c14610194578063d11c583a1461019c576100b4565b80630b04fffe146100b95780633268cc56146100d3578063382f2dc0146100f75780633c9de1b8146100ff5780635d33a1f414610107578063760fcb3e1461010f575b600080fd5b6100c16101a4565b60408051918252519081900360200190f35b6100db610220565b604080516001600160a01b039092168252519081900360200190f35b6100c161022f565b6100c161027b565b6100db61038f565b610157600480360360a081101561012557600080fd5b506001600160a01b0381358116916020810135821691604082013581169160608101358216916080909101351661039e565b005b6100c1610491565b6101576004803603604081101561017757600080fd5b50803590602001356104dc565b6100db610d26565b6100db610d35565b6100db610d44565b6100db6111f7565b600154604080516370a0823160e01b815230600482015290516000926001600160a01b0316916370a08231916024808301926020929190829003018186803b1580156101ef57600080fd5b505afa158015610203573d6000803e3d6000fd5b505050506040513d602081101561021957600080fd5b5051905090565b6008546001600160a01b031690565b60008054604080516370a0823160e01b815230600482015290516001600160a01b03909216916370a0823191602480820192602092909190829003018186803b1580156101ef57600080fd5b600060606040518060200161028f90611a09565b6020820181038252601f19601f82011660405250905061031b816040516020018082805190602001908083835b602083106102db5780518252601f1990920191602091820191016102bc565b6001836020036101000a03801982511681845116808217855250505050505090500191505060405160208183030381529060405280519060200120611206565b806040516020018082805190602001908083835b6020831061034e5780518252601f19909201916020918201910161032f565b6001836020036101000a0380198251168184511680821785525050505050509050019150506040516020818303038152906040528051906020012091505090565b6005546001600160a01b031690565b600a546001600160a01b031633146103fd576040805162461bcd60e51b815260206004820152601d60248201527f5361766167653a204f6e6c79206f776e65722068617320616363657373000000604482015290519081900360640190fd5b600580546001600160a01b039687166001600160a01b03199182168117909255600680549688169682168717905560078054958816958216861790556009805494881694821685179055600880549390971692811683179096556000805487169091179055600180548616909417909355600280548516909217909155600480548416909117905560038054909216179055565b600254604080516370a0823160e01b815230600482015290516000926001600160a01b0316916370a08231916024808301926020929190829003018186803b1580156101ef57600080fd5b60408051808201909152600a81526973776170546f6b656e7360b01b6020820152600f42019061050d90848461124a565b60408051808201825260148152733130b630b731b2a7b31036b9b39739b2b73232b960611b60208083019190915260005483516370a0823160e01b815233600482015293516105b4946001600160a01b03909216926370a082319260248082019391829003018186803b15801561058357600080fd5b505afa158015610597573d6000803e3d6000fd5b505050506040513d60208110156105ad57600080fd5b5051611305565b604080518082018252601081526f62616c616e63654f662073617661676560801b60208083019190915260005483516370a0823160e01b81523060048201529351610626946001600160a01b03909216926370a082319260248082019391829003018186803b15801561058357600080fd5b604080518082018252601081526f3130b630b731b2a7b3103937baba32b960811b60208083019190915260005460085484516370a0823160e01b81526001600160a01b039182166004820152945161069d9591909216926370a0823192602480840193829003018186803b15801561058357600080fd5b6106d06040518060400160405280601081526020016f736166655472616e7366657246726f6d60801b81525033856113b7565b6005546106e8906001600160a01b0316333086611476565b60408051808201825260148152733130b630b731b2a7b31036b9b39739b2b73232b960611b60208083019190915260005483516370a0823160e01b8152336004820152935161075e946001600160a01b03909216926370a082319260248082019391829003018186803b15801561058357600080fd5b604080518082018252601081526f62616c616e63654f662073617661676560801b60208083019190915260005483516370a0823160e01b815230600482015293516107d0946001600160a01b03909216926370a082319260248082019391829003018186803b15801561058357600080fd5b604080518082018252601081526f3130b630b731b2a7b3103937baba32b960811b60208083019190915260005460085484516370a0823160e01b81526001600160a01b03918216600482015294516108479591909216926370a0823192602480840193829003018186803b15801561058357600080fd5b60408051808201909152600b81526a73616665417070726f766560a81b602082015260085461088091906001600160a01b0316856113b7565b60055460085461089d916001600160a01b039081169116856115d3565b6003546001600160a01b03166338ed17398460006108b961173d565b30866040518663ffffffff1660e01b81526004018086815260200185815260200180602001846001600160a01b03168152602001838152602001828103825285818151815260200191508051906020019060200280838360005b8381101561092b578181015183820152602001610913565b505050509050019650505050505050600060405180830381600087803b15801561095457600080fd5b505af1158015610968573d6000803e3d6000fd5b505050506040513d6000823e601f3d908101601f19168201604052602081101561099157600080fd5b81019080805160405193929190846401000000008211156109b157600080fd5b9083019060208201858111156109c657600080fd5b82518660208202830111640100000000821117156109e357600080fd5b82525081516020918201928201910280838360005b83811015610a105781810151838201526020016109f8565b505050509091016040818101815260168252752d103130b630b731b2a7b31036b9b39739b2b73232b960511b60208084019190915260005482516370a0823160e01b81523360048201529251610a9499509397506001600160a01b031695506370a08231945060248083019450909291829003018186803b15801561058357600080fd5b60408051808201825260128152715a2062616c616e63654f662073617661676560701b60208083019190915260005483516370a0823160e01b81523060048201529351610b08946001600160a01b03909216926370a082319260248082019391829003018186803b15801561058357600080fd5b60408051808201825260128152712d103130b630b731b2a7b3103937baba32b960711b60208083019190915260005460085484516370a0823160e01b81526001600160a01b0391821660048201529451610b819591909216926370a0823192602480840193829003018186803b15801561058357600080fd5b604080518082018252601681527521103130b630b731b2a7b31036b9b39739b2b73232b960511b60208083019190915260015483516370a0823160e01b81523360048201529351610bf9946001600160a01b03909216926370a082319260248082019391829003018186803b15801561058357600080fd5b6040805180820182526012815271422062616c616e63654f662073617661676560701b60208083019190915260015483516370a0823160e01b81523060048201529351610c6d946001600160a01b03909216926370a082319260248082019391829003018186803b15801561058357600080fd5b604080518082018252601281527121103130b630b731b2a7b3103937baba32b960711b60208083019190915260015460085484516370a0823160e01b81526001600160a01b0391821660048201529451610ce69591909216926370a0823192602480840193829003018186803b15801561058357600080fd5b604080518481526020810184905281517f738b737502df4c5f230bbb98a45ea9c2821bad262e880f883357ad3695f8dae4929181900390910190a1505050565b6009546001600160a01b031690565b6007546001600160a01b031690565b600a546000906001600160a01b03163314610da6576040805162461bcd60e51b815260206004820152601d60248201527f5361766167653a204f6e6c79206f776e65722068617320616363657373000000604482015290519081900360640190fd5b610dd16040518060400160405280600a8152602001691b185d5b98da141bdbdb60b21b8152506117c3565b60048054600654600754604080516364e329cb60e11b81526001600160a01b039384169581019590955290821660248501525191169163c9c653969160448083019260209291908290030181600087803b158015610e2e57600080fd5b505af1158015610e42573d6000803e3d6000fd5b505050506040513d6020811015610e5857600080fd5b50506040805180820190915260128152712330b1ba37b93c9731b932b0ba32a830b4b960711b6020820152600654600754610ea092916001600160a01b039081169116611869565b600480546006546007546040805163e6a4390560e01b81526001600160a01b0393841695810195909552908216602485015251600093919092169163e6a4390591604480820192602092909190829003018186803b158015610f0157600080fd5b505afa158015610f15573d6000803e3d6000fd5b505050506040513d6020811015610f2b57600080fd5b505160408051808201909152600f81526e2330b1ba37b93c9733b2ba2830b4b960891b6020820152909150610f609082611931565b600654600754604080516001600160a01b0380861682529384166020820152919092168183015290517f7467344ef90ca12687994051e1ab13a23ebaa44d54b01258f196c4ff3a5e1f2d9181900360600190a1600154604080516370a0823160e01b815230600482015290516000926001600160a01b0316916370a08231916024808301926020929190829003018186803b158015610ffe57600080fd5b505afa158015611012573d6000803e3d6000fd5b505050506040513d602081101561102857600080fd5b5051600254604080516370a0823160e01b815230600482015290519293506000926001600160a01b03909216916370a0823191602480820192602092909190829003018186803b15801561107b57600080fd5b505afa15801561108f573d6000803e3d6000fd5b505050506040513d60208110156110a557600080fd5b50516003546006546007546040805162e8e33760e81b81526001600160a01b03938416600482015291831660248301526044820187905260648281018690526084830181905260a48301523360c4830152600f420160e48301819052905194955093919092169163e8e33700916101048083019260609291908290030181600087803b15801561113457600080fd5b505af1158015611148573d6000803e3d6000fd5b505050506040513d606081101561115e57600080fd5b5050604080518082019091526013815272526f757465722e6164644c697175696469747960681b602082015261119590848461124a565b600654600754604080516001600160a01b0393841681526020810187905291909216818301526060810184905290517f3a51bdd8f0ce248026483399fa98c498d12a66404c068ae7af4b729b40426daa9181900360800190a150919250505090565b6006546001600160a01b031690565b6040805160248082018490528251808303909101815260449091019091526020810180516001600160e01b03166327b7cf8560e01b179052611247906119e8565b50565b6113008383836040516024018080602001848152602001838152602001828103825285818151815260200191508051906020019080838360005b8381101561129c578181015183820152602001611284565b50505050905090810190601f1680156112c95780820380516001836020036101000a031916815260200191505b5060408051601f198184030181529190526020810180516001600160e01b031663969cdd0360e01b17905294506119e89350505050565b505050565b6113b382826040516024018080602001838152602001828103825284818151815260200191508051906020019080838360005b83811015611350578181015183820152602001611338565b50505050905090810190601f16801561137d5780820380516001836020036101000a031916815260200191505b5060408051601f198184030181529190526020810180516001600160e01b03166309710a9d60e41b17905293506119e892505050565b5050565b6113008383836040516024018080602001846001600160a01b03168152602001838152602001828103825285818151815260200191508051906020019080838360005b838110156114125781810151838201526020016113fa565b50505050905090810190601f16801561143f5780820380516001836020036101000a031916815260200191505b5060408051601f198184030181529190526020810180516001600160e01b03166307c8121760e01b17905294506119e89350505050565b604080516001600160a01b0385811660248301528481166044830152606480830185905283518084039091018152608490920183526020820180516001600160e01b03166323b872dd60e01b17815292518251600094606094938a169392918291908083835b602083106114fb5780518252601f1990920191602091820191016114dc565b6001836020036101000a0380198251168184511680821785525050505050509050019150506000604051808303816000865af19150503d806000811461155d576040519150601f19603f3d011682016040523d82523d6000602084013e611562565b606091505b5091509150818015611590575080511580611590575080806020019051602081101561158d57600080fd5b50515b6115cb5760405162461bcd60e51b8152600401808060200182810382526024815260200180613e9a6024913960400191505060405180910390fd5b505050505050565b604080516001600160a01b038481166024830152604480830185905283518084039091018152606490920183526020820180516001600160e01b031663095ea7b360e01b178152925182516000946060949389169392918291908083835b602083106116505780518252601f199092019160209182019101611631565b6001836020036101000a0380198251168184511680821785525050505050509050019150506000604051808303816000865af19150503d80600081146116b2576040519150601f19603f3d011682016040523d82523d6000602084013e6116b7565b606091505b50915091508180156116e55750805115806116e557508080602001905160208110156116e257600080fd5b50515b611736576040805162461bcd60e51b815260206004820152601e60248201527f5472616e7366657248656c7065723a20415050524f56455f4641494c45440000604482015290519081900360640190fd5b5050505050565b604080516002808252606080830184529283929190602083019080368337505060055482519293506001600160a01b03169183915060009061177b57fe5b6001600160a01b0392831660209182029290920101526006548251911690829060019081106117a657fe5b6001600160a01b0390921660209283029190910190910152905090565b611247816040516024018080602001828103825283818151815260200191508051906020019080838360005b838110156118075781810151838201526020016117ef565b50505050905090810190601f1680156118345780820380516001836020036101000a031916815260200191505b5060408051601f198184030181529190526020810180516001600160e01b031663104c13eb60e21b17905292506119e8915050565b6113008383836040516024018080602001846001600160a01b03168152602001836001600160a01b03168152602001828103825285818151815260200191508051906020019080838360005b838110156118cd5781810151838201526020016118b5565b50505050905090810190601f1680156118fa5780820380516001836020036101000a031916815260200191505b5060408051601f198184030181529190526020810180516001600160e01b03166307e763af60e51b17905294506119e89350505050565b6113b382826040516024018080602001836001600160a01b03168152602001828103825284818151815260200191508051906020019080838360005b8381101561198557818101518382015260200161196d565b50505050905090810190601f1680156119b25780820380516001836020036101000a031916815260200191505b5060408051601f198184030181529190526020810180516001600160e01b031663319af33360e01b17905293506119e892505050565b80516a636f6e736f6c652e6c6f67602083016000808483855afa5050505050565b61248380611a178339019056fe60806040526001600c5534801561001557600080fd5b50604080518082018252601081526f2d37b7a9bbb0b8102628102a37b5b2b760811b6020918201528151808301835260018152603160f81b9082015281517f8b73c3c69bb8fe3d512ecc4cf759cc79239f7b179b0ffacaa9a75d522b39400f818301527fb85323cc8716c5c71be0d8992b7ccdc2dac322ce3ea3c9a0056e146001fb9e67818401527fc89efdaa54c0f20c7adf612882df0950f5a951637e0307cdcb4c672f298b8bc660608201524660808201523060a0808301919091528351808303909101815260c09091019092528151910120600355600580546001600160a01b031916331790556123758061010e6000396000f3fe608060405234801561001057600080fd5b50600436106101a95760003560e01c80636a627842116100f9578063ba9a7a5611610097578063d21220a711610071578063d21220a714610534578063d505accf1461053c578063dd62ed3e1461058d578063fff6cae9146105bb576101a9565b8063ba9a7a56146104fe578063bc25cf7714610506578063c45a01551461052c576101a9565b80637ecebe00116100d35780637ecebe001461046557806389afcb441461048b57806395d89b41146104ca578063a9059cbb146104d2576101a9565b80636a6278421461041157806370a08231146104375780637464fc3d1461045d576101a9565b806323b872dd116101665780633644e515116101405780633644e515146103cb578063485cc955146103d35780635909c0d5146104015780635a3d549314610409576101a9565b806323b872dd1461036f57806330adf81f146103a5578063313ce567146103ad576101a9565b8063022c0d9f146101ae57806306fdde031461023c5780630902f1ac146102b9578063095ea7b3146102f15780630dfe16811461033157806318160ddd14610355575b600080fd5b61023a600480360360808110156101c457600080fd5b8135916020810135916001600160a01b0360408301351691908101906080810160608201356401000000008111156101fb57600080fd5b82018360208201111561020d57600080fd5b8035906020019184600183028401116401000000008311171561022f57600080fd5b5090925090506105c3565b005b610244610acb565b6040805160208082528351818301528351919283929083019185019080838360005b8381101561027e578181015183820152602001610266565b50505050905090810190601f1680156102ab5780820380516001836020036101000a031916815260200191505b509250505060405180910390f35b6102c1610af7565b604080516001600160701b03948516815292909316602083015263ffffffff168183015290519081900360600190f35b61031d6004803603604081101561030757600080fd5b506001600160a01b038135169060200135610b21565b604080519115158252519081900360200190f35b610339610b38565b604080516001600160a01b039092168252519081900360200190f35b61035d610b47565b60408051918252519081900360200190f35b61031d6004803603606081101561038557600080fd5b506001600160a01b03813581169160208101359091169060400135610b4d565b61035d610be1565b6103b5610c05565b6040805160ff9092168252519081900360200190f35b61035d610c0a565b61023a600480360360408110156103e957600080fd5b506001600160a01b0381358116916020013516610c10565b61035d610c94565b61035d610c9a565b61035d6004803603602081101561042757600080fd5b50356001600160a01b0316610ca0565b61035d6004803603602081101561044d57600080fd5b50356001600160a01b031661111c565b61035d61112e565b61035d6004803603602081101561047b57600080fd5b50356001600160a01b0316611134565b6104b1600480360360208110156104a157600080fd5b50356001600160a01b0316611146565b6040805192835260208301919091528051918290030190f35b6102446114da565b61031d600480360360408110156104e857600080fd5b506001600160a01b0381351690602001356114f9565b61035d611506565b61023a6004803603602081101561051c57600080fd5b50356001600160a01b031661150c565b61033961167e565b61033961168d565b61023a600480360360e081101561055257600080fd5b506001600160a01b03813581169160208101359091169060408101359060608101359060ff6080820135169060a08101359060c0013561169c565b61035d600480360360408110156105a357600080fd5b506001600160a01b038135811691602001351661189e565b61023a6118bb565b600c5460011461060e576040805162461bcd60e51b8152602060048201526011602482015270155b9a5cddd85c158c8e881313d0d2d151607a1b604482015290519081900360640190fd5b6000600c55841515806106215750600084115b61065c5760405162461bcd60e51b81526004018080602001828103825260258152602001806122866025913960400191505060405180910390fd5b600080610667610af7565b5091509150816001600160701b03168710801561068c5750806001600160701b031686105b6106c75760405162461bcd60e51b81526004018080602001828103825260218152602001806122cf6021913960400191505060405180910390fd5b60065460075460009182916001600160a01b039182169190811690891682148015906107055750806001600160a01b0316896001600160a01b031614155b61074e576040805162461bcd60e51b8152602060048201526015602482015274556e697377617056323a20494e56414c49445f544f60581b604482015290519081900360640190fd5b8a1561075f5761075f828a8d611a1d565b891561077057610770818a8c611a1d565b861561082257886001600160a01b03166310d1e85c338d8d8c8c6040518663ffffffff1660e01b815260040180866001600160a01b03168152602001858152602001848152602001806020018281038252848482818152602001925080828437600081840152601f19601f8201169050808301925050509650505050505050600060405180830381600087803b15801561080957600080fd5b505af115801561081d573d6000803e3d6000fd5b505050505b604080516370a0823160e01b815230600482015290516001600160a01b038416916370a08231916024808301926020929190829003018186803b15801561086857600080fd5b505afa15801561087c573d6000803e3d6000fd5b505050506040513d602081101561089257600080fd5b5051604080516370a0823160e01b815230600482015290519195506001600160a01b038316916370a0823191602480820192602092909190829003018186803b1580156108de57600080fd5b505afa1580156108f2573d6000803e3d6000fd5b505050506040513d602081101561090857600080fd5b5051925060009150506001600160701b0385168a9003831161092b57600061093a565b89856001600160701b03160383035b9050600089856001600160701b0316038311610957576000610966565b89856001600160701b03160383035b905060008211806109775750600081115b6109b25760405162461bcd60e51b81526004018080602001828103825260248152602001806122ab6024913960400191505060405180910390fd5b60006109d46109c2846003611bb7565b6109ce876103e8611bb7565b90611c1a565b905060006109e66109c2846003611bb7565b9050610a0b620f4240610a056001600160701b038b8116908b16611bb7565b90611bb7565b610a158383611bb7565b1015610a57576040805162461bcd60e51b815260206004820152600c60248201526b556e697377617056323a204b60a01b604482015290519081900360640190fd5b5050610a6584848888611c6a565b60408051838152602081018390528082018d9052606081018c905290516001600160a01b038b169133917fd78ad95fa46c994b6551d0da85fc275fe613ce37657fb8d5e3d130840159d8229181900360800190a350506001600c55505050505050505050565b6040518060400160405280601081526020016f2d37b7a9bbb0b8102628102a37b5b2b760811b81525081565b6008546001600160701b0380821692600160701b830490911691600160e01b900463ffffffff1690565b6000610b2e338484611e29565b5060015b92915050565b6006546001600160a01b031681565b60005481565b6001600160a01b038316600090815260026020908152604080832033845290915281205460001914610bcc576001600160a01b0384166000908152600260209081526040808320338452909152902054610ba79083611c1a565b6001600160a01b03851660009081526002602090815260408083203384529091529020555b610bd7848484611e8b565b5060019392505050565b7f6e71edae12b1b97f4d1f60370fef10105fa2faae0126114a169c64845d6126c981565b601281565b60035481565b6005546001600160a01b03163314610c66576040805162461bcd60e51b81526020600482015260146024820152732ab734b9bbb0b82b191d102327a92124a22222a760611b604482015290519081900360640190fd5b600680546001600160a01b039384166001600160a01b03199182161790915560078054929093169116179055565b60095481565b600a5481565b6000600c54600114610ced576040805162461bcd60e51b8152602060048201526011602482015270155b9a5cddd85c158c8e881313d0d2d151607a1b604482015290519081900360640190fd5b6000600c81905580610cfd610af7565b50600654604080516370a0823160e01b815230600482015290519395509193506000926001600160a01b03909116916370a08231916024808301926020929190829003018186803b158015610d5157600080fd5b505afa158015610d65573d6000803e3d6000fd5b505050506040513d6020811015610d7b57600080fd5b5051600754604080516370a0823160e01b815230600482015290519293506000926001600160a01b03909216916370a0823191602480820192602092909190829003018186803b158015610dce57600080fd5b505afa158015610de2573d6000803e3d6000fd5b505050506040513d6020811015610df857600080fd5b505190506000610e11836001600160701b038716611c1a565b90506000610e28836001600160701b038716611c1a565b90506000610e368787611f39565b6000549091508061100d5760055460408051637cd07e4760e01b815290516000926001600160a01b031691637cd07e47916004808301926020929190829003018186803b158015610e8657600080fd5b505afa158015610e9a573d6000803e3d6000fd5b505050506040513d6020811015610eb057600080fd5b50519050336001600160a01b0382161415610f8b57806001600160a01b03166340dc0e376040518163ffffffff1660e01b815260040160206040518083038186803b158015610efe57600080fd5b505afa158015610f12573d6000803e3d6000fd5b505050506040513d6020811015610f2857600080fd5b505199508915801590610f3d57506000198a14155b610f86576040805162461bcd60e51b81526020600482015260156024820152744261642064657369726564206c697175696469747960581b604482015290519081900360640190fd5b611007565b6001600160a01b03811615610fe0576040805162461bcd60e51b815260206004820152601660248201527526bab9ba103737ba103430bb329036b4b3b930ba37b960511b604482015290519081900360640190fd5b610ff86103e86109ce610ff38888611bb7565b612079565b995061100760006103e86120cb565b50611050565b61104d6001600160701b0389166110248684611bb7565b8161102b57fe5b046001600160701b0389166110408685611bb7565b8161104757fe5b04612155565b98505b6000891161108f5760405162461bcd60e51b81526004018080602001828103825260288152602001806123186028913960400191505060405180910390fd5b6110998a8a6120cb565b6110a586868a8a611c6a565b81156110cf576008546110cb906001600160701b0380821691600160701b900416611bb7565b600b555b6040805185815260208101859052815133927f4c209b5fc8ad50758f13e2e1088ba56a560dff690a1c6fef26394f4c03821c4f928290030190a250506001600c5550949695505050505050565b60016020526000908152604090205481565b600b5481565b60046020526000908152604090205481565b600080600c54600114611194576040805162461bcd60e51b8152602060048201526011602482015270155b9a5cddd85c158c8e881313d0d2d151607a1b604482015290519081900360640190fd5b6000600c819055806111a4610af7565b50600654600754604080516370a0823160e01b815230600482015290519496509294506001600160a01b039182169391169160009184916370a08231916024808301926020929190829003018186803b15801561120057600080fd5b505afa158015611214573d6000803e3d6000fd5b505050506040513d602081101561122a57600080fd5b5051604080516370a0823160e01b815230600482015290519192506000916001600160a01b038516916370a08231916024808301926020929190829003018186803b15801561127857600080fd5b505afa15801561128c573d6000803e3d6000fd5b505050506040513d60208110156112a257600080fd5b5051306000908152600160205260408120549192506112c18888611f39565b600054909150806112d28487611bb7565b816112d957fe5b049a50806112e78486611bb7565b816112ee57fe5b04995060008b118015611301575060008a115b61133c5760405162461bcd60e51b81526004018080602001828103825260288152602001806122f06028913960400191505060405180910390fd5b611346308461216d565b611351878d8d611a1d565b61135c868d8c611a1d565b604080516370a0823160e01b815230600482015290516001600160a01b038916916370a08231916024808301926020929190829003018186803b1580156113a257600080fd5b505afa1580156113b6573d6000803e3d6000fd5b505050506040513d60208110156113cc57600080fd5b5051604080516370a0823160e01b815230600482015290519196506001600160a01b038816916370a0823191602480820192602092909190829003018186803b15801561141857600080fd5b505afa15801561142c573d6000803e3d6000fd5b505050506040513d602081101561144257600080fd5b5051935061145285858b8b611c6a565b811561147c57600854611478906001600160701b0380821691600160701b900416611bb7565b600b555b604080518c8152602081018c905281516001600160a01b038f169233927fdccd412f0b1252819cb1fd330b93224ca42612892bb3f4f789976e6d81936496929081900390910190a35050505050505050506001600c81905550915091565b6040518060400160405280600381526020016205a4c560ec1b81525081565b6000610b2e338484611e8b565b6103e881565b600c54600114611557576040805162461bcd60e51b8152602060048201526011602482015270155b9a5cddd85c158c8e881313d0d2d151607a1b604482015290519081900360640190fd5b6000600c55600654600754600854604080516370a0823160e01b815230600482015290516001600160a01b03948516949093169261160092859287926115fb926001600160701b03169185916370a0823191602480820192602092909190829003018186803b1580156115c957600080fd5b505afa1580156115dd573d6000803e3d6000fd5b505050506040513d60208110156115f357600080fd5b505190611c1a565b611a1d565b61167481846115fb6008600e9054906101000a90046001600160701b03166001600160701b0316856001600160a01b03166370a08231306040518263ffffffff1660e01b815260040180826001600160a01b0316815260200191505060206040518083038186803b1580156115c957600080fd5b50506001600c5550565b6005546001600160a01b031681565b6007546001600160a01b031681565b428410156116e6576040805162461bcd60e51b8152602060048201526012602482015271155b9a5cddd85c158c8e881156141254915160721b604482015290519081900360640190fd5b6003546001600160a01b0380891660008181526004602090815260408083208054600180820190925582517f6e71edae12b1b97f4d1f60370fef10105fa2faae0126114a169c64845d6126c98186015280840196909652958d166060860152608085018c905260a085019590955260c08085018b90528151808603909101815260e08501825280519083012061190160f01b6101008601526101028501969096526101228085019690965280518085039096018652610142840180825286519683019690962095839052610162840180825286905260ff89166101828501526101a284018890526101c28401879052519193926101e280820193601f1981019281900390910190855afa158015611801573d6000803e3d6000fd5b5050604051601f1901519150506001600160a01b038116158015906118375750886001600160a01b0316816001600160a01b0316145b611888576040805162461bcd60e51b815260206004820152601c60248201527f556e697377617056323a20494e56414c49445f5349474e415455524500000000604482015290519081900360640190fd5b611893898989611e29565b505050505050505050565b600260209081526000928352604080842090915290825290205481565b600c54600114611906576040805162461bcd60e51b8152602060048201526011602482015270155b9a5cddd85c158c8e881313d0d2d151607a1b604482015290519081900360640190fd5b6000600c55600654604080516370a0823160e01b81523060048201529051611a16926001600160a01b0316916370a08231916024808301926020929190829003018186803b15801561195757600080fd5b505afa15801561196b573d6000803e3d6000fd5b505050506040513d602081101561198157600080fd5b5051600754604080516370a0823160e01b815230600482015290516001600160a01b03909216916370a0823191602480820192602092909190829003018186803b1580156119ce57600080fd5b505afa1580156119e2573d6000803e3d6000fd5b505050506040513d60208110156119f857600080fd5b50516008546001600160701b0380821691600160701b900416611c6a565b6001600c55565b604080518082018252601981527f7472616e7366657228616464726573732c75696e74323536290000000000000060209182015281516001600160a01b0385811660248301526044808301869052845180840390910181526064909201845291810180516001600160e01b031663a9059cbb60e01b1781529251815160009460609489169392918291908083835b60208310611aca5780518252601f199092019160209182019101611aab565b6001836020036101000a0380198251168184511680821785525050505050509050019150506000604051808303816000865af19150503d8060008114611b2c576040519150601f19603f3d011682016040523d82523d6000602084013e611b31565b606091505b5091509150818015611b5f575080511580611b5f5750808060200190516020811015611b5c57600080fd5b50515b611bb0576040805162461bcd60e51b815260206004820152601a60248201527f556e697377617056323a205452414e534645525f4641494c4544000000000000604482015290519081900360640190fd5b5050505050565b6000811580611bd257505080820282828281611bcf57fe5b04145b610b32576040805162461bcd60e51b815260206004820152601460248201527364732d6d6174682d6d756c2d6f766572666c6f7760601b604482015290519081900360640190fd5b80820382811115610b32576040805162461bcd60e51b815260206004820152601560248201527464732d6d6174682d7375622d756e646572666c6f7760581b604482015290519081900360640190fd5b6001600160701b038411801590611c8857506001600160701b038311155b611ccf576040805162461bcd60e51b8152602060048201526013602482015272556e697377617056323a204f564552464c4f5760681b604482015290519081900360640190fd5b60085463ffffffff42811691600160e01b90048116820390811615801590611cff57506001600160701b03841615155b8015611d1357506001600160701b03831615155b15611d7e578063ffffffff16611d3b85611d2c866121ff565b6001600160e01b031690612211565b600980546001600160e01b03929092169290920201905563ffffffff8116611d6684611d2c876121ff565b600a80546001600160e01b0392909216929092020190555b600880546dffffffffffffffffffffffffffff19166001600160701b03888116919091176dffffffffffffffffffffffffffff60701b1916600160701b8883168102919091176001600160e01b0316600160e01b63ffffffff871602179283905560408051848416815291909304909116602082015281517f1c411e9a96e071241c2f21f7726b17ae89e3cab4c78be50e062b03a9fffbbad1929181900390910190a1505050505050565b6001600160a01b03808416600081815260026020908152604080832094871680845294825291829020859055815185815291517f8c5be1e5ebec7d5bd14f71427d1e84f3dd0314c0f7b2291e5b200ac8c7c3b9259281900390910190a3505050565b6001600160a01b038316600090815260016020526040902054611eae9082611c1a565b6001600160a01b038085166000908152600160205260408082209390935590841681522054611edd9082612236565b6001600160a01b0380841660008181526001602090815260409182902094909455805185815290519193928716927fddf252ad1be2c89b69c2b068fc378daa952ba7f163c4a11628f55a4df523b3ef92918290030190a3505050565b600080600560009054906101000a90046001600160a01b03166001600160a01b031663017e7e586040518163ffffffff1660e01b815260040160206040518083038186803b158015611f8a57600080fd5b505afa158015611f9e573d6000803e3d6000fd5b505050506040513d6020811015611fb457600080fd5b5051600b546001600160a01b038216158015945091925090612065578015612060576000611ff1610ff36001600160701b03888116908816611bb7565b90506000611ffe83612079565b90508082111561205d5760006120206120178484611c1a565b60005490611bb7565b9050600061203983612033866005611bb7565b90612236565b9050600081838161204657fe5b04905080156120595761205987826120cb565b5050505b50505b612071565b8015612071576000600b555b505092915050565b600060038211156120bc575080600160028204015b818110156120b6578091506002818285816120a557fe5b0401816120ae57fe5b04905061208e565b506120c6565b81156120c6575060015b919050565b6000546120d89082612236565b60009081556001600160a01b0383168152600160205260409020546120fd9082612236565b6001600160a01b03831660008181526001602090815260408083209490945583518581529351929391927fddf252ad1be2c89b69c2b068fc378daa952ba7f163c4a11628f55a4df523b3ef9281900390910190a35050565b60008183106121645781612166565b825b9392505050565b6001600160a01b0382166000908152600160205260409020546121909082611c1a565b6001600160a01b038316600090815260016020526040812091909155546121b79082611c1a565b60009081556040805183815290516001600160a01b038516917fddf252ad1be2c89b69c2b068fc378daa952ba7f163c4a11628f55a4df523b3ef919081900360200190a35050565b6001600160701b0316600160701b0290565b60006001600160701b0382166001600160e01b0384168161222e57fe5b049392505050565b80820182811015610b32576040805162461bcd60e51b815260206004820152601460248201527364732d6d6174682d6164642d6f766572666c6f7760601b604482015290519081900360640190fdfe556e697377617056323a20494e53554646494349454e545f4f55545055545f414d4f554e54556e697377617056323a20494e53554646494349454e545f494e5055545f414d4f554e54556e697377617056323a20494e53554646494349454e545f4c4951554944495459556e697377617056323a20494e53554646494349454e545f4c49515549444954595f4255524e4544556e697377617056323a20494e53554646494349454e545f4c49515549444954595f4d494e544544a264697066735822122042b9fe8a8891b97005c0458f3259392b6cab2e63bffc7a9e4da958a36bda2a4b64736f6c634300060c00335472616e7366657248656c7065723a205452414e534645525f46524f4d5f4641494c4544a2646970667358221220e9d561241b17f15e1bdd82c7b8b69d1911eac0cc7d96bf4e22ee77000ca134e164736f6c634300060c0033",
  "libraries": {
    "SafeMath": "0x0d807bb85dAb5D2131017954bc1302aa5276663B",
    "TransferHelper": "0x901919cF89646C54D303C861F75DcB38fA396bca"
  },
  "devdoc": {
    "kind": "dev",
    "methods": {},
    "version": 1
  },
  "userdoc": {
    "kind": "user",
    "methods": {},
    "version": 1
  },
  "storageLayout": {
    "storage": [
      {
        "astId": 22,
        "contract": "src/Savage.sol:Savage",
        "label": "A",
        "offset": 0,
        "slot": "0",
        "type": "t_contract(IERC20)12560"
      },
      {
        "astId": 24,
        "contract": "src/Savage.sol:Savage",
        "label": "B",
        "offset": 0,
        "slot": "1",
        "type": "t_contract(IERC20)12560"
      },
      {
        "astId": 26,
        "contract": "src/Savage.sol:Savage",
        "label": "C",
        "offset": 0,
        "slot": "2",
        "type": "t_contract(IERC20)12560"
      },
      {
        "astId": 28,
        "contract": "src/Savage.sol:Savage",
        "label": "Router",
        "offset": 0,
        "slot": "3",
        "type": "t_contract(IUniswapV2Router01)13197"
      },
      {
        "astId": 30,
        "contract": "src/Savage.sol:Savage",
        "label": "Factory",
        "offset": 0,
        "slot": "4",
        "type": "t_contract(IUniswapV2Factory)12647"
      },
      {
        "astId": 32,
        "contract": "src/Savage.sol:Savage",
        "label": "a",
        "offset": 0,
        "slot": "5",
        "type": "t_address"
      },
      {
        "astId": 34,
        "contract": "src/Savage.sol:Savage",
        "label": "b",
        "offset": 0,
        "slot": "6",
        "type": "t_address"
      },
      {
        "astId": 36,
        "contract": "src/Savage.sol:Savage",
        "label": "c",
        "offset": 0,
        "slot": "7",
        "type": "t_address"
      },
      {
        "astId": 38,
        "contract": "src/Savage.sol:Savage",
        "label": "router",
        "offset": 0,
        "slot": "8",
        "type": "t_address"
      },
      {
        "astId": 40,
        "contract": "src/Savage.sol:Savage",
        "label": "factory",
        "offset": 0,
        "slot": "9",
        "type": "t_address"
      },
      {
        "astId": 42,
        "contract": "src/Savage.sol:Savage",
        "label": "owner",
        "offset": 0,
        "slot": "10",
        "type": "t_address"
      }
    ],
    "types": {
      "t_address": {
        "encoding": "inplace",
        "label": "address",
        "numberOfBytes": "20"
      },
      "t_contract(IERC20)12560": {
        "encoding": "inplace",
        "label": "contract IERC20",
        "numberOfBytes": "20"
      },
      "t_contract(IUniswapV2Factory)12647": {
        "encoding": "inplace",
        "label": "contract IUniswapV2Factory",
        "numberOfBytes": "20"
      },
      "t_contract(IUniswapV2Router01)13197": {
        "encoding": "inplace",
        "label": "contract IUniswapV2Router01",
        "numberOfBytes": "20"
      }
    }
  }
}