{
  "address": "0xaEff3DE5519DF0e7A7b805b8125F911DE0c897Fe",
  "abi": [
    {
      "anonymous": false,
      "inputs": [
        {
          "indexed": true,
          "internalType": "uint256",
          "name": "auctionID",
          "type": "uint256"
        },
        {
          "indexed": true,
          "internalType": "uint256",
          "name": "tokenID",
          "type": "uint256"
        },
        {
          "indexed": true,
          "internalType": "address",
          "name": "tokenContract",
          "type": "address"
        },
        {
          "indexed": false,
          "internalType": "bool",
          "name": "approved",
          "type": "bool"
        }
      ],
      "name": "AuctionApprovalUpdated",
      "type": "event"
    },
    {
      "anonymous": false,
      "inputs": [
        {
          "indexed": true,
          "internalType": "uint256",
          "name": "auctionID",
          "type": "uint256"
        },
        {
          "indexed": true,
          "internalType": "uint256",
          "name": "tokenID",
          "type": "uint256"
        },
        {
          "indexed": true,
          "internalType": "address",
          "name": "tokenContract",
          "type": "address"
        },
        {
          "indexed": false,
          "internalType": "address",
          "name": "sender",
          "type": "address"
        },
        {
          "indexed": false,
          "internalType": "uint256",
          "name": "value",
          "type": "uint256"
        },
        {
          "indexed": false,
          "internalType": "bool",
          "name": "firstBid",
          "type": "bool"
        },
        {
          "indexed": false,
          "internalType": "bool",
          "name": "extended",
          "type": "bool"
        }
      ],
      "name": "AuctionBid",
      "type": "event"
    },
    {
      "anonymous": false,
      "inputs": [
        {
          "indexed": true,
          "internalType": "uint256",
          "name": "auctionID",
          "type": "uint256"
        },
        {
          "indexed": true,
          "internalType": "uint256",
          "name": "tokenID",
          "type": "uint256"
        },
        {
          "indexed": true,
          "internalType": "address",
          "name": "tokenContract",
          "type": "address"
        },
        {
          "indexed": false,
          "internalType": "address",
          "name": "tokenOwner",
          "type": "address"
        }
      ],
      "name": "AuctionCanceled",
      "type": "event"
    },
    {
      "anonymous": false,
      "inputs": [
        {
          "indexed": true,
          "internalType": "uint256",
          "name": "auctionID",
          "type": "uint256"
        },
        {
          "indexed": true,
          "internalType": "uint256",
          "name": "tokenID",
          "type": "uint256"
        },
        {
          "indexed": true,
          "internalType": "address",
          "name": "tokenContract",
          "type": "address"
        },
        {
          "indexed": false,
          "internalType": "uint256",
          "name": "duration",
          "type": "uint256"
        },
        {
          "indexed": false,
          "internalType": "uint256",
          "name": "reservePrice",
          "type": "uint256"
        },
        {
          "indexed": false,
          "internalType": "address",
          "name": "tokenOwner",
          "type": "address"
        },
        {
          "indexed": false,
          "internalType": "address",
          "name": "curator",
          "type": "address"
        },
        {
          "indexed": false,
          "internalType": "uint8",
          "name": "curatorFeePercentage",
          "type": "uint8"
        },
        {
          "indexed": false,
          "internalType": "address",
          "name": "auctionCurrency",
          "type": "address"
        }
      ],
      "name": "AuctionCreated",
      "type": "event"
    },
    {
      "anonymous": false,
      "inputs": [
        {
          "indexed": true,
          "internalType": "uint256",
          "name": "auctionID",
          "type": "uint256"
        },
        {
          "indexed": true,
          "internalType": "uint256",
          "name": "tokenID",
          "type": "uint256"
        },
        {
          "indexed": true,
          "internalType": "address",
          "name": "tokenContract",
          "type": "address"
        },
        {
          "indexed": false,
          "internalType": "uint256",
          "name": "duration",
          "type": "uint256"
        }
      ],
      "name": "AuctionDurationExtended",
      "type": "event"
    },
    {
      "anonymous": false,
      "inputs": [
        {
          "indexed": true,
          "internalType": "uint256",
          "name": "auctionID",
          "type": "uint256"
        },
        {
          "indexed": true,
          "internalType": "uint256",
          "name": "tokenID",
          "type": "uint256"
        },
        {
          "indexed": true,
          "internalType": "address",
          "name": "tokenContract",
          "type": "address"
        },
        {
          "indexed": false,
          "internalType": "address",
          "name": "tokenOwner",
          "type": "address"
        },
        {
          "indexed": false,
          "internalType": "address",
          "name": "curator",
          "type": "address"
        },
        {
          "indexed": false,
          "internalType": "address",
          "name": "winner",
          "type": "address"
        },
        {
          "indexed": false,
          "internalType": "uint256",
          "name": "amount",
          "type": "uint256"
        },
        {
          "indexed": false,
          "internalType": "uint256",
          "name": "curatorFee",
          "type": "uint256"
        },
        {
          "indexed": false,
          "internalType": "address",
          "name": "auctionCurrency",
          "type": "address"
        }
      ],
      "name": "AuctionEnded",
      "type": "event"
    },
    {
      "anonymous": false,
      "inputs": [
        {
          "indexed": true,
          "internalType": "uint256",
          "name": "auctionID",
          "type": "uint256"
        },
        {
          "indexed": true,
          "internalType": "uint256",
          "name": "tokenID",
          "type": "uint256"
        },
        {
          "indexed": true,
          "internalType": "address",
          "name": "tokenContract",
          "type": "address"
        },
        {
          "indexed": false,
          "internalType": "uint256",
          "name": "reservePrice",
          "type": "uint256"
        }
      ],
      "name": "AuctionReservePriceUpdated",
      "type": "event"
    },
    {
      "anonymous": false,
      "inputs": [
        {
          "indexed": true,
          "internalType": "address",
          "name": "previousOwner",
          "type": "address"
        },
        {
          "indexed": true,
          "internalType": "address",
          "name": "newOwner",
          "type": "address"
        }
      ],
      "name": "OwnershipTransferred",
      "type": "event"
    },
    {
      "stateMutability": "payable",
      "type": "fallback"
    },
    {
      "inputs": [
        {
          "internalType": "uint256",
          "name": "",
          "type": "uint256"
        }
      ],
      "name": "auctions",
      "outputs": [
        {
          "internalType": "uint256",
          "name": "tokenID",
          "type": "uint256"
        },
        {
          "internalType": "address",
          "name": "tokenContract",
          "type": "address"
        },
        {
          "internalType": "bool",
          "name": "approved",
          "type": "bool"
        },
        {
          "internalType": "uint256",
          "name": "amount",
          "type": "uint256"
        },
        {
          "internalType": "uint256",
          "name": "duration",
          "type": "uint256"
        },
        {
          "internalType": "uint256",
          "name": "firstBidTime",
          "type": "uint256"
        },
        {
          "internalType": "uint256",
          "name": "reservePrice",
          "type": "uint256"
        },
        {
          "internalType": "uint8",
          "name": "curatorFeePercentage",
          "type": "uint8"
        },
        {
          "internalType": "address",
          "name": "tokenOwner",
          "type": "address"
        },
        {
          "internalType": "address payable",
          "name": "bidder",
          "type": "address"
        },
        {
          "internalType": "address payable",
          "name": "curator",
          "type": "address"
        },
        {
          "internalType": "address",
          "name": "auctionCurrency",
          "type": "address"
        }
      ],
      "stateMutability": "view",
      "type": "function"
    },
    {
      "inputs": [
        {
          "internalType": "uint256",
          "name": "auctionID",
          "type": "uint256"
        }
      ],
      "name": "cancelAuction",
      "outputs": [],
      "stateMutability": "nonpayable",
      "type": "function"
    },
    {
      "inputs": [
        {
          "internalType": "address",
          "name": "_mediaAddress",
          "type": "address"
        },
        {
          "internalType": "address",
          "name": "_tokenAddress",
          "type": "address"
        }
      ],
      "name": "configure",
      "outputs": [],
      "stateMutability": "nonpayable",
      "type": "function"
    },
    {
      "inputs": [
        {
          "internalType": "uint256",
          "name": "tokenID",
          "type": "uint256"
        },
        {
          "internalType": "address",
          "name": "tokenContract",
          "type": "address"
        },
        {
          "internalType": "uint256",
          "name": "duration",
          "type": "uint256"
        },
        {
          "internalType": "uint256",
          "name": "reservePrice",
          "type": "uint256"
        },
        {
          "internalType": "address payable",
          "name": "curator",
          "type": "address"
        },
        {
          "internalType": "uint8",
          "name": "curatorFeePercentage",
          "type": "uint8"
        },
        {
          "internalType": "address",
          "name": "auctionCurrency",
          "type": "address"
        }
      ],
      "name": "createAuction",
      "outputs": [
        {
          "internalType": "uint256",
          "name": "",
          "type": "uint256"
        }
      ],
      "stateMutability": "nonpayable",
      "type": "function"
    },
    {
      "inputs": [
        {
          "internalType": "uint256",
          "name": "auctionID",
          "type": "uint256"
        },
        {
          "internalType": "uint256",
          "name": "amount",
          "type": "uint256"
        }
      ],
      "name": "createBid",
      "outputs": [],
      "stateMutability": "payable",
      "type": "function"
    },
    {
      "inputs": [
        {
          "internalType": "uint256",
          "name": "auctionID",
          "type": "uint256"
        }
      ],
      "name": "endAuction",
      "outputs": [],
      "stateMutability": "nonpayable",
      "type": "function"
    },
    {
      "inputs": [],
      "name": "mediaAddress",
      "outputs": [
        {
          "internalType": "address",
          "name": "",
          "type": "address"
        }
      ],
      "stateMutability": "view",
      "type": "function"
    },
    {
      "inputs": [],
      "name": "minBidIncrementPercentage",
      "outputs": [
        {
          "internalType": "uint8",
          "name": "",
          "type": "uint8"
        }
      ],
      "stateMutability": "view",
      "type": "function"
    },
    {
      "inputs": [],
      "name": "owner",
      "outputs": [
        {
          "internalType": "address",
          "name": "",
          "type": "address"
        }
      ],
      "stateMutability": "view",
      "type": "function"
    },
    {
      "inputs": [],
      "name": "renounceOwnership",
      "outputs": [],
      "stateMutability": "nonpayable",
      "type": "function"
    },
    {
      "inputs": [
        {
          "internalType": "uint256",
          "name": "auctionID",
          "type": "uint256"
        },
        {
          "internalType": "bool",
          "name": "approved",
          "type": "bool"
        }
      ],
      "name": "setAuctionApproval",
      "outputs": [],
      "stateMutability": "nonpayable",
      "type": "function"
    },
    {
      "inputs": [
        {
          "internalType": "uint256",
          "name": "auctionID",
          "type": "uint256"
        },
        {
          "internalType": "uint256",
          "name": "reservePrice",
          "type": "uint256"
        }
      ],
      "name": "setAuctionReservePrice",
      "outputs": [],
      "stateMutability": "nonpayable",
      "type": "function"
    },
    {
      "inputs": [],
      "name": "timeBuffer",
      "outputs": [
        {
          "internalType": "uint256",
          "name": "",
          "type": "uint256"
        }
      ],
      "stateMutability": "view",
      "type": "function"
    },
    {
      "inputs": [],
      "name": "tokenAddress",
      "outputs": [
        {
          "internalType": "address",
          "name": "",
          "type": "address"
        }
      ],
      "stateMutability": "view",
      "type": "function"
    },
    {
      "inputs": [
        {
          "internalType": "address",
          "name": "newOwner",
          "type": "address"
        }
      ],
      "name": "transferOwnership",
      "outputs": [],
      "stateMutability": "nonpayable",
      "type": "function"
    },
    {
      "stateMutability": "payable",
      "type": "receive"
    }
  ],
  "transactionHash": "0xd0da7d5c2f9054f495f330f83940545e0dd66b6ec9911e7116c077776cf6ee76",
  "args": [],
  "solcInputHash": "96ed39cd36be3a398a7b4c1cf440a2d9",
  "bytecode": "0x608060405234801561001057600080fd5b50600160005561001f33610024565b610076565b600180546001600160a01b038381166001600160a01b0319831681179093556040519116919082907f8be0079c531659141344cd1fd0a4f28419497f9722a3daafe3b4186f6b6457e090600090a35050565b6128fe806100856000396000f3fe6080604052600436106100b95760003560e01c806309d38033146100c2578063571a26a0146100fd5780636f8a41e114610200578063715018a61461022057806375e9249f146102355780638da5cb5b1461026357806396b5a75514610278578063973ddb4a146102985780639d76ea58146102b8578063b296024d146102d8578063b7751c7114610304578063b9a2de3a14610317578063e470d5cf14610337578063ec91f2a414610357578063f2fde38b1461036d57005b366100c057005b005b3480156100ce57600080fd5b506003546100e79061010090046001600160a01b031681565b6040516100f4919061263e565b60405180910390f35b34801561010957600080fd5b5061018f61011836600461252e565b6005602081905260009182526040909120805460018201546002830154600384015460048501549585015460068601546007870154600888015460099098015496986001600160a01b038088169960ff600160a01b909904891699979896979296851694610100900482169382169290821691168c565b604080519c8d526001600160a01b039b8c1660208e0152991515998c019990995260608b019790975260808a019590955260a089019390935260c088019190915260ff1660e087015284166101008601528316610120850152821661014084015216610160820152610180016100f4565b34801561020c57600080fd5b506100c061021b366004612601565b61038d565b34801561022c57600080fd5b506100c06104ef565b34801561024157600080fd5b5061025561025036600461255e565b61052a565b6040519081526020016100f4565b34801561026f57600080fd5b506100e7610b57565b34801561028457600080fd5b506100c061029336600461252e565b610b66565b3480156102a457600080fd5b506100c06102b33660046125dd565b610ce0565b3480156102c457600080fd5b506004546100e7906001600160a01b031681565b3480156102e457600080fd5b506003546102f29060ff1681565b60405160ff90911681526020016100f4565b6100c0610312366004612601565b610da7565b34801561032357600080fd5b506100c061033236600461252e565b6113b5565b34801561034357600080fd5b506100c06103523660046124da565b6117fa565b34801561036357600080fd5b5061025560025481565b34801561037957600080fd5b506100c06103883660046124a2565b611946565b81610397816119e6565b6103bc5760405162461bcd60e51b81526004016103b39061270c565b60405180910390fd5b6000838152600560205260409020600801546001600160a01b0316331480610402575060008381526005602052604090206006015461010090046001600160a01b031633145b61045d5760405162461bcd60e51b815260206004820152602660248201527f4d7573742062652061756374696f6e2063757261746f72206f7220746f6b656e6044820152651037bbb732b960d11b60648201526084016103b3565b6000838152600560205260409020600401541561048c5760405162461bcd60e51b81526004016103b3906126d7565b6000838152600560208181526040928390209182018590556001820154915492518581526001600160a01b03909216929186917f01e6a465ec1edd582d333147c7b7edf5998164f2cf2269dcb9c93d46c67bd317910160405180910390a4505050565b336104f8610b57565b6001600160a01b03161461051e5760405162461bcd60e51b81526004016103b39061273b565b6105286000611a0b565b565b60006002600054141561054f5760405162461bcd60e51b81526004016103b390612770565b60026000556040516301ffc9a760e01b81526001600160a01b038816906301ffc9a790610587906380ac58cd60e01b9060040161268f565b60206040518083038186803b15801561059f57600080fd5b505afa1580156105b3573d6000803e3d6000fd5b505050506040513d601f19601f820116820180604052508101906105d79190612512565b61063b5760405162461bcd60e51b815260206004820152602f60248201527f746f6b656e436f6e747261637420646f6573206e6f7420737570706f7274204560448201526e524337323120696e7465726661636560881b60648201526084016103b3565b60648360ff16106106a15760405162461bcd60e51b815260206004820152602a60248201527f63757261746f7246656550657263656e74616765206d757374206265206c6573604482015269073207468616e203130360b41b60648201526084016103b3565b6040516331a9108f60e11b8152600481018990526000906001600160a01b03891690636352211e9060240160206040518083038186803b1580156106e457600080fd5b505afa1580156106f8573d6000803e3d6000fd5b505050506040513d601f19601f8201168201806040525081019061071c91906124be565b60405163020604bf60e21b8152600481018b90529091506001600160a01b0389169063081812fc9060240160206040518083038186803b15801561075f57600080fd5b505afa158015610773573d6000803e3d6000fd5b505050506040513d601f19601f8201168201806040525081019061079791906124be565b6001600160a01b0316336001600160a01b031614806107be5750336001600160a01b038216145b6108205760405162461bcd60e51b815260206004820152602d60248201527f43616c6c6572206d75737420626520617070726f766564206f72206f776e657260448201526c08199bdc881d1bdad95b881a59609a1b60648201526084016103b3565b600061082b60065490565b90506040518061018001604052808b81526020018a6001600160a01b0316815260200160001515815260200160008152602001898152602001600081526020018881526020018660ff168152602001836001600160a01b0316815260200160006001600160a01b03168152602001876001600160a01b03168152602001856001600160a01b0316815250600560008381526020019081526020016000206000820151816000015560208201518160010160006101000a8154816001600160a01b0302191690836001600160a01b0316021790555060408201518160010160146101000a81548160ff021916908315150217905550606082015181600201556080820151816003015560a0820151816004015560c0820151816005015560e08201518160060160006101000a81548160ff021916908360ff1602179055506101008201518160060160016101000a8154816001600160a01b0302191690836001600160a01b031602179055506101208201518160070160006101000a8154816001600160a01b0302191690836001600160a01b031602179055506101408201518160080160006101000a8154816001600160a01b0302191690836001600160a01b031602179055506101608201518160090160006101000a8154816001600160a01b0302191690836001600160a01b03160217905550905050886001600160a01b03166323b872dd83308d6040518463ffffffff1660e01b8152600401610a5393929190612652565b600060405180830381600087803b158015610a6d57600080fd5b505af1158015610a81573d6000803e3d6000fd5b50505050610a93600680546001019055565b60408051898152602081018990526001600160a01b0384811682840152888116606083015260ff8816608083015286811660a08301529151918b16918c9184917f38c0b9047bd28fac9f420b967f6caf4a6260ba09d18940a9a502578a480c09009181900360c00190a46000818152600560205260409020600801546001600160a01b03161580610b355750816001600160a01b0316866001600160a01b0316145b15610b4557610b45816001611a5d565b60016000559998505050505050505050565b6001546001600160a01b031690565b60026000541415610b895760405162461bcd60e51b81526004016103b390612770565b600260005580610b98816119e6565b610bb45760405162461bcd60e51b81526004016103b39061270c565b60008281526005602052604090206006015461010090046001600160a01b0316331480610bfa57506000828152600560205260409020600801546001600160a01b031633145b610c5f5760405162461bcd60e51b815260206004820152603060248201527f43616e206f6e6c792062652063616c6c65642062792061756374696f6e20637260448201526f32b0ba37b91037b91031bab930ba37b960811b60648201526084016103b3565b60008281526005602052604090206004015415610cce5760405162461bcd60e51b815260206004820152602760248201527f43616e27742063616e63656c20616e2061756374696f6e206f6e63652069742760448201526639903132b3bab760c91b60648201526084016103b3565b610cd782611ade565b50506001600055565b81610cea816119e6565b610d065760405162461bcd60e51b81526004016103b39061270c565b6000838152600560205260409020600801546001600160a01b03163314610d695760405162461bcd60e51b815260206004820152601760248201527626bab9ba1031329030bab1ba34b7b71031bab930ba37b960491b60448201526064016103b3565b60008381526005602052604090206004015415610d985760405162461bcd60e51b81526004016103b3906126d7565b610da28383611a5d565b505050565b81610db1816119e6565b610dcd5760405162461bcd60e51b81526004016103b39061270c565b60026000541415610df05760405162461bcd60e51b81526004016103b390612770565b6002600090815583815260056020526040902060078101546001909101546001600160a01b0390911690600160a01b900460ff16610e7c5760405162461bcd60e51b815260206004820152602360248201527f41756374696f6e206d75737420626520617070726f76656420627920637572616044820152623a37b960e91b60648201526084016103b3565b6000848152600560205260409020600401541580610eba575060008481526005602052604090206003810154600490910154610eb791611c3d565b42105b610ef85760405162461bcd60e51b815260206004820152600f60248201526e105d58dd1a5bdb88195e1c1a5c9959608a1b60448201526064016103b3565b60008481526005602081905260409091200154831015610f5a5760405162461bcd60e51b815260206004820152601f60248201527f4d7573742073656e64206174206c65617374207265736572766550726963650060448201526064016103b3565b600354600085815260056020526040902060020154610fa591610f8d91606491610f87919060ff16611c50565b90611c5c565b60008681526005602052604090206002015490611c3d565b83101561101c576040805162461bcd60e51b81526020600482015260248101919091527f4d7573742073656e64206d6f7265207468616e206c617374206269642062792060448201527f6d696e426964496e6372656d656e7450657263656e7461676520616d6f756e7460648201526084016103b3565b6004546000858152600560205260409020600101546001600160a01b03908116911614156111a357600480546040805163a1794bcd60e01b815290516001600160a01b039092169263a1794bcd9282820192602092908290030181600087803b15801561108857600080fd5b505af115801561109c573d6000803e3d6000fd5b505050506040513d601f19601f820116820180604052508101906110c091906124be565b600085815260056020526040908190205490516302e8fe1360e01b81526001600160a01b0392909216916302e8fe1391611107918790600401918252602082015260400190565b60206040518083038186803b15801561111f57600080fd5b505afa158015611133573d6000803e3d6000fd5b505050506040513d601f19601f820116820180604052508101906111579190612512565b6111a35760405162461bcd60e51b815260206004820152601f60248201527f42696420696e76616c696420666f722073686172652073706c697474696e670060448201526064016103b3565b6000848152600560205260409020600401546111d35760008481526005602052604090204260049091015561120f565b6001600160a01b0381161561120f576000848152600560205260409020600281015460099091015461120f9183916001600160a01b0316611c68565b6004546112269084906001600160a01b0316611c7c565b600084815260056020526040812060028082018690556007820180546001600160a01b03191633179055546003820154600490920154909161127491429161126e9190611c3d565b90611e11565b10156112d357600085815260056020526040902060038101546004909101546112bb906112b4906112ab90429061126e9086611c3d565b60025490611e11565b8290611c3d565b60008781526005602052604090206003015550600190505b6000858152600560209081526040918290206001810154905483513381529283018890526001600160a01b03868116159484019490945284151560608401529216919087907fda6b779568630ce5e5658b317174df474d5b335541ed9471bd8424a017f3be6d9060800160405180910390a480156113a9576000858152600560209081526040918290206001810154815460039092015493519384526001600160a01b031692909188917f55cf2b31608fbe49fa31cd0285b6b6cce46f56d26c8c59980a2af5a0ffbdd5db910160405180910390a45b50506001600055505050565b806113bf816119e6565b6113db5760405162461bcd60e51b81526004016103b39061270c565b600260005414156113fe5760405162461bcd60e51b81526004016103b390612770565b60026000908155828152600560205260409020600401546114585760405162461bcd60e51b815260206004820152601460248201527320bab1ba34b7b7103430b9b713ba103132b3bab760611b60448201526064016103b3565b6000828152600560205260409020600381015460049091015461147a91611c3d565b4210156114c45760405162461bcd60e51b8152602060048201526018602482015277105d58dd1a5bdb881a185cdb89dd0818dbdb5c1b195d195960421b60448201526064016103b3565b600454600083815260056020526040812060028101546001909101546001600160a01b0393841693168314156115615760008061150087611e1d565b9350915082905060018215151461155a57600087815260056020526040902060078101546002820154600990920154611547926001600160a01b0392831692909116611c68565b61155087611ade565b5050505050610cd7565b5050611623565b600085815260056020526040908190206001810154600782015491549251632142170760e11b81526001600160a01b03918216936342842e0e936115ad93309391169190600401612652565b600060405180830381600087803b1580156115c757600080fd5b505af19250505080156115d8575060015b61162357600085815260056020526040902060078101546002820154600990920154611612926001600160a01b0392831692909116611c68565b61161b85611ade565b505050610cd7565b6000858152600560205260409020600801546001600160a01b0316156116aa5760008581526005602052604090206006015461166a90606490610f8790849060ff16611c50565b91506116768183611e11565b600086815260056020526040902060088101546009909101549192506116aa916001600160a01b0391821691859116611c68565b600085815260056020526040902060068101546009909101546116e0916001600160a01b03610100909104811691849116611c68565b600085815260056020908152604091829020600181015481546006830154600884015460079094015486516001600160a01b03610100909304831681529482169585019590955293841683860152606083018690526080830187905287841660a084015293519216929188917f4f35fb3ea0081b3ccbe8df613cab0f9e1694d50a025e0aa09b88a86a3d07c2de919081900360c00190a45050506000918252506005602081905260408220828155600180820180546001600160a81b03199081169091556002830185905560038301859055600483018590559282018490556006820180549093169092556007810180546001600160a01b0319908116909155600882018054821690556009909101805490911690559055565b33611803610b57565b6001600160a01b0316146118295760405162461bcd60e51b81526004016103b39061273b565b6040516301ffc9a760e01b81526001600160a01b038316906301ffc9a79061185c906380ac58cd60e01b9060040161268f565b60206040518083038186803b15801561187457600080fd5b505afa158015611888573d6000803e3d6000fd5b505050506040513d601f19601f820116820180604052508101906118ac9190612512565b6118f85760405162461bcd60e51b815260206004820152601d60248201527f446f65736e277420737570706f7274204e465420696e7465726661636500000060448201526064016103b3565b60038054600480546001600160a01b039485166001600160a01b031990911617905561038460025560ff199290931661010002919091166001600160a81b0319909216919091176005179055565b3361194f610b57565b6001600160a01b0316146119755760405162461bcd60e51b81526004016103b39061273b565b6001600160a01b0381166119da5760405162461bcd60e51b815260206004820152602660248201527f4f776e61626c653a206e6577206f776e657220697320746865207a65726f206160448201526564647265737360d01b60648201526084016103b3565b6119e381611a0b565b50565b60009081526005602052604090206006015461010090046001600160a01b0316151590565b600180546001600160a01b038381166001600160a01b0319831681179093556040519116919082907f8be0079c531659141344cd1fd0a4f28419497f9722a3daafe3b4186f6b6457e090600090a35050565b60008281526005602052604090819020600181018054841515600160a01b0260ff60a01b1982168117909255915492516001600160a01b039182169190921617919084907fec35d321ab4972475f131e184c0c0fe52c5a58a29d74f7db2969af2f6dd93a1f90611ad290861515815260200190565b60405180910390a45050565b600081815260056020526040908190206006810154600182015491549251632142170760e11b81526101009091046001600160a01b03908116939216916342842e0e91611b32913091869190600401612652565b600060405180830381600087803b158015611b4c57600080fd5b505af1158015611b60573d6000803e3d6000fd5b505050600083815260056020526040908190206001810154905491516001600160a01b03909116925084907f6091afcbe8514686c43b167ca4f1b03e24446d29d8490d496e438f8a2c76343990611bb890869061263e565b60405180910390a450600090815260056020819052604082208281556001810180546001600160a81b03199081169091556002820184905560038201849055600482018490559181019290925560068201805490911690556007810180546001600160a01b031990811690915560088201805482169055600990910180549091169055565b6000611c4982846127f5565b9392505050565b6000611c49828461282d565b6000611c49828461280d565b610da26001600160a01b03821684846121db565b6040516370a0823160e01b815281906000906001600160a01b038316906370a0823190611cad90309060040161263e565b60206040518083038186803b158015611cc557600080fd5b505afa158015611cd9573d6000803e3d6000fd5b505050506040513d601f19601f82011682018060405250810190611cfd9190612546565b9050611d146001600160a01b038316333087612231565b6040516370a0823160e01b81526000906001600160a01b038416906370a0823190611d4390309060040161263e565b60206040518083038186803b158015611d5b57600080fd5b505afa158015611d6f573d6000803e3d6000fd5b505050506040513d601f19601f82011682018060405250810190611d939190612546565b905080611da08387611c3d565b14611e0a5760405162461bcd60e51b815260206004820152603460248201527f546f6b656e207472616e736665722063616c6c20646964206e6f74207472616e6044820152731cd9995c88195e1c1958dd195908185b5bdd5b9d60621b60648201526084016103b3565b5050505050565b6000611c49828461284c565b600480546040805160a081018252600085815260056020818152848320600281015485526001600160a01b039687168286018190523086880152898552928252600701549095166060840152835180860185528281526080840152835163a1794bcd60e01b81529351919586959194859363095ea7b393859363a1794bcd9380820193919082900301818b87803b158015611eb757600080fd5b505af1158015611ecb573d6000803e3d6000fd5b505050506040513d601f19601f82011682018060405250810190611eef91906124be565b83516040516001600160e01b031960e085901b168152611f13929190600401612676565b602060405180830381600087803b158015611f2d57600080fd5b505af1158015611f41573d6000803e3d6000fd5b505050506040513d601f19601f82011682018060405250810190611f659190612512565b506004805460008781526005602052604090819020549051632dfb121160e11b81526001600160a01b0390921692635bf6242292611fa692918691016127a7565b600060405180830381600087803b158015611fc057600080fd5b505af1158015611fd4573d6000803e3d6000fd5b50506040516370a0823160e01b8152600092506001600160a01b03851691506370a082319061200790309060040161263e565b60206040518083038186803b15801561201f57600080fd5b505afa158015612033573d6000803e3d6000fd5b505050506040513d601f19601f820116820180604052508101906120579190612546565b600480546000898152600560205260409081902054905163ba33939960e01b81529394506001600160a01b039091169263ba3393999261209a92918791016127a7565b600060405180830381600087803b1580156120b457600080fd5b505af19250505080156120c5575060015b61214157600480546000888152600560205260409081902054905163b320f45960e01b8152928301526001600160a01b03169063b320f45990602401600060405180830381600087803b15801561211b57600080fd5b505af115801561212f573d6000803e3d6000fd5b506000998a9950975050505050505050565b6040516370a0823160e01b81526000906001600160a01b038516906370a082319061217090309060040161263e565b60206040518083038186803b15801561218857600080fd5b505afa15801561219c573d6000803e3d6000fd5b505050506040513d601f19601f820116820180604052508101906121c09190612546565b905060016121ce8284611e11565b9550955050505050915091565b610da28363a9059cbb60e01b84846040516024016121fa929190612676565b60408051601f198184030181529190526020810180516001600160e01b03166001600160e01b031990931692909217909152612258565b612252846323b872dd60e01b8585856040516024016121fa93929190612652565b50505050565b60006122ad826040518060400160405280602081526020017f5361666545524332303a206c6f772d6c6576656c2063616c6c206661696c6564815250856001600160a01b031661232a9092919063ffffffff16565b805190915015610da257808060200190518101906122cb9190612512565b610da25760405162461bcd60e51b815260206004820152602a60248201527f5361666545524332303a204552433230206f7065726174696f6e20646964206e6044820152691bdd081cdd58d8d9595960b21b60648201526084016103b3565b60606123398484600085612341565b949350505050565b6060824710156123a25760405162461bcd60e51b815260206004820152602660248201527f416464726573733a20696e73756666696369656e742062616c616e636520666f6044820152651c8818d85b1b60d21b60648201526084016103b3565b843b6123f05760405162461bcd60e51b815260206004820152601d60248201527f416464726573733a2063616c6c20746f206e6f6e2d636f6e747261637400000060448201526064016103b3565b600080866001600160a01b0316858760405161240c9190612622565b60006040518083038185875af1925050503d8060008114612449576040519150601f19603f3d011682016040523d82523d6000602084013e61244e565b606091505b509150915061245e828286612469565b979650505050505050565b60608315612478575081611c49565b8251156124885782518084602001fd5b8160405162461bcd60e51b81526004016103b391906126a4565b6000602082840312156124b3578081fd5b8135611c49816128a5565b6000602082840312156124cf578081fd5b8151611c49816128a5565b600080604083850312156124ec578081fd5b82356124f7816128a5565b91506020830135612507816128a5565b809150509250929050565b600060208284031215612523578081fd5b8151611c49816128ba565b60006020828403121561253f578081fd5b5035919050565b600060208284031215612557578081fd5b5051919050565b600080600080600080600060e0888a031215612578578283fd5b87359650602088013561258a816128a5565b9550604088013594506060880135935060808801356125a8816128a5565b925060a088013560ff811681146125bd578283fd5b915060c08801356125cd816128a5565b8091505092959891949750929550565b600080604083850312156125ef578182fd5b823591506020830135612507816128ba565b60008060408385031215612613578182fd5b50508035926020909101359150565b60008251612634818460208701612863565b9190910192915050565b6001600160a01b0391909116815260200190565b6001600160a01b039384168152919092166020820152604081019190915260600190565b6001600160a01b03929092168252602082015260400190565b6001600160e01b031991909116815260200190565b60208152600082518060208401526126c3816040850160208701612863565b601f01601f19169190910160400192915050565b6020808252601b908201527a105d58dd1a5bdb881a185cc8185b1c9958591e481cdd185c9d1959602a1b604082015260600190565b602080825260159082015274105d58dd1a5bdb88191bd95cdb89dd08195e1a5cdd605a1b604082015260600190565b6020808252818101527f4f776e61626c653a2063616c6c6572206973206e6f7420746865206f776e6572604082015260600190565b6020808252601f908201527f5265656e7472616e637947756172643a207265656e7472616e742063616c6c00604082015260600190565b91825280516020808401919091528101516001600160a01b0390811660408085019190915282015181166060808501919091528201511660808084019190915201515160a082015260c00190565b600082198211156128085761280861288f565b500190565b60008261282857634e487b7160e01b81526012600452602481fd5b500490565b60008160001904831182151516156128475761284761288f565b500290565b60008282101561285e5761285e61288f565b500390565b60005b8381101561287e578181015183820152602001612866565b838111156122525750506000910152565b634e487b7160e01b600052601160045260246000fd5b6001600160a01b03811681146119e357600080fd5b80151581146119e357600080fdfea2646970667358221220e1bcd6ab3132712f48615a6db24ffceb68494e18254abccdf258f0877b58817464736f6c63430008040033",
  "devdoc": {
    "kind": "dev",
    "methods": {
      "cancelAuction(uint256)": {
        "details": "Transfers the NFT back to the auction creator and emits an AuctionCanceled event"
      },
      "createAuction(uint256,address,uint256,uint256,address,uint8,address)": {
        "details": "Store the auction details in the auctions mapping and emit an AuctionCreated event. If there is no curator, or if the curator is the auction creator, automatically approve the auction."
      },
      "createBid(uint256,uint256)": {
        "details": "If provided a valid bid, transfers the provided amount to this contract. If the auction is run in native ETH, the ETH is wrapped so it can be identically to other auction currencies in this contract."
      },
      "endAuction(uint256)": {
        "details": "If for some reason the auction cannot be finalized (invalid token recipient, for example), The auction is reset and the NFT is transferred back to the auction creator."
      },
      "owner()": {
        "details": "Returns the address of the current owner."
      },
      "renounceOwnership()": {
        "details": "Leaves the contract without owner. It will not be possible to call `onlyOwner` functions anymore. Can only be called by the current owner. NOTE: Renouncing ownership will leave the contract without an owner, thereby removing any functionality that is only available to the owner."
      },
      "setAuctionApproval(uint256,bool)": {
        "details": "Only callable by the curator. Cannot be called if the auction has already started."
      },
      "transferOwnership(address)": {
        "details": "Transfers ownership of the contract to a new account (`newOwner`). Can only be called by the current owner."
      }
    },
    "title": "Zoo's auction house, enabling players to buy, sell and trade NFTs",
    "version": 1
  },
  "userdoc": {
    "kind": "user",
    "methods": {
      "cancelAuction(uint256)": {
        "notice": "Cancel an auction."
      },
      "createAuction(uint256,address,uint256,uint256,address,uint8,address)": {
        "notice": "Create an auction."
      },
      "createBid(uint256,uint256)": {
        "notice": "Create a bid on a token, with a given amount."
      },
      "endAuction(uint256)": {
        "notice": "End an auction, finalizing the bid on Zoo if applicable and paying out the respective parties."
      },
      "setAuctionApproval(uint256,bool)": {
        "notice": "Approve an auction, opening up the auction for bids."
      }
    },
    "version": 1
  },
  "storageLayout": {
    "storage": [
      {
        "astId": 114,
        "contract": "src/ZooAuction.sol:ZooAuction",
        "label": "_status",
        "offset": 0,
        "slot": "0",
        "type": "t_uint256"
      },
      {
        "astId": 7,
        "contract": "src/ZooAuction.sol:ZooAuction",
        "label": "_owner",
        "offset": 0,
        "slot": "1",
        "type": "t_address"
      },
      {
        "astId": 5482,
        "contract": "src/ZooAuction.sol:ZooAuction",
        "label": "timeBuffer",
        "offset": 0,
        "slot": "2",
        "type": "t_uint256"
      },
      {
        "astId": 5484,
        "contract": "src/ZooAuction.sol:ZooAuction",
        "label": "minBidIncrementPercentage",
        "offset": 0,
        "slot": "3",
        "type": "t_uint8"
      },
      {
        "astId": 5486,
        "contract": "src/ZooAuction.sol:ZooAuction",
        "label": "mediaAddress",
        "offset": 1,
        "slot": "3",
        "type": "t_address"
      },
      {
        "astId": 5488,
        "contract": "src/ZooAuction.sol:ZooAuction",
        "label": "tokenAddress",
        "offset": 0,
        "slot": "4",
        "type": "t_address"
      },
      {
        "astId": 5493,
        "contract": "src/ZooAuction.sol:ZooAuction",
        "label": "auctions",
        "offset": 0,
        "slot": "5",
        "type": "t_mapping(t_uint256,t_struct(Auction)19479_storage)"
      },
      {
        "astId": 5499,
        "contract": "src/ZooAuction.sol:ZooAuction",
        "label": "_auctionIDTracker",
        "offset": 0,
        "slot": "6",
        "type": "t_struct(Counter)2411_storage"
      }
    ],
    "types": {
      "t_address": {
        "encoding": "inplace",
        "label": "address",
        "numberOfBytes": "20"
      },
      "t_address_payable": {
        "encoding": "inplace",
        "label": "address payable",
        "numberOfBytes": "20"
      },
      "t_bool": {
        "encoding": "inplace",
        "label": "bool",
        "numberOfBytes": "1"
      },
      "t_mapping(t_uint256,t_struct(Auction)19479_storage)": {
        "encoding": "mapping",
        "key": "t_uint256",
        "label": "mapping(uint256 => struct IAuctionHouse.Auction)",
        "numberOfBytes": "32",
        "value": "t_struct(Auction)19479_storage"
      },
      "t_struct(Auction)19479_storage": {
        "encoding": "inplace",
        "label": "struct IAuctionHouse.Auction",
        "members": [
          {
            "astId": 19456,
            "contract": "src/ZooAuction.sol:ZooAuction",
            "label": "tokenID",
            "offset": 0,
            "slot": "0",
            "type": "t_uint256"
          },
          {
            "astId": 19458,
            "contract": "src/ZooAuction.sol:ZooAuction",
            "label": "tokenContract",
            "offset": 0,
            "slot": "1",
            "type": "t_address"
          },
          {
            "astId": 19460,
            "contract": "src/ZooAuction.sol:ZooAuction",
            "label": "approved",
            "offset": 20,
            "slot": "1",
            "type": "t_bool"
          },
          {
            "astId": 19462,
            "contract": "src/ZooAuction.sol:ZooAuction",
            "label": "amount",
            "offset": 0,
            "slot": "2",
            "type": "t_uint256"
          },
          {
            "astId": 19464,
            "contract": "src/ZooAuction.sol:ZooAuction",
            "label": "duration",
            "offset": 0,
            "slot": "3",
            "type": "t_uint256"
          },
          {
            "astId": 19466,
            "contract": "src/ZooAuction.sol:ZooAuction",
            "label": "firstBidTime",
            "offset": 0,
            "slot": "4",
            "type": "t_uint256"
          },
          {
            "astId": 19468,
            "contract": "src/ZooAuction.sol:ZooAuction",
            "label": "reservePrice",
            "offset": 0,
            "slot": "5",
            "type": "t_uint256"
          },
          {
            "astId": 19470,
            "contract": "src/ZooAuction.sol:ZooAuction",
            "label": "curatorFeePercentage",
            "offset": 0,
            "slot": "6",
            "type": "t_uint8"
          },
          {
            "astId": 19472,
            "contract": "src/ZooAuction.sol:ZooAuction",
            "label": "tokenOwner",
            "offset": 1,
            "slot": "6",
            "type": "t_address"
          },
          {
            "astId": 19474,
            "contract": "src/ZooAuction.sol:ZooAuction",
            "label": "bidder",
            "offset": 0,
            "slot": "7",
            "type": "t_address_payable"
          },
          {
            "astId": 19476,
            "contract": "src/ZooAuction.sol:ZooAuction",
            "label": "curator",
            "offset": 0,
            "slot": "8",
            "type": "t_address_payable"
          },
          {
            "astId": 19478,
            "contract": "src/ZooAuction.sol:ZooAuction",
            "label": "auctionCurrency",
            "offset": 0,
            "slot": "9",
            "type": "t_address"
          }
        ],
        "numberOfBytes": "320"
      },
      "t_struct(Counter)2411_storage": {
        "encoding": "inplace",
        "label": "struct Counters.Counter",
        "members": [
          {
            "astId": 2410,
            "contract": "src/ZooAuction.sol:ZooAuction",
            "label": "_value",
            "offset": 0,
            "slot": "0",
            "type": "t_uint256"
          }
        ],
        "numberOfBytes": "32"
      },
      "t_uint256": {
        "encoding": "inplace",
        "label": "uint256",
        "numberOfBytes": "32"
      },
      "t_uint8": {
        "encoding": "inplace",
        "label": "uint8",
        "numberOfBytes": "1"
      }
    }
  }
}