{
  "address": "0x9907c6e3Db277655D01c56e2a4825042c4b61922",
  "abi": [
    {
      "inputs": [
        {
          "internalType": "string",
          "name": "_title",
          "type": "string"
        }
      ],
      "stateMutability": "nonpayable",
      "type": "constructor"
    },
    {
      "anonymous": false,
      "inputs": [
        {
          "indexed": true,
          "internalType": "address",
          "name": "previousOwner",
          "type": "address"
        },
        {
          "indexed": true,
          "internalType": "address",
          "name": "newOwner",
          "type": "address"
        }
      ],
      "name": "OwnershipTransferred",
      "type": "event"
    },
    {
      "inputs": [
        {
          "internalType": "string",
          "name": "",
          "type": "string"
        }
      ],
      "name": "animals",
      "outputs": [
        {
          "internalType": "enum IZoo.Type",
          "name": "kind",
          "type": "uint8"
        },
        {
          "components": [
            {
              "internalType": "string",
              "name": "name",
              "type": "string"
            },
            {
              "internalType": "uint256",
              "name": "probability",
              "type": "uint256"
            },
            {
              "internalType": "uint256",
              "name": "yield",
              "type": "uint256"
            },
            {
              "internalType": "uint256",
              "name": "boost",
              "type": "uint256"
            }
          ],
          "internalType": "struct IZoo.Rarity",
          "name": "rarity",
          "type": "tuple"
        },
        {
          "internalType": "string",
          "name": "name",
          "type": "string"
        },
        {
          "components": [
            {
              "internalType": "string",
              "name": "tokenURI",
              "type": "string"
            },
            {
              "internalType": "string",
              "name": "metadataURI",
              "type": "string"
            },
            {
              "internalType": "bytes32",
              "name": "contentHash",
              "type": "bytes32"
            },
            {
              "internalType": "bytes32",
              "name": "metadataHash",
              "type": "bytes32"
            }
          ],
          "internalType": "struct IMedia.MediaData",
          "name": "data",
          "type": "tuple"
        },
        {
          "components": [
            {
              "components": [
                {
                  "internalType": "uint256",
                  "name": "value",
                  "type": "uint256"
                }
              ],
              "internalType": "struct Decimal.D256",
              "name": "prevOwner",
              "type": "tuple"
            },
            {
              "components": [
                {
                  "internalType": "uint256",
                  "name": "value",
                  "type": "uint256"
                }
              ],
              "internalType": "struct Decimal.D256",
              "name": "creator",
              "type": "tuple"
            },
            {
              "components": [
                {
                  "internalType": "uint256",
                  "name": "value",
                  "type": "uint256"
                }
              ],
              "internalType": "struct Decimal.D256",
              "name": "owner",
              "type": "tuple"
            }
          ],
          "internalType": "struct IMarket.BidShares",
          "name": "bidShares",
          "type": "tuple"
        }
      ],
      "stateMutability": "view",
      "type": "function"
    },
    {
      "inputs": [],
      "name": "baseEgg",
      "outputs": [
        {
          "internalType": "string",
          "name": "",
          "type": "string"
        }
      ],
      "stateMutability": "view",
      "type": "function"
    },
    {
      "inputs": [
        {
          "internalType": "string",
          "name": "_baseEgg",
          "type": "string"
        },
        {
          "internalType": "string",
          "name": "_hybridEgg",
          "type": "string"
        }
      ],
      "name": "configureEggs",
      "outputs": [],
      "stateMutability": "nonpayable",
      "type": "function"
    },
    {
      "inputs": [
        {
          "internalType": "address",
          "name": "zooKeeper",
          "type": "address"
        }
      ],
      "name": "configureKeeper",
      "outputs": [],
      "stateMutability": "nonpayable",
      "type": "function"
    },
    {
      "inputs": [],
      "name": "eggPrice",
      "outputs": [
        {
          "internalType": "uint256",
          "name": "",
          "type": "uint256"
        }
      ],
      "stateMutability": "view",
      "type": "function"
    },
    {
      "inputs": [],
      "name": "eggSupply",
      "outputs": [
        {
          "internalType": "uint256",
          "name": "",
          "type": "uint256"
        }
      ],
      "stateMutability": "view",
      "type": "function"
    },
    {
      "inputs": [
        {
          "internalType": "string",
          "name": "",
          "type": "string"
        }
      ],
      "name": "eggs",
      "outputs": [
        {
          "internalType": "enum IZoo.Type",
          "name": "kind",
          "type": "uint8"
        },
        {
          "internalType": "string",
          "name": "name",
          "type": "string"
        },
        {
          "internalType": "uint256",
          "name": "supply",
          "type": "uint256"
        },
        {
          "internalType": "uint256",
          "name": "price",
          "type": "uint256"
        },
        {
          "internalType": "uint256",
          "name": "timestamp",
          "type": "uint256"
        },
        {
          "internalType": "uint256",
          "name": "birthday",
          "type": "uint256"
        },
        {
          "internalType": "uint256",
          "name": "minted",
          "type": "uint256"
        },
        {
          "components": [
            {
              "internalType": "string",
              "name": "tokenURI",
              "type": "string"
            },
            {
              "internalType": "string",
              "name": "metadataURI",
              "type": "string"
            },
            {
              "internalType": "bytes32",
              "name": "contentHash",
              "type": "bytes32"
            },
            {
              "internalType": "bytes32",
              "name": "metadataHash",
              "type": "bytes32"
            }
          ],
          "internalType": "struct IMedia.MediaData",
          "name": "data",
          "type": "tuple"
        },
        {
          "components": [
            {
              "components": [
                {
                  "internalType": "uint256",
                  "name": "value",
                  "type": "uint256"
                }
              ],
              "internalType": "struct Decimal.D256",
              "name": "prevOwner",
              "type": "tuple"
            },
            {
              "components": [
                {
                  "internalType": "uint256",
                  "name": "value",
                  "type": "uint256"
                }
              ],
              "internalType": "struct Decimal.D256",
              "name": "creator",
              "type": "tuple"
            },
            {
              "components": [
                {
                  "internalType": "uint256",
                  "name": "value",
                  "type": "uint256"
                }
              ],
              "internalType": "struct Decimal.D256",
              "name": "owner",
              "type": "tuple"
            }
          ],
          "internalType": "struct IMarket.BidShares",
          "name": "bidShares",
          "type": "tuple"
        }
      ],
      "stateMutability": "view",
      "type": "function"
    },
    {
      "inputs": [
        {
          "internalType": "uint256",
          "name": "random",
          "type": "uint256"
        }
      ],
      "name": "getRandomAnimal",
      "outputs": [
        {
          "components": [
            {
              "components": [
                {
                  "internalType": "string",
                  "name": "name",
                  "type": "string"
                },
                {
                  "internalType": "uint256",
                  "name": "probability",
                  "type": "uint256"
                },
                {
                  "internalType": "uint256",
                  "name": "yield",
                  "type": "uint256"
                },
                {
                  "internalType": "uint256",
                  "name": "boost",
                  "type": "uint256"
                }
              ],
              "internalType": "struct IZoo.Rarity",
              "name": "rarity",
              "type": "tuple"
            },
            {
              "internalType": "enum IZoo.Type",
              "name": "kind",
              "type": "uint8"
            },
            {
              "internalType": "string",
              "name": "name",
              "type": "string"
            },
            {
              "internalType": "uint256",
              "name": "id",
              "type": "uint256"
            },
            {
              "internalType": "uint256",
              "name": "timestamp",
              "type": "uint256"
            },
            {
              "internalType": "uint256",
              "name": "birthday",
              "type": "uint256"
            },
            {
              "internalType": "string",
              "name": "customName",
              "type": "string"
            },
            {
              "components": [
                {
                  "internalType": "string",
                  "name": "animalA",
                  "type": "string"
                },
                {
                  "internalType": "string",
                  "name": "animalB",
                  "type": "string"
                },
                {
                  "internalType": "uint256",
                  "name": "tokenA",
                  "type": "uint256"
                },
                {
                  "internalType": "uint256",
                  "name": "tokenB",
                  "type": "uint256"
                }
              ],
              "internalType": "struct IZoo.Parents",
              "name": "parents",
              "type": "tuple"
            },
            {
              "components": [
                {
                  "internalType": "uint256",
                  "name": "count",
                  "type": "uint256"
                },
                {
                  "internalType": "uint256",
                  "name": "timestamp",
                  "type": "uint256"
                }
              ],
              "internalType": "struct IZoo.Breed",
              "name": "breed",
              "type": "tuple"
            },
            {
              "components": [
                {
                  "internalType": "uint256",
                  "name": "eggID",
                  "type": "uint256"
                },
                {
                  "internalType": "uint256",
                  "name": "dropID",
                  "type": "uint256"
                }
              ],
              "internalType": "struct IZoo.Meta",
              "name": "meta",
              "type": "tuple"
            },
            {
              "components": [
                {
                  "internalType": "string",
                  "name": "tokenURI",
                  "type": "string"
                },
                {
                  "internalType": "string",
                  "name": "metadataURI",
                  "type": "string"
                },
                {
                  "internalType": "bytes32",
                  "name": "contentHash",
                  "type": "bytes32"
                },
                {
                  "internalType": "bytes32",
                  "name": "metadataHash",
                  "type": "bytes32"
                }
              ],
              "internalType": "struct IMedia.MediaData",
              "name": "data",
              "type": "tuple"
            },
            {
              "components": [
                {
                  "components": [
                    {
                      "internalType": "uint256",
                      "name": "value",
                      "type": "uint256"
                    }
                  ],
                  "internalType": "struct Decimal.D256",
                  "name": "prevOwner",
                  "type": "tuple"
                },
                {
                  "components": [
                    {
                      "internalType": "uint256",
                      "name": "value",
                      "type": "uint256"
                    }
                  ],
                  "internalType": "struct Decimal.D256",
                  "name": "creator",
                  "type": "tuple"
                },
                {
                  "components": [
                    {
                      "internalType": "uint256",
                      "name": "value",
                      "type": "uint256"
                    }
                  ],
                  "internalType": "struct Decimal.D256",
                  "name": "owner",
                  "type": "tuple"
                }
              ],
              "internalType": "struct IMarket.BidShares",
              "name": "bidShares",
              "type": "tuple"
            }
          ],
          "internalType": "struct IZoo.Token",
          "name": "token",
          "type": "tuple"
        }
      ],
      "stateMutability": "view",
      "type": "function"
    },
    {
      "inputs": [
        {
          "internalType": "uint256",
          "name": "random",
          "type": "uint256"
        },
        {
          "components": [
            {
              "internalType": "string",
              "name": "animalA",
              "type": "string"
            },
            {
              "internalType": "string",
              "name": "animalB",
              "type": "string"
            },
            {
              "internalType": "uint256",
              "name": "tokenA",
              "type": "uint256"
            },
            {
              "internalType": "uint256",
              "name": "tokenB",
              "type": "uint256"
            }
          ],
          "internalType": "struct IZoo.Parents",
          "name": "parents",
          "type": "tuple"
        }
      ],
      "name": "getRandomHybrid",
      "outputs": [
        {
          "components": [
            {
              "components": [
                {
                  "internalType": "string",
                  "name": "name",
                  "type": "string"
                },
                {
                  "internalType": "uint256",
                  "name": "probability",
                  "type": "uint256"
                },
                {
                  "internalType": "uint256",
                  "name": "yield",
                  "type": "uint256"
                },
                {
                  "internalType": "uint256",
                  "name": "boost",
                  "type": "uint256"
                }
              ],
              "internalType": "struct IZoo.Rarity",
              "name": "rarity",
              "type": "tuple"
            },
            {
              "internalType": "enum IZoo.Type",
              "name": "kind",
              "type": "uint8"
            },
            {
              "internalType": "string",
              "name": "name",
              "type": "string"
            },
            {
              "internalType": "uint256",
              "name": "id",
              "type": "uint256"
            },
            {
              "internalType": "uint256",
              "name": "timestamp",
              "type": "uint256"
            },
            {
              "internalType": "uint256",
              "name": "birthday",
              "type": "uint256"
            },
            {
              "internalType": "string",
              "name": "customName",
              "type": "string"
            },
            {
              "components": [
                {
                  "internalType": "string",
                  "name": "animalA",
                  "type": "string"
                },
                {
                  "internalType": "string",
                  "name": "animalB",
                  "type": "string"
                },
                {
                  "internalType": "uint256",
                  "name": "tokenA",
                  "type": "uint256"
                },
                {
                  "internalType": "uint256",
                  "name": "tokenB",
                  "type": "uint256"
                }
              ],
              "internalType": "struct IZoo.Parents",
              "name": "parents",
              "type": "tuple"
            },
            {
              "components": [
                {
                  "internalType": "uint256",
                  "name": "count",
                  "type": "uint256"
                },
                {
                  "internalType": "uint256",
                  "name": "timestamp",
                  "type": "uint256"
                }
              ],
              "internalType": "struct IZoo.Breed",
              "name": "breed",
              "type": "tuple"
            },
            {
              "components": [
                {
                  "internalType": "uint256",
                  "name": "eggID",
                  "type": "uint256"
                },
                {
                  "internalType": "uint256",
                  "name": "dropID",
                  "type": "uint256"
                }
              ],
              "internalType": "struct IZoo.Meta",
              "name": "meta",
              "type": "tuple"
            },
            {
              "components": [
                {
                  "internalType": "string",
                  "name": "tokenURI",
                  "type": "string"
                },
                {
                  "internalType": "string",
                  "name": "metadataURI",
                  "type": "string"
                },
                {
                  "internalType": "bytes32",
                  "name": "contentHash",
                  "type": "bytes32"
                },
                {
                  "internalType": "bytes32",
                  "name": "metadataHash",
                  "type": "bytes32"
                }
              ],
              "internalType": "struct IMedia.MediaData",
              "name": "data",
              "type": "tuple"
            },
            {
              "components": [
                {
                  "components": [
                    {
                      "internalType": "uint256",
                      "name": "value",
                      "type": "uint256"
                    }
                  ],
                  "internalType": "struct Decimal.D256",
                  "name": "prevOwner",
                  "type": "tuple"
                },
                {
                  "components": [
                    {
                      "internalType": "uint256",
                      "name": "value",
                      "type": "uint256"
                    }
                  ],
                  "internalType": "struct Decimal.D256",
                  "name": "creator",
                  "type": "tuple"
                },
                {
                  "components": [
                    {
                      "internalType": "uint256",
                      "name": "value",
                      "type": "uint256"
                    }
                  ],
                  "internalType": "struct Decimal.D256",
                  "name": "owner",
                  "type": "tuple"
                }
              ],
              "internalType": "struct IMarket.BidShares",
              "name": "bidShares",
              "type": "tuple"
            }
          ],
          "internalType": "struct IZoo.Token",
          "name": "token",
          "type": "tuple"
        }
      ],
      "stateMutability": "view",
      "type": "function"
    },
    {
      "inputs": [],
      "name": "hybridEgg",
      "outputs": [
        {
          "internalType": "string",
          "name": "",
          "type": "string"
        }
      ],
      "stateMutability": "view",
      "type": "function"
    },
    {
      "inputs": [
        {
          "internalType": "string",
          "name": "",
          "type": "string"
        }
      ],
      "name": "hybridParents",
      "outputs": [
        {
          "internalType": "enum IZoo.Type",
          "name": "kind",
          "type": "uint8"
        },
        {
          "components": [
            {
              "internalType": "string",
              "name": "name",
              "type": "string"
            },
            {
              "internalType": "uint256",
              "name": "probability",
              "type": "uint256"
            },
            {
              "internalType": "uint256",
              "name": "yield",
              "type": "uint256"
            },
            {
              "internalType": "uint256",
              "name": "boost",
              "type": "uint256"
            }
          ],
          "internalType": "struct IZoo.Rarity",
          "name": "rarity",
          "type": "tuple"
        },
        {
          "internalType": "string",
          "name": "name",
          "type": "string"
        },
        {
          "internalType": "uint256",
          "name": "yield",
          "type": "uint256"
        },
        {
          "internalType": "string",
          "name": "parentA",
          "type": "string"
        },
        {
          "internalType": "string",
          "name": "parentB",
          "type": "string"
        },
        {
          "components": [
            {
              "internalType": "string",
              "name": "tokenURI",
              "type": "string"
            },
            {
              "internalType": "string",
              "name": "metadataURI",
              "type": "string"
            },
            {
              "internalType": "bytes32",
              "name": "contentHash",
              "type": "bytes32"
            },
            {
              "internalType": "bytes32",
              "name": "metadataHash",
              "type": "bytes32"
            }
          ],
          "internalType": "struct IMedia.MediaData",
          "name": "data",
          "type": "tuple"
        },
        {
          "components": [
            {
              "components": [
                {
                  "internalType": "uint256",
                  "name": "value",
                  "type": "uint256"
                }
              ],
              "internalType": "struct Decimal.D256",
              "name": "prevOwner",
              "type": "tuple"
            },
            {
              "components": [
                {
                  "internalType": "uint256",
                  "name": "value",
                  "type": "uint256"
                }
              ],
              "internalType": "struct Decimal.D256",
              "name": "creator",
              "type": "tuple"
            },
            {
              "components": [
                {
                  "internalType": "uint256",
                  "name": "value",
                  "type": "uint256"
                }
              ],
              "internalType": "struct Decimal.D256",
              "name": "owner",
              "type": "tuple"
            }
          ],
          "internalType": "struct IMarket.BidShares",
          "name": "bidShares",
          "type": "tuple"
        }
      ],
      "stateMutability": "view",
      "type": "function"
    },
    {
      "inputs": [],
      "name": "hybridSupply",
      "outputs": [
        {
          "internalType": "uint256",
          "name": "",
          "type": "uint256"
        }
      ],
      "stateMutability": "view",
      "type": "function"
    },
    {
      "inputs": [
        {
          "internalType": "string",
          "name": "",
          "type": "string"
        }
      ],
      "name": "hybrids",
      "outputs": [
        {
          "internalType": "enum IZoo.Type",
          "name": "kind",
          "type": "uint8"
        },
        {
          "components": [
            {
              "internalType": "string",
              "name": "name",
              "type": "string"
            },
            {
              "internalType": "uint256",
              "name": "probability",
              "type": "uint256"
            },
            {
              "internalType": "uint256",
              "name": "yield",
              "type": "uint256"
            },
            {
              "internalType": "uint256",
              "name": "boost",
              "type": "uint256"
            }
          ],
          "internalType": "struct IZoo.Rarity",
          "name": "rarity",
          "type": "tuple"
        },
        {
          "internalType": "string",
          "name": "name",
          "type": "string"
        },
        {
          "internalType": "uint256",
          "name": "yield",
          "type": "uint256"
        },
        {
          "internalType": "string",
          "name": "parentA",
          "type": "string"
        },
        {
          "internalType": "string",
          "name": "parentB",
          "type": "string"
        },
        {
          "components": [
            {
              "internalType": "string",
              "name": "tokenURI",
              "type": "string"
            },
            {
              "internalType": "string",
              "name": "metadataURI",
              "type": "string"
            },
            {
              "internalType": "bytes32",
              "name": "contentHash",
              "type": "bytes32"
            },
            {
              "internalType": "bytes32",
              "name": "metadataHash",
              "type": "bytes32"
            }
          ],
          "internalType": "struct IMedia.MediaData",
          "name": "data",
          "type": "tuple"
        },
        {
          "components": [
            {
              "components": [
                {
                  "internalType": "uint256",
                  "name": "value",
                  "type": "uint256"
                }
              ],
              "internalType": "struct Decimal.D256",
              "name": "prevOwner",
              "type": "tuple"
            },
            {
              "components": [
                {
                  "internalType": "uint256",
                  "name": "value",
                  "type": "uint256"
                }
              ],
              "internalType": "struct Decimal.D256",
              "name": "creator",
              "type": "tuple"
            },
            {
              "components": [
                {
                  "internalType": "uint256",
                  "name": "value",
                  "type": "uint256"
                }
              ],
              "internalType": "struct Decimal.D256",
              "name": "owner",
              "type": "tuple"
            }
          ],
          "internalType": "struct IMarket.BidShares",
          "name": "bidShares",
          "type": "tuple"
        }
      ],
      "stateMutability": "view",
      "type": "function"
    },
    {
      "inputs": [],
      "name": "keeperAddress",
      "outputs": [
        {
          "internalType": "address",
          "name": "",
          "type": "address"
        }
      ],
      "stateMutability": "view",
      "type": "function"
    },
    {
      "inputs": [],
      "name": "newEgg",
      "outputs": [
        {
          "components": [
            {
              "components": [
                {
                  "internalType": "string",
                  "name": "name",
                  "type": "string"
                },
                {
                  "internalType": "uint256",
                  "name": "probability",
                  "type": "uint256"
                },
                {
                  "internalType": "uint256",
                  "name": "yield",
                  "type": "uint256"
                },
                {
                  "internalType": "uint256",
                  "name": "boost",
                  "type": "uint256"
                }
              ],
              "internalType": "struct IZoo.Rarity",
              "name": "rarity",
              "type": "tuple"
            },
            {
              "internalType": "enum IZoo.Type",
              "name": "kind",
              "type": "uint8"
            },
            {
              "internalType": "string",
              "name": "name",
              "type": "string"
            },
            {
              "internalType": "uint256",
              "name": "id",
              "type": "uint256"
            },
            {
              "internalType": "uint256",
              "name": "timestamp",
              "type": "uint256"
            },
            {
              "internalType": "uint256",
              "name": "birthday",
              "type": "uint256"
            },
            {
              "internalType": "string",
              "name": "customName",
              "type": "string"
            },
            {
              "components": [
                {
                  "internalType": "string",
                  "name": "animalA",
                  "type": "string"
                },
                {
                  "internalType": "string",
                  "name": "animalB",
                  "type": "string"
                },
                {
                  "internalType": "uint256",
                  "name": "tokenA",
                  "type": "uint256"
                },
                {
                  "internalType": "uint256",
                  "name": "tokenB",
                  "type": "uint256"
                }
              ],
              "internalType": "struct IZoo.Parents",
              "name": "parents",
              "type": "tuple"
            },
            {
              "components": [
                {
                  "internalType": "uint256",
                  "name": "count",
                  "type": "uint256"
                },
                {
                  "internalType": "uint256",
                  "name": "timestamp",
                  "type": "uint256"
                }
              ],
              "internalType": "struct IZoo.Breed",
              "name": "breed",
              "type": "tuple"
            },
            {
              "components": [
                {
                  "internalType": "uint256",
                  "name": "eggID",
                  "type": "uint256"
                },
                {
                  "internalType": "uint256",
                  "name": "dropID",
                  "type": "uint256"
                }
              ],
              "internalType": "struct IZoo.Meta",
              "name": "meta",
              "type": "tuple"
            },
            {
              "components": [
                {
                  "internalType": "string",
                  "name": "tokenURI",
                  "type": "string"
                },
                {
                  "internalType": "string",
                  "name": "metadataURI",
                  "type": "string"
                },
                {
                  "internalType": "bytes32",
                  "name": "contentHash",
                  "type": "bytes32"
                },
                {
                  "internalType": "bytes32",
                  "name": "metadataHash",
                  "type": "bytes32"
                }
              ],
              "internalType": "struct IMedia.MediaData",
              "name": "data",
              "type": "tuple"
            },
            {
              "components": [
                {
                  "components": [
                    {
                      "internalType": "uint256",
                      "name": "value",
                      "type": "uint256"
                    }
                  ],
                  "internalType": "struct Decimal.D256",
                  "name": "prevOwner",
                  "type": "tuple"
                },
                {
                  "components": [
                    {
                      "internalType": "uint256",
                      "name": "value",
                      "type": "uint256"
                    }
                  ],
                  "internalType": "struct Decimal.D256",
                  "name": "creator",
                  "type": "tuple"
                },
                {
                  "components": [
                    {
                      "internalType": "uint256",
                      "name": "value",
                      "type": "uint256"
                    }
                  ],
                  "internalType": "struct Decimal.D256",
                  "name": "owner",
                  "type": "tuple"
                }
              ],
              "internalType": "struct IMarket.BidShares",
              "name": "bidShares",
              "type": "tuple"
            }
          ],
          "internalType": "struct IZoo.Token",
          "name": "",
          "type": "tuple"
        }
      ],
      "stateMutability": "nonpayable",
      "type": "function"
    },
    {
      "inputs": [
        {
          "components": [
            {
              "internalType": "string",
              "name": "animalA",
              "type": "string"
            },
            {
              "internalType": "string",
              "name": "animalB",
              "type": "string"
            },
            {
              "internalType": "uint256",
              "name": "tokenA",
              "type": "uint256"
            },
            {
              "internalType": "uint256",
              "name": "tokenB",
              "type": "uint256"
            }
          ],
          "internalType": "struct IZoo.Parents",
          "name": "parents",
          "type": "tuple"
        }
      ],
      "name": "newHybridEgg",
      "outputs": [
        {
          "components": [
            {
              "components": [
                {
                  "internalType": "string",
                  "name": "name",
                  "type": "string"
                },
                {
                  "internalType": "uint256",
                  "name": "probability",
                  "type": "uint256"
                },
                {
                  "internalType": "uint256",
                  "name": "yield",
                  "type": "uint256"
                },
                {
                  "internalType": "uint256",
                  "name": "boost",
                  "type": "uint256"
                }
              ],
              "internalType": "struct IZoo.Rarity",
              "name": "rarity",
              "type": "tuple"
            },
            {
              "internalType": "enum IZoo.Type",
              "name": "kind",
              "type": "uint8"
            },
            {
              "internalType": "string",
              "name": "name",
              "type": "string"
            },
            {
              "internalType": "uint256",
              "name": "id",
              "type": "uint256"
            },
            {
              "internalType": "uint256",
              "name": "timestamp",
              "type": "uint256"
            },
            {
              "internalType": "uint256",
              "name": "birthday",
              "type": "uint256"
            },
            {
              "internalType": "string",
              "name": "customName",
              "type": "string"
            },
            {
              "components": [
                {
                  "internalType": "string",
                  "name": "animalA",
                  "type": "string"
                },
                {
                  "internalType": "string",
                  "name": "animalB",
                  "type": "string"
                },
                {
                  "internalType": "uint256",
                  "name": "tokenA",
                  "type": "uint256"
                },
                {
                  "internalType": "uint256",
                  "name": "tokenB",
                  "type": "uint256"
                }
              ],
              "internalType": "struct IZoo.Parents",
              "name": "parents",
              "type": "tuple"
            },
            {
              "components": [
                {
                  "internalType": "uint256",
                  "name": "count",
                  "type": "uint256"
                },
                {
                  "internalType": "uint256",
                  "name": "timestamp",
                  "type": "uint256"
                }
              ],
              "internalType": "struct IZoo.Breed",
              "name": "breed",
              "type": "tuple"
            },
            {
              "components": [
                {
                  "internalType": "uint256",
                  "name": "eggID",
                  "type": "uint256"
                },
                {
                  "internalType": "uint256",
                  "name": "dropID",
                  "type": "uint256"
                }
              ],
              "internalType": "struct IZoo.Meta",
              "name": "meta",
              "type": "tuple"
            },
            {
              "components": [
                {
                  "internalType": "string",
                  "name": "tokenURI",
                  "type": "string"
                },
                {
                  "internalType": "string",
                  "name": "metadataURI",
                  "type": "string"
                },
                {
                  "internalType": "bytes32",
                  "name": "contentHash",
                  "type": "bytes32"
                },
                {
                  "internalType": "bytes32",
                  "name": "metadataHash",
                  "type": "bytes32"
                }
              ],
              "internalType": "struct IMedia.MediaData",
              "name": "data",
              "type": "tuple"
            },
            {
              "components": [
                {
                  "components": [
                    {
                      "internalType": "uint256",
                      "name": "value",
                      "type": "uint256"
                    }
                  ],
                  "internalType": "struct Decimal.D256",
                  "name": "prevOwner",
                  "type": "tuple"
                },
                {
                  "components": [
                    {
                      "internalType": "uint256",
                      "name": "value",
                      "type": "uint256"
                    }
                  ],
                  "internalType": "struct Decimal.D256",
                  "name": "creator",
                  "type": "tuple"
                },
                {
                  "components": [
                    {
                      "internalType": "uint256",
                      "name": "value",
                      "type": "uint256"
                    }
                  ],
                  "internalType": "struct Decimal.D256",
                  "name": "owner",
                  "type": "tuple"
                }
              ],
              "internalType": "struct IMarket.BidShares",
              "name": "bidShares",
              "type": "tuple"
            }
          ],
          "internalType": "struct IZoo.Token",
          "name": "",
          "type": "tuple"
        }
      ],
      "stateMutability": "view",
      "type": "function"
    },
    {
      "inputs": [],
      "name": "owner",
      "outputs": [
        {
          "internalType": "address",
          "name": "",
          "type": "address"
        }
      ],
      "stateMutability": "view",
      "type": "function"
    },
    {
      "inputs": [
        {
          "internalType": "string",
          "name": "",
          "type": "string"
        }
      ],
      "name": "rarities",
      "outputs": [
        {
          "internalType": "string",
          "name": "name",
          "type": "string"
        },
        {
          "internalType": "uint256",
          "name": "probability",
          "type": "uint256"
        },
        {
          "internalType": "uint256",
          "name": "yield",
          "type": "uint256"
        },
        {
          "internalType": "uint256",
          "name": "boost",
          "type": "uint256"
        }
      ],
      "stateMutability": "view",
      "type": "function"
    },
    {
      "inputs": [
        {
          "internalType": "string",
          "name": "",
          "type": "string"
        },
        {
          "internalType": "uint256",
          "name": "",
          "type": "uint256"
        }
      ],
      "name": "rarityAnimals",
      "outputs": [
        {
          "internalType": "string",
          "name": "",
          "type": "string"
        }
      ],
      "stateMutability": "view",
      "type": "function"
    },
    {
      "inputs": [
        {
          "internalType": "uint256",
          "name": "",
          "type": "uint256"
        }
      ],
      "name": "raritySorted",
      "outputs": [
        {
          "internalType": "string",
          "name": "",
          "type": "string"
        }
      ],
      "stateMutability": "view",
      "type": "function"
    },
    {
      "inputs": [],
      "name": "renounceOwnership",
      "outputs": [],
      "stateMutability": "nonpayable",
      "type": "function"
    },
    {
      "inputs": [
        {
          "internalType": "string",
          "name": "name",
          "type": "string"
        },
        {
          "internalType": "string",
          "name": "rarity",
          "type": "string"
        },
        {
          "internalType": "string",
          "name": "tokenURI",
          "type": "string"
        },
        {
          "internalType": "string",
          "name": "metadataURI",
          "type": "string"
        }
      ],
      "name": "setAnimal",
      "outputs": [
        {
          "internalType": "bool",
          "name": "",
          "type": "bool"
        }
      ],
      "stateMutability": "nonpayable",
      "type": "function"
    },
    {
      "inputs": [
        {
          "internalType": "string",
          "name": "name",
          "type": "string"
        },
        {
          "internalType": "uint256",
          "name": "price",
          "type": "uint256"
        },
        {
          "internalType": "uint256",
          "name": "supply",
          "type": "uint256"
        },
        {
          "internalType": "string",
          "name": "tokenURI",
          "type": "string"
        },
        {
          "internalType": "string",
          "name": "metadataURI",
          "type": "string"
        }
      ],
      "name": "setEgg",
      "outputs": [
        {
          "components": [
            {
              "internalType": "enum IZoo.Type",
              "name": "kind",
              "type": "uint8"
            },
            {
              "internalType": "string",
              "name": "name",
              "type": "string"
            },
            {
              "internalType": "uint256",
              "name": "supply",
              "type": "uint256"
            },
            {
              "internalType": "uint256",
              "name": "price",
              "type": "uint256"
            },
            {
              "internalType": "uint256",
              "name": "timestamp",
              "type": "uint256"
            },
            {
              "internalType": "uint256",
              "name": "birthday",
              "type": "uint256"
            },
            {
              "internalType": "uint256",
              "name": "minted",
              "type": "uint256"
            },
            {
              "components": [
                {
                  "internalType": "string",
                  "name": "tokenURI",
                  "type": "string"
                },
                {
                  "internalType": "string",
                  "name": "metadataURI",
                  "type": "string"
                },
                {
                  "internalType": "bytes32",
                  "name": "contentHash",
                  "type": "bytes32"
                },
                {
                  "internalType": "bytes32",
                  "name": "metadataHash",
                  "type": "bytes32"
                }
              ],
              "internalType": "struct IMedia.MediaData",
              "name": "data",
              "type": "tuple"
            },
            {
              "components": [
                {
                  "components": [
                    {
                      "internalType": "uint256",
                      "name": "value",
                      "type": "uint256"
                    }
                  ],
                  "internalType": "struct Decimal.D256",
                  "name": "prevOwner",
                  "type": "tuple"
                },
                {
                  "components": [
                    {
                      "internalType": "uint256",
                      "name": "value",
                      "type": "uint256"
                    }
                  ],
                  "internalType": "struct Decimal.D256",
                  "name": "creator",
                  "type": "tuple"
                },
                {
                  "components": [
                    {
                      "internalType": "uint256",
                      "name": "value",
                      "type": "uint256"
                    }
                  ],
                  "internalType": "struct Decimal.D256",
                  "name": "owner",
                  "type": "tuple"
                }
              ],
              "internalType": "struct IMarket.BidShares",
              "name": "bidShares",
              "type": "tuple"
            }
          ],
          "internalType": "struct ZooDrop.Egg",
          "name": "",
          "type": "tuple"
        }
      ],
      "stateMutability": "nonpayable",
      "type": "function"
    },
    {
      "inputs": [
        {
          "internalType": "string",
          "name": "name",
          "type": "string"
        },
        {
          "internalType": "string",
          "name": "rarity",
          "type": "string"
        },
        {
          "internalType": "uint256",
          "name": "yield",
          "type": "uint256"
        },
        {
          "internalType": "string",
          "name": "parentA",
          "type": "string"
        },
        {
          "internalType": "string",
          "name": "parentB",
          "type": "string"
        },
        {
          "internalType": "string",
          "name": "tokenURI",
          "type": "string"
        },
        {
          "internalType": "string",
          "name": "metadataURI",
          "type": "string"
        }
      ],
      "name": "setHybrid",
      "outputs": [
        {
          "internalType": "bool",
          "name": "",
          "type": "bool"
        }
      ],
      "stateMutability": "nonpayable",
      "type": "function"
    },
    {
      "inputs": [
        {
          "internalType": "string",
          "name": "name",
          "type": "string"
        },
        {
          "internalType": "uint256",
          "name": "probability",
          "type": "uint256"
        },
        {
          "internalType": "uint256",
          "name": "yield",
          "type": "uint256"
        },
        {
          "internalType": "uint256",
          "name": "boost",
          "type": "uint256"
        }
      ],
      "name": "setRarity",
      "outputs": [
        {
          "internalType": "bool",
          "name": "",
          "type": "bool"
        }
      ],
      "stateMutability": "nonpayable",
      "type": "function"
    },
    {
      "inputs": [],
      "name": "title",
      "outputs": [
        {
          "internalType": "string",
          "name": "",
          "type": "string"
        }
      ],
      "stateMutability": "view",
      "type": "function"
    },
    {
      "inputs": [],
      "name": "totalSupply",
      "outputs": [
        {
          "internalType": "uint256",
          "name": "",
          "type": "uint256"
        }
      ],
      "stateMutability": "view",
      "type": "function"
    },
    {
      "inputs": [
        {
          "internalType": "address",
          "name": "newOwner",
          "type": "address"
        }
      ],
      "name": "transferOwnership",
      "outputs": [],
      "stateMutability": "nonpayable",
      "type": "function"
    }
  ],
  "transactionHash": "0xa55daee847adcc7e4156959ee18aee8350e938f2a66c4958291165e75cab129c",
  "args": [
    "Gen 0"
  ],
  "solcInputHash": "d897cdf3c2e8caac63bba867b2b1386f",
  "bytecode": "0x60806040523480156200001157600080fd5b506040516200478238038062004782833981016040819052620000349162000152565b6200003f336200005c565b805162000054906001906020840190620000ac565b50506200027b565b600080546001600160a01b038381166001600160a01b0319831681178455604051919092169283917f8be0079c531659141344cd1fd0a4f28419497f9722a3daafe3b4186f6b6457e09190a35050565b828054620000ba9062000228565b90600052602060002090601f016020900481019282620000de576000855562000129565b82601f10620000f957805160ff191683800117855562000129565b8280016001018555821562000129579182015b82811115620001295782518255916020019190600101906200010c565b50620001379291506200013b565b5090565b5b808211156200013757600081556001016200013c565b6000602080838503121562000165578182fd5b82516001600160401b03808211156200017c578384fd5b818501915085601f83011262000190578384fd5b815181811115620001a557620001a562000265565b604051601f8201601f19908116603f01168101908382118183101715620001d057620001d062000265565b816040528281528886848701011115620001e8578687fd5b8693505b828410156200020b5784840186015181850187015292850192620001ec565b828411156200021c57868684830101525b98975050505050505050565b600181811c908216806200023d57607f821691505b602082108114156200025f57634e487b7160e01b600052602260045260246000fd5b50919050565b634e487b7160e01b600052604160045260246000fd5b6144f7806200028b6000396000f3fe608060405234801561001057600080fd5b50600436106101545760003560e01c806301dca3b7146101595780630489a8f61461017757806308f8bcc61461018c57806318160ddd1461019f57806319c920b5146101b557806325fcf635146101d8578063305e35521461020057806335c3a2d4146102085780633b5c98561461021b5780634a79d50c1461022e57806351b2440b14610236578063715018a6146102495780637e617eca146102535780638398c91f146102775780638da5cb5b1461027f5780639447c33d1461029f5780639908a82a146102c2578063b67a85bd146102ca578063ba349bde146102dd578063bc143506146102f0578063c2b9bd6314610310578063c4903d2d14610323578063c7d8b6c51461034a578063d232b7971461035d578063e82baf3014610365578063ee99608e14610378578063f2fde38b1461038b578063f51c654f1461039e575b600080fd5b6101616103b1565b60405161016e919061408e565b60405180910390f35b61017f61043f565b60405161016e91906142c4565b61017f61019a366004613d93565b610794565b6101a7610e5b565b60405190815260200161016e565b6101c86101c3366004613a98565b610e76565b604051901515815260200161016e565b6101eb6101e63660046139fe565b61102f565b60405161016e99989796959493929190613f28565b6101a7611287565b610161610216366004613d93565b6112a2565b61017f610229366004613dab565b6112cd565b61016161138b565b6101c8610244366004613b3f565b611398565b6102516116fe565b005b6102666102613660046139fe565b611739565b60405161016e959493929190613f9a565b610161611a32565b610287611a3f565b6040516001600160a01b03909116815260200161016e565b6102b26102ad3660046139fe565b611a4e565b60405161016e9493929190614175565b6101a7611b09565b600454610287906001600160a01b031681565b6101616102eb366004613c37565b611b24565b6103036102fe366004613c79565b611b6b565b60405161016e9190614225565b61025161031e3660046139d0565b611cf7565b6103366103313660046139fe565b611d48565b60405161016e989796959493929190613ffa565b6103366103583660046139fe565b612163565b6101a76121a3565b61017f610373366004613d61565b6121b5565b610251610386366004613a38565b612322565b6102516103993660046139d0565b61237d565b6101c86103ac366004613d10565b61241d565b600380546103be90614425565b80601f01602080910402602001604051908101604052809291908181526020018280546103ea90614425565b80156104375780601f1061040c57610100808354040283529160200191610437565b820191906000526020600020905b81548152906001019060200180831161041a57829003601f168201915b505050505081565b6104476134c7565b6004546001600160a01b0316331461047a5760405162461bcd60e51b8152600401610471906141d9565b60405180910390fd5b600061050f6002805461048c90614425565b80601f01602080910402602001604051908101604052809291908181526020018280546104b890614425565b80156105055780601f106104da57610100808354040283529160200191610505565b820191906000526020600020905b8154815290600101906020018083116104e857829003601f168201915b505050505061256d565b90506105196121a3565b158061052f57506105286121a3565b8160c00151105b6105695760405162461bcd60e51b815260206004820152600b60248201526a4f7574206f66206567677360a81b6044820152606401610471565b60c081018051906105798261445a565b8152505080600882602001516040516105929190613edd565b90815260405190819003602001902081518154829060ff191660018360038111156105cd57634e487b7160e01b600052602160045260246000fd5b021790555060208281015180516105ea9260018501920190613598565b5060408201516002820155606082015160038201556080820151600482015560a0820151600582015560c0820151600682015560e082015180518051600784019161063a91839160200190613598565b5060208281015180516106539260018501920190613598565b5060408281015160028301556060909201516003909101556101009290920151805151600b830155602081015151600c83015582015151600d9091015580516101c08101909152600661018082019081526521b7b6b6b7b760d11b6101a083015281906106bf90612841565b81526020016000815260200182602001518152602001600081526020014281526020014381526020016040518060200160405280600081525081526020016040518060800160405280604051806020016040528060008152508152602001604051806020016040528060008152508152602001600081526020016000815250815260200160405180604001604052806000815260200160008152508152602001604051806040016040528060008152602001600081525081526020018260e00151815260200182610100015181525091505090565b61079c6134c7565b6107a461361c565b6107d56040518060400160405280600f81526020016e19d95d14985b991bdb505b9a5b585b608a1b81525084612929565b6040805180820190915260138152720e4c2e4d2e8f2a6dee4e8cac85cd8cadccee8d606b1b602082015260075461080c9190612929565b60005b600754811015610d545760006007828154811061083c57634e487b7160e01b600052603260045260246000fd5b90600052602060002001805461085190614425565b80601f016020809104026020016040519081016040528092919081815260200182805461087d90614425565b80156108ca5780601f1061089f576101008083540402835291602001916108ca565b820191906000526020600020905b8154815290600101906020018083116108ad57829003601f168201915b5050505050905060006005826040516108e39190613edd565b908152602001604051809103902060405180608001604052908160008201805461090c90614425565b80601f016020809104026020016040519081016040528092919081815260200182805461093890614425565b80156109855780601f1061095a57610100808354040283529160200191610985565b820191906000526020600020905b81548152906001019060200180831161096857829003601f168201915b50505050508152602001600182015481526020016002820154815260200160038201548152505090506109db6040518060400160405280600b81526020016a7261726974792e6e616d6560a81b81525083612972565b610a13604051806040016040528060128152602001717261726974792e70726f626162696c69747960701b8152508260200151612929565b610be36040518060400160405280600d81526020016c726172697479416e696d616c7360981b815250600684604051610a4c9190613edd565b9081526020016040518091039020600081548110610a7a57634e487b7160e01b600052603260045260246000fd5b906000526020600020018054610a8f90614425565b80601f0160208091040260200160405190810160405280929190818152602001828054610abb90614425565b8015610b085780601f10610add57610100808354040283529160200191610b08565b820191906000526020600020905b815481529060010190602001808311610aeb57829003601f168201915b5050505050600685604051610b1d9190613edd565b9081526020016040518091039020600181548110610b4b57634e487b7160e01b600052603260045260246000fd5b906000526020600020018054610b6090614425565b80601f0160208091040260200160405190810160405280929190818152602001828054610b8c90614425565b8015610bd95780601f10610bae57610100808354040283529160200191610bd9565b820191906000526020600020905b815481529060010190602001808311610bbc57829003601f168201915b50505050506129b7565b8581602001511180610c025750600754610bff906001906143e2565b83145b15610d3f576000600683604051610c199190613edd565b9081526020016040518091039020805480602002602001604051908101604052809291908181526020016000905b82821015610cf3578382906000526020600020018054610c6690614425565b80601f0160208091040260200160405190810160405280929190818152602001828054610c9290614425565b8015610cdf5780601f10610cb457610100808354040283529160200191610cdf565b820191906000526020600020905b815481529060010190602001808311610cc257829003601f168201915b505050505081526020019060010190610c47565b505050509050610d3581825189610d0a9190614475565b81518110610d2857634e487b7160e01b600052603260045260246000fd5b60200260200101516129fe565b9450505050610d54565b50508080610d4c9061445a565b91505061080f565b506001602083810191909152604082810180518286015260608401516101408601528383018051865260808086015161016088015242908701524360a087015282518084018452600c81526b1c985b991bdb505b9a5b585b60a21b94810194909452905190518051920151610dca939290612d63565b610e0e6040518060400160405280601a81526020017972616e646f6d416e696d616c2e646174612e746f6b656e55524960301b815250826060015160000151612972565b610e556040518060400160405280601d81526020017f72616e646f6d416e696d616c2e646174612e6d65746164617461555249000000815250826060015160200151612972565b50919050565b6000610e6d6002805461048c90614425565b60c00151905090565b600033610e81611a3f565b6001600160a01b031614610ea75760405162461bcd60e51b8152600401610471906141a4565b6040805160a081019091526000908060018152602001610ec687612841565b8152602001878152602001610edb8686612db2565b8152602001610ee8612de0565b815250905080600987604051610efe9190613edd565b90815260405190819003602001902081518154829060ff19166001836003811115610f3957634e487b7160e01b600052602160045260246000fd5b02179055506020828101518051805191926001850192610f5c9284920190613598565b5060208201518160010155604082015181600201556060820151816003015550506040820151816005019080519060200190610f99929190613598565b506060820151805180516006840191610fb791839160200190613598565b506020828101518051610fd09260018501920190613598565b50604082810151600283015560609092015160039091015560809290920151805151600a83015560208082015151600b8401559083015151600c9092019190915582015151908201516110239190612e23565b50600195945050505050565b80516020818301810180516008825292820191909301209152805460018201805460ff909216929161106090614425565b80601f016020809104026020016040519081016040528092919081815260200182805461108c90614425565b80156110d95780601f106110ae576101008083540402835291602001916110d9565b820191906000526020600020905b8154815290600101906020018083116110bc57829003601f168201915b5050505050908060020154908060030154908060040154908060050154908060060154908060070160405180608001604052908160008201805461111c90614425565b80601f016020809104026020016040519081016040528092919081815260200182805461114890614425565b80156111955780601f1061116a57610100808354040283529160200191611195565b820191906000526020600020905b81548152906001019060200180831161117857829003601f168201915b505050505081526020016001820180546111ae90614425565b80601f01602080910402602001604051908101604052809291908181526020018280546111da90614425565b80156112275780601f106111fc57610100808354040283529160200191611227565b820191906000526020600020905b81548152906001019060200180831161120a57829003601f168201915b505050918352505060028201546020808301919091526003909201546040918201528051608081018252600b85015460608201908152815281518084018352600c86015481528184015281519283018252600d9094015482528301529089565b60006112996002805461048c90614425565b60600151905090565b600781815481106112b257600080fd5b9060005260206000200160009150905080546103be90614425565b6112d56134c7565b600060405180604001604052806112f485600001518660200151612f8c565b815260200161130b85602001518660000151612f8c565b9052905060008161131d600287614475565b6002811061133b57634e487b7160e01b600052603260045260246000fd5b602090810291909101516003858301526040808201519086015260c081015161014086015290810151845260e0908101516101608501524260808501524360a08501528301939093525092915050565b600180546103be90614425565b6000336113a3611a3f565b6001600160a01b0316146113c95760405162461bcd60e51b8152600401610471906141a4565b60408051610100810190915260009080600381526020016113e98a612841565b81526020018a81526020018881526020018781526020018681526020016114108686612db2565b815260200161141d612de0565b815250905080600a8a6040516114339190613edd565b90815260405190819003602001902081518154829060ff1916600183600381111561146e57634e487b7160e01b600052602160045260246000fd5b021790555060208281015180518051919260018501926114919284920190613598565b50602082015181600101556040820151816002015560608201518160030155505060408201518160050190805190602001906114ce929190613598565b5060608201516006820155608082015180516114f4916007840191602090910190613598565b5060a08201518051611510916008840191602090910190613598565b5060c082015180518051600984019161152e91839160200190613598565b5060208281015180516115479260018501920190613598565b50604082810151600283015560609092015160039091015560e09290920151805151600d830155602081015151600e8301559091015151600f9091015580600b611591888861342a565b60405161159e9190613edd565b90815260405190819003602001902081518154829060ff191660018360038111156115d957634e487b7160e01b600052602160045260246000fd5b021790555060208281015180518051919260018501926115fc9284920190613598565b5060208201518160010155604082015181600201556060820151816003015550506040820151816005019080519060200190611639929190613598565b50606082015160068201556080820151805161165f916007840191602090910190613598565b5060a0820151805161167b916008840191602090910190613598565b5060c082015180518051600984019161169991839160200190613598565b5060208281015180516116b29260018501920190613598565b50604082810151600283015560609092015160039091015560e09290920151805151600d830155602081015151600e8301559091015151600f9091015550600198975050505050505050565b33611707611a3f565b6001600160a01b03161461172d5760405162461bcd60e51b8152600401610471906141a4565b6117376000613456565b565b805160208183018101805160098252928201919093012091528054604080516080810190915260018301805460ff90931693928290829061177990614425565b80601f01602080910402602001604051908101604052809291908181526020018280546117a590614425565b80156117f25780601f106117c7576101008083540402835291602001916117f2565b820191906000526020600020905b8154815290600101906020018083116117d557829003601f168201915b5050505050815260200160018201548152602001600282015481526020016003820154815250509080600501805461182990614425565b80601f016020809104026020016040519081016040528092919081815260200182805461185590614425565b80156118a25780601f10611877576101008083540402835291602001916118a2565b820191906000526020600020905b81548152906001019060200180831161188557829003601f168201915b505050505090806006016040518060800160405290816000820180546118c790614425565b80601f01602080910402602001604051908101604052809291908181526020018280546118f390614425565b80156119405780601f1061191557610100808354040283529160200191611940565b820191906000526020600020905b81548152906001019060200180831161192357829003601f168201915b5050505050815260200160018201805461195990614425565b80601f016020809104026020016040519081016040528092919081815260200182805461198590614425565b80156119d25780601f106119a7576101008083540402835291602001916119d2565b820191906000526020600020905b8154815290600101906020018083116119b557829003601f168201915b505050918352505060028201546020808301919091526003909201546040918201528051608081018252600a85015460608201908152815281518084018352600b86015481528184015281519283018252600c9094015482528301529085565b600280546103be90614425565b6000546001600160a01b031690565b8051602081830181018051600582529282019190930120915280548190611a7490614425565b80601f0160208091040260200160405190810160405280929190818152602001828054611aa090614425565b8015611aed5780601f10611ac257610100808354040283529160200191611aed565b820191906000526020600020905b815481529060010190602001808311611ad057829003601f168201915b5050505050908060010154908060020154908060030154905084565b6000611b1b6003805461048c90614425565b60400151905090565b81516020818401810180516006825292820191850191909120919052805482908110611b4f57600080fd5b906000526020600020016000915091505080546103be90614425565b611b7361364b565b33611b7c611a3f565b6001600160a01b031614611ba25760405162461bcd60e51b8152600401610471906141a4565b611baa61364b565b60208101879052611bbb8484612db2565b60e0820152611bc8612de0565b610100820152606081018690526040808201869052518190600890611bee908a90613edd565b90815260405190819003602001902081518154829060ff19166001836003811115611c2957634e487b7160e01b600052602160045260246000fd5b02179055506020828101518051611c469260018501920190613598565b5060408201516002820155606082015160038201556080820151600482015560a0820151600582015560c0820151600682015560e0820151805180516007840191611c9691839160200190613598565b506020828101518051611caf9260018501920190613598565b5060408281015160028301556060909201516003909101556101009290920151805151600b830155602081015151600c8301559091015151600d909101559695505050505050565b33611d00611a3f565b6001600160a01b031614611d265760405162461bcd60e51b8152600401610471906141a4565b600480546001600160a01b0319166001600160a01b0392909216919091179055565b8051602081830181018051600a8252928201919093012091528054604080516080810190915260018301805460ff909316939282908290611d8890614425565b80601f0160208091040260200160405190810160405280929190818152602001828054611db490614425565b8015611e015780601f10611dd657610100808354040283529160200191611e01565b820191906000526020600020905b815481529060010190602001808311611de457829003601f168201915b50505050508152602001600182015481526020016002820154815260200160038201548152505090806005018054611e3890614425565b80601f0160208091040260200160405190810160405280929190818152602001828054611e6490614425565b8015611eb15780601f10611e8657610100808354040283529160200191611eb1565b820191906000526020600020905b815481529060010190602001808311611e9457829003601f168201915b505050505090806006015490806007018054611ecc90614425565b80601f0160208091040260200160405190810160405280929190818152602001828054611ef890614425565b8015611f455780601f10611f1a57610100808354040283529160200191611f45565b820191906000526020600020905b815481529060010190602001808311611f2857829003601f168201915b505050505090806008018054611f5a90614425565b80601f0160208091040260200160405190810160405280929190818152602001828054611f8690614425565b8015611fd35780601f10611fa857610100808354040283529160200191611fd3565b820191906000526020600020905b815481529060010190602001808311611fb657829003601f168201915b50505050509080600901604051806080016040529081600082018054611ff890614425565b80601f016020809104026020016040519081016040528092919081815260200182805461202490614425565b80156120715780601f1061204657610100808354040283529160200191612071565b820191906000526020600020905b81548152906001019060200180831161205457829003601f168201915b5050505050815260200160018201805461208a90614425565b80601f01602080910402602001604051908101604052809291908181526020018280546120b690614425565b80156121035780601f106120d857610100808354040283529160200191612103565b820191906000526020600020905b8154815290600101906020018083116120e657829003601f168201915b505050918352505060028201546020808301919091526003909201546040918201528051608081018252600d85015460608201908152815281518084018352600e86015481528184015281519283018252600f9094015482528301529088565b8051602081830181018051600b8252928201919093012091528054604080516080810190915260018301805460ff909316939282908290611d8890614425565b6000611b1b6002805461048c90614425565b6121bd6134c7565b6004546001600160a01b031633146121e75760405162461bcd60e51b8152600401610471906141d9565b60006121f96003805461048c90614425565b9050612203611b09565b15806122195750612212611b09565b8160c00151105b61225a5760405162461bcd60e51b81526020600482015260126024820152714f7574206f6620687962726964206567677360701b6044820152606401610471565b604080516101c08101909152600661018082019081526521b7b6b6b7b760d11b6101a0830152819061228b90612841565b815260200160028152602001826020015181526020016000815260200142815260200143815260200160405180602001604052806000815250815260200184815260200160405180604001604052806000815260200160008152508152602001604051806040016040528060008152602001600081525081526020018260e001518152602001826101000151815250915050919050565b3361232b611a3f565b6001600160a01b0316146123515760405162461bcd60e51b8152600401610471906141a4565b8151612364906002906020850190613598565b508051612378906003906020840190613598565b505050565b33612386611a3f565b6001600160a01b0316146123ac5760405162461bcd60e51b8152600401610471906141a4565b6001600160a01b0381166124115760405162461bcd60e51b815260206004820152602660248201527f4f776e61626c653a206e6577206f776e657220697320746865207a65726f206160448201526564647265737360d01b6064820152608401610471565b61241a81613456565b50565b600033612428611a3f565b6001600160a01b03161461244e5760405162461bcd60e51b8152600401610471906141a4565b600084116124995760405162461bcd60e51b8152602060048201526018602482015277526172697479206d757374206265206f766572207a65726f60401b6044820152606401610471565b604080516080810182528681526020810186905280820185905260608101849052905181906005906124cc908990613edd565b908152602001604051809103902060008201518160000190805190602001906124f6929190613598565b506020828101516001808401919091556040840151600284015560609093015160039092019190915582516007805493840181556000528051612560937fa66cc928b5edb82af9bd49922954155ab7b0942694bea4ce44661d9a8736c68801929190910190613598565b5060019695505050505050565b61257561364b565b6008826040516125859190613edd565b9081526040805191829003602001822061012083019091528054829060ff1660038111156125c357634e487b7160e01b600052602160045260246000fd5b60038111156125e257634e487b7160e01b600052602160045260246000fd5b81526020016001820180546125f690614425565b80601f016020809104026020016040519081016040528092919081815260200182805461262290614425565b801561266f5780601f106126445761010080835404028352916020019161266f565b820191906000526020600020905b81548152906001019060200180831161265257829003601f168201915b505050505081526020016002820154815260200160038201548152602001600482015481526020016005820154815260200160068201548152602001600782016040518060800160405290816000820180546126ca90614425565b80601f01602080910402602001604051908101604052809291908181526020018280546126f690614425565b80156127435780601f1061271857610100808354040283529160200191612743565b820191906000526020600020905b81548152906001019060200180831161272657829003601f168201915b5050505050815260200160018201805461275c90614425565b80601f016020809104026020016040519081016040528092919081815260200182805461278890614425565b80156127d55780601f106127aa576101008083540402835291602001916127d5565b820191906000526020600020905b8154815290600101906020018083116127b857829003601f168201915b505050918352505060028201546020808301919091526003909201546040918201529183528151608081018352600b85015460608201908152815282518083018452600c86015481528183015282518083018452600d9095015485529182019390935291015292915050565b612849613691565b6005826040516128599190613edd565b908152602001604051809103902060405180608001604052908160008201805461288290614425565b80601f01602080910402602001604051908101604052809291908181526020018280546128ae90614425565b80156128fb5780601f106128d0576101008083540402835291602001916128fb565b820191906000526020600020905b8154815290600101906020018083116128de57829003601f168201915b5050505050815260200160018201548152602001600282015481526020016003820154815250509050919050565b61296e828260405160240161293f929190614153565b60408051601f198184030181529190526020810180516001600160e01b03166309710a9d60e41b1790526134a6565b5050565b61296e82826040516024016129889291906140a1565b60408051601f198184030181529190526020810180516001600160e01b0316634b5c427760e01b1790526134a6565b6123788383836040516024016129cf939291906140cf565b60408051601f198184030181529190526020810180516001600160e01b0316632ced7cef60e01b1790526134a6565b612a0661361c565b600982604051612a169190613edd565b9081526040805191829003602001822060a083019091528054829060ff166003811115612a5357634e487b7160e01b600052602160045260246000fd5b6003811115612a7257634e487b7160e01b600052602160045260246000fd5b815260200160018201604051806080016040529081600082018054612a9690614425565b80601f0160208091040260200160405190810160405280929190818152602001828054612ac290614425565b8015612b0f5780601f10612ae457610100808354040283529160200191612b0f565b820191906000526020600020905b815481529060010190602001808311612af257829003601f168201915b5050505050815260200160018201548152602001600282015481526020016003820154815250508152602001600582018054612b4a90614425565b80601f0160208091040260200160405190810160405280929190818152602001828054612b7690614425565b8015612bc35780601f10612b9857610100808354040283529160200191612bc3565b820191906000526020600020905b815481529060010190602001808311612ba657829003601f168201915b5050505050815260200160068201604051806080016040529081600082018054612bec90614425565b80601f0160208091040260200160405190810160405280929190818152602001828054612c1890614425565b8015612c655780601f10612c3a57610100808354040283529160200191612c65565b820191906000526020600020905b815481529060010190602001808311612c4857829003601f168201915b50505050508152602001600182018054612c7e90614425565b80601f0160208091040260200160405190810160405280929190818152602001828054612caa90614425565b8015612cf75780601f10612ccc57610100808354040283529160200191612cf7565b820191906000526020600020905b815481529060010190602001808311612cda57829003601f168201915b505050918352505060028201546020808301919091526003909201546040918201529183528151608081018352600a85015460608201908152815282518083018452600b86015481528183015282518083018452600c9095015485529182019390935291015292915050565b612dac84848484604051602401612d7d9493929190614108565b60408051601f198184030181529190526020810180516001600160e01b0316639fd009f560e01b1790526134a6565b50505050565b612dba6136b9565b506040805160808101825292835260208301919091526000908201819052606082015290565b612de86136e0565b5060408051608081018252600a6060820181815282528251602081810185529181528183015282519081018352605081529181019190915290565b6000600683604051612e359190613edd565b9081526020016040518091039020905060005b8154811015612f38576000828281548110612e7357634e487b7160e01b600052603260045260246000fd5b906000526020600020018054612e8890614425565b80601f0160208091040260200160405190810160405280929190818152602001828054612eb490614425565b8015612f015780601f10612ed657610100808354040283529160200191612f01565b820191906000526020600020905b815481529060010190602001808311612ee457829003601f168201915b50505050509050808051906020012084805190602001201415612f25575050505050565b5080612f308161445a565b915050612e48565b50805460018101825560008281526020908190208451612f5f939190910191850190613598565b5080600684604051612f719190613edd565b9081526040519081900360200190208154612dac929061370d565b612f9461376f565b600b612fa0848461342a565b604051612fad9190613edd565b9081526040805191829003602001822061010083019091528054829060ff166003811115612feb57634e487b7160e01b600052602160045260246000fd5b600381111561300a57634e487b7160e01b600052602160045260246000fd5b81526020016001820160405180608001604052908160008201805461302e90614425565b80601f016020809104026020016040519081016040528092919081815260200182805461305a90614425565b80156130a75780601f1061307c576101008083540402835291602001916130a7565b820191906000526020600020905b81548152906001019060200180831161308a57829003601f168201915b50505050508152602001600182015481526020016002820154815260200160038201548152505081526020016005820180546130e290614425565b80601f016020809104026020016040519081016040528092919081815260200182805461310e90614425565b801561315b5780601f106131305761010080835404028352916020019161315b565b820191906000526020600020905b81548152906001019060200180831161313e57829003601f168201915b505050505081526020016006820154815260200160078201805461317e90614425565b80601f01602080910402602001604051908101604052809291908181526020018280546131aa90614425565b80156131f75780601f106131cc576101008083540402835291602001916131f7565b820191906000526020600020905b8154815290600101906020018083116131da57829003601f168201915b5050505050815260200160088201805461321090614425565b80601f016020809104026020016040519081016040528092919081815260200182805461323c90614425565b80156132895780601f1061325e57610100808354040283529160200191613289565b820191906000526020600020905b81548152906001019060200180831161326c57829003601f168201915b50505050508152602001600982016040518060800160405290816000820180546132b290614425565b80601f01602080910402602001604051908101604052809291908181526020018280546132de90614425565b801561332b5780601f106133005761010080835404028352916020019161332b565b820191906000526020600020905b81548152906001019060200180831161330e57829003601f168201915b5050505050815260200160018201805461334490614425565b80601f016020809104026020016040519081016040528092919081815260200182805461337090614425565b80156133bd5780601f10613392576101008083540402835291602001916133bd565b820191906000526020600020905b8154815290600101906020018083116133a057829003601f168201915b505050918352505060028201546020808301919091526003909201546040918201529183528151608081018352600d85015460608201908152815282518083018452600e86015481528183015282518083018452600f909501548552918201939093529101529392505050565b6060828260405160200161343f929190613ef9565b604051602081830303815290604052905092915050565b600080546001600160a01b038381166001600160a01b0319831681178455604051919092169283917f8be0079c531659141344cd1fd0a4f28419497f9722a3daafe3b4186f6b6457e09190a35050565b80516a636f6e736f6c652e6c6f67602083016000808483855afa5050505050565b6040518061018001604052806134db613691565b81526020016000815260200160608152602001600081526020016000815260200160008152602001606081526020016135356040518060800160405280606081526020016060815260200160008152602001600081525090565b8152602001613557604051806040016040528060008152602001600081525090565b8152602001613579604051806040016040528060008152602001600081525090565b81526020016135866136b9565b81526020016135936136e0565b905290565b8280546135a490614425565b90600052602060002090601f0160209004810192826135c6576000855561360c565b82601f106135df57805160ff191683800117855561360c565b8280016001018555821561360c579182015b8281111561360c5782518255916020019190600101906135f1565b506136189291506137b4565b5090565b6040805160a081019091528060008152602001613637613691565b8152602001606081526020016135866136b9565b60408051610120810190915280600081526020016060815260200160008152602001600081526020016000815260200160008152602001600081526020016135866136b9565b6040518060800160405280606081526020016000815260200160008152602001600081525090565b60408051608081018252606080825260208201819052600092820183905281019190915290565b60405180606001604052806136f36137c9565b81526020016137006137c9565b81526020016135936137c9565b8280548282559060005260206000209081019282156137635760005260206000209182015b8281111561376357828290805461374890614425565b6137539291906137dc565b5091600101919060010190613732565b50613618929150613857565b604080516101008101909152806000815260200161378b613691565b8152602001606081526020016000815260200160608152602001606081526020016135866136b9565b5b8082111561361857600081556001016137b5565b6040518060200160405280600081525090565b8280546137e890614425565b90600052602060002090601f01602090048101928261380a576000855561360c565b82601f1061381b578054855561360c565b8280016001018555821561360c57600052602060002091601f016020900482015b8281111561360c57825482559160010191906001019061383c565b8082111561361857600061386b8282613874565b50600101613857565b50805461388090614425565b6000825580601f10613890575050565b601f01602090049060005260206000209081019061241a91906137b4565b600082601f8301126138be578081fd5b81356001600160401b03808211156138d8576138d86144ab565b604051601f8301601f19908116603f01168101908282118183101715613900576139006144ab565b81604052838152866020858801011115613918578485fd5b8360208701602083013792830160200193909352509392505050565b600060808284031215613945578081fd5b604051608081016001600160401b038282108183111715613968576139686144ab565b81604052829350843591508082111561398057600080fd5b61398c868387016138ae565b835260208501359150808211156139a257600080fd5b506139af858286016138ae565b60208301525060408301356040820152606083013560608201525092915050565b6000602082840312156139e1578081fd5b81356001600160a01b03811681146139f7578182fd5b9392505050565b600060208284031215613a0f578081fd5b81356001600160401b03811115613a24578182fd5b613a30848285016138ae565b949350505050565b60008060408385031215613a4a578081fd5b82356001600160401b0380821115613a60578283fd5b613a6c868387016138ae565b93506020850135915080821115613a81578283fd5b50613a8e858286016138ae565b9150509250929050565b60008060008060808587031215613aad578182fd5b84356001600160401b0380821115613ac3578384fd5b613acf888389016138ae565b95506020870135915080821115613ae4578384fd5b613af0888389016138ae565b94506040870135915080821115613b05578384fd5b613b11888389016138ae565b93506060870135915080821115613b26578283fd5b50613b33878288016138ae565b91505092959194509250565b600080600080600080600060e0888a031215613b59578283fd5b87356001600160401b0380821115613b6f578485fd5b613b7b8b838c016138ae565b985060208a0135915080821115613b90578485fd5b613b9c8b838c016138ae565b975060408a0135965060608a0135915080821115613bb8578485fd5b613bc48b838c016138ae565b955060808a0135915080821115613bd9578485fd5b613be58b838c016138ae565b945060a08a0135915080821115613bfa578384fd5b613c068b838c016138ae565b935060c08a0135915080821115613c1b578283fd5b50613c288a828b016138ae565b91505092959891949750929550565b60008060408385031215613c49578182fd5b82356001600160401b03811115613c5e578283fd5b613c6a858286016138ae565b95602094909401359450505050565b600080600080600060a08688031215613c90578081fd5b85356001600160401b0380821115613ca6578283fd5b613cb289838a016138ae565b965060208801359550604088013594506060880135915080821115613cd5578283fd5b613ce189838a016138ae565b93506080880135915080821115613cf6578283fd5b50613d03888289016138ae565b9150509295509295909350565b60008060008060808587031215613d25578384fd5b84356001600160401b03811115613d3a578485fd5b613d46878288016138ae565b97602087013597506040870135966060013595509350505050565b600060208284031215613d72578081fd5b81356001600160401b03811115613d87578182fd5b613a3084828501613934565b600060208284031215613da4578081fd5b5035919050565b60008060408385031215613dbd578182fd5b8235915060208301356001600160401b03811115613dd9578182fd5b613a8e85828601613934565b60048110613e0357634e487b7160e01b600052602160045260246000fd5b9052565b60008151808452613e1f8160208601602086016143f9565b601f01601f19169290920160200192915050565b8051518252602080820151519083015260409081015151910152565b6000815160808452613e646080850182613e07565b905060208301518482036020860152613e7d8282613e07565b91505060408301516040850152606083015160608501528091505092915050565b6000815160808452613eb36080850182613e07565b90506020830151602085015260408301516040850152606083015160608501528091505092915050565b60008251613eef8184602087016143f9565b9190910192915050565b60008351613f0b8184602088016143f9565b835190830190613f1f8183602088016143f9565b01949350505050565b6000610160613f37838d613de5565b806020840152613f498184018c613e07565b90508960408401528860608401528760808401528660a08401528560c084015282810360e0840152613f7b8186613e4f565b915050613f8c610100830184613e33565b9a9950505050505050505050565b613fa48187613de5565b60e060208201526000613fba60e0830187613e9e565b8281036040840152613fcc8187613e07565b90508281036060840152613fe08186613e4f565b915050613ff06080830184613e33565b9695505050505050565b6000610140614009838c613de5565b80602084015261401b8184018b613e9e565b9050828103604084015261402f818a613e07565b905087606084015282810360808401526140498188613e07565b905082810360a084015261405d8187613e07565b905082810360c08401526140718186613e4f565b91505061408160e0830184613e33565b9998505050505050505050565b6020815260006139f76020830184613e07565b6040815260006140b46040830185613e07565b82810360208401526140c68185613e07565b95945050505050565b6060815260006140e26060830186613e07565b82810360208401526140f48186613e07565b90508281036040840152613ff08185613e07565b60808152600061411b6080830187613e07565b828103602084015261412d8187613e07565b905082810360408401526141418186613e07565b91505082606083015295945050505050565b6040815260006141666040830185613e07565b90508260208301529392505050565b6080815260006141886080830187613e07565b6020830195909552506040810192909252606090910152919050565b6020808252818101527f4f776e61626c653a2063616c6c6572206973206e6f7420746865206f776e6572604082015260600190565b6020808252602c908201527f5a6f6f44726f703a204f6e6c79205a6f6f4b65657065722063616e2063616c6c60408201526b081d1a1a5cc81b595d1a1bd960a21b606082015260800190565b60208152614237602082018351613de5565b600060208301516101606040840152614254610180840182613e07565b90506040840151606084015260608401516080840152608084015160a084015260a084015160c084015260c084015160e084015260e0840151610100601f1985840301818601526142a58383613e4f565b9250808601519150506142bc610120850182613e33565b509392505050565b602081526000825161020060208401526142e2610220840182613e9e565b905060208401516142f66040850182613de5565b506040840151601f19808584030160608601526143138383613e07565b925060608601516080860152608086015160a086015260a086015160c086015260c08601519150808584030160e086015261434e8383613e07565b925060e0860151915061010081868503018187015261436d8484613e4f565b93508087015192505061012061438f8187018480518252602090810151910152565b86015191506101606143ad8682018480518252602090810151910152565b610140870151925081868503016101a08701526143ca8484613e4f565b935080870151925050506142bc6101c0850182613e33565b6000828210156143f4576143f4614495565b500390565b60005b838110156144145781810151838201526020016143fc565b83811115612dac5750506000910152565b600181811c9082168061443957607f821691505b60208210811415610e5557634e487b7160e01b600052602260045260246000fd5b600060001982141561446e5761446e614495565b5060010190565b60008261449057634e487b7160e01b81526012600452602481fd5b500690565b634e487b7160e01b600052601160045260246000fd5b634e487b7160e01b600052604160045260246000fdfea26469706673582212208bd42cb8bad49a15cb0b69e51b4fa2e99f9aed2135b9f5789c0c59ea134e70dd64736f6c63430008040033",
  "devdoc": {
    "kind": "dev",
    "methods": {
      "owner()": {
        "details": "Returns the address of the current owner."
      },
      "renounceOwnership()": {
        "details": "Leaves the contract without owner. It will not be possible to call `onlyOwner` functions anymore. Can only be called by the current owner. NOTE: Renouncing ownership will leave the contract without an owner, thereby removing any functionality that is only available to the owner."
      },
      "transferOwnership(address)": {
        "details": "Transfers ownership of the contract to a new account (`newOwner`). Can only be called by the current owner."
      }
    },
    "version": 1
  },
  "userdoc": {
    "kind": "user",
    "methods": {},
    "version": 1
  },
  "storageLayout": {
    "storage": [
      {
        "astId": 7,
        "contract": "src/ZooDrop.sol:ZooDrop",
        "label": "_owner",
        "offset": 0,
        "slot": "0",
        "type": "t_address"
      },
      {
        "astId": 6757,
        "contract": "src/ZooDrop.sol:ZooDrop",
        "label": "title",
        "offset": 0,
        "slot": "1",
        "type": "t_string_storage"
      },
      {
        "astId": 6759,
        "contract": "src/ZooDrop.sol:ZooDrop",
        "label": "baseEgg",
        "offset": 0,
        "slot": "2",
        "type": "t_string_storage"
      },
      {
        "astId": 6761,
        "contract": "src/ZooDrop.sol:ZooDrop",
        "label": "hybridEgg",
        "offset": 0,
        "slot": "3",
        "type": "t_string_storage"
      },
      {
        "astId": 6763,
        "contract": "src/ZooDrop.sol:ZooDrop",
        "label": "keeperAddress",
        "offset": 0,
        "slot": "4",
        "type": "t_address"
      },
      {
        "astId": 6768,
        "contract": "src/ZooDrop.sol:ZooDrop",
        "label": "rarities",
        "offset": 0,
        "slot": "5",
        "type": "t_mapping(t_string_memory_ptr,t_struct(Rarity)19912_storage)"
      },
      {
        "astId": 6773,
        "contract": "src/ZooDrop.sol:ZooDrop",
        "label": "rarityAnimals",
        "offset": 0,
        "slot": "6",
        "type": "t_mapping(t_string_memory_ptr,t_array(t_string_storage)dyn_storage)"
      },
      {
        "astId": 6776,
        "contract": "src/ZooDrop.sol:ZooDrop",
        "label": "raritySorted",
        "offset": 0,
        "slot": "7",
        "type": "t_array(t_string_storage)dyn_storage"
      },
      {
        "astId": 6781,
        "contract": "src/ZooDrop.sol:ZooDrop",
        "label": "eggs",
        "offset": 0,
        "slot": "8",
        "type": "t_mapping(t_string_memory_ptr,t_struct(Egg)6719_storage)"
      },
      {
        "astId": 6786,
        "contract": "src/ZooDrop.sol:ZooDrop",
        "label": "animals",
        "offset": 0,
        "slot": "9",
        "type": "t_mapping(t_string_memory_ptr,t_struct(Animal)6734_storage)"
      },
      {
        "astId": 6791,
        "contract": "src/ZooDrop.sol:ZooDrop",
        "label": "hybrids",
        "offset": 0,
        "slot": "10",
        "type": "t_mapping(t_string_memory_ptr,t_struct(Hybrid)6755_storage)"
      },
      {
        "astId": 6796,
        "contract": "src/ZooDrop.sol:ZooDrop",
        "label": "hybridParents",
        "offset": 0,
        "slot": "11",
        "type": "t_mapping(t_string_memory_ptr,t_struct(Hybrid)6755_storage)"
      }
    ],
    "types": {
      "t_address": {
        "encoding": "inplace",
        "label": "address",
        "numberOfBytes": "20"
      },
      "t_array(t_string_storage)dyn_storage": {
        "base": "t_string_storage",
        "encoding": "dynamic_array",
        "label": "string[]",
        "numberOfBytes": "32"
      },
      "t_bytes32": {
        "encoding": "inplace",
        "label": "bytes32",
        "numberOfBytes": "32"
      },
      "t_enum(Type)19903": {
        "encoding": "inplace",
        "label": "enum IZoo.Type",
        "numberOfBytes": "1"
      },
      "t_mapping(t_string_memory_ptr,t_array(t_string_storage)dyn_storage)": {
        "encoding": "mapping",
        "key": "t_string_memory_ptr",
        "label": "mapping(string => string[])",
        "numberOfBytes": "32",
        "value": "t_array(t_string_storage)dyn_storage"
      },
      "t_mapping(t_string_memory_ptr,t_struct(Animal)6734_storage)": {
        "encoding": "mapping",
        "key": "t_string_memory_ptr",
        "label": "mapping(string => struct ZooDrop.Animal)",
        "numberOfBytes": "32",
        "value": "t_struct(Animal)6734_storage"
      },
      "t_mapping(t_string_memory_ptr,t_struct(Egg)6719_storage)": {
        "encoding": "mapping",
        "key": "t_string_memory_ptr",
        "label": "mapping(string => struct ZooDrop.Egg)",
        "numberOfBytes": "32",
        "value": "t_struct(Egg)6719_storage"
      },
      "t_mapping(t_string_memory_ptr,t_struct(Hybrid)6755_storage)": {
        "encoding": "mapping",
        "key": "t_string_memory_ptr",
        "label": "mapping(string => struct ZooDrop.Hybrid)",
        "numberOfBytes": "32",
        "value": "t_struct(Hybrid)6755_storage"
      },
      "t_mapping(t_string_memory_ptr,t_struct(Rarity)19912_storage)": {
        "encoding": "mapping",
        "key": "t_string_memory_ptr",
        "label": "mapping(string => struct IZoo.Rarity)",
        "numberOfBytes": "32",
        "value": "t_struct(Rarity)19912_storage"
      },
      "t_string_memory_ptr": {
        "encoding": "bytes",
        "label": "string",
        "numberOfBytes": "32"
      },
      "t_string_storage": {
        "encoding": "bytes",
        "label": "string",
        "numberOfBytes": "32"
      },
      "t_struct(Animal)6734_storage": {
        "encoding": "inplace",
        "label": "struct ZooDrop.Animal",
        "members": [
          {
            "astId": 6722,
            "contract": "src/ZooDrop.sol:ZooDrop",
            "label": "kind",
            "offset": 0,
            "slot": "0",
            "type": "t_enum(Type)19903"
          },
          {
            "astId": 6725,
            "contract": "src/ZooDrop.sol:ZooDrop",
            "label": "rarity",
            "offset": 0,
            "slot": "1",
            "type": "t_struct(Rarity)19912_storage"
          },
          {
            "astId": 6727,
            "contract": "src/ZooDrop.sol:ZooDrop",
            "label": "name",
            "offset": 0,
            "slot": "5",
            "type": "t_string_storage"
          },
          {
            "astId": 6730,
            "contract": "src/ZooDrop.sol:ZooDrop",
            "label": "data",
            "offset": 0,
            "slot": "6",
            "type": "t_struct(MediaData)19738_storage"
          },
          {
            "astId": 6733,
            "contract": "src/ZooDrop.sol:ZooDrop",
            "label": "bidShares",
            "offset": 0,
            "slot": "10",
            "type": "t_struct(BidShares)19570_storage"
          }
        ],
        "numberOfBytes": "416"
      },
      "t_struct(BidShares)19570_storage": {
        "encoding": "inplace",
        "label": "struct IMarket.BidShares",
        "members": [
          {
            "astId": 19563,
            "contract": "src/ZooDrop.sol:ZooDrop",
            "label": "prevOwner",
            "offset": 0,
            "slot": "0",
            "type": "t_struct(D256)4192_storage"
          },
          {
            "astId": 19566,
            "contract": "src/ZooDrop.sol:ZooDrop",
            "label": "creator",
            "offset": 0,
            "slot": "1",
            "type": "t_struct(D256)4192_storage"
          },
          {
            "astId": 19569,
            "contract": "src/ZooDrop.sol:ZooDrop",
            "label": "owner",
            "offset": 0,
            "slot": "2",
            "type": "t_struct(D256)4192_storage"
          }
        ],
        "numberOfBytes": "96"
      },
      "t_struct(D256)4192_storage": {
        "encoding": "inplace",
        "label": "struct Decimal.D256",
        "members": [
          {
            "astId": 4191,
            "contract": "src/ZooDrop.sol:ZooDrop",
            "label": "value",
            "offset": 0,
            "slot": "0",
            "type": "t_uint256"
          }
        ],
        "numberOfBytes": "32"
      },
      "t_struct(Egg)6719_storage": {
        "encoding": "inplace",
        "label": "struct ZooDrop.Egg",
        "members": [
          {
            "astId": 6700,
            "contract": "src/ZooDrop.sol:ZooDrop",
            "label": "kind",
            "offset": 0,
            "slot": "0",
            "type": "t_enum(Type)19903"
          },
          {
            "astId": 6702,
            "contract": "src/ZooDrop.sol:ZooDrop",
            "label": "name",
            "offset": 0,
            "slot": "1",
            "type": "t_string_storage"
          },
          {
            "astId": 6704,
            "contract": "src/ZooDrop.sol:ZooDrop",
            "label": "supply",
            "offset": 0,
            "slot": "2",
            "type": "t_uint256"
          },
          {
            "astId": 6706,
            "contract": "src/ZooDrop.sol:ZooDrop",
            "label": "price",
            "offset": 0,
            "slot": "3",
            "type": "t_uint256"
          },
          {
            "astId": 6708,
            "contract": "src/ZooDrop.sol:ZooDrop",
            "label": "timestamp",
            "offset": 0,
            "slot": "4",
            "type": "t_uint256"
          },
          {
            "astId": 6710,
            "contract": "src/ZooDrop.sol:ZooDrop",
            "label": "birthday",
            "offset": 0,
            "slot": "5",
            "type": "t_uint256"
          },
          {
            "astId": 6712,
            "contract": "src/ZooDrop.sol:ZooDrop",
            "label": "minted",
            "offset": 0,
            "slot": "6",
            "type": "t_uint256"
          },
          {
            "astId": 6715,
            "contract": "src/ZooDrop.sol:ZooDrop",
            "label": "data",
            "offset": 0,
            "slot": "7",
            "type": "t_struct(MediaData)19738_storage"
          },
          {
            "astId": 6718,
            "contract": "src/ZooDrop.sol:ZooDrop",
            "label": "bidShares",
            "offset": 0,
            "slot": "11",
            "type": "t_struct(BidShares)19570_storage"
          }
        ],
        "numberOfBytes": "448"
      },
      "t_struct(Hybrid)6755_storage": {
        "encoding": "inplace",
        "label": "struct ZooDrop.Hybrid",
        "members": [
          {
            "astId": 6737,
            "contract": "src/ZooDrop.sol:ZooDrop",
            "label": "kind",
            "offset": 0,
            "slot": "0",
            "type": "t_enum(Type)19903"
          },
          {
            "astId": 6740,
            "contract": "src/ZooDrop.sol:ZooDrop",
            "label": "rarity",
            "offset": 0,
            "slot": "1",
            "type": "t_struct(Rarity)19912_storage"
          },
          {
            "astId": 6742,
            "contract": "src/ZooDrop.sol:ZooDrop",
            "label": "name",
            "offset": 0,
            "slot": "5",
            "type": "t_string_storage"
          },
          {
            "astId": 6744,
            "contract": "src/ZooDrop.sol:ZooDrop",
            "label": "yield",
            "offset": 0,
            "slot": "6",
            "type": "t_uint256"
          },
          {
            "astId": 6746,
            "contract": "src/ZooDrop.sol:ZooDrop",
            "label": "parentA",
            "offset": 0,
            "slot": "7",
            "type": "t_string_storage"
          },
          {
            "astId": 6748,
            "contract": "src/ZooDrop.sol:ZooDrop",
            "label": "parentB",
            "offset": 0,
            "slot": "8",
            "type": "t_string_storage"
          },
          {
            "astId": 6751,
            "contract": "src/ZooDrop.sol:ZooDrop",
            "label": "data",
            "offset": 0,
            "slot": "9",
            "type": "t_struct(MediaData)19738_storage"
          },
          {
            "astId": 6754,
            "contract": "src/ZooDrop.sol:ZooDrop",
            "label": "bidShares",
            "offset": 0,
            "slot": "13",
            "type": "t_struct(BidShares)19570_storage"
          }
        ],
        "numberOfBytes": "512"
      },
      "t_struct(MediaData)19738_storage": {
        "encoding": "inplace",
        "label": "struct IMedia.MediaData",
        "members": [
          {
            "astId": 19731,
            "contract": "src/ZooDrop.sol:ZooDrop",
            "label": "tokenURI",
            "offset": 0,
            "slot": "0",
            "type": "t_string_storage"
          },
          {
            "astId": 19733,
            "contract": "src/ZooDrop.sol:ZooDrop",
            "label": "metadataURI",
            "offset": 0,
            "slot": "1",
            "type": "t_string_storage"
          },
          {
            "astId": 19735,
            "contract": "src/ZooDrop.sol:ZooDrop",
            "label": "contentHash",
            "offset": 0,
            "slot": "2",
            "type": "t_bytes32"
          },
          {
            "astId": 19737,
            "contract": "src/ZooDrop.sol:ZooDrop",
            "label": "metadataHash",
            "offset": 0,
            "slot": "3",
            "type": "t_bytes32"
          }
        ],
        "numberOfBytes": "128"
      },
      "t_struct(Rarity)19912_storage": {
        "encoding": "inplace",
        "label": "struct IZoo.Rarity",
        "members": [
          {
            "astId": 19905,
            "contract": "src/ZooDrop.sol:ZooDrop",
            "label": "name",
            "offset": 0,
            "slot": "0",
            "type": "t_string_storage"
          },
          {
            "astId": 19907,
            "contract": "src/ZooDrop.sol:ZooDrop",
            "label": "probability",
            "offset": 0,
            "slot": "1",
            "type": "t_uint256"
          },
          {
            "astId": 19909,
            "contract": "src/ZooDrop.sol:ZooDrop",
            "label": "yield",
            "offset": 0,
            "slot": "2",
            "type": "t_uint256"
          },
          {
            "astId": 19911,
            "contract": "src/ZooDrop.sol:ZooDrop",
            "label": "boost",
            "offset": 0,
            "slot": "3",
            "type": "t_uint256"
          }
        ],
        "numberOfBytes": "128"
      },
      "t_uint256": {
        "encoding": "inplace",
        "label": "uint256",
        "numberOfBytes": "32"
      }
    }
  }
}