{
  "address": "0x7722A4ea02386897bdb461Eebe1c327D8314d25D",
  "abi": [
    {
      "anonymous": false,
      "inputs": [
        {
          "indexed": true,
          "internalType": "address",
          "name": "dropAddress",
          "type": "address"
        },
        {
          "indexed": false,
          "internalType": "string",
          "name": "title",
          "type": "string"
        },
        {
          "indexed": false,
          "internalType": "uint256",
          "name": "eggSupply",
          "type": "uint256"
        }
      ],
      "name": "AddDrop",
      "type": "event"
    },
    {
      "anonymous": false,
      "inputs": [
        {
          "indexed": true,
          "internalType": "address",
          "name": "from",
          "type": "address"
        },
        {
          "indexed": false,
          "internalType": "uint256",
          "name": "parentA",
          "type": "uint256"
        },
        {
          "indexed": false,
          "internalType": "uint256",
          "name": "parentB",
          "type": "uint256"
        },
        {
          "indexed": true,
          "internalType": "uint256",
          "name": "tokenID",
          "type": "uint256"
        }
      ],
      "name": "Breed",
      "type": "event"
    },
    {
      "anonymous": false,
      "inputs": [
        {
          "indexed": true,
          "internalType": "address",
          "name": "from",
          "type": "address"
        },
        {
          "indexed": true,
          "internalType": "uint256",
          "name": "tokenID",
          "type": "uint256"
        }
      ],
      "name": "Burn",
      "type": "event"
    },
    {
      "anonymous": false,
      "inputs": [
        {
          "indexed": true,
          "internalType": "address",
          "name": "from",
          "type": "address"
        },
        {
          "indexed": true,
          "internalType": "uint256",
          "name": "tokenID",
          "type": "uint256"
        }
      ],
      "name": "BuyEgg",
      "type": "event"
    },
    {
      "anonymous": false,
      "inputs": [
        {
          "indexed": true,
          "internalType": "address",
          "name": "from",
          "type": "address"
        },
        {
          "indexed": true,
          "internalType": "uint256",
          "name": "tokenID",
          "type": "uint256"
        },
        {
          "indexed": true,
          "internalType": "uint256",
          "name": "yield",
          "type": "uint256"
        }
      ],
      "name": "Free",
      "type": "event"
    },
    {
      "anonymous": false,
      "inputs": [
        {
          "indexed": true,
          "internalType": "address",
          "name": "from",
          "type": "address"
        },
        {
          "indexed": false,
          "internalType": "uint256",
          "name": "eggID",
          "type": "uint256"
        },
        {
          "indexed": true,
          "internalType": "string",
          "name": "name",
          "type": "string"
        },
        {
          "indexed": true,
          "internalType": "uint256",
          "name": "tokenID",
          "type": "uint256"
        }
      ],
      "name": "Hatch",
      "type": "event"
    },
    {
      "anonymous": false,
      "inputs": [
        {
          "indexed": true,
          "internalType": "address",
          "name": "from",
          "type": "address"
        },
        {
          "indexed": true,
          "internalType": "uint256",
          "name": "tokenID",
          "type": "uint256"
        }
      ],
      "name": "Mint",
      "type": "event"
    },
    {
      "anonymous": false,
      "inputs": [
        {
          "indexed": true,
          "internalType": "address",
          "name": "previousOwner",
          "type": "address"
        },
        {
          "indexed": true,
          "internalType": "address",
          "name": "newOwner",
          "type": "address"
        }
      ],
      "name": "OwnershipTransferred",
      "type": "event"
    },
    {
      "inputs": [
        {
          "internalType": "uint256",
          "name": "dropID",
          "type": "uint256"
        },
        {
          "internalType": "uint256",
          "name": "tokenA",
          "type": "uint256"
        },
        {
          "internalType": "uint256",
          "name": "tokenB",
          "type": "uint256"
        }
      ],
      "name": "breedAnimals",
      "outputs": [
        {
          "components": [
            {
              "components": [
                {
                  "internalType": "string",
                  "name": "name",
                  "type": "string"
                },
                {
                  "internalType": "uint256",
                  "name": "probability",
                  "type": "uint256"
                },
                {
                  "internalType": "uint256",
                  "name": "yield",
                  "type": "uint256"
                },
                {
                  "internalType": "uint256",
                  "name": "boost",
                  "type": "uint256"
                }
              ],
              "internalType": "struct IZoo.Rarity",
              "name": "rarity",
              "type": "tuple"
            },
            {
              "internalType": "enum IZoo.Type",
              "name": "kind",
              "type": "uint8"
            },
            {
              "internalType": "string",
              "name": "name",
              "type": "string"
            },
            {
              "internalType": "uint256",
              "name": "id",
              "type": "uint256"
            },
            {
              "internalType": "uint256",
              "name": "timestamp",
              "type": "uint256"
            },
            {
              "internalType": "uint256",
              "name": "birthday",
              "type": "uint256"
            },
            {
              "internalType": "string",
              "name": "customName",
              "type": "string"
            },
            {
              "components": [
                {
                  "internalType": "string",
                  "name": "animalA",
                  "type": "string"
                },
                {
                  "internalType": "string",
                  "name": "animalB",
                  "type": "string"
                },
                {
                  "internalType": "uint256",
                  "name": "tokenA",
                  "type": "uint256"
                },
                {
                  "internalType": "uint256",
                  "name": "tokenB",
                  "type": "uint256"
                }
              ],
              "internalType": "struct IZoo.Parents",
              "name": "parents",
              "type": "tuple"
            },
            {
              "components": [
                {
                  "internalType": "uint256",
                  "name": "count",
                  "type": "uint256"
                },
                {
                  "internalType": "uint256",
                  "name": "timestamp",
                  "type": "uint256"
                }
              ],
              "internalType": "struct IZoo.Breed",
              "name": "breed",
              "type": "tuple"
            },
            {
              "components": [
                {
                  "internalType": "uint256",
                  "name": "eggID",
                  "type": "uint256"
                },
                {
                  "internalType": "uint256",
                  "name": "dropID",
                  "type": "uint256"
                }
              ],
              "internalType": "struct IZoo.Meta",
              "name": "meta",
              "type": "tuple"
            },
            {
              "components": [
                {
                  "internalType": "string",
                  "name": "tokenURI",
                  "type": "string"
                },
                {
                  "internalType": "string",
                  "name": "metadataURI",
                  "type": "string"
                },
                {
                  "internalType": "bytes32",
                  "name": "contentHash",
                  "type": "bytes32"
                },
                {
                  "internalType": "bytes32",
                  "name": "metadataHash",
                  "type": "bytes32"
                }
              ],
              "internalType": "struct IMedia.MediaData",
              "name": "data",
              "type": "tuple"
            },
            {
              "components": [
                {
                  "components": [
                    {
                      "internalType": "uint256",
                      "name": "value",
                      "type": "uint256"
                    }
                  ],
                  "internalType": "struct Decimal.D256",
                  "name": "prevOwner",
                  "type": "tuple"
                },
                {
                  "components": [
                    {
                      "internalType": "uint256",
                      "name": "value",
                      "type": "uint256"
                    }
                  ],
                  "internalType": "struct Decimal.D256",
                  "name": "creator",
                  "type": "tuple"
                },
                {
                  "components": [
                    {
                      "internalType": "uint256",
                      "name": "value",
                      "type": "uint256"
                    }
                  ],
                  "internalType": "struct Decimal.D256",
                  "name": "owner",
                  "type": "tuple"
                }
              ],
              "internalType": "struct IMarket.BidShares",
              "name": "bidShares",
              "type": "tuple"
            }
          ],
          "internalType": "struct IZoo.Token",
          "name": "",
          "type": "tuple"
        }
      ],
      "stateMutability": "nonpayable",
      "type": "function"
    },
    {
      "inputs": [
        {
          "internalType": "uint256",
          "name": "tokenID",
          "type": "uint256"
        }
      ],
      "name": "breedNext",
      "outputs": [
        {
          "internalType": "uint256",
          "name": "",
          "type": "uint256"
        }
      ],
      "stateMutability": "view",
      "type": "function"
    },
    {
      "inputs": [
        {
          "internalType": "uint256",
          "name": "tokenID",
          "type": "uint256"
        }
      ],
      "name": "breedReady",
      "outputs": [
        {
          "internalType": "bool",
          "name": "",
          "type": "bool"
        }
      ],
      "stateMutability": "view",
      "type": "function"
    },
    {
      "inputs": [
        {
          "internalType": "uint256",
          "name": "dropID",
          "type": "uint256"
        }
      ],
      "name": "buyEgg",
      "outputs": [
        {
          "components": [
            {
              "components": [
                {
                  "internalType": "string",
                  "name": "name",
                  "type": "string"
                },
                {
                  "internalType": "uint256",
                  "name": "probability",
                  "type": "uint256"
                },
                {
                  "internalType": "uint256",
                  "name": "yield",
                  "type": "uint256"
                },
                {
                  "internalType": "uint256",
                  "name": "boost",
                  "type": "uint256"
                }
              ],
              "internalType": "struct IZoo.Rarity",
              "name": "rarity",
              "type": "tuple"
            },
            {
              "internalType": "enum IZoo.Type",
              "name": "kind",
              "type": "uint8"
            },
            {
              "internalType": "string",
              "name": "name",
              "type": "string"
            },
            {
              "internalType": "uint256",
              "name": "id",
              "type": "uint256"
            },
            {
              "internalType": "uint256",
              "name": "timestamp",
              "type": "uint256"
            },
            {
              "internalType": "uint256",
              "name": "birthday",
              "type": "uint256"
            },
            {
              "internalType": "string",
              "name": "customName",
              "type": "string"
            },
            {
              "components": [
                {
                  "internalType": "string",
                  "name": "animalA",
                  "type": "string"
                },
                {
                  "internalType": "string",
                  "name": "animalB",
                  "type": "string"
                },
                {
                  "internalType": "uint256",
                  "name": "tokenA",
                  "type": "uint256"
                },
                {
                  "internalType": "uint256",
                  "name": "tokenB",
                  "type": "uint256"
                }
              ],
              "internalType": "struct IZoo.Parents",
              "name": "parents",
              "type": "tuple"
            },
            {
              "components": [
                {
                  "internalType": "uint256",
                  "name": "count",
                  "type": "uint256"
                },
                {
                  "internalType": "uint256",
                  "name": "timestamp",
                  "type": "uint256"
                }
              ],
              "internalType": "struct IZoo.Breed",
              "name": "breed",
              "type": "tuple"
            },
            {
              "components": [
                {
                  "internalType": "uint256",
                  "name": "eggID",
                  "type": "uint256"
                },
                {
                  "internalType": "uint256",
                  "name": "dropID",
                  "type": "uint256"
                }
              ],
              "internalType": "struct IZoo.Meta",
              "name": "meta",
              "type": "tuple"
            },
            {
              "components": [
                {
                  "internalType": "string",
                  "name": "tokenURI",
                  "type": "string"
                },
                {
                  "internalType": "string",
                  "name": "metadataURI",
                  "type": "string"
                },
                {
                  "internalType": "bytes32",
                  "name": "contentHash",
                  "type": "bytes32"
                },
                {
                  "internalType": "bytes32",
                  "name": "metadataHash",
                  "type": "bytes32"
                }
              ],
              "internalType": "struct IMedia.MediaData",
              "name": "data",
              "type": "tuple"
            },
            {
              "components": [
                {
                  "components": [
                    {
                      "internalType": "uint256",
                      "name": "value",
                      "type": "uint256"
                    }
                  ],
                  "internalType": "struct Decimal.D256",
                  "name": "prevOwner",
                  "type": "tuple"
                },
                {
                  "components": [
                    {
                      "internalType": "uint256",
                      "name": "value",
                      "type": "uint256"
                    }
                  ],
                  "internalType": "struct Decimal.D256",
                  "name": "creator",
                  "type": "tuple"
                },
                {
                  "components": [
                    {
                      "internalType": "uint256",
                      "name": "value",
                      "type": "uint256"
                    }
                  ],
                  "internalType": "struct Decimal.D256",
                  "name": "owner",
                  "type": "tuple"
                }
              ],
              "internalType": "struct IMarket.BidShares",
              "name": "bidShares",
              "type": "tuple"
            }
          ],
          "internalType": "struct IZoo.Token",
          "name": "",
          "type": "tuple"
        }
      ],
      "stateMutability": "nonpayable",
      "type": "function"
    },
    {
      "inputs": [
        {
          "internalType": "uint256",
          "name": "dropID",
          "type": "uint256"
        },
        {
          "internalType": "uint256",
          "name": "quantity",
          "type": "uint256"
        }
      ],
      "name": "buyEggs",
      "outputs": [],
      "stateMutability": "nonpayable",
      "type": "function"
    },
    {
      "inputs": [
        {
          "internalType": "uint256",
          "name": "tokenID",
          "type": "uint256"
        },
        {
          "internalType": "string",
          "name": "customName",
          "type": "string"
        }
      ],
      "name": "buyName",
      "outputs": [],
      "stateMutability": "nonpayable",
      "type": "function"
    },
    {
      "inputs": [
        {
          "internalType": "address",
          "name": "_market",
          "type": "address"
        },
        {
          "internalType": "address",
          "name": "_media",
          "type": "address"
        },
        {
          "internalType": "address",
          "name": "_zoo",
          "type": "address"
        }
      ],
      "name": "configure",
      "outputs": [],
      "stateMutability": "nonpayable",
      "type": "function"
    },
    {
      "inputs": [
        {
          "internalType": "address",
          "name": "",
          "type": "address"
        }
      ],
      "name": "dropAddresses",
      "outputs": [
        {
          "internalType": "uint256",
          "name": "",
          "type": "uint256"
        }
      ],
      "stateMutability": "view",
      "type": "function"
    },
    {
      "inputs": [
        {
          "internalType": "uint256",
          "name": "",
          "type": "uint256"
        }
      ],
      "name": "drops",
      "outputs": [
        {
          "internalType": "address",
          "name": "",
          "type": "address"
        }
      ],
      "stateMutability": "view",
      "type": "function"
    },
    {
      "inputs": [
        {
          "internalType": "uint256",
          "name": "tokenID",
          "type": "uint256"
        }
      ],
      "name": "freeAnimal",
      "outputs": [
        {
          "internalType": "uint256",
          "name": "yield",
          "type": "uint256"
        }
      ],
      "stateMutability": "nonpayable",
      "type": "function"
    },
    {
      "inputs": [
        {
          "internalType": "uint256",
          "name": "dropID",
          "type": "uint256"
        },
        {
          "internalType": "uint256",
          "name": "eggID",
          "type": "uint256"
        }
      ],
      "name": "hatchEgg",
      "outputs": [
        {
          "components": [
            {
              "components": [
                {
                  "internalType": "string",
                  "name": "name",
                  "type": "string"
                },
                {
                  "internalType": "uint256",
                  "name": "probability",
                  "type": "uint256"
                },
                {
                  "internalType": "uint256",
                  "name": "yield",
                  "type": "uint256"
                },
                {
                  "internalType": "uint256",
                  "name": "boost",
                  "type": "uint256"
                }
              ],
              "internalType": "struct IZoo.Rarity",
              "name": "rarity",
              "type": "tuple"
            },
            {
              "internalType": "enum IZoo.Type",
              "name": "kind",
              "type": "uint8"
            },
            {
              "internalType": "string",
              "name": "name",
              "type": "string"
            },
            {
              "internalType": "uint256",
              "name": "id",
              "type": "uint256"
            },
            {
              "internalType": "uint256",
              "name": "timestamp",
              "type": "uint256"
            },
            {
              "internalType": "uint256",
              "name": "birthday",
              "type": "uint256"
            },
            {
              "internalType": "string",
              "name": "customName",
              "type": "string"
            },
            {
              "components": [
                {
                  "internalType": "string",
                  "name": "animalA",
                  "type": "string"
                },
                {
                  "internalType": "string",
                  "name": "animalB",
                  "type": "string"
                },
                {
                  "internalType": "uint256",
                  "name": "tokenA",
                  "type": "uint256"
                },
                {
                  "internalType": "uint256",
                  "name": "tokenB",
                  "type": "uint256"
                }
              ],
              "internalType": "struct IZoo.Parents",
              "name": "parents",
              "type": "tuple"
            },
            {
              "components": [
                {
                  "internalType": "uint256",
                  "name": "count",
                  "type": "uint256"
                },
                {
                  "internalType": "uint256",
                  "name": "timestamp",
                  "type": "uint256"
                }
              ],
              "internalType": "struct IZoo.Breed",
              "name": "breed",
              "type": "tuple"
            },
            {
              "components": [
                {
                  "internalType": "uint256",
                  "name": "eggID",
                  "type": "uint256"
                },
                {
                  "internalType": "uint256",
                  "name": "dropID",
                  "type": "uint256"
                }
              ],
              "internalType": "struct IZoo.Meta",
              "name": "meta",
              "type": "tuple"
            },
            {
              "components": [
                {
                  "internalType": "string",
                  "name": "tokenURI",
                  "type": "string"
                },
                {
                  "internalType": "string",
                  "name": "metadataURI",
                  "type": "string"
                },
                {
                  "internalType": "bytes32",
                  "name": "contentHash",
                  "type": "bytes32"
                },
                {
                  "internalType": "bytes32",
                  "name": "metadataHash",
                  "type": "bytes32"
                }
              ],
              "internalType": "struct IMedia.MediaData",
              "name": "data",
              "type": "tuple"
            },
            {
              "components": [
                {
                  "components": [
                    {
                      "internalType": "uint256",
                      "name": "value",
                      "type": "uint256"
                    }
                  ],
                  "internalType": "struct Decimal.D256",
                  "name": "prevOwner",
                  "type": "tuple"
                },
                {
                  "components": [
                    {
                      "internalType": "uint256",
                      "name": "value",
                      "type": "uint256"
                    }
                  ],
                  "internalType": "struct Decimal.D256",
                  "name": "creator",
                  "type": "tuple"
                },
                {
                  "components": [
                    {
                      "internalType": "uint256",
                      "name": "value",
                      "type": "uint256"
                    }
                  ],
                  "internalType": "struct Decimal.D256",
                  "name": "owner",
                  "type": "tuple"
                }
              ],
              "internalType": "struct IMarket.BidShares",
              "name": "bidShares",
              "type": "tuple"
            }
          ],
          "internalType": "struct IZoo.Token",
          "name": "",
          "type": "tuple"
        }
      ],
      "stateMutability": "nonpayable",
      "type": "function"
    },
    {
      "inputs": [],
      "name": "market",
      "outputs": [
        {
          "internalType": "contract IMarket",
          "name": "",
          "type": "address"
        }
      ],
      "stateMutability": "view",
      "type": "function"
    },
    {
      "inputs": [],
      "name": "media",
      "outputs": [
        {
          "internalType": "contract IMedia",
          "name": "",
          "type": "address"
        }
      ],
      "stateMutability": "view",
      "type": "function"
    },
    {
      "inputs": [],
      "name": "namePrice",
      "outputs": [
        {
          "internalType": "uint256",
          "name": "",
          "type": "uint256"
        }
      ],
      "stateMutability": "view",
      "type": "function"
    },
    {
      "inputs": [],
      "name": "owner",
      "outputs": [
        {
          "internalType": "address",
          "name": "",
          "type": "address"
        }
      ],
      "stateMutability": "view",
      "type": "function"
    },
    {
      "inputs": [],
      "name": "renounceOwnership",
      "outputs": [],
      "stateMutability": "nonpayable",
      "type": "function"
    },
    {
      "inputs": [
        {
          "internalType": "address",
          "name": "dropAddress",
          "type": "address"
        }
      ],
      "name": "setDrop",
      "outputs": [
        {
          "internalType": "uint256",
          "name": "",
          "type": "uint256"
        }
      ],
      "stateMutability": "nonpayable",
      "type": "function"
    },
    {
      "inputs": [
        {
          "internalType": "uint256",
          "name": "price",
          "type": "uint256"
        }
      ],
      "name": "setNamePrice",
      "outputs": [],
      "stateMutability": "nonpayable",
      "type": "function"
    },
    {
      "inputs": [
        {
          "internalType": "uint256",
          "name": "",
          "type": "uint256"
        }
      ],
      "name": "tokens",
      "outputs": [
        {
          "components": [
            {
              "internalType": "string",
              "name": "name",
              "type": "string"
            },
            {
              "internalType": "uint256",
              "name": "probability",
              "type": "uint256"
            },
            {
              "internalType": "uint256",
              "name": "yield",
              "type": "uint256"
            },
            {
              "internalType": "uint256",
              "name": "boost",
              "type": "uint256"
            }
          ],
          "internalType": "struct IZoo.Rarity",
          "name": "rarity",
          "type": "tuple"
        },
        {
          "internalType": "enum IZoo.Type",
          "name": "kind",
          "type": "uint8"
        },
        {
          "internalType": "string",
          "name": "name",
          "type": "string"
        },
        {
          "internalType": "uint256",
          "name": "id",
          "type": "uint256"
        },
        {
          "internalType": "uint256",
          "name": "timestamp",
          "type": "uint256"
        },
        {
          "internalType": "uint256",
          "name": "birthday",
          "type": "uint256"
        },
        {
          "internalType": "string",
          "name": "customName",
          "type": "string"
        },
        {
          "components": [
            {
              "internalType": "string",
              "name": "animalA",
              "type": "string"
            },
            {
              "internalType": "string",
              "name": "animalB",
              "type": "string"
            },
            {
              "internalType": "uint256",
              "name": "tokenA",
              "type": "uint256"
            },
            {
              "internalType": "uint256",
              "name": "tokenB",
              "type": "uint256"
            }
          ],
          "internalType": "struct IZoo.Parents",
          "name": "parents",
          "type": "tuple"
        },
        {
          "components": [
            {
              "internalType": "uint256",
              "name": "count",
              "type": "uint256"
            },
            {
              "internalType": "uint256",
              "name": "timestamp",
              "type": "uint256"
            }
          ],
          "internalType": "struct IZoo.Breed",
          "name": "breed",
          "type": "tuple"
        },
        {
          "components": [
            {
              "internalType": "uint256",
              "name": "eggID",
              "type": "uint256"
            },
            {
              "internalType": "uint256",
              "name": "dropID",
              "type": "uint256"
            }
          ],
          "internalType": "struct IZoo.Meta",
          "name": "meta",
          "type": "tuple"
        },
        {
          "components": [
            {
              "internalType": "string",
              "name": "tokenURI",
              "type": "string"
            },
            {
              "internalType": "string",
              "name": "metadataURI",
              "type": "string"
            },
            {
              "internalType": "bytes32",
              "name": "contentHash",
              "type": "bytes32"
            },
            {
              "internalType": "bytes32",
              "name": "metadataHash",
              "type": "bytes32"
            }
          ],
          "internalType": "struct IMedia.MediaData",
          "name": "data",
          "type": "tuple"
        },
        {
          "components": [
            {
              "components": [
                {
                  "internalType": "uint256",
                  "name": "value",
                  "type": "uint256"
                }
              ],
              "internalType": "struct Decimal.D256",
              "name": "prevOwner",
              "type": "tuple"
            },
            {
              "components": [
                {
                  "internalType": "uint256",
                  "name": "value",
                  "type": "uint256"
                }
              ],
              "internalType": "struct Decimal.D256",
              "name": "creator",
              "type": "tuple"
            },
            {
              "components": [
                {
                  "internalType": "uint256",
                  "name": "value",
                  "type": "uint256"
                }
              ],
              "internalType": "struct Decimal.D256",
              "name": "owner",
              "type": "tuple"
            }
          ],
          "internalType": "struct IMarket.BidShares",
          "name": "bidShares",
          "type": "tuple"
        }
      ],
      "stateMutability": "view",
      "type": "function"
    },
    {
      "inputs": [
        {
          "internalType": "address",
          "name": "newOwner",
          "type": "address"
        }
      ],
      "name": "transferOwnership",
      "outputs": [],
      "stateMutability": "nonpayable",
      "type": "function"
    },
    {
      "inputs": [],
      "name": "zoo",
      "outputs": [
        {
          "internalType": "contract IERC20",
          "name": "",
          "type": "address"
        }
      ],
      "stateMutability": "view",
      "type": "function"
    },
    {
      "inputs": [],
      "name": "zooSupply",
      "outputs": [
        {
          "internalType": "uint256",
          "name": "",
          "type": "uint256"
        }
      ],
      "stateMutability": "view",
      "type": "function"
    },
    {
      "inputs": [
        {
          "internalType": "address",
          "name": "receiver",
          "type": "address"
        },
        {
          "internalType": "uint256",
          "name": "amount",
          "type": "uint256"
        }
      ],
      "name": "zooWithdraw",
      "outputs": [
        {
          "internalType": "bool",
          "name": "",
          "type": "bool"
        }
      ],
      "stateMutability": "nonpayable",
      "type": "function"
    }
  ],
  "transactionHash": "0x841c24202bb2dd2d5c1b18f3709c6335cc7abcc73eb4e9c971d4620361baa240",
  "args": [],
  "solcInputHash": "d897cdf3c2e8caac63bba867b2b1386f",
  "bytecode": "0x60806040523480156200001157600080fd5b506200001d3362000023565b62000073565b600080546001600160a01b038381166001600160a01b0319831681178455604051919092169283917f8be0079c531659141344cd1fd0a4f28419497f9722a3daafe3b4186f6b6457e09190a35050565b614c9b80620000836000396000f3fe608060405234801561001057600080fd5b506004361061011d5760003560e01c806310e0af64146101225780632626f4e01461014a57806349077a4f1461015f5780634c33efa71461017f5780634f2cabdf1461019f5780634f64b2be146101cd57806354d7dc93146101f857806355d28f201461020b5780635eb399681461021e578063685bf0cd146102475780636fc2790e1461025a578063715018a61461026d5780637b6a87771461027557806380f55605146102885780638da5cb5b1461029b5780639c275d11146102a3578063b22073b6146102b6578063c87b2cba146102bf578063d4eddf7e146102d2578063de611f55146102da578063f2fde38b146102ed578063f624172714610300578063f8b2462614610313575b600080fd5b610135610130366004614440565b610326565b60405190151581526020015b60405180910390f35b61015d610158366004614440565b610364565b005b600754610172906001600160a01b031681565b604051610141919061475b565b61019261018d366004614440565b6103a1565b6040516101419190614a29565b6101bf6101ad366004614208565b60036020526000908152604090205481565b604051908152602001610141565b6101e06101db366004614440565b6107cb565b6040516101419c9b9a9998979695949392919061495e565b61019261020636600461450f565b610ce5565b61015d610219366004614222565b611230565b61017261022c366004614440565b6002602052600090815260409020546001600160a01b031681565b61015d6102553660046144ee565b61129e565b6101926102683660046144ee565b6112f7565b61015d61150c565b600854610172906001600160a01b031681565b600654610172906001600160a01b031681565b610172611547565b6101bf6102b1366004614440565b611556565b6101bf60055481565b6101bf6102cd366004614440565b611b15565b6101bf6121db565b61015d6102e8366004614470565b612291565b61015d6102fb366004614208565b612b5d565b61013561030e366004614264565b612bfd565b6101bf610321366004614208565b612cb4565b6000818152600460205260408120600e015461034457506001919050565b61034d82611556565b42111561035c57506001919050565b506000919050565b3361036d611547565b6001600160a01b03161461039c5760405162461bcd60e51b815260040161039390614916565b60405180910390fd5b600555565b6103a9613dbc565b6103d16040518060400160405280600681526020016562757945676760d01b81525083612e89565b60008281526002602090815260409182902054825163182f1aa960e11b815292516001600160a01b0390911692839263305e355292600480840193829003018186803b15801561042057600080fd5b505afa158015610434573d6000803e3d6000fd5b505050506040513d601f19601f820116820180604052508101906104589190614458565b6008546040516370a0823160e01b81526001600160a01b03909116906370a082319061048890339060040161475b565b60206040518083038186803b1580156104a057600080fd5b505afa1580156104b4573d6000803e3d6000fd5b505050506040513d601f19601f820116820180604052508101906104d89190614458565b10156105315760405162461bcd60e51b815260206004820152602260248201527f5a4b3a204e6f7420456e6f756768205a4f4f20746f2070757263686173652045604482015261676760f01b6064820152608401610393565b6105d56040518060400160405280601081526020016f7a6f6f2e7472616e7366657246726f6d60801b8152503330846001600160a01b031663305e35526040518163ffffffff1660e01b815260040160206040518083038186803b15801561059857600080fd5b505afa1580156105ac573d6000803e3d6000fd5b505050506040513d601f19601f820116820180604052508101906105d09190614458565b612ed2565b600860009054906101000a90046001600160a01b03166001600160a01b03166323b872dd3330846001600160a01b031663305e35526040518163ffffffff1660e01b815260040160206040518083038186803b15801561063457600080fd5b505afa158015610648573d6000803e3d6000fd5b505050506040513d601f19601f8201168201806040525081019061066c9190614458565b6040518463ffffffff1660e01b815260040161068a9392919061476f565b602060405180830381600087803b1580156106a457600080fd5b505af11580156106b8573d6000803e3d6000fd5b505050506040513d601f19601f820116820180604052508101906106dc919061428d565b506000816001600160a01b0316630489a8f66040518163ffffffff1660e01b8152600401600060405180830381600087803b15801561071a57600080fd5b505af115801561072e573d6000803e3d6000fd5b505050506040513d6000823e601f3d908101601f1916820160405261075691908101906142df565b90506107623382612f21565b90506107946040518060400160405280600a8152602001696d696e7465642065676760b01b8152508260600151612e89565b606081015160405133907fb6fcdc0b9a5291c95b93142b5e81d61a0b01a26b043be034e6daaa1219e7ebc190600090a39392505050565b6004602052806000526040600020600091509050806000016040518060800160405290816000820180546107fe90614b99565b80601f016020809104026020016040519081016040528092919081815260200182805461082a90614b99565b80156108775780601f1061084c57610100808354040283529160200191610877565b820191906000526020600020905b81548152906001019060200180831161085a57829003601f168201915b505050918352505060018201546020820152600282015460408201526003909101546060909101526004820154600583018054929360ff909216926108bb90614b99565b80601f01602080910402602001604051908101604052809291908181526020018280546108e790614b99565b80156109345780601f1061090957610100808354040283529160200191610934565b820191906000526020600020905b81548152906001019060200180831161091757829003601f168201915b50505050509080600601549080600701549080600801549080600901805461095b90614b99565b80601f016020809104026020016040519081016040528092919081815260200182805461098790614b99565b80156109d45780601f106109a9576101008083540402835291602001916109d4565b820191906000526020600020905b8154815290600101906020018083116109b757829003601f168201915b50505050509080600a016040518060800160405290816000820180546109f990614b99565b80601f0160208091040260200160405190810160405280929190818152602001828054610a2590614b99565b8015610a725780601f10610a4757610100808354040283529160200191610a72565b820191906000526020600020905b815481529060010190602001808311610a5557829003601f168201915b50505050508152602001600182018054610a8b90614b99565b80601f0160208091040260200160405190810160405280929190818152602001828054610ab790614b99565b8015610b045780601f10610ad957610100808354040283529160200191610b04565b820191906000526020600020905b815481529060010190602001808311610ae757829003601f168201915b5050509183525050600282015460208083019190915260039092015460409182015280518082018252600e8501548152600f8501548184015281518083018352601086015481526011860154938101939093528151608081019092526012850180549495919491929182908290610b7a90614b99565b80601f0160208091040260200160405190810160405280929190818152602001828054610ba690614b99565b8015610bf35780601f10610bc857610100808354040283529160200191610bf3565b820191906000526020600020905b815481529060010190602001808311610bd657829003601f168201915b50505050508152602001600182018054610c0c90614b99565b80601f0160208091040260200160405190810160405280929190818152602001828054610c3890614b99565b8015610c855780601f10610c5a57610100808354040283529160200191610c85565b820191906000526020600020905b815481529060010190602001808311610c6857829003601f168201915b5050509183525050600282015460208083019190915260039092015460409182015280516080810182526016850154606082019081528152815180840183526017860154815281840152815192830182526018909401548252830152908c565b610ced613dbc565b8282610d1a6040518060400160405280600881526020016718d85b909c99595960c21b815250838361325f565b60075460405162491fcf60e11b8152600481018490526001600160a01b039091169062923f9e90602401602060405180830381600087803b158015610d5e57600080fd5b505af1158015610d72573d6000803e3d6000fd5b505050506040513d601f19601f82011682018060405250810190610d96919061428d565b8015610e19575060075460405162491fcf60e11b8152600481018390526001600160a01b039091169062923f9e90602401602060405180830381600087803b158015610de157600080fd5b505af1158015610df5573d6000803e3d6000fd5b505050506040513d601f19601f82011682018060405250810190610e19919061428d565b610e5a5760405162461bcd60e51b81526020600482015260126024820152712737b716b2bc34b9ba32b73a103a37b5b2b760711b6044820152606401610393565b60408051602081018390520160408051601f1981840301815282825280516020918201209083018590529101604051602081830303815290604052805190602001201415610ee85760405162461bcd60e51b815260206004820152601b60248201527a2737ba1030b13632903a3790313932b2b2103bb4ba341039b2b63360291b6044820152606401610393565b610ef182610326565b8015610f015750610f0181610326565b610f4c5760405162461bcd60e51b815260206004820152601c60248201527b2bb0b4ba103337b91031b7b7b63237bbb7103a37903334b734b9b41760211b6044820152606401610393565b610f55826132a6565b8015610f655750610f65816132a6565b610faf5760405162461bcd60e51b815260206004820152601b60248201527a27b7363c902120a9a2afa0a724a6a0a61031b0b710313932b2b21760291b6044820152606401610393565b610fdf6040518060400160405280600c81526020016b6272656564416e696d616c7360a01b8152508787876132e4565b6000868152600260209081526040808320548151608081018352898552600490935290832060050180546001600160a01b039092169263e82baf30929091829161102890614b99565b80601f016020809104026020016040519081016040528092919081815260200182805461105490614b99565b80156110a15780601f10611076576101008083540402835291602001916110a1565b820191906000526020600020905b81548152906001019060200180831161108457829003601f168201915b50505050508152602001600460008a815260200190815260200160002060050180546110cc90614b99565b80601f01602080910402602001604051908101604052809291908181526020018280546110f890614b99565b80156111455780601f1061111a57610100808354040283529160200191611145565b820191906000526020600020905b81548152906001019060200180831161112857829003601f168201915b50505050508152602001898152602001888152506040518263ffffffff1660e01b8152600401611175919061494b565b600060405180830381600087803b15801561118f57600080fd5b505af11580156111a3573d6000803e3d6000fd5b505050506040513d6000823e601f3d908101601f191682016040526111cb91908101906142df565b90506111d7868661332d565b6111e13382612f21565b60608101516040805189815260208101899052929350909133917fddf1e8fec06a50aa72b8a39a06787808c53eca73b2bd1cc995681cf7b8014650910160405180910390a39695505050505050565b33611239611547565b6001600160a01b03161461125f5760405162461bcd60e51b815260040161039390614916565b600680546001600160a01b039485166001600160a01b031991821617909155600780549385169382169390931790925560088054919093169116179055565b6112c8604051806040016040528060078152602001666275794567677360c81b815250838361325f565b60005b818160ff1610156112f2576112df836103a1565b50806112ea81614bef565b9150506112cb565b505050565b6112ff613dbc565b61132a60405180604001604052806008815260200167686174636845676760c01b815250848461325f565b60075460405162491fcf60e11b8152600481018490526001600160a01b039091169062923f9e90602401602060405180830381600087803b15801561136e57600080fd5b505af1158015611382573d6000803e3d6000fd5b505050506040513d601f19601f820116820180604052508101906113a6919061428d565b6113f25760405162461bcd60e51b815260206004820152601f60248201527f456767206973206275726e6564206f7220646f6573206e6f74206578697374006044820152606401610393565b60006113fe84846133c8565b610120810180518590525160209081018690526040805180820182526006815265185b9a5b585b60d21b9281019290925282015191925061143e91613afd565b6114483382612f21565b905061147e6040518060400160405280600d81526020016c1b5a5b9d195908185b9a5b585b609a1b81525082606001518561325f565b6114883384613b42565b6114b060405180604001604052806006815260200165189d5c9b995960d21b81525084612e89565b806060015181604001516040516114c7919061473f565b6040519081900381208582529033907f4522ecb13d32126c25afeea8589e647e00d59f9a12ed51b492efcfd722faa91c9060200160405180910390a490505b92915050565b33611515611547565b6001600160a01b03161461153b5760405162461bcd60e51b815260040161039390614916565b6115456000613c07565b565b6000546001600160a01b031690565b60008181526004602052604080822081516102008101909252805483929190829061018082019083908290829061158c90614b99565b80601f01602080910402602001604051908101604052809291908181526020018280546115b890614b99565b80156116055780601f106115da57610100808354040283529160200191611605565b820191906000526020600020905b8154815290600101906020018083116115e857829003601f168201915b50505050508152602001600182015481526020016002820154815260200160038201548152505081526020016004820160009054906101000a900460ff16600381111561166257634e487b7160e01b600052602160045260246000fd5b600381111561168157634e487b7160e01b600052602160045260246000fd5b815260200160058201805461169590614b99565b80601f01602080910402602001604051908101604052809291908181526020018280546116c190614b99565b801561170e5780601f106116e35761010080835404028352916020019161170e565b820191906000526020600020905b8154815290600101906020018083116116f157829003601f168201915b5050505050815260200160068201548152602001600782015481526020016008820154815260200160098201805461174590614b99565b80601f016020809104026020016040519081016040528092919081815260200182805461177190614b99565b80156117be5780601f10611793576101008083540402835291602001916117be565b820191906000526020600020905b8154815290600101906020018083116117a157829003601f168201915b50505050508152602001600a82016040518060800160405290816000820180546117e790614b99565b80601f016020809104026020016040519081016040528092919081815260200182805461181390614b99565b80156118605780601f1061183557610100808354040283529160200191611860565b820191906000526020600020905b81548152906001019060200180831161184357829003601f168201915b5050505050815260200160018201805461187990614b99565b80601f01602080910402602001604051908101604052809291908181526020018280546118a590614b99565b80156118f25780601f106118c7576101008083540402835291602001916118f2565b820191906000526020600020905b8154815290600101906020018083116118d557829003601f168201915b5050509183525050600282015460208083019190915260039092015460409182015291835281518083018352600e8501548152600f85015481830152838201528151808301835260108501548152601185015491810191909152828201528051608081019091526012830180546060909301928290829061197290614b99565b80601f016020809104026020016040519081016040528092919081815260200182805461199e90614b99565b80156119eb5780601f106119c0576101008083540402835291602001916119eb565b820191906000526020600020905b8154815290600101906020018083116119ce57829003601f168201915b50505050508152602001600182018054611a0490614b99565b80601f0160208091040260200160405190810160405280929190818152602001828054611a3090614b99565b8015611a7d5780601f10611a5257610100808354040283529160200191611a7d565b820191906000526020600020905b815481529060010190602001808311611a6057829003601f168201915b50505091835250506002820154602080830191909152600390920154604091820152918352815160808101835260168501546060820190815281528251808301845260178601548152818301528251808301845260189095015485529182019390935291015261010081015151909150611afa9062015180614b37565b81610100015160200151611b0e9190614b0b565b9392505050565b6000611b436040518060400160405280600a815260200169199c9959505b9a5b585b60b21b81525083612e89565b6000828152600460205260408082208151610200810190925280548290610180820190839082908290611b7590614b99565b80601f0160208091040260200160405190810160405280929190818152602001828054611ba190614b99565b8015611bee5780601f10611bc357610100808354040283529160200191611bee565b820191906000526020600020905b815481529060010190602001808311611bd157829003601f168201915b50505050508152602001600182015481526020016002820154815260200160038201548152505081526020016004820160009054906101000a900460ff166003811115611c4b57634e487b7160e01b600052602160045260246000fd5b6003811115611c6a57634e487b7160e01b600052602160045260246000fd5b8152602001600582018054611c7e90614b99565b80601f0160208091040260200160405190810160405280929190818152602001828054611caa90614b99565b8015611cf75780601f10611ccc57610100808354040283529160200191611cf7565b820191906000526020600020905b815481529060010190602001808311611cda57829003601f168201915b50505050508152602001600682015481526020016007820154815260200160088201548152602001600982018054611d2e90614b99565b80601f0160208091040260200160405190810160405280929190818152602001828054611d5a90614b99565b8015611da75780601f10611d7c57610100808354040283529160200191611da7565b820191906000526020600020905b815481529060010190602001808311611d8a57829003601f168201915b50505050508152602001600a8201604051806080016040529081600082018054611dd090614b99565b80601f0160208091040260200160405190810160405280929190818152602001828054611dfc90614b99565b8015611e495780601f10611e1e57610100808354040283529160200191611e49565b820191906000526020600020905b815481529060010190602001808311611e2c57829003601f168201915b50505050508152602001600182018054611e6290614b99565b80601f0160208091040260200160405190810160405280929190818152602001828054611e8e90614b99565b8015611edb5780601f10611eb057610100808354040283529160200191611edb565b820191906000526020600020905b815481529060010190602001808311611ebe57829003601f168201915b5050509183525050600282015460208083019190915260039092015460409182015291835281518083018352600e8501548152600f850154818301528382015281518083018352601085015481526011850154918101919091528282015280516080810190915260128301805460609093019282908290611f5b90614b99565b80601f0160208091040260200160405190810160405280929190818152602001828054611f8790614b99565b8015611fd45780601f10611fa957610100808354040283529160200191611fd4565b820191906000526020600020905b815481529060010190602001808311611fb757829003601f168201915b50505050508152602001600182018054611fed90614b99565b80601f016020809104026020016040519081016040528092919081815260200182805461201990614b99565b80156120665780601f1061203b57610100808354040283529160200191612066565b820191906000526020600020905b81548152906001019060200180831161204957829003601f168201915b50505091835250506002820154602080830191909152600390920154604091820152918352815160808101835260168501546060820190815281528251808301845260178601548152818301528251808301845260189095015485529182019390935291015290506120d83384613b42565b60008160a00151436120ea9190614b56565b905060006120fa82617080613c57565b83516040015190915061210e908290613c63565b935061211f438460a0015186613c6f565b60085460405163a9059cbb60e01b81526001600160a01b039091169063a9059cbb9061215190339088906004016147b7565b602060405180830381600087803b15801561216b57600080fd5b505af115801561217f573d6000803e3d6000fd5b505050506040513d601f19601f820116820180604052508101906121a3919061428d565b506040518490869033907f6d330a72b03f3f443e72a146c33e5882a01427b60a36b46ac11243d0c4e31d0990600090a4505050919050565b6000336121e6611547565b6001600160a01b03161461220c5760405162461bcd60e51b815260040161039390614916565b6008546040516370a0823160e01b81526001600160a01b03909116906370a082319061223c90309060040161475b565b60206040518083038186803b15801561225457600080fd5b505afa158015612268573d6000803e3d6000fd5b505050506040513d601f19601f8201168201806040525081019061228c9190614458565b905090565b6005546008546040516370a0823160e01b81526001600160a01b03909116906370a08231906122c490339060040161475b565b60206040518083038186803b1580156122dc57600080fd5b505afa1580156122f0573d6000803e3d6000fd5b505050506040513d601f19601f820116820180604052508101906123149190614458565b1061236d5760405162461bcd60e51b815260206004820152602360248201527f5a4b3a204e6f7420656e6f756768205a4f4f20746f207075726368617365204e604482015262616d6560e81b6064820152608401610393565b6008546005546040516323b872dd60e01b81526001600160a01b03909216916323b872dd916123a2913391309160040161476f565b602060405180830381600087803b1580156123bc57600080fd5b505af11580156123d0573d6000803e3d6000fd5b505050506040513d601f19601f820116820180604052508101906123f4919061428d565b50600082815260046020526040808220815161020081019092528054829061018082019083908290829061242790614b99565b80601f016020809104026020016040519081016040528092919081815260200182805461245390614b99565b80156124a05780601f10612475576101008083540402835291602001916124a0565b820191906000526020600020905b81548152906001019060200180831161248357829003601f168201915b50505050508152602001600182015481526020016002820154815260200160038201548152505081526020016004820160009054906101000a900460ff1660038111156124fd57634e487b7160e01b600052602160045260246000fd5b600381111561251c57634e487b7160e01b600052602160045260246000fd5b815260200160058201805461253090614b99565b80601f016020809104026020016040519081016040528092919081815260200182805461255c90614b99565b80156125a95780601f1061257e576101008083540402835291602001916125a9565b820191906000526020600020905b81548152906001019060200180831161258c57829003601f168201915b505050505081526020016006820154815260200160078201548152602001600882015481526020016009820180546125e090614b99565b80601f016020809104026020016040519081016040528092919081815260200182805461260c90614b99565b80156126595780601f1061262e57610100808354040283529160200191612659565b820191906000526020600020905b81548152906001019060200180831161263c57829003601f168201915b50505050508152602001600a820160405180608001604052908160008201805461268290614b99565b80601f01602080910402602001604051908101604052809291908181526020018280546126ae90614b99565b80156126fb5780601f106126d0576101008083540402835291602001916126fb565b820191906000526020600020905b8154815290600101906020018083116126de57829003601f168201915b5050505050815260200160018201805461271490614b99565b80601f016020809104026020016040519081016040528092919081815260200182805461274090614b99565b801561278d5780601f106127625761010080835404028352916020019161278d565b820191906000526020600020905b81548152906001019060200180831161277057829003601f168201915b5050509183525050600282015460208083019190915260039092015460409182015291835281518083018352600e8501548152600f85015481830152838201528151808301835260108501548152601185015491810191909152828201528051608081019091526012830180546060909301928290829061280d90614b99565b80601f016020809104026020016040519081016040528092919081815260200182805461283990614b99565b80156128865780601f1061285b57610100808354040283529160200191612886565b820191906000526020600020905b81548152906001019060200180831161286957829003601f168201915b5050505050815260200160018201805461289f90614b99565b80601f01602080910402602001604051908101604052809291908181526020018280546128cb90614b99565b80156129185780601f106128ed57610100808354040283529160200191612918565b820191906000526020600020905b8154815290600101906020018083116128fb57829003601f168201915b5050509183525050600282015460208083019190915260039092015460409182015291835281516080810183526016850154606082019081528152825180830184526017860154815281830152825180830184526018909501548552808301949094529182019290925260c083018590526000868152600482529190912082518051805194955085949293919284926129b5928492910190613ed2565b50602082015181600101556040820151816002015560608201518160030155505060208201518160040160006101000a81548160ff02191690836003811115612a0e57634e487b7160e01b600052602160045260246000fd5b021790555060408201518051612a2e916005840191602090910190613ed2565b50606082015160068201556080820151600782015560a0820151600882015560c08201518051612a68916009840191602090910190613ed2565b5060e082015180518051600a840191612a8691839160200190613ed2565b506020828101518051612a9f9260018501920190613ed2565b50604082015160028201556060909101516003909101556101008201518051600e830155602090810151600f8301556101208301518051601084015581015160118301556101408301518051805191926012850192612b019284920190613ed2565b506020828101518051612b1a9260018501920190613ed2565b5060408281015160028301556060909201516003909101556101609290920151805151601683015560208101515160178301559091015151601890910155505050565b33612b66611547565b6001600160a01b031614612b8c5760405162461bcd60e51b815260040161039390614916565b6001600160a01b038116612bf15760405162461bcd60e51b815260206004820152602660248201527f4f776e61626c653a206e6577206f776e657220697320746865207a65726f206160448201526564647265737360d01b6064820152608401610393565b612bfa81613c07565b50565b600033612c08611547565b6001600160a01b031614612c2e5760405162461bcd60e51b815260040161039390614916565b6008546040516323b872dd60e01b81526001600160a01b03909116906323b872dd90612c629030908790879060040161476f565b602060405180830381600087803b158015612c7c57600080fd5b505af1158015612c90573d6000803e3d6000fd5b505050506040513d601f19601f82011682018060405250810190611b0e919061428d565b6001600160a01b03811660009081526003602052604081205415612d0f5760405162461bcd60e51b8152602060048201526012602482015271111c9bdc08185b1c9958591e48185919195960721b6044820152606401610393565b81612d1e600180546001019055565b6000612d2960015490565b600081815260026020908152604080832080546001600160a01b0319166001600160a01b038a81169182179092558085526003909352818420859055815163129e754360e21b8152915194955091937f2924d682319c0da5a600d8e093bcb0fb706de4e6bb58e114c69dee5587e2ec2d9392871692634a79d50c9260048082019391829003018186803b158015612dbf57600080fd5b505afa158015612dd3573d6000803e3d6000fd5b505050506040513d6000823e601f3d908101601f19168201604052612dfb91908101906142ad565b846001600160a01b031663d232b7976040518163ffffffff1660e01b815260040160206040518083038186803b158015612e3457600080fd5b505afa158015612e48573d6000803e3d6000fd5b505050506040513d601f19601f82011682018060405250810190612e6c9190614458565b604051612e7a9291906148a0565b60405180910390a29392505050565b612ece8282604051602401612e9f9291906148a0565b60408051601f198184030181529190526020810180516001600160e01b03166309710a9d60e41b179052613cb9565b5050565b612f1b84848484604051602401612eec94939291906147d0565b60408051601f198184030181529190526020810180516001600160e01b0316636eb7943d60e01b179052613cb9565b50505050565b612f29613dbc565b612f54604051806040016040528060048152602001631b5a5b9d60e21b815250848460400151613cda565b60075460405163113fba1f60e11b81526001600160a01b039091169063227f743e90612f869086908690600401614793565b600060405180830381600087803b158015612fa057600080fd5b505af1158015612fb4573d6000803e3d6000fd5b505050506040513d6000823e601f3d908101601f19168201604052612fdc91908101906142df565b60065460608201516101608301516040516375aab41d60e11b81529395506001600160a01b039092169263eb55683a926130199291600401614a3c565b600060405180830381600087803b15801561303357600080fd5b505af1158015613047573d6000803e3d6000fd5b50505050606082015160009081526004602090815260409091208351805180518694849261307b9284929190910190613ed2565b50602082015181600101556040820151816002015560608201518160030155505060208201518160040160006101000a81548160ff021916908360038111156130d457634e487b7160e01b600052602160045260246000fd5b0217905550604082015180516130f4916005840191602090910190613ed2565b50606082015160068201556080820151600782015560a0820151600882015560c0820151805161312e916009840191602090910190613ed2565b5060e082015180518051600a84019161314c91839160200190613ed2565b5060208281015180516131659260018501920190613ed2565b50604082015160028201556060909101516003909101556101008201518051600e830155602090810151600f83015561012083015180516010840155810151601183015561014083015180518051919260128501926131c79284920190613ed2565b5060208281015180516131e09260018501920190613ed2565b5060408281015160028301556060928301516003909201919091556101609390930151805151601684015560208101515160178401558301515160189092019190915583015190516001600160a01b038516907f0f6798a560793a54c3bcfe86a93cde1e73087d944c0ea20544137d412139688590600090a350919050565b6112f2838383604051602401613277939291906148c2565b60408051601f198184030181529190526020810180516001600160e01b031663969cdd0360e01b179052613cb9565b60008181526004602081905260408220015460019060ff1660038111156132dd57634e487b7160e01b600052602160045260246000fd5b1492915050565b612f1b848484846040516024016132fe94939291906148e7565b60408051601f198184030181529190526020810180516001600160e01b03166304772b3360e11b179052613cb9565b61336160405180604001604052806011815260200170757064617465427265656444656c61797360781b815250838361325f565b6000828152600460205260408120600e0180549161337e83614bd4565b90915550506000818152600460205260408120600e018054916133a083614bd4565b909155505060009182526004602052604080832042600f918201819055928452922090910155565b6133d0613dbc565b6133fc6040518060400160405280600981526020016819d95d105b9a5b585b60ba1b815250848461325f565b600082815260046020526040808220815161020081019092528054829061018082019083908290829061342e90614b99565b80601f016020809104026020016040519081016040528092919081815260200182805461345a90614b99565b80156134a75780601f1061347c576101008083540402835291602001916134a7565b820191906000526020600020905b81548152906001019060200180831161348a57829003601f168201915b50505050508152602001600182015481526020016002820154815260200160038201548152505081526020016004820160009054906101000a900460ff16600381111561350457634e487b7160e01b600052602160045260246000fd5b600381111561352357634e487b7160e01b600052602160045260246000fd5b815260200160058201805461353790614b99565b80601f016020809104026020016040519081016040528092919081815260200182805461356390614b99565b80156135b05780601f10613585576101008083540402835291602001916135b0565b820191906000526020600020905b81548152906001019060200180831161359357829003601f168201915b505050505081526020016006820154815260200160078201548152602001600882015481526020016009820180546135e790614b99565b80601f016020809104026020016040519081016040528092919081815260200182805461361390614b99565b80156136605780601f1061363557610100808354040283529160200191613660565b820191906000526020600020905b81548152906001019060200180831161364357829003601f168201915b50505050508152602001600a820160405180608001604052908160008201805461368990614b99565b80601f01602080910402602001604051908101604052809291908181526020018280546136b590614b99565b80156137025780601f106136d757610100808354040283529160200191613702565b820191906000526020600020905b8154815290600101906020018083116136e557829003601f168201915b5050505050815260200160018201805461371b90614b99565b80601f016020809104026020016040519081016040528092919081815260200182805461374790614b99565b80156137945780601f1061376957610100808354040283529160200191613794565b820191906000526020600020905b81548152906001019060200180831161377757829003601f168201915b5050509183525050600282015460208083019190915260039092015460409182015291835281518083018352600e8501548152600f85015481830152838201528151808301835260108501548152601185015491810191909152828201528051608081019091526012830180546060909301928290829061381490614b99565b80601f016020809104026020016040519081016040528092919081815260200182805461384090614b99565b801561388d5780601f106138625761010080835404028352916020019161388d565b820191906000526020600020905b81548152906001019060200180831161387057829003601f168201915b505050505081526020016001820180546138a690614b99565b80601f01602080910402602001604051908101604052809291908181526020018280546138d290614b99565b801561391f5780601f106138f45761010080835404028352916020019161391f565b820191906000526020600020905b81548152906001019060200180831161390257829003601f168201915b50505091835250506002820154602080830191909152600390920154604091820152918352815160808101835260168501546060820190815281528251808301845260178601548152818301528251808301845260189095015485529182019390935291015290506000816020015160038111156139ad57634e487b7160e01b600052602160045260246000fd5b1415613a84576139e56040518060400160405280600f81526020016e19d95d14985b991bdb505b9a5b585b608a1b815250858561325f565b6000848152600260205260409020546001600160a01b03166308f8bcc6613a0a613d21565b6040518263ffffffff1660e01b8152600401613a2891815260200190565b60006040518083038186803b158015613a4057600080fd5b505afa158015613a54573d6000803e3d6000fd5b505050506040513d6000823e601f3d908101601f19168201604052613a7c91908101906142df565b915050611506565b613ab66040518060400160405280600f81526020016e19d95d14985b991bdb521e589c9a59608a1b815250858561325f565b6000848152600260205260409020546001600160a01b0316633b5c9856613adb613d21565b8360e001516040518363ffffffff1660e01b8152600401613a28929190614a50565b612ece8282604051602401613b13929190614872565b60408051601f198184030181529190526020810180516001600160e01b0316634b5c427760e01b179052613cb9565b613b6960405180604001604052806004815260200163313ab93760e11b8152508383613d75565b600754604051633477cc1b60e21b81526001600160a01b039091169063d1df306c90613b9b90859085906004016147b7565b600060405180830381600087803b158015613bb557600080fd5b505af1158015613bc9573d6000803e3d6000fd5b50506040518392506001600160a01b03851691507fcc16f5dbb4873280815c1ee09dbd06736cffcc184412cf7a71a0fdb75d397ca590600090a35050565b600080546001600160a01b038381166001600160a01b0319831681178455604051919092169283917f8be0079c531659141344cd1fd0a4f28419497f9722a3daafe3b4186f6b6457e09190a35050565b6000611b0e8284614b23565b6000611b0e8284614b37565b6040516024810184905260448101839052606481018290526112f29060840160408051601f198184030181529190526020810180516001600160e01b03166339e0829d60e21b1790525b80516a636f6e736f6c652e6c6f67602083016000808483855afa5050505050565b6112f2838383604051602401613cf293929190614806565b60408051601f198184030181529190526020810180516001600160e01b031663e0e9ad4f60e01b179052613cb9565b604080514360208201526001600160601b03193360601b16918101919091524260548201526000908190612710906074016040516020818303038152906040528051906020012060001c6115069190614c0f565b6112f2838383604051602401613d8d93929190614844565b60408051601f198184030181529190526020810180516001600160e01b03166307c8121760e01b179052613cb9565b6040805161020081019091526060610180820190815260006101a083018190526101c083018190526101e083015281908152602001600081526020016060815260200160008152602001600081526020016000815260200160608152602001613e466040518060800160405280606081526020016060815260200160008152602001600081525090565b8152602001613e68604051806040016040528060008152602001600081525090565b8152602001613e8a604051806040016040528060008152602001600081525090565b8152602001613ec06040518060800160405280606081526020016060815260200160008019168152602001600080191681525090565b8152602001613ecd613f56565b905290565b828054613ede90614b99565b90600052602060002090601f016020900481019282613f005760008555613f46565b82601f10613f1957805160ff1916838001178555613f46565b82800160010185558215613f46579182015b82811115613f46578251825591602001919060010190613f2b565b50613f52929150613f83565b5090565b6040518060600160405280613f69613f98565b8152602001613f76613f98565b8152602001613ecd613f98565b5b80821115613f525760008155600101613f84565b6040518060200160405280600081525090565b80356001600160a01b0381168114613fc257600080fd5b919050565b805160048110613fc257600080fd5b600082601f830112613fe6578081fd5b8151613ff9613ff482614ae4565b614ab4565b81815284602083860101111561400d578283fd5b61401e826020830160208701614b6d565b949350505050565b600060608284031215614037578081fd5b604051606081018181106001600160401b038211171561405957614059614c4f565b60405290508061406984846140e3565b815261407884602085016140e3565b602082015261408a84604085016140e3565b60408201525092915050565b6000604082840312156140a7578081fd5b604051604081018181106001600160401b03821117156140c9576140c9614c4f565b604052825181526020928301519281019290925250919050565b6000602082840312156140f4578081fd5b604051602081018181106001600160401b038211171561411657614116614c4f565b6040529151825250919050565b600060808284031215614134578081fd5b61413c614a69565b905081516001600160401b038082111561415557600080fd5b61416185838601613fd6565b8352602084015191508082111561417757600080fd5b5061418484828501613fd6565b602083015250604082015160408201526060820151606082015292915050565b6000608082840312156141b5578081fd5b6141bd614a69565b905081516001600160401b038111156141d557600080fd5b6141e184828501613fd6565b82525060208201516020820152604082015160408201526060820151606082015292915050565b600060208284031215614219578081fd5b611b0e82613fab565b600080600060608486031215614236578182fd5b61423f84613fab565b925061424d60208501613fab565b915061425b60408501613fab565b90509250925092565b60008060408385031215614276578182fd5b61427f83613fab565b946020939093013593505050565b60006020828403121561429e578081fd5b81518015158114611b0e578182fd5b6000602082840312156142be578081fd5b81516001600160401b038111156142d3578182fd5b61401e84828501613fd6565b6000602082840312156142f0578081fd5b81516001600160401b0380821115614306578283fd5b90830190610200828603121561431a578283fd5b614322614a91565b825182811115614330578485fd5b61433c878286016141a4565b82525061434b60208401613fc7565b6020820152604083015182811115614361578485fd5b61436d87828601613fd6565b604083015250606083015160608201526080830151608082015260a083015160a082015260c0830151828111156143a2578485fd5b6143ae87828601613fd6565b60c08301525060e0830151828111156143c5578485fd5b6143d187828601614123565b60e0830152506101006143e687828601614096565b908201526101406143f987858301614096565b61012083015261018084015183811115614411578586fd5b61441d88828701614123565b828401525050614431866101a08501614026565b61016082015295945050505050565b600060208284031215614451578081fd5b5035919050565b600060208284031215614469578081fd5b5051919050565b60008060408385031215614482578182fd5b8235915060208301356001600160401b0381111561449e578182fd5b8301601f810185136144ae578182fd5b80356144bc613ff482614ae4565b8181528660208385010111156144d0578384fd5b81602084016020830137908101602001929092525090939092509050565b60008060408385031215614500578182fd5b50508035926020909101359150565b600080600060608486031215614523578081fd5b505081359360208301359350604090920135919050565b6004811061455857634e487b7160e01b600052602160045260246000fd5b9052565b60008151808452614574816020860160208601614b6d565b601f01601f19169290920160200192915050565b8051518252602080820151519083015260409081015151910152565b60008151608084526145b9608085018261455c565b9050602083015184820360208601526145d2828261455c565b91505060408301516040850152606083015160608501528091505092915050565b6000815160808452614608608085018261455c565b90506020830151602085015260408301516040850152606083015160608501528091505092915050565b60006102008251818552614648828601826145f3565b915050602083015161465d602086018261453a565b5060408301518482036040860152614675828261455c565b915050606083015160608501526080830151608085015260a083015160a085015260c083015184820360c08601526146ad828261455c565b91505060e083015184820360e08601526146c782826145a4565b915050610100808401516146e78287018280518252602090810151910152565b50506101208301516101406147088187018380518252602090810151910152565b840151858303610180870152905061472082826145a4565b9150506101608301516147376101a0860182614588565b509392505050565b60008251614751818460208701614b6d565b9190910192915050565b6001600160a01b0391909116815260200190565b6001600160a01b039384168152919092166020820152604081019190915260600190565b6001600160a01b038316815260406020820181905260009061401e90830184614632565b6001600160a01b03929092168252602082015260400190565b6080815260006147e3608083018761455c565b6001600160a01b0395861660208401529390941660408201526060015292915050565b606081526000614819606083018661455c565b6001600160a01b0385166020840152828103604084015261483a818561455c565b9695505050505050565b606081526000614857606083018661455c565b6001600160a01b039490941660208301525060400152919050565b604081526000614885604083018561455c565b8281036020840152614897818561455c565b95945050505050565b6040815260006148b3604083018561455c565b90508260208301529392505050565b6060815260006148d5606083018661455c565b60208301949094525060400152919050565b6080815260006148fa608083018761455c565b6020830195909552506040810192909252606090910152919050565b6020808252818101527f4f776e61626c653a2063616c6c6572206973206e6f7420746865206f776e6572604082015260600190565b602081526000611b0e60208301846145a4565b6102008152600061497361020083018f6145f3565b614980602084018f61453a565b8281036040840152614992818e61455c565b90508b60608401528a60808401528960a084015282810360c08401526149b8818a61455c565b905082810360e08401526149cc81896145a4565b87516101008501526020880151610120850152905085516101408401526020860151610160840152828103610180840152614a0781866145a4565b915050614a186101a0830184614588565b9d9c50505050505050505050505050565b602081526000611b0e6020830184614632565b82815260808101611b0e6020830184614588565b82815260406020820152600061401e60408301846145a4565b604051608081016001600160401b0381118282101715614a8b57614a8b614c4f565b60405290565b60405161018081016001600160401b0381118282101715614a8b57614a8b614c4f565b604051601f8201601f191681016001600160401b0381118282101715614adc57614adc614c4f565b604052919050565b60006001600160401b03821115614afd57614afd614c4f565b50601f01601f191660200190565b60008219821115614b1e57614b1e614c23565b500190565b600082614b3257614b32614c39565b500490565b6000816000190483118215151615614b5157614b51614c23565b500290565b600082821015614b6857614b68614c23565b500390565b60005b83811015614b88578181015183820152602001614b70565b83811115612f1b5750506000910152565b600181811c90821680614bad57607f821691505b60208210811415614bce57634e487b7160e01b600052602260045260246000fd5b50919050565b6000600019821415614be857614be8614c23565b5060010190565b600060ff821660ff811415614c0657614c06614c23565b60010192915050565b600082614c1e57614c1e614c39565b500690565b634e487b7160e01b600052601160045260246000fd5b634e487b7160e01b600052601260045260246000fd5b634e487b7160e01b600052604160045260246000fdfea2646970667358221220ff9aeb4dc8b93920acffb7348f8b2770b1e802bf273c229418fbbce280e42d8b64736f6c63430008040033",
  "devdoc": {
    "kind": "dev",
    "methods": {
      "owner()": {
        "details": "Returns the address of the current owner."
      },
      "renounceOwnership()": {
        "details": "Leaves the contract without owner. It will not be possible to call `onlyOwner` functions anymore. Can only be called by the current owner. NOTE: Renouncing ownership will leave the contract without an owner, thereby removing any functionality that is only available to the owner."
      },
      "transferOwnership(address)": {
        "details": "Transfers ownership of the contract to a new account (`newOwner`). Can only be called by the current owner."
      }
    },
    "version": 1
  },
  "userdoc": {
    "kind": "user",
    "methods": {},
    "version": 1
  },
  "storageLayout": {
    "storage": [
      {
        "astId": 7,
        "contract": "src/ZooKeeper.sol:ZooKeeper",
        "label": "_owner",
        "offset": 0,
        "slot": "0",
        "type": "t_address"
      },
      {
        "astId": 7932,
        "contract": "src/ZooKeeper.sol:ZooKeeper",
        "label": "dropIDs",
        "offset": 0,
        "slot": "1",
        "type": "t_struct(Counter)2411_storage"
      },
      {
        "astId": 7990,
        "contract": "src/ZooKeeper.sol:ZooKeeper",
        "label": "drops",
        "offset": 0,
        "slot": "2",
        "type": "t_mapping(t_uint256,t_address)"
      },
      {
        "astId": 7994,
        "contract": "src/ZooKeeper.sol:ZooKeeper",
        "label": "dropAddresses",
        "offset": 0,
        "slot": "3",
        "type": "t_mapping(t_address,t_uint256)"
      },
      {
        "astId": 7999,
        "contract": "src/ZooKeeper.sol:ZooKeeper",
        "label": "tokens",
        "offset": 0,
        "slot": "4",
        "type": "t_mapping(t_uint256,t_struct(Token)19963_storage)"
      },
      {
        "astId": 8001,
        "contract": "src/ZooKeeper.sol:ZooKeeper",
        "label": "namePrice",
        "offset": 0,
        "slot": "5",
        "type": "t_uint256"
      },
      {
        "astId": 8004,
        "contract": "src/ZooKeeper.sol:ZooKeeper",
        "label": "market",
        "offset": 0,
        "slot": "6",
        "type": "t_contract(IMarket)19712"
      },
      {
        "astId": 8007,
        "contract": "src/ZooKeeper.sol:ZooKeeper",
        "label": "media",
        "offset": 0,
        "slot": "7",
        "type": "t_contract(IMedia)19892"
      },
      {
        "astId": 8010,
        "contract": "src/ZooKeeper.sol:ZooKeeper",
        "label": "zoo",
        "offset": 0,
        "slot": "8",
        "type": "t_contract(IERC20)767"
      }
    ],
    "types": {
      "t_address": {
        "encoding": "inplace",
        "label": "address",
        "numberOfBytes": "20"
      },
      "t_bytes32": {
        "encoding": "inplace",
        "label": "bytes32",
        "numberOfBytes": "32"
      },
      "t_contract(IERC20)767": {
        "encoding": "inplace",
        "label": "contract IERC20",
        "numberOfBytes": "20"
      },
      "t_contract(IMarket)19712": {
        "encoding": "inplace",
        "label": "contract IMarket",
        "numberOfBytes": "20"
      },
      "t_contract(IMedia)19892": {
        "encoding": "inplace",
        "label": "contract IMedia",
        "numberOfBytes": "20"
      },
      "t_enum(Type)19903": {
        "encoding": "inplace",
        "label": "enum IZoo.Type",
        "numberOfBytes": "1"
      },
      "t_mapping(t_address,t_uint256)": {
        "encoding": "mapping",
        "key": "t_address",
        "label": "mapping(address => uint256)",
        "numberOfBytes": "32",
        "value": "t_uint256"
      },
      "t_mapping(t_uint256,t_address)": {
        "encoding": "mapping",
        "key": "t_uint256",
        "label": "mapping(uint256 => address)",
        "numberOfBytes": "32",
        "value": "t_address"
      },
      "t_mapping(t_uint256,t_struct(Token)19963_storage)": {
        "encoding": "mapping",
        "key": "t_uint256",
        "label": "mapping(uint256 => struct IZoo.Token)",
        "numberOfBytes": "32",
        "value": "t_struct(Token)19963_storage"
      },
      "t_string_storage": {
        "encoding": "bytes",
        "label": "string",
        "numberOfBytes": "32"
      },
      "t_struct(BidShares)19570_storage": {
        "encoding": "inplace",
        "label": "struct IMarket.BidShares",
        "members": [
          {
            "astId": 19563,
            "contract": "src/ZooKeeper.sol:ZooKeeper",
            "label": "prevOwner",
            "offset": 0,
            "slot": "0",
            "type": "t_struct(D256)4192_storage"
          },
          {
            "astId": 19566,
            "contract": "src/ZooKeeper.sol:ZooKeeper",
            "label": "creator",
            "offset": 0,
            "slot": "1",
            "type": "t_struct(D256)4192_storage"
          },
          {
            "astId": 19569,
            "contract": "src/ZooKeeper.sol:ZooKeeper",
            "label": "owner",
            "offset": 0,
            "slot": "2",
            "type": "t_struct(D256)4192_storage"
          }
        ],
        "numberOfBytes": "96"
      },
      "t_struct(Breed)19917_storage": {
        "encoding": "inplace",
        "label": "struct IZoo.Breed",
        "members": [
          {
            "astId": 19914,
            "contract": "src/ZooKeeper.sol:ZooKeeper",
            "label": "count",
            "offset": 0,
            "slot": "0",
            "type": "t_uint256"
          },
          {
            "astId": 19916,
            "contract": "src/ZooKeeper.sol:ZooKeeper",
            "label": "timestamp",
            "offset": 0,
            "slot": "1",
            "type": "t_uint256"
          }
        ],
        "numberOfBytes": "64"
      },
      "t_struct(Counter)2411_storage": {
        "encoding": "inplace",
        "label": "struct Counters.Counter",
        "members": [
          {
            "astId": 2410,
            "contract": "src/ZooKeeper.sol:ZooKeeper",
            "label": "_value",
            "offset": 0,
            "slot": "0",
            "type": "t_uint256"
          }
        ],
        "numberOfBytes": "32"
      },
      "t_struct(D256)4192_storage": {
        "encoding": "inplace",
        "label": "struct Decimal.D256",
        "members": [
          {
            "astId": 4191,
            "contract": "src/ZooKeeper.sol:ZooKeeper",
            "label": "value",
            "offset": 0,
            "slot": "0",
            "type": "t_uint256"
          }
        ],
        "numberOfBytes": "32"
      },
      "t_struct(MediaData)19738_storage": {
        "encoding": "inplace",
        "label": "struct IMedia.MediaData",
        "members": [
          {
            "astId": 19731,
            "contract": "src/ZooKeeper.sol:ZooKeeper",
            "label": "tokenURI",
            "offset": 0,
            "slot": "0",
            "type": "t_string_storage"
          },
          {
            "astId": 19733,
            "contract": "src/ZooKeeper.sol:ZooKeeper",
            "label": "metadataURI",
            "offset": 0,
            "slot": "1",
            "type": "t_string_storage"
          },
          {
            "astId": 19735,
            "contract": "src/ZooKeeper.sol:ZooKeeper",
            "label": "contentHash",
            "offset": 0,
            "slot": "2",
            "type": "t_bytes32"
          },
          {
            "astId": 19737,
            "contract": "src/ZooKeeper.sol:ZooKeeper",
            "label": "metadataHash",
            "offset": 0,
            "slot": "3",
            "type": "t_bytes32"
          }
        ],
        "numberOfBytes": "128"
      },
      "t_struct(Meta)19931_storage": {
        "encoding": "inplace",
        "label": "struct IZoo.Meta",
        "members": [
          {
            "astId": 19928,
            "contract": "src/ZooKeeper.sol:ZooKeeper",
            "label": "eggID",
            "offset": 0,
            "slot": "0",
            "type": "t_uint256"
          },
          {
            "astId": 19930,
            "contract": "src/ZooKeeper.sol:ZooKeeper",
            "label": "dropID",
            "offset": 0,
            "slot": "1",
            "type": "t_uint256"
          }
        ],
        "numberOfBytes": "64"
      },
      "t_struct(Parents)19926_storage": {
        "encoding": "inplace",
        "label": "struct IZoo.Parents",
        "members": [
          {
            "astId": 19919,
            "contract": "src/ZooKeeper.sol:ZooKeeper",
            "label": "animalA",
            "offset": 0,
            "slot": "0",
            "type": "t_string_storage"
          },
          {
            "astId": 19921,
            "contract": "src/ZooKeeper.sol:ZooKeeper",
            "label": "animalB",
            "offset": 0,
            "slot": "1",
            "type": "t_string_storage"
          },
          {
            "astId": 19923,
            "contract": "src/ZooKeeper.sol:ZooKeeper",
            "label": "tokenA",
            "offset": 0,
            "slot": "2",
            "type": "t_uint256"
          },
          {
            "astId": 19925,
            "contract": "src/ZooKeeper.sol:ZooKeeper",
            "label": "tokenB",
            "offset": 0,
            "slot": "3",
            "type": "t_uint256"
          }
        ],
        "numberOfBytes": "128"
      },
      "t_struct(Rarity)19912_storage": {
        "encoding": "inplace",
        "label": "struct IZoo.Rarity",
        "members": [
          {
            "astId": 19905,
            "contract": "src/ZooKeeper.sol:ZooKeeper",
            "label": "name",
            "offset": 0,
            "slot": "0",
            "type": "t_string_storage"
          },
          {
            "astId": 19907,
            "contract": "src/ZooKeeper.sol:ZooKeeper",
            "label": "probability",
            "offset": 0,
            "slot": "1",
            "type": "t_uint256"
          },
          {
            "astId": 19909,
            "contract": "src/ZooKeeper.sol:ZooKeeper",
            "label": "yield",
            "offset": 0,
            "slot": "2",
            "type": "t_uint256"
          },
          {
            "astId": 19911,
            "contract": "src/ZooKeeper.sol:ZooKeeper",
            "label": "boost",
            "offset": 0,
            "slot": "3",
            "type": "t_uint256"
          }
        ],
        "numberOfBytes": "128"
      },
      "t_struct(Token)19963_storage": {
        "encoding": "inplace",
        "label": "struct IZoo.Token",
        "members": [
          {
            "astId": 19934,
            "contract": "src/ZooKeeper.sol:ZooKeeper",
            "label": "rarity",
            "offset": 0,
            "slot": "0",
            "type": "t_struct(Rarity)19912_storage"
          },
          {
            "astId": 19937,
            "contract": "src/ZooKeeper.sol:ZooKeeper",
            "label": "kind",
            "offset": 0,
            "slot": "4",
            "type": "t_enum(Type)19903"
          },
          {
            "astId": 19939,
            "contract": "src/ZooKeeper.sol:ZooKeeper",
            "label": "name",
            "offset": 0,
            "slot": "5",
            "type": "t_string_storage"
          },
          {
            "astId": 19941,
            "contract": "src/ZooKeeper.sol:ZooKeeper",
            "label": "id",
            "offset": 0,
            "slot": "6",
            "type": "t_uint256"
          },
          {
            "astId": 19943,
            "contract": "src/ZooKeeper.sol:ZooKeeper",
            "label": "timestamp",
            "offset": 0,
            "slot": "7",
            "type": "t_uint256"
          },
          {
            "astId": 19945,
            "contract": "src/ZooKeeper.sol:ZooKeeper",
            "label": "birthday",
            "offset": 0,
            "slot": "8",
            "type": "t_uint256"
          },
          {
            "astId": 19947,
            "contract": "src/ZooKeeper.sol:ZooKeeper",
            "label": "customName",
            "offset": 0,
            "slot": "9",
            "type": "t_string_storage"
          },
          {
            "astId": 19950,
            "contract": "src/ZooKeeper.sol:ZooKeeper",
            "label": "parents",
            "offset": 0,
            "slot": "10",
            "type": "t_struct(Parents)19926_storage"
          },
          {
            "astId": 19953,
            "contract": "src/ZooKeeper.sol:ZooKeeper",
            "label": "breed",
            "offset": 0,
            "slot": "14",
            "type": "t_struct(Breed)19917_storage"
          },
          {
            "astId": 19956,
            "contract": "src/ZooKeeper.sol:ZooKeeper",
            "label": "meta",
            "offset": 0,
            "slot": "16",
            "type": "t_struct(Meta)19931_storage"
          },
          {
            "astId": 19959,
            "contract": "src/ZooKeeper.sol:ZooKeeper",
            "label": "data",
            "offset": 0,
            "slot": "18",
            "type": "t_struct(MediaData)19738_storage"
          },
          {
            "astId": 19962,
            "contract": "src/ZooKeeper.sol:ZooKeeper",
            "label": "bidShares",
            "offset": 0,
            "slot": "22",
            "type": "t_struct(BidShares)19570_storage"
          }
        ],
        "numberOfBytes": "800"
      },
      "t_uint256": {
        "encoding": "inplace",
        "label": "uint256",
        "numberOfBytes": "32"
      }
    }
  }
}