{
  "address": "0x9755dD7E27E90b4fC00E50EC14DD2D08a79064d3",
  "abi": [
    {
      "inputs": [],
      "stateMutability": "nonpayable",
      "type": "constructor"
    },
    {
      "inputs": [],
      "name": "InvalidCallData",
      "type": "error"
    },
    {
      "inputs": [],
      "name": "InvalidInnerCallDataLength",
      "type": "error"
    },
    {
      "inputs": [],
      "name": "InvalidSmartAccount",
      "type": "error"
    },
    {
      "inputs": [],
      "name": "InvalidUserOpCallDataLength",
      "type": "error"
    },
    {
      "inputs": [],
      "name": "InvalidValidator",
      "type": "error"
    },
    {
      "inputs": [
        {
          "internalType": "address",
          "name": "target",
          "type": "address"
        },
        {
          "internalType": "bytes4",
          "name": "selector",
          "type": "bytes4"
        }
      ],
      "name": "NoValidatorSet",
      "type": "error"
    },
    {
      "inputs": [
        {
          "internalType": "address",
          "name": "target",
          "type": "address"
        },
        {
          "internalType": "bytes4",
          "name": "selector",
          "type": "bytes4"
        }
      ],
      "name": "ValidationFailed",
      "type": "error"
    },
    {
      "anonymous": false,
      "inputs": [
        {
          "indexed": false,
          "internalType": "address",
          "name": "target",
          "type": "address"
        },
        {
          "indexed": false,
          "internalType": "bytes4",
          "name": "selector",
          "type": "bytes4"
        }
      ],
      "name": "FunctionValidatorRemoved",
      "type": "event"
    },
    {
      "anonymous": false,
      "inputs": [
        {
          "indexed": false,
          "internalType": "address",
          "name": "target",
          "type": "address"
        },
        {
          "indexed": false,
          "internalType": "bytes4",
          "name": "selector",
          "type": "bytes4"
        },
        {
          "indexed": false,
          "internalType": "address",
          "name": "validator",
          "type": "address"
        }
      ],
      "name": "FunctionValidatorSet",
      "type": "event"
    },
    {
      "anonymous": false,
      "inputs": [
        {
          "indexed": false,
          "internalType": "uint8",
          "name": "version",
          "type": "uint8"
        }
      ],
      "name": "Initialized",
      "type": "event"
    },
    {
      "anonymous": false,
      "inputs": [
        {
          "indexed": true,
          "internalType": "address",
          "name": "previousOwner",
          "type": "address"
        },
        {
          "indexed": true,
          "internalType": "address",
          "name": "newOwner",
          "type": "address"
        }
      ],
      "name": "OwnershipTransferred",
      "type": "event"
    },
    {
      "inputs": [
        {
          "internalType": "uint32",
          "name": "unstakeDelaySec",
          "type": "uint32"
        }
      ],
      "name": "addStake",
      "outputs": [],
      "stateMutability": "payable",
      "type": "function"
    },
    {
      "inputs": [],
      "name": "deposit",
      "outputs": [],
      "stateMutability": "payable",
      "type": "function"
    },
    {
      "inputs": [],
      "name": "entryPoint",
      "outputs": [
        {
          "internalType": "contract IEntryPoint",
          "name": "",
          "type": "address"
        }
      ],
      "stateMutability": "view",
      "type": "function"
    },
    {
      "inputs": [],
      "name": "getDeposit",
      "outputs": [
        {
          "internalType": "uint256",
          "name": "",
          "type": "uint256"
        }
      ],
      "stateMutability": "view",
      "type": "function"
    },
    {
      "inputs": [
        {
          "internalType": "address",
          "name": "target",
          "type": "address"
        },
        {
          "internalType": "bytes4",
          "name": "selector",
          "type": "bytes4"
        }
      ],
      "name": "getFunctionValidator",
      "outputs": [
        {
          "internalType": "address",
          "name": "",
          "type": "address"
        }
      ],
      "stateMutability": "view",
      "type": "function"
    },
    {
      "inputs": [],
      "name": "getVersion",
      "outputs": [
        {
          "internalType": "uint16",
          "name": "",
          "type": "uint16"
        }
      ],
      "stateMutability": "view",
      "type": "function"
    },
    {
      "inputs": [
        {
          "internalType": "bytes",
          "name": "data",
          "type": "bytes"
        }
      ],
      "name": "initialize",
      "outputs": [],
      "stateMutability": "nonpayable",
      "type": "function"
    },
    {
      "inputs": [],
      "name": "lightAccountFactory",
      "outputs": [
        {
          "internalType": "contract ILightAccountFactory",
          "name": "",
          "type": "address"
        }
      ],
      "stateMutability": "view",
      "type": "function"
    },
    {
      "inputs": [],
      "name": "owner",
      "outputs": [
        {
          "internalType": "address",
          "name": "",
          "type": "address"
        }
      ],
      "stateMutability": "view",
      "type": "function"
    },
    {
      "inputs": [
        {
          "internalType": "enum IPaymaster.PostOpMode",
          "name": "mode",
          "type": "uint8"
        },
        {
          "internalType": "bytes",
          "name": "context",
          "type": "bytes"
        },
        {
          "internalType": "uint256",
          "name": "actualGasCost",
          "type": "uint256"
        },
        {
          "internalType": "uint256",
          "name": "actualUserOpFeePerGas",
          "type": "uint256"
        }
      ],
      "name": "postOp",
      "outputs": [],
      "stateMutability": "nonpayable",
      "type": "function"
    },
    {
      "inputs": [
        {
          "internalType": "address",
          "name": "target",
          "type": "address"
        },
        {
          "internalType": "bytes4",
          "name": "selector",
          "type": "bytes4"
        }
      ],
      "name": "removeFunctionValidator",
      "outputs": [],
      "stateMutability": "nonpayable",
      "type": "function"
    },
    {
      "inputs": [],
      "name": "renounceOwnership",
      "outputs": [],
      "stateMutability": "nonpayable",
      "type": "function"
    },
    {
      "inputs": [
        {
          "internalType": "address",
          "name": "target",
          "type": "address"
        },
        {
          "internalType": "bytes4",
          "name": "selector",
          "type": "bytes4"
        },
        {
          "internalType": "address",
          "name": "validator",
          "type": "address"
        }
      ],
      "name": "setFunctionValidator",
      "outputs": [],
      "stateMutability": "nonpayable",
      "type": "function"
    },
    {
      "inputs": [
        {
          "internalType": "bytes4",
          "name": "interfaceId",
          "type": "bytes4"
        }
      ],
      "name": "supportsInterface",
      "outputs": [
        {
          "internalType": "bool",
          "name": "",
          "type": "bool"
        }
      ],
      "stateMutability": "view",
      "type": "function"
    },
    {
      "inputs": [
        {
          "internalType": "address",
          "name": "newOwner",
          "type": "address"
        }
      ],
      "name": "transferOwnership",
      "outputs": [],
      "stateMutability": "nonpayable",
      "type": "function"
    },
    {
      "inputs": [],
      "name": "unlockStake",
      "outputs": [],
      "stateMutability": "nonpayable",
      "type": "function"
    },
    {
      "inputs": [
        {
          "components": [
            {
              "internalType": "address",
              "name": "sender",
              "type": "address"
            },
            {
              "internalType": "uint256",
              "name": "nonce",
              "type": "uint256"
            },
            {
              "internalType": "bytes",
              "name": "initCode",
              "type": "bytes"
            },
            {
              "internalType": "bytes",
              "name": "callData",
              "type": "bytes"
            },
            {
              "internalType": "bytes32",
              "name": "accountGasLimits",
              "type": "bytes32"
            },
            {
              "internalType": "uint256",
              "name": "preVerificationGas",
              "type": "uint256"
            },
            {
              "internalType": "bytes32",
              "name": "gasFees",
              "type": "bytes32"
            },
            {
              "internalType": "bytes",
              "name": "paymasterAndData",
              "type": "bytes"
            },
            {
              "internalType": "bytes",
              "name": "signature",
              "type": "bytes"
            }
          ],
          "internalType": "struct PackedUserOperation",
          "name": "userOp",
          "type": "tuple"
        },
        {
          "internalType": "bytes32",
          "name": "userOpHash",
          "type": "bytes32"
        },
        {
          "internalType": "uint256",
          "name": "maxCost",
          "type": "uint256"
        }
      ],
      "name": "validatePaymasterUserOp",
      "outputs": [
        {
          "internalType": "bytes",
          "name": "context",
          "type": "bytes"
        },
        {
          "internalType": "uint256",
          "name": "validationData",
          "type": "uint256"
        }
      ],
      "stateMutability": "nonpayable",
      "type": "function"
    },
    {
      "inputs": [
        {
          "internalType": "address payable",
          "name": "withdrawAddress",
          "type": "address"
        }
      ],
      "name": "withdrawStake",
      "outputs": [],
      "stateMutability": "nonpayable",
      "type": "function"
    },
    {
      "inputs": [
        {
          "internalType": "address payable",
          "name": "withdrawAddress",
          "type": "address"
        },
        {
          "internalType": "uint256",
          "name": "amount",
          "type": "uint256"
        }
      ],
      "name": "withdrawTo",
      "outputs": [],
      "stateMutability": "nonpayable",
      "type": "function"
    }
  ],
  "transactionHash": "0xdd0438756bd111a7813cf88f2a055a8768e886dfc9aa82a8614bfae65586be41",
  "args": [],
  "numDeployments": 1,
  "solcInputHash": "402a67e06595e77085b5b2729c7fa191",
  "bytecode": "0x608060405234801561001057600080fd5b5061001a33610037565b610022610087565b61002a610087565b610032610087565b610154565b600080546001600160a01b038381166001600160a01b0319831681178455604051919092169283917f8be0079c531659141344cd1fd0a4f28419497f9722a3daafe3b4186f6b6457e09190a35050565b600054600160a81b900460ff16156100f55760405162461bcd60e51b815260206004820152602760248201527f496e697469616c697a61626c653a20636f6e747261637420697320696e697469604482015266616c697a696e6760c81b606482015260840160405180910390fd5b60005460ff600160a01b90910481161015610152576000805460ff60a01b191660ff60a01b17905560405160ff81527f7f26b83ff96e1f2b6a682f133852f6798a09c465da95921460cefb38474024989060200160405180910390a15b565b611671806101636000396000f3fe6080604052600436106101145760003560e01c80637e902d57116100a0578063c399ec8811610064578063c399ec881461031c578063c9faa64c1461033f578063d0e30db01461035f578063e08f274f14610367578063f2fde38b1461038757600080fd5b80637e902d57146102895780638da5cb5b146102a9578063b0d691fe146102c7578063bb9fe6bf146102e7578063c23a5cea146102fc57600080fd5b80633f37352d116100e75780633f37352d1461019f578063439fab911461020657806352b7512c14610226578063715018a6146102545780637c627b211461026957600080fd5b806301ffc9a7146101195780630396cb601461014e5780630d8e6e2c14610163578063205c28781461017f575b600080fd5b34801561012557600080fd5b506101396101343660046110aa565b6103a7565b60405190151581526020015b60405180910390f35b61016161015c3660046110cc565b6103ed565b005b34801561016f57600080fd5b5060405160018152602001610145565b34801561018b57600080fd5b5061016161019a366004611107565b61045c565b3480156101ab57600080fd5b506101ee6101ba366004611133565b6001600160a01b0391821660009081526003602090815260408083206001600160e01b031994909416835292905220541690565b6040516001600160a01b039091168152602001610145565b34801561021257600080fd5b506101616102213660046111b1565b6104b2565b34801561023257600080fd5b506102466102413660046111f3565b61061c565b60405161014592919061128d565b34801561026057600080fd5b5061016161063f565b34801561027557600080fd5b506101616102843660046112af565b610653565b34801561029557600080fd5b506002546101ee906001600160a01b031681565b3480156102b557600080fd5b506000546001600160a01b03166101ee565b3480156102d357600080fd5b506001546101ee906001600160a01b031681565b3480156102f357600080fd5b5061016161066f565b34801561030857600080fd5b5061016161031736600461131a565b6106e1565b34801561032857600080fd5b50610331610744565b604051908152602001610145565b34801561034b57600080fd5b5061016161035a366004611133565b6107b6565b610161610837565b34801561037357600080fd5b50610161610382366004611337565b61087d565b34801561039357600080fd5b506101616103a236600461131a565b6109b9565b60006001600160e01b03198216630b215a1760e11b14806103d857506001600160e01b03198216632ed52a0d60e01b145b806103e757506103e782610a32565b92915050565b6103f5610a67565b600154604051621cb65b60e51b815263ffffffff831660048201526001600160a01b0390911690630396cb609034906024016000604051808303818588803b15801561044057600080fd5b505af1158015610454573d6000803e3d6000fd5b505050505050565b610464610a67565b60015460405163040b850f60e31b81526001600160a01b038481166004830152602482018490529091169063205c287890604401600060405180830381600087803b15801561044057600080fd5b600054600160a81b900460ff16158080156104da57506000546001600160a01b90910460ff16105b806104fb5750303b1580156104fb5750600054600160a01b900460ff166001145b6105635760405162461bcd60e51b815260206004820152602e60248201527f496e697469616c697a61626c653a20636f6e747261637420697320616c72656160448201526d191e481a5b9a5d1a585b1a5e995960921b60648201526084015b60405180910390fd5b6000805460ff60a01b1916600160a01b1790558015610590576000805460ff60a81b1916600160a81b1790555b600080806105a085870187611380565b9250925092506105b08383610ac1565b600280546001600160a01b0319166001600160a01b0383161790555050508015610617576000805460ff60a81b19169055604051600181527f7f26b83ff96e1f2b6a682f133852f6798a09c465da95921460cefb3847402498906020015b60405180910390a15b505050565b60606000610628610b63565b610633858585610bb5565b91509150935093915050565b610647610a67565b6106516000610d15565b565b61065b610b63565b6106688585858585610d65565b5050505050565b610677610a67565b600160009054906101000a90046001600160a01b03166001600160a01b031663bb9fe6bf6040518163ffffffff1660e01b8152600401600060405180830381600087803b1580156106c757600080fd5b505af11580156106db573d6000803e3d6000fd5b50505050565b6106e9610a67565b60015460405163611d2e7560e11b81526001600160a01b0383811660048301529091169063c23a5cea90602401600060405180830381600087803b15801561073057600080fd5b505af1158015610668573d6000803e3d6000fd5b6001546040516370a0823160e01b81523060048201526000916001600160a01b0316906370a0823190602401602060405180830381865afa15801561078d573d6000803e3d6000fd5b505050506040513d601f19601f820116820180604052508101906107b191906113b0565b905090565b6107be610a67565b6001600160a01b03821660009081526003602090815260408083206001600160e01b0319851684529091529081902080546001600160a01b0319169055517fb0855b98fb6f59847701547e88612488f0e9c2092dc76ff1ebbc3c08870df8b69061082b90849084906113c9565b60405180910390a15050565b60015460405163b760faf960e01b81523060048201526001600160a01b039091169063b760faf99034906024016000604051808303818588803b15801561073057600080fd5b610885610a67565b6001600160a01b0381166108ac57604051631a0a9b9f60e21b815260040160405180910390fd5b6040516301ffc9a760e01b815263d638ddbb60e01b60048201526001600160a01b038216906301ffc9a790602401602060405180830381865afa1580156108f7573d6000803e3d6000fd5b505050506040513d601f19601f8201168201806040525081019061091b91906113ec565b61093857604051631a0a9b9f60e21b815260040160405180910390fd5b6001600160a01b0383811660008181526003602090815260408083206001600160e01b031988168085529083529281902080546001600160a01b03191695871695861790558051938452908301919091528101919091527f8d775e409e4e6d3379fae97b0a99f65047d813a795cc30faa3314dd4e8b62aa99060600161060e565b6109c1610a67565b6001600160a01b038116610a265760405162461bcd60e51b815260206004820152602660248201527f4f776e61626c653a206e6577206f776e657220697320746865207a65726f206160448201526564647265737360d01b606482015260840161055a565b610a2f81610d15565b50565b60006001600160e01b031982166303639b8b60e21b14806103e757506301ffc9a760e01b6001600160e01b03198316146103e7565b6000546001600160a01b031633146106515760405162461bcd60e51b815260206004820181905260248201527f4f776e61626c653a2063616c6c6572206973206e6f7420746865206f776e6572604482015260640161055a565b600054600160a81b900460ff16610b2e5760405162461bcd60e51b815260206004820152602b60248201527f496e697469616c697a61626c653a20636f6e7472616374206973206e6f74206960448201526a6e697469616c697a696e6760a81b606482015260840161055a565b610b3782610d15565b610b4081610d9d565b600180546001600160a01b0319166001600160a01b039290921691909117905550565b6001546001600160a01b031633146106515760405162461bcd60e51b815260206004820152601560248201527414d95b99195c881b9bdd08115b9d1c9e541bda5b9d605a1b604482015260640161055a565b6060600080600080610bc688610e58565b6001600160a01b0380831660009081526003602090815260408083206001600160e01b03198616845290915290205493965091945092501680610c2057828260405163effed35f60e01b815260040161055a9291906113c9565b6000610c2f60608b018b61140e565b610c3d916004908290611455565b810190610c4a9190611495565b925060009150506001600160a01b03831663d7c7141c610c6d60208e018e61131a565b8888866040518563ffffffff1660e01b8152600401610c8f949392919061156a565b602060405180830381865afa158015610cac573d6000803e3d6000fd5b505050506040513d601f19601f82011682018060405250810190610cd091906113ec565b905080610cf457848460405163747395bf60e11b815260040161055a9291906113c9565b5050604080516000808252602082019092529a909950975050505050505050565b600080546001600160a01b038381166001600160a01b0319831681178455604051919092169283917f8be0079c531659141344cd1fd0a4f28419497f9722a3daafe3b4186f6b6457e09190a35050565b60405162461bcd60e51b815260206004820152600d60248201526c6d757374206f7665727269646560981b604482015260640161055a565b6040516301ffc9a760e01b815263122a0e9b60e31b60048201526001600160a01b038216906301ffc9a790602401602060405180830381865afa158015610de8573d6000803e3d6000fd5b505050506040513d601f19601f82011682018060405250810190610e0c91906113ec565b610a2f5760405162461bcd60e51b815260206004820152601e60248201527f49456e747279506f696e7420696e74657266616365206d69736d617463680000604482015260640161055a565b600080808080610e73610e6e602088018861131a565b610f7a565b9150915081610e9557604051636afdfe6f60e01b815260040160405180910390fd5b6004610ea4606088018861140e565b90501015610ec557604051638f8a68c560e01b815260040160405180910390fd5b610ed2606087018761140e565b610edb916115a8565b6001600160e01b03191663b61d27f660e01b14610f0b57604051631c49f4d160e01b815260040160405180910390fd5b600080610f1b606089018961140e565b610f29916004908290611455565b810190610f369190611495565b9250509150600481511015610f5e57604051638492042d60e01b815260040160405180910390fd5b8282610f69836115e0565b965096509650505050509193909250565b600080823b808203610f925750600093849350915050565b836001600160a01b0316638da5cb5b6040518163ffffffff1660e01b8152600401602060405180830381865afa925050508015610fec575060408051601f3d908101601f19168201909252610fe99181019061161e565b60015b610ffc5750600093849350915050565b60025460405163119709c360e31b81526001600160a01b038381166004830152600060248301819052921690638cb84e1890604401602060405180830381865afa15801561104e573d6000803e3d6000fd5b505050506040513d601f19601f82011682018060405250810190611072919061161e565b6001600160a01b039081169616959095149590945092505050565b80356001600160e01b0319811681146110a557600080fd5b919050565b6000602082840312156110bc57600080fd5b6110c58261108d565b9392505050565b6000602082840312156110de57600080fd5b813563ffffffff811681146110c557600080fd5b6001600160a01b0381168114610a2f57600080fd5b6000806040838503121561111a57600080fd5b8235611125816110f2565b946020939093013593505050565b6000806040838503121561114657600080fd5b8235611151816110f2565b915061115f6020840161108d565b90509250929050565b60008083601f84011261117a57600080fd5b50813567ffffffffffffffff81111561119257600080fd5b6020830191508360208285010111156111aa57600080fd5b9250929050565b600080602083850312156111c457600080fd5b823567ffffffffffffffff8111156111db57600080fd5b6111e785828601611168565b90969095509350505050565b60008060006060848603121561120857600080fd5b833567ffffffffffffffff81111561121f57600080fd5b8401610120818703121561123257600080fd5b95602085013595506040909401359392505050565b6000815180845260005b8181101561126d57602081850181015186830182015201611251565b506000602082860101526020601f19601f83011685010191505092915050565b6040815260006112a06040830185611247565b90508260208301529392505050565b6000806000806000608086880312156112c757600080fd5b8535600381106112d657600080fd5b9450602086013567ffffffffffffffff8111156112f257600080fd5b6112fe88828901611168565b9699909850959660408101359660609091013595509350505050565b60006020828403121561132c57600080fd5b81356110c5816110f2565b60008060006060848603121561134c57600080fd5b8335611357816110f2565b92506113656020850161108d565b91506040840135611375816110f2565b809150509250925092565b60008060006060848603121561139557600080fd5b83356113a0816110f2565b92506020840135611365816110f2565b6000602082840312156113c257600080fd5b5051919050565b6001600160a01b039290921682526001600160e01b031916602082015260400190565b6000602082840312156113fe57600080fd5b815180151581146110c557600080fd5b6000808335601e1984360301811261142557600080fd5b83018035915067ffffffffffffffff82111561144057600080fd5b6020019150368190038213156111aa57600080fd5b6000808585111561146557600080fd5b8386111561147257600080fd5b5050820193919092039150565b634e487b7160e01b600052604160045260246000fd5b6000806000606084860312156114aa57600080fd5b83356114b5816110f2565b925060208401359150604084013567ffffffffffffffff8111156114d857600080fd5b8401601f810186136114e957600080fd5b803567ffffffffffffffff8111156115035761150361147f565b604051601f8201601f19908116603f0116810167ffffffffffffffff811182821017156115325761153261147f565b60405281815282820160200188101561154a57600080fd5b816020840160208301376000602083830101528093505050509250925092565b6001600160a01b03858116825284811660208301528316604082015260806060820181905260009061159e90830184611247565b9695505050505050565b80356001600160e01b031981169060048410156115d9576001600160e01b0319600485900360031b81901b82161691505b5092915050565b805160208201516001600160e01b0319811691906004821015611617576001600160e01b0319600483900360031b81901b82161692505b5050919050565b60006020828403121561163057600080fd5b81516110c5816110f256fea2646970667358221220dc7d16e3a37399cb92dd34ce8087ce7bfca4b011bb012ebb18b0918e986ee7e664736f6c634300081c0033",
  "devdoc": {
    "events": {
      "Initialized(uint8)": {
        "details": "Triggered when the contract has been initialized or reinitialized."
      }
    },
    "kind": "dev",
    "methods": {
      "addStake(uint32)": {
        "params": {
          "unstakeDelaySec": "- The unstake delay for this paymaster. Can only be increased."
        }
      },
      "getVersion()": {
        "details": "Returns the version number of this contract implementation Inheriting contracts MUST override this function."
      },
      "initialize(bytes)": {
        "details": "The data is encoded as (address, address, address)",
        "params": {
          "data": "The data to initialize the contract with"
        }
      },
      "owner()": {
        "details": "Returns the address of the current owner."
      },
      "postOp(uint8,bytes,uint256,uint256)": {
        "params": {
          "actualGasCost": "- Actual gas used so far (without this postOp call).",
          "actualUserOpFeePerGas": "- the gas price this UserOp pays. This value is based on the UserOp's maxFeePerGas                        and maxPriorityFee (and basefee)                        It is not the same as tx.gasprice, which is what the bundler pays.",
          "context": "- The context value returned by validatePaymasterUserOp",
          "mode": "- Enum with the following options:                        opSucceeded - User operation succeeded.                        opReverted  - User op reverted. The paymaster still has to pay for gas.                        postOpReverted - never passed in a call to postOp()."
        }
      },
      "removeFunctionValidator(address,bytes4)": {
        "params": {
          "selector": "Function selector to remove validation for",
          "target": "The target contract address"
        }
      },
      "renounceOwnership()": {
        "details": "Leaves the contract without owner. It will not be possible to call `onlyOwner` functions anymore. Can only be called by the current owner. NOTE: Renouncing ownership will leave the contract without an owner, thereby removing any functionality that is only available to the owner."
      },
      "setFunctionValidator(address,bytes4,address)": {
        "params": {
          "selector": "Function selector to validate",
          "target": "The target contract address",
          "validator": "Address of the validator contract"
        }
      },
      "supportsInterface(bytes4)": {
        "details": "See {IERC165-supportsInterface}."
      },
      "transferOwnership(address)": {
        "details": "Transfers ownership of the contract to a new account (`newOwner`). Can only be called by the current owner."
      },
      "validatePaymasterUserOp((address,uint256,bytes,bytes,bytes32,uint256,bytes32,bytes,bytes),bytes32,uint256)": {
        "params": {
          "maxCost": "- The maximum cost of this transaction (based on maximum gas and gas price from userOp).",
          "userOp": "- The user operation.",
          "userOpHash": "- Hash of the user's request data."
        },
        "returns": {
          "context": "       - Value to send to a postOp. Zero length to signify postOp is not required.",
          "validationData": "- Signature and time-range of this operation, encoded the same as the return                          value of validateUserOperation.                          <20-byte> sigAuthorizer - 0 for valid signature, 1 to mark signature failure,                                                    other values are invalid for paymaster.                          <6-byte> validUntil - last timestamp this operation is valid. 0 for \"indefinite\"                          <6-byte> validAfter - first timestamp this operation is valid                          Note that the validation code cannot use block.timestamp (or block.number) directly."
        }
      },
      "withdrawStake(address)": {
        "params": {
          "withdrawAddress": "- The address to send withdrawn value."
        }
      },
      "withdrawTo(address,uint256)": {
        "params": {
          "amount": "- Amount to withdraw.",
          "withdrawAddress": "- Target to send to."
        }
      }
    },
    "version": 1
  },
  "userdoc": {
    "kind": "user",
    "methods": {
      "addStake(uint32)": {
        "notice": "Add stake for this paymaster. This method can also carry eth value to add to the current stake."
      },
      "deposit()": {
        "notice": "Add a deposit for this paymaster, used for paying for transaction fees."
      },
      "getDeposit()": {
        "notice": "Return current paymaster's deposit on the entryPoint."
      },
      "initialize(bytes)": {
        "notice": "Initialize function for the proxy deployment. This standardizes the initialization to better work with ProxyFactory."
      },
      "postOp(uint8,bytes,uint256,uint256)": {
        "notice": "Post-operation handler. Must verify sender is the entryPoint."
      },
      "removeFunctionValidator(address,bytes4)": {
        "notice": "Remove validator for a specific function"
      },
      "setFunctionValidator(address,bytes4,address)": {
        "notice": "Set validator for a specific function"
      },
      "unlockStake()": {
        "notice": "Unlock the stake, in order to withdraw it. The paymaster can't serve requests once unlocked, until it calls addStake again"
      },
      "validatePaymasterUserOp((address,uint256,bytes,bytes,bytes32,uint256,bytes32,bytes,bytes),bytes32,uint256)": {
        "notice": "Payment validation: check if paymaster agrees to pay. Must verify sender is the entryPoint. Revert to reject this request. Note that bundlers will reject this method if it changes the state, unless the paymaster is trusted (whitelisted). The paymaster pre-pays using its deposit, and receive back a refund after the postOp method returns."
      },
      "withdrawStake(address)": {
        "notice": "Withdraw the entire paymaster's stake. stake must be unlocked first (and then wait for the unstakeDelay to be over)"
      },
      "withdrawTo(address,uint256)": {
        "notice": "Withdraw value from the deposit."
      }
    },
    "version": 1
  },
  "storageLayout": {
    "storage": [
      {
        "astId": 10625,
        "contract": "contracts/account-abstraction/DAOPaymasterV1.sol:DAOPaymasterV1",
        "label": "_owner",
        "offset": 0,
        "slot": "0",
        "type": "t_address"
      },
      {
        "astId": 4521,
        "contract": "contracts/account-abstraction/DAOPaymasterV1.sol:DAOPaymasterV1",
        "label": "_initialized",
        "offset": 20,
        "slot": "0",
        "type": "t_uint8"
      },
      {
        "astId": 4524,
        "contract": "contracts/account-abstraction/DAOPaymasterV1.sol:DAOPaymasterV1",
        "label": "_initializing",
        "offset": 21,
        "slot": "0",
        "type": "t_bool"
      },
      {
        "astId": 24209,
        "contract": "contracts/account-abstraction/DAOPaymasterV1.sol:DAOPaymasterV1",
        "label": "entryPoint",
        "offset": 0,
        "slot": "1",
        "type": "t_contract(IEntryPoint)753"
      },
      {
        "astId": 24827,
        "contract": "contracts/account-abstraction/DAOPaymasterV1.sol:DAOPaymasterV1",
        "label": "lightAccountFactory",
        "offset": 0,
        "slot": "2",
        "type": "t_contract(ILightAccountFactory)26133"
      },
      {
        "astId": 24512,
        "contract": "contracts/account-abstraction/DAOPaymasterV1.sol:DAOPaymasterV1",
        "label": "_functionValidators",
        "offset": 0,
        "slot": "3",
        "type": "t_mapping(t_address,t_mapping(t_bytes4,t_address))"
      }
    ],
    "types": {
      "t_address": {
        "encoding": "inplace",
        "label": "address",
        "numberOfBytes": "20"
      },
      "t_bool": {
        "encoding": "inplace",
        "label": "bool",
        "numberOfBytes": "1"
      },
      "t_bytes4": {
        "encoding": "inplace",
        "label": "bytes4",
        "numberOfBytes": "4"
      },
      "t_contract(IEntryPoint)753": {
        "encoding": "inplace",
        "label": "contract IEntryPoint",
        "numberOfBytes": "20"
      },
      "t_contract(ILightAccountFactory)26133": {
        "encoding": "inplace",
        "label": "contract ILightAccountFactory",
        "numberOfBytes": "20"
      },
      "t_mapping(t_address,t_mapping(t_bytes4,t_address))": {
        "encoding": "mapping",
        "key": "t_address",
        "label": "mapping(address => mapping(bytes4 => address))",
        "numberOfBytes": "32",
        "value": "t_mapping(t_bytes4,t_address)"
      },
      "t_mapping(t_bytes4,t_address)": {
        "encoding": "mapping",
        "key": "t_bytes4",
        "label": "mapping(bytes4 => address)",
        "numberOfBytes": "32",
        "value": "t_address"
      },
      "t_uint8": {
        "encoding": "inplace",
        "label": "uint8",
        "numberOfBytes": "1"
      }
    }
  }
}